{
  "_format": "hh-sol-artifact-1",
  "contractName": "AlpacaToken",
  "sourceName": "contracts/6/token/AlpacaToken.sol",
  "abi": [
    {
      "inputs": [
        {
          "internalType": "uint256",
          "name": "_startReleaseBlock",
          "type": "uint256"
        },
        {
          "internalType": "uint256",
          "name": "_endReleaseBlock",
          "type": "uint256"
        }
      ],
      "stateMutability": "nonpayable",
      "type": "constructor"
    },
    {
      "anonymous": false,
      "inputs": [
        {
          "indexed": true,
          "internalType": "address",
          "name": "owner",
          "type": "address"
        },
        {
          "indexed": true,
          "internalType": "address",
          "name": "spender",
          "type": "address"
        },
        {
          "indexed": false,
          "internalType": "uint256",
          "name": "value",
          "type": "uint256"
        }
      ],
      "name": "Approval",
      "type": "event"
    },
    {
      "anonymous": false,
      "inputs": [
        {
          "indexed": true,
          "internalType": "address",
          "name": "delegator",
          "type": "address"
        },
        {
          "indexed": true,
          "internalType": "address",
          "name": "fromDelegate",
          "type": "address"
        },
        {
          "indexed": true,
          "internalType": "address",
          "name": "toDelegate",
          "type": "address"
        }
      ],
      "name": "DelegateChanged",
      "type": "event"
    },
    {
      "anonymous": false,
      "inputs": [
        {
          "indexed": true,
          "internalType": "address",
          "name": "delegate",
          "type": "address"
        },
        {
          "indexed": false,
          "internalType": "uint256",
          "name": "previousBalance",
          "type": "uint256"
        },
        {
          "indexed": false,
          "internalType": "uint256",
          "name": "newBalance",
          "type": "uint256"
        }
      ],
      "name": "DelegateVotesChanged",
      "type": "event"
    },
    {
      "anonymous": false,
      "inputs": [
        {
          "indexed": true,
          "internalType": "address",
          "name": "to",
          "type": "address"
        },
        {
          "indexed": false,
          "internalType": "uint256",
          "name": "value",
          "type": "uint256"
        }
      ],
      "name": "Lock",
      "type": "event"
    },
    {
      "anonymous": false,
      "inputs": [
        {
          "indexed": true,
          "internalType": "address",
          "name": "previousOwner",
          "type": "address"
        },
        {
          "indexed": true,
          "internalType": "address",
          "name": "newOwner",
          "type": "address"
        }
      ],
      "name": "OwnershipTransferred",
      "type": "event"
    },
    {
      "anonymous": false,
      "inputs": [
        {
          "indexed": true,
          "internalType": "address",
          "name": "from",
          "type": "address"
        },
        {
          "indexed": true,
          "internalType": "address",
          "name": "to",
          "type": "address"
        },
        {
          "indexed": false,
          "internalType": "uint256",
          "name": "value",
          "type": "uint256"
        }
      ],
      "name": "Transfer",
      "type": "event"
    },
    {
      "inputs": [],
      "name": "DELEGATION_TYPEHASH",
      "outputs": [
        {
          "internalType": "bytes32",
          "name": "",
          "type": "bytes32"
        }
      ],
      "stateMutability": "view",
      "type": "function"
    },
    {
      "inputs": [],
      "name": "DOMAIN_TYPEHASH",
      "outputs": [
        {
          "internalType": "bytes32",
          "name": "",
          "type": "bytes32"
        }
      ],
      "stateMutability": "view",
      "type": "function"
    },
    {
      "inputs": [],
      "name": "MANUAL_MINT_LIMIT",
      "outputs": [
        {
          "internalType": "uint256",
          "name": "",
          "type": "uint256"
        }
      ],
      "stateMutability": "view",
      "type": "function"
    },
    {
      "inputs": [
        {
          "internalType": "address",
          "name": "owner",
          "type": "address"
        },
        {
          "internalType": "address",
          "name": "spender",
          "type": "address"
        }
      ],
      "name": "allowance",
      "outputs": [
        {
          "internalType": "uint256",
          "name": "",
          "type": "uint256"
        }
      ],
      "stateMutability": "view",
      "type": "function"
    },
    {
      "inputs": [
        {
          "internalType": "address",
          "name": "spender",
          "type": "address"
        },
        {
          "internalType": "uint256",
          "name": "amount",
          "type": "uint256"
        }
      ],
      "name": "approve",
      "outputs": [
        {
          "internalType": "bool",
          "name": "",
          "type": "bool"
        }
      ],
      "stateMutability": "nonpayable",
      "type": "function"
    },
    {
      "inputs": [
        {
          "internalType": "address",
          "name": "account",
          "type": "address"
        }
      ],
      "name": "balanceOf",
      "outputs": [
        {
          "internalType": "uint256",
          "name": "",
          "type": "uint256"
        }
      ],
      "stateMutability": "view",
      "type": "function"
    },
    {
      "inputs": [
        {
          "internalType": "address",
          "name": "_account",
          "type": "address"
        },
        {
          "internalType": "uint256",
          "name": "_amount",
          "type": "uint256"
        }
      ],
      "name": "burn",
      "outputs": [],
      "stateMutability": "nonpayable",
      "type": "function"
    },
    {
      "inputs": [
        {
          "internalType": "address",
          "name": "_account",
          "type": "address"
        }
      ],
      "name": "canUnlockAmount",
      "outputs": [
        {
          "internalType": "uint256",
          "name": "",
          "type": "uint256"
        }
      ],
      "stateMutability": "view",
      "type": "function"
    },
    {
      "inputs": [],
      "name": "cap",
      "outputs": [
        {
          "internalType": "uint256",
          "name": "",
          "type": "uint256"
        }
      ],
      "stateMutability": "pure",
      "type": "function"
    },
    {
      "inputs": [
        {
          "internalType": "address",
          "name": "",
          "type": "address"
        },
        {
          "internalType": "uint32",
          "name": "",
          "type": "uint32"
        }
      ],
      "name": "checkpoints",
      "outputs": [
        {
          "internalType": "uint32",
          "name": "fromBlock",
          "type": "uint32"
        },
        {
          "internalType": "uint256",
          "name": "votes",
          "type": "uint256"
        }
      ],
      "stateMutability": "view",
      "type": "function"
    },
    {
      "inputs": [],
      "name": "decimals",
      "outputs": [
        {
          "internalType": "uint8",
          "name": "",
          "type": "uint8"
        }
      ],
      "stateMutability": "view",
      "type": "function"
    },
    {
      "inputs": [
        {
          "internalType": "address",
          "name": "spender",
          "type": "address"
        },
        {
          "internalType": "uint256",
          "name": "subtractedValue",
          "type": "uint256"
        }
      ],
      "name": "decreaseAllowance",
      "outputs": [
        {
          "internalType": "bool",
          "name": "",
          "type": "bool"
        }
      ],
      "stateMutability": "nonpayable",
      "type": "function"
    },
    {
      "inputs": [
        {
          "internalType": "address",
          "name": "delegatee",
          "type": "address"
        }
      ],
      "name": "delegate",
      "outputs": [],
      "stateMutability": "nonpayable",
      "type": "function"
    },
    {
      "inputs": [
        {
          "internalType": "address",
          "name": "delegatee",
          "type": "address"
        },
        {
          "internalType": "uint256",
          "name": "nonce",
          "type": "uint256"
        },
        {
          "internalType": "uint256",
          "name": "expiry",
          "type": "uint256"
        },
        {
          "internalType": "uint8",
          "name": "v",
          "type": "uint8"
        },
        {
          "internalType": "bytes32",
          "name": "r",
          "type": "bytes32"
        },
        {
          "internalType": "bytes32",
          "name": "s",
          "type": "bytes32"
        }
      ],
      "name": "delegateBySig",
      "outputs": [],
      "stateMutability": "nonpayable",
      "type": "function"
    },
    {
      "inputs": [
        {
          "internalType": "address",
          "name": "delegator",
          "type": "address"
        }
      ],
      "name": "delegates",
      "outputs": [
        {
          "internalType": "address",
          "name": "",
          "type": "address"
        }
      ],
      "stateMutability": "view",
      "type": "function"
    },
    {
      "inputs": [],
      "name": "endReleaseBlock",
      "outputs": [
        {
          "internalType": "uint256",
          "name": "",
          "type": "uint256"
        }
      ],
      "stateMutability": "view",
      "type": "function"
    },
    {
      "inputs": [
        {
          "internalType": "address",
          "name": "account",
          "type": "address"
        }
      ],
      "name": "getCurrentVotes",
      "outputs": [
        {
          "internalType": "uint256",
          "name": "",
          "type": "uint256"
        }
      ],
      "stateMutability": "view",
      "type": "function"
    },
    {
      "inputs": [
        {
          "internalType": "address",
          "name": "account",
          "type": "address"
        },
        {
          "internalType": "uint256",
          "name": "blockNumber",
          "type": "uint256"
        }
      ],
      "name": "getPriorVotes",
      "outputs": [
        {
          "internalType": "uint256",
          "name": "",
          "type": "uint256"
        }
      ],
      "stateMutability": "view",
      "type": "function"
    },
    {
      "inputs": [
        {
          "internalType": "address",
          "name": "spender",
          "type": "address"
        },
        {
          "internalType": "uint256",
          "name": "addedValue",
          "type": "uint256"
        }
      ],
      "name": "increaseAllowance",
      "outputs": [
        {
          "internalType": "bool",
          "name": "",
          "type": "bool"
        }
      ],
      "stateMutability": "nonpayable",
      "type": "function"
    },
    {
      "inputs": [
        {
          "internalType": "address",
          "name": "_account",
          "type": "address"
        }
      ],
      "name": "lastUnlockBlock",
      "outputs": [
        {
          "internalType": "uint256",
          "name": "",
          "type": "uint256"
        }
      ],
      "stateMutability": "view",
      "type": "function"
    },
    {
      "inputs": [
        {
          "internalType": "address",
          "name": "_account",
          "type": "address"
        },
        {
          "internalType": "uint256",
          "name": "_amount",
          "type": "uint256"
        }
      ],
      "name": "lock",
      "outputs": [],
      "stateMutability": "nonpayable",
      "type": "function"
    },
    {
      "inputs": [
        {
          "internalType": "address",
          "name": "_account",
          "type": "address"
        }
      ],
      "name": "lockOf",
      "outputs": [
        {
          "internalType": "uint256",
          "name": "",
          "type": "uint256"
        }
      ],
      "stateMutability": "view",
      "type": "function"
    },
    {
      "inputs": [
        {
          "internalType": "address",
          "name": "_to",
          "type": "address"
        },
        {
          "internalType": "uint256",
          "name": "_amount",
          "type": "uint256"
        }
      ],
      "name": "manualMint",
      "outputs": [],
      "stateMutability": "nonpayable",
      "type": "function"
    },
    {
      "inputs": [],
      "name": "manualMinted",
      "outputs": [
        {
          "internalType": "uint256",
          "name": "",
          "type": "uint256"
        }
      ],
      "stateMutability": "view",
      "type": "function"
    },
    {
      "inputs": [
        {
          "internalType": "address",
          "name": "_to",
          "type": "address"
        },
        {
          "internalType": "uint256",
          "name": "_amount",
          "type": "uint256"
        }
      ],
      "name": "mint",
      "outputs": [],
      "stateMutability": "nonpayable",
      "type": "function"
    },
    {
      "inputs": [],
      "name": "name",
      "outputs": [
        {
          "internalType": "string",
          "name": "",
          "type": "string"
        }
      ],
      "stateMutability": "view",
      "type": "function"
    },
    {
      "inputs": [
        {
          "internalType": "address",
          "name": "",
          "type": "address"
        }
      ],
      "name": "nonces",
      "outputs": [
        {
          "internalType": "uint256",
          "name": "",
          "type": "uint256"
        }
      ],
      "stateMutability": "view",
      "type": "function"
    },
    {
      "inputs": [
        {
          "internalType": "address",
          "name": "",
          "type": "address"
        }
      ],
      "name": "numCheckpoints",
      "outputs": [
        {
          "internalType": "uint32",
          "name": "",
          "type": "uint32"
        }
      ],
      "stateMutability": "view",
      "type": "function"
    },
    {
      "inputs": [],
      "name": "owner",
      "outputs": [
        {
          "internalType": "address",
          "name": "",
          "type": "address"
        }
      ],
      "stateMutability": "view",
      "type": "function"
    },
    {
      "inputs": [],
      "name": "renounceOwnership",
      "outputs": [],
      "stateMutability": "nonpayable",
      "type": "function"
    },
    {
      "inputs": [],
      "name": "startReleaseBlock",
      "outputs": [
        {
          "internalType": "uint256",
          "name": "",
          "type": "uint256"
        }
      ],
      "stateMutability": "view",
      "type": "function"
    },
    {
      "inputs": [],
      "name": "symbol",
      "outputs": [
        {
          "internalType": "string",
          "name": "",
          "type": "string"
        }
      ],
      "stateMutability": "view",
      "type": "function"
    },
    {
      "inputs": [
        {
          "internalType": "address",
          "name": "_account",
          "type": "address"
        }
      ],
      "name": "totalBalanceOf",
      "outputs": [
        {
          "internalType": "uint256",
          "name": "",
          "type": "uint256"
        }
      ],
      "stateMutability": "view",
      "type": "function"
    },
    {
      "inputs": [],
      "name": "totalLock",
      "outputs": [
        {
          "internalType": "uint256",
          "name": "",
          "type": "uint256"
        }
      ],
      "stateMutability": "view",
      "type": "function"
    },
    {
      "inputs": [],
      "name": "totalSupply",
      "outputs": [
        {
          "internalType": "uint256",
          "name": "",
          "type": "uint256"
        }
      ],
      "stateMutability": "view",
      "type": "function"
    },
    {
      "inputs": [
        {
          "internalType": "address",
          "name": "recipient",
          "type": "address"
        },
        {
          "internalType": "uint256",
          "name": "amount",
          "type": "uint256"
        }
      ],
      "name": "transfer",
      "outputs": [
        {
          "internalType": "bool",
          "name": "",
          "type": "bool"
        }
      ],
      "stateMutability": "nonpayable",
      "type": "function"
    },
    {
      "inputs": [
        {
          "internalType": "address",
          "name": "_to",
          "type": "address"
        }
      ],
      "name": "transferAll",
      "outputs": [],
      "stateMutability": "nonpayable",
      "type": "function"
    },
    {
      "inputs": [
        {
          "internalType": "address",
          "name": "sender",
          "type": "address"
        },
        {
          "internalType": "address",
          "name": "recipient",
          "type": "address"
        },
        {
          "internalType": "uint256",
          "name": "amount",
          "type": "uint256"
        }
      ],
      "name": "transferFrom",
      "outputs": [
        {
          "internalType": "bool",
          "name": "",
          "type": "bool"
        }
      ],
      "stateMutability": "nonpayable",
      "type": "function"
    },
    {
      "inputs": [
        {
          "internalType": "address",
          "name": "newOwner",
          "type": "address"
        }
      ],
      "name": "transferOwnership",
      "outputs": [],
      "stateMutability": "nonpayable",
      "type": "function"
    },
    {
      "inputs": [],
      "name": "unlock",
      "outputs": [],
      "stateMutability": "nonpayable",
      "type": "function"
    },
    {
      "inputs": [],
      "name": "unlockedSupply",
      "outputs": [
        {
          "internalType": "uint256",
          "name": "",
          "type": "uint256"
        }
      ],
      "stateMutability": "view",
      "type": "function"
    }
  ],
  "bytecode": "0x608060405260006009553480156200001657600080fd5b506040516200325138038062003251833981810160405260408110156200003c57600080fd5b508051602091820151604080518082018252600b81526a20b63830b1b0aa37b5b2b760a91b81860190815282518084019093526006835265414c5041434160d01b9583019590955280519394929390926200009b9160039190620009d4565b508051620000b1906004906020840190620009d4565b50506005805460ff19166012179055506000620000d66001600160e01b03620001b216565b60058054610100600160a81b0319166101006001600160a01b03841690810291909117909155604051919250906000907f8be0079c531659141344cd1fd0a4f28419497f9722a3daafe3b4186f6b6457e0908290a3508181116200016c5760405162461bcd60e51b81526004018080602001828103825260238152602001806200322e6023913960400191505060405180910390fd5b6200018160126001600160e01b03620001b716565b60078290556008819055620001aa336934f086f3b33b684000006001600160e01b03620001cd16565b505062000a76565b335b90565b6005805460ff191660ff92909216919091179055565b620001e06001600160e01b03620001b216565b6001600160a01b0316620001fc6001600160e01b03620002fb16565b6001600160a01b03161462000247576040805162461bcd60e51b81526020600482018190526024820152600080516020620031d8833981519152604482015290519081900360640190fd5b6a069e10de76676d080000006200026f826009546200030f60201b62001f371790919060201c565b1115620002c3576040805162461bcd60e51b815260206004820152601360248201527f6d696e74206c696d697420657863656564656400000000000000000000000000604482015290519081900360640190fd5b620002df816009546200030f60201b62001f371790919060201c565b600955620002f782826001600160e01b036200037116565b5050565b60055461010090046001600160a01b031690565b6000828201838110156200036a576040805162461bcd60e51b815260206004820152601b60248201527f536166654d6174683a206164646974696f6e206f766572666c6f770000000000604482015290519081900360640190fd5b9392505050565b620003846001600160e01b03620001b216565b6001600160a01b0316620003a06001600160e01b03620002fb16565b6001600160a01b031614620003eb576040805162461bcd60e51b81526020600482018190526024820152600080516020620031d8833981519152604482015290519081900360640190fd5b620003fe6001600160e01b03620004b216565b6200042a82620004166001600160e01b03620004c116565b6200030f60201b62001f371790919060201c565b11156200046d576040805162461bcd60e51b815260206004820152600c60248201526b18d85c08195e18d95959195960a21b604482015290519081900360640190fd5b6200048282826001600160e01b03620004c716565b6001600160a01b038083166000908152600c6020526040812054620002f79216836001600160e01b03620005df16565b6a9b828c6bde7e823c00000090565b60025490565b6001600160a01b03821662000523576040805162461bcd60e51b815260206004820152601f60248201527f45524332303a206d696e7420746f20746865207a65726f206164647265737300604482015290519081900360640190fd5b6200053a600083836001600160e01b036200075e16565b62000556816002546200030f60201b62001f371790919060201c565b6002556001600160a01b038216600090815260208181526040909120546200058991839062001f376200030f821b17901c565b6001600160a01b0383166000818152602081815260408083209490945583518581529351929391927fddf252ad1be2c89b69c2b068fc378daa952ba7f163c4a11628f55a4df523b3ef9281900390910190a35050565b816001600160a01b0316836001600160a01b031614158015620006025750600081115b156200075e576001600160a01b03831615620006b3576001600160a01b0383166000908152600e602052604081205463ffffffff1690816200064657600062000678565b6001600160a01b0385166000908152600d6020908152604080832063ffffffff60001987011684529091529020600101545b905060006200069684836200076360201b62001ae31790919060201c565b9050620006af868484846001600160e01b03620007c116565b5050505b6001600160a01b038216156200075e576001600160a01b0382166000908152600e602052604081205463ffffffff169081620006f157600062000723565b6001600160a01b0384166000908152600d6020908152604080832063ffffffff60001987011684529091529020600101545b905060006200074184836200030f60201b62001f371790919060201c565b90506200075a858484846001600160e01b03620007c116565b5050505b505050565b600082821115620007bb576040805162461bcd60e51b815260206004820152601e60248201527f536166654d6174683a207375627472616374696f6e206f766572666c6f770000604482015290519081900360640190fd5b50900390565b6000620007f143604051806060016040528060368152602001620031f8603691396001600160e01b036200093516565b905060008463ffffffff161180156200083b57506001600160a01b0385166000908152600d6020908152604080832063ffffffff6000198901811685529252909120548282169116145b156200087a576001600160a01b0385166000908152600d6020908152604080832063ffffffff60001989011684529091529020600101829055620008eb565b60408051808201825263ffffffff808416825260208083018681526001600160a01b038a166000818152600d84528681208b8616825284528681209551865490861663ffffffff199182161787559251600196870155908152600e9092529390208054928801909116919092161790555b604080518481526020810184905281516001600160a01b038816927fdec2bacdd2f05b59de34da9b523dff8be42e5e38e818c82fdb0bae774387a724928290030190a25050505050565b6000816401000000008410620009cc5760405162461bcd60e51b81526004018080602001828103825283818151815260200191508051906020019080838360005b838110156200099057818101518382015260200162000976565b50505050905090810190601f168015620009be5780820380516001836020036101000a031916815260200191505b509250505060405180910390fd5b509192915050565b828054600181600116156101000203166002900490600052602060002090601f016020900481019282601f1062000a1757805160ff191683800117855562000a47565b8280016001018555821562000a47579182015b8281111562000a4757825182559160200191906001019062000a2a565b5062000a5592915062000a59565b5090565b620001b491905b8082111562000a55576000815560010162000a60565b6127528062000a866000396000f3fe608060405234801561001057600080fd5b50600436106101e35760003560e01c806306fdde03146101e8578063095ea7b31461026557806318160ddd146102a5578063202b1760146102bf57806320606b70146102e557806323b872dd146102ed578063282d3fdf14610323578063313ce56714610351578063355274ea1461036f57806339509351146103775780633a1aae35146103a357806340c10f19146103ab5780634b0ee02a146103d7578063587cde1e146103fd5780635a46d3b51461043f5780635c19a95c1461046557806368fe6e1d1461048b5780636fcfff451461049357806370a08231146104d2578063715018a6146104f8578063782d6fe1146105005780637ecebe001461052c5780637ee416151461055257806389a2867c1461055a5780638da5cb5b1461058057806395d89b41146105885780639dc29fac14610590578063a3a7e7f3146105bc578063a457c2d7146105e2578063a69df4b51461060e578063a9059cbb14610616578063b4b5ea5714610642578063c3cda52014610668578063ce4079ef146106af578063dd62ed3e146106b7578063e4c5ff46146106e5578063e6b2fb4a14610711578063e7a324dc14610719578063f1127ed814610721578063f2fde38b14610773578063fd3d27b814610799575b600080fd5b6101f06107a1565b6040805160208082528351818301528351919283929083019185019080838360005b8381101561022a578181015183820152602001610212565b50505050905090810190601f1680156102575780820380516001836020036101000a031916815260200191505b509250505060405180910390f35b6102916004803603604081101561027b57600080fd5b506001600160a01b038135169060200135610837565b604080519115158252519081900360200190f35b6102ad610855565b60408051918252519081900360200190f35b6102ad600480360360208110156102d557600080fd5b50356001600160a01b031661085b565b6102ad610939565b6102916004803603606081101561030357600080fd5b506001600160a01b03813581169160208101359091169060400135610954565b61034f6004803603604081101561033957600080fd5b506001600160a01b0381351690602001356109e9565b005b610359610bd7565b6040805160ff9092168252519081900360200190f35b6102ad610be0565b6102916004803603604081101561038d57600080fd5b506001600160a01b038135169060200135610bef565b6102ad610c43565b61034f600480360360408110156103c157600080fd5b506001600160a01b038135169060200135610c49565b6102ad600480360360208110156103ed57600080fd5b50356001600160a01b0316610d40565b6104236004803603602081101561041357600080fd5b50356001600160a01b0316610d73565b604080516001600160a01b039092168252519081900360200190f35b6102ad6004803603602081101561045557600080fd5b50356001600160a01b0316610d91565b61034f6004803603602081101561047b57600080fd5b50356001600160a01b0316610dac565b6102ad610db9565b6104b9600480360360208110156104a957600080fd5b50356001600160a01b0316610dc7565b6040805163ffffffff9092168252519081900360200190f35b6102ad600480360360208110156104e857600080fd5b50356001600160a01b0316610ddf565b61034f610dfa565b6102ad6004803603604081101561051657600080fd5b506001600160a01b038135169060200135610e9a565b6102ad6004803603602081101561054257600080fd5b50356001600160a01b03166110a2565b6102ad6110b4565b6102ad6004803603602081101561057057600080fd5b50356001600160a01b03166110ba565b6104236110d5565b6101f06110e9565b61034f600480360360408110156105a657600080fd5b506001600160a01b03813516906020013561114a565b61034f600480360360208110156105d257600080fd5b50356001600160a01b03166111b6565b610291600480360360408110156105f857600080fd5b506001600160a01b0381351690602001356112fe565b61034f61136c565b6102916004803603604081101561062c57600080fd5b506001600160a01b038135169060200135611430565b6102ad6004803603602081101561065857600080fd5b50356001600160a01b031661148e565b61034f600480360360c081101561067e57600080fd5b506001600160a01b038135169060208101359060408101359060ff6060820135169060808101359060a001356114f2565b6102ad611768565b6102ad600480360360408110156106cd57600080fd5b506001600160a01b038135811691602001351661176e565b61034f600480360360408110156106fb57600080fd5b506001600160a01b038135169060200135611799565b6102ad611883565b6102ad611889565b6107536004803603604081101561073757600080fd5b5080356001600160a01b0316906020013563ffffffff166118a4565b6040805163ffffffff909316835260208301919091528051918290030190f35b61034f6004803603602081101561078957600080fd5b50356001600160a01b03166118d1565b6102ad6119cd565b60038054604080516020601f600260001961010060018816150201909516949094049384018190048102820181019092528281526060939092909183018282801561082d5780601f106108025761010080835404028352916020019161082d565b820191906000526020600020905b81548152906001019060200180831161081057829003601f168201915b5050505050905090565b600061084b6108446119f3565b84846119f7565b5060015b92915050565b60025490565b600060075443101561086f57506000610934565b600854431061089757506001600160a01b0381166000908152600a6020526040902054610934565b6001600160a01b0382166000908152600b60205260408120546108c190439063ffffffff611ae316565b6001600160a01b0384166000908152600b602052604081205460085492935090916108f19163ffffffff611ae316565b6001600160a01b0385166000908152600a602052604090205490915061092f908290610923908563ffffffff611b4016565b9063ffffffff611b9916565b925050505b919050565b60405180604361250a82396043019050604051809103902081565b6000610961848484611bfd565b6109ad8461096d6119f3565b6109a88560405180606001604052806028815260200161256e6028913961099b8a6109966119f3565b61176e565b919063ffffffff611d5216565b6119f7565b6001600160a01b038085166000908152600c60205260408082205486841683529120546109df92918216911684611de9565b5060019392505050565b6109f16119f3565b6001600160a01b0316610a026110d5565b6001600160a01b031614610a4b576040805162461bcd60e51b81526020600482018190526024820152600080516020612596833981519152604482015290519081900360640190fd5b6001600160a01b038216610a9e576040805162461bcd60e51b81526020600482015260156024820152746e6f206c6f636b20746f206164647265737328302960581b604482015290519081900360640190fd5b610aa782610ddf565b811115610af2576040805162461bcd60e51b81526020600482015260146024820152736e6f206c6f636b206f7665722062616c616e636560601b604482015290519081900360640190fd5b610afd823083611bfd565b6001600160a01b0382166000908152600a6020526040902054610b26908263ffffffff611f3716565b6001600160a01b0383166000908152600a6020526040902055600654610b52908263ffffffff611f3716565b6006556007546001600160a01b0383166000908152600b60205260409020541015610b94576007546001600160a01b0383166000908152600b60205260409020555b6040805182815290516001600160a01b038416917f625fed9875dada8643f2418b838ae0bc78d9a148a18eee4ee1979ff0f3f5d427919081900360200190a25050565b60055460ff1690565b6a9b828c6bde7e823c00000090565b600061084b610bfc6119f3565b846109a88560016000610c0d6119f3565b6001600160a01b03908116825260208083019390935260409182016000908120918c16815292529020549063ffffffff611f3716565b60065490565b610c516119f3565b6001600160a01b0316610c626110d5565b6001600160a01b031614610cab576040805162461bcd60e51b81526020600482018190526024820152600080516020612596833981519152604482015290519081900360640190fd5b610cb3610be0565b610ccb82610cbf610855565b9063ffffffff611f3716565b1115610d0d576040805162461bcd60e51b815260206004820152600c60248201526b18d85c08195e18d95959195960a21b604482015290519081900360640190fd5b610d178282611f8f565b6001600160a01b038083166000908152600c6020526040812054610d3c921683611de9565b5050565b600061084f610d4e83610ddf565b6001600160a01b0384166000908152600a60205260409020549063ffffffff611f3716565b6001600160a01b039081166000908152600c60205260409020541690565b6001600160a01b03166000908152600a602052604090205490565b610db63382612079565b50565b66d3c21bcecceda1601b1b81565b600e6020526000908152604090205463ffffffff1681565b6001600160a01b031660009081526020819052604090205490565b610e026119f3565b6001600160a01b0316610e136110d5565b6001600160a01b031614610e5c576040805162461bcd60e51b81526020600482018190526024820152600080516020612596833981519152604482015290519081900360640190fd5b60055460405160009161010090046001600160a01b0316906000805160206125b6833981519152908390a360058054610100600160a81b0319169055565b6000438210610eda5760405162461bcd60e51b81526004018080602001828103825260298152602001806124276029913960400191505060405180910390fd5b6001600160a01b0383166000908152600e602052604090205463ffffffff1680610f0857600091505061084f565b6001600160a01b0384166000908152600d6020908152604080832063ffffffff600019860181168552925290912054168310610f77576001600160a01b0384166000908152600d602090815260408083206000199490940163ffffffff1683529290522060010154905061084f565b6001600160a01b0384166000908152600d6020908152604080832083805290915290205463ffffffff16831015610fb257600091505061084f565b600060001982015b8163ffffffff168163ffffffff16111561106b57600282820363ffffffff16048103610fe46123ca565b506001600160a01b0387166000908152600d6020908152604080832063ffffffff8086168552908352928190208151808301909252805490931680825260019093015491810191909152908714156110465760200151945061084f9350505050565b805163ffffffff1687111561105d57819350611064565b6001820392505b5050610fba565b506001600160a01b0385166000908152600d6020908152604080832063ffffffff9094168352929052206001015491505092915050565b600f6020526000908152604090205481565b60075481565b6001600160a01b03166000908152600b602052604090205490565b60055461010090046001600160a01b031690565b60048054604080516020601f600260001961010060018816150201909516949094049384018190048102820181019092528281526060939092909183018282801561082d5780601f106108025761010080835404028352916020019161082d565b6111526119f3565b6001600160a01b03166111636110d5565b6001600160a01b0316146111ac576040805162461bcd60e51b81526020600482018190526024820152600080516020612596833981519152604482015290519081900360640190fd5b610d3c828261210e565b336001600160a01b038216141561120a576040805162461bcd60e51b81526020600482015260136024820152721b9bc81cd95b198b5d1c985b9cd9995c905b1b606a1b604482015290519081900360640190fd5b336000908152600a6020526040808220546001600160a01b03841683529120546112399163ffffffff611f3716565b6001600160a01b0382166000908152600a6020908152604080832093909355600754600b909152919020541015611287576007546001600160a01b0382166000908152600b60205260409020555b336000908152600b6020526040808220546001600160a01b038416835291205410156112ce57336000908152600b6020526040808220546001600160a01b03841683529120555b336000818152600a60209081526040808320839055600b909152812055610db690826112f982610ddf565b611bfd565b600061084b61130b6119f3565b846109a8856040518060600160405280602581526020016126f860259139600160006113356119f3565b6001600160a01b03908116825260208083019390935260409182016000908120918d1681529252902054919063ffffffff611d5216565b336000908152600a60205260409020546113c1576040805162461bcd60e51b81526020600482015260116024820152706e6f206c6f636b656420414c504143417360781b604482015290519081900360640190fd5b60006113cc3361085b565b90506113d9303383611bfd565b336000908152600a60205260409020546113f9908263ffffffff611ae316565b336000908152600a6020908152604080832093909355600b90522043905560065461142a908263ffffffff611ae316565b60065550565b600061144461143d6119f3565b8484611bfd565b61084b600c60006114536119f3565b6001600160a01b03908116825260208083019390935260409182016000908120548883168252600c9094529190912054918116911684611de9565b6001600160a01b0381166000908152600e602052604081205463ffffffff16806114b95760006114eb565b6001600160a01b0383166000908152600d6020908152604080832063ffffffff60001986011684529091529020600101545b9392505050565b6000604051808061250a60439139604301905060405180910390206115156107a1565b80519060200120611524612204565b3060405160200180858152602001848152602001838152602001826001600160a01b03166001600160a01b03168152602001945050505050604051602081830303815290604052805190602001209050600060405180806126be603a91396040805191829003603a0182206020808401919091526001600160a01b038c1683830152606083018b905260808084018b90528251808503909101815260a08401835280519082012061190160f01b60c085015260c2840187905260e2808501829052835180860390910181526101028501808552815191840191909120600091829052610122860180865281905260ff8c1661014287015261016286018b905261018286018a9052935191965092945091926001926101a28083019392601f198301929081900390910190855afa158015611662573d6000803e3d6000fd5b5050604051601f1901519150506001600160a01b0381166116b45760405162461bcd60e51b815260040180806020018281038252602881526020018061263c6028913960400191505060405180910390fd5b6001600160a01b0381166000908152600f6020526040902080546001810190915589146117125760405162461bcd60e51b81526004018080602001828103825260248152602001806124c06024913960400191505060405180910390fd5b874211156117515760405162461bcd60e51b81526004018080602001828103825260288152602001806124986028913960400191505060405180910390fd5b61175b818b612079565b505050505b505050505050565b60085481565b6001600160a01b03918216600090815260016020908152604080832093909416825291909152205490565b6117a16119f3565b6001600160a01b03166117b26110d5565b6001600160a01b0316146117fb576040805162461bcd60e51b81526020600482018190526024820152600080516020612596833981519152604482015290519081900360640190fd5b60095466d3c21bcecceda1601b1b9061181a908363ffffffff611f3716565b1115611863576040805162461bcd60e51b81526020600482015260136024820152721b5a5b9d081b1a5b5a5d08195e18d959591959606a1b604482015290519081900360640190fd5b600954611876908263ffffffff611f3716565b600955610d3c8282610c49565b60095481565b60405180603a6126be8239603a019050604051809103902081565b600d6020908152600092835260408084209091529082529020805460019091015463ffffffff9091169082565b6118d96119f3565b6001600160a01b03166118ea6110d5565b6001600160a01b031614611933576040805162461bcd60e51b81526020600482018190526024820152600080516020612596833981519152604482015290519081900360640190fd5b6001600160a01b0381166119785760405162461bcd60e51b81526004018080602001828103825260268152602001806124506026913960400191505060405180910390fd5b6005546040516001600160a01b0380841692610100900416906000805160206125b683398151915290600090a3600580546001600160a01b0390921661010002610100600160a81b0319909216919091179055565b60006119ee6119da610c43565b6119e2610855565b9063ffffffff611ae316565b905090565b3390565b6001600160a01b038316611a3c5760405162461bcd60e51b81526004018080602001828103825260248152602001806126646024913960400191505060405180910390fd5b6001600160a01b038216611a815760405162461bcd60e51b81526004018080602001828103825260228152602001806124766022913960400191505060405180910390fd5b6001600160a01b03808416600081815260016020908152604080832094871680845294825291829020859055815185815291517f8c5be1e5ebec7d5bd14f71427d1e84f3dd0314c0f7b2291e5b200ac8c7c3b9259281900390910190a3505050565b600082821115611b3a576040805162461bcd60e51b815260206004820152601e60248201527f536166654d6174683a207375627472616374696f6e206f766572666c6f770000604482015290519081900360640190fd5b50900390565b600082611b4f5750600061084f565b82820282848281611b5c57fe5b04146114eb5760405162461bcd60e51b815260040180806020018281038252602181526020018061254d6021913960400191505060405180910390fd5b6000808211611bec576040805162461bcd60e51b815260206004820152601a602482015279536166654d6174683a206469766973696f6e206279207a65726f60301b604482015290519081900360640190fd5b818381611bf557fe5b049392505050565b6001600160a01b038316611c425760405162461bcd60e51b81526004018080602001828103825260258152602001806126176025913960400191505060405180910390fd5b6001600160a01b038216611c875760405162461bcd60e51b81526004018080602001828103825260238152602001806123e26023913960400191505060405180910390fd5b611c92838383611f32565b611cd5816040518060600160405280602681526020016124e4602691396001600160a01b038616600090815260208190526040902054919063ffffffff611d5216565b6001600160a01b038085166000908152602081905260408082209390935590841681522054611d0a908263ffffffff611f3716565b6001600160a01b038084166000818152602081815260409182902094909455805185815290519193928716926000805160206125d683398151915292918290030190a3505050565b60008184841115611de15760405162461bcd60e51b81526004018080602001828103825283818151815260200191508051906020019080838360005b83811015611da6578181015183820152602001611d8e565b50505050905090810190601f168015611dd35780820380516001836020036101000a031916815260200191505b509250505060405180910390fd5b505050900390565b816001600160a01b0316836001600160a01b031614158015611e0b5750600081115b15611f32576001600160a01b03831615611ea3576001600160a01b0383166000908152600e602052604081205463ffffffff169081611e4b576000611e7d565b6001600160a01b0385166000908152600d6020908152604080832063ffffffff60001987011684529091529020600101545b90506000611e91828563ffffffff611ae316565b9050611e9f86848484612208565b5050505b6001600160a01b03821615611f32576001600160a01b0382166000908152600e602052604081205463ffffffff169081611ede576000611f10565b6001600160a01b0384166000908152600d6020908152604080832063ffffffff60001987011684529091529020600101545b90506000611f24828563ffffffff611f3716565b905061176085848484612208565b505050565b6000828201838110156114eb576040805162461bcd60e51b815260206004820152601b60248201527a536166654d6174683a206164646974696f6e206f766572666c6f7760281b604482015290519081900360640190fd5b6001600160a01b038216611fea576040805162461bcd60e51b815260206004820152601f60248201527f45524332303a206d696e7420746f20746865207a65726f206164647265737300604482015290519081900360640190fd5b611ff660008383611f32565b600254612009908263ffffffff611f3716565b6002556001600160a01b038216600090815260208190526040902054612035908263ffffffff611f3716565b6001600160a01b0383166000818152602081815260408083209490945583518581529351929391926000805160206125d68339815191529281900390910190a35050565b6001600160a01b038083166000908152600c6020526040812054909116906120a084610ddf565b6001600160a01b038581166000818152600c602052604080822080546001600160a01b031916898616908117909155905194955093928616927f3134e8a2e6d97e929a7e54011ea5485d7d196dd5f0ba4d4ef95803e8e3fc257f9190a4612108828483611de9565b50505050565b6001600160a01b0382166121535760405162461bcd60e51b81526004018080602001828103825260218152602001806125f66021913960400191505060405180910390fd5b61215f82600083611f32565b6121a281604051806060016040528060228152602001612405602291396001600160a01b038516600090815260208190526040902054919063ffffffff611d5216565b6001600160a01b0383166000908152602081905260409020556002546121ce908263ffffffff611ae316565b6002556040805182815290516000916001600160a01b038516916000805160206125d68339815191529181900360200190a35050565b4690565b600061222c436040518060600160405280603681526020016126886036913961236d565b905060008463ffffffff1611801561227557506001600160a01b0385166000908152600d6020908152604080832063ffffffff6000198901811685529252909120548282169116145b156122b2576001600160a01b0385166000908152600d6020908152604080832063ffffffff60001989011684529091529020600101829055612323565b60408051808201825263ffffffff808416825260208083018681526001600160a01b038a166000818152600d84528681208b8616825284528681209551865490861663ffffffff199182161787559251600196870155908152600e9092529390208054928801909116919092161790555b604080518481526020810184905281516001600160a01b038816927fdec2bacdd2f05b59de34da9b523dff8be42e5e38e818c82fdb0bae774387a724928290030190a25050505050565b600081600160201b84106123c25760405162461bcd60e51b8152602060048201818152835160248401528351909283926044909101919085019080838360008315611da6578181015183820152602001611d8e565b509192915050565b60408051808201909152600080825260208201529056fe45524332303a207472616e7366657220746f20746865207a65726f206164647265737345524332303a206275726e20616d6f756e7420657863656564732062616c616e6365414c504143413a3a6765745072696f72566f7465733a206e6f74207965742064657465726d696e65644f776e61626c653a206e6577206f776e657220697320746865207a65726f206164647265737345524332303a20617070726f766520746f20746865207a65726f2061646472657373414c504143413a3a64656c656761746542795369673a207369676e61747572652065787069726564414c504143413a3a64656c656761746542795369673a20696e76616c6964206e6f6e636545524332303a207472616e7366657220616d6f756e7420657863656564732062616c616e6365454950373132446f6d61696e28737472696e67206e616d652c75696e7432353620636861696e49642c6164647265737320766572696679696e67436f6e747261637429536166654d6174683a206d756c7469706c69636174696f6e206f766572666c6f7745524332303a207472616e7366657220616d6f756e74206578636565647320616c6c6f77616e63654f776e61626c653a2063616c6c6572206973206e6f7420746865206f776e65728be0079c531659141344cd1fd0a4f28419497f9722a3daafe3b4186f6b6457e0ddf252ad1be2c89b69c2b068fc378daa952ba7f163c4a11628f55a4df523b3ef45524332303a206275726e2066726f6d20746865207a65726f206164647265737345524332303a207472616e736665722066726f6d20746865207a65726f2061646472657373414c504143413a3a64656c656761746542795369673a20696e76616c6964207369676e617475726545524332303a20617070726f76652066726f6d20746865207a65726f2061646472657373414c504143413a3a5f7772697465436865636b706f696e743a20626c6f636b206e756d6265722065786365656473203332206269747344656c65676174696f6e28616464726573732064656c6567617465652c75696e74323536206e6f6e63652c75696e74323536206578706972792945524332303a2064656372656173656420616c6c6f77616e63652062656c6f77207a65726fa2646970667358221220b9758512a7f80d582b6e4c5260a18c7a6aebcab4ef0257abd644bd5e46d6402d64736f6c634300060600334f776e61626c653a2063616c6c6572206973206e6f7420746865206f776e6572414c504143413a3a5f7772697465436865636b706f696e743a20626c6f636b206e756d62657220657863656564732033322062697473656e6452656c65617365426c6f636b203c20737461727452656c65617365426c6f636b",
  "linkReferences": {},
  "deployedLinkReferences": {}
}