{
  "_format": "hh-sol-artifact-1",
  "contractName": "SafeMath",
  "sourceName": "contracts/5/protocol/apis/mdex/MdexFactory.sol",
  "abi": [
    {
      "constant": true,
      "inputs": [],
      "name": "ray",
      "outputs": [
        {
          "internalType": "uint256",
          "name": "",
          "type": "uint256"
        }
      ],
      "payable": false,
      "stateMutability": "pure",
      "type": "function"
    },
    {
      "constant": true,
      "inputs": [],
      "name": "wad",
      "outputs": [
        {
          "internalType": "uint256",
          "name": "",
          "type": "uint256"
        }
      ],
      "payable": false,
      "stateMutability": "pure",
      "type": "function"
    }
  ],
  "bytecode": "0x60b0610025600b82828239805160001a60731461001857fe5b30600052607381538281f3fe7300000000000000000000000000000000000000003014608060405260043610603d5760003560e01c8063416a8b201460425780637df38c5b14605a575b600080fd5b60486060565b60408051918252519081900360200190f35b6048606f565b676765c793fa10079d601b1b90565b670de0b6b3a76400009056fea265627a7a72315820a16429976961edcc155b4f3368b03a8c5f61499e4f83e8e825b12b5fece1a8ff64736f6c63430005100032",
  "linkReferences": {},
  "deployedLinkReferences": {}
}