{
  "contracts/6.12/GrazingRange.sol": {
    "GrazingRange": {
      "abi": [
        {
          "anonymous": false,
          "inputs": [
            {
              "indexed": true,
              "internalType": "uint256",
              "name": "campaignID",
              "type": "uint256"
            },
            {
              "indexed": false,
              "internalType": "contract IERC20",
              "name": "stakingToken",
              "type": "address"
            },
            {
              "indexed": false,
              "internalType": "contract IERC20",
              "name": "rewardToken",
              "type": "address"
            },
            {
              "indexed": false,
              "internalType": "uint256",
              "name": "startBlock",
              "type": "uint256"
            }
          ],
          "name": "AddCampaignInfo",
          "type": "event"
        },
        {
          "anonymous": false,
          "inputs": [
            {
              "indexed": true,
              "internalType": "uint256",
              "name": "campaignID",
              "type": "uint256"
            },
            {
              "indexed": true,
              "internalType": "uint256",
              "name": "phase",
              "type": "uint256"
            },
            {
              "indexed": false,
              "internalType": "uint256",
              "name": "endBlock",
              "type": "uint256"
            },
            {
              "indexed": false,
              "internalType": "uint256",
              "name": "rewardPerBlock",
              "type": "uint256"
            }
          ],
          "name": "AddRewardInfo",
          "type": "event"
        },
        {
          "anonymous": false,
          "inputs": [
            {
              "indexed": true,
              "internalType": "address",
              "name": "user",
              "type": "address"
            },
            {
              "indexed": false,
              "internalType": "uint256",
              "name": "amount",
              "type": "uint256"
            },
            {
              "indexed": false,
              "internalType": "uint256",
              "name": "campaign",
              "type": "uint256"
            }
          ],
          "name": "Deposit",
          "type": "event"
        },
        {
          "anonymous": false,
          "inputs": [
            {
              "indexed": true,
              "internalType": "address",
              "name": "user",
              "type": "address"
            },
            {
              "indexed": false,
              "internalType": "uint256",
              "name": "amount",
              "type": "uint256"
            },
            {
              "indexed": false,
              "internalType": "uint256",
              "name": "campaign",
              "type": "uint256"
            }
          ],
          "name": "EmergencyWithdraw",
          "type": "event"
        },
        {
          "anonymous": false,
          "inputs": [
            {
              "indexed": true,
              "internalType": "address",
              "name": "previousOwner",
              "type": "address"
            },
            {
              "indexed": true,
              "internalType": "address",
              "name": "newOwner",
              "type": "address"
            }
          ],
          "name": "OwnershipTransferred",
          "type": "event"
        },
        {
          "anonymous": false,
          "inputs": [
            {
              "indexed": false,
              "internalType": "address",
              "name": "rewardHolder",
              "type": "address"
            }
          ],
          "name": "SetRewardHolder",
          "type": "event"
        },
        {
          "anonymous": false,
          "inputs": [
            {
              "indexed": false,
              "internalType": "uint256",
              "name": "rewardInfoLimit",
              "type": "uint256"
            }
          ],
          "name": "SetRewardInfoLimit",
          "type": "event"
        },
        {
          "anonymous": false,
          "inputs": [
            {
              "indexed": true,
              "internalType": "address",
              "name": "user",
              "type": "address"
            },
            {
              "indexed": false,
              "internalType": "uint256",
              "name": "amount",
              "type": "uint256"
            },
            {
              "indexed": false,
              "internalType": "uint256",
              "name": "campaign",
              "type": "uint256"
            }
          ],
          "name": "Withdraw",
          "type": "event"
        },
        {
          "inputs": [
            {
              "internalType": "contract IERC20",
              "name": "_stakingToken",
              "type": "address"
            },
            {
              "internalType": "contract IERC20",
              "name": "_rewardToken",
              "type": "address"
            },
            {
              "internalType": "uint256",
              "name": "_startBlock",
              "type": "uint256"
            }
          ],
          "name": "addCampaignInfo",
          "outputs": [],
          "stateMutability": "nonpayable",
          "type": "function"
        },
        {
          "inputs": [
            {
              "internalType": "uint256",
              "name": "_campaignID",
              "type": "uint256"
            },
            {
              "internalType": "uint256",
              "name": "_endBlock",
              "type": "uint256"
            },
            {
              "internalType": "uint256",
              "name": "_rewardPerBlock",
              "type": "uint256"
            }
          ],
          "name": "addRewardInfo",
          "outputs": [],
          "stateMutability": "nonpayable",
          "type": "function"
        },
        {
          "inputs": [
            {
              "internalType": "uint256",
              "name": "",
              "type": "uint256"
            }
          ],
          "name": "campaignInfo",
          "outputs": [
            {
              "internalType": "contract IERC20",
              "name": "stakingToken",
              "type": "address"
            },
            {
              "internalType": "contract IERC20",
              "name": "rewardToken",
              "type": "address"
            },
            {
              "internalType": "uint256",
              "name": "startBlock",
              "type": "uint256"
            },
            {
              "internalType": "uint256",
              "name": "lastRewardBlock",
              "type": "uint256"
            },
            {
              "internalType": "uint256",
              "name": "accRewardPerShare",
              "type": "uint256"
            },
            {
              "internalType": "uint256",
              "name": "totalStaked",
              "type": "uint256"
            },
            {
              "internalType": "uint256",
              "name": "totalRewards",
              "type": "uint256"
            }
          ],
          "stateMutability": "view",
          "type": "function"
        },
        {
          "inputs": [],
          "name": "campaignInfoLen",
          "outputs": [
            {
              "internalType": "uint256",
              "name": "",
              "type": "uint256"
            }
          ],
          "stateMutability": "view",
          "type": "function"
        },
        {
          "inputs": [
            {
              "internalType": "uint256",
              "name": "",
              "type": "uint256"
            },
            {
              "internalType": "uint256",
              "name": "",
              "type": "uint256"
            }
          ],
          "name": "campaignRewardInfo",
          "outputs": [
            {
              "internalType": "uint256",
              "name": "endBlock",
              "type": "uint256"
            },
            {
              "internalType": "uint256",
              "name": "rewardPerBlock",
              "type": "uint256"
            }
          ],
          "stateMutability": "view",
          "type": "function"
        },
        {
          "inputs": [
            {
              "internalType": "uint256",
              "name": "_campaignID",
              "type": "uint256"
            }
          ],
          "name": "currentEndBlock",
          "outputs": [
            {
              "internalType": "uint256",
              "name": "",
              "type": "uint256"
            }
          ],
          "stateMutability": "view",
          "type": "function"
        },
        {
          "inputs": [
            {
              "internalType": "uint256",
              "name": "_campaignID",
              "type": "uint256"
            }
          ],
          "name": "currentRewardPerBlock",
          "outputs": [
            {
              "internalType": "uint256",
              "name": "",
              "type": "uint256"
            }
          ],
          "stateMutability": "view",
          "type": "function"
        },
        {
          "inputs": [
            {
              "internalType": "uint256",
              "name": "_campaignID",
              "type": "uint256"
            },
            {
              "internalType": "uint256",
              "name": "_amount",
              "type": "uint256"
            }
          ],
          "name": "deposit",
          "outputs": [],
          "stateMutability": "nonpayable",
          "type": "function"
        },
        {
          "inputs": [
            {
              "internalType": "uint256",
              "name": "_campaignID",
              "type": "uint256"
            },
            {
              "internalType": "uint256",
              "name": "_amount",
              "type": "uint256"
            },
            {
              "internalType": "address",
              "name": "_beneficiary",
              "type": "address"
            }
          ],
          "name": "emergencyRewardWithdraw",
          "outputs": [],
          "stateMutability": "nonpayable",
          "type": "function"
        },
        {
          "inputs": [
            {
              "internalType": "uint256",
              "name": "_campaignID",
              "type": "uint256"
            }
          ],
          "name": "emergencyWithdraw",
          "outputs": [],
          "stateMutability": "nonpayable",
          "type": "function"
        },
        {
          "inputs": [
            {
              "internalType": "uint256",
              "name": "_from",
              "type": "uint256"
            },
            {
              "internalType": "uint256",
              "name": "_to",
              "type": "uint256"
            },
            {
              "internalType": "uint256",
              "name": "_endBlock",
              "type": "uint256"
            }
          ],
          "name": "getMultiplier",
          "outputs": [
            {
              "internalType": "uint256",
              "name": "",
              "type": "uint256"
            }
          ],
          "stateMutability": "pure",
          "type": "function"
        },
        {
          "inputs": [
            {
              "internalType": "uint256[]",
              "name": "_campaignIDs",
              "type": "uint256[]"
            }
          ],
          "name": "harvest",
          "outputs": [],
          "stateMutability": "nonpayable",
          "type": "function"
        },
        {
          "inputs": [
            {
              "internalType": "address",
              "name": "_rewardHolder",
              "type": "address"
            }
          ],
          "name": "initialize",
          "outputs": [],
          "stateMutability": "nonpayable",
          "type": "function"
        },
        {
          "inputs": [],
          "name": "massUpdateCampaigns",
          "outputs": [],
          "stateMutability": "nonpayable",
          "type": "function"
        },
        {
          "inputs": [],
          "name": "owner",
          "outputs": [
            {
              "internalType": "address",
              "name": "",
              "type": "address"
            }
          ],
          "stateMutability": "view",
          "type": "function"
        },
        {
          "inputs": [
            {
              "internalType": "uint256",
              "name": "_campaignID",
              "type": "uint256"
            },
            {
              "internalType": "address",
              "name": "_user",
              "type": "address"
            }
          ],
          "name": "pendingReward",
          "outputs": [
            {
              "internalType": "uint256",
              "name": "",
              "type": "uint256"
            }
          ],
          "stateMutability": "view",
          "type": "function"
        },
        {
          "inputs": [],
          "name": "renounceOwnership",
          "outputs": [],
          "stateMutability": "nonpayable",
          "type": "function"
        },
        {
          "inputs": [],
          "name": "rewardHolder",
          "outputs": [
            {
              "internalType": "address",
              "name": "",
              "type": "address"
            }
          ],
          "stateMutability": "view",
          "type": "function"
        },
        {
          "inputs": [
            {
              "internalType": "uint256",
              "name": "_campaignID",
              "type": "uint256"
            }
          ],
          "name": "rewardInfoLen",
          "outputs": [
            {
              "internalType": "uint256",
              "name": "",
              "type": "uint256"
            }
          ],
          "stateMutability": "view",
          "type": "function"
        },
        {
          "inputs": [],
          "name": "rewardInfoLimit",
          "outputs": [
            {
              "internalType": "uint256",
              "name": "",
              "type": "uint256"
            }
          ],
          "stateMutability": "view",
          "type": "function"
        },
        {
          "inputs": [
            {
              "internalType": "address",
              "name": "_rewardHolder",
              "type": "address"
            }
          ],
          "name": "setRewardHolder",
          "outputs": [],
          "stateMutability": "nonpayable",
          "type": "function"
        },
        {
          "inputs": [
            {
              "internalType": "uint256",
              "name": "_updatedRewardInfoLimit",
              "type": "uint256"
            }
          ],
          "name": "setRewardInfoLimit",
          "outputs": [],
          "stateMutability": "nonpayable",
          "type": "function"
        },
        {
          "inputs": [
            {
              "internalType": "address",
              "name": "newOwner",
              "type": "address"
            }
          ],
          "name": "transferOwnership",
          "outputs": [],
          "stateMutability": "nonpayable",
          "type": "function"
        },
        {
          "inputs": [
            {
              "internalType": "uint256",
              "name": "_campaignID",
              "type": "uint256"
            }
          ],
          "name": "updateCampaign",
          "outputs": [],
          "stateMutability": "nonpayable",
          "type": "function"
        },
        {
          "inputs": [
            {
              "internalType": "uint256",
              "name": "",
              "type": "uint256"
            },
            {
              "internalType": "address",
              "name": "",
              "type": "address"
            }
          ],
          "name": "userInfo",
          "outputs": [
            {
              "internalType": "uint256",
              "name": "amount",
              "type": "uint256"
            },
            {
              "internalType": "uint256",
              "name": "rewardDebt",
              "type": "uint256"
            }
          ],
          "stateMutability": "view",
          "type": "function"
        },
        {
          "inputs": [
            {
              "internalType": "uint256",
              "name": "_campaignID",
              "type": "uint256"
            },
            {
              "internalType": "uint256",
              "name": "_amount",
              "type": "uint256"
            }
          ],
          "name": "withdraw",
          "outputs": [],
          "stateMutability": "nonpayable",
          "type": "function"
        }
      ],
      "devdoc": {
        "kind": "dev",
        "methods": {
          "owner()": {
            "details": "Returns the address of the current owner."
          },
          "renounceOwnership()": {
            "details": "Leaves the contract without owner. It will not be possible to call `onlyOwner` functions anymore. Can only be called by the current owner. NOTE: Renouncing ownership will leave the contract without an owner, thereby removing any functionality that is only available to the owner."
          },
          "transferOwnership(address)": {
            "details": "Transfers ownership of the contract to a new account (`newOwner`). Can only be called by the current owner."
          }
        },
        "version": 1
      },
      "evm": {
        "bytecode": {
          "linkReferences": {},
          "object": "608060405234801561001057600080fd5b506126d0806100206000396000f3fe608060405234801561001057600080fd5b506004361061013d5760003560e01c8062d748501461014257806310f7a6af1461015c5780631d123131146101985780632ea807c5146101cc57806333824b87146101f5578063409e00fc14610212578063441a3e70146102485780634ad7ce801461026b5780634ae56bae146102735780635312ea8e14610290578063569c93d2146102ad5780635d14b06f146102d15780636806cc931461033f578063715018a6146103655780637bafb0291461036d5780638d48aff0146103965780638da5cb5b146103b357806393f1a40b146103bb57806398969e82146103e75780639a63bc1614610413578063bb2238ec14610430578063c4d66de814610491578063cef7042d146104b7578063e2bbb158146104d4578063eebdced5146104f7578063f2fde38b146104ff575b600080fd5b61014a610525565b60408051918252519081900360200190f35b61017f6004803603604081101561017257600080fd5b508035906020013561052b565b6040805192835260208301919091528051918290030190f35b6101ca600480360360608110156101ae57600080fd5b50803590602081013590604001356001600160a01b0316610564565b005b6101ca600480360360608110156101e257600080fd5b50803590602081013590604001356106cf565b6101ca6004803603602081101561020b57600080fd5b5035610987565b6101ca6004803603606081101561022857600080fd5b506001600160a01b03813581169160208101359091169060400135610a1a565b6101ca6004803603604081101561025e57600080fd5b5080359060200135610c43565b61014a610cad565b61014a6004803603602081101561028957600080fd5b5035610cb3565b6101ca600480360360208110156102a657600080fd5b5035610cc5565b6102b5610dd3565b604080516001600160a01b039092168252519081900360200190f35b6101ca600480360360208110156102e757600080fd5b810190602081018135600160201b81111561030157600080fd5b82018360208201111561031357600080fd5b803590602001918460208302840111600160201b8311171561033457600080fd5b509092509050610de2565b6101ca6004803603602081101561035557600080fd5b50356001600160a01b0316610e73565b6101ca610f1f565b61014a6004803603606081101561038357600080fd5b5080359060208101359060400135610faf565b61014a600480360360208110156103ac57600080fd5b5035610ff8565b6102b561100a565b61017f600480360360408110156103d157600080fd5b50803590602001356001600160a01b0316611019565b61014a600480360360408110156103fd57600080fd5b50803590602001356001600160a01b031661103d565b61014a6004803603602081101561042957600080fd5b5035611072565b61044d6004803603602081101561044657600080fd5b503561107e565b604080516001600160a01b039889168152969097166020870152858701949094526060850192909252608084015260a083015260c082015290519081900360e00190f35b6101ca600480360360208110156104a757600080fd5b50356001600160a01b03166110d7565b6101ca600480360360208110156104cd57600080fd5b50356111aa565b6101ca600480360360408110156104ea57600080fd5b5080359060200135611212565b6101ca6113b5565b6101ca6004803603602081101561051557600080fd5b50356001600160a01b0316611423565b60cc5481565b60c9602052816000526040600020818154811061054457fe5b600091825260209091206002909102018054600190910154909250905082565b61056c61150a565b6065546001600160a01b039081169116146105bc576040805162461bcd60e51b815260206004820181905260248201526000805160206124fc833981519152604482015290519081900360640190fd5b60975460ff16610601576040805162461bcd60e51b815260206004820152601f6024820152600080516020612495833981519152604482015290519081900360640190fd5b6097805460ff1916905560ca8054600091908590811061061d57fe5b90600052602060002090600702019050600061063f858360050154600061150e565b60068301549091506106518286611702565b111561068e5760405162461bcd60e51b815260040180806020018281038252603e81526020018061265d603e913960400191505060405180910390fd5b600682015461069d908561175a565b600683015560018201546106bb906001600160a01b0316848661179c565b50506097805460ff19166001179055505050565b6106d761150a565b6065546001600160a01b03908116911614610727576040805162461bcd60e51b815260206004820181905260248201526000805160206124fc833981519152604482015290519081900360640190fd5b600083815260c96020526040812060ca80549192918690811061074657fe5b9060005260206000209060070201905060cc5482805490501061079a5760405162461bcd60e51b815260040180806020018281038252604181526020018061261c6041913960600191505060405180910390fd5b815415806107cc575081544390839060001981019081106107b757fe5b90600052602060002090600202016000015410155b6108075760405162461bcd60e51b81526004018080602001828103825260308152602001806125956030913960400191505060405180910390fd5b815415806108385750815484908390600019810190811061082457fe5b906000526020600020906002020160000154105b6108735760405162461bcd60e51b815260040180806020018281038252602d8152602001806125c5602d913960400191505060405180910390fd5b8154600090156108a65782548390600019810190811061088f57fe5b9060005260206000209060020201600001546108ac565b81600201545b905060006108ba868361175a565b905060006108c886836117f3565b60cd5460018601549192506108eb916001600160a01b039081169116308461184c565b60068401546108fa9082611702565b60068501556040805180820182528881526020808201898152885460018181018b5560008b8152849020945160029092029094019081559051920191909155865482518a8152918201899052825160001991909101928b927fad90731bd0d97445f5af66088f3adebf343c520c20e033cc42f93b124258cdc2929081900390910190a35050505050505050565b61098f61150a565b6065546001600160a01b039081169116146109df576040805162461bcd60e51b815260206004820181905260248201526000805160206124fc833981519152604482015290519081900360640190fd5b60cc8190556040805182815290517fb64f58843e750a8bea7135ef396cf0a7790bfc9a8f43f11ac0e0aacc1b5787ba9181900360200190a150565b610a2261150a565b6065546001600160a01b03908116911614610a72576040805162461bcd60e51b815260206004820181905260248201526000805160206124fc833981519152604482015290519081900360640190fd5b6040805160e0810182526001600160a01b03808616808352858216602080850182815285870188815260608088018a8152600060808a0181815260a08b0182815260c08c0183815260ca8054600181018255948190529c5160079094027f42d72674974f694b5f5159593243114d38a5c39c89d6b62fee061ff523240ee181018054958e166001600160a01b031996871617905597517f42d72674974f694b5f5159593243114d38a5c39c89d6b62fee061ff523240ee28901805491909d16941693909317909a5593517f42d72674974f694b5f5159593243114d38a5c39c89d6b62fee061ff523240ee386015590517f42d72674974f694b5f5159593243114d38a5c39c89d6b62fee061ff523240ee485015591517f42d72674974f694b5f5159593243114d38a5c39c89d6b62fee061ff523240ee584015595517f42d72674974f694b5f5159593243114d38a5c39c89d6b62fee061ff523240ee6830155517f42d72674974f694b5f5159593243114d38a5c39c89d6b62fee061ff523240ee7909101559354855192835293820152808401859052925160001992909201927f9b2f18f9a188a5aec4a95ee3164fe234dfbb6117628b2ad1a581939e61c69f4e929081900390910190a2505050565b60975460ff16610c88576040805162461bcd60e51b815260206004820152601f6024820152600080516020612495833981519152604482015290519081900360640190fd5b6097805460ff19169055610c9c82826118ac565b50506097805460ff19166001179055565b60ca5490565b600090815260c9602052604090205490565b60975460ff16610d0a576040805162461bcd60e51b815260206004820152601f6024820152600080516020612495833981519152604482015290519081900360640190fd5b6097805460ff1916905560ca80546000919083908110610d2657fe5b6000918252602080832085845260cb82526040808520338652909252922080546007929092029092016005810154909350610d61908261175a565b6005840155600080835560018301558254610d86906001600160a01b0316338361179c565b6040805182815260208101869052815133927fbb757047c2b5f3974fe26b7c10f732e7bce710b0952a71082702781e62ae0595928290030190a250506097805460ff191660011790555050565b60cd546001600160a01b031681565b60975460ff16610e27576040805162461bcd60e51b815260206004820152601f6024820152600080516020612495833981519152604482015290519081900360640190fd5b6097805460ff1916905560005b81811015610e6157610e59838383818110610e4b57fe5b9050602002013560006118ac565b600101610e34565b50506097805460ff1916600117905550565b610e7b61150a565b6065546001600160a01b03908116911614610ecb576040805162461bcd60e51b815260206004820181905260248201526000805160206124fc833981519152604482015290519081900360640190fd5b60cd80546001600160a01b0383166001600160a01b0319909116811790915560408051918252517f860da714d66641e1bb8025e657aa279ec5bbe56385e52a9ee03a12718e5600cb9181900360200190a150565b610f2761150a565b6065546001600160a01b03908116911614610f77576040805162461bcd60e51b815260206004820181905260248201526000805160206124fc833981519152604482015290519081900360640190fd5b6065546040516000916001600160a01b03169060008051602061251c833981519152908390a3606580546001600160a01b0319169055565b60008184101580610fbf57508284115b15610fcc57506000610ff1565b818311610fe457610fdd838561175a565b9050610ff1565b610fee828561175a565b90505b9392505050565b60006110048243611a1b565b92915050565b6065546001600160a01b031690565b60cb6020908152600092835260408084209091529082529020805460019091015482565b600082815260cb602090815260408083206001600160a01b038516845290915281208054600190910154610ff191859161150e565b60006110048243611b03565b60ca818154811061108b57fe5b600091825260209091206007909102018054600182015460028301546003840154600485015460058601546006909601546001600160a01b039586169750949093169491939092919087565b600054610100900460ff16806110f057506110f0611c05565b806110fe575060005460ff16155b6111395760405162461bcd60e51b815260040180806020018281038252602e81526020018061253c602e913960400191505060405180910390fd5b600054610100900460ff16158015611164576000805460ff1961ff0019909116610100171660011790555b61116c611c0b565b611174611cbd565b603460cc5560cd80546001600160a01b0319166001600160a01b03841617905580156111a6576000805461ff00191690555b5050565b60975460ff166111ef576040805162461bcd60e51b815260206004820152601f6024820152600080516020612495833981519152604482015290519081900360640190fd5b6097805460ff1916905561120281611d52565b506097805460ff19166001179055565b60975460ff16611257576040805162461bcd60e51b815260206004820152601f6024820152600080516020612495833981519152604482015290519081900360640190fd5b6097805460ff1916905560ca8054600091908490811061127357fe5b6000918252602080832086845260cb825260408085203386529092529220600790910290910191506112a484611d52565b8054156113085760006112e582600101546112df64e8d4a510006112d9876004015487600001546117f390919063ffffffff16565b90611ee1565b9061175a565b90508015611306576001830154611306906001600160a01b0316338361179c565b505b8215611348578154611325906001600160a01b031633308661184c565b80546113319084611702565b815560058201546113429084611702565b60058301555b600482015481546113639164e8d4a51000916112d9916117f3565b60018201556040805184815260208101869052815133927f90890809c654f11d6e72a28fa60149770a0d11ec6c92319d6ceb2bb0a4ea1a15928290030190a250506097805460ff191660011790555050565b60975460ff166113fa576040805162461bcd60e51b815260206004820152601f6024820152600080516020612495833981519152604482015290519081900360640190fd5b6097805460ff1916905560ca5460005b81811015610c9c5761141b81611d52565b60010161140a565b61142b61150a565b6065546001600160a01b0390811691161461147b576040805162461bcd60e51b815260206004820181905260248201526000805160206124fc833981519152604482015290519081900360640190fd5b6001600160a01b0381166114c05760405162461bcd60e51b81526004018080602001828103825260268152602001806124b56026913960400191505060405180910390fd5b6065546040516001600160a01b0380841692169060008051602061251c83398151915290600090a3606580546001600160a01b0319166001600160a01b0392909216919091179055565b3390565b6000611518612445565b60ca858154811061152557fe5b600091825260208083206040805160e081018252600790940290910180546001600160a01b03908116855260018201541684840152600281015484830152600381015460608086019190915260048201546080860152600582015460a086015260069091015460c085015289855260c98352818520805483518186028101860190945280845294965090949193909290919084015b82821015611600578382906000526020600020906002020160405180604001604052908160008201548152602001600182015481525050815260200190600101906115ba565b505050509050600082608001519050826060015143118015611625575060a083015115155b156116e057606083015160005b83518110156116dd57600061165f834387858151811061164e57fe5b602002602001015160000151610faf565b90508061166c57506116d5565b84828151811061167857fe5b60200260200101516000015192506116d16116ca8760a001516112d964e8d4a510006116c48a88815181106116a957fe5b602002602001015160200151876117f390919063ffffffff16565b906117f3565b8590611702565b9350505b600101611632565b50505b6116f7856112df64e8d4a510006112d98a866117f3565b979650505050505050565b600082820183811015610ff1576040805162461bcd60e51b815260206004820152601b60248201527a536166654d6174683a206164646974696f6e206f766572666c6f7760281b604482015290519081900360640190fd5b6000610ff183836040518060400160405280601e81526020017f536166654d6174683a207375627472616374696f6e206f766572666c6f770000815250611f20565b604080516001600160a01b038416602482015260448082018490528251808303909101815260649091019091526020810180516001600160e01b031663a9059cbb60e01b1790526117ee908490611fb7565b505050565b60008261180257506000611004565b8282028284828161180f57fe5b0414610ff15760405162461bcd60e51b81526004018080602001828103825260218152602001806124db6021913960400191505060405180910390fd5b604080516001600160a01b0380861660248301528416604482015260648082018490528251808303909101815260849091019091526020810180516001600160e01b03166323b872dd60e01b1790526118a6908590611fb7565b50505050565b600060ca83815481106118bb57fe5b6000918252602080832086845260cb8252604080852033865290925292208054600790920290920192508311156119235760405162461bcd60e51b815260040180806020018281038252602b81526020018061256a602b913960400191505060405180910390fd5b61192c84611d52565b600061195a82600101546112df64e8d4a510006112d9876004015487600001546117f390919063ffffffff16565b9050801561197b57600183015461197b906001600160a01b0316338361179c565b83156119ba57815461198d908561175a565b825582546119a5906001600160a01b0316338661179c565b60058301546119b4908561175a565b60058401555b600483015482546119d59164e8d4a51000916112d9916117f3565b60018301556040805185815260208101879052815133927ff279e6a1f5e320cca91135676d9cb6e44ca8a08c0b88342bcdb1144f6511b568928290030190a25050505050565b600082815260c9602090815260408083208054825181850281018501909352808352606093859084015b82821015611a8b57838290600052602060002090600202016040518060400160405290816000820154815260200160018201548152505081526020019060010190611a45565b50508251929350505080611aa457600092505050611004565b60005b81811015611af757828181518110611abb57fe5b6020026020010151600001518511611aef57828181518110611ad957fe5b6020026020010151602001519350505050611004565b600101611aa7565b50600095945050505050565b600082815260c9602090815260408083208054825181850281018501909352808352606093859084015b82821015611b7357838290600052602060002090600202016040518060400160405290816000820154815260200160018201548152505081526020019060010190611b2d565b50508251929350505080611b8c57600092505050611004565b60005b81811015611bdf57828181518110611ba357fe5b6020026020010151600001518511611bd757828181518110611bc157fe5b6020026020010151600001519350505050611004565b600101611b8f565b50816001820381518110611bef57fe5b6020026020010151600001519250505092915050565b303b1590565b600054610100900460ff1680611c245750611c24611c05565b80611c32575060005460ff16155b611c6d5760405162461bcd60e51b815260040180806020018281038252602e81526020018061253c602e913960400191505060405180910390fd5b600054610100900460ff16158015611c98576000805460ff1961ff0019909116610100171660011790555b611ca061216f565b611ca861220f565b8015611cba576000805461ff00191690555b50565b600054610100900460ff1680611cd65750611cd6611c05565b80611ce4575060005460ff16155b611d1f5760405162461bcd60e51b815260040180806020018281038252602e81526020018061253c602e913960400191505060405180910390fd5b600054610100900460ff16158015611d4a576000805460ff1961ff0019909116610100171660011790555b611ca86122f6565b600060ca8281548110611d6157fe5b90600052602060002090600702019050606060c96000848152602001908152602001600020805480602002602001604051908101604052809291908181526020016000905b82821015611dec57838290600052602060002090600202016040518060400160405290816000820154815260200160018201548152505081526020019060010190611da6565b50505050905081600301544311611e04575050611cba565b6005820154611e2c57611e178343611b03565b431115611e25574360038301555b5050611cba565b60005b81518110156118a6576000611e4f84600301544385858151811061164e57fe5b905080611e5c5750611ed9565b828281518110611e6857fe5b602002602001015160000151431115611e9d57828281518110611e8757fe5b6020908102919091010151516003850155611ea4565b4360038501555b611ed2611ec785600501546112d964e8d4a510006116c48888815181106116a957fe5b600486015490611702565b6004850155505b600101611e2f565b6000610ff183836040518060400160405280601a815260200179536166654d6174683a206469766973696f6e206279207a65726f60301b8152506123a4565b60008184841115611faf5760405162461bcd60e51b81526004018080602001828103825283818151815260200191508051906020019080838360005b83811015611f74578181015183820152602001611f5c565b50505050905090810190601f168015611fa15780820380516001836020036101000a031916815260200191505b509250505060405180910390fd5b505050900390565b611fc9826001600160a01b0316612409565b61201a576040805162461bcd60e51b815260206004820152601f60248201527f5361666545524332303a2063616c6c20746f206e6f6e2d636f6e747261637400604482015290519081900360640190fd5b60006060836001600160a01b0316836040518082805190602001908083835b602083106120585780518252601f199092019160209182019101612039565b6001836020036101000a0380198251168184511680821785525050505050509050019150506000604051808303816000865af19150503d80600081146120ba576040519150601f19603f3d011682016040523d82523d6000602084013e6120bf565b606091505b509150915081612116576040805162461bcd60e51b815260206004820181905260248201527f5361666545524332303a206c6f772d6c6576656c2063616c6c206661696c6564604482015290519081900360640190fd5b8051156118a65780806020019051602081101561213257600080fd5b50516118a65760405162461bcd60e51b815260040180806020018281038252602a8152602001806125f2602a913960400191505060405180910390fd5b600054610100900460ff16806121885750612188611c05565b80612196575060005460ff16155b6121d15760405162461bcd60e51b815260040180806020018281038252602e81526020018061253c602e913960400191505060405180910390fd5b600054610100900460ff16158015611ca8576000805460ff1961ff0019909116610100171660011790558015611cba576000805461ff001916905550565b600054610100900460ff16806122285750612228611c05565b80612236575060005460ff16155b6122715760405162461bcd60e51b815260040180806020018281038252602e81526020018061253c602e913960400191505060405180910390fd5b600054610100900460ff1615801561229c576000805460ff1961ff0019909116610100171660011790555b60006122a661150a565b606580546001600160a01b0319166001600160a01b0383169081179091556040519192509060009060008051602061251c833981519152908290a3508015611cba576000805461ff001916905550565b600054610100900460ff168061230f575061230f611c05565b8061231d575060005460ff16155b6123585760405162461bcd60e51b815260040180806020018281038252602e81526020018061253c602e913960400191505060405180910390fd5b600054610100900460ff16158015612383576000805460ff1961ff0019909116610100171660011790555b6097805460ff191660011790558015611cba576000805461ff001916905550565b600081836123f35760405162461bcd60e51b8152602060048201818152835160248401528351909283926044909101919085019080838360008315611f74578181015183820152602001611f5c565b5060008385816123ff57fe5b0495945050505050565b6000813f7fc5d2460186f7233c927e7db2dcc703c0e500b653ca82273b7bfad8045d85a47081811480159061243d57508115155b949350505050565b6040518060e0016040528060006001600160a01b0316815260200160006001600160a01b031681526020016000815260200160008152602001600081526020016000815260200160008152509056fe5265656e7472616e637947756172643a207265656e7472616e742063616c6c004f776e61626c653a206e6577206f776e657220697320746865207a65726f2061646472657373536166654d6174683a206d756c7469706c69636174696f6e206f766572666c6f774f776e61626c653a2063616c6c6572206973206e6f7420746865206f776e65728be0079c531659141344cd1fd0a4f28419497f9722a3daafe3b4186f6b6457e0436f6e747261637420696e7374616e63652068617320616c7265616479206265656e20696e697469616c697a65644772617a696e6752616e67653a3a77697468647261773a3a62616420776974686472617720616d6f756e744772617a696e6752616e67653a3a616464526577617264496e666f3a3a72657761726420706572696f6420656e6465644772617a696e6752616e67653a3a616464526577617264496e666f3a3a626164206e657720656e64626c6f636b5361666545524332303a204552433230206f7065726174696f6e20646964206e6f7420737563636565644772617a696e6752616e67653a3a616464526577617264496e666f3a3a72657761726420696e666f206c656e677468206578636565647320746865206c696d69744772617a696e6752616e67653a3a656d657267656e637952657761726457697468647261773a3a6e6f7420656e6f7567682072657761726420746f6b656ea26469706673582212208b36e2b58c6b7add6bf2b6afb26e96c5d780b930cf4d6fa2d68035c3f8c818b964736f6c634300060c0033",
          "opcodes": "PUSH1 0x80 PUSH1 0x40 MSTORE CALLVALUE DUP1 ISZERO PUSH2 0x10 JUMPI PUSH1 0x0 DUP1 REVERT JUMPDEST POP PUSH2 0x26D0 DUP1 PUSH2 0x20 PUSH1 0x0 CODECOPY PUSH1 0x0 RETURN INVALID PUSH1 0x80 PUSH1 0x40 MSTORE CALLVALUE DUP1 ISZERO PUSH2 0x10 JUMPI PUSH1 0x0 DUP1 REVERT JUMPDEST POP PUSH1 0x4 CALLDATASIZE LT PUSH2 0x13D JUMPI PUSH1 0x0 CALLDATALOAD PUSH1 0xE0 SHR DUP1 PUSH3 0xD74850 EQ PUSH2 0x142 JUMPI DUP1 PUSH4 0x10F7A6AF EQ PUSH2 0x15C JUMPI DUP1 PUSH4 0x1D123131 EQ PUSH2 0x198 JUMPI DUP1 PUSH4 0x2EA807C5 EQ PUSH2 0x1CC JUMPI DUP1 PUSH4 0x33824B87 EQ PUSH2 0x1F5 JUMPI DUP1 PUSH4 0x409E00FC EQ PUSH2 0x212 JUMPI DUP1 PUSH4 0x441A3E70 EQ PUSH2 0x248 JUMPI DUP1 PUSH4 0x4AD7CE80 EQ PUSH2 0x26B JUMPI DUP1 PUSH4 0x4AE56BAE EQ PUSH2 0x273 JUMPI DUP1 PUSH4 0x5312EA8E EQ PUSH2 0x290 JUMPI DUP1 PUSH4 0x569C93D2 EQ PUSH2 0x2AD JUMPI DUP1 PUSH4 0x5D14B06F EQ PUSH2 0x2D1 JUMPI DUP1 PUSH4 0x6806CC93 EQ PUSH2 0x33F JUMPI DUP1 PUSH4 0x715018A6 EQ PUSH2 0x365 JUMPI DUP1 PUSH4 0x7BAFB029 EQ PUSH2 0x36D JUMPI DUP1 PUSH4 0x8D48AFF0 EQ PUSH2 0x396 JUMPI DUP1 PUSH4 0x8DA5CB5B EQ PUSH2 0x3B3 JUMPI DUP1 PUSH4 0x93F1A40B EQ PUSH2 0x3BB JUMPI DUP1 PUSH4 0x98969E82 EQ PUSH2 0x3E7 JUMPI DUP1 PUSH4 0x9A63BC16 EQ PUSH2 0x413 JUMPI DUP1 PUSH4 0xBB2238EC EQ PUSH2 0x430 JUMPI DUP1 PUSH4 0xC4D66DE8 EQ PUSH2 0x491 JUMPI DUP1 PUSH4 0xCEF7042D EQ PUSH2 0x4B7 JUMPI DUP1 PUSH4 0xE2BBB158 EQ PUSH2 0x4D4 JUMPI DUP1 PUSH4 0xEEBDCED5 EQ PUSH2 0x4F7 JUMPI DUP1 PUSH4 0xF2FDE38B EQ PUSH2 0x4FF JUMPI JUMPDEST PUSH1 0x0 DUP1 REVERT JUMPDEST PUSH2 0x14A PUSH2 0x525 JUMP JUMPDEST PUSH1 0x40 DUP1 MLOAD SWAP2 DUP3 MSTORE MLOAD SWAP1 DUP2 SWAP1 SUB PUSH1 0x20 ADD SWAP1 RETURN JUMPDEST PUSH2 0x17F PUSH1 0x4 DUP1 CALLDATASIZE SUB PUSH1 0x40 DUP2 LT ISZERO PUSH2 0x172 JUMPI PUSH1 0x0 DUP1 REVERT JUMPDEST POP DUP1 CALLDATALOAD SWAP1 PUSH1 0x20 ADD CALLDATALOAD PUSH2 0x52B JUMP JUMPDEST PUSH1 0x40 DUP1 MLOAD SWAP3 DUP4 MSTORE PUSH1 0x20 DUP4 ADD SWAP2 SWAP1 SWAP2 MSTORE DUP1 MLOAD SWAP2 DUP3 SWAP1 SUB ADD SWAP1 RETURN JUMPDEST PUSH2 0x1CA PUSH1 0x4 DUP1 CALLDATASIZE SUB PUSH1 0x60 DUP2 LT ISZERO PUSH2 0x1AE JUMPI PUSH1 0x0 DUP1 REVERT JUMPDEST POP DUP1 CALLDATALOAD SWAP1 PUSH1 0x20 DUP2 ADD CALLDATALOAD SWAP1 PUSH1 0x40 ADD CALLDATALOAD PUSH1 0x1 PUSH1 0x1 PUSH1 0xA0 SHL SUB AND PUSH2 0x564 JUMP JUMPDEST STOP JUMPDEST PUSH2 0x1CA PUSH1 0x4 DUP1 CALLDATASIZE SUB PUSH1 0x60 DUP2 LT ISZERO PUSH2 0x1E2 JUMPI PUSH1 0x0 DUP1 REVERT JUMPDEST POP DUP1 CALLDATALOAD SWAP1 PUSH1 0x20 DUP2 ADD CALLDATALOAD SWAP1 PUSH1 0x40 ADD CALLDATALOAD PUSH2 0x6CF JUMP JUMPDEST PUSH2 0x1CA PUSH1 0x4 DUP1 CALLDATASIZE SUB PUSH1 0x20 DUP2 LT ISZERO PUSH2 0x20B JUMPI PUSH1 0x0 DUP1 REVERT JUMPDEST POP CALLDATALOAD PUSH2 0x987 JUMP JUMPDEST PUSH2 0x1CA PUSH1 0x4 DUP1 CALLDATASIZE SUB PUSH1 0x60 DUP2 LT ISZERO PUSH2 0x228 JUMPI PUSH1 0x0 DUP1 REVERT JUMPDEST POP PUSH1 0x1 PUSH1 0x1 PUSH1 0xA0 SHL SUB DUP2 CALLDATALOAD DUP2 AND SWAP2 PUSH1 0x20 DUP2 ADD CALLDATALOAD SWAP1 SWAP2 AND SWAP1 PUSH1 0x40 ADD CALLDATALOAD PUSH2 0xA1A JUMP JUMPDEST PUSH2 0x1CA PUSH1 0x4 DUP1 CALLDATASIZE SUB PUSH1 0x40 DUP2 LT ISZERO PUSH2 0x25E JUMPI PUSH1 0x0 DUP1 REVERT JUMPDEST POP DUP1 CALLDATALOAD SWAP1 PUSH1 0x20 ADD CALLDATALOAD PUSH2 0xC43 JUMP JUMPDEST PUSH2 0x14A PUSH2 0xCAD JUMP JUMPDEST PUSH2 0x14A PUSH1 0x4 DUP1 CALLDATASIZE SUB PUSH1 0x20 DUP2 LT ISZERO PUSH2 0x289 JUMPI PUSH1 0x0 DUP1 REVERT JUMPDEST POP CALLDATALOAD PUSH2 0xCB3 JUMP JUMPDEST PUSH2 0x1CA PUSH1 0x4 DUP1 CALLDATASIZE SUB PUSH1 0x20 DUP2 LT ISZERO PUSH2 0x2A6 JUMPI PUSH1 0x0 DUP1 REVERT JUMPDEST POP CALLDATALOAD PUSH2 0xCC5 JUMP JUMPDEST PUSH2 0x2B5 PUSH2 0xDD3 JUMP JUMPDEST PUSH1 0x40 DUP1 MLOAD PUSH1 0x1 PUSH1 0x1 PUSH1 0xA0 SHL SUB SWAP1 SWAP3 AND DUP3 MSTORE MLOAD SWAP1 DUP2 SWAP1 SUB PUSH1 0x20 ADD SWAP1 RETURN JUMPDEST PUSH2 0x1CA PUSH1 0x4 DUP1 CALLDATASIZE SUB PUSH1 0x20 DUP2 LT ISZERO PUSH2 0x2E7 JUMPI PUSH1 0x0 DUP1 REVERT JUMPDEST DUP2 ADD SWAP1 PUSH1 0x20 DUP2 ADD DUP2 CALLDATALOAD PUSH1 0x1 PUSH1 0x20 SHL DUP2 GT ISZERO PUSH2 0x301 JUMPI PUSH1 0x0 DUP1 REVERT JUMPDEST DUP3 ADD DUP4 PUSH1 0x20 DUP3 ADD GT ISZERO PUSH2 0x313 JUMPI PUSH1 0x0 DUP1 REVERT JUMPDEST DUP1 CALLDATALOAD SWAP1 PUSH1 0x20 ADD SWAP2 DUP5 PUSH1 0x20 DUP4 MUL DUP5 ADD GT PUSH1 0x1 PUSH1 0x20 SHL DUP4 GT OR ISZERO PUSH2 0x334 JUMPI PUSH1 0x0 DUP1 REVERT JUMPDEST POP SWAP1 SWAP3 POP SWAP1 POP PUSH2 0xDE2 JUMP JUMPDEST PUSH2 0x1CA PUSH1 0x4 DUP1 CALLDATASIZE SUB PUSH1 0x20 DUP2 LT ISZERO PUSH2 0x355 JUMPI PUSH1 0x0 DUP1 REVERT JUMPDEST POP CALLDATALOAD PUSH1 0x1 PUSH1 0x1 PUSH1 0xA0 SHL SUB AND PUSH2 0xE73 JUMP JUMPDEST PUSH2 0x1CA PUSH2 0xF1F JUMP JUMPDEST PUSH2 0x14A PUSH1 0x4 DUP1 CALLDATASIZE SUB PUSH1 0x60 DUP2 LT ISZERO PUSH2 0x383 JUMPI PUSH1 0x0 DUP1 REVERT JUMPDEST POP DUP1 CALLDATALOAD SWAP1 PUSH1 0x20 DUP2 ADD CALLDATALOAD SWAP1 PUSH1 0x40 ADD CALLDATALOAD PUSH2 0xFAF JUMP JUMPDEST PUSH2 0x14A PUSH1 0x4 DUP1 CALLDATASIZE SUB PUSH1 0x20 DUP2 LT ISZERO PUSH2 0x3AC JUMPI PUSH1 0x0 DUP1 REVERT JUMPDEST POP CALLDATALOAD PUSH2 0xFF8 JUMP JUMPDEST PUSH2 0x2B5 PUSH2 0x100A JUMP JUMPDEST PUSH2 0x17F PUSH1 0x4 DUP1 CALLDATASIZE SUB PUSH1 0x40 DUP2 LT ISZERO PUSH2 0x3D1 JUMPI PUSH1 0x0 DUP1 REVERT JUMPDEST POP DUP1 CALLDATALOAD SWAP1 PUSH1 0x20 ADD CALLDATALOAD PUSH1 0x1 PUSH1 0x1 PUSH1 0xA0 SHL SUB AND PUSH2 0x1019 JUMP JUMPDEST PUSH2 0x14A PUSH1 0x4 DUP1 CALLDATASIZE SUB PUSH1 0x40 DUP2 LT ISZERO PUSH2 0x3FD JUMPI PUSH1 0x0 DUP1 REVERT JUMPDEST POP DUP1 CALLDATALOAD SWAP1 PUSH1 0x20 ADD CALLDATALOAD PUSH1 0x1 PUSH1 0x1 PUSH1 0xA0 SHL SUB AND PUSH2 0x103D JUMP JUMPDEST PUSH2 0x14A PUSH1 0x4 DUP1 CALLDATASIZE SUB PUSH1 0x20 DUP2 LT ISZERO PUSH2 0x429 JUMPI PUSH1 0x0 DUP1 REVERT JUMPDEST POP CALLDATALOAD PUSH2 0x1072 JUMP JUMPDEST PUSH2 0x44D PUSH1 0x4 DUP1 CALLDATASIZE SUB PUSH1 0x20 DUP2 LT ISZERO PUSH2 0x446 JUMPI PUSH1 0x0 DUP1 REVERT JUMPDEST POP CALLDATALOAD PUSH2 0x107E JUMP JUMPDEST PUSH1 0x40 DUP1 MLOAD PUSH1 0x1 PUSH1 0x1 PUSH1 0xA0 SHL SUB SWAP9 DUP10 AND DUP2 MSTORE SWAP7 SWAP1 SWAP8 AND PUSH1 0x20 DUP8 ADD MSTORE DUP6 DUP8 ADD SWAP5 SWAP1 SWAP5 MSTORE PUSH1 0x60 DUP6 ADD SWAP3 SWAP1 SWAP3 MSTORE PUSH1 0x80 DUP5 ADD MSTORE PUSH1 0xA0 DUP4 ADD MSTORE PUSH1 0xC0 DUP3 ADD MSTORE SWAP1 MLOAD SWAP1 DUP2 SWAP1 SUB PUSH1 0xE0 ADD SWAP1 RETURN JUMPDEST PUSH2 0x1CA PUSH1 0x4 DUP1 CALLDATASIZE SUB PUSH1 0x20 DUP2 LT ISZERO PUSH2 0x4A7 JUMPI PUSH1 0x0 DUP1 REVERT JUMPDEST POP CALLDATALOAD PUSH1 0x1 PUSH1 0x1 PUSH1 0xA0 SHL SUB AND PUSH2 0x10D7 JUMP JUMPDEST PUSH2 0x1CA PUSH1 0x4 DUP1 CALLDATASIZE SUB PUSH1 0x20 DUP2 LT ISZERO PUSH2 0x4CD JUMPI PUSH1 0x0 DUP1 REVERT JUMPDEST POP CALLDATALOAD PUSH2 0x11AA JUMP JUMPDEST PUSH2 0x1CA PUSH1 0x4 DUP1 CALLDATASIZE SUB PUSH1 0x40 DUP2 LT ISZERO PUSH2 0x4EA JUMPI PUSH1 0x0 DUP1 REVERT JUMPDEST POP DUP1 CALLDATALOAD SWAP1 PUSH1 0x20 ADD CALLDATALOAD PUSH2 0x1212 JUMP JUMPDEST PUSH2 0x1CA PUSH2 0x13B5 JUMP JUMPDEST PUSH2 0x1CA PUSH1 0x4 DUP1 CALLDATASIZE SUB PUSH1 0x20 DUP2 LT ISZERO PUSH2 0x515 JUMPI PUSH1 0x0 DUP1 REVERT JUMPDEST POP CALLDATALOAD PUSH1 0x1 PUSH1 0x1 PUSH1 0xA0 SHL SUB AND PUSH2 0x1423 JUMP JUMPDEST PUSH1 0xCC SLOAD DUP2 JUMP JUMPDEST PUSH1 0xC9 PUSH1 0x20 MSTORE DUP2 PUSH1 0x0 MSTORE PUSH1 0x40 PUSH1 0x0 KECCAK256 DUP2 DUP2 SLOAD DUP2 LT PUSH2 0x544 JUMPI INVALID JUMPDEST PUSH1 0x0 SWAP2 DUP3 MSTORE PUSH1 0x20 SWAP1 SWAP2 KECCAK256 PUSH1 0x2 SWAP1 SWAP2 MUL ADD DUP1 SLOAD PUSH1 0x1 SWAP1 SWAP2 ADD SLOAD SWAP1 SWAP3 POP SWAP1 POP DUP3 JUMP JUMPDEST PUSH2 0x56C PUSH2 0x150A JUMP JUMPDEST PUSH1 0x65 SLOAD PUSH1 0x1 PUSH1 0x1 PUSH1 0xA0 SHL SUB SWAP1 DUP2 AND SWAP2 AND EQ PUSH2 0x5BC JUMPI PUSH1 0x40 DUP1 MLOAD PUSH3 0x461BCD PUSH1 0xE5 SHL DUP2 MSTORE PUSH1 0x20 PUSH1 0x4 DUP3 ADD DUP2 SWAP1 MSTORE PUSH1 0x24 DUP3 ADD MSTORE PUSH1 0x0 DUP1 MLOAD PUSH1 0x20 PUSH2 0x24FC DUP4 CODECOPY DUP2 MLOAD SWAP2 MSTORE PUSH1 0x44 DUP3 ADD MSTORE SWAP1 MLOAD SWAP1 DUP2 SWAP1 SUB PUSH1 0x64 ADD SWAP1 REVERT JUMPDEST PUSH1 0x97 SLOAD PUSH1 0xFF AND PUSH2 0x601 JUMPI PUSH1 0x40 DUP1 MLOAD PUSH3 0x461BCD PUSH1 0xE5 SHL DUP2 MSTORE PUSH1 0x20 PUSH1 0x4 DUP3 ADD MSTORE PUSH1 0x1F PUSH1 0x24 DUP3 ADD MSTORE PUSH1 0x0 DUP1 MLOAD PUSH1 0x20 PUSH2 0x2495 DUP4 CODECOPY DUP2 MLOAD SWAP2 MSTORE PUSH1 0x44 DUP3 ADD MSTORE SWAP1 MLOAD SWAP1 DUP2 SWAP1 SUB PUSH1 0x64 ADD SWAP1 REVERT JUMPDEST PUSH1 0x97 DUP1 SLOAD PUSH1 0xFF NOT AND SWAP1 SSTORE PUSH1 0xCA DUP1 SLOAD PUSH1 0x0 SWAP2 SWAP1 DUP6 SWAP1 DUP2 LT PUSH2 0x61D JUMPI INVALID JUMPDEST SWAP1 PUSH1 0x0 MSTORE PUSH1 0x20 PUSH1 0x0 KECCAK256 SWAP1 PUSH1 0x7 MUL ADD SWAP1 POP PUSH1 0x0 PUSH2 0x63F DUP6 DUP4 PUSH1 0x5 ADD SLOAD PUSH1 0x0 PUSH2 0x150E JUMP JUMPDEST PUSH1 0x6 DUP4 ADD SLOAD SWAP1 SWAP2 POP PUSH2 0x651 DUP3 DUP7 PUSH2 0x1702 JUMP JUMPDEST GT ISZERO PUSH2 0x68E JUMPI PUSH1 0x40 MLOAD PUSH3 0x461BCD PUSH1 0xE5 SHL DUP2 MSTORE PUSH1 0x4 ADD DUP1 DUP1 PUSH1 0x20 ADD DUP3 DUP2 SUB DUP3 MSTORE PUSH1 0x3E DUP2 MSTORE PUSH1 0x20 ADD DUP1 PUSH2 0x265D PUSH1 0x3E SWAP2 CODECOPY PUSH1 0x40 ADD SWAP2 POP POP PUSH1 0x40 MLOAD DUP1 SWAP2 SUB SWAP1 REVERT JUMPDEST PUSH1 0x6 DUP3 ADD SLOAD PUSH2 0x69D SWAP1 DUP6 PUSH2 0x175A JUMP JUMPDEST PUSH1 0x6 DUP4 ADD SSTORE PUSH1 0x1 DUP3 ADD SLOAD PUSH2 0x6BB SWAP1 PUSH1 0x1 PUSH1 0x1 PUSH1 0xA0 SHL SUB AND DUP5 DUP7 PUSH2 0x179C JUMP JUMPDEST POP POP PUSH1 0x97 DUP1 SLOAD PUSH1 0xFF NOT AND PUSH1 0x1 OR SWAP1 SSTORE POP POP POP JUMP JUMPDEST PUSH2 0x6D7 PUSH2 0x150A JUMP JUMPDEST PUSH1 0x65 SLOAD PUSH1 0x1 PUSH1 0x1 PUSH1 0xA0 SHL SUB SWAP1 DUP2 AND SWAP2 AND EQ PUSH2 0x727 JUMPI PUSH1 0x40 DUP1 MLOAD PUSH3 0x461BCD PUSH1 0xE5 SHL DUP2 MSTORE PUSH1 0x20 PUSH1 0x4 DUP3 ADD DUP2 SWAP1 MSTORE PUSH1 0x24 DUP3 ADD MSTORE PUSH1 0x0 DUP1 MLOAD PUSH1 0x20 PUSH2 0x24FC DUP4 CODECOPY DUP2 MLOAD SWAP2 MSTORE PUSH1 0x44 DUP3 ADD MSTORE SWAP1 MLOAD SWAP1 DUP2 SWAP1 SUB PUSH1 0x64 ADD SWAP1 REVERT JUMPDEST PUSH1 0x0 DUP4 DUP2 MSTORE PUSH1 0xC9 PUSH1 0x20 MSTORE PUSH1 0x40 DUP2 KECCAK256 PUSH1 0xCA DUP1 SLOAD SWAP2 SWAP3 SWAP2 DUP7 SWAP1 DUP2 LT PUSH2 0x746 JUMPI INVALID JUMPDEST SWAP1 PUSH1 0x0 MSTORE PUSH1 0x20 PUSH1 0x0 KECCAK256 SWAP1 PUSH1 0x7 MUL ADD SWAP1 POP PUSH1 0xCC SLOAD DUP3 DUP1 SLOAD SWAP1 POP LT PUSH2 0x79A JUMPI PUSH1 0x40 MLOAD PUSH3 0x461BCD PUSH1 0xE5 SHL DUP2 MSTORE PUSH1 0x4 ADD DUP1 DUP1 PUSH1 0x20 ADD DUP3 DUP2 SUB DUP3 MSTORE PUSH1 0x41 DUP2 MSTORE PUSH1 0x20 ADD DUP1 PUSH2 0x261C PUSH1 0x41 SWAP2 CODECOPY PUSH1 0x60 ADD SWAP2 POP POP PUSH1 0x40 MLOAD DUP1 SWAP2 SUB SWAP1 REVERT JUMPDEST DUP2 SLOAD ISZERO DUP1 PUSH2 0x7CC JUMPI POP DUP2 SLOAD NUMBER SWAP1 DUP4 SWAP1 PUSH1 0x0 NOT DUP2 ADD SWAP1 DUP2 LT PUSH2 0x7B7 JUMPI INVALID JUMPDEST SWAP1 PUSH1 0x0 MSTORE PUSH1 0x20 PUSH1 0x0 KECCAK256 SWAP1 PUSH1 0x2 MUL ADD PUSH1 0x0 ADD SLOAD LT ISZERO JUMPDEST PUSH2 0x807 JUMPI PUSH1 0x40 MLOAD PUSH3 0x461BCD PUSH1 0xE5 SHL DUP2 MSTORE PUSH1 0x4 ADD DUP1 DUP1 PUSH1 0x20 ADD DUP3 DUP2 SUB DUP3 MSTORE PUSH1 0x30 DUP2 MSTORE PUSH1 0x20 ADD DUP1 PUSH2 0x2595 PUSH1 0x30 SWAP2 CODECOPY PUSH1 0x40 ADD SWAP2 POP POP PUSH1 0x40 MLOAD DUP1 SWAP2 SUB SWAP1 REVERT JUMPDEST DUP2 SLOAD ISZERO DUP1 PUSH2 0x838 JUMPI POP DUP2 SLOAD DUP5 SWAP1 DUP4 SWAP1 PUSH1 0x0 NOT DUP2 ADD SWAP1 DUP2 LT PUSH2 0x824 JUMPI INVALID JUMPDEST SWAP1 PUSH1 0x0 MSTORE PUSH1 0x20 PUSH1 0x0 KECCAK256 SWAP1 PUSH1 0x2 MUL ADD PUSH1 0x0 ADD SLOAD LT JUMPDEST PUSH2 0x873 JUMPI PUSH1 0x40 MLOAD PUSH3 0x461BCD PUSH1 0xE5 SHL DUP2 MSTORE PUSH1 0x4 ADD DUP1 DUP1 PUSH1 0x20 ADD DUP3 DUP2 SUB DUP3 MSTORE PUSH1 0x2D DUP2 MSTORE PUSH1 0x20 ADD DUP1 PUSH2 0x25C5 PUSH1 0x2D SWAP2 CODECOPY PUSH1 0x40 ADD SWAP2 POP POP PUSH1 0x40 MLOAD DUP1 SWAP2 SUB SWAP1 REVERT JUMPDEST DUP2 SLOAD PUSH1 0x0 SWAP1 ISZERO PUSH2 0x8A6 JUMPI DUP3 SLOAD DUP4 SWAP1 PUSH1 0x0 NOT DUP2 ADD SWAP1 DUP2 LT PUSH2 0x88F JUMPI INVALID JUMPDEST SWAP1 PUSH1 0x0 MSTORE PUSH1 0x20 PUSH1 0x0 KECCAK256 SWAP1 PUSH1 0x2 MUL ADD PUSH1 0x0 ADD SLOAD PUSH2 0x8AC JUMP JUMPDEST DUP2 PUSH1 0x2 ADD SLOAD JUMPDEST SWAP1 POP PUSH1 0x0 PUSH2 0x8BA DUP7 DUP4 PUSH2 0x175A JUMP JUMPDEST SWAP1 POP PUSH1 0x0 PUSH2 0x8C8 DUP7 DUP4 PUSH2 0x17F3 JUMP JUMPDEST PUSH1 0xCD SLOAD PUSH1 0x1 DUP7 ADD SLOAD SWAP2 SWAP3 POP PUSH2 0x8EB SWAP2 PUSH1 0x1 PUSH1 0x1 PUSH1 0xA0 SHL SUB SWAP1 DUP2 AND SWAP2 AND ADDRESS DUP5 PUSH2 0x184C JUMP JUMPDEST PUSH1 0x6 DUP5 ADD SLOAD PUSH2 0x8FA SWAP1 DUP3 PUSH2 0x1702 JUMP JUMPDEST PUSH1 0x6 DUP6 ADD SSTORE PUSH1 0x40 DUP1 MLOAD DUP1 DUP3 ADD DUP3 MSTORE DUP9 DUP2 MSTORE PUSH1 0x20 DUP1 DUP3 ADD DUP10 DUP2 MSTORE DUP9 SLOAD PUSH1 0x1 DUP2 DUP2 ADD DUP12 SSTORE PUSH1 0x0 DUP12 DUP2 MSTORE DUP5 SWAP1 KECCAK256 SWAP5 MLOAD PUSH1 0x2 SWAP1 SWAP3 MUL SWAP1 SWAP5 ADD SWAP1 DUP2 SSTORE SWAP1 MLOAD SWAP3 ADD SWAP2 SWAP1 SWAP2 SSTORE DUP7 SLOAD DUP3 MLOAD DUP11 DUP2 MSTORE SWAP2 DUP3 ADD DUP10 SWAP1 MSTORE DUP3 MLOAD PUSH1 0x0 NOT SWAP2 SWAP1 SWAP2 ADD SWAP3 DUP12 SWAP3 PUSH32 0xAD90731BD0D97445F5AF66088F3ADEBF343C520C20E033CC42F93B124258CDC2 SWAP3 SWAP1 DUP2 SWAP1 SUB SWAP1 SWAP2 ADD SWAP1 LOG3 POP POP POP POP POP POP POP POP JUMP JUMPDEST PUSH2 0x98F PUSH2 0x150A JUMP JUMPDEST PUSH1 0x65 SLOAD PUSH1 0x1 PUSH1 0x1 PUSH1 0xA0 SHL SUB SWAP1 DUP2 AND SWAP2 AND EQ PUSH2 0x9DF JUMPI PUSH1 0x40 DUP1 MLOAD PUSH3 0x461BCD PUSH1 0xE5 SHL DUP2 MSTORE PUSH1 0x20 PUSH1 0x4 DUP3 ADD DUP2 SWAP1 MSTORE PUSH1 0x24 DUP3 ADD MSTORE PUSH1 0x0 DUP1 MLOAD PUSH1 0x20 PUSH2 0x24FC DUP4 CODECOPY DUP2 MLOAD SWAP2 MSTORE PUSH1 0x44 DUP3 ADD MSTORE SWAP1 MLOAD SWAP1 DUP2 SWAP1 SUB PUSH1 0x64 ADD SWAP1 REVERT JUMPDEST PUSH1 0xCC DUP2 SWAP1 SSTORE PUSH1 0x40 DUP1 MLOAD DUP3 DUP2 MSTORE SWAP1 MLOAD PUSH32 0xB64F58843E750A8BEA7135EF396CF0A7790BFC9A8F43F11AC0E0AACC1B5787BA SWAP2 DUP2 SWAP1 SUB PUSH1 0x20 ADD SWAP1 LOG1 POP JUMP JUMPDEST PUSH2 0xA22 PUSH2 0x150A JUMP JUMPDEST PUSH1 0x65 SLOAD PUSH1 0x1 PUSH1 0x1 PUSH1 0xA0 SHL SUB SWAP1 DUP2 AND SWAP2 AND EQ PUSH2 0xA72 JUMPI PUSH1 0x40 DUP1 MLOAD PUSH3 0x461BCD PUSH1 0xE5 SHL DUP2 MSTORE PUSH1 0x20 PUSH1 0x4 DUP3 ADD DUP2 SWAP1 MSTORE PUSH1 0x24 DUP3 ADD MSTORE PUSH1 0x0 DUP1 MLOAD PUSH1 0x20 PUSH2 0x24FC DUP4 CODECOPY DUP2 MLOAD SWAP2 MSTORE PUSH1 0x44 DUP3 ADD MSTORE SWAP1 MLOAD SWAP1 DUP2 SWAP1 SUB PUSH1 0x64 ADD SWAP1 REVERT JUMPDEST PUSH1 0x40 DUP1 MLOAD PUSH1 0xE0 DUP2 ADD DUP3 MSTORE PUSH1 0x1 PUSH1 0x1 PUSH1 0xA0 SHL SUB DUP1 DUP7 AND DUP1 DUP4 MSTORE DUP6 DUP3 AND PUSH1 0x20 DUP1 DUP6 ADD DUP3 DUP2 MSTORE DUP6 DUP8 ADD DUP9 DUP2 MSTORE PUSH1 0x60 DUP1 DUP9 ADD DUP11 DUP2 MSTORE PUSH1 0x0 PUSH1 0x80 DUP11 ADD DUP2 DUP2 MSTORE PUSH1 0xA0 DUP12 ADD DUP3 DUP2 MSTORE PUSH1 0xC0 DUP13 ADD DUP4 DUP2 MSTORE PUSH1 0xCA DUP1 SLOAD PUSH1 0x1 DUP2 ADD DUP3 SSTORE SWAP5 DUP2 SWAP1 MSTORE SWAP13 MLOAD PUSH1 0x7 SWAP1 SWAP5 MUL PUSH32 0x42D72674974F694B5F5159593243114D38A5C39C89D6B62FEE061FF523240EE1 DUP2 ADD DUP1 SLOAD SWAP6 DUP15 AND PUSH1 0x1 PUSH1 0x1 PUSH1 0xA0 SHL SUB NOT SWAP7 DUP8 AND OR SWAP1 SSTORE SWAP8 MLOAD PUSH32 0x42D72674974F694B5F5159593243114D38A5C39C89D6B62FEE061FF523240EE2 DUP10 ADD DUP1 SLOAD SWAP2 SWAP1 SWAP14 AND SWAP5 AND SWAP4 SWAP1 SWAP4 OR SWAP1 SWAP11 SSTORE SWAP4 MLOAD PUSH32 0x42D72674974F694B5F5159593243114D38A5C39C89D6B62FEE061FF523240EE3 DUP7 ADD SSTORE SWAP1 MLOAD PUSH32 0x42D72674974F694B5F5159593243114D38A5C39C89D6B62FEE061FF523240EE4 DUP6 ADD SSTORE SWAP2 MLOAD PUSH32 0x42D72674974F694B5F5159593243114D38A5C39C89D6B62FEE061FF523240EE5 DUP5 ADD SSTORE SWAP6 MLOAD PUSH32 0x42D72674974F694B5F5159593243114D38A5C39C89D6B62FEE061FF523240EE6 DUP4 ADD SSTORE MLOAD PUSH32 0x42D72674974F694B5F5159593243114D38A5C39C89D6B62FEE061FF523240EE7 SWAP1 SWAP2 ADD SSTORE SWAP4 SLOAD DUP6 MLOAD SWAP3 DUP4 MSTORE SWAP4 DUP3 ADD MSTORE DUP1 DUP5 ADD DUP6 SWAP1 MSTORE SWAP3 MLOAD PUSH1 0x0 NOT SWAP3 SWAP1 SWAP3 ADD SWAP3 PUSH32 0x9B2F18F9A188A5AEC4A95EE3164FE234DFBB6117628B2AD1A581939E61C69F4E SWAP3 SWAP1 DUP2 SWAP1 SUB SWAP1 SWAP2 ADD SWAP1 LOG2 POP POP POP JUMP JUMPDEST PUSH1 0x97 SLOAD PUSH1 0xFF AND PUSH2 0xC88 JUMPI PUSH1 0x40 DUP1 MLOAD PUSH3 0x461BCD PUSH1 0xE5 SHL DUP2 MSTORE PUSH1 0x20 PUSH1 0x4 DUP3 ADD MSTORE PUSH1 0x1F PUSH1 0x24 DUP3 ADD MSTORE PUSH1 0x0 DUP1 MLOAD PUSH1 0x20 PUSH2 0x2495 DUP4 CODECOPY DUP2 MLOAD SWAP2 MSTORE PUSH1 0x44 DUP3 ADD MSTORE SWAP1 MLOAD SWAP1 DUP2 SWAP1 SUB PUSH1 0x64 ADD SWAP1 REVERT JUMPDEST PUSH1 0x97 DUP1 SLOAD PUSH1 0xFF NOT AND SWAP1 SSTORE PUSH2 0xC9C DUP3 DUP3 PUSH2 0x18AC JUMP JUMPDEST POP POP PUSH1 0x97 DUP1 SLOAD PUSH1 0xFF NOT AND PUSH1 0x1 OR SWAP1 SSTORE JUMP JUMPDEST PUSH1 0xCA SLOAD SWAP1 JUMP JUMPDEST PUSH1 0x0 SWAP1 DUP2 MSTORE PUSH1 0xC9 PUSH1 0x20 MSTORE PUSH1 0x40 SWAP1 KECCAK256 SLOAD SWAP1 JUMP JUMPDEST PUSH1 0x97 SLOAD PUSH1 0xFF AND PUSH2 0xD0A JUMPI PUSH1 0x40 DUP1 MLOAD PUSH3 0x461BCD PUSH1 0xE5 SHL DUP2 MSTORE PUSH1 0x20 PUSH1 0x4 DUP3 ADD MSTORE PUSH1 0x1F PUSH1 0x24 DUP3 ADD MSTORE PUSH1 0x0 DUP1 MLOAD PUSH1 0x20 PUSH2 0x2495 DUP4 CODECOPY DUP2 MLOAD SWAP2 MSTORE PUSH1 0x44 DUP3 ADD MSTORE SWAP1 MLOAD SWAP1 DUP2 SWAP1 SUB PUSH1 0x64 ADD SWAP1 REVERT JUMPDEST PUSH1 0x97 DUP1 SLOAD PUSH1 0xFF NOT AND SWAP1 SSTORE PUSH1 0xCA DUP1 SLOAD PUSH1 0x0 SWAP2 SWAP1 DUP4 SWAP1 DUP2 LT PUSH2 0xD26 JUMPI INVALID JUMPDEST PUSH1 0x0 SWAP2 DUP3 MSTORE PUSH1 0x20 DUP1 DUP4 KECCAK256 DUP6 DUP5 MSTORE PUSH1 0xCB DUP3 MSTORE PUSH1 0x40 DUP1 DUP6 KECCAK256 CALLER DUP7 MSTORE SWAP1 SWAP3 MSTORE SWAP3 KECCAK256 DUP1 SLOAD PUSH1 0x7 SWAP3 SWAP1 SWAP3 MUL SWAP1 SWAP3 ADD PUSH1 0x5 DUP2 ADD SLOAD SWAP1 SWAP4 POP PUSH2 0xD61 SWAP1 DUP3 PUSH2 0x175A JUMP JUMPDEST PUSH1 0x5 DUP5 ADD SSTORE PUSH1 0x0 DUP1 DUP4 SSTORE PUSH1 0x1 DUP4 ADD SSTORE DUP3 SLOAD PUSH2 0xD86 SWAP1 PUSH1 0x1 PUSH1 0x1 PUSH1 0xA0 SHL SUB AND CALLER DUP4 PUSH2 0x179C JUMP JUMPDEST PUSH1 0x40 DUP1 MLOAD DUP3 DUP2 MSTORE PUSH1 0x20 DUP2 ADD DUP7 SWAP1 MSTORE DUP2 MLOAD CALLER SWAP3 PUSH32 0xBB757047C2B5F3974FE26B7C10F732E7BCE710B0952A71082702781E62AE0595 SWAP3 DUP3 SWAP1 SUB ADD SWAP1 LOG2 POP POP PUSH1 0x97 DUP1 SLOAD PUSH1 0xFF NOT AND PUSH1 0x1 OR SWAP1 SSTORE POP POP JUMP JUMPDEST PUSH1 0xCD SLOAD PUSH1 0x1 PUSH1 0x1 PUSH1 0xA0 SHL SUB AND DUP2 JUMP JUMPDEST PUSH1 0x97 SLOAD PUSH1 0xFF AND PUSH2 0xE27 JUMPI PUSH1 0x40 DUP1 MLOAD PUSH3 0x461BCD PUSH1 0xE5 SHL DUP2 MSTORE PUSH1 0x20 PUSH1 0x4 DUP3 ADD MSTORE PUSH1 0x1F PUSH1 0x24 DUP3 ADD MSTORE PUSH1 0x0 DUP1 MLOAD PUSH1 0x20 PUSH2 0x2495 DUP4 CODECOPY DUP2 MLOAD SWAP2 MSTORE PUSH1 0x44 DUP3 ADD MSTORE SWAP1 MLOAD SWAP1 DUP2 SWAP1 SUB PUSH1 0x64 ADD SWAP1 REVERT JUMPDEST PUSH1 0x97 DUP1 SLOAD PUSH1 0xFF NOT AND SWAP1 SSTORE PUSH1 0x0 JUMPDEST DUP2 DUP2 LT ISZERO PUSH2 0xE61 JUMPI PUSH2 0xE59 DUP4 DUP4 DUP4 DUP2 DUP2 LT PUSH2 0xE4B JUMPI INVALID JUMPDEST SWAP1 POP PUSH1 0x20 MUL ADD CALLDATALOAD PUSH1 0x0 PUSH2 0x18AC JUMP JUMPDEST PUSH1 0x1 ADD PUSH2 0xE34 JUMP JUMPDEST POP POP PUSH1 0x97 DUP1 SLOAD PUSH1 0xFF NOT AND PUSH1 0x1 OR SWAP1 SSTORE POP JUMP JUMPDEST PUSH2 0xE7B PUSH2 0x150A JUMP JUMPDEST PUSH1 0x65 SLOAD PUSH1 0x1 PUSH1 0x1 PUSH1 0xA0 SHL SUB SWAP1 DUP2 AND SWAP2 AND EQ PUSH2 0xECB JUMPI PUSH1 0x40 DUP1 MLOAD PUSH3 0x461BCD PUSH1 0xE5 SHL DUP2 MSTORE PUSH1 0x20 PUSH1 0x4 DUP3 ADD DUP2 SWAP1 MSTORE PUSH1 0x24 DUP3 ADD MSTORE PUSH1 0x0 DUP1 MLOAD PUSH1 0x20 PUSH2 0x24FC DUP4 CODECOPY DUP2 MLOAD SWAP2 MSTORE PUSH1 0x44 DUP3 ADD MSTORE SWAP1 MLOAD SWAP1 DUP2 SWAP1 SUB PUSH1 0x64 ADD SWAP1 REVERT JUMPDEST PUSH1 0xCD DUP1 SLOAD PUSH1 0x1 PUSH1 0x1 PUSH1 0xA0 SHL SUB DUP4 AND PUSH1 0x1 PUSH1 0x1 PUSH1 0xA0 SHL SUB NOT SWAP1 SWAP2 AND DUP2 OR SWAP1 SWAP2 SSTORE PUSH1 0x40 DUP1 MLOAD SWAP2 DUP3 MSTORE MLOAD PUSH32 0x860DA714D66641E1BB8025E657AA279EC5BBE56385E52A9EE03A12718E5600CB SWAP2 DUP2 SWAP1 SUB PUSH1 0x20 ADD SWAP1 LOG1 POP JUMP JUMPDEST PUSH2 0xF27 PUSH2 0x150A JUMP JUMPDEST PUSH1 0x65 SLOAD PUSH1 0x1 PUSH1 0x1 PUSH1 0xA0 SHL SUB SWAP1 DUP2 AND SWAP2 AND EQ PUSH2 0xF77 JUMPI PUSH1 0x40 DUP1 MLOAD PUSH3 0x461BCD PUSH1 0xE5 SHL DUP2 MSTORE PUSH1 0x20 PUSH1 0x4 DUP3 ADD DUP2 SWAP1 MSTORE PUSH1 0x24 DUP3 ADD MSTORE PUSH1 0x0 DUP1 MLOAD PUSH1 0x20 PUSH2 0x24FC DUP4 CODECOPY DUP2 MLOAD SWAP2 MSTORE PUSH1 0x44 DUP3 ADD MSTORE SWAP1 MLOAD SWAP1 DUP2 SWAP1 SUB PUSH1 0x64 ADD SWAP1 REVERT JUMPDEST PUSH1 0x65 SLOAD PUSH1 0x40 MLOAD PUSH1 0x0 SWAP2 PUSH1 0x1 PUSH1 0x1 PUSH1 0xA0 SHL SUB AND SWAP1 PUSH1 0x0 DUP1 MLOAD PUSH1 0x20 PUSH2 0x251C DUP4 CODECOPY DUP2 MLOAD SWAP2 MSTORE SWAP1 DUP4 SWAP1 LOG3 PUSH1 0x65 DUP1 SLOAD PUSH1 0x1 PUSH1 0x1 PUSH1 0xA0 SHL SUB NOT AND SWAP1 SSTORE JUMP JUMPDEST PUSH1 0x0 DUP2 DUP5 LT ISZERO DUP1 PUSH2 0xFBF JUMPI POP DUP3 DUP5 GT JUMPDEST ISZERO PUSH2 0xFCC JUMPI POP PUSH1 0x0 PUSH2 0xFF1 JUMP JUMPDEST DUP2 DUP4 GT PUSH2 0xFE4 JUMPI PUSH2 0xFDD DUP4 DUP6 PUSH2 0x175A JUMP JUMPDEST SWAP1 POP PUSH2 0xFF1 JUMP JUMPDEST PUSH2 0xFEE DUP3 DUP6 PUSH2 0x175A JUMP JUMPDEST SWAP1 POP JUMPDEST SWAP4 SWAP3 POP POP POP JUMP JUMPDEST PUSH1 0x0 PUSH2 0x1004 DUP3 NUMBER PUSH2 0x1A1B JUMP JUMPDEST SWAP3 SWAP2 POP POP JUMP JUMPDEST PUSH1 0x65 SLOAD PUSH1 0x1 PUSH1 0x1 PUSH1 0xA0 SHL SUB AND SWAP1 JUMP JUMPDEST PUSH1 0xCB PUSH1 0x20 SWAP1 DUP2 MSTORE PUSH1 0x0 SWAP3 DUP4 MSTORE PUSH1 0x40 DUP1 DUP5 KECCAK256 SWAP1 SWAP2 MSTORE SWAP1 DUP3 MSTORE SWAP1 KECCAK256 DUP1 SLOAD PUSH1 0x1 SWAP1 SWAP2 ADD SLOAD DUP3 JUMP JUMPDEST PUSH1 0x0 DUP3 DUP2 MSTORE PUSH1 0xCB PUSH1 0x20 SWAP1 DUP2 MSTORE PUSH1 0x40 DUP1 DUP4 KECCAK256 PUSH1 0x1 PUSH1 0x1 PUSH1 0xA0 SHL SUB DUP6 AND DUP5 MSTORE SWAP1 SWAP2 MSTORE DUP2 KECCAK256 DUP1 SLOAD PUSH1 0x1 SWAP1 SWAP2 ADD SLOAD PUSH2 0xFF1 SWAP2 DUP6 SWAP2 PUSH2 0x150E JUMP JUMPDEST PUSH1 0x0 PUSH2 0x1004 DUP3 NUMBER PUSH2 0x1B03 JUMP JUMPDEST PUSH1 0xCA DUP2 DUP2 SLOAD DUP2 LT PUSH2 0x108B JUMPI INVALID JUMPDEST PUSH1 0x0 SWAP2 DUP3 MSTORE PUSH1 0x20 SWAP1 SWAP2 KECCAK256 PUSH1 0x7 SWAP1 SWAP2 MUL ADD DUP1 SLOAD PUSH1 0x1 DUP3 ADD SLOAD PUSH1 0x2 DUP4 ADD SLOAD PUSH1 0x3 DUP5 ADD SLOAD PUSH1 0x4 DUP6 ADD SLOAD PUSH1 0x5 DUP7 ADD SLOAD PUSH1 0x6 SWAP1 SWAP7 ADD SLOAD PUSH1 0x1 PUSH1 0x1 PUSH1 0xA0 SHL SUB SWAP6 DUP7 AND SWAP8 POP SWAP5 SWAP1 SWAP4 AND SWAP5 SWAP2 SWAP4 SWAP1 SWAP3 SWAP2 SWAP1 DUP8 JUMP JUMPDEST PUSH1 0x0 SLOAD PUSH2 0x100 SWAP1 DIV PUSH1 0xFF AND DUP1 PUSH2 0x10F0 JUMPI POP PUSH2 0x10F0 PUSH2 0x1C05 JUMP JUMPDEST DUP1 PUSH2 0x10FE JUMPI POP PUSH1 0x0 SLOAD PUSH1 0xFF AND ISZERO JUMPDEST PUSH2 0x1139 JUMPI PUSH1 0x40 MLOAD PUSH3 0x461BCD PUSH1 0xE5 SHL DUP2 MSTORE PUSH1 0x4 ADD DUP1 DUP1 PUSH1 0x20 ADD DUP3 DUP2 SUB DUP3 MSTORE PUSH1 0x2E DUP2 MSTORE PUSH1 0x20 ADD DUP1 PUSH2 0x253C PUSH1 0x2E SWAP2 CODECOPY PUSH1 0x40 ADD SWAP2 POP POP PUSH1 0x40 MLOAD DUP1 SWAP2 SUB SWAP1 REVERT JUMPDEST PUSH1 0x0 SLOAD PUSH2 0x100 SWAP1 DIV PUSH1 0xFF AND ISZERO DUP1 ISZERO PUSH2 0x1164 JUMPI PUSH1 0x0 DUP1 SLOAD PUSH1 0xFF NOT PUSH2 0xFF00 NOT SWAP1 SWAP2 AND PUSH2 0x100 OR AND PUSH1 0x1 OR SWAP1 SSTORE JUMPDEST PUSH2 0x116C PUSH2 0x1C0B JUMP JUMPDEST PUSH2 0x1174 PUSH2 0x1CBD JUMP JUMPDEST PUSH1 0x34 PUSH1 0xCC SSTORE PUSH1 0xCD DUP1 SLOAD PUSH1 0x1 PUSH1 0x1 PUSH1 0xA0 SHL SUB NOT AND PUSH1 0x1 PUSH1 0x1 PUSH1 0xA0 SHL SUB DUP5 AND OR SWAP1 SSTORE DUP1 ISZERO PUSH2 0x11A6 JUMPI PUSH1 0x0 DUP1 SLOAD PUSH2 0xFF00 NOT AND SWAP1 SSTORE JUMPDEST POP POP JUMP JUMPDEST PUSH1 0x97 SLOAD PUSH1 0xFF AND PUSH2 0x11EF JUMPI PUSH1 0x40 DUP1 MLOAD PUSH3 0x461BCD PUSH1 0xE5 SHL DUP2 MSTORE PUSH1 0x20 PUSH1 0x4 DUP3 ADD MSTORE PUSH1 0x1F PUSH1 0x24 DUP3 ADD MSTORE PUSH1 0x0 DUP1 MLOAD PUSH1 0x20 PUSH2 0x2495 DUP4 CODECOPY DUP2 MLOAD SWAP2 MSTORE PUSH1 0x44 DUP3 ADD MSTORE SWAP1 MLOAD SWAP1 DUP2 SWAP1 SUB PUSH1 0x64 ADD SWAP1 REVERT JUMPDEST PUSH1 0x97 DUP1 SLOAD PUSH1 0xFF NOT AND SWAP1 SSTORE PUSH2 0x1202 DUP2 PUSH2 0x1D52 JUMP JUMPDEST POP PUSH1 0x97 DUP1 SLOAD PUSH1 0xFF NOT AND PUSH1 0x1 OR SWAP1 SSTORE JUMP JUMPDEST PUSH1 0x97 SLOAD PUSH1 0xFF AND PUSH2 0x1257 JUMPI PUSH1 0x40 DUP1 MLOAD PUSH3 0x461BCD PUSH1 0xE5 SHL DUP2 MSTORE PUSH1 0x20 PUSH1 0x4 DUP3 ADD MSTORE PUSH1 0x1F PUSH1 0x24 DUP3 ADD MSTORE PUSH1 0x0 DUP1 MLOAD PUSH1 0x20 PUSH2 0x2495 DUP4 CODECOPY DUP2 MLOAD SWAP2 MSTORE PUSH1 0x44 DUP3 ADD MSTORE SWAP1 MLOAD SWAP1 DUP2 SWAP1 SUB PUSH1 0x64 ADD SWAP1 REVERT JUMPDEST PUSH1 0x97 DUP1 SLOAD PUSH1 0xFF NOT AND SWAP1 SSTORE PUSH1 0xCA DUP1 SLOAD PUSH1 0x0 SWAP2 SWAP1 DUP5 SWAP1 DUP2 LT PUSH2 0x1273 JUMPI INVALID JUMPDEST PUSH1 0x0 SWAP2 DUP3 MSTORE PUSH1 0x20 DUP1 DUP4 KECCAK256 DUP7 DUP5 MSTORE PUSH1 0xCB DUP3 MSTORE PUSH1 0x40 DUP1 DUP6 KECCAK256 CALLER DUP7 MSTORE SWAP1 SWAP3 MSTORE SWAP3 KECCAK256 PUSH1 0x7 SWAP1 SWAP2 MUL SWAP1 SWAP2 ADD SWAP2 POP PUSH2 0x12A4 DUP5 PUSH2 0x1D52 JUMP JUMPDEST DUP1 SLOAD ISZERO PUSH2 0x1308 JUMPI PUSH1 0x0 PUSH2 0x12E5 DUP3 PUSH1 0x1 ADD SLOAD PUSH2 0x12DF PUSH5 0xE8D4A51000 PUSH2 0x12D9 DUP8 PUSH1 0x4 ADD SLOAD DUP8 PUSH1 0x0 ADD SLOAD PUSH2 0x17F3 SWAP1 SWAP2 SWAP1 PUSH4 0xFFFFFFFF AND JUMP JUMPDEST SWAP1 PUSH2 0x1EE1 JUMP JUMPDEST SWAP1 PUSH2 0x175A JUMP JUMPDEST SWAP1 POP DUP1 ISZERO PUSH2 0x1306 JUMPI PUSH1 0x1 DUP4 ADD SLOAD PUSH2 0x1306 SWAP1 PUSH1 0x1 PUSH1 0x1 PUSH1 0xA0 SHL SUB AND CALLER DUP4 PUSH2 0x179C JUMP JUMPDEST POP JUMPDEST DUP3 ISZERO PUSH2 0x1348 JUMPI DUP2 SLOAD PUSH2 0x1325 SWAP1 PUSH1 0x1 PUSH1 0x1 PUSH1 0xA0 SHL SUB AND CALLER ADDRESS DUP7 PUSH2 0x184C JUMP JUMPDEST DUP1 SLOAD PUSH2 0x1331 SWAP1 DUP5 PUSH2 0x1702 JUMP JUMPDEST DUP2 SSTORE PUSH1 0x5 DUP3 ADD SLOAD PUSH2 0x1342 SWAP1 DUP5 PUSH2 0x1702 JUMP JUMPDEST PUSH1 0x5 DUP4 ADD SSTORE JUMPDEST PUSH1 0x4 DUP3 ADD SLOAD DUP2 SLOAD PUSH2 0x1363 SWAP2 PUSH5 0xE8D4A51000 SWAP2 PUSH2 0x12D9 SWAP2 PUSH2 0x17F3 JUMP JUMPDEST PUSH1 0x1 DUP3 ADD SSTORE PUSH1 0x40 DUP1 MLOAD DUP5 DUP2 MSTORE PUSH1 0x20 DUP2 ADD DUP7 SWAP1 MSTORE DUP2 MLOAD CALLER SWAP3 PUSH32 0x90890809C654F11D6E72A28FA60149770A0D11EC6C92319D6CEB2BB0A4EA1A15 SWAP3 DUP3 SWAP1 SUB ADD SWAP1 LOG2 POP POP PUSH1 0x97 DUP1 SLOAD PUSH1 0xFF NOT AND PUSH1 0x1 OR SWAP1 SSTORE POP POP JUMP JUMPDEST PUSH1 0x97 SLOAD PUSH1 0xFF AND PUSH2 0x13FA JUMPI PUSH1 0x40 DUP1 MLOAD PUSH3 0x461BCD PUSH1 0xE5 SHL DUP2 MSTORE PUSH1 0x20 PUSH1 0x4 DUP3 ADD MSTORE PUSH1 0x1F PUSH1 0x24 DUP3 ADD MSTORE PUSH1 0x0 DUP1 MLOAD PUSH1 0x20 PUSH2 0x2495 DUP4 CODECOPY DUP2 MLOAD SWAP2 MSTORE PUSH1 0x44 DUP3 ADD MSTORE SWAP1 MLOAD SWAP1 DUP2 SWAP1 SUB PUSH1 0x64 ADD SWAP1 REVERT JUMPDEST PUSH1 0x97 DUP1 SLOAD PUSH1 0xFF NOT AND SWAP1 SSTORE PUSH1 0xCA SLOAD PUSH1 0x0 JUMPDEST DUP2 DUP2 LT ISZERO PUSH2 0xC9C JUMPI PUSH2 0x141B DUP2 PUSH2 0x1D52 JUMP JUMPDEST PUSH1 0x1 ADD PUSH2 0x140A JUMP JUMPDEST PUSH2 0x142B PUSH2 0x150A JUMP JUMPDEST PUSH1 0x65 SLOAD PUSH1 0x1 PUSH1 0x1 PUSH1 0xA0 SHL SUB SWAP1 DUP2 AND SWAP2 AND EQ PUSH2 0x147B JUMPI PUSH1 0x40 DUP1 MLOAD PUSH3 0x461BCD PUSH1 0xE5 SHL DUP2 MSTORE PUSH1 0x20 PUSH1 0x4 DUP3 ADD DUP2 SWAP1 MSTORE PUSH1 0x24 DUP3 ADD MSTORE PUSH1 0x0 DUP1 MLOAD PUSH1 0x20 PUSH2 0x24FC DUP4 CODECOPY DUP2 MLOAD SWAP2 MSTORE PUSH1 0x44 DUP3 ADD MSTORE SWAP1 MLOAD SWAP1 DUP2 SWAP1 SUB PUSH1 0x64 ADD SWAP1 REVERT JUMPDEST PUSH1 0x1 PUSH1 0x1 PUSH1 0xA0 SHL SUB DUP2 AND PUSH2 0x14C0 JUMPI PUSH1 0x40 MLOAD PUSH3 0x461BCD PUSH1 0xE5 SHL DUP2 MSTORE PUSH1 0x4 ADD DUP1 DUP1 PUSH1 0x20 ADD DUP3 DUP2 SUB DUP3 MSTORE PUSH1 0x26 DUP2 MSTORE PUSH1 0x20 ADD DUP1 PUSH2 0x24B5 PUSH1 0x26 SWAP2 CODECOPY PUSH1 0x40 ADD SWAP2 POP POP PUSH1 0x40 MLOAD DUP1 SWAP2 SUB SWAP1 REVERT JUMPDEST PUSH1 0x65 SLOAD PUSH1 0x40 MLOAD PUSH1 0x1 PUSH1 0x1 PUSH1 0xA0 SHL SUB DUP1 DUP5 AND SWAP3 AND SWAP1 PUSH1 0x0 DUP1 MLOAD PUSH1 0x20 PUSH2 0x251C DUP4 CODECOPY DUP2 MLOAD SWAP2 MSTORE SWAP1 PUSH1 0x0 SWAP1 LOG3 PUSH1 0x65 DUP1 SLOAD PUSH1 0x1 PUSH1 0x1 PUSH1 0xA0 SHL SUB NOT AND PUSH1 0x1 PUSH1 0x1 PUSH1 0xA0 SHL SUB SWAP3 SWAP1 SWAP3 AND SWAP2 SWAP1 SWAP2 OR SWAP1 SSTORE JUMP JUMPDEST CALLER SWAP1 JUMP JUMPDEST PUSH1 0x0 PUSH2 0x1518 PUSH2 0x2445 JUMP JUMPDEST PUSH1 0xCA DUP6 DUP2 SLOAD DUP2 LT PUSH2 0x1525 JUMPI INVALID JUMPDEST PUSH1 0x0 SWAP2 DUP3 MSTORE PUSH1 0x20 DUP1 DUP4 KECCAK256 PUSH1 0x40 DUP1 MLOAD PUSH1 0xE0 DUP2 ADD DUP3 MSTORE PUSH1 0x7 SWAP1 SWAP5 MUL SWAP1 SWAP2 ADD DUP1 SLOAD PUSH1 0x1 PUSH1 0x1 PUSH1 0xA0 SHL SUB SWAP1 DUP2 AND DUP6 MSTORE PUSH1 0x1 DUP3 ADD SLOAD AND DUP5 DUP5 ADD MSTORE PUSH1 0x2 DUP2 ADD SLOAD DUP5 DUP4 ADD MSTORE PUSH1 0x3 DUP2 ADD SLOAD PUSH1 0x60 DUP1 DUP7 ADD SWAP2 SWAP1 SWAP2 MSTORE PUSH1 0x4 DUP3 ADD SLOAD PUSH1 0x80 DUP7 ADD MSTORE PUSH1 0x5 DUP3 ADD SLOAD PUSH1 0xA0 DUP7 ADD MSTORE PUSH1 0x6 SWAP1 SWAP2 ADD SLOAD PUSH1 0xC0 DUP6 ADD MSTORE DUP10 DUP6 MSTORE PUSH1 0xC9 DUP4 MSTORE DUP2 DUP6 KECCAK256 DUP1 SLOAD DUP4 MLOAD DUP2 DUP7 MUL DUP2 ADD DUP7 ADD SWAP1 SWAP5 MSTORE DUP1 DUP5 MSTORE SWAP5 SWAP7 POP SWAP1 SWAP5 SWAP2 SWAP4 SWAP1 SWAP3 SWAP1 SWAP2 SWAP1 DUP5 ADD JUMPDEST DUP3 DUP3 LT ISZERO PUSH2 0x1600 JUMPI DUP4 DUP3 SWAP1 PUSH1 0x0 MSTORE PUSH1 0x20 PUSH1 0x0 KECCAK256 SWAP1 PUSH1 0x2 MUL ADD PUSH1 0x40 MLOAD DUP1 PUSH1 0x40 ADD PUSH1 0x40 MSTORE SWAP1 DUP2 PUSH1 0x0 DUP3 ADD SLOAD DUP2 MSTORE PUSH1 0x20 ADD PUSH1 0x1 DUP3 ADD SLOAD DUP2 MSTORE POP POP DUP2 MSTORE PUSH1 0x20 ADD SWAP1 PUSH1 0x1 ADD SWAP1 PUSH2 0x15BA JUMP JUMPDEST POP POP POP POP SWAP1 POP PUSH1 0x0 DUP3 PUSH1 0x80 ADD MLOAD SWAP1 POP DUP3 PUSH1 0x60 ADD MLOAD NUMBER GT DUP1 ISZERO PUSH2 0x1625 JUMPI POP PUSH1 0xA0 DUP4 ADD MLOAD ISZERO ISZERO JUMPDEST ISZERO PUSH2 0x16E0 JUMPI PUSH1 0x60 DUP4 ADD MLOAD PUSH1 0x0 JUMPDEST DUP4 MLOAD DUP2 LT ISZERO PUSH2 0x16DD JUMPI PUSH1 0x0 PUSH2 0x165F DUP4 NUMBER DUP8 DUP6 DUP2 MLOAD DUP2 LT PUSH2 0x164E JUMPI INVALID JUMPDEST PUSH1 0x20 MUL PUSH1 0x20 ADD ADD MLOAD PUSH1 0x0 ADD MLOAD PUSH2 0xFAF JUMP JUMPDEST SWAP1 POP DUP1 PUSH2 0x166C JUMPI POP PUSH2 0x16D5 JUMP JUMPDEST DUP5 DUP3 DUP2 MLOAD DUP2 LT PUSH2 0x1678 JUMPI INVALID JUMPDEST PUSH1 0x20 MUL PUSH1 0x20 ADD ADD MLOAD PUSH1 0x0 ADD MLOAD SWAP3 POP PUSH2 0x16D1 PUSH2 0x16CA DUP8 PUSH1 0xA0 ADD MLOAD PUSH2 0x12D9 PUSH5 0xE8D4A51000 PUSH2 0x16C4 DUP11 DUP9 DUP2 MLOAD DUP2 LT PUSH2 0x16A9 JUMPI INVALID JUMPDEST PUSH1 0x20 MUL PUSH1 0x20 ADD ADD MLOAD PUSH1 0x20 ADD MLOAD DUP8 PUSH2 0x17F3 SWAP1 SWAP2 SWAP1 PUSH4 0xFFFFFFFF AND JUMP JUMPDEST SWAP1 PUSH2 0x17F3 JUMP JUMPDEST DUP6 SWAP1 PUSH2 0x1702 JUMP JUMPDEST SWAP4 POP POP JUMPDEST PUSH1 0x1 ADD PUSH2 0x1632 JUMP JUMPDEST POP POP JUMPDEST PUSH2 0x16F7 DUP6 PUSH2 0x12DF PUSH5 0xE8D4A51000 PUSH2 0x12D9 DUP11 DUP7 PUSH2 0x17F3 JUMP JUMPDEST SWAP8 SWAP7 POP POP POP POP POP POP POP JUMP JUMPDEST PUSH1 0x0 DUP3 DUP3 ADD DUP4 DUP2 LT ISZERO PUSH2 0xFF1 JUMPI PUSH1 0x40 DUP1 MLOAD PUSH3 0x461BCD PUSH1 0xE5 SHL DUP2 MSTORE PUSH1 0x20 PUSH1 0x4 DUP3 ADD MSTORE PUSH1 0x1B PUSH1 0x24 DUP3 ADD MSTORE PUSH27 0x536166654D6174683A206164646974696F6E206F766572666C6F77 PUSH1 0x28 SHL PUSH1 0x44 DUP3 ADD MSTORE SWAP1 MLOAD SWAP1 DUP2 SWAP1 SUB PUSH1 0x64 ADD SWAP1 REVERT JUMPDEST PUSH1 0x0 PUSH2 0xFF1 DUP4 DUP4 PUSH1 0x40 MLOAD DUP1 PUSH1 0x40 ADD PUSH1 0x40 MSTORE DUP1 PUSH1 0x1E DUP2 MSTORE PUSH1 0x20 ADD PUSH32 0x536166654D6174683A207375627472616374696F6E206F766572666C6F770000 DUP2 MSTORE POP PUSH2 0x1F20 JUMP JUMPDEST PUSH1 0x40 DUP1 MLOAD PUSH1 0x1 PUSH1 0x1 PUSH1 0xA0 SHL SUB DUP5 AND PUSH1 0x24 DUP3 ADD MSTORE PUSH1 0x44 DUP1 DUP3 ADD DUP5 SWAP1 MSTORE DUP3 MLOAD DUP1 DUP4 SUB SWAP1 SWAP2 ADD DUP2 MSTORE PUSH1 0x64 SWAP1 SWAP2 ADD SWAP1 SWAP2 MSTORE PUSH1 0x20 DUP2 ADD DUP1 MLOAD PUSH1 0x1 PUSH1 0x1 PUSH1 0xE0 SHL SUB AND PUSH4 0xA9059CBB PUSH1 0xE0 SHL OR SWAP1 MSTORE PUSH2 0x17EE SWAP1 DUP5 SWAP1 PUSH2 0x1FB7 JUMP JUMPDEST POP POP POP JUMP JUMPDEST PUSH1 0x0 DUP3 PUSH2 0x1802 JUMPI POP PUSH1 0x0 PUSH2 0x1004 JUMP JUMPDEST DUP3 DUP3 MUL DUP3 DUP5 DUP3 DUP2 PUSH2 0x180F JUMPI INVALID JUMPDEST DIV EQ PUSH2 0xFF1 JUMPI PUSH1 0x40 MLOAD PUSH3 0x461BCD PUSH1 0xE5 SHL DUP2 MSTORE PUSH1 0x4 ADD DUP1 DUP1 PUSH1 0x20 ADD DUP3 DUP2 SUB DUP3 MSTORE PUSH1 0x21 DUP2 MSTORE PUSH1 0x20 ADD DUP1 PUSH2 0x24DB PUSH1 0x21 SWAP2 CODECOPY PUSH1 0x40 ADD SWAP2 POP POP PUSH1 0x40 MLOAD DUP1 SWAP2 SUB SWAP1 REVERT JUMPDEST PUSH1 0x40 DUP1 MLOAD PUSH1 0x1 PUSH1 0x1 PUSH1 0xA0 SHL SUB DUP1 DUP7 AND PUSH1 0x24 DUP4 ADD MSTORE DUP5 AND PUSH1 0x44 DUP3 ADD MSTORE PUSH1 0x64 DUP1 DUP3 ADD DUP5 SWAP1 MSTORE DUP3 MLOAD DUP1 DUP4 SUB SWAP1 SWAP2 ADD DUP2 MSTORE PUSH1 0x84 SWAP1 SWAP2 ADD SWAP1 SWAP2 MSTORE PUSH1 0x20 DUP2 ADD DUP1 MLOAD PUSH1 0x1 PUSH1 0x1 PUSH1 0xE0 SHL SUB AND PUSH4 0x23B872DD PUSH1 0xE0 SHL OR SWAP1 MSTORE PUSH2 0x18A6 SWAP1 DUP6 SWAP1 PUSH2 0x1FB7 JUMP JUMPDEST POP POP POP POP JUMP JUMPDEST PUSH1 0x0 PUSH1 0xCA DUP4 DUP2 SLOAD DUP2 LT PUSH2 0x18BB JUMPI INVALID JUMPDEST PUSH1 0x0 SWAP2 DUP3 MSTORE PUSH1 0x20 DUP1 DUP4 KECCAK256 DUP7 DUP5 MSTORE PUSH1 0xCB DUP3 MSTORE PUSH1 0x40 DUP1 DUP6 KECCAK256 CALLER DUP7 MSTORE SWAP1 SWAP3 MSTORE SWAP3 KECCAK256 DUP1 SLOAD PUSH1 0x7 SWAP1 SWAP3 MUL SWAP1 SWAP3 ADD SWAP3 POP DUP4 GT ISZERO PUSH2 0x1923 JUMPI PUSH1 0x40 MLOAD PUSH3 0x461BCD PUSH1 0xE5 SHL DUP2 MSTORE PUSH1 0x4 ADD DUP1 DUP1 PUSH1 0x20 ADD DUP3 DUP2 SUB DUP3 MSTORE PUSH1 0x2B DUP2 MSTORE PUSH1 0x20 ADD DUP1 PUSH2 0x256A PUSH1 0x2B SWAP2 CODECOPY PUSH1 0x40 ADD SWAP2 POP POP PUSH1 0x40 MLOAD DUP1 SWAP2 SUB SWAP1 REVERT JUMPDEST PUSH2 0x192C DUP5 PUSH2 0x1D52 JUMP JUMPDEST PUSH1 0x0 PUSH2 0x195A DUP3 PUSH1 0x1 ADD SLOAD PUSH2 0x12DF PUSH5 0xE8D4A51000 PUSH2 0x12D9 DUP8 PUSH1 0x4 ADD SLOAD DUP8 PUSH1 0x0 ADD SLOAD PUSH2 0x17F3 SWAP1 SWAP2 SWAP1 PUSH4 0xFFFFFFFF AND JUMP JUMPDEST SWAP1 POP DUP1 ISZERO PUSH2 0x197B JUMPI PUSH1 0x1 DUP4 ADD SLOAD PUSH2 0x197B SWAP1 PUSH1 0x1 PUSH1 0x1 PUSH1 0xA0 SHL SUB AND CALLER DUP4 PUSH2 0x179C JUMP JUMPDEST DUP4 ISZERO PUSH2 0x19BA JUMPI DUP2 SLOAD PUSH2 0x198D SWAP1 DUP6 PUSH2 0x175A JUMP JUMPDEST DUP3 SSTORE DUP3 SLOAD PUSH2 0x19A5 SWAP1 PUSH1 0x1 PUSH1 0x1 PUSH1 0xA0 SHL SUB AND CALLER DUP7 PUSH2 0x179C JUMP JUMPDEST PUSH1 0x5 DUP4 ADD SLOAD PUSH2 0x19B4 SWAP1 DUP6 PUSH2 0x175A JUMP JUMPDEST PUSH1 0x5 DUP5 ADD SSTORE JUMPDEST PUSH1 0x4 DUP4 ADD SLOAD DUP3 SLOAD PUSH2 0x19D5 SWAP2 PUSH5 0xE8D4A51000 SWAP2 PUSH2 0x12D9 SWAP2 PUSH2 0x17F3 JUMP JUMPDEST PUSH1 0x1 DUP4 ADD SSTORE PUSH1 0x40 DUP1 MLOAD DUP6 DUP2 MSTORE PUSH1 0x20 DUP2 ADD DUP8 SWAP1 MSTORE DUP2 MLOAD CALLER SWAP3 PUSH32 0xF279E6A1F5E320CCA91135676D9CB6E44CA8A08C0B88342BCDB1144F6511B568 SWAP3 DUP3 SWAP1 SUB ADD SWAP1 LOG2 POP POP POP POP POP JUMP JUMPDEST PUSH1 0x0 DUP3 DUP2 MSTORE PUSH1 0xC9 PUSH1 0x20 SWAP1 DUP2 MSTORE PUSH1 0x40 DUP1 DUP4 KECCAK256 DUP1 SLOAD DUP3 MLOAD DUP2 DUP6 MUL DUP2 ADD DUP6 ADD SWAP1 SWAP4 MSTORE DUP1 DUP4 MSTORE PUSH1 0x60 SWAP4 DUP6 SWAP1 DUP5 ADD JUMPDEST DUP3 DUP3 LT ISZERO PUSH2 0x1A8B JUMPI DUP4 DUP3 SWAP1 PUSH1 0x0 MSTORE PUSH1 0x20 PUSH1 0x0 KECCAK256 SWAP1 PUSH1 0x2 MUL ADD PUSH1 0x40 MLOAD DUP1 PUSH1 0x40 ADD PUSH1 0x40 MSTORE SWAP1 DUP2 PUSH1 0x0 DUP3 ADD SLOAD DUP2 MSTORE PUSH1 0x20 ADD PUSH1 0x1 DUP3 ADD SLOAD DUP2 MSTORE POP POP DUP2 MSTORE PUSH1 0x20 ADD SWAP1 PUSH1 0x1 ADD SWAP1 PUSH2 0x1A45 JUMP JUMPDEST POP POP DUP3 MLOAD SWAP3 SWAP4 POP POP POP DUP1 PUSH2 0x1AA4 JUMPI PUSH1 0x0 SWAP3 POP POP POP PUSH2 0x1004 JUMP JUMPDEST PUSH1 0x0 JUMPDEST DUP2 DUP2 LT ISZERO PUSH2 0x1AF7 JUMPI DUP3 DUP2 DUP2 MLOAD DUP2 LT PUSH2 0x1ABB JUMPI INVALID JUMPDEST PUSH1 0x20 MUL PUSH1 0x20 ADD ADD MLOAD PUSH1 0x0 ADD MLOAD DUP6 GT PUSH2 0x1AEF JUMPI DUP3 DUP2 DUP2 MLOAD DUP2 LT PUSH2 0x1AD9 JUMPI INVALID JUMPDEST PUSH1 0x20 MUL PUSH1 0x20 ADD ADD MLOAD PUSH1 0x20 ADD MLOAD SWAP4 POP POP POP POP PUSH2 0x1004 JUMP JUMPDEST PUSH1 0x1 ADD PUSH2 0x1AA7 JUMP JUMPDEST POP PUSH1 0x0 SWAP6 SWAP5 POP POP POP POP POP JUMP JUMPDEST PUSH1 0x0 DUP3 DUP2 MSTORE PUSH1 0xC9 PUSH1 0x20 SWAP1 DUP2 MSTORE PUSH1 0x40 DUP1 DUP4 KECCAK256 DUP1 SLOAD DUP3 MLOAD DUP2 DUP6 MUL DUP2 ADD DUP6 ADD SWAP1 SWAP4 MSTORE DUP1 DUP4 MSTORE PUSH1 0x60 SWAP4 DUP6 SWAP1 DUP5 ADD JUMPDEST DUP3 DUP3 LT ISZERO PUSH2 0x1B73 JUMPI DUP4 DUP3 SWAP1 PUSH1 0x0 MSTORE PUSH1 0x20 PUSH1 0x0 KECCAK256 SWAP1 PUSH1 0x2 MUL ADD PUSH1 0x40 MLOAD DUP1 PUSH1 0x40 ADD PUSH1 0x40 MSTORE SWAP1 DUP2 PUSH1 0x0 DUP3 ADD SLOAD DUP2 MSTORE PUSH1 0x20 ADD PUSH1 0x1 DUP3 ADD SLOAD DUP2 MSTORE POP POP DUP2 MSTORE PUSH1 0x20 ADD SWAP1 PUSH1 0x1 ADD SWAP1 PUSH2 0x1B2D JUMP JUMPDEST POP POP DUP3 MLOAD SWAP3 SWAP4 POP POP POP DUP1 PUSH2 0x1B8C JUMPI PUSH1 0x0 SWAP3 POP POP POP PUSH2 0x1004 JUMP JUMPDEST PUSH1 0x0 JUMPDEST DUP2 DUP2 LT ISZERO PUSH2 0x1BDF JUMPI DUP3 DUP2 DUP2 MLOAD DUP2 LT PUSH2 0x1BA3 JUMPI INVALID JUMPDEST PUSH1 0x20 MUL PUSH1 0x20 ADD ADD MLOAD PUSH1 0x0 ADD MLOAD DUP6 GT PUSH2 0x1BD7 JUMPI DUP3 DUP2 DUP2 MLOAD DUP2 LT PUSH2 0x1BC1 JUMPI INVALID JUMPDEST PUSH1 0x20 MUL PUSH1 0x20 ADD ADD MLOAD PUSH1 0x0 ADD MLOAD SWAP4 POP POP POP POP PUSH2 0x1004 JUMP JUMPDEST PUSH1 0x1 ADD PUSH2 0x1B8F JUMP JUMPDEST POP DUP2 PUSH1 0x1 DUP3 SUB DUP2 MLOAD DUP2 LT PUSH2 0x1BEF JUMPI INVALID JUMPDEST PUSH1 0x20 MUL PUSH1 0x20 ADD ADD MLOAD PUSH1 0x0 ADD MLOAD SWAP3 POP POP POP SWAP3 SWAP2 POP POP JUMP JUMPDEST ADDRESS EXTCODESIZE ISZERO SWAP1 JUMP JUMPDEST PUSH1 0x0 SLOAD PUSH2 0x100 SWAP1 DIV PUSH1 0xFF AND DUP1 PUSH2 0x1C24 JUMPI POP PUSH2 0x1C24 PUSH2 0x1C05 JUMP JUMPDEST DUP1 PUSH2 0x1C32 JUMPI POP PUSH1 0x0 SLOAD PUSH1 0xFF AND ISZERO JUMPDEST PUSH2 0x1C6D JUMPI PUSH1 0x40 MLOAD PUSH3 0x461BCD PUSH1 0xE5 SHL DUP2 MSTORE PUSH1 0x4 ADD DUP1 DUP1 PUSH1 0x20 ADD DUP3 DUP2 SUB DUP3 MSTORE PUSH1 0x2E DUP2 MSTORE PUSH1 0x20 ADD DUP1 PUSH2 0x253C PUSH1 0x2E SWAP2 CODECOPY PUSH1 0x40 ADD SWAP2 POP POP PUSH1 0x40 MLOAD DUP1 SWAP2 SUB SWAP1 REVERT JUMPDEST PUSH1 0x0 SLOAD PUSH2 0x100 SWAP1 DIV PUSH1 0xFF AND ISZERO DUP1 ISZERO PUSH2 0x1C98 JUMPI PUSH1 0x0 DUP1 SLOAD PUSH1 0xFF NOT PUSH2 0xFF00 NOT SWAP1 SWAP2 AND PUSH2 0x100 OR AND PUSH1 0x1 OR SWAP1 SSTORE JUMPDEST PUSH2 0x1CA0 PUSH2 0x216F JUMP JUMPDEST PUSH2 0x1CA8 PUSH2 0x220F JUMP JUMPDEST DUP1 ISZERO PUSH2 0x1CBA JUMPI PUSH1 0x0 DUP1 SLOAD PUSH2 0xFF00 NOT AND SWAP1 SSTORE JUMPDEST POP JUMP JUMPDEST PUSH1 0x0 SLOAD PUSH2 0x100 SWAP1 DIV PUSH1 0xFF AND DUP1 PUSH2 0x1CD6 JUMPI POP PUSH2 0x1CD6 PUSH2 0x1C05 JUMP JUMPDEST DUP1 PUSH2 0x1CE4 JUMPI POP PUSH1 0x0 SLOAD PUSH1 0xFF AND ISZERO JUMPDEST PUSH2 0x1D1F JUMPI PUSH1 0x40 MLOAD PUSH3 0x461BCD PUSH1 0xE5 SHL DUP2 MSTORE PUSH1 0x4 ADD DUP1 DUP1 PUSH1 0x20 ADD DUP3 DUP2 SUB DUP3 MSTORE PUSH1 0x2E DUP2 MSTORE PUSH1 0x20 ADD DUP1 PUSH2 0x253C PUSH1 0x2E SWAP2 CODECOPY PUSH1 0x40 ADD SWAP2 POP POP PUSH1 0x40 MLOAD DUP1 SWAP2 SUB SWAP1 REVERT JUMPDEST PUSH1 0x0 SLOAD PUSH2 0x100 SWAP1 DIV PUSH1 0xFF AND ISZERO DUP1 ISZERO PUSH2 0x1D4A JUMPI PUSH1 0x0 DUP1 SLOAD PUSH1 0xFF NOT PUSH2 0xFF00 NOT SWAP1 SWAP2 AND PUSH2 0x100 OR AND PUSH1 0x1 OR SWAP1 SSTORE JUMPDEST PUSH2 0x1CA8 PUSH2 0x22F6 JUMP JUMPDEST PUSH1 0x0 PUSH1 0xCA DUP3 DUP2 SLOAD DUP2 LT PUSH2 0x1D61 JUMPI INVALID JUMPDEST SWAP1 PUSH1 0x0 MSTORE PUSH1 0x20 PUSH1 0x0 KECCAK256 SWAP1 PUSH1 0x7 MUL ADD SWAP1 POP PUSH1 0x60 PUSH1 0xC9 PUSH1 0x0 DUP5 DUP2 MSTORE PUSH1 0x20 ADD SWAP1 DUP2 MSTORE PUSH1 0x20 ADD PUSH1 0x0 KECCAK256 DUP1 SLOAD DUP1 PUSH1 0x20 MUL PUSH1 0x20 ADD PUSH1 0x40 MLOAD SWAP1 DUP2 ADD PUSH1 0x40 MSTORE DUP1 SWAP3 SWAP2 SWAP1 DUP2 DUP2 MSTORE PUSH1 0x20 ADD PUSH1 0x0 SWAP1 JUMPDEST DUP3 DUP3 LT ISZERO PUSH2 0x1DEC JUMPI DUP4 DUP3 SWAP1 PUSH1 0x0 MSTORE PUSH1 0x20 PUSH1 0x0 KECCAK256 SWAP1 PUSH1 0x2 MUL ADD PUSH1 0x40 MLOAD DUP1 PUSH1 0x40 ADD PUSH1 0x40 MSTORE SWAP1 DUP2 PUSH1 0x0 DUP3 ADD SLOAD DUP2 MSTORE PUSH1 0x20 ADD PUSH1 0x1 DUP3 ADD SLOAD DUP2 MSTORE POP POP DUP2 MSTORE PUSH1 0x20 ADD SWAP1 PUSH1 0x1 ADD SWAP1 PUSH2 0x1DA6 JUMP JUMPDEST POP POP POP POP SWAP1 POP DUP2 PUSH1 0x3 ADD SLOAD NUMBER GT PUSH2 0x1E04 JUMPI POP POP PUSH2 0x1CBA JUMP JUMPDEST PUSH1 0x5 DUP3 ADD SLOAD PUSH2 0x1E2C JUMPI PUSH2 0x1E17 DUP4 NUMBER PUSH2 0x1B03 JUMP JUMPDEST NUMBER GT ISZERO PUSH2 0x1E25 JUMPI NUMBER PUSH1 0x3 DUP4 ADD SSTORE JUMPDEST POP POP PUSH2 0x1CBA JUMP JUMPDEST PUSH1 0x0 JUMPDEST DUP2 MLOAD DUP2 LT ISZERO PUSH2 0x18A6 JUMPI PUSH1 0x0 PUSH2 0x1E4F DUP5 PUSH1 0x3 ADD SLOAD NUMBER DUP6 DUP6 DUP2 MLOAD DUP2 LT PUSH2 0x164E JUMPI INVALID JUMPDEST SWAP1 POP DUP1 PUSH2 0x1E5C JUMPI POP PUSH2 0x1ED9 JUMP JUMPDEST DUP3 DUP3 DUP2 MLOAD DUP2 LT PUSH2 0x1E68 JUMPI INVALID JUMPDEST PUSH1 0x20 MUL PUSH1 0x20 ADD ADD MLOAD PUSH1 0x0 ADD MLOAD NUMBER GT ISZERO PUSH2 0x1E9D JUMPI DUP3 DUP3 DUP2 MLOAD DUP2 LT PUSH2 0x1E87 JUMPI INVALID JUMPDEST PUSH1 0x20 SWAP1 DUP2 MUL SWAP2 SWAP1 SWAP2 ADD ADD MLOAD MLOAD PUSH1 0x3 DUP6 ADD SSTORE PUSH2 0x1EA4 JUMP JUMPDEST NUMBER PUSH1 0x3 DUP6 ADD SSTORE JUMPDEST PUSH2 0x1ED2 PUSH2 0x1EC7 DUP6 PUSH1 0x5 ADD SLOAD PUSH2 0x12D9 PUSH5 0xE8D4A51000 PUSH2 0x16C4 DUP9 DUP9 DUP2 MLOAD DUP2 LT PUSH2 0x16A9 JUMPI INVALID JUMPDEST PUSH1 0x4 DUP7 ADD SLOAD SWAP1 PUSH2 0x1702 JUMP JUMPDEST PUSH1 0x4 DUP6 ADD SSTORE POP JUMPDEST PUSH1 0x1 ADD PUSH2 0x1E2F JUMP JUMPDEST PUSH1 0x0 PUSH2 0xFF1 DUP4 DUP4 PUSH1 0x40 MLOAD DUP1 PUSH1 0x40 ADD PUSH1 0x40 MSTORE DUP1 PUSH1 0x1A DUP2 MSTORE PUSH1 0x20 ADD PUSH26 0x536166654D6174683A206469766973696F6E206279207A65726F PUSH1 0x30 SHL DUP2 MSTORE POP PUSH2 0x23A4 JUMP JUMPDEST PUSH1 0x0 DUP2 DUP5 DUP5 GT ISZERO PUSH2 0x1FAF JUMPI PUSH1 0x40 MLOAD PUSH3 0x461BCD PUSH1 0xE5 SHL DUP2 MSTORE PUSH1 0x4 ADD DUP1 DUP1 PUSH1 0x20 ADD DUP3 DUP2 SUB DUP3 MSTORE DUP4 DUP2 DUP2 MLOAD DUP2 MSTORE PUSH1 0x20 ADD SWAP2 POP DUP1 MLOAD SWAP1 PUSH1 0x20 ADD SWAP1 DUP1 DUP4 DUP4 PUSH1 0x0 JUMPDEST DUP4 DUP2 LT ISZERO PUSH2 0x1F74 JUMPI DUP2 DUP2 ADD MLOAD DUP4 DUP3 ADD MSTORE PUSH1 0x20 ADD PUSH2 0x1F5C JUMP JUMPDEST POP POP POP POP SWAP1 POP SWAP1 DUP2 ADD SWAP1 PUSH1 0x1F AND DUP1 ISZERO PUSH2 0x1FA1 JUMPI DUP1 DUP3 SUB DUP1 MLOAD PUSH1 0x1 DUP4 PUSH1 0x20 SUB PUSH2 0x100 EXP SUB NOT AND DUP2 MSTORE PUSH1 0x20 ADD SWAP2 POP JUMPDEST POP SWAP3 POP POP POP PUSH1 0x40 MLOAD DUP1 SWAP2 SUB SWAP1 REVERT JUMPDEST POP POP POP SWAP1 SUB SWAP1 JUMP JUMPDEST PUSH2 0x1FC9 DUP3 PUSH1 0x1 PUSH1 0x1 PUSH1 0xA0 SHL SUB AND PUSH2 0x2409 JUMP JUMPDEST PUSH2 0x201A JUMPI PUSH1 0x40 DUP1 MLOAD PUSH3 0x461BCD PUSH1 0xE5 SHL DUP2 MSTORE PUSH1 0x20 PUSH1 0x4 DUP3 ADD MSTORE PUSH1 0x1F PUSH1 0x24 DUP3 ADD MSTORE PUSH32 0x5361666545524332303A2063616C6C20746F206E6F6E2D636F6E747261637400 PUSH1 0x44 DUP3 ADD MSTORE SWAP1 MLOAD SWAP1 DUP2 SWAP1 SUB PUSH1 0x64 ADD SWAP1 REVERT JUMPDEST PUSH1 0x0 PUSH1 0x60 DUP4 PUSH1 0x1 PUSH1 0x1 PUSH1 0xA0 SHL SUB AND DUP4 PUSH1 0x40 MLOAD DUP1 DUP3 DUP1 MLOAD SWAP1 PUSH1 0x20 ADD SWAP1 DUP1 DUP4 DUP4 JUMPDEST PUSH1 0x20 DUP4 LT PUSH2 0x2058 JUMPI DUP1 MLOAD DUP3 MSTORE PUSH1 0x1F NOT SWAP1 SWAP3 ADD SWAP2 PUSH1 0x20 SWAP2 DUP3 ADD SWAP2 ADD PUSH2 0x2039 JUMP JUMPDEST PUSH1 0x1 DUP4 PUSH1 0x20 SUB PUSH2 0x100 EXP SUB DUP1 NOT DUP3 MLOAD AND DUP2 DUP5 MLOAD AND DUP1 DUP3 OR DUP6 MSTORE POP POP POP POP POP POP SWAP1 POP ADD SWAP2 POP POP PUSH1 0x0 PUSH1 0x40 MLOAD DUP1 DUP4 SUB DUP2 PUSH1 0x0 DUP7 GAS CALL SWAP2 POP POP RETURNDATASIZE DUP1 PUSH1 0x0 DUP2 EQ PUSH2 0x20BA JUMPI PUSH1 0x40 MLOAD SWAP2 POP PUSH1 0x1F NOT PUSH1 0x3F RETURNDATASIZE ADD AND DUP3 ADD PUSH1 0x40 MSTORE RETURNDATASIZE DUP3 MSTORE RETURNDATASIZE PUSH1 0x0 PUSH1 0x20 DUP5 ADD RETURNDATACOPY PUSH2 0x20BF JUMP JUMPDEST PUSH1 0x60 SWAP2 POP JUMPDEST POP SWAP2 POP SWAP2 POP DUP2 PUSH2 0x2116 JUMPI PUSH1 0x40 DUP1 MLOAD PUSH3 0x461BCD PUSH1 0xE5 SHL DUP2 MSTORE PUSH1 0x20 PUSH1 0x4 DUP3 ADD DUP2 SWAP1 MSTORE PUSH1 0x24 DUP3 ADD MSTORE PUSH32 0x5361666545524332303A206C6F772D6C6576656C2063616C6C206661696C6564 PUSH1 0x44 DUP3 ADD MSTORE SWAP1 MLOAD SWAP1 DUP2 SWAP1 SUB PUSH1 0x64 ADD SWAP1 REVERT JUMPDEST DUP1 MLOAD ISZERO PUSH2 0x18A6 JUMPI DUP1 DUP1 PUSH1 0x20 ADD SWAP1 MLOAD PUSH1 0x20 DUP2 LT ISZERO PUSH2 0x2132 JUMPI PUSH1 0x0 DUP1 REVERT JUMPDEST POP MLOAD PUSH2 0x18A6 JUMPI PUSH1 0x40 MLOAD PUSH3 0x461BCD PUSH1 0xE5 SHL DUP2 MSTORE PUSH1 0x4 ADD DUP1 DUP1 PUSH1 0x20 ADD DUP3 DUP2 SUB DUP3 MSTORE PUSH1 0x2A DUP2 MSTORE PUSH1 0x20 ADD DUP1 PUSH2 0x25F2 PUSH1 0x2A SWAP2 CODECOPY PUSH1 0x40 ADD SWAP2 POP POP PUSH1 0x40 MLOAD DUP1 SWAP2 SUB SWAP1 REVERT JUMPDEST PUSH1 0x0 SLOAD PUSH2 0x100 SWAP1 DIV PUSH1 0xFF AND DUP1 PUSH2 0x2188 JUMPI POP PUSH2 0x2188 PUSH2 0x1C05 JUMP JUMPDEST DUP1 PUSH2 0x2196 JUMPI POP PUSH1 0x0 SLOAD PUSH1 0xFF AND ISZERO JUMPDEST PUSH2 0x21D1 JUMPI PUSH1 0x40 MLOAD PUSH3 0x461BCD PUSH1 0xE5 SHL DUP2 MSTORE PUSH1 0x4 ADD DUP1 DUP1 PUSH1 0x20 ADD DUP3 DUP2 SUB DUP3 MSTORE PUSH1 0x2E DUP2 MSTORE PUSH1 0x20 ADD DUP1 PUSH2 0x253C PUSH1 0x2E SWAP2 CODECOPY PUSH1 0x40 ADD SWAP2 POP POP PUSH1 0x40 MLOAD DUP1 SWAP2 SUB SWAP1 REVERT JUMPDEST PUSH1 0x0 SLOAD PUSH2 0x100 SWAP1 DIV PUSH1 0xFF AND ISZERO DUP1 ISZERO PUSH2 0x1CA8 JUMPI PUSH1 0x0 DUP1 SLOAD PUSH1 0xFF NOT PUSH2 0xFF00 NOT SWAP1 SWAP2 AND PUSH2 0x100 OR AND PUSH1 0x1 OR SWAP1 SSTORE DUP1 ISZERO PUSH2 0x1CBA JUMPI PUSH1 0x0 DUP1 SLOAD PUSH2 0xFF00 NOT AND SWAP1 SSTORE POP JUMP JUMPDEST PUSH1 0x0 SLOAD PUSH2 0x100 SWAP1 DIV PUSH1 0xFF AND DUP1 PUSH2 0x2228 JUMPI POP PUSH2 0x2228 PUSH2 0x1C05 JUMP JUMPDEST DUP1 PUSH2 0x2236 JUMPI POP PUSH1 0x0 SLOAD PUSH1 0xFF AND ISZERO JUMPDEST PUSH2 0x2271 JUMPI PUSH1 0x40 MLOAD PUSH3 0x461BCD PUSH1 0xE5 SHL DUP2 MSTORE PUSH1 0x4 ADD DUP1 DUP1 PUSH1 0x20 ADD DUP3 DUP2 SUB DUP3 MSTORE PUSH1 0x2E DUP2 MSTORE PUSH1 0x20 ADD DUP1 PUSH2 0x253C PUSH1 0x2E SWAP2 CODECOPY PUSH1 0x40 ADD SWAP2 POP POP PUSH1 0x40 MLOAD DUP1 SWAP2 SUB SWAP1 REVERT JUMPDEST PUSH1 0x0 SLOAD PUSH2 0x100 SWAP1 DIV PUSH1 0xFF AND ISZERO DUP1 ISZERO PUSH2 0x229C JUMPI PUSH1 0x0 DUP1 SLOAD PUSH1 0xFF NOT PUSH2 0xFF00 NOT SWAP1 SWAP2 AND PUSH2 0x100 OR AND PUSH1 0x1 OR SWAP1 SSTORE JUMPDEST PUSH1 0x0 PUSH2 0x22A6 PUSH2 0x150A JUMP JUMPDEST PUSH1 0x65 DUP1 SLOAD PUSH1 0x1 PUSH1 0x1 PUSH1 0xA0 SHL SUB NOT AND PUSH1 0x1 PUSH1 0x1 PUSH1 0xA0 SHL SUB DUP4 AND SWAP1 DUP2 OR SWAP1 SWAP2 SSTORE PUSH1 0x40 MLOAD SWAP2 SWAP3 POP SWAP1 PUSH1 0x0 SWAP1 PUSH1 0x0 DUP1 MLOAD PUSH1 0x20 PUSH2 0x251C DUP4 CODECOPY DUP2 MLOAD SWAP2 MSTORE SWAP1 DUP3 SWAP1 LOG3 POP DUP1 ISZERO PUSH2 0x1CBA JUMPI PUSH1 0x0 DUP1 SLOAD PUSH2 0xFF00 NOT AND SWAP1 SSTORE POP JUMP JUMPDEST PUSH1 0x0 SLOAD PUSH2 0x100 SWAP1 DIV PUSH1 0xFF AND DUP1 PUSH2 0x230F JUMPI POP PUSH2 0x230F PUSH2 0x1C05 JUMP JUMPDEST DUP1 PUSH2 0x231D JUMPI POP PUSH1 0x0 SLOAD PUSH1 0xFF AND ISZERO JUMPDEST PUSH2 0x2358 JUMPI PUSH1 0x40 MLOAD PUSH3 0x461BCD PUSH1 0xE5 SHL DUP2 MSTORE PUSH1 0x4 ADD DUP1 DUP1 PUSH1 0x20 ADD DUP3 DUP2 SUB DUP3 MSTORE PUSH1 0x2E DUP2 MSTORE PUSH1 0x20 ADD DUP1 PUSH2 0x253C PUSH1 0x2E SWAP2 CODECOPY PUSH1 0x40 ADD SWAP2 POP POP PUSH1 0x40 MLOAD DUP1 SWAP2 SUB SWAP1 REVERT JUMPDEST PUSH1 0x0 SLOAD PUSH2 0x100 SWAP1 DIV PUSH1 0xFF AND ISZERO DUP1 ISZERO PUSH2 0x2383 JUMPI PUSH1 0x0 DUP1 SLOAD PUSH1 0xFF NOT PUSH2 0xFF00 NOT SWAP1 SWAP2 AND PUSH2 0x100 OR AND PUSH1 0x1 OR SWAP1 SSTORE JUMPDEST PUSH1 0x97 DUP1 SLOAD PUSH1 0xFF NOT AND PUSH1 0x1 OR SWAP1 SSTORE DUP1 ISZERO PUSH2 0x1CBA JUMPI PUSH1 0x0 DUP1 SLOAD PUSH2 0xFF00 NOT AND SWAP1 SSTORE POP JUMP JUMPDEST PUSH1 0x0 DUP2 DUP4 PUSH2 0x23F3 JUMPI PUSH1 0x40 MLOAD PUSH3 0x461BCD PUSH1 0xE5 SHL DUP2 MSTORE PUSH1 0x20 PUSH1 0x4 DUP3 ADD DUP2 DUP2 MSTORE DUP4 MLOAD PUSH1 0x24 DUP5 ADD MSTORE DUP4 MLOAD SWAP1 SWAP3 DUP4 SWAP3 PUSH1 0x44 SWAP1 SWAP2 ADD SWAP2 SWAP1 DUP6 ADD SWAP1 DUP1 DUP4 DUP4 PUSH1 0x0 DUP4 ISZERO PUSH2 0x1F74 JUMPI DUP2 DUP2 ADD MLOAD DUP4 DUP3 ADD MSTORE PUSH1 0x20 ADD PUSH2 0x1F5C JUMP JUMPDEST POP PUSH1 0x0 DUP4 DUP6 DUP2 PUSH2 0x23FF JUMPI INVALID JUMPDEST DIV SWAP6 SWAP5 POP POP POP POP POP JUMP JUMPDEST PUSH1 0x0 DUP2 EXTCODEHASH PUSH32 0xC5D2460186F7233C927E7DB2DCC703C0E500B653CA82273B7BFAD8045D85A470 DUP2 DUP2 EQ DUP1 ISZERO SWAP1 PUSH2 0x243D JUMPI POP DUP2 ISZERO ISZERO JUMPDEST SWAP5 SWAP4 POP POP POP POP JUMP JUMPDEST PUSH1 0x40 MLOAD DUP1 PUSH1 0xE0 ADD PUSH1 0x40 MSTORE DUP1 PUSH1 0x0 PUSH1 0x1 PUSH1 0x1 PUSH1 0xA0 SHL SUB AND DUP2 MSTORE PUSH1 0x20 ADD PUSH1 0x0 PUSH1 0x1 PUSH1 0x1 PUSH1 0xA0 SHL SUB AND DUP2 MSTORE PUSH1 0x20 ADD PUSH1 0x0 DUP2 MSTORE PUSH1 0x20 ADD PUSH1 0x0 DUP2 MSTORE PUSH1 0x20 ADD PUSH1 0x0 DUP2 MSTORE PUSH1 0x20 ADD PUSH1 0x0 DUP2 MSTORE PUSH1 0x20 ADD PUSH1 0x0 DUP2 MSTORE POP SWAP1 JUMP INVALID MSTORE PUSH6 0x656E7472616E PUSH4 0x79477561 PUSH19 0x643A207265656E7472616E742063616C6C004F PUSH24 0x6E61626C653A206E6577206F776E65722069732074686520 PUSH27 0x65726F2061646472657373536166654D6174683A206D756C746970 PUSH13 0x69636174696F6E206F76657266 PUSH13 0x6F774F776E61626C653A206361 PUSH13 0x6C6572206973206E6F74207468 PUSH6 0x206F776E6572 DUP12 0xE0 SMOD SWAP13 MSTORE8 AND MSIZE EQ SGT DIFFICULTY 0xCD 0x1F 0xD0 LOG4 CALLCODE DUP5 NOT 0x49 PUSH32 0x9722A3DAAFE3B4186F6B6457E0436F6E747261637420696E7374616E63652068 PUSH2 0x7320 PUSH2 0x6C72 PUSH6 0x616479206265 PUSH6 0x6E20696E6974 PUSH10 0x616C697A65644772617A PUSH10 0x6E6752616E67653A3A77 PUSH10 0x7468647261773A3A6261 PUSH5 0x2077697468 PUSH5 0x7261772061 PUSH14 0x6F756E744772617A696E6752616E PUSH8 0x653A3A6164645265 PUSH24 0x617264496E666F3A3A72657761726420706572696F642065 PUSH15 0x6465644772617A696E6752616E6765 GASPRICE GASPRICE PUSH2 0x6464 MSTORE PUSH6 0x77617264496E PUSH7 0x6F3A3A62616420 PUSH15 0x657720656E64626C6F636B53616665 GASLIMIT MSTORE NUMBER ORIGIN ADDRESS GASPRICE KECCAK256 GASLIMIT MSTORE NUMBER ORIGIN ADDRESS KECCAK256 PUSH16 0x7065726174696F6E20646964206E6F74 KECCAK256 PUSH20 0x7563636565644772617A696E6752616E67653A3A PUSH2 0x6464 MSTORE PUSH6 0x77617264496E PUSH7 0x6F3A3A72657761 PUSH19 0x6420696E666F206C656E677468206578636565 PUSH5 0x7320746865 KECCAK256 PUSH13 0x696D69744772617A696E675261 PUSH15 0x67653A3A656D657267656E63795265 PUSH24 0x61726457697468647261773A3A6E6F7420656E6F75676820 PUSH19 0x657761726420746F6B656EA264697066735822 SLT KECCAK256 DUP12 CALLDATASIZE 0xE2 0xB5 DUP13 PUSH12 0x7ADD6BF2B6AFB26E96C5D780 0xB9 ADDRESS 0xCF 0x4D PUSH16 0xA2D68035C3F8C818B964736F6C634300 MOD 0xC STOP CALLER "
        },
        "gasEstimates": {
          "creation": {
            "codeDepositCost": "1987200",
            "executionCost": "2105",
            "totalCost": "1989305"
          },
          "external": {
            "addCampaignInfo(address,address,uint256)": "infinite",
            "addRewardInfo(uint256,uint256,uint256)": "infinite",
            "campaignInfo(uint256)": "7424",
            "campaignInfoLen()": "1130",
            "campaignRewardInfo(uint256,uint256)": "2870",
            "currentEndBlock(uint256)": "infinite",
            "currentRewardPerBlock(uint256)": "infinite",
            "deposit(uint256,uint256)": "infinite",
            "emergencyRewardWithdraw(uint256,uint256,address)": "infinite",
            "emergencyWithdraw(uint256)": "infinite",
            "getMultiplier(uint256,uint256,uint256)": "infinite",
            "harvest(uint256[])": "infinite",
            "initialize(address)": "infinite",
            "massUpdateCampaigns()": "infinite",
            "owner()": "1367",
            "pendingReward(uint256,address)": "infinite",
            "renounceOwnership()": "infinite",
            "rewardHolder()": "1235",
            "rewardInfoLen(uint256)": "1260",
            "rewardInfoLimit()": "976",
            "setRewardHolder(address)": "infinite",
            "setRewardInfoLimit(uint256)": "infinite",
            "transferOwnership(address)": "infinite",
            "updateCampaign(uint256)": "infinite",
            "userInfo(uint256,address)": "2402",
            "withdraw(uint256,uint256)": "infinite"
          },
          "internal": {
            "_endBlockOf(uint256,uint256)": "infinite",
            "_pendingReward(uint256,uint256,uint256)": "infinite",
            "_rewardPerBlockOf(uint256,uint256)": "infinite",
            "_updateCampaign(uint256)": "infinite",
            "_withdraw(uint256,uint256)": "infinite"
          }
        },
        "methodIdentifiers": {
          "addCampaignInfo(address,address,uint256)": "409e00fc",
          "addRewardInfo(uint256,uint256,uint256)": "2ea807c5",
          "campaignInfo(uint256)": "bb2238ec",
          "campaignInfoLen()": "4ad7ce80",
          "campaignRewardInfo(uint256,uint256)": "10f7a6af",
          "currentEndBlock(uint256)": "9a63bc16",
          "currentRewardPerBlock(uint256)": "8d48aff0",
          "deposit(uint256,uint256)": "e2bbb158",
          "emergencyRewardWithdraw(uint256,uint256,address)": "1d123131",
          "emergencyWithdraw(uint256)": "5312ea8e",
          "getMultiplier(uint256,uint256,uint256)": "7bafb029",
          "harvest(uint256[])": "5d14b06f",
          "initialize(address)": "c4d66de8",
          "massUpdateCampaigns()": "eebdced5",
          "owner()": "8da5cb5b",
          "pendingReward(uint256,address)": "98969e82",
          "renounceOwnership()": "715018a6",
          "rewardHolder()": "569c93d2",
          "rewardInfoLen(uint256)": "4ae56bae",
          "rewardInfoLimit()": "00d74850",
          "setRewardHolder(address)": "6806cc93",
          "setRewardInfoLimit(uint256)": "33824b87",
          "transferOwnership(address)": "f2fde38b",
          "updateCampaign(uint256)": "cef7042d",
          "userInfo(uint256,address)": "93f1a40b",
          "withdraw(uint256,uint256)": "441a3e70"
        }
      },
      "storageLayout": {
        "storage": [
          {
            "astId": 50,
            "contract": "contracts/6.12/GrazingRange.sol:GrazingRange",
            "label": "initialized",
            "offset": 0,
            "slot": "0",
            "type": "t_bool"
          },
          {
            "astId": 53,
            "contract": "contracts/6.12/GrazingRange.sol:GrazingRange",
            "label": "initializing",
            "offset": 1,
            "slot": "0",
            "type": "t_bool"
          },
          {
            "astId": 118,
            "contract": "contracts/6.12/GrazingRange.sol:GrazingRange",
            "label": "______gap",
            "offset": 0,
            "slot": "1",
            "type": "t_array(t_uint256)50_storage"
          },
          {
            "astId": 43,
            "contract": "contracts/6.12/GrazingRange.sol:GrazingRange",
            "label": "__gap",
            "offset": 0,
            "slot": "51",
            "type": "t_array(t_uint256)50_storage"
          },
          {
            "astId": 130,
            "contract": "contracts/6.12/GrazingRange.sol:GrazingRange",
            "label": "_owner",
            "offset": 0,
            "slot": "101",
            "type": "t_address"
          },
          {
            "astId": 248,
            "contract": "contracts/6.12/GrazingRange.sol:GrazingRange",
            "label": "__gap",
            "offset": 0,
            "slot": "102",
            "type": "t_array(t_uint256)49_storage"
          },
          {
            "astId": 823,
            "contract": "contracts/6.12/GrazingRange.sol:GrazingRange",
            "label": "_notEntered",
            "offset": 0,
            "slot": "151",
            "type": "t_bool"
          },
          {
            "astId": 864,
            "contract": "contracts/6.12/GrazingRange.sol:GrazingRange",
            "label": "__gap",
            "offset": 0,
            "slot": "152",
            "type": "t_array(t_uint256)49_storage"
          },
          {
            "astId": 913,
            "contract": "contracts/6.12/GrazingRange.sol:GrazingRange",
            "label": "campaignRewardInfo",
            "offset": 0,
            "slot": "201",
            "type": "t_mapping(t_uint256,t_array(t_struct(RewardInfo)908_storage)dyn_storage)"
          },
          {
            "astId": 916,
            "contract": "contracts/6.12/GrazingRange.sol:GrazingRange",
            "label": "campaignInfo",
            "offset": 0,
            "slot": "202",
            "type": "t_array(t_struct(CampaignInfo)903_storage)dyn_storage"
          },
          {
            "astId": 922,
            "contract": "contracts/6.12/GrazingRange.sol:GrazingRange",
            "label": "userInfo",
            "offset": 0,
            "slot": "203",
            "type": "t_mapping(t_uint256,t_mapping(t_address,t_struct(UserInfo)888_storage))"
          },
          {
            "astId": 924,
            "contract": "contracts/6.12/GrazingRange.sol:GrazingRange",
            "label": "rewardInfoLimit",
            "offset": 0,
            "slot": "204",
            "type": "t_uint256"
          },
          {
            "astId": 926,
            "contract": "contracts/6.12/GrazingRange.sol:GrazingRange",
            "label": "rewardHolder",
            "offset": 0,
            "slot": "205",
            "type": "t_address"
          }
        ],
        "types": {
          "t_address": {
            "encoding": "inplace",
            "label": "address",
            "numberOfBytes": "20"
          },
          "t_array(t_struct(CampaignInfo)903_storage)dyn_storage": {
            "base": "t_struct(CampaignInfo)903_storage",
            "encoding": "dynamic_array",
            "label": "struct GrazingRange.CampaignInfo[]",
            "numberOfBytes": "32"
          },
          "t_array(t_struct(RewardInfo)908_storage)dyn_storage": {
            "base": "t_struct(RewardInfo)908_storage",
            "encoding": "dynamic_array",
            "label": "struct GrazingRange.RewardInfo[]",
            "numberOfBytes": "32"
          },
          "t_array(t_uint256)49_storage": {
            "base": "t_uint256",
            "encoding": "inplace",
            "label": "uint256[49]",
            "numberOfBytes": "1568"
          },
          "t_array(t_uint256)50_storage": {
            "base": "t_uint256",
            "encoding": "inplace",
            "label": "uint256[50]",
            "numberOfBytes": "1600"
          },
          "t_bool": {
            "encoding": "inplace",
            "label": "bool",
            "numberOfBytes": "1"
          },
          "t_contract(IERC20)523": {
            "encoding": "inplace",
            "label": "contract IERC20",
            "numberOfBytes": "20"
          },
          "t_mapping(t_address,t_struct(UserInfo)888_storage)": {
            "encoding": "mapping",
            "key": "t_address",
            "label": "mapping(address => struct GrazingRange.UserInfo)",
            "numberOfBytes": "32",
            "value": "t_struct(UserInfo)888_storage"
          },
          "t_mapping(t_uint256,t_array(t_struct(RewardInfo)908_storage)dyn_storage)": {
            "encoding": "mapping",
            "key": "t_uint256",
            "label": "mapping(uint256 => struct GrazingRange.RewardInfo[])",
            "numberOfBytes": "32",
            "value": "t_array(t_struct(RewardInfo)908_storage)dyn_storage"
          },
          "t_mapping(t_uint256,t_mapping(t_address,t_struct(UserInfo)888_storage))": {
            "encoding": "mapping",
            "key": "t_uint256",
            "label": "mapping(uint256 => mapping(address => struct GrazingRange.UserInfo))",
            "numberOfBytes": "32",
            "value": "t_mapping(t_address,t_struct(UserInfo)888_storage)"
          },
          "t_struct(CampaignInfo)903_storage": {
            "encoding": "inplace",
            "label": "struct GrazingRange.CampaignInfo",
            "members": [
              {
                "astId": 890,
                "contract": "contracts/6.12/GrazingRange.sol:GrazingRange",
                "label": "stakingToken",
                "offset": 0,
                "slot": "0",
                "type": "t_contract(IERC20)523"
              },
              {
                "astId": 892,
                "contract": "contracts/6.12/GrazingRange.sol:GrazingRange",
                "label": "rewardToken",
                "offset": 0,
                "slot": "1",
                "type": "t_contract(IERC20)523"
              },
              {
                "astId": 894,
                "contract": "contracts/6.12/GrazingRange.sol:GrazingRange",
                "label": "startBlock",
                "offset": 0,
                "slot": "2",
                "type": "t_uint256"
              },
              {
                "astId": 896,
                "contract": "contracts/6.12/GrazingRange.sol:GrazingRange",
                "label": "lastRewardBlock",
                "offset": 0,
                "slot": "3",
                "type": "t_uint256"
              },
              {
                "astId": 898,
                "contract": "contracts/6.12/GrazingRange.sol:GrazingRange",
                "label": "accRewardPerShare",
                "offset": 0,
                "slot": "4",
                "type": "t_uint256"
              },
              {
                "astId": 900,
                "contract": "contracts/6.12/GrazingRange.sol:GrazingRange",
                "label": "totalStaked",
                "offset": 0,
                "slot": "5",
                "type": "t_uint256"
              },
              {
                "astId": 902,
                "contract": "contracts/6.12/GrazingRange.sol:GrazingRange",
                "label": "totalRewards",
                "offset": 0,
                "slot": "6",
                "type": "t_uint256"
              }
            ],
            "numberOfBytes": "224"
          },
          "t_struct(RewardInfo)908_storage": {
            "encoding": "inplace",
            "label": "struct GrazingRange.RewardInfo",
            "members": [
              {
                "astId": 905,
                "contract": "contracts/6.12/GrazingRange.sol:GrazingRange",
                "label": "endBlock",
                "offset": 0,
                "slot": "0",
                "type": "t_uint256"
              },
              {
                "astId": 907,
                "contract": "contracts/6.12/GrazingRange.sol:GrazingRange",
                "label": "rewardPerBlock",
                "offset": 0,
                "slot": "1",
                "type": "t_uint256"
              }
            ],
            "numberOfBytes": "64"
          },
          "t_struct(UserInfo)888_storage": {
            "encoding": "inplace",
            "label": "struct GrazingRange.UserInfo",
            "members": [
              {
                "astId": 885,
                "contract": "contracts/6.12/GrazingRange.sol:GrazingRange",
                "label": "amount",
                "offset": 0,
                "slot": "0",
                "type": "t_uint256"
              },
              {
                "astId": 887,
                "contract": "contracts/6.12/GrazingRange.sol:GrazingRange",
                "label": "rewardDebt",
                "offset": 0,
                "slot": "1",
                "type": "t_uint256"
              }
            ],
            "numberOfBytes": "64"
          },
          "t_uint256": {
            "encoding": "inplace",
            "label": "uint256",
            "numberOfBytes": "32"
          }
        }
      },
      "userdoc": {
        "kind": "user",
        "methods": {},
        "version": 1
      }
    }
  }
}