{
  "contracts/5/protocol/apis/mdex/MdexFactory.sol": {
    "SafeMath": {
      "abi": [
        {
          "constant": true,
          "inputs": [],
          "name": "ray",
          "outputs": [
            {
              "internalType": "uint256",
              "name": "",
              "type": "uint256"
            }
          ],
          "payable": false,
          "stateMutability": "pure",
          "type": "function"
        },
        {
          "constant": true,
          "inputs": [],
          "name": "wad",
          "outputs": [
            {
              "internalType": "uint256",
              "name": "",
              "type": "uint256"
            }
          ],
          "payable": false,
          "stateMutability": "pure",
          "type": "function"
        }
      ],
      "devdoc": {
        "methods": {}
      },
      "evm": {
        "bytecode": {
          "linkReferences": {},
          "object": "60b0610025600b82828239805160001a60731461001857fe5b30600052607381538281f3fe7300000000000000000000000000000000000000003014608060405260043610603d5760003560e01c8063416a8b201460425780637df38c5b14605a575b600080fd5b60486060565b60408051918252519081900360200190f35b6048606f565b676765c793fa10079d601b1b90565b670de0b6b3a76400009056fea265627a7a72315820a16429976961edcc155b4f3368b03a8c5f61499e4f83e8e825b12b5fece1a8ff64736f6c63430005100032",
          "opcodes": "PUSH1 0xB0 PUSH2 0x25 PUSH1 0xB DUP3 DUP3 DUP3 CODECOPY DUP1 MLOAD PUSH1 0x0 BYTE PUSH1 0x73 EQ PUSH2 0x18 JUMPI INVALID JUMPDEST ADDRESS PUSH1 0x0 MSTORE PUSH1 0x73 DUP2 MSTORE8 DUP3 DUP2 RETURN INVALID PUSH20 0x0 ADDRESS EQ PUSH1 0x80 PUSH1 0x40 MSTORE PUSH1 0x4 CALLDATASIZE LT PUSH1 0x3D JUMPI PUSH1 0x0 CALLDATALOAD PUSH1 0xE0 SHR DUP1 PUSH4 0x416A8B20 EQ PUSH1 0x42 JUMPI DUP1 PUSH4 0x7DF38C5B EQ PUSH1 0x5A JUMPI JUMPDEST PUSH1 0x0 DUP1 REVERT JUMPDEST PUSH1 0x48 PUSH1 0x60 JUMP JUMPDEST PUSH1 0x40 DUP1 MLOAD SWAP2 DUP3 MSTORE MLOAD SWAP1 DUP2 SWAP1 SUB PUSH1 0x20 ADD SWAP1 RETURN JUMPDEST PUSH1 0x48 PUSH1 0x6F JUMP JUMPDEST PUSH8 0x6765C793FA10079D PUSH1 0x1B SHL SWAP1 JUMP JUMPDEST PUSH8 0xDE0B6B3A7640000 SWAP1 JUMP INVALID LOG2 PUSH6 0x627A7A723158 KECCAK256 LOG1 PUSH5 0x29976961ED 0xCC ISZERO JUMPDEST 0x4F CALLER PUSH9 0xB03A8C5F61499E4F83 0xE8 0xE8 0x25 0xB1 0x2B 0x5F 0xEC 0xE1 0xA8 SELFDESTRUCT PUSH5 0x736F6C6343 STOP SDIV LT STOP ORIGIN "
        },
        "gasEstimates": {
          "creation": {
            "codeDepositCost": "35200",
            "executionCost": "112",
            "totalCost": "35312"
          },
          "external": {
            "ray()": "166",
            "wad()": "182"
          },
          "internal": {
            "add(uint256,uint256)": "infinite",
            "div(uint256,uint256)": "infinite",
            "div(uint256,uint256,string memory)": "infinite",
            "max(uint256,uint256)": "infinite",
            "min(uint256,uint256)": "infinite",
            "mod(uint256,uint256)": "infinite",
            "mod(uint256,uint256,string memory)": "infinite",
            "mul(uint256,uint256)": "infinite",
            "rdiv(uint256,uint256)": "infinite",
            "rdivRound(uint256,uint256)": "infinite",
            "rmul(uint256,uint256)": "infinite",
            "rmulRound(uint256,uint256)": "infinite",
            "rpow(uint256,uint256)": "infinite",
            "sqrt(uint256)": "infinite",
            "sub(uint256,uint256)": "infinite",
            "sub(uint256,uint256,string memory)": "infinite",
            "wdiv(uint256,uint256)": "infinite",
            "wdivRound(uint256,uint256)": "infinite",
            "wmul(uint256,uint256)": "infinite",
            "wmulRound(uint256,uint256)": "infinite",
            "wpow(uint256,uint256)": "infinite"
          }
        },
        "methodIdentifiers": {
          "ray()": "416a8b20",
          "wad()": "7df38c5b"
        }
      },
      "storageLayout": {
        "storage": [],
        "types": null
      },
      "userdoc": {
        "methods": {}
      }
    }
  }
}