{
  "_format": "hh-sol-artifact-1",
  "contractName": "ERC20",
  "sourceName": "contracts/6.12/protocol/apis/wault/ERC20.sol",
  "abi": [
    {
      "inputs": [
        {
          "internalType": "string",
          "name": "name",
          "type": "string"
        },
        {
          "internalType": "string",
          "name": "symbol",
          "type": "string"
        },
        {
          "internalType": "uint256",
          "name": "decimals",
          "type": "uint256"
        },
        {
          "internalType": "uint256",
          "name": "burnrate",
          "type": "uint256"
        },
        {
          "internalType": "uint256",
          "name": "initSupply",
          "type": "uint256"
        }
      ],
      "stateMutability": "nonpayable",
      "type": "constructor"
    },
    {
      "anonymous": false,
      "inputs": [
        {
          "indexed": true,
          "internalType": "address",
          "name": "owner",
          "type": "address"
        },
        {
          "indexed": true,
          "internalType": "address",
          "name": "spender",
          "type": "address"
        },
        {
          "indexed": false,
          "internalType": "uint256",
          "name": "value",
          "type": "uint256"
        }
      ],
      "name": "Approval",
      "type": "event"
    },
    {
      "anonymous": false,
      "inputs": [
        {
          "indexed": true,
          "internalType": "address",
          "name": "from",
          "type": "address"
        },
        {
          "indexed": true,
          "internalType": "address",
          "name": "to",
          "type": "address"
        },
        {
          "indexed": false,
          "internalType": "uint256",
          "name": "value",
          "type": "uint256"
        }
      ],
      "name": "Transfer",
      "type": "event"
    },
    {
      "inputs": [
        {
          "internalType": "address",
          "name": "",
          "type": "address"
        }
      ],
      "name": "_whitelistedAddresses",
      "outputs": [
        {
          "internalType": "bool",
          "name": "",
          "type": "bool"
        }
      ],
      "stateMutability": "view",
      "type": "function"
    },
    {
      "inputs": [
        {
          "internalType": "address",
          "name": "owner",
          "type": "address"
        },
        {
          "internalType": "address",
          "name": "spender",
          "type": "address"
        }
      ],
      "name": "allowance",
      "outputs": [
        {
          "internalType": "uint256",
          "name": "",
          "type": "uint256"
        }
      ],
      "stateMutability": "view",
      "type": "function"
    },
    {
      "inputs": [
        {
          "internalType": "address",
          "name": "spender",
          "type": "address"
        },
        {
          "internalType": "uint256",
          "name": "amount",
          "type": "uint256"
        }
      ],
      "name": "approve",
      "outputs": [
        {
          "internalType": "bool",
          "name": "",
          "type": "bool"
        }
      ],
      "stateMutability": "nonpayable",
      "type": "function"
    },
    {
      "inputs": [
        {
          "internalType": "address",
          "name": "account",
          "type": "address"
        }
      ],
      "name": "balanceOf",
      "outputs": [
        {
          "internalType": "uint256",
          "name": "",
          "type": "uint256"
        }
      ],
      "stateMutability": "view",
      "type": "function"
    },
    {
      "inputs": [
        {
          "internalType": "uint256",
          "name": "amount",
          "type": "uint256"
        }
      ],
      "name": "burn",
      "outputs": [
        {
          "internalType": "bool",
          "name": "",
          "type": "bool"
        }
      ],
      "stateMutability": "nonpayable",
      "type": "function"
    },
    {
      "inputs": [],
      "name": "burnRate",
      "outputs": [
        {
          "internalType": "uint256",
          "name": "",
          "type": "uint256"
        }
      ],
      "stateMutability": "view",
      "type": "function"
    },
    {
      "inputs": [],
      "name": "burnedSupply",
      "outputs": [
        {
          "internalType": "uint256",
          "name": "",
          "type": "uint256"
        }
      ],
      "stateMutability": "view",
      "type": "function"
    },
    {
      "inputs": [],
      "name": "decimals",
      "outputs": [
        {
          "internalType": "uint256",
          "name": "",
          "type": "uint256"
        }
      ],
      "stateMutability": "view",
      "type": "function"
    },
    {
      "inputs": [
        {
          "internalType": "address",
          "name": "spender",
          "type": "address"
        },
        {
          "internalType": "uint256",
          "name": "subtractedValue",
          "type": "uint256"
        }
      ],
      "name": "decreaseAllowance",
      "outputs": [
        {
          "internalType": "bool",
          "name": "",
          "type": "bool"
        }
      ],
      "stateMutability": "nonpayable",
      "type": "function"
    },
    {
      "inputs": [
        {
          "internalType": "address",
          "name": "spender",
          "type": "address"
        },
        {
          "internalType": "uint256",
          "name": "addedValue",
          "type": "uint256"
        }
      ],
      "name": "increaseAllowance",
      "outputs": [
        {
          "internalType": "bool",
          "name": "",
          "type": "bool"
        }
      ],
      "stateMutability": "nonpayable",
      "type": "function"
    },
    {
      "inputs": [],
      "name": "name",
      "outputs": [
        {
          "internalType": "string",
          "name": "",
          "type": "string"
        }
      ],
      "stateMutability": "view",
      "type": "function"
    },
    {
      "inputs": [],
      "name": "symbol",
      "outputs": [
        {
          "internalType": "string",
          "name": "",
          "type": "string"
        }
      ],
      "stateMutability": "view",
      "type": "function"
    },
    {
      "inputs": [],
      "name": "totalSupply",
      "outputs": [
        {
          "internalType": "uint256",
          "name": "",
          "type": "uint256"
        }
      ],
      "stateMutability": "view",
      "type": "function"
    },
    {
      "inputs": [
        {
          "internalType": "address",
          "name": "recipient",
          "type": "address"
        },
        {
          "internalType": "uint256",
          "name": "amount",
          "type": "uint256"
        }
      ],
      "name": "transfer",
      "outputs": [
        {
          "internalType": "bool",
          "name": "",
          "type": "bool"
        }
      ],
      "stateMutability": "nonpayable",
      "type": "function"
    },
    {
      "inputs": [
        {
          "internalType": "address",
          "name": "sender",
          "type": "address"
        },
        {
          "internalType": "address",
          "name": "recipient",
          "type": "address"
        },
        {
          "internalType": "uint256",
          "name": "amount",
          "type": "uint256"
        }
      ],
      "name": "transferFrom",
      "outputs": [
        {
          "internalType": "bool",
          "name": "",
          "type": "bool"
        }
      ],
      "stateMutability": "nonpayable",
      "type": "function"
    }
  ],
  "bytecode": "0x60806040523480156200001157600080fd5b50604051620012d0380380620012d0833981810160405260a08110156200003757600080fd5b81019080805160405193929190846401000000008211156200005857600080fd5b9083019060208201858111156200006e57600080fd5b82516401000000008111828201881017156200008957600080fd5b82525081516020918201929091019080838360005b83811015620000b85781810151838201526020016200009e565b50505050905090810190601f168015620000e65780820380516001836020036101000a031916815260200191505b50604052602001805160405193929190846401000000008211156200010a57600080fd5b9083019060208201858111156200012057600080fd5b82516401000000008111828201881017156200013b57600080fd5b82525081516020918201929091019080838360005b838110156200016a57818101518382015260200162000150565b50505050905090810190601f168015620001985780820380516001836020036101000a031916815260200191505b506040908152602082810151918301516060909301518751929550929350620001c79160069188019062000386565b508351620001dd90600790602087019062000386565b50600883905560058290556000600355620001ff33600a85900a830262000210565b505060006004555062000422915050565b6001600160a01b0382166200026c576040805162461bcd60e51b815260206004820152601f60248201527f45524332303a206d696e7420746f20746865207a65726f206164647265737300604482015290519081900360640190fd5b6200027a600083836200031f565b62000296816003546200032460201b620006061790919060201c565b6003556001600160a01b03821660009081526020818152604090912054620002c99183906200060662000324821b17901c565b6001600160a01b0383166000818152602081815260408083209490945583518581529351929391927fddf252ad1be2c89b69c2b068fc378daa952ba7f163c4a11628f55a4df523b3ef9281900390910190a35050565b505050565b6000828201838110156200037f576040805162461bcd60e51b815260206004820152601b60248201527f536166654d6174683a206164646974696f6e206f766572666c6f770000000000604482015290519081900360640190fd5b9392505050565b828054600181600116156101000203166002900490600052602060002090601f016020900481019282601f10620003c957805160ff1916838001178555620003f9565b82800160010185558215620003f9579182015b82811115620003f9578251825591602001919060010190620003dc565b50620004079291506200040b565b5090565b5b808211156200040757600081556001016200040c565b610e9e80620004326000396000f3fe608060405234801561001057600080fd5b50600436106100c55760003560e01c806306fdde03146100ca578063095ea7b31461014757806318160ddd1461018757806323b872dd146101a1578063313ce567146101d757806339509351146101df57806342966c681461020b57806355d0a1d01461022857806370a082311461023057806395d89b4114610256578063a457c2d71461025e578063a9059cbb1461028a578063abf9b5a8146102b6578063bed99850146102dc578063dd62ed3e146102e4575b600080fd5b6100d2610312565b6040805160208082528351818301528351919283929083019185019080838360005b8381101561010c5781810151838201526020016100f4565b50505050905090810190601f1680156101395780820380516001836020036101000a031916815260200191505b509250505060405180910390f35b6101736004803603604081101561015d57600080fd5b506001600160a01b0381351690602001356103a8565b604080519115158252519081900360200190f35b61018f6103c6565b60408051918252519081900360200190f35b610173600480360360608110156101b757600080fd5b506001600160a01b038135811691602081013590911690604001356103cc565b61018f610453565b610173600480360360408110156101f557600080fd5b506001600160a01b038135169060200135610459565b6101736004803603602081101561022157600080fd5b50356104a7565b61018f6104c2565b61018f6004803603602081101561024657600080fd5b50356001600160a01b03166104c8565b6100d26104e3565b6101736004803603604081101561027457600080fd5b506001600160a01b038135169060200135610544565b610173600480360360408110156102a057600080fd5b506001600160a01b0381351690602001356105ac565b610173600480360360208110156102cc57600080fd5b50356001600160a01b03166105c0565b61018f6105d5565b61018f600480360360408110156102fa57600080fd5b506001600160a01b03813581169160200135166105db565b60068054604080516020601f600260001961010060018816150201909516949094049384018190048102820181019092528281526060939092909183018282801561039e5780601f106103735761010080835404028352916020019161039e565b820191906000526020600020905b81548152906001019060200180831161038157829003601f168201915b5050505050905090565b60006103bc6103b5610665565b8484610669565b5060015b92915050565b60035490565b60006103d9848484610755565b610449846103e5610665565b61044485604051806060016040528060288152602001610d92602891396001600160a01b038a16600090815260016020526040812090610423610665565b6001600160a01b031681526020810191909152604001600020549190610a38565b610669565b5060019392505050565b60085490565b60006103bc610466610665565b846104448560016000610477610665565b6001600160a01b03908116825260208083019390935260409182016000908120918c168152925290205490610606565b60006104ba6104b4610665565b83610acf565b506001919050565b60045490565b6001600160a01b031660009081526020819052604090205490565b60078054604080516020601f600260001961010060018816150201909516949094049384018190048102820181019092528281526060939092909183018282801561039e5780601f106103735761010080835404028352916020019161039e565b60006103bc610551610665565b8461044485604051806060016040528060258152602001610e44602591396001600061057b610665565b6001600160a01b03908116825260208083019390935260409182016000908120918d16815292529020549190610a38565b60006103bc6105b9610665565b8484610755565b60026020526000908152604090205460ff1681565b60055490565b6001600160a01b03918216600090815260016020908152604080832093909416825291909152205490565b60008282018381101561065e576040805162461bcd60e51b815260206004820152601b60248201527a536166654d6174683a206164646974696f6e206f766572666c6f7760281b604482015290519081900360640190fd5b9392505050565b3390565b6001600160a01b0383166106ae5760405162461bcd60e51b8152600401808060200182810382526024815260200180610e206024913960400191505060405180910390fd5b6001600160a01b0382166106f35760405162461bcd60e51b8152600401808060200182810382526022815260200180610d296022913960400191505060405180910390fd5b6001600160a01b03808416600081815260016020908152604080832094871680845294825291829020859055815185815291517f8c5be1e5ebec7d5bd14f71427d1e84f3dd0314c0f7b2291e5b200ac8c7c3b9259281900390910190a3505050565b6001600160a01b03831661079a5760405162461bcd60e51b8152600401808060200182810382526025815260200180610dfb6025913960400191505060405180910390fd5b6001600160a01b0382166107df5760405162461bcd60e51b8152600401808060200182810382526023815260200180610ce46023913960400191505060405180910390fd5b6001600160a01b03831660009081526002602052604090205460ff1615156001148061082857506001600160a01b03821660009081526002602052604090205460ff1615156001145b156108ec57610838838383610a33565b61087581604051806060016040528060268152602001610d4b602691396001600160a01b0386166000908152602081905260409020549190610a38565b6001600160a01b0380851660009081526020819052604080822093909355908416815220546108a49082610606565b6001600160a01b03808416600081815260208181526040918290209490945580518581529051919392871692600080516020610dba83398151915292918290030190a3610a33565b600061090e606461090860055485610bc990919063ffffffff16565b90610c22565b9050600061091c8383610c86565b90508181018314610969576040805162461bcd60e51b8152602060048201526012602482015271109d5c9b881d985b1d59481a5b9d985b1a5960721b604482015290519081900360640190fd5b6109738583610acf565b809250610981858585610a33565b6109be83604051806060016040528060268152602001610d4b602691396001600160a01b0388166000908152602081905260409020549190610a38565b6001600160a01b0380871660009081526020819052604080822093909355908616815220546109ed9084610606565b6001600160a01b03808616600081815260208181526040918290209490945580518781529051919392891692600080516020610dba83398151915292918290030190a350505b505050565b60008184841115610ac75760405162461bcd60e51b81526004018080602001828103825283818151815260200191508051906020019080838360005b83811015610a8c578181015183820152602001610a74565b50505050905090810190601f168015610ab95780820380516001836020036101000a031916815260200191505b509250505060405180910390fd5b505050900390565b6001600160a01b038216610b145760405162461bcd60e51b8152600401808060200182810382526021815260200180610dda6021913960400191505060405180910390fd5b610b2082600083610a33565b610b5d81604051806060016040528060228152602001610d07602291396001600160a01b0385166000908152602081905260409020549190610a38565b6001600160a01b038316600090815260208190526040902055600354610b839082610c86565b600355600454610b939082610606565b6004556040805182815290516000916001600160a01b03851691600080516020610dba8339815191529181900360200190a35050565b600082610bd8575060006103c0565b82820282848281610be557fe5b041461065e5760405162461bcd60e51b8152600401808060200182810382526021815260200180610d716021913960400191505060405180910390fd5b6000808211610c75576040805162461bcd60e51b815260206004820152601a602482015279536166654d6174683a206469766973696f6e206279207a65726f60301b604482015290519081900360640190fd5b818381610c7e57fe5b049392505050565b600082821115610cdd576040805162461bcd60e51b815260206004820152601e60248201527f536166654d6174683a207375627472616374696f6e206f766572666c6f770000604482015290519081900360640190fd5b5090039056fe45524332303a207472616e7366657220746f20746865207a65726f206164647265737345524332303a206275726e20616d6f756e7420657863656564732062616c616e636545524332303a20617070726f766520746f20746865207a65726f206164647265737345524332303a207472616e7366657220616d6f756e7420657863656564732062616c616e6365536166654d6174683a206d756c7469706c69636174696f6e206f766572666c6f7745524332303a207472616e7366657220616d6f756e74206578636565647320616c6c6f77616e6365ddf252ad1be2c89b69c2b068fc378daa952ba7f163c4a11628f55a4df523b3ef45524332303a206275726e2066726f6d20746865207a65726f206164647265737345524332303a207472616e736665722066726f6d20746865207a65726f206164647265737345524332303a20617070726f76652066726f6d20746865207a65726f206164647265737345524332303a2064656372656173656420616c6c6f77616e63652062656c6f77207a65726fa264697066735822122097522e1342c5dafc064373d32aef48e0b1497efe2040dd28fd2a3c760d3b88d864736f6c634300060c0033",
  "linkReferences": {},
  "deployedLinkReferences": {}
}