{
  "_format": "hh-sol-artifact-1",
  "contractName": "IbTokenAdapter",
  "sourceName": "contracts/6.12/stablecoin-core/adapters/FarmableTokenAdapter/IbTokenAdapter.sol",
  "abi": [
    {
      "anonymous": false,
      "inputs": [],
      "name": "LogCage",
      "type": "event"
    },
    {
      "anonymous": false,
      "inputs": [
        {
          "indexed": false,
          "internalType": "uint256",
          "name": "_val",
          "type": "uint256"
        }
      ],
      "name": "LogDeposit",
      "type": "event"
    },
    {
      "anonymous": false,
      "inputs": [
        {
          "indexed": true,
          "internalType": "address",
          "name": "_caller",
          "type": "address"
        },
        {
          "indexed": false,
          "internalType": "address",
          "name": "_to",
          "type": "address"
        }
      ],
      "name": "LogEmergencyWithdraw",
      "type": "event"
    },
    {
      "anonymous": false,
      "inputs": [
        {
          "indexed": true,
          "internalType": "address",
          "name": "_src",
          "type": "address"
        },
        {
          "indexed": true,
          "internalType": "address",
          "name": "_dst",
          "type": "address"
        },
        {
          "indexed": false,
          "internalType": "uint256",
          "name": "_wad",
          "type": "uint256"
        }
      ],
      "name": "LogMoveStake",
      "type": "event"
    },
    {
      "anonymous": false,
      "inputs": [
        {
          "indexed": true,
          "internalType": "address",
          "name": "_caller",
          "type": "address"
        },
        {
          "indexed": false,
          "internalType": "address",
          "name": "_treasuryAccount",
          "type": "address"
        }
      ],
      "name": "LogSetTreasuryAccount",
      "type": "event"
    },
    {
      "anonymous": false,
      "inputs": [
        {
          "indexed": true,
          "internalType": "address",
          "name": "_caller",
          "type": "address"
        },
        {
          "indexed": false,
          "internalType": "uint256",
          "name": "_treasuryFeeBps",
          "type": "uint256"
        }
      ],
      "name": "LogSetTreasuryFeeBps",
      "type": "event"
    },
    {
      "anonymous": false,
      "inputs": [],
      "name": "LogUncage",
      "type": "event"
    },
    {
      "anonymous": false,
      "inputs": [
        {
          "indexed": false,
          "internalType": "uint256",
          "name": "_val",
          "type": "uint256"
        }
      ],
      "name": "LogWithdraw",
      "type": "event"
    },
    {
      "anonymous": false,
      "inputs": [
        {
          "indexed": false,
          "internalType": "address",
          "name": "account",
          "type": "address"
        }
      ],
      "name": "Paused",
      "type": "event"
    },
    {
      "anonymous": false,
      "inputs": [
        {
          "indexed": false,
          "internalType": "address",
          "name": "account",
          "type": "address"
        }
      ],
      "name": "Unpaused",
      "type": "event"
    },
    {
      "inputs": [],
      "name": "accRewardBalance",
      "outputs": [
        {
          "internalType": "uint256",
          "name": "",
          "type": "uint256"
        }
      ],
      "stateMutability": "view",
      "type": "function"
    },
    {
      "inputs": [],
      "name": "accRewardPerShare",
      "outputs": [
        {
          "internalType": "uint256",
          "name": "",
          "type": "uint256"
        }
      ],
      "stateMutability": "view",
      "type": "function"
    },
    {
      "inputs": [],
      "name": "bookKeeper",
      "outputs": [
        {
          "internalType": "contract IBookKeeper",
          "name": "",
          "type": "address"
        }
      ],
      "stateMutability": "view",
      "type": "function"
    },
    {
      "inputs": [],
      "name": "cage",
      "outputs": [],
      "stateMutability": "nonpayable",
      "type": "function"
    },
    {
      "inputs": [],
      "name": "collateralPoolId",
      "outputs": [
        {
          "internalType": "bytes32",
          "name": "",
          "type": "bytes32"
        }
      ],
      "stateMutability": "view",
      "type": "function"
    },
    {
      "inputs": [],
      "name": "collateralToken",
      "outputs": [
        {
          "internalType": "address",
          "name": "",
          "type": "address"
        }
      ],
      "stateMutability": "view",
      "type": "function"
    },
    {
      "inputs": [],
      "name": "decimals",
      "outputs": [
        {
          "internalType": "uint256",
          "name": "",
          "type": "uint256"
        }
      ],
      "stateMutability": "view",
      "type": "function"
    },
    {
      "inputs": [
        {
          "internalType": "address",
          "name": "_positionAddress",
          "type": "address"
        },
        {
          "internalType": "uint256",
          "name": "_amount",
          "type": "uint256"
        },
        {
          "internalType": "bytes",
          "name": "_data",
          "type": "bytes"
        }
      ],
      "name": "deposit",
      "outputs": [],
      "stateMutability": "payable",
      "type": "function"
    },
    {
      "inputs": [
        {
          "internalType": "address",
          "name": "_to",
          "type": "address"
        }
      ],
      "name": "emergencyWithdraw",
      "outputs": [],
      "stateMutability": "nonpayable",
      "type": "function"
    },
    {
      "inputs": [],
      "name": "fairlaunch",
      "outputs": [
        {
          "internalType": "contract IAlpacaFairLaunch",
          "name": "",
          "type": "address"
        }
      ],
      "stateMutability": "view",
      "type": "function"
    },
    {
      "inputs": [
        {
          "internalType": "address",
          "name": "_bookKeeper",
          "type": "address"
        },
        {
          "internalType": "bytes32",
          "name": "_collateralPoolId",
          "type": "bytes32"
        },
        {
          "internalType": "address",
          "name": "_collateralToken",
          "type": "address"
        },
        {
          "internalType": "address",
          "name": "_rewardToken",
          "type": "address"
        },
        {
          "internalType": "address",
          "name": "_fairlaunch",
          "type": "address"
        },
        {
          "internalType": "uint256",
          "name": "_pid",
          "type": "uint256"
        },
        {
          "internalType": "address",
          "name": "_shield",
          "type": "address"
        },
        {
          "internalType": "address",
          "name": "_timelock",
          "type": "address"
        },
        {
          "internalType": "uint256",
          "name": "_treasuryFeeBps",
          "type": "uint256"
        },
        {
          "internalType": "address",
          "name": "_treasuryAccount",
          "type": "address"
        },
        {
          "internalType": "address",
          "name": "_positionManager",
          "type": "address"
        }
      ],
      "name": "initialize",
      "outputs": [],
      "stateMutability": "nonpayable",
      "type": "function"
    },
    {
      "inputs": [],
      "name": "live",
      "outputs": [
        {
          "internalType": "uint256",
          "name": "",
          "type": "uint256"
        }
      ],
      "stateMutability": "view",
      "type": "function"
    },
    {
      "inputs": [
        {
          "internalType": "address",
          "name": "_source",
          "type": "address"
        },
        {
          "internalType": "address",
          "name": "_destination",
          "type": "address"
        },
        {
          "internalType": "uint256",
          "name": "_share",
          "type": "uint256"
        },
        {
          "internalType": "bytes",
          "name": "_data",
          "type": "bytes"
        }
      ],
      "name": "moveStake",
      "outputs": [],
      "stateMutability": "nonpayable",
      "type": "function"
    },
    {
      "inputs": [],
      "name": "netAssetPerShare",
      "outputs": [
        {
          "internalType": "uint256",
          "name": "",
          "type": "uint256"
        }
      ],
      "stateMutability": "view",
      "type": "function"
    },
    {
      "inputs": [],
      "name": "netAssetValuation",
      "outputs": [
        {
          "internalType": "uint256",
          "name": "",
          "type": "uint256"
        }
      ],
      "stateMutability": "view",
      "type": "function"
    },
    {
      "inputs": [
        {
          "internalType": "address",
          "name": "_positionAddress",
          "type": "address"
        }
      ],
      "name": "netPendingRewards",
      "outputs": [
        {
          "internalType": "uint256",
          "name": "",
          "type": "uint256"
        }
      ],
      "stateMutability": "view",
      "type": "function"
    },
    {
      "inputs": [
        {
          "internalType": "address",
          "name": "_source",
          "type": "address"
        },
        {
          "internalType": "address",
          "name": "_destination",
          "type": "address"
        },
        {
          "internalType": "int256",
          "name": "_collateralValue",
          "type": "int256"
        },
        {
          "internalType": "int256",
          "name": "",
          "type": "int256"
        },
        {
          "internalType": "bytes",
          "name": "_data",
          "type": "bytes"
        }
      ],
      "name": "onAdjustPosition",
      "outputs": [],
      "stateMutability": "nonpayable",
      "type": "function"
    },
    {
      "inputs": [
        {
          "internalType": "address",
          "name": "_source",
          "type": "address"
        },
        {
          "internalType": "address",
          "name": "_destination",
          "type": "address"
        },
        {
          "internalType": "uint256",
          "name": "_share",
          "type": "uint256"
        },
        {
          "internalType": "bytes",
          "name": "_data",
          "type": "bytes"
        }
      ],
      "name": "onMoveCollateral",
      "outputs": [],
      "stateMutability": "nonpayable",
      "type": "function"
    },
    {
      "inputs": [],
      "name": "pause",
      "outputs": [],
      "stateMutability": "nonpayable",
      "type": "function"
    },
    {
      "inputs": [],
      "name": "paused",
      "outputs": [
        {
          "internalType": "bool",
          "name": "",
          "type": "bool"
        }
      ],
      "stateMutability": "view",
      "type": "function"
    },
    {
      "inputs": [
        {
          "internalType": "address",
          "name": "_positionAddress",
          "type": "address"
        }
      ],
      "name": "pendingRewards",
      "outputs": [
        {
          "internalType": "uint256",
          "name": "",
          "type": "uint256"
        }
      ],
      "stateMutability": "view",
      "type": "function"
    },
    {
      "inputs": [],
      "name": "pid",
      "outputs": [
        {
          "internalType": "uint256",
          "name": "",
          "type": "uint256"
        }
      ],
      "stateMutability": "view",
      "type": "function"
    },
    {
      "inputs": [],
      "name": "positionManager",
      "outputs": [
        {
          "internalType": "contract IManager",
          "name": "",
          "type": "address"
        }
      ],
      "stateMutability": "view",
      "type": "function"
    },
    {
      "inputs": [],
      "name": "refreshApproval",
      "outputs": [],
      "stateMutability": "nonpayable",
      "type": "function"
    },
    {
      "inputs": [
        {
          "internalType": "address",
          "name": "",
          "type": "address"
        }
      ],
      "name": "rewardDebts",
      "outputs": [
        {
          "internalType": "uint256",
          "name": "",
          "type": "uint256"
        }
      ],
      "stateMutability": "view",
      "type": "function"
    },
    {
      "inputs": [],
      "name": "rewardToken",
      "outputs": [
        {
          "internalType": "contract IToken",
          "name": "",
          "type": "address"
        }
      ],
      "stateMutability": "view",
      "type": "function"
    },
    {
      "inputs": [
        {
          "internalType": "address",
          "name": "_treasuryAccount",
          "type": "address"
        }
      ],
      "name": "setTreasuryAccount",
      "outputs": [],
      "stateMutability": "nonpayable",
      "type": "function"
    },
    {
      "inputs": [
        {
          "internalType": "uint256",
          "name": "_treasuryFeeBps",
          "type": "uint256"
        }
      ],
      "name": "setTreasuryFeeBps",
      "outputs": [],
      "stateMutability": "nonpayable",
      "type": "function"
    },
    {
      "inputs": [],
      "name": "shield",
      "outputs": [
        {
          "internalType": "contract IShield",
          "name": "",
          "type": "address"
        }
      ],
      "stateMutability": "view",
      "type": "function"
    },
    {
      "inputs": [
        {
          "internalType": "address",
          "name": "",
          "type": "address"
        }
      ],
      "name": "stake",
      "outputs": [
        {
          "internalType": "uint256",
          "name": "",
          "type": "uint256"
        }
      ],
      "stateMutability": "view",
      "type": "function"
    },
    {
      "inputs": [],
      "name": "timelock",
      "outputs": [
        {
          "internalType": "contract ITimeLock",
          "name": "",
          "type": "address"
        }
      ],
      "stateMutability": "view",
      "type": "function"
    },
    {
      "inputs": [],
      "name": "totalShare",
      "outputs": [
        {
          "internalType": "uint256",
          "name": "",
          "type": "uint256"
        }
      ],
      "stateMutability": "view",
      "type": "function"
    },
    {
      "inputs": [],
      "name": "treasuryAccount",
      "outputs": [
        {
          "internalType": "address",
          "name": "",
          "type": "address"
        }
      ],
      "stateMutability": "view",
      "type": "function"
    },
    {
      "inputs": [],
      "name": "treasuryFeeBps",
      "outputs": [
        {
          "internalType": "uint256",
          "name": "",
          "type": "uint256"
        }
      ],
      "stateMutability": "view",
      "type": "function"
    },
    {
      "inputs": [],
      "name": "uncage",
      "outputs": [],
      "stateMutability": "nonpayable",
      "type": "function"
    },
    {
      "inputs": [],
      "name": "unpause",
      "outputs": [],
      "stateMutability": "nonpayable",
      "type": "function"
    },
    {
      "inputs": [
        {
          "internalType": "address",
          "name": "_usr",
          "type": "address"
        },
        {
          "internalType": "uint256",
          "name": "_amount",
          "type": "uint256"
        },
        {
          "internalType": "bytes",
          "name": "",
          "type": "bytes"
        }
      ],
      "name": "withdraw",
      "outputs": [],
      "stateMutability": "nonpayable",
      "type": "function"
    }
  ],
  "bytecode": "0x608060405234801561001057600080fd5b50614743806100206000396000f3fe6080604052600436106101aa5760003560e01c806301f7f89f146101af578063026c4207146101f45780630ea040d01461020957806323905f631461023c57806326476204146102c1578063313ce567146102f457806331d7a2621461030957806331f092651461033c578063331fb00f146103cc578063339b2cff146103f65780633e3be859146104275780633f4ba83a1461043c57806349bdc2b8146104515780635c975abb146104d457806369245009146104fd5780636ff1c9bc1461051257806370d39cff14610545578063791b98bc1461055a5780638217b8461461056f5780638456cb5914610584578063939d623714610599578063944eef42146105ae578063957aa58c146105c357806399443616146105d8578063a3b1513814610673578063b2016bd41461070e578063bf33a1f514610723578063d33219b414610738578063d63b23b21461074d578063d886f8a214610762578063dca07dc514610795578063e3b3932a146107aa578063e80cfa5e146107bf578063e9592780146107d4578063f1068454146107e9578063f77c4036146107fe578063f7c618c11461089e575b600080fd5b3480156101bb57600080fd5b506101e2600480360360208110156101d257600080fd5b50356001600160a01b03166108b3565b60408051918252519081900360200190f35b34801561020057600080fd5b506101e2610948565b34801561021557600080fd5b506101e26004803603602081101561022c57600080fd5b50356001600160a01b031661094e565b34801561024857600080fd5b506102bf600480360361016081101561026057600080fd5b506001600160a01b03813581169160208101359160408201358116916060810135821691608082013581169160a08101359160c082013581169160e0810135821691610100820135916101208101358216916101409091013516610960565b005b3480156102cd57600080fd5b506101e2600480360360208110156102e457600080fd5b50356001600160a01b0316610fb9565b34801561030057600080fd5b506101e2610fcb565b34801561031557600080fd5b506101e26004803603602081101561032c57600080fd5b50356001600160a01b0316610fd1565b34801561034857600080fd5b506102bf6004803603606081101561035f57600080fd5b6001600160a01b0382351691602081013591810190606081016040820135600160201b81111561038e57600080fd5b8201836020820111156103a057600080fd5b803590602001918460018302840111600160201b831117156103c157600080fd5b509092509050611060565b3480156103d857600080fd5b506102bf600480360360208110156103ef57600080fd5b5035611194565b34801561040257600080fd5b5061040b6113ef565b604080516001600160a01b039092168252519081900360200190f35b34801561043357600080fd5b506101e26113fe565b34801561044857600080fd5b506102bf611404565b6102bf6004803603606081101561046757600080fd5b6001600160a01b0382351691602081013591810190606081016040820135600160201b81111561049657600080fd5b8201836020820111156104a857600080fd5b803590602001918460018302840111600160201b831117156104c957600080fd5b50909250905061169c565b3480156104e057600080fd5b506104e9611740565b604080519115158252519081900360200190f35b34801561050957600080fd5b506102bf61174a565b34801561051e57600080fd5b506102bf6004803603602081101561053557600080fd5b50356001600160a01b0316611aac565b34801561055157600080fd5b5061040b611c0e565b34801561056657600080fd5b5061040b611c1d565b34801561057b57600080fd5b506101e2611c2c565b34801561059057600080fd5b506102bf611c32565b3480156105a557600080fd5b506101e2611ec7565b3480156105ba57600080fd5b5061040b611ecd565b3480156105cf57600080fd5b506101e2611edc565b3480156105e457600080fd5b506102bf600480360360808110156105fb57600080fd5b6001600160a01b03823581169260208101359091169160408201359190810190608081016060820135600160201b81111561063557600080fd5b82018360208201111561064757600080fd5b803590602001918460018302840111600160201b8311171561066857600080fd5b509092509050611ee2565b34801561067f57600080fd5b506102bf6004803603608081101561069657600080fd5b6001600160a01b03823581169260208101359091169160408201359190810190608081016060820135600160201b8111156106d057600080fd5b8201836020820111156106e257600080fd5b803590602001918460018302840111600160201b8311171561070357600080fd5b509092509050611fa0565b34801561071a57600080fd5b5061040b612038565b34801561072f57600080fd5b506102bf612047565b34801561074457600080fd5b5061040b612247565b34801561075957600080fd5b506102bf612256565b34801561076e57600080fd5b506102bf6004803603602081101561078557600080fd5b50356001600160a01b03166124e6565b3480156107a157600080fd5b506101e261275e565b3480156107b657600080fd5b5061040b612764565b3480156107cb57600080fd5b506101e2612773565b3480156107e057600080fd5b506101e2612779565b3480156107f557600080fd5b506101e26127af565b34801561080a57600080fd5b506102bf600480360360a081101561082157600080fd5b6001600160a01b03823581169260208101359091169160408201359160608101359181019060a081016080820135600160201b81111561086057600080fd5b82018360208201111561087257600080fd5b803590602001918460018302840111600160201b8311171561089357600080fd5b5090925090506127b5565b3480156108aa57600080fd5b5061040b61287e565b609754609a54604080516394443b7360e01b81526004810192909252306024830152516000926109429285926001600160a01b03909216916394443b7391604480820192602092909190829003018186803b15801561091157600080fd5b505afa158015610925573d6000803e3d6000fd5b505050506040513d602081101561093b57600080fd5b505161288d565b92915050565b60a55481565b60a76020526000908152604090205481565b600054610100900460ff168061097957506109796128ca565b80610987575060005460ff16155b6109c25760405162461bcd60e51b815260040180806020018281038252602e8152602001806145c3602e913960400191505060405180910390fd5b600054610100900460ff161580156109ed576000805460ff1961ff0019909116610100171660011790555b6109f56128db565b6109fd61298c565b6000886001600160a01b0316631526fe27896040518263ffffffff1660e01b81526004018082815260200191505060a06040518083038186803b158015610a4357600080fd5b505afa158015610a57573d6000803e3d6000fd5b505050506040513d60a0811015610a6d57600080fd5b505190506001600160a01b03808216908c1614610abb5760405162461bcd60e51b81526004018080602001828103825260288152602001806145f16028913960400191505060405180910390fd5b896001600160a01b0316896001600160a01b03166394faab236040518163ffffffff1660e01b815260040160206040518083038186803b158015610afe57600080fd5b505afa158015610b12573d6000803e3d6000fd5b505050506040513d6020811015610b2857600080fd5b50516001600160a01b031614610b6f5760405162461bcd60e51b815260040180806020018281038252602581526020018061455b6025913960400191505060405180910390fd5b866001600160a01b0316896001600160a01b0316638da5cb5b6040518163ffffffff1660e01b815260040160206040518083038186803b158015610bb257600080fd5b505afa158015610bc6573d6000803e3d6000fd5b505050506040513d6020811015610bdc57600080fd5b50516001600160a01b031614610c39576040805162461bcd60e51b815260206004820152601f60248201527f4962546f6b656e416461707465722f736869656c642d6e6f742d6d6174636800604482015290519081900360640190fd5b856001600160a01b0316876001600160a01b0316638da5cb5b6040518163ffffffff1660e01b815260040160206040518083038186803b158015610c7c57600080fd5b505afa158015610c90573d6000803e3d6000fd5b505050506040513d6020811015610ca657600080fd5b50516001600160a01b031614610ced5760405162461bcd60e51b81526004018080602001828103825260218152602001806146396021913960400191505060405180910390fd5b88609760006101000a8154816001600160a01b0302191690836001600160a01b0316021790555086609860006101000a8154816001600160a01b0302191690836001600160a01b0316021790555085609960006101000a8154816001600160a01b0302191690836001600160a01b0316021790555087609a819055506001609d819055508c609e60006101000a8154816001600160a01b0302191690836001600160a01b031602179055508b609f819055508a60a060006101000a8154816001600160a01b0302191690836001600160a01b0316021790555060a060009054906101000a90046001600160a01b03166001600160a01b031663313ce5676040518163ffffffff1660e01b815260040160206040518083038186803b158015610e1457600080fd5b505afa158015610e28573d6000803e3d6000fd5b505050506040513d6020811015610e3e57600080fd5b505160ff1660a181905560121015610e9c576040805162461bcd60e51b815260206004820152601c60248201527b092c4a8ded6cadc82c8c2e0e8cae45ec8cac6d2dac2d8e6407c4062760231b604482015290519081900360640190fd5b60a1546012819003600a90810a60a9550a60aa5560a280546001600160a01b0319166001600160a01b038c8116919091179091558416610f0d5760405162461bcd60e51b81526004018080602001828103825260238152602001806145806023913960400191505060405180910390fd5b611388851115610f4e5760405162461bcd60e51b81526004018080602001828103825260238152602001806146836023913960400191505060405180910390fd5b609b859055609c80546001600160a01b038087166001600160a01b03199283161790925560a38054868416921691909117905560975460a054610f98929081169116600019612a21565b508015610fab576000805461ff00191690555b505050505050505050505050565b60a86020526000908152604090205481565b60a15481565b609754609a54604080516394443b7360e01b81526004810192909252306024830152516000926109429285926001600160a01b03909216916394443b7391604480820192602092909190829003018186803b15801561102f57600080fd5b505afa158015611043573d6000803e3d6000fd5b505050506040513d602081101561105957600080fd5b5051612b7a565b600260655414156110a6576040805162461bcd60e51b815260206004820152601f602482015260008051602061453b833981519152604482015290519081900360640190fd5b60026065556110b3611740565b156110f8576040805162461bcd60e51b815260206004820152601060248201526f14185d5cd8589b194e881c185d5cd95960821b604482015290519081900360640190fd5b609d546001141561117f57821561117f57609754609a5460408051635ae2fb3960e11b8152306004820152602481019290925260448201869052516001600160a01b039092169163b5c5f6729160648082019260009290919082900301818387803b15801561116657600080fd5b505af115801561117a573d6000803e3d6000fd5b505050505b6111898484612cbc565b505060016065555050565b609e546040805163c8cc243f60e01b815290516000926001600160a01b03169163c8cc243f916004808301926020929190829003018186803b1580156111d957600080fd5b505afa1580156111ed573d6000803e3d6000fd5b505050506040513d602081101561120357600080fd5b50516040805163e58378bb60e01b815290519192506001600160a01b038316916391d1485491839163e58378bb91600480820192602092909190829003018186803b15801561125157600080fd5b505afa158015611265573d6000803e3d6000fd5b505050506040513d602081101561127b57600080fd5b5051604080516001600160e01b031960e085901b1681526004810192909252336024830152516044808301926020929190829003018186803b1580156112c057600080fd5b505afa1580156112d4573d6000803e3d6000fd5b505050506040513d60208110156112ea57600080fd5b505161132a576040805162461bcd60e51b815260206004820152600a602482015269216f776e6572526f6c6560b01b604482015290519081900360640190fd5b609d5460011461136f576040805162461bcd60e51b815260206004820152601760248201526000805160206145a3833981519152604482015290519081900360640190fd5b6113888211156113b05760405162461bcd60e51b81526004018080602001828103825260238152602001806146836023913960400191505060405180910390fd5b609b82905560408051838152905133917fc4a68586da2556b3c4dd5c980f9707a3a5c41545f6e23a71be744bd18851a99b919081900360200190a25050565b609c546001600160a01b031681565b60a65481565b609e546040805163c8cc243f60e01b815290516000926001600160a01b03169163c8cc243f916004808301926020929190829003018186803b15801561144957600080fd5b505afa15801561145d573d6000803e3d6000fd5b505050506040513d602081101561147357600080fd5b50516040805163e58378bb60e01b815290519192506001600160a01b038316916391d1485491839163e58378bb91600480820192602092909190829003018186803b1580156114c157600080fd5b505afa1580156114d5573d6000803e3d6000fd5b505050506040513d60208110156114eb57600080fd5b5051604080516001600160e01b031960e085901b1681526004810192909252336024830152516044808301926020929190829003018186803b15801561153057600080fd5b505afa158015611544573d6000803e3d6000fd5b505050506040513d602081101561155a57600080fd5b5051806116465750806001600160a01b03166391d14854826001600160a01b031663b536818a6040518163ffffffff1660e01b815260040160206040518083038186803b1580156115aa57600080fd5b505afa1580156115be573d6000803e3d6000fd5b505050506040513d60208110156115d457600080fd5b5051604080516001600160e01b031960e085901b1681526004810192909252336024830152516044808301926020929190829003018186803b15801561161957600080fd5b505afa15801561162d573d6000803e3d6000fd5b505050506040513d602081101561164357600080fd5b50515b611691576040805162461bcd60e51b815260206004820152601760248201527621286f776e6572526f6c65206f7220676f76526f6c652960481b604482015290519081900360640190fd5b611699612ead565b50565b600260655414156116e2576040805162461bcd60e51b815260206004820152601f602482015260008051602061453b833981519152604482015290519081900360640190fd5b60026065556116ef611740565b15611734576040805162461bcd60e51b815260206004820152601060248201526f14185d5cd8589b194e881c185d5cd95960821b604482015290519081900360640190fd5b61118984848484612f4d565b60335460ff165b90565b60026065541415611790576040805162461bcd60e51b815260206004820152601f602482015260008051602061453b833981519152604482015290519081900360640190fd5b6002606555609e546040805163c8cc243f60e01b815290516000926001600160a01b03169163c8cc243f916004808301926020929190829003018186803b1580156117da57600080fd5b505afa1580156117ee573d6000803e3d6000fd5b505050506040513d602081101561180457600080fd5b50516040805163e58378bb60e01b815290519192506001600160a01b038316916391d1485491839163e58378bb91600480820192602092909190829003018186803b15801561185257600080fd5b505afa158015611866573d6000803e3d6000fd5b505050506040513d602081101561187c57600080fd5b5051604080516001600160e01b031960e085901b1681526004810192909252336024830152516044808301926020929190829003018186803b1580156118c157600080fd5b505afa1580156118d5573d6000803e3d6000fd5b505050506040513d60208110156118eb57600080fd5b505180611977575060995460985460408051638da5cb5b60e01b815290516001600160a01b039384169390921691638da5cb5b91600480820192602092909190829003018186803b15801561193f57600080fd5b505afa158015611953573d6000803e3d6000fd5b505050506040513d602081101561196957600080fd5b50516001600160a01b031614155b6119c8576040805162461bcd60e51b815260206004820152601d60248201527f4962546f6b656e416461707465722f6e6f742d617574686f72697a6564000000604482015290519081900360640190fd5b609d54600114611a0d576040805162461bcd60e51b815260206004820152601760248201526000805160206145a3833981519152604482015290519081900360640190fd5b609754609a5460408051632989754760e11b81526004810192909252516001600160a01b0390921691635312ea8e9160248082019260009290919082900301818387803b158015611a5d57600080fd5b505af1158015611a71573d6000803e3d6000fd5b50506000609d8190556040517fbf689b4aae670d200b1d2b971ace2e0c3bef88a9c5e93f36705c7b86eab630b99350909150a1506001606555565b60026065541415611af2576040805162461bcd60e51b815260206004820152601f602482015260008051602061453b833981519152604482015290519081900360640190fd5b6002606555609d5460011415611bfd57609e54609f5460408051633e2f890b60e21b81526004810192909252336024830152516000926001600160a01b03169163f8be242c916044808301926020929190829003018186803b158015611b5757600080fd5b505afa158015611b6b573d6000803e3d6000fd5b505050506040513d6020811015611b8157600080fd5b5051609754609a5460408051635ae2fb3960e11b8152306004820152602481019290925260448201849052519293506001600160a01b039091169163b5c5f6729160648082019260009290919082900301818387803b158015611be357600080fd5b505af1158015611bf7573d6000803e3d6000fd5b50505050505b611c06816131e0565b506001606555565b6098546001600160a01b031681565b60a3546001600160a01b031681565b60a55490565b609e546040805163c8cc243f60e01b815290516000926001600160a01b03169163c8cc243f916004808301926020929190829003018186803b158015611c7757600080fd5b505afa158015611c8b573d6000803e3d6000fd5b505050506040513d6020811015611ca157600080fd5b50516040805163e58378bb60e01b815290519192506001600160a01b038316916391d1485491839163e58378bb91600480820192602092909190829003018186803b158015611cef57600080fd5b505afa158015611d03573d6000803e3d6000fd5b505050506040513d6020811015611d1957600080fd5b5051604080516001600160e01b031960e085901b1681526004810192909252336024830152516044808301926020929190829003018186803b158015611d5e57600080fd5b505afa158015611d72573d6000803e3d6000fd5b505050506040513d6020811015611d8857600080fd5b505180611e745750806001600160a01b03166391d14854826001600160a01b031663b536818a6040518163ffffffff1660e01b815260040160206040518083038186803b158015611dd857600080fd5b505afa158015611dec573d6000803e3d6000fd5b505050506040513d6020811015611e0257600080fd5b5051604080516001600160e01b031960e085901b1681526004810192909252336024830152516044808301926020929190829003018186803b158015611e4757600080fd5b505afa158015611e5b573d6000803e3d6000fd5b505050506040513d6020811015611e7157600080fd5b50515b611ebf576040805162461bcd60e51b815260206004820152601760248201527621286f776e6572526f6c65206f7220676f76526f6c652960481b604482015290519081900360640190fd5b6116996133f3565b60a45481565b6097546001600160a01b031681565b609d5481565b60026065541415611f28576040805162461bcd60e51b815260206004820152601f602482015260008051602061453b833981519152604482015290519081900360640190fd5b6002606555611f35611740565b15611f7a576040805162461bcd60e51b815260206004820152601060248201526f14185d5cd8589b194e881c185d5cd95960821b604482015290519081900360640190fd5b611f878560008484612f4d565b611f948585858585613476565b50506001606555505050565b60026065541415611fe6576040805162461bcd60e51b815260206004820152601f602482015260008051602061453b833981519152604482015290519081900360640190fd5b6002606555611ff3611740565b15611f87576040805162461bcd60e51b815260206004820152601060248201526f14185d5cd8589b194e881c185d5cd95960821b604482015290519081900360640190fd5b60a0546001600160a01b031681565b6002606554141561208d576040805162461bcd60e51b815260206004820152601f602482015260008051602061453b833981519152604482015290519081900360640190fd5b6002606555609e546040805163c8cc243f60e01b815290516000926001600160a01b03169163c8cc243f916004808301926020929190829003018186803b1580156120d757600080fd5b505afa1580156120eb573d6000803e3d6000fd5b505050506040513d602081101561210157600080fd5b50516040805163e58378bb60e01b815290519192506001600160a01b038316916391d1485491839163e58378bb91600480820192602092909190829003018186803b15801561214f57600080fd5b505afa158015612163573d6000803e3d6000fd5b505050506040513d602081101561217957600080fd5b5051604080516001600160e01b031960e085901b1681526004810192909252336024830152516044808301926020929190829003018186803b1580156121be57600080fd5b505afa1580156121d2573d6000803e3d6000fd5b505050506040513d60208110156121e857600080fd5b5051612228576040805162461bcd60e51b815260206004820152600a602482015269216f776e6572526f6c6560b01b604482015290519081900360640190fd5b60975460a054611c06916001600160a01b039182169116600019612a21565b6099546001600160a01b031681565b609e546040805163c8cc243f60e01b815290516000926001600160a01b03169163c8cc243f916004808301926020929190829003018186803b15801561229b57600080fd5b505afa1580156122af573d6000803e3d6000fd5b505050506040513d60208110156122c557600080fd5b50516040805163e58378bb60e01b815290519192506001600160a01b038316916391d1485491839163e58378bb91600480820192602092909190829003018186803b15801561231357600080fd5b505afa158015612327573d6000803e3d6000fd5b505050506040513d602081101561233d57600080fd5b5051604080516001600160e01b031960e085901b1681526004810192909252336024830152516044808301926020929190829003018186803b15801561238257600080fd5b505afa158015612396573d6000803e3d6000fd5b505050506040513d60208110156123ac57600080fd5b50516123ec576040805162461bcd60e51b815260206004820152600a602482015269216f776e6572526f6c6560b01b604482015290519081900360640190fd5b609d541561243c576040805162461bcd60e51b81526020600482015260186024820152771258951bdad95b9059185c1d195c8bdb9bdd0b58d859d95960421b604482015290519081900360640190fd5b609754609a5460a55460408051630efe6a8b60e01b815230600482015260248101939093526044830191909152516001600160a01b0390921691630efe6a8b9160648082019260009290919082900301818387803b15801561249d57600080fd5b505af11580156124b1573d6000803e3d6000fd5b50506001609d5550506040517f1868a6ced217213f36be87ba9aee25cde5381b42e85c8f88e73b18772c0bd07390600090a150565b609e546040805163c8cc243f60e01b815290516000926001600160a01b03169163c8cc243f916004808301926020929190829003018186803b15801561252b57600080fd5b505afa15801561253f573d6000803e3d6000fd5b505050506040513d602081101561255557600080fd5b50516040805163e58378bb60e01b815290519192506001600160a01b038316916391d1485491839163e58378bb91600480820192602092909190829003018186803b1580156125a357600080fd5b505afa1580156125b7573d6000803e3d6000fd5b505050506040513d60208110156125cd57600080fd5b5051604080516001600160e01b031960e085901b1681526004810192909252336024830152516044808301926020929190829003018186803b15801561261257600080fd5b505afa158015612626573d6000803e3d6000fd5b505050506040513d602081101561263c57600080fd5b505161267c576040805162461bcd60e51b815260206004820152600a602482015269216f776e6572526f6c6560b01b604482015290519081900360640190fd5b609d546001146126c1576040805162461bcd60e51b815260206004820152601760248201526000805160206145a3833981519152604482015290519081900360640190fd5b6001600160a01b0382166127065760405162461bcd60e51b81526004018080602001828103825260238152602001806145806023913960400191505060405180910390fd5b609c80546001600160a01b0384166001600160a01b03199091168117909155604080519182525133917fb4d09ab4c7ddf7a7c96bead0c779f3194bc1c10dd5028fbc751e5abe334cf779919081900360200190a25050565b609f5481565b609e546001600160a01b031681565b609b5481565b600060a554600014156127955750670de0b6b3a7640000611747565b6127a86127a0611c2c565b60a5546139e5565b9050611747565b609a5481565b600260655414156127fb576040805162461bcd60e51b815260206004820152601f602482015260008051602061453b833981519152604482015290519081900360640190fd5b6002606555612808611740565b1561284d576040805162461bcd60e51b815260206004820152601060248201526f14185d5cd8589b194e881c185d5cd95960821b604482015290519081900360640190fd5b600080851261285c5784612861565b846000035b90506128708787838686613476565b505060016065555050505050565b60a2546001600160a01b031681565b60008061289a8484612b7a565b905060006128b56128ad83609b54613a09565b612710613a6c565b90506128c18282613ac1565b95945050505050565b60006128d530613b11565b15905090565b600054610100900460ff16806128f457506128f46128ca565b80612902575060005460ff16155b61293d5760405162461bcd60e51b815260040180806020018281038252602e8152602001806145c3602e913960400191505060405180910390fd5b600054610100900460ff16158015612968576000805460ff1961ff0019909116610100171660011790555b612970613b17565b612978613bb7565b8015611699576000805461ff001916905550565b600054610100900460ff16806129a557506129a56128ca565b806129b3575060005460ff16155b6129ee5760405162461bcd60e51b815260040180806020018281038252602e8152602001806145c3602e913960400191505060405180910390fd5b600054610100900460ff16158015612a19576000805460ff1961ff0019909116610100171660011790555b612978613c62565b604080516001600160a01b038481166024830152604480830185905283518084039091018152606490920183526020820180516001600160e01b031663095ea7b360e01b178152925182516000946060949389169392918291908083835b60208310612a9e5780518252601f199092019160209182019101612a7f565b6001836020036101000a0380198251168184511680821785525050505050509050019150506000604051808303816000865af19150503d8060008114612b00576040519150601f19603f3d011682016040523d82523d6000602084013e612b05565b606091505b5091509150818015612b33575080511580612b335750808060200190516020811015612b3057600080fd5b50515b612b73576040805162461bcd60e51b815260206004820152600c60248201526b2173616665417070726f766560a01b604482015290519081900360640190fd5b5050505050565b600060a55460001415612b8f57506000610942565b60a254604080516370a0823160e01b81523060048201529051600092612c1d92612c159287926001600160a01b0316916370a08231916024808301926020929190829003018186803b158015612be457600080fd5b505afa158015612bf8573d6000803e3d6000fd5b505050506040513d6020811015612c0e57600080fd5b5051613d08565b60a654613ac1565b90506000612c3860a454612c338460a554613d57565b613d08565b6001600160a01b038616600090815260a8602052604081205491925090612c5f9083613d6f565b6001600160a01b038716600090815260a76020526040902054909150811115612cb0576001600160a01b038616600090815260a76020526040902054612ca6908290613ac1565b9350505050610942565b60009350505050610942565b612cc533613d87565b8015612e43576000612ce9612cdc8360a954613a09565b612ce4612779565b613fa2565b905060008113612d2e576040805162461bcd60e51b815260206004820152601d6024820152600080516020614619833981519152604482015290519081900360640190fd5b33600090815260a86020526040902054811115612d7c5760405162461bcd60e51b815260040180806020018281038252602981526020018061465a6029913960400191505060405180910390fd5b609e54609f546040805163694ac93d60e11b815260048101929092523360248301526000848103604484015290516001600160a01b039093169263d295927a92606480820193929182900301818387803b158015612dd957600080fd5b505af1158015612ded573d6000803e3d6000fd5b50505050612dfd60a55482613ac1565b60a55533600090815260a86020526040902054612e1a9082613ac1565b33600090815260a8602052604090205560a054612e41906001600160a01b03168484613fc6565b505b33600090815260a8602052604090205460a454612e609190614119565b33600090815260a7602090815260409182902092909255805183815290517f879a83fc17750905b8aef4ef85e6701b84a50e15d4463dc3c2e7fb0f9dbcf75d929181900390910190a15050565b612eb5611740565b612efd576040805162461bcd60e51b815260206004820152601460248201527314185d5cd8589b194e881b9bdd081c185d5cd95960621b604482015290519081900360640190fd5b6033805460ff191690557f5db9ee0a495bf2e6ff9c91a7834c1ba4fdd244a5e8aa4e537bd38aeae4b073aa612f30614139565b604080516001600160a01b039092168252519081900360200190a1565b609d54600114612f9e576040805162461bcd60e51b81526020600482015260176024820152764962546f6b656e416461707465722f6e6f74206c69766560481b604482015290519081900360640190fd5b612fa784613d87565b82156130ec576000612fcb612fbe8560a954613a09565b612fc6612779565b6139e5565b905060008113613010576040805162461bcd60e51b815260206004820152601d6024820152600080516020614619833981519152604482015290519081900360640190fd5b60a054613028906001600160a01b031633308761413d565b609e54609f546040805163694ac93d60e11b815260048101929092526001600160a01b03888116602484015260448301859052905192169163d295927a9160648082019260009290919082900301818387803b15801561308757600080fd5b505af115801561309b573d6000803e3d6000fd5b505050506130ab60a55482613d08565b60a5556001600160a01b038516600090815260a860205260409020546130d19082613d08565b6001600160a01b038616600090815260a86020526040902055505b6001600160a01b038416600090815260a8602052604090205460a4546131129190614119565b6001600160a01b038516600090815260a7602052604090205582156131a757609754609a5460408051630efe6a8b60e01b8152306004820152602481019290925260448201869052516001600160a01b0390921691630efe6a8b9160648082019260009290919082900301818387803b15801561318e57600080fd5b505af11580156131a2573d6000803e3d6000fd5b505050505b6040805184815290517ff641ad64267ca71156d13749ad746155df3095d9afeb604fe3b53016ce5fc8ba9181900360200190a150505050565b609e54609f5460408051633e2f890b60e21b81526004810192909252336024830152516000926001600160a01b03169163f8be242c916044808301926020929190829003018186803b15801561323557600080fd5b505afa158015613249573d6000803e3d6000fd5b505050506040513d602081101561325f57600080fd5b50519050600160ff1b81106132a9576040805162461bcd60e51b815260206004820152601d6024820152600080516020614619833981519152604482015290519081900360640190fd5b60006132c76132bf836132ba612779565b6142a4565b60aa546142a4565b609e54609f546040805163694ac93d60e11b815260048101929092523360248301526000868103604484015290519394506001600160a01b039092169263d295927a9260648084019391929182900301818387803b15801561332857600080fd5b505af115801561333c573d6000803e3d6000fd5b5050505061334c60a55483613ac1565b60a55533600090815260a860205260409020546133699083613ac1565b33600090815260a86020526040902081905560a4546133889190614119565b33600090815260a7602052604090205560a0546133af906001600160a01b03168483613fc6565b604080516001600160a01b0385168152905133917f6ba7f365fdc489ae6b61ea2021626b6df9cff6f0280e8e1658e5d7f87794f0c8919081900360200190a2505050565b6133fb611740565b15613440576040805162461bcd60e51b815260206004820152601060248201526f14185d5cd8589b194e881c185d5cd95960821b604482015290519081900360640190fd5b6033805460ff191660011790557f62e78cea01bee320cd4e420270b5ea74000d11b0c9f74754ebdbfc544b05a258612f30614139565b609e546040805163c8cc243f60e01b815290516000926001600160a01b03169163c8cc243f916004808301926020929190829003018186803b1580156134bb57600080fd5b505afa1580156134cf573d6000803e3d6000fd5b505050506040513d60208110156134e557600080fd5b505160408051632e718ab760e01b815290519192506001600160a01b038316916391d14854918391632e718ab791600480820192602092909190829003018186803b15801561353357600080fd5b505afa158015613547573d6000803e3d6000fd5b505050506040513d602081101561355d57600080fd5b5051604080516001600160e01b031960e085901b1681526004810192909252336024830152516044808301926020929190829003018186803b1580156135a257600080fd5b505afa1580156135b6573d6000803e3d6000fd5b505050506040513d60208110156135cc57600080fd5b5051613614576040805162461bcd60e51b815260206004820152601260248201527110b1b7b63630ba32b930b626b0b730b3b2b960711b604482015290519081900360640190fd5b6001600160a01b038616600090815260a860205260409020546136378186613ac1565b6001600160a01b03808916600090815260a8602052604080822093909355908816815220546136669086613d08565b6001600160a01b03808816600090815260a86020908152604080832094909455918a16815260a79091529081205490826136a08389613a09565b816136a757fe5b6001600160a01b03808c16600090815260a7602052604080822094909304808703909455908b16815220549091506136df9082613d08565b6001600160a01b03808a16600090815260a7602052604080822093909355609e54609f548451630a76216560e21b815260048101919091528d841660248201528451929491909316926329d885949260448083019392829003018186803b15801561374957600080fd5b505afa15801561375d573d6000803e3d6000fd5b505050506040513d604081101561377357600080fd5b5051609e54609f5460408051633e2f890b60e21b815260048101929092526001600160a01b038e8116602484015290519394506138059392169163f8be242c91604480820192602092909190829003018186803b1580156137d357600080fd5b505afa1580156137e7573d6000803e3d6000fd5b505050506040513d60208110156137fd57600080fd5b505182613d08565b6001600160a01b038b16600090815260a86020526040902054101561385b5760405162461bcd60e51b81526004018080602001828103825260428152602001806146cc6042913960600191505060405180910390fd5b609e54609f5460408051630a76216560e21b815260048101929092526001600160a01b038c8116602484015281519316926329d88594926044808201939291829003018186803b1580156138ae57600080fd5b505afa1580156138c2573d6000803e3d6000fd5b505050506040513d60408110156138d857600080fd5b5051609e54609f5460408051633e2f890b60e21b815260048101929092526001600160a01b038d8116602484015290519394506139389392169163f8be242c91604480820192602092909190829003018186803b1580156137d357600080fd5b6001600160a01b038a16600090815260a86020526040902054111561398e5760405162461bcd60e51b81526004018080602001828103825260478152602001806144f46047913960600191505060405180910390fd5b886001600160a01b03168a6001600160a01b03167f11f8877fdec37577921d8bf36ca71ea534c8901eada496d759bce84bba46e2de8a6040518082815260200191505060405180910390a350505050505050505050565b6000816139fa84670de0b6b3a7640000613a09565b81613a0157fe5b049392505050565b6000811580613a2457505080820282828281613a2157fe5b04145b610942576040805162461bcd60e51b815260206004820152601460248201527364732d6d6174682d6d756c2d6f766572666c6f7760601b604482015290519081900360640190fd5b6000808211613ab8576040805162461bcd60e51b815260206004820152601360248201527264732d6d6174682d6469762d62792d7a65726f60681b604482015290519081900360640190fd5b818381613a0157fe5b80820382811115610942576040805162461bcd60e51b815260206004820152601560248201527464732d6d6174682d7375622d756e646572666c6f7760581b604482015290519081900360640190fd5b3b151590565b600054610100900460ff1680613b305750613b306128ca565b80613b3e575060005460ff16155b613b795760405162461bcd60e51b815260040180806020018281038252602e8152602001806145c3602e913960400191505060405180910390fd5b600054610100900460ff16158015612978576000805460ff1961ff0019909116610100171660011790558015611699576000805461ff001916905550565b600054610100900460ff1680613bd05750613bd06128ca565b80613bde575060005460ff16155b613c195760405162461bcd60e51b815260040180806020018281038252602e8152602001806145c3602e913960400191505060405180910390fd5b600054610100900460ff16158015613c44576000805460ff1961ff0019909116610100171660011790555b6033805460ff191690558015611699576000805461ff001916905550565b600054610100900460ff1680613c7b5750613c7b6128ca565b80613c89575060005460ff16155b613cc45760405162461bcd60e51b815260040180806020018281038252602e8152602001806145c3602e913960400191505060405180910390fd5b600054610100900460ff16158015613cef576000805460ff1961ff0019909116610100171660011790555b60016065558015611699576000805461ff001916905550565b80820182811015610942576040805162461bcd60e51b815260206004820152601460248201527364732d6d6174682d6164642d6f766572666c6f7760601b604482015290519081900360640190fd5b6000816139fa84676765c793fa10079d601b1b613a09565b6000676765c793fa10079d601b1b6139fa8484613a09565b60a35460408051633383f9ef60e11b81526001600160a01b03848116600483015291516000939290921691636707f3de91602480820192602092909190829003018186803b158015613dd857600080fd5b505afa158015613dec573d6000803e3d6000fd5b505050506040513d6020811015613e0257600080fd5b505190506001600160a01b038116613e175750805b6001600160a01b038116613e5c5760405162461bcd60e51b81526004018080602001828103825260268152602001806146a66026913960400191505060405180910390fd5b60a55415613e8157613e7d60a454612c33613e756142b9565b60a554613d57565b60a4555b6001600160a01b038216600090815260a7602090815260408083205460a890925282205460a454919291613eb59190613d6f565b905081811115613f22576000613ecb8284613ac1565b90506000613ede6128ad83609b54613a09565b609c5460a254919250613efe916001600160a01b03908116911683613fc6565b613f1f85613f0c8484613ac1565b60a2546001600160a01b03169190613fc6565b50505b60a254604080516370a0823160e01b815230600482015290516001600160a01b03909216916370a0823191602480820192602092909190829003018186803b158015613f6d57600080fd5b505afa158015613f81573d6000803e3d6000fd5b505050506040513d6020811015613f9757600080fd5b505160a65550505050565b6000613fbf613fb984670de0b6b3a7640000613a09565b836144e1565b9392505050565b604080516001600160a01b038481166024830152604480830185905283518084039091018152606490920183526020820180516001600160e01b031663a9059cbb60e01b178152925182516000946060949389169392918291908083835b602083106140435780518252601f199092019160209182019101614024565b6001836020036101000a0380198251168184511680821785525050505050509050019150506000604051808303816000865af19150503d80600081146140a5576040519150601f19603f3d011682016040523d82523d6000602084013e6140aa565b606091505b50915091508180156140d85750805115806140d857508080602001905160208110156140d557600080fd5b50515b612b73576040805162461bcd60e51b815260206004820152600d60248201526c10b9b0b332aa3930b739b332b960991b604482015290519081900360640190fd5b6000613fbf6141288484613a09565b676765c793fa10079d601b1b6144e1565b3390565b604080516001600160a01b0385811660248301528481166044830152606480830185905283518084039091018152608490920183526020820180516001600160e01b03166323b872dd60e01b17815292518251600094606094938a169392918291908083835b602083106141c25780518252601f1990920191602091820191016141a3565b6001836020036101000a0380198251168184511680821785525050505050509050019150506000604051808303816000865af19150503d8060008114614224576040519150601f19603f3d011682016040523d82523d6000602084013e614229565b606091505b5091509150818015614257575080511580614257575080806020019051602081101561425457600080fd5b50515b61429c576040805162461bcd60e51b815260206004820152601160248201527021736166655472616e7366657246726f6d60781b604482015290519081900360640190fd5b505050505050565b6000670de0b6b3a76400006139fa8484613a09565b6000609d546001141561445c57609754609a54604080516394443b7360e01b81526004810192909252306024830152516000926001600160a01b0316916394443b73916044808301926020929190829003018186803b15801561431b57600080fd5b505afa15801561432f573d6000803e3d6000fd5b505050506040513d602081101561434557600080fd5b5051609754609a54604080516393f1a40b60e01b81526004810192909252306024830152519293506000926001600160a01b03909216916393f1a40b91604480820192608092909190829003018186803b1580156143a257600080fd5b505afa1580156143b6573d6000803e3d6000fd5b505050506040513d60808110156143cc57600080fd5b5051905080158015906143df5750600082115b1561445957609754609a5460408051635ae2fb3960e11b8152306004820152602481019290925260006044830181905290516001600160a01b039093169263b5c5f67292606480820193929182900301818387803b15801561444057600080fd5b505af1158015614454573d6000803e3d6000fd5b505050505b50505b60a254604080516370a0823160e01b815230600482015290516144dc926001600160a01b0316916370a08231916024808301926020929190829003018186803b1580156144a857600080fd5b505afa1580156144bc573d6000803e3d6000fd5b505050506040513d60208110156144d257600080fd5b505160a654613ac1565b905090565b6000816139fa84612c33856001613ac156fe4962546f6b656e416461707465722f7374616b655b64657374696e6174696f6e5d203e20636f6c6c61746572616c546f6b656e73202b206c6f636b6564436f6c6c61746572616c5265656e7472616e637947756172643a207265656e7472616e742063616c6c004962546f6b656e416461707465722f7265776172642d746f6b656e2d6e6f742d6d617463684962546f6b656e416461707465722f626164207472656173757279206163636f756e744962546f6b656e416461707465722f6e6f742d6c697665000000000000000000496e697469616c697a61626c653a20636f6e747261637420697320616c726561647920696e697469616c697a65644962546f6b656e416461707465722f636f6c6c61746572616c546f6b656e2d6e6f742d6d617463684962546f6b656e416461707465722f73686172652d6f766572666c6f770000004962546f6b656e416461707465722f74696d656c6f636b2d6e6f742d6d617463684962546f6b656e416461707465722f696e73756666696369656e74207374616b656420616d6f756e744962546f6b656e416461707465722f62616420747265617375727920666565206270734962546f6b656e416461707465722f686172766573742d746f2d616464726573732d7a65726f4962546f6b656e416461707465722f7374616b655b736f757263655d203c20636f6c6c61746572616c546f6b656e73202b206c6f636b6564436f6c6c61746572616ca264697066735822122047d38ca8b7c1fc4ff94ca1fd6128cb46333a19a9d60f625c29609ddc3f66494d64736f6c634300060c0033",
  "linkReferences": {},
  "deployedLinkReferences": {}
}