{
  "_format": "hh-sol-artifact-1",
  "contractName": "GetPositions",
  "sourceName": "contracts/6.12/managers/GetPositions.sol",
  "abi": [
    {
      "inputs": [
        {
          "internalType": "address",
          "name": "_manager",
          "type": "address"
        },
        {
          "internalType": "address",
          "name": "_user",
          "type": "address"
        }
      ],
      "name": "getAllPositionsAsc",
      "outputs": [
        {
          "internalType": "uint256[]",
          "name": "_ids",
          "type": "uint256[]"
        },
        {
          "internalType": "address[]",
          "name": "_positions",
          "type": "address[]"
        },
        {
          "internalType": "bytes32[]",
          "name": "_collateralPools",
          "type": "bytes32[]"
        }
      ],
      "stateMutability": "view",
      "type": "function"
    },
    {
      "inputs": [
        {
          "internalType": "address",
          "name": "_manager",
          "type": "address"
        },
        {
          "internalType": "address",
          "name": "_user",
          "type": "address"
        }
      ],
      "name": "getAllPositionsDesc",
      "outputs": [
        {
          "internalType": "uint256[]",
          "name": "",
          "type": "uint256[]"
        },
        {
          "internalType": "address[]",
          "name": "",
          "type": "address[]"
        },
        {
          "internalType": "bytes32[]",
          "name": "",
          "type": "bytes32[]"
        }
      ],
      "stateMutability": "view",
      "type": "function"
    },
    {
      "inputs": [
        {
          "internalType": "address",
          "name": "_manager",
          "type": "address"
        },
        {
          "internalType": "uint256",
          "name": "_startIndex",
          "type": "uint256"
        },
        {
          "internalType": "uint256",
          "name": "_offset",
          "type": "uint256"
        }
      ],
      "name": "getPositionWithSafetyBuffer",
      "outputs": [
        {
          "internalType": "address[]",
          "name": "_positions",
          "type": "address[]"
        },
        {
          "internalType": "uint256[]",
          "name": "_debtShares",
          "type": "uint256[]"
        },
        {
          "internalType": "uint256[]",
          "name": "_safetyBuffers",
          "type": "uint256[]"
        }
      ],
      "stateMutability": "view",
      "type": "function"
    },
    {
      "inputs": [
        {
          "internalType": "address",
          "name": "_manager",
          "type": "address"
        },
        {
          "internalType": "uint256",
          "name": "_fromId",
          "type": "uint256"
        },
        {
          "internalType": "uint256",
          "name": "_size",
          "type": "uint256"
        }
      ],
      "name": "getPositionsAsc",
      "outputs": [
        {
          "internalType": "uint256[]",
          "name": "_ids",
          "type": "uint256[]"
        },
        {
          "internalType": "address[]",
          "name": "_positions",
          "type": "address[]"
        },
        {
          "internalType": "bytes32[]",
          "name": "_collateralPools",
          "type": "bytes32[]"
        }
      ],
      "stateMutability": "view",
      "type": "function"
    },
    {
      "inputs": [
        {
          "internalType": "address",
          "name": "_manager",
          "type": "address"
        },
        {
          "internalType": "uint256",
          "name": "_fromId",
          "type": "uint256"
        },
        {
          "internalType": "uint256",
          "name": "_size",
          "type": "uint256"
        }
      ],
      "name": "getPositionsDesc",
      "outputs": [
        {
          "internalType": "uint256[]",
          "name": "",
          "type": "uint256[]"
        },
        {
          "internalType": "address[]",
          "name": "",
          "type": "address[]"
        },
        {
          "internalType": "bytes32[]",
          "name": "",
          "type": "bytes32[]"
        }
      ],
      "stateMutability": "view",
      "type": "function"
    },
    {
      "inputs": [],
      "name": "initialize",
      "outputs": [],
      "stateMutability": "nonpayable",
      "type": "function"
    }
  ],
  "bytecode": "0x608060405234801561001057600080fd5b50611403806100206000396000f3fe608060405234801561001057600080fd5b50600436106100625760003560e01c806313286b2b1461006757806377d05607146100925780638129fc1c146100a5578063833175d2146100af578063e64cfdae146100d1578063ed5d876a146100e4575b600080fd5b61007a6100753660046110fd565b6100f7565b60405161008993929190611235565b60405180910390f35b61007a6100a03660046110fd565b610116565b6100ad610126565b005b6100c26100bd3660046110fd565b6101b2565b604051610089939291906111f2565b61007a6100df3660046110c5565b610824565b61007a6100f23660046110c5565b610943565b6060806060610107868686610a53565b92509250925093509350939050565b6060806060610107868686610d0f565b600054610100900460ff168061013f575061013f610fc1565b8061014d575060005460ff16155b6101725760405162461bcd60e51b815260040161016990611329565b60405180910390fd5b600054610100900460ff1615801561019d576000805460ff1961ff0019909116610100171660011790555b80156101af576000805461ff00191690555b50565b6060806060856001600160a01b031663583545026040518163ffffffff1660e01b815260040160206040518083038186803b1580156101f057600080fd5b505afa158015610204573d6000803e3d6000fd5b505050506040513d601f19601f820116820180604052508101906102289190611131565b6102328686610fd2565b11156102c1576102be60016102b887896001600160a01b031663583545026040518163ffffffff1660e01b815260040160206040518083038186803b15801561027a57600080fd5b505afa15801561028e573d6000803e3d6000fd5b505050506040513d601f19601f820116820180604052508101906102b29190611131565b90611000565b90610fd2565b93505b6000866001600160a01b031663e3b3932a6040518163ffffffff1660e01b815260040160206040518083038186803b1580156102fc57600080fd5b505afa158015610310573d6000803e3d6000fd5b505050506040513d601f19601f8201168201806040525081019061033491906110a9565b9050846001600160401b038111801561034c57600080fd5b50604051908082528060200260200182016040528015610376578160200160208202803683370190505b509350846001600160401b038111801561038f57600080fd5b506040519080825280602002602001820160405280156103b9578160200160208202803683370190505b509250846001600160401b03811180156103d257600080fd5b506040519080825280602002602001820160405280156103fc578160200160208202803683370190505b5091506000865b61040d8888610fd2565b8110156108185760405163133f757160e31b81526000906001600160a01b038b16906399fbab889061044390859060040161129d565b60206040518083038186803b15801561045b57600080fd5b505afa15801561046f573d6000803e3d6000fd5b505050506040513d601f19601f8201168201806040525081019061049391906110a9565b6001600160a01b031614156104a757610818565b60405163133f757160e31b81526001600160a01b038a16906399fbab88906104d390849060040161129d565b60206040518083038186803b1580156104eb57600080fd5b505afa1580156104ff573d6000803e3d6000fd5b505050506040513d601f19601f8201168201806040525081019061052391906110a9565b86838151811061052f57fe5b6001600160a01b0392831660209182029290920101526040516336df277960e11b81526000918b1690636dbe4ef29061056c90859060040161129d565b60206040518083038186803b15801561058457600080fd5b505afa158015610598573d6000803e3d6000fd5b505050506040513d601f19601f820116820180604052508101906105bc9190611131565b9050600080856001600160a01b03166329d88594848b88815181106105dd57fe5b60200260200101516040518363ffffffff1660e01b81526004016106029291906112a6565b604080518083038186803b15801561061957600080fd5b505afa15801561062d573d6000803e3d6000fd5b505050506040513d601f19601f820116820180604052508101906106519190611149565b915091506000866001600160a01b031663d86824616040518163ffffffff1660e01b815260040160206040518083038186803b15801561069057600080fd5b505afa1580156106a4573d6000803e3d6000fd5b505050506040513d601f19601f820116820180604052508101906106c891906110a9565b905060006107cf83836001600160a01b031663a09b0fe0886040518263ffffffff1660e01b81526004016106fc919061129d565b60206040518083038186803b15801561071457600080fd5b505afa158015610728573d6000803e3d6000fd5b505050506040513d601f19601f8201168201806040525081019061074c9190611131565b604051638c492d0760e01b815287906001600160a01b03871690638c492d079061077a908c9060040161129d565b60206040518083038186803b15801561079257600080fd5b505afa1580156107a6573d6000803e3d6000fd5b505050506040513d601f19601f820116820180604052508101906107ca9190611131565b611028565b9050808988815181106107de57fe5b602002602001018181525050828a88815181106107f757fe5b60209081029190910101525050600194850194939093019250610403915050565b50505093509350939050565b60608060606000856001600160a01b0316634afa7271866040518263ffffffff1660e01b815260040161085791906111de565b60206040518083038186803b15801561086f57600080fd5b505afa158015610883573d6000803e3d6000fd5b505050506040513d601f19601f820116820180604052508101906108a79190611131565b90506000866001600160a01b031663bbc26b84876040518263ffffffff1660e01b81526004016108d791906111de565b60206040518083038186803b1580156108ef57600080fd5b505afa158015610903573d6000803e3d6000fd5b505050506040513d601f19601f820116820180604052508101906109279190611131565b9050610934878284610a53565b94509450945050509250925092565b60608060606000856001600160a01b0316634afa7271866040518263ffffffff1660e01b815260040161097691906111de565b60206040518083038186803b15801561098e57600080fd5b505afa1580156109a2573d6000803e3d6000fd5b505050506040513d601f19601f820116820180604052508101906109c69190611131565b90506000866001600160a01b031663e93cb1b9876040518263ffffffff1660e01b81526004016109f691906111de565b60206040518083038186803b158015610a0e57600080fd5b505afa158015610a22573d6000803e3d6000fd5b505050506040513d601f19601f82011682018060405250810190610a469190611131565b9050610934878284610d0f565b6060806060836001600160401b0381118015610a6e57600080fd5b50604051908082528060200260200182016040528015610a98578160200160208202803683370190505b509250836001600160401b0381118015610ab157600080fd5b50604051908082528060200260200182016040528015610adb578160200160208202803683370190505b509150836001600160401b0381118015610af457600080fd5b50604051908082528060200260200182016040528015610b1e578160200160208202803683370190505b5090506000855b600081118015610b3457508582105b15610d045780858381518110610b4657fe5b602090810291909101015260405163133f757160e31b81526001600160a01b038916906399fbab8890610b7d90849060040161129d565b60206040518083038186803b158015610b9557600080fd5b505afa158015610ba9573d6000803e3d6000fd5b505050506040513d601f19601f82011682018060405250810190610bcd91906110a9565b848381518110610bd957fe5b6001600160a01b0392831660209182029290920101526040516336df277960e11b815290891690636dbe4ef290610c1490849060040161129d565b60206040518083038186803b158015610c2c57600080fd5b505afa158015610c40573d6000803e3d6000fd5b505050506040513d601f19601f82011682018060405250810190610c649190611131565b838381518110610c7057fe5b6020908102919091010152604051634064a0cf60e11b81526001600160a01b038916906380c9419e90610ca790849060040161129d565b604080518083038186803b158015610cbe57600080fd5b505afa158015610cd2573d6000803e3d6000fd5b505050506040513d601f19601f82011682018060405250810190610cf69190611149565b506001909201919050610b25565b505093509350939050565b6060806060836001600160401b0381118015610d2a57600080fd5b50604051908082528060200260200182016040528015610d54578160200160208202803683370190505b509250836001600160401b0381118015610d6d57600080fd5b50604051908082528060200260200182016040528015610d97578160200160208202803683370190505b509150836001600160401b0381118015610db057600080fd5b50604051908082528060200260200182016040528015610dda578160200160208202803683370190505b5090506000855b600081118015610df057508582105b15610d045780858381518110610e0257fe5b602090810291909101015260405163133f757160e31b81526001600160a01b038916906399fbab8890610e3990849060040161129d565b60206040518083038186803b158015610e5157600080fd5b505afa158015610e65573d6000803e3d6000fd5b505050506040513d601f19601f82011682018060405250810190610e8991906110a9565b848381518110610e9557fe5b6001600160a01b0392831660209182029290920101526040516336df277960e11b815290891690636dbe4ef290610ed090849060040161129d565b60206040518083038186803b158015610ee857600080fd5b505afa158015610efc573d6000803e3d6000fd5b505050506040513d601f19601f82011682018060405250810190610f209190611131565b838381518110610f2c57fe5b6020908102919091010152604051634064a0cf60e11b81526001600160a01b038916906380c9419e90610f6390849060040161129d565b604080518083038186803b158015610f7a57600080fd5b505afa158015610f8e573d6000803e3d6000fd5b505050506040513d601f19601f82011682018060405250810190610fb29190611149565b6001909301929150610de19050565b6000610fcc30611069565b15905090565b600082820183811015610ff75760405162461bcd60e51b8152600401610169906112bd565b90505b92915050565b6000828211156110225760405162461bcd60e51b8152600401610169906112f2565b50900390565b600080611035848461106f565b90506000611043878761106f565b90508082101561105457600061105e565b61105e8282611000565b979650505050505050565b3b151590565b60008261107e57506000610ffa565b8282028284828161108b57fe5b0414610ff75760405162461bcd60e51b815260040161016990611377565b6000602082840312156110ba578081fd5b8151610ff7816113b8565b600080604083850312156110d7578081fd5b82356110e2816113b8565b915060208301356110f2816113b8565b809150509250929050565b600080600060608486031215611111578081fd5b833561111c816113b8565b95602085013595506040909401359392505050565b600060208284031215611142578081fd5b5051919050565b6000806040838503121561115b578182fd5b505080516020909101519092909150565b6000815180845260208085019450808401835b838110156111a45781516001600160a01b03168752958201959082019060010161117f565b509495945050505050565b6000815180845260208085019450808401835b838110156111a4578151875295820195908201906001016111c2565b6001600160a01b0391909116815260200190565b600060608252611205606083018661116c565b828103602084015261121781866111af565b9050828103604084015261122b81856111af565b9695505050505050565b60006060825261124860608301866111af565b60208382038185015261125b828761116c565b84810360408601528551808252828701935090820190845b8181101561128f57845183529383019391830191600101611273565b509098975050505050505050565b90815260200190565b9182526001600160a01b0316602082015260400190565b6020808252601b908201527a536166654d6174683a206164646974696f6e206f766572666c6f7760281b604082015260600190565b6020808252601e908201527f536166654d6174683a207375627472616374696f6e206f766572666c6f770000604082015260600190565b6020808252602e908201527f496e697469616c697a61626c653a20636f6e747261637420697320616c72656160408201526d191e481a5b9a5d1a585b1a5e995960921b606082015260800190565b60208082526021908201527f536166654d6174683a206d756c7469706c69636174696f6e206f766572666c6f6040820152607760f81b606082015260800190565b6001600160a01b03811681146101af57600080fdfea2646970667358221220351a4aa140305158d1cea281c4aa31e91d693fe0ff13eba0fe261282928a7ab164736f6c634300060c0033",
  "linkReferences": {},
  "deployedLinkReferences": {}
}