{
  "_format": "hh-sol-artifact-1",
  "contractName": "CollateralPoolConfig",
  "sourceName": "contracts/6.12/stablecoin-core/config/CollateralPoolConfig.sol",
  "abi": [
    {
      "anonymous": false,
      "inputs": [
        {
          "indexed": true,
          "internalType": "address",
          "name": "_caller",
          "type": "address"
        },
        {
          "indexed": false,
          "internalType": "bytes32",
          "name": "_collateralPoolId",
          "type": "bytes32"
        },
        {
          "indexed": false,
          "internalType": "address",
          "name": "_adapter",
          "type": "address"
        }
      ],
      "name": "LogSetAdapter",
      "type": "event"
    },
    {
      "anonymous": false,
      "inputs": [
        {
          "indexed": true,
          "internalType": "address",
          "name": "_caller",
          "type": "address"
        },
        {
          "indexed": false,
          "internalType": "bytes32",
          "name": "_collateralPoolId",
          "type": "bytes32"
        },
        {
          "indexed": false,
          "internalType": "uint256",
          "name": "_closeFactorBps",
          "type": "uint256"
        }
      ],
      "name": "LogSetCloseFactorBps",
      "type": "event"
    },
    {
      "anonymous": false,
      "inputs": [
        {
          "indexed": true,
          "internalType": "address",
          "name": "_caller",
          "type": "address"
        },
        {
          "indexed": false,
          "internalType": "bytes32",
          "name": "_collateralPoolId",
          "type": "bytes32"
        },
        {
          "indexed": false,
          "internalType": "uint256",
          "name": "_debtAccumulatedRate",
          "type": "uint256"
        }
      ],
      "name": "LogSetDebtAccumulatedRate",
      "type": "event"
    },
    {
      "anonymous": false,
      "inputs": [
        {
          "indexed": true,
          "internalType": "address",
          "name": "_caller",
          "type": "address"
        },
        {
          "indexed": false,
          "internalType": "bytes32",
          "name": "_collateralPoolId",
          "type": "bytes32"
        },
        {
          "indexed": false,
          "internalType": "uint256",
          "name": "_debtCeiling",
          "type": "uint256"
        }
      ],
      "name": "LogSetDebtCeiling",
      "type": "event"
    },
    {
      "anonymous": false,
      "inputs": [
        {
          "indexed": true,
          "internalType": "address",
          "name": "_caller",
          "type": "address"
        },
        {
          "indexed": false,
          "internalType": "bytes32",
          "name": "_collateralPoolId",
          "type": "bytes32"
        },
        {
          "indexed": false,
          "internalType": "uint256",
          "name": "_debtFloor",
          "type": "uint256"
        }
      ],
      "name": "LogSetDebtFloor",
      "type": "event"
    },
    {
      "anonymous": false,
      "inputs": [
        {
          "indexed": true,
          "internalType": "address",
          "name": "_caller",
          "type": "address"
        },
        {
          "indexed": false,
          "internalType": "bytes32",
          "name": "_poolId",
          "type": "bytes32"
        },
        {
          "indexed": false,
          "internalType": "uint256",
          "name": "_data",
          "type": "uint256"
        }
      ],
      "name": "LogSetLiquidationRatio",
      "type": "event"
    },
    {
      "anonymous": false,
      "inputs": [
        {
          "indexed": true,
          "internalType": "address",
          "name": "_caller",
          "type": "address"
        },
        {
          "indexed": false,
          "internalType": "bytes32",
          "name": "_collateralPoolId",
          "type": "bytes32"
        },
        {
          "indexed": false,
          "internalType": "uint256",
          "name": "_liquidatorIncentiveBps",
          "type": "uint256"
        }
      ],
      "name": "LogSetLiquidatorIncentiveBps",
      "type": "event"
    },
    {
      "anonymous": false,
      "inputs": [
        {
          "indexed": true,
          "internalType": "address",
          "name": "_caller",
          "type": "address"
        },
        {
          "indexed": false,
          "internalType": "bytes32",
          "name": "_poolId",
          "type": "bytes32"
        },
        {
          "indexed": false,
          "internalType": "address",
          "name": "_priceFeed",
          "type": "address"
        }
      ],
      "name": "LogSetPriceFeed",
      "type": "event"
    },
    {
      "anonymous": false,
      "inputs": [
        {
          "indexed": true,
          "internalType": "address",
          "name": "_caller",
          "type": "address"
        },
        {
          "indexed": false,
          "internalType": "bytes32",
          "name": "_collateralPoolId",
          "type": "bytes32"
        },
        {
          "indexed": false,
          "internalType": "uint256",
          "name": "_priceWithSafetyMargin",
          "type": "uint256"
        }
      ],
      "name": "LogSetPriceWithSafetyMargin",
      "type": "event"
    },
    {
      "anonymous": false,
      "inputs": [
        {
          "indexed": true,
          "internalType": "address",
          "name": "_caller",
          "type": "address"
        },
        {
          "indexed": false,
          "internalType": "bytes32",
          "name": "_poolId",
          "type": "bytes32"
        },
        {
          "indexed": false,
          "internalType": "uint256",
          "name": "_data",
          "type": "uint256"
        }
      ],
      "name": "LogSetStabilityFeeRate",
      "type": "event"
    },
    {
      "anonymous": false,
      "inputs": [
        {
          "indexed": true,
          "internalType": "address",
          "name": "_caller",
          "type": "address"
        },
        {
          "indexed": false,
          "internalType": "bytes32",
          "name": "_collateralPoolId",
          "type": "bytes32"
        },
        {
          "indexed": false,
          "internalType": "address",
          "name": "strategy",
          "type": "address"
        }
      ],
      "name": "LogSetStrategy",
      "type": "event"
    },
    {
      "anonymous": false,
      "inputs": [
        {
          "indexed": true,
          "internalType": "address",
          "name": "_caller",
          "type": "address"
        },
        {
          "indexed": false,
          "internalType": "bytes32",
          "name": "_collateralPoolId",
          "type": "bytes32"
        },
        {
          "indexed": false,
          "internalType": "uint256",
          "name": "_totalDebtShare",
          "type": "uint256"
        }
      ],
      "name": "LogSetTotalDebtShare",
      "type": "event"
    },
    {
      "anonymous": false,
      "inputs": [
        {
          "indexed": true,
          "internalType": "address",
          "name": "_caller",
          "type": "address"
        },
        {
          "indexed": false,
          "internalType": "bytes32",
          "name": "_collateralPoolId",
          "type": "bytes32"
        },
        {
          "indexed": false,
          "internalType": "uint256",
          "name": "_treasuryFeeBps",
          "type": "uint256"
        }
      ],
      "name": "LogSetTreasuryFeesBps",
      "type": "event"
    },
    {
      "anonymous": false,
      "inputs": [
        {
          "indexed": true,
          "internalType": "bytes32",
          "name": "role",
          "type": "bytes32"
        },
        {
          "indexed": true,
          "internalType": "bytes32",
          "name": "previousAdminRole",
          "type": "bytes32"
        },
        {
          "indexed": true,
          "internalType": "bytes32",
          "name": "newAdminRole",
          "type": "bytes32"
        }
      ],
      "name": "RoleAdminChanged",
      "type": "event"
    },
    {
      "anonymous": false,
      "inputs": [
        {
          "indexed": true,
          "internalType": "bytes32",
          "name": "role",
          "type": "bytes32"
        },
        {
          "indexed": true,
          "internalType": "address",
          "name": "account",
          "type": "address"
        },
        {
          "indexed": true,
          "internalType": "address",
          "name": "sender",
          "type": "address"
        }
      ],
      "name": "RoleGranted",
      "type": "event"
    },
    {
      "anonymous": false,
      "inputs": [
        {
          "indexed": true,
          "internalType": "bytes32",
          "name": "role",
          "type": "bytes32"
        },
        {
          "indexed": true,
          "internalType": "address",
          "name": "account",
          "type": "address"
        },
        {
          "indexed": true,
          "internalType": "address",
          "name": "sender",
          "type": "address"
        }
      ],
      "name": "RoleRevoked",
      "type": "event"
    },
    {
      "inputs": [],
      "name": "DEFAULT_ADMIN_ROLE",
      "outputs": [
        {
          "internalType": "bytes32",
          "name": "",
          "type": "bytes32"
        }
      ],
      "stateMutability": "view",
      "type": "function"
    },
    {
      "inputs": [],
      "name": "accessControlConfig",
      "outputs": [
        {
          "internalType": "contract IAccessControlConfig",
          "name": "",
          "type": "address"
        }
      ],
      "stateMutability": "view",
      "type": "function"
    },
    {
      "inputs": [
        {
          "internalType": "bytes32",
          "name": "_collateralPoolId",
          "type": "bytes32"
        }
      ],
      "name": "collateralPools",
      "outputs": [
        {
          "components": [
            {
              "internalType": "uint256",
              "name": "totalDebtShare",
              "type": "uint256"
            },
            {
              "internalType": "uint256",
              "name": "debtAccumulatedRate",
              "type": "uint256"
            },
            {
              "internalType": "uint256",
              "name": "priceWithSafetyMargin",
              "type": "uint256"
            },
            {
              "internalType": "uint256",
              "name": "debtCeiling",
              "type": "uint256"
            },
            {
              "internalType": "uint256",
              "name": "debtFloor",
              "type": "uint256"
            },
            {
              "internalType": "address",
              "name": "priceFeed",
              "type": "address"
            },
            {
              "internalType": "uint256",
              "name": "liquidationRatio",
              "type": "uint256"
            },
            {
              "internalType": "uint256",
              "name": "stabilityFeeRate",
              "type": "uint256"
            },
            {
              "internalType": "uint256",
              "name": "lastAccumulationTime",
              "type": "uint256"
            },
            {
              "internalType": "address",
              "name": "adapter",
              "type": "address"
            },
            {
              "internalType": "uint256",
              "name": "closeFactorBps",
              "type": "uint256"
            },
            {
              "internalType": "uint256",
              "name": "liquidatorIncentiveBps",
              "type": "uint256"
            },
            {
              "internalType": "uint256",
              "name": "treasuryFeesBps",
              "type": "uint256"
            },
            {
              "internalType": "address",
              "name": "strategy",
              "type": "address"
            }
          ],
          "internalType": "struct ICollateralPoolConfig.CollateralPool",
          "name": "",
          "type": "tuple"
        }
      ],
      "stateMutability": "view",
      "type": "function"
    },
    {
      "inputs": [
        {
          "internalType": "bytes32",
          "name": "_collateralPoolId",
          "type": "bytes32"
        }
      ],
      "name": "getAdapter",
      "outputs": [
        {
          "internalType": "address",
          "name": "",
          "type": "address"
        }
      ],
      "stateMutability": "view",
      "type": "function"
    },
    {
      "inputs": [
        {
          "internalType": "bytes32",
          "name": "_collateralPoolId",
          "type": "bytes32"
        }
      ],
      "name": "getCloseFactorBps",
      "outputs": [
        {
          "internalType": "uint256",
          "name": "",
          "type": "uint256"
        }
      ],
      "stateMutability": "view",
      "type": "function"
    },
    {
      "inputs": [
        {
          "internalType": "bytes32",
          "name": "_collateralPoolId",
          "type": "bytes32"
        }
      ],
      "name": "getCollateralPoolInfo",
      "outputs": [
        {
          "components": [
            {
              "internalType": "uint256",
              "name": "debtAccumulatedRate",
              "type": "uint256"
            },
            {
              "internalType": "uint256",
              "name": "totalDebtShare",
              "type": "uint256"
            },
            {
              "internalType": "uint256",
              "name": "debtCeiling",
              "type": "uint256"
            },
            {
              "internalType": "uint256",
              "name": "priceWithSafetyMargin",
              "type": "uint256"
            },
            {
              "internalType": "uint256",
              "name": "debtFloor",
              "type": "uint256"
            }
          ],
          "internalType": "struct ICollateralPoolConfig.CollateralPoolInfo",
          "name": "_info",
          "type": "tuple"
        }
      ],
      "stateMutability": "view",
      "type": "function"
    },
    {
      "inputs": [
        {
          "internalType": "bytes32",
          "name": "_collateralPoolId",
          "type": "bytes32"
        }
      ],
      "name": "getDebtAccumulatedRate",
      "outputs": [
        {
          "internalType": "uint256",
          "name": "",
          "type": "uint256"
        }
      ],
      "stateMutability": "view",
      "type": "function"
    },
    {
      "inputs": [
        {
          "internalType": "bytes32",
          "name": "_collateralPoolId",
          "type": "bytes32"
        }
      ],
      "name": "getDebtCeiling",
      "outputs": [
        {
          "internalType": "uint256",
          "name": "",
          "type": "uint256"
        }
      ],
      "stateMutability": "view",
      "type": "function"
    },
    {
      "inputs": [
        {
          "internalType": "bytes32",
          "name": "_collateralPoolId",
          "type": "bytes32"
        }
      ],
      "name": "getDebtFloor",
      "outputs": [
        {
          "internalType": "uint256",
          "name": "",
          "type": "uint256"
        }
      ],
      "stateMutability": "view",
      "type": "function"
    },
    {
      "inputs": [
        {
          "internalType": "bytes32",
          "name": "_collateralPoolId",
          "type": "bytes32"
        }
      ],
      "name": "getLastAccumulationTime",
      "outputs": [
        {
          "internalType": "uint256",
          "name": "",
          "type": "uint256"
        }
      ],
      "stateMutability": "view",
      "type": "function"
    },
    {
      "inputs": [
        {
          "internalType": "bytes32",
          "name": "_collateralPoolId",
          "type": "bytes32"
        }
      ],
      "name": "getLiquidationRatio",
      "outputs": [
        {
          "internalType": "uint256",
          "name": "",
          "type": "uint256"
        }
      ],
      "stateMutability": "view",
      "type": "function"
    },
    {
      "inputs": [
        {
          "internalType": "bytes32",
          "name": "_collateralPoolId",
          "type": "bytes32"
        }
      ],
      "name": "getLiquidatorIncentiveBps",
      "outputs": [
        {
          "internalType": "uint256",
          "name": "",
          "type": "uint256"
        }
      ],
      "stateMutability": "view",
      "type": "function"
    },
    {
      "inputs": [
        {
          "internalType": "bytes32",
          "name": "_collateralPoolId",
          "type": "bytes32"
        }
      ],
      "name": "getPriceFeed",
      "outputs": [
        {
          "internalType": "address",
          "name": "",
          "type": "address"
        }
      ],
      "stateMutability": "view",
      "type": "function"
    },
    {
      "inputs": [
        {
          "internalType": "bytes32",
          "name": "_collateralPoolId",
          "type": "bytes32"
        }
      ],
      "name": "getPriceWithSafetyMargin",
      "outputs": [
        {
          "internalType": "uint256",
          "name": "",
          "type": "uint256"
        }
      ],
      "stateMutability": "view",
      "type": "function"
    },
    {
      "inputs": [
        {
          "internalType": "bytes32",
          "name": "role",
          "type": "bytes32"
        }
      ],
      "name": "getRoleAdmin",
      "outputs": [
        {
          "internalType": "bytes32",
          "name": "",
          "type": "bytes32"
        }
      ],
      "stateMutability": "view",
      "type": "function"
    },
    {
      "inputs": [
        {
          "internalType": "bytes32",
          "name": "role",
          "type": "bytes32"
        },
        {
          "internalType": "uint256",
          "name": "index",
          "type": "uint256"
        }
      ],
      "name": "getRoleMember",
      "outputs": [
        {
          "internalType": "address",
          "name": "",
          "type": "address"
        }
      ],
      "stateMutability": "view",
      "type": "function"
    },
    {
      "inputs": [
        {
          "internalType": "bytes32",
          "name": "role",
          "type": "bytes32"
        }
      ],
      "name": "getRoleMemberCount",
      "outputs": [
        {
          "internalType": "uint256",
          "name": "",
          "type": "uint256"
        }
      ],
      "stateMutability": "view",
      "type": "function"
    },
    {
      "inputs": [
        {
          "internalType": "bytes32",
          "name": "_collateralPoolId",
          "type": "bytes32"
        }
      ],
      "name": "getStabilityFeeRate",
      "outputs": [
        {
          "internalType": "uint256",
          "name": "",
          "type": "uint256"
        }
      ],
      "stateMutability": "view",
      "type": "function"
    },
    {
      "inputs": [
        {
          "internalType": "bytes32",
          "name": "_collateralPoolId",
          "type": "bytes32"
        }
      ],
      "name": "getStrategy",
      "outputs": [
        {
          "internalType": "address",
          "name": "",
          "type": "address"
        }
      ],
      "stateMutability": "view",
      "type": "function"
    },
    {
      "inputs": [
        {
          "internalType": "bytes32",
          "name": "_collateralPoolId",
          "type": "bytes32"
        }
      ],
      "name": "getTotalDebtShare",
      "outputs": [
        {
          "internalType": "uint256",
          "name": "",
          "type": "uint256"
        }
      ],
      "stateMutability": "view",
      "type": "function"
    },
    {
      "inputs": [
        {
          "internalType": "bytes32",
          "name": "_collateralPoolId",
          "type": "bytes32"
        }
      ],
      "name": "getTreasuryFeesBps",
      "outputs": [
        {
          "internalType": "uint256",
          "name": "",
          "type": "uint256"
        }
      ],
      "stateMutability": "view",
      "type": "function"
    },
    {
      "inputs": [
        {
          "internalType": "bytes32",
          "name": "role",
          "type": "bytes32"
        },
        {
          "internalType": "address",
          "name": "account",
          "type": "address"
        }
      ],
      "name": "grantRole",
      "outputs": [],
      "stateMutability": "nonpayable",
      "type": "function"
    },
    {
      "inputs": [
        {
          "internalType": "bytes32",
          "name": "role",
          "type": "bytes32"
        },
        {
          "internalType": "address",
          "name": "account",
          "type": "address"
        }
      ],
      "name": "hasRole",
      "outputs": [
        {
          "internalType": "bool",
          "name": "",
          "type": "bool"
        }
      ],
      "stateMutability": "view",
      "type": "function"
    },
    {
      "inputs": [
        {
          "internalType": "bytes32",
          "name": "_collateralPoolId",
          "type": "bytes32"
        },
        {
          "internalType": "uint256",
          "name": "_debtCeiling",
          "type": "uint256"
        },
        {
          "internalType": "uint256",
          "name": "_debtFloor",
          "type": "uint256"
        },
        {
          "internalType": "address",
          "name": "_priceFeed",
          "type": "address"
        },
        {
          "internalType": "uint256",
          "name": "_liquidationRatio",
          "type": "uint256"
        },
        {
          "internalType": "uint256",
          "name": "_stabilityFeeRate",
          "type": "uint256"
        },
        {
          "internalType": "address",
          "name": "_adapter",
          "type": "address"
        },
        {
          "internalType": "uint256",
          "name": "_closeFactorBps",
          "type": "uint256"
        },
        {
          "internalType": "uint256",
          "name": "_liquidatorIncentiveBps",
          "type": "uint256"
        },
        {
          "internalType": "uint256",
          "name": "_treasuryFeesBps",
          "type": "uint256"
        },
        {
          "internalType": "address",
          "name": "_strategy",
          "type": "address"
        }
      ],
      "name": "initCollateralPool",
      "outputs": [],
      "stateMutability": "nonpayable",
      "type": "function"
    },
    {
      "inputs": [
        {
          "internalType": "address",
          "name": "_accessControlConfig",
          "type": "address"
        }
      ],
      "name": "initialize",
      "outputs": [],
      "stateMutability": "nonpayable",
      "type": "function"
    },
    {
      "inputs": [
        {
          "internalType": "bytes32",
          "name": "role",
          "type": "bytes32"
        },
        {
          "internalType": "address",
          "name": "account",
          "type": "address"
        }
      ],
      "name": "renounceRole",
      "outputs": [],
      "stateMutability": "nonpayable",
      "type": "function"
    },
    {
      "inputs": [
        {
          "internalType": "bytes32",
          "name": "role",
          "type": "bytes32"
        },
        {
          "internalType": "address",
          "name": "account",
          "type": "address"
        }
      ],
      "name": "revokeRole",
      "outputs": [],
      "stateMutability": "nonpayable",
      "type": "function"
    },
    {
      "inputs": [
        {
          "internalType": "bytes32",
          "name": "_collateralPoolId",
          "type": "bytes32"
        },
        {
          "internalType": "address",
          "name": "_adapter",
          "type": "address"
        }
      ],
      "name": "setAdapter",
      "outputs": [],
      "stateMutability": "nonpayable",
      "type": "function"
    },
    {
      "inputs": [
        {
          "internalType": "bytes32",
          "name": "_collateralPoolId",
          "type": "bytes32"
        },
        {
          "internalType": "uint256",
          "name": "_closeFactorBps",
          "type": "uint256"
        }
      ],
      "name": "setCloseFactorBps",
      "outputs": [],
      "stateMutability": "nonpayable",
      "type": "function"
    },
    {
      "inputs": [
        {
          "internalType": "bytes32",
          "name": "_collateralPoolId",
          "type": "bytes32"
        },
        {
          "internalType": "uint256",
          "name": "_debtAccumulatedRate",
          "type": "uint256"
        }
      ],
      "name": "setDebtAccumulatedRate",
      "outputs": [],
      "stateMutability": "nonpayable",
      "type": "function"
    },
    {
      "inputs": [
        {
          "internalType": "bytes32",
          "name": "_collateralPoolId",
          "type": "bytes32"
        },
        {
          "internalType": "uint256",
          "name": "_debtCeiling",
          "type": "uint256"
        }
      ],
      "name": "setDebtCeiling",
      "outputs": [],
      "stateMutability": "nonpayable",
      "type": "function"
    },
    {
      "inputs": [
        {
          "internalType": "bytes32",
          "name": "_collateralPoolId",
          "type": "bytes32"
        },
        {
          "internalType": "uint256",
          "name": "_debtFloor",
          "type": "uint256"
        }
      ],
      "name": "setDebtFloor",
      "outputs": [],
      "stateMutability": "nonpayable",
      "type": "function"
    },
    {
      "inputs": [
        {
          "internalType": "bytes32",
          "name": "_poolId",
          "type": "bytes32"
        },
        {
          "internalType": "uint256",
          "name": "_data",
          "type": "uint256"
        }
      ],
      "name": "setLiquidationRatio",
      "outputs": [],
      "stateMutability": "nonpayable",
      "type": "function"
    },
    {
      "inputs": [
        {
          "internalType": "bytes32",
          "name": "_collateralPoolId",
          "type": "bytes32"
        },
        {
          "internalType": "uint256",
          "name": "_liquidatorIncentiveBps",
          "type": "uint256"
        }
      ],
      "name": "setLiquidatorIncentiveBps",
      "outputs": [],
      "stateMutability": "nonpayable",
      "type": "function"
    },
    {
      "inputs": [
        {
          "internalType": "bytes32",
          "name": "_poolId",
          "type": "bytes32"
        },
        {
          "internalType": "address",
          "name": "_priceFeed",
          "type": "address"
        }
      ],
      "name": "setPriceFeed",
      "outputs": [],
      "stateMutability": "nonpayable",
      "type": "function"
    },
    {
      "inputs": [
        {
          "internalType": "bytes32",
          "name": "_collateralPoolId",
          "type": "bytes32"
        },
        {
          "internalType": "uint256",
          "name": "_priceWithSafetyMargin",
          "type": "uint256"
        }
      ],
      "name": "setPriceWithSafetyMargin",
      "outputs": [],
      "stateMutability": "nonpayable",
      "type": "function"
    },
    {
      "inputs": [
        {
          "internalType": "bytes32",
          "name": "_collateralPool",
          "type": "bytes32"
        },
        {
          "internalType": "uint256",
          "name": "_stabilityFeeRate",
          "type": "uint256"
        }
      ],
      "name": "setStabilityFeeRate",
      "outputs": [],
      "stateMutability": "nonpayable",
      "type": "function"
    },
    {
      "inputs": [
        {
          "internalType": "bytes32",
          "name": "_collateralPoolId",
          "type": "bytes32"
        },
        {
          "internalType": "address",
          "name": "_strategy",
          "type": "address"
        }
      ],
      "name": "setStrategy",
      "outputs": [],
      "stateMutability": "nonpayable",
      "type": "function"
    },
    {
      "inputs": [
        {
          "internalType": "bytes32",
          "name": "_collateralPoolId",
          "type": "bytes32"
        },
        {
          "internalType": "uint256",
          "name": "_totalDebtShare",
          "type": "uint256"
        }
      ],
      "name": "setTotalDebtShare",
      "outputs": [],
      "stateMutability": "nonpayable",
      "type": "function"
    },
    {
      "inputs": [
        {
          "internalType": "bytes32",
          "name": "_collateralPoolId",
          "type": "bytes32"
        },
        {
          "internalType": "uint256",
          "name": "_treasuryFeesBps",
          "type": "uint256"
        }
      ],
      "name": "setTreasuryFeesBps",
      "outputs": [],
      "stateMutability": "nonpayable",
      "type": "function"
    },
    {
      "inputs": [
        {
          "internalType": "bytes32",
          "name": "_collateralPoolId",
          "type": "bytes32"
        }
      ],
      "name": "updateLastAccumulationTime",
      "outputs": [],
      "stateMutability": "nonpayable",
      "type": "function"
    }
  ],
  "bytecode": "0x608060405234801561001057600080fd5b50612dc4806100206000396000f3fe608060405234801561001057600080fd5b50600436106101e35760003560e01c80630ec057e5146101e85780631204769e146102115780631fea158d14610231578063248a9ca31461024457806328c84bbd146102575780632f2ff15d146102775780632fe6af441461028c57806336568abe1461029f57806337629aa0146102b257806344d0c937146102c55780635897b571146102d857806364c8edab146102eb57806373a4f962146102fe5780637722067b146103115780637a8bd02e146103245780638272e138146103375780638c0adf621461034a5780638c492d071461035d5780639010d07c1461037057806391d148541461038357806397a991b8146103a35780639c1985d5146103b6578063a09b0fe0146103c9578063a14cbb12146103dc578063a217fddf146103ef578063a3c68b42146103f7578063a6726c811461040a578063ad41d85d1461041d578063b3b1cfa214610430578063b7cc80d314610443578063bbd112a514610456578063be7c9f3214610469578063c4d66de81461047c578063c8cc243f1461048f578063ca15c87314610497578063d3fdc5e7146104aa578063d547741f146104bd578063d97a3649146104d0578063e47f3c6f146104f0578063e73bbc7914610503578063e73eb92e14610516575b600080fd5b6101fb6101f636600461269e565b610529565b604051610208919061280f565b60405180910390f35b61022461021f36600461269e565b61053e565b6040516102089190612c4d565b6101fb61023f36600461269e565b61058e565b6101fb61025236600461269e565b6105a3565b61026a61026536600461269e565b6105b8565b60405161020891906127f0565b61028a6102853660046126ce565b6105d6565b005b61028a61029a36600461272c565b610627565b61028a6102ad3660046126ce565b6107ac565b61028a6102c03660046126ce565b6107ee565b6101fb6102d336600461269e565b61095b565b61028a6102e636600461272c565b610970565b61028a6102f936600461274d565b610b27565b6101fb61030c36600461269e565b610f53565b61028a61031f36600461272c565b610f68565b6101fb61033236600461269e565b6110bf565b61026a61034536600461269e565b6110d1565b61026a61035836600461269e565b6110ef565b6101fb61036b36600461269e565b61110d565b61026a61037e36600461272c565b611122565b6103966103913660046126ce565b611143565b6040516102089190612804565b61028a6103b136600461272c565b61115b565b6101fb6103c436600461269e565b6112b2565b6101fb6103d736600461269e565b6112c7565b61028a6103ea3660046126ce565b6112dc565b6101fb611449565b61028a61040536600461272c565b61144e565b61028a6104183660046126ce565b6115a5565b6101fb61042b36600461269e565b611712565b61028a61043e36600461272c565b611727565b61028a61045136600461272c565b61187b565b6101fb61046436600461269e565b611a02565b61028a61047736600461272c565b611a17565b61028a61048a366004612660565b611b6e565b61026a611c96565b6101fb6104a536600461269e565b611ca5565b61028a6104b836600461272c565b611cbc565b61028a6104cb3660046126ce565b611e35565b6104e36104de36600461269e565b611e6f565b6040516102089190612c87565b61028a6104fe36600461272c565b611f37565b6101fb61051136600461269e565b61208e565b61028a61052436600461269e565b6120a3565b6000908152606560205260409020600b015490565b610546612590565b60008281526065602081815260408084206001810154865280548684015260038101549186019190915260028101546060860152949092529052600490910154608082015290565b60009081526065602052604090206007015490565b60009081526033602052604090206002015490565b6000908152606560205260409020600d01546001600160a01b031690565b6000828152603360205260409020600201546105f4906103916121c8565b6106195760405162461bcd60e51b81526004016106109061291e565b60405180910390fd5b61062382826121cc565b5050565b6066546040805163e58378bb60e01b815290516001600160a01b03909216916391d1485491839163e58378bb91600480820192602092909190829003018186803b15801561067457600080fd5b505afa158015610688573d6000803e3d6000fd5b505050506040513d601f19601f820116820180604052508101906106ac91906126b6565b336040518363ffffffff1660e01b81526004016106ca929190612818565b60206040518083038186803b1580156106e257600080fd5b505afa1580156106f6573d6000803e3d6000fd5b505050506040513d601f19601f8201168201806040525081019061071a919061267b565b6107365760405162461bcd60e51b81526004016106109061288e565b6127108111156107585760405162461bcd60e51b8152600401610610906129c0565b60008281526065602052604090819020600a018290555133907f42810b2bf88c5f14e5d6e5c488f36bfa8082d60183daa19bf43e57f58b43cc16906107a0908590859061282f565b60405180910390a25050565b6107b46121c8565b6001600160a01b0316816001600160a01b0316146107e45760405162461bcd60e51b815260040161061090612bfe565b6106238282612235565b6066546040805163e58378bb60e01b815290516001600160a01b03909216916391d1485491839163e58378bb91600480820192602092909190829003018186803b15801561083b57600080fd5b505afa15801561084f573d6000803e3d6000fd5b505050506040513d601f19601f8201168201806040525081019061087391906126b6565b336040518363ffffffff1660e01b8152600401610891929190612818565b60206040518083038186803b1580156108a957600080fd5b505afa1580156108bd573d6000803e3d6000fd5b505050506040513d601f19601f820116820180604052508101906108e1919061267b565b6108fd5760405162461bcd60e51b81526004016106109061288e565b6000828152606560205260409081902060090180546001600160a01b0319166001600160a01b0384161790555133907f6a8721e2a39a7b4c4077afea31294313cf77bb4e00db5d6ee64d9de6f37ec53e906107a09085908590612818565b60009081526065602052604090206006015490565b6066546040805163e58378bb60e01b815290516001600160a01b03909216916391d1485491839163e58378bb91600480820192602092909190829003018186803b1580156109bd57600080fd5b505afa1580156109d1573d6000803e3d6000fd5b505050506040513d601f19601f820116820180604052508101906109f591906126b6565b336040518363ffffffff1660e01b8152600401610a13929190612818565b60206040518083038186803b158015610a2b57600080fd5b505afa158015610a3f573d6000803e3d6000fd5b505050506040513d601f19601f82011682018060405250810190610a63919061267b565b610a7f5760405162461bcd60e51b81526004016106109061288e565b801580610a975750676765c793fa10079d601b1b8110155b610ab35760405162461bcd60e51b815260040161061090612a0d565b6b033b2e3d523e808a07fcdc0b811115610adf5760405162461bcd60e51b815260040161061090612bad565b600082815260656020526040908190206007018290555133907fa9c4195940f169a77487ff98fd68eb19e68d102a7bd11d5b0ed337661f5f8f19906107a0908590859061282f565b6066546040805163e58378bb60e01b815290516001600160a01b03909216916391d1485491839163e58378bb91600480820192602092909190829003018186803b158015610b7457600080fd5b505afa158015610b88573d6000803e3d6000fd5b505050506040513d601f19601f82011682018060405250810190610bac91906126b6565b336040518363ffffffff1660e01b8152600401610bca929190612818565b60206040518083038186803b158015610be257600080fd5b505afa158015610bf6573d6000803e3d6000fd5b505050506040513d601f19601f82011682018060405250810190610c1a919061267b565b610c365760405162461bcd60e51b81526004016106109061288e565b60008b81526065602052604090206001015415610c655760405162461bcd60e51b81526004016106109061283d565b60008b81526065602052604090819020676765c793fa10079d601b1b6001820155600381018c905560049081018b9055815162a0693960e51b815282516001600160a01b038c169363140d27209383810193919291829003018186803b158015610cce57600080fd5b505afa158015610ce2573d6000803e3d6000fd5b505050506040513d601f19601f82011682018060405250810190610d069190612708565b505060008b815260656020526040902060050180546001600160a01b0319166001600160a01b038a16179055676765c793fa10079d601b1b871015610d5d5760405162461bcd60e51b81526004016106109061295b565b60008b8152606560205260409020600601879055851580610d895750676765c793fa10079d601b1b8610155b610da55760405162461bcd60e51b815260040161061090612a0d565b6b033b2e3d523e808a07fcdc0b861115610dd15760405162461bcd60e51b815260040161061090612bad565b60008b8152606560209081526040808320600781018a905542600890910155805163313ce56760e01b815290516001600160a01b0389169363313ce56793600480850194919392918390030190829087803b158015610e2f57600080fd5b505af1158015610e43573d6000803e3d6000fd5b505050506040513d601f19601f82011682018060405250810190610e6791906126b6565b5060008b815260656020526040902060090180546001600160a01b0319166001600160a01b038716179055612710841115610eb45760405162461bcd60e51b8152600401610610906129c0565b6127108310158015610ec85750614a388311155b610ee45760405162461bcd60e51b815260040161061090612a5c565b612328821115610f065760405162461bcd60e51b815260040161061090612a9f565b60009a8b5260656020526040909a20600a810193909355600b830191909155600c820155600d0180546001600160a01b0319166001600160a01b0390981697909717909655505050505050565b6000908152606560205260409020600c015490565b6066546040805163e58378bb60e01b815290516001600160a01b03909216916391d1485491839163e58378bb91600480820192602092909190829003018186803b158015610fb557600080fd5b505afa158015610fc9573d6000803e3d6000fd5b505050506040513d601f19601f82011682018060405250810190610fed91906126b6565b336040518363ffffffff1660e01b815260040161100b929190612818565b60206040518083038186803b15801561102357600080fd5b505afa158015611037573d6000803e3d6000fd5b505050506040513d601f19601f8201168201806040525081019061105b919061267b565b6110775760405162461bcd60e51b81526004016106109061288e565b600082815260656020526040908190206003018290555133907f4f4a7c062642f5f259628a4a67ff6fee09ecd64ce33f018b645635203d531ae2906107a0908590859061282f565b60009081526065602052604090205490565b6000908152606560205260409020600901546001600160a01b031690565b6000908152606560205260409020600501546001600160a01b031690565b60009081526065602052604090206002015490565b600082815260336020526040812061113a908361229e565b90505b92915050565b600082815260336020526040812061113a90836122aa565b6066546040805163e58378bb60e01b815290516001600160a01b03909216916391d1485491839163e58378bb91600480820192602092909190829003018186803b1580156111a857600080fd5b505afa1580156111bc573d6000803e3d6000fd5b505050506040513d601f19601f820116820180604052508101906111e091906126b6565b336040518363ffffffff1660e01b81526004016111fe929190612818565b60206040518083038186803b15801561121657600080fd5b505afa15801561122a573d6000803e3d6000fd5b505050506040513d601f19601f8201168201806040525081019061124e919061267b565b61126a5760405162461bcd60e51b81526004016106109061288e565b600082815260656020526040908190206006018290555133907f2dd5cec90f5c89b9886d2e3527094edb4b46a5ab75e6b277afd6393f0aa52373906107a0908590859061282f565b60009081526065602052604090206004015490565b60009081526065602052604090206001015490565b6066546040805163e58378bb60e01b815290516001600160a01b03909216916391d1485491839163e58378bb91600480820192602092909190829003018186803b15801561132957600080fd5b505afa15801561133d573d6000803e3d6000fd5b505050506040513d601f19601f8201168201806040525081019061136191906126b6565b336040518363ffffffff1660e01b815260040161137f929190612818565b60206040518083038186803b15801561139757600080fd5b505afa1580156113ab573d6000803e3d6000fd5b505050506040513d601f19601f820116820180604052508101906113cf919061267b565b6113eb5760405162461bcd60e51b81526004016106109061288e565b60008281526065602052604090819020600d0180546001600160a01b0319166001600160a01b0384161790555133907ff8d3f0da75258c6c4a3a31a2b4642e60db99f3b5477f0f799088fec42ac6b38d906107a09085908590612818565b600081565b6066546040805163e58378bb60e01b815290516001600160a01b03909216916391d1485491839163e58378bb91600480820192602092909190829003018186803b15801561149b57600080fd5b505afa1580156114af573d6000803e3d6000fd5b505050506040513d601f19601f820116820180604052508101906114d391906126b6565b336040518363ffffffff1660e01b81526004016114f1929190612818565b60206040518083038186803b15801561150957600080fd5b505afa15801561151d573d6000803e3d6000fd5b505050506040513d601f19601f82011682018060405250810190611541919061267b565b61155d5760405162461bcd60e51b81526004016106109061288e565b600082815260656020526040908190206004018290555133907f5c7ce9b131da68fe8ad20b6cf7d870358657eb014d8c830f67d3b956d7c297ac906107a0908590859061282f565b6066546040805163e58378bb60e01b815290516001600160a01b03909216916391d1485491839163e58378bb91600480820192602092909190829003018186803b1580156115f257600080fd5b505afa158015611606573d6000803e3d6000fd5b505050506040513d601f19601f8201168201806040525081019061162a91906126b6565b336040518363ffffffff1660e01b8152600401611648929190612818565b60206040518083038186803b15801561166057600080fd5b505afa158015611674573d6000803e3d6000fd5b505050506040513d601f19601f82011682018060405250810190611698919061267b565b6116b45760405162461bcd60e51b81526004016106109061288e565b6000828152606560205260409081902060050180546001600160a01b0319166001600160a01b0384161790555133907fda0dc73df45d13e8d63f64cd1f08c36b18cb90bcb896f639ea24a122b435496d906107a09085908590612818565b60009081526065602052604090206003015490565b60665460408051636792166f60e01b815290516001600160a01b03909216916391d14854918391636792166f91600480820192602092909190829003018186803b15801561177457600080fd5b505afa158015611788573d6000803e3d6000fd5b505050506040513d601f19601f820116820180604052508101906117ac91906126b6565b336040518363ffffffff1660e01b81526004016117ca929190612818565b60206040518083038186803b1580156117e257600080fd5b505afa1580156117f6573d6000803e3d6000fd5b505050506040513d601f19601f8201168201806040525081019061181a919061267b565b6118365760405162461bcd60e51b815260040161061090612997565b600082815260656020526040908190208290555133907f8a154f019e08f1b1da116ec99dd6d59b74b32a69be219bad788d9c095e84e46e906107a0908590859061282f565b6066546040805163e58378bb60e01b815290516001600160a01b03909216916391d1485491839163e58378bb91600480820192602092909190829003018186803b1580156118c857600080fd5b505afa1580156118dc573d6000803e3d6000fd5b505050506040513d601f19601f8201168201806040525081019061190091906126b6565b336040518363ffffffff1660e01b815260040161191e929190612818565b60206040518083038186803b15801561193657600080fd5b505afa15801561194a573d6000803e3d6000fd5b505050506040513d601f19601f8201168201806040525081019061196e919061267b565b61198a5760405162461bcd60e51b81526004016106109061288e565b612710811015801561199e5750614a388111155b6119ba5760405162461bcd60e51b815260040161061090612a5c565b60008281526065602052604090819020600b018290555133907fcf7a2b7293b9e5c2ebff583418dad7de6abde074357224117aa5f99333712ee5906107a0908590859061282f565b60009081526065602052604090206008015490565b6066546040805163b998902f60e01b815290516001600160a01b03909216916391d1485491839163b998902f91600480820192602092909190829003018186803b158015611a6457600080fd5b505afa158015611a78573d6000803e3d6000fd5b505050506040513d601f19601f82011682018060405250810190611a9c91906126b6565b336040518363ffffffff1660e01b8152600401611aba929190612818565b60206040518083038186803b158015611ad257600080fd5b505afa158015611ae6573d6000803e3d6000fd5b505050506040513d601f19601f82011682018060405250810190611b0a919061267b565b611b265760405162461bcd60e51b8152600401610610906128b2565b600082815260656020526040908190206002018290555133907f3f8d75e25e91fca161ee992d8f5334a1dee3546396e6eeeddf7bebad3def464a906107a0908590859061282f565b600054610100900460ff1680611b875750611b876122bf565b80611b95575060005460ff16155b611bb15760405162461bcd60e51b815260040161061090612b2b565b600054610100900460ff16158015611bdc576000805460ff1961ff0019909116610100171660011790555b611be46122d0565b606680546001600160a01b0319166001600160a01b0384811691909117918290556040805163e58378bb60e01b81529051611c81939092169163e58378bb91600480820192602092909190829003018186803b158015611c4357600080fd5b505afa158015611c57573d6000803e3d6000fd5b505050506040513d601f19601f82011682018060405250810190611c7b91906126b6565b33610619565b8015610623576000805461ff00191690555050565b6066546001600160a01b031681565b600081815260336020526040812061113d90612363565b6066546040805163e58378bb60e01b815290516001600160a01b03909216916391d1485491839163e58378bb91600480820192602092909190829003018186803b158015611d0957600080fd5b505afa158015611d1d573d6000803e3d6000fd5b505050506040513d601f19601f82011682018060405250810190611d4191906126b6565b336040518363ffffffff1660e01b8152600401611d5f929190612818565b60206040518083038186803b158015611d7757600080fd5b505afa158015611d8b573d6000803e3d6000fd5b505050506040513d601f19601f82011682018060405250810190611daf919061267b565b611dcb5760405162461bcd60e51b81526004016106109061288e565b612328811115611ded5760405162461bcd60e51b815260040161061090612a9f565b60008281526065602052604090819020600c018290555133907fa6cd9a2a9bff53ac1fcfcd1b85687f6127841bd5ba1e2d10afe58ba31d945845906107a0908590859061282f565b600082815260336020526040902060020154611e53906103916121c8565b6107e45760405162461bcd60e51b815260040161061090612aed565b611e776125bf565b5060009081526065602090815260409182902082516101c08101845281548152600182015492810192909252600281015492820192909252600382015460608201526004820154608082015260058201546001600160a01b0390811660a0830152600683015460c0830152600783015460e0830152600883015461010083015260098301548116610120830152600a830154610140830152600b830154610160830152600c830154610180830152600d909201549091166101a082015290565b60665460408051636792166f60e01b815290516001600160a01b03909216916391d14854918391636792166f91600480820192602092909190829003018186803b158015611f8457600080fd5b505afa158015611f98573d6000803e3d6000fd5b505050506040513d601f19601f82011682018060405250810190611fbc91906126b6565b336040518363ffffffff1660e01b8152600401611fda929190612818565b60206040518083038186803b158015611ff257600080fd5b505afa158015612006573d6000803e3d6000fd5b505050506040513d601f19601f8201168201806040525081019061202a919061267b565b6120465760405162461bcd60e51b815260040161061090612997565b600082815260656020526040908190206001018290555133907f990224c41a18cc2e5688940dc28dc43872d8b96854b6099c52b2ae5d4ed1e9d2906107a0908590859061282f565b6000908152606560205260409020600a015490565b60665460408051620470d160eb1b815290516001600160a01b03909216916391d14854918391632386880091600480820192602092909190829003018186803b1580156120ef57600080fd5b505afa158015612103573d6000803e3d6000fd5b505050506040513d601f19601f8201168201806040525081019061212791906126b6565b336040518363ffffffff1660e01b8152600401612145929190612818565b60206040518083038186803b15801561215d57600080fd5b505afa158015612171573d6000803e3d6000fd5b505050506040513d601f19601f82011682018060405250810190612195919061267b565b6121b15760405162461bcd60e51b815260040161061090612b79565b600090815260656020526040902042600890910155565b3390565b60008281526033602052604090206121e4908261236e565b15610623576121f16121c8565b6001600160a01b0316816001600160a01b0316837f2f8788117e7eff1d82e926ec794901d17c78024a50270940304540a733656f0d60405160405180910390a45050565b600082815260336020526040902061224d9082612383565b156106235761225a6121c8565b6001600160a01b0316816001600160a01b0316837ff6391f5c32d9c69d2a47ea670b442974b53935d1edc7fd64eb21e047a839171b60405160405180910390a45050565b600061113a8383612398565b600061113a836001600160a01b0384166123dd565b60006122ca306123f5565b15905090565b600054610100900460ff16806122e957506122e96122bf565b806122f7575060005460ff16155b6123135760405162461bcd60e51b815260040161061090612b2b565b600054610100900460ff1615801561233e576000805460ff1961ff0019909116610100171660011790555b6123466123fb565b61234e6123fb565b8015612360576000805461ff00191690555b50565b600061113d8261247c565b600061113a836001600160a01b038416612480565b600061113a836001600160a01b0384166124ca565b815460009082106123bb5760405162461bcd60e51b8152600401610610906128dc565b8260000182815481106123ca57fe5b9060005260206000200154905092915050565b60009081526001919091016020526040902054151590565b3b151590565b600054610100900460ff168061241457506124146122bf565b80612422575060005460ff16155b61243e5760405162461bcd60e51b815260040161061090612b2b565b600054610100900460ff1615801561234e576000805460ff1961ff0019909116610100171660011790558015612360576000805461ff001916905550565b5490565b600061248c83836123dd565b6124c25750815460018181018455600084815260208082209093018490558454848252828601909352604090209190915561113d565b50600061113d565b6000818152600183016020526040812054801561258657835460001980830191908101906000908790839081106124fd57fe5b906000526020600020015490508087600001848154811061251a57fe5b60009182526020808320909101929092558281526001898101909252604090209084019055865487908061254a57fe5b6001900381819060005260206000200160009055905586600101600087815260200190815260200160002060009055600194505050505061113d565b600091505061113d565b6040518060a0016040528060008152602001600081526020016000815260200160008152602001600081525090565b604051806101c00160405280600081526020016000815260200160008152602001600081526020016000815260200160006001600160a01b0316815260200160008152602001600081526020016000815260200160006001600160a01b0316815260200160008152602001600081526020016000815260200160006001600160a01b031681525090565b80356001600160a01b038116811461113d57600080fd5b600060208284031215612671578081fd5b61113a8383612649565b60006020828403121561268c578081fd5b815161269781612d40565b9392505050565b6000602082840312156126af578081fd5b5035919050565b6000602082840312156126c7578081fd5b5051919050565b600080604083850312156126e0578081fd5b8235915060208301356001600160a01b03811681146126fd578182fd5b809150509250929050565b6000806040838503121561271a578182fd5b8251915060208301516126fd81612d40565b6000806040838503121561273e578182fd5b50508035926020909101359150565b60008060008060008060008060008060006101608c8e03121561276e578687fd5b8b359a5060208c0135995060408c0135985061278d8d60608e01612649565b975060808c0135965060a08c013595506127aa8d60c08e01612649565b945060e08c013593506101008c013592506101208c013591506127d18d6101408e01612649565b90509295989b509295989b9093969950565b6001600160a01b03169052565b6001600160a01b0391909116815260200190565b901515815260200190565b90815260200190565b9182526001600160a01b0316602082015260400190565b918252602082015260400190565b60208082526031908201527f436f6c6c61746572616c506f6f6c436f6e6669672f636f6c6c61746572616c2d6040820152701c1bdbdb0b585b1c9958591e4b5a5b9a5d607a1b606082015260800190565b6020808252600a9082015269216f776e6572526f6c6560b01b604082015260600190565b60208082526010908201526f2170726963654f7261636c65526f6c6560801b604082015260600190565b60208082526022908201527f456e756d657261626c655365743a20696e646578206f7574206f6620626f756e604082015261647360f01b606082015260800190565b6020808252602f90820152600080516020612d6f83398151915260408201526e0818591b5a5b881d1bc819dc985b9d608a1b606082015260800190565b6020808252602e90820152600080516020612d4f83398151915260408201526d7569646174696f6e2d726174696f60901b606082015260800190565b6020808252600f908201526e21626f6f6b4b6565706572526f6c6560881b604082015260600190565b6020808252602d908201527f436f6c6c61746572616c506f6f6c436f6e6669672f696e76616c69642d636c6f60408201526c73652d666163746f722d62707360981b606082015260800190565b6020808252602f908201527f436f6c6c61746572616c506f6f6c436f6e6669672f696e76616c69642d73746160408201526e62696c6974792d6665652d7261746560881b606082015260800190565b6020808252603590820152600080516020612d4f83398151915260408201527475696461746f722d696e63656e746976652d62707360581b606082015260800190565b6020808252602e908201527f436f6c6c61746572616c506f6f6c436f6e6669672f696e76616c69642d74726560408201526d61737572792d666565732d62707360901b606082015260800190565b6020808252603090820152600080516020612d6f83398151915260408201526f2061646d696e20746f207265766f6b6560801b606082015260800190565b6020808252602e908201527f496e697469616c697a61626c653a20636f6e747261637420697320616c72656160408201526d191e481a5b9a5d1a585b1a5e995960921b606082015260800190565b6020808252601a90820152792173746162696c697479466565436f6c6c6563746f72526f6c6560301b604082015260600190565b60208082526031908201527f436f6c6c61746572616c506f6f6c436f6e6669672f73746162696c6974792d6660408201527065652d726174652d746f6f2d6c6172676560781b606082015260800190565b6020808252602f908201527f416363657373436f6e74726f6c3a2063616e206f6e6c792072656e6f756e636560408201526e103937b632b9903337b91039b2b63360891b606082015260800190565b600060a082019050825182526020830151602083015260408301516040830152606083015160608301526080830151608083015292915050565b60006101c082019050825182526020830151602083015260408301516040830152606083015160608301526080830151608083015260a0830151612cce60a08401826127e3565b5060c083015160c083015260e083015160e083015261010080840151818401525061012080840151612d02828501826127e3565b50506101408381015190830152610160808401519083015261018080840151908301526101a080840151612d38828501826127e3565b505092915050565b801515811461236057600080fdfe436f6c6c61746572616c506f6f6c436f6e6669672f696e76616c69642d6c6971416363657373436f6e74726f6c3a2073656e646572206d75737420626520616ea26469706673582212204a959eee3a3059a6cb1508b936bc7170966238c8d438be1f1b144ba17f37cf7464736f6c634300060c0033",
  "linkReferences": {},
  "deployedLinkReferences": {}
}