{
  "_format": "hh-sol-artifact-1",
  "contractName": "MockAlpacaOracle",
  "sourceName": "contracts/6.12/mocks/MockAlpacaOracle.sol",
  "abi": [
    {
      "inputs": [
        {
          "internalType": "address",
          "name": "",
          "type": "address"
        },
        {
          "internalType": "address",
          "name": "",
          "type": "address"
        }
      ],
      "name": "getPrice",
      "outputs": [
        {
          "internalType": "uint256",
          "name": "price",
          "type": "uint256"
        },
        {
          "internalType": "uint256",
          "name": "lastUpdate",
          "type": "uint256"
        }
      ],
      "stateMutability": "view",
      "type": "function"
    }
  ],
  "bytecode": "0x608060405234801561001057600080fd5b5060b08061001f6000396000f3fe6080604052348015600f57600080fd5b506004361060285760003560e01c8063ac41865a14602d575b600080fd5b605860048036036040811015604157600080fd5b506001600160a01b03813581169160200135166071565b6040805192835260208301919091528051918290030190f35b5060009182915056fea26469706673582212201421d6e72d766c693ad1ad74dba739b9cfa27dfe7af864ec67380f80f32d87df64736f6c634300060c0033",
  "linkReferences": {},
  "deployedLinkReferences": {}
}