{
  "_format": "hh-sol-artifact-1",
  "contractName": "SwapMining",
  "sourceName": "contracts/6/protocol/apis/mdex/SwapMining.sol",
  "abi": [
    {
      "inputs": [
        {
          "internalType": "contract IMdx",
          "name": "_mdx",
          "type": "address"
        },
        {
          "internalType": "contract IMdexFactory",
          "name": "_factory",
          "type": "address"
        },
        {
          "internalType": "contract IOracle",
          "name": "_oracle",
          "type": "address"
        },
        {
          "internalType": "address",
          "name": "_router",
          "type": "address"
        },
        {
          "internalType": "address",
          "name": "_targetToken",
          "type": "address"
        },
        {
          "internalType": "uint256",
          "name": "_mdxPerBlock",
          "type": "uint256"
        },
        {
          "internalType": "uint256",
          "name": "_startBlock",
          "type": "uint256"
        }
      ],
      "stateMutability": "nonpayable",
      "type": "constructor"
    },
    {
      "anonymous": false,
      "inputs": [
        {
          "indexed": true,
          "internalType": "address",
          "name": "previousOwner",
          "type": "address"
        },
        {
          "indexed": true,
          "internalType": "address",
          "name": "newOwner",
          "type": "address"
        }
      ],
      "name": "OwnershipTransferred",
      "type": "event"
    },
    {
      "inputs": [
        {
          "internalType": "uint256",
          "name": "_allocPoint",
          "type": "uint256"
        },
        {
          "internalType": "address",
          "name": "_pair",
          "type": "address"
        },
        {
          "internalType": "bool",
          "name": "_withUpdate",
          "type": "bool"
        }
      ],
      "name": "addPair",
      "outputs": [],
      "stateMutability": "nonpayable",
      "type": "function"
    },
    {
      "inputs": [
        {
          "internalType": "address",
          "name": "_addToken",
          "type": "address"
        }
      ],
      "name": "addWhitelist",
      "outputs": [
        {
          "internalType": "bool",
          "name": "",
          "type": "bool"
        }
      ],
      "stateMutability": "nonpayable",
      "type": "function"
    },
    {
      "inputs": [
        {
          "internalType": "address",
          "name": "_delToken",
          "type": "address"
        }
      ],
      "name": "delWhitelist",
      "outputs": [
        {
          "internalType": "bool",
          "name": "",
          "type": "bool"
        }
      ],
      "stateMutability": "nonpayable",
      "type": "function"
    },
    {
      "inputs": [],
      "name": "factory",
      "outputs": [
        {
          "internalType": "contract IMdexFactory",
          "name": "",
          "type": "address"
        }
      ],
      "stateMutability": "view",
      "type": "function"
    },
    {
      "inputs": [
        {
          "internalType": "uint256",
          "name": "_lastRewardBlock",
          "type": "uint256"
        }
      ],
      "name": "getMdxReward",
      "outputs": [
        {
          "internalType": "uint256",
          "name": "",
          "type": "uint256"
        }
      ],
      "stateMutability": "view",
      "type": "function"
    },
    {
      "inputs": [
        {
          "internalType": "uint256",
          "name": "_pid",
          "type": "uint256"
        }
      ],
      "name": "getPoolInfo",
      "outputs": [
        {
          "internalType": "address",
          "name": "",
          "type": "address"
        },
        {
          "internalType": "address",
          "name": "",
          "type": "address"
        },
        {
          "internalType": "uint256",
          "name": "",
          "type": "uint256"
        },
        {
          "internalType": "uint256",
          "name": "",
          "type": "uint256"
        },
        {
          "internalType": "uint256",
          "name": "",
          "type": "uint256"
        },
        {
          "internalType": "uint256",
          "name": "",
          "type": "uint256"
        }
      ],
      "stateMutability": "view",
      "type": "function"
    },
    {
      "inputs": [
        {
          "internalType": "address",
          "name": "outputToken",
          "type": "address"
        },
        {
          "internalType": "uint256",
          "name": "outputAmount",
          "type": "uint256"
        },
        {
          "internalType": "address",
          "name": "anchorToken",
          "type": "address"
        }
      ],
      "name": "getQuantity",
      "outputs": [
        {
          "internalType": "uint256",
          "name": "",
          "type": "uint256"
        }
      ],
      "stateMutability": "view",
      "type": "function"
    },
    {
      "inputs": [
        {
          "internalType": "uint256",
          "name": "_pid",
          "type": "uint256"
        }
      ],
      "name": "getUserReward",
      "outputs": [
        {
          "internalType": "uint256",
          "name": "",
          "type": "uint256"
        },
        {
          "internalType": "uint256",
          "name": "",
          "type": "uint256"
        }
      ],
      "stateMutability": "view",
      "type": "function"
    },
    {
      "inputs": [
        {
          "internalType": "uint256",
          "name": "_index",
          "type": "uint256"
        }
      ],
      "name": "getWhitelist",
      "outputs": [
        {
          "internalType": "address",
          "name": "",
          "type": "address"
        }
      ],
      "stateMutability": "view",
      "type": "function"
    },
    {
      "inputs": [],
      "name": "getWhitelistLength",
      "outputs": [
        {
          "internalType": "uint256",
          "name": "",
          "type": "uint256"
        }
      ],
      "stateMutability": "view",
      "type": "function"
    },
    {
      "inputs": [],
      "name": "halvingPeriod",
      "outputs": [
        {
          "internalType": "uint256",
          "name": "",
          "type": "uint256"
        }
      ],
      "stateMutability": "view",
      "type": "function"
    },
    {
      "inputs": [
        {
          "internalType": "address",
          "name": "_token",
          "type": "address"
        }
      ],
      "name": "isWhitelist",
      "outputs": [
        {
          "internalType": "bool",
          "name": "",
          "type": "bool"
        }
      ],
      "stateMutability": "view",
      "type": "function"
    },
    {
      "inputs": [],
      "name": "massMintPools",
      "outputs": [],
      "stateMutability": "nonpayable",
      "type": "function"
    },
    {
      "inputs": [],
      "name": "mdx",
      "outputs": [
        {
          "internalType": "contract IMdx",
          "name": "",
          "type": "address"
        }
      ],
      "stateMutability": "view",
      "type": "function"
    },
    {
      "inputs": [],
      "name": "mdxPerBlock",
      "outputs": [
        {
          "internalType": "uint256",
          "name": "",
          "type": "uint256"
        }
      ],
      "stateMutability": "view",
      "type": "function"
    },
    {
      "inputs": [
        {
          "internalType": "uint256",
          "name": "_pid",
          "type": "uint256"
        }
      ],
      "name": "mint",
      "outputs": [
        {
          "internalType": "bool",
          "name": "",
          "type": "bool"
        }
      ],
      "stateMutability": "nonpayable",
      "type": "function"
    },
    {
      "inputs": [],
      "name": "oracle",
      "outputs": [
        {
          "internalType": "contract IOracle",
          "name": "",
          "type": "address"
        }
      ],
      "stateMutability": "view",
      "type": "function"
    },
    {
      "inputs": [],
      "name": "owner",
      "outputs": [
        {
          "internalType": "address",
          "name": "",
          "type": "address"
        }
      ],
      "stateMutability": "view",
      "type": "function"
    },
    {
      "inputs": [
        {
          "internalType": "address",
          "name": "",
          "type": "address"
        }
      ],
      "name": "pairOfPid",
      "outputs": [
        {
          "internalType": "uint256",
          "name": "",
          "type": "uint256"
        }
      ],
      "stateMutability": "view",
      "type": "function"
    },
    {
      "inputs": [
        {
          "internalType": "uint256",
          "name": "blockNumber",
          "type": "uint256"
        }
      ],
      "name": "phase",
      "outputs": [
        {
          "internalType": "uint256",
          "name": "",
          "type": "uint256"
        }
      ],
      "stateMutability": "view",
      "type": "function"
    },
    {
      "inputs": [],
      "name": "phase",
      "outputs": [
        {
          "internalType": "uint256",
          "name": "",
          "type": "uint256"
        }
      ],
      "stateMutability": "view",
      "type": "function"
    },
    {
      "inputs": [
        {
          "internalType": "uint256",
          "name": "",
          "type": "uint256"
        }
      ],
      "name": "poolInfo",
      "outputs": [
        {
          "internalType": "address",
          "name": "pair",
          "type": "address"
        },
        {
          "internalType": "uint256",
          "name": "quantity",
          "type": "uint256"
        },
        {
          "internalType": "uint256",
          "name": "totalQuantity",
          "type": "uint256"
        },
        {
          "internalType": "uint256",
          "name": "allocPoint",
          "type": "uint256"
        },
        {
          "internalType": "uint256",
          "name": "allocMdxAmount",
          "type": "uint256"
        },
        {
          "internalType": "uint256",
          "name": "lastRewardBlock",
          "type": "uint256"
        }
      ],
      "stateMutability": "view",
      "type": "function"
    },
    {
      "inputs": [],
      "name": "poolLength",
      "outputs": [
        {
          "internalType": "uint256",
          "name": "",
          "type": "uint256"
        }
      ],
      "stateMutability": "view",
      "type": "function"
    },
    {
      "inputs": [],
      "name": "renounceOwnership",
      "outputs": [],
      "stateMutability": "nonpayable",
      "type": "function"
    },
    {
      "inputs": [],
      "name": "reward",
      "outputs": [
        {
          "internalType": "uint256",
          "name": "",
          "type": "uint256"
        }
      ],
      "stateMutability": "view",
      "type": "function"
    },
    {
      "inputs": [
        {
          "internalType": "uint256",
          "name": "blockNumber",
          "type": "uint256"
        }
      ],
      "name": "reward",
      "outputs": [
        {
          "internalType": "uint256",
          "name": "",
          "type": "uint256"
        }
      ],
      "stateMutability": "view",
      "type": "function"
    },
    {
      "inputs": [],
      "name": "router",
      "outputs": [
        {
          "internalType": "address",
          "name": "",
          "type": "address"
        }
      ],
      "stateMutability": "view",
      "type": "function"
    },
    {
      "inputs": [
        {
          "internalType": "uint256",
          "name": "_block",
          "type": "uint256"
        }
      ],
      "name": "setHalvingPeriod",
      "outputs": [],
      "stateMutability": "nonpayable",
      "type": "function"
    },
    {
      "inputs": [
        {
          "internalType": "uint256",
          "name": "_newPerBlock",
          "type": "uint256"
        }
      ],
      "name": "setMdxPerBlock",
      "outputs": [],
      "stateMutability": "nonpayable",
      "type": "function"
    },
    {
      "inputs": [
        {
          "internalType": "contract IOracle",
          "name": "_oracle",
          "type": "address"
        }
      ],
      "name": "setOracle",
      "outputs": [],
      "stateMutability": "nonpayable",
      "type": "function"
    },
    {
      "inputs": [
        {
          "internalType": "uint256",
          "name": "_pid",
          "type": "uint256"
        },
        {
          "internalType": "uint256",
          "name": "_allocPoint",
          "type": "uint256"
        },
        {
          "internalType": "bool",
          "name": "_withUpdate",
          "type": "bool"
        }
      ],
      "name": "setPair",
      "outputs": [],
      "stateMutability": "nonpayable",
      "type": "function"
    },
    {
      "inputs": [
        {
          "internalType": "address",
          "name": "newRouter",
          "type": "address"
        }
      ],
      "name": "setRouter",
      "outputs": [],
      "stateMutability": "nonpayable",
      "type": "function"
    },
    {
      "inputs": [],
      "name": "startBlock",
      "outputs": [
        {
          "internalType": "uint256",
          "name": "",
          "type": "uint256"
        }
      ],
      "stateMutability": "view",
      "type": "function"
    },
    {
      "inputs": [
        {
          "internalType": "address",
          "name": "account",
          "type": "address"
        },
        {
          "internalType": "address",
          "name": "input",
          "type": "address"
        },
        {
          "internalType": "address",
          "name": "output",
          "type": "address"
        },
        {
          "internalType": "uint256",
          "name": "amount",
          "type": "uint256"
        }
      ],
      "name": "swap",
      "outputs": [
        {
          "internalType": "bool",
          "name": "",
          "type": "bool"
        }
      ],
      "stateMutability": "nonpayable",
      "type": "function"
    },
    {
      "inputs": [],
      "name": "takerWithdraw",
      "outputs": [],
      "stateMutability": "nonpayable",
      "type": "function"
    },
    {
      "inputs": [],
      "name": "targetToken",
      "outputs": [
        {
          "internalType": "address",
          "name": "",
          "type": "address"
        }
      ],
      "stateMutability": "view",
      "type": "function"
    },
    {
      "inputs": [],
      "name": "totalAllocPoint",
      "outputs": [
        {
          "internalType": "uint256",
          "name": "",
          "type": "uint256"
        }
      ],
      "stateMutability": "view",
      "type": "function"
    },
    {
      "inputs": [
        {
          "internalType": "address",
          "name": "newOwner",
          "type": "address"
        }
      ],
      "name": "transferOwnership",
      "outputs": [],
      "stateMutability": "nonpayable",
      "type": "function"
    },
    {
      "inputs": [
        {
          "internalType": "uint256",
          "name": "",
          "type": "uint256"
        },
        {
          "internalType": "address",
          "name": "",
          "type": "address"
        }
      ],
      "name": "userInfo",
      "outputs": [
        {
          "internalType": "uint256",
          "name": "quantity",
          "type": "uint256"
        },
        {
          "internalType": "uint256",
          "name": "blockNumber",
          "type": "uint256"
        }
      ],
      "stateMutability": "view",
      "type": "function"
    }
  ],
  "bytecode": "0x608060405262197d00600555600060065534801561001c57600080fd5b506040516126d53803806126d5833981810160405260e081101561003f57600080fd5b508051602082015160408301516060840151608085015160a086015160c0909601519495939492939192909190600061007f6001600160e01b0361013616565b600080546001600160a01b0319166001600160a01b0383169081178255604051929350917f8be0079c531659141344cd1fd0a4f28419497f9722a3daafe3b4186f6b6457e0908290a350600a80546001600160a01b03199081166001600160a01b03998a1617909155600980548216978916979097179096556007805487169588169590951790945560088054861693871693909317909255600b805490941694169390931790915560039190915560045561013a565b3390565b61258c806101496000396000f3fe608060405234801561001057600080fd5b50600436106101cd5760003560e01c80630495de50146101d2578063081e3eda1461020a578063135f8aa7146102125780631526fe271461022f57806317caf6f114610289578063190cf6c914610291578063228cb733146102be5780632f380b35146102c6578063327107f71461032257806348cd4cb1146103465780635672ab551461034e5780635a3e251f14610356578063715018a61461035e578063791ba374146103665780637adbf973146103835780637dc0d1d0146103a95780638da5cb5b146103b15780638fa39a88146103b957806393f1a40b146103c157806396db752a1461040657806397ecfaab146104235780639f4ece2e1461045d5780639fb08cb714610465578063a0712d6814610482578063a13202e91461049f578063a7ef67f6146104a7578063a9678a18146104dd578063a9fb763c14610519578063b1c9fe6e14610536578063b5ec5c991461053e578063b872dd0e1461055b578063c0d7865514610563578063c45a015514610589578063c683630d14610591578063e377fe35146105b7578063f2fde38b146105d4578063f80f5dd5146105fa578063f887ea4014610620578063f9d181f914610628575b600080fd5b6101f8600480360360208110156101e857600080fd5b50356001600160a01b031661065c565b60408051918252519081900360200190f35b6101f861066e565b6101f86004803603602081101561022857600080fd5b5035610674565b61024c6004803603602081101561024557600080fd5b50356106db565b604080516001600160a01b0390971687526020870195909552858501939093526060850191909152608084015260a0830152519081900360c00190f35b6101f8610728565b6102bc600480360360608110156102a757600080fd5b5080359060208101359060400135151561072e565b005b6101f861080f565b6102e3600480360360208110156102dc57600080fd5b503561081f565b604080516001600160a01b039788168152959096166020860152848601939093526060840191909152608083015260a082015290519081900360c00190f35b61032a610a2f565b604080516001600160a01b039092168252519081900360200190f35b6101f8610a3e565b61032a610a44565b6101f8610a53565b6102bc610a59565b6102bc6004803603602081101561037c57600080fd5b5035610af3565b6102bc6004803603602081101561039957600080fd5b50356001600160a01b0316610b62565b61032a610c2b565b61032a610c3a565b6101f8610c49565b6103ed600480360360408110156103d757600080fd5b50803590602001356001600160a01b0316610c4f565b6040805192835260208301919091528051918290030190f35b61032a6004803603602081101561041c57600080fd5b5035610c73565b6104496004803603602081101561043957600080fd5b50356001600160a01b0316610ce5565b604080519115158252519081900360200190f35b6102bc610d99565b6103ed6004803603602081101561047b57600080fd5b5035610dbd565b6104496004803603602081101561049857600080fd5b5035610f4b565b6101f8611071565b6101f8600480360360608110156104bd57600080fd5b506001600160a01b0381358116916020810135916040909101351661107d565b610449600480360360808110156104f357600080fd5b506001600160a01b03813581169160208101358216916040820135169060600135611440565b6101f86004803603602081101561052f57600080fd5b5035611769565b6101f8611796565b6102bc6004803603602081101561055457600080fd5b50356117a1565b6102bc611808565b6102bc6004803603602081101561057957600080fd5b50356001600160a01b031661197b565b61032a611a44565b610449600480360360208110156105a757600080fd5b50356001600160a01b0316611a53565b6101f8600480360360208110156105cd57600080fd5b5035611a60565b6102bc600480360360208110156105ea57600080fd5b50356001600160a01b0316611b56565b6104496004803603602081101561061057600080fd5b50356001600160a01b0316611c46565b61032a611cfa565b6102bc6004803603606081101561063e57600080fd5b508035906001600160a01b0360208201351690604001351515611d09565b600c6020526000908152604090205481565b600d5490565b600060055460001415610689575060006106d6565b6004548211156106d2576106cb6005546106bf60016106b360045487611f7390919063ffffffff16565b9063ffffffff611f7316565b9063ffffffff611fd016565b90506106d6565b5060005b919050565b600d81815481106106e857fe5b60009182526020909120600690910201805460018201546002830154600384015460048501546005909501546001600160a01b0390941695509193909286565b60065481565b610736612034565b6001600160a01b0316610747610c3a565b6001600160a01b031614610790576040805162461bcd60e51b81526020600482018190526024820152600080516020612495833981519152604482015290519081900360640190fd5b801561079e5761079e610d99565b6107e1826107d5600d86815481106107b257fe5b906000526020600020906006020160030154600654611f7390919063ffffffff16565b9063ffffffff61203816565b60068190555081600d84815481106107f557fe5b906000526020600020906006020160030181905550505050565b600061081a43611769565b905090565b6000806000806000806001600d8054905003871115610873576040805162461bcd60e51b815260206004820152601e60248201526000805160206124b5833981519152604482015290519081900360640190fd5b61087b6122cf565b600d888154811061088857fe5b600091825260208083206040805160c081018252600690940290910180546001600160a01b031680855260018201548585015260028201548584015260038201546060860152600480830154608087015260059092015460a08601528251630dfe168160e01b8152925194965093630dfe16819383830193909290829003018186803b15801561091757600080fd5b505afa15801561092b573d6000803e3d6000fd5b505050506040513d602081101561094157600080fd5b505182516040805163d21220a760e01b815290519293506000926001600160a01b039092169163d21220a791600480820192602092909190829003018186803b15801561098d57600080fd5b505afa1580156109a1573d6000803e3d6000fd5b505050506040513d60208110156109b757600080fd5b5051608084015160a0850151919250906000906109d390611a60565b905060006109f46006546106bf88606001518561209090919063ffffffff16565b9050610a06838263ffffffff61203816565b60408701516020880151606090980151969f959e50909c509a5094985092965090945050505050565b600b546001600160a01b031681565b60045481565b600a546001600160a01b031681565b60055481565b610a61612034565b6001600160a01b0316610a72610c3a565b6001600160a01b031614610abb576040805162461bcd60e51b81526020600482018190526024820152600080516020612495833981519152604482015290519081900360640190fd5b600080546040516001600160a01b03909116906000805160206124d5833981519152908390a3600080546001600160a01b0319169055565b610afb612034565b6001600160a01b0316610b0c610c3a565b6001600160a01b031614610b55576040805162461bcd60e51b81526020600482018190526024820152600080516020612495833981519152604482015290519081900360640190fd5b610b5d610d99565b600355565b610b6a612034565b6001600160a01b0316610b7b610c3a565b6001600160a01b031614610bc4576040805162461bcd60e51b81526020600482018190526024820152600080516020612495833981519152604482015290519081900360640190fd5b6001600160a01b038116610c095760405162461bcd60e51b815260040180806020018281038252602a815260200180612426602a913960400191505060405180910390fd5b600780546001600160a01b0319166001600160a01b0392909216919091179055565b6007546001600160a01b031681565b6000546001600160a01b031690565b60035481565b600e6020908152600092835260408084209091529082529020805460019091015482565b60006001610c7f611071565b03821115610cd4576040805162461bcd60e51b815260206004820152601f60248201527f537761704d696e696e673a20696e646578206f7574206f6620626f756e647300604482015290519081900360640190fd5b610cdf6001836120e9565b92915050565b6000610cef612034565b6001600160a01b0316610d00610c3a565b6001600160a01b031614610d49576040805162461bcd60e51b81526020600482018190526024820152600080516020612495833981519152604482015290519081900360640190fd5b6001600160a01b038216610d8e5760405162461bcd60e51b81526004018080602001828103825260258152602001806123d06025913960400191505060405180910390fd5b610cdf6001836120f5565b600d5460005b81811015610db957610db081610f4b565b50600101610d9f565b5050565b600d54600090819060001901831115610e0b576040805162461bcd60e51b815260206004820152601e60248201526000805160206124b5833981519152604482015290519081900360640190fd5b6000610e156122cf565b600d8581548110610e2257fe5b60009182526020918290206040805160c081018252600690930290910180546001600160a01b03168352600181015493830193909352600283015490820152600382015460608201526004820154608082015260059091015460a08201529050610e8a61230e565b506000858152600e60209081526040808320338452825291829020825180840190935280548084526001909101549183019190915215610f3e576000610ed38360a00151611a60565b90506000610ef46006546106bf86606001518561209090919063ffffffff16565b9050610f39610f2c85602001516106bf8660000151610f20868a6080015161203890919063ffffffff16565b9063ffffffff61209016565b869063ffffffff61203816565b945050505b5191935090915050915091565b600080600d8381548110610f5b57fe5b9060005260206000209060060201905080600501544311610f805760009150506106d6565b6000610f8f8260050154611a60565b905060008111610fa4576000925050506106d6565b6000610fc36006546106bf85600301548561209090919063ffffffff16565b600a54604080516340c10f1960e01b81523060048201526024810184905290519293506001600160a01b03909116916340c10f19916044808201926020929091908290030181600087803b15801561101a57600080fd5b505af115801561102e573d6000803e3d6000fd5b505050506040513d602081101561104457600080fd5b5050600483015461105b908263ffffffff61203816565b6004840155505043600590910155506001919050565b600061081a600161210a565b6000806001600160a01b03858116908416141561109b575082611438565b6009546040805163e6a4390560e01b81526001600160a01b038881166004830152868116602483015291516000939092169163e6a4390591604480820192602092909190829003018186803b1580156110f357600080fd5b505afa158015611107573d6000803e3d6000fd5b505050506040513d602081101561111d57600080fd5b50516001600160a01b0316146111bc5760075460408051632321bc7960e21b81526001600160a01b03888116600483015260248201889052868116604483015291519190921691638c86f1e4916064808301926020929190829003018186803b15801561118957600080fd5b505afa15801561119d573d6000803e3d6000fd5b505050506040513d60208110156111b357600080fd5b50519050611438565b60006111c6611071565b905060005b818110156114355760006111de82610c73565b6009546040805163e6a4390560e01b81526001600160a01b038c8116600483015284811660248301529151939450600093919092169163e6a43905916044808301926020929190829003018186803b15801561123957600080fd5b505afa15801561124d573d6000803e3d6000fd5b505050506040513d602081101561126357600080fd5b50516001600160a01b03161480159061130757506009546040805163e6a4390560e01b81526001600160a01b038481166004830152898116602483015291516000939092169163e6a4390591604480820192602092909190829003018186803b1580156112cf57600080fd5b505afa1580156112e3573d6000803e3d6000fd5b505050506040513d60208110156112f957600080fd5b50516001600160a01b031614155b1561142c5760075460408051632321bc7960e21b81526001600160a01b038b81166004830152602482018b9052848116604483015291516000939290921691638c86f1e491606480820192602092909190829003018186803b15801561136c57600080fd5b505afa158015611380573d6000803e3d6000fd5b505050506040513d602081101561139657600080fd5b505160075460408051632321bc7960e21b81526001600160a01b038681166004830152602482018590528b811660448301529151939450911691638c86f1e491606480820192602092909190829003018186803b1580156113f657600080fd5b505afa15801561140a573d6000803e3d6000fd5b505050506040513d602081101561142057600080fd5b50519450611435915050565b506001016111cb565b50505b949350505050565b6008546000906001600160a01b0316331461148c5760405162461bcd60e51b81526004018080602001828103825260248152602001806124506024913960400191505060405180910390fd5b6001600160a01b0385166114d15760405162461bcd60e51b81526004018080602001828103825260328152602001806124f56032913960400191505060405180910390fd5b6001600160a01b0384166115165760405162461bcd60e51b81526004018080602001828103825260308152602001806125276030913960400191505060405180910390fd5b6001600160a01b03831661155b5760405162461bcd60e51b81526004018080602001828103825260318152602001806123f56031913960400191505060405180910390fd5b600061156561066e565b1161157257506000611438565b61157b84611a53565b158061158d575061158b83611a53565b155b1561159a57506000611438565b600954604080516396ed28f960e01b81526001600160a01b0387811660048301528681166024830152915160009392909216916396ed28f991604480820192602092909190829003018186803b1580156115f357600080fd5b505afa158015611607573d6000803e3d6000fd5b505050506040513d602081101561161d57600080fd5b50516001600160a01b0381166000908152600c6020526040812054600d80549394509192811061164957fe5b6000918252602090912060069091020180549091506001600160a01b03838116911614158061167a57506003810154155b1561168a57600092505050611438565b600b546000906116a690879087906001600160a01b031661107d565b9050600081116116bc5760009350505050611438565b6001600160a01b0383166000908152600c60205260409020546116de90610f4b565b5060018201546116f4908263ffffffff61203816565b6001830155600282015461170e908263ffffffff61203816565b60028301556001600160a01b038084166000908152600c60209081526040808320548352600e8252808320938c168352929052208054611754908363ffffffff61203816565b81554360019182015598975050505050505050565b60008061177583610674565b905061178f8160020a600354611fd090919063ffffffff16565b9392505050565b600061081a43610674565b6117a9612034565b6001600160a01b03166117ba610c3a565b6001600160a01b031614611803576040805162461bcd60e51b81526020600482018190526024820152600080516020612495833981519152604482015290519081900360640190fd5b600555565b600d54600090815b818110156118e6576000600d828154811061182757fe5b60009182526020808320858452600e825260408085203386529092529220805460069092029092019250156118dc5761185f83610f4b565b50600061188583600101546106bf8460000154866004015461209090919063ffffffff16565b8254600185015491925061189f919063ffffffff611f7316565b600184015560048301546118b9908263ffffffff611f7316565b6004840155600082554360018301556118d8868263ffffffff61203816565b9550505b5050600101611810565b50600082116118f6575050611979565b600a546040805163a9059cbb60e01b81523360048201526024810185905290516001600160a01b039092169163a9059cbb916044808201926020929091908290030181600087803b15801561194a57600080fd5b505af115801561195e573d6000803e3d6000fd5b505050506040513d602081101561197457600080fd5b505050505b565b611983612034565b6001600160a01b0316611994610c3a565b6001600160a01b0316146119dd576040805162461bcd60e51b81526020600482018190526024820152600080516020612495833981519152604482015290519081900360640190fd5b6001600160a01b038116611a225760405162461bcd60e51b815260040180806020018281038252602a81526020018061234b602a913960400191505060405180910390fd5b600880546001600160a01b0319166001600160a01b0392909216919091179055565b6009546001600160a01b031681565b6000610cdf600183612115565b600043821115611aa15760405162461bcd60e51b815260040180806020018281038252603581526020018061239b6035913960400191505060405180910390fd5b600080611aad84610674565b90506000611aba43610674565b90505b80821015611b2157600454600554600190930192600091611ae9916107d590869063ffffffff61209016565b9050611b17611b0a611afa83611769565b610f20848a63ffffffff611f7316565b859063ffffffff61203816565b9095509250611abd565b611b4d611b40611b3043611769565b610f20438963ffffffff611f7316565b849063ffffffff61203816565b95945050505050565b611b5e612034565b6001600160a01b0316611b6f610c3a565b6001600160a01b031614611bb8576040805162461bcd60e51b81526020600482018190526024820152600080516020612495833981519152604482015290519081900360640190fd5b6001600160a01b038116611bfd5760405162461bcd60e51b81526004018080602001828103825260268152602001806123756026913960400191505060405180910390fd5b600080546040516001600160a01b03808516939216916000805160206124d583398151915291a3600080546001600160a01b0319166001600160a01b0392909216919091179055565b6000611c50612034565b6001600160a01b0316611c61610c3a565b6001600160a01b031614611caa576040805162461bcd60e51b81526020600482018190526024820152600080516020612495833981519152604482015290519081900360640190fd5b6001600160a01b038216611cef5760405162461bcd60e51b81526004018080602001828103825260258152602001806123d06025913960400191505060405180910390fd5b610cdf60018361212a565b6008546001600160a01b031681565b611d11612034565b6001600160a01b0316611d22610c3a565b6001600160a01b031614611d6b576040805162461bcd60e51b81526020600482018190526024820152600080516020612495833981519152604482015290519081900360640190fd5b6001600160a01b038216611dc2576040805162461bcd60e51b81526020600482015260196024820152785f7061697220697320746865207a65726f206164647265737360381b604482015290519081900360640190fd5b8015611dd057611dd0610d99565b60006004544311611de357600454611de5565b435b600654909150611dfb908563ffffffff61203816565b60069081556040805160c0810182526001600160a01b038681168252600060208301818152938301818152606084018a81526080850183815260a08601898152600d8054600180820183559190965296517fd7b6990105719101dabeb77144f2a3385c8033acd3af97e9423a695e81ad1eb59590990294850180546001600160a01b031916999096169890981790945594517fd7b6990105719101dabeb77144f2a3385c8033acd3af97e9423a695e81ad1eb6830155517fd7b6990105719101dabeb77144f2a3385c8033acd3af97e9423a695e81ad1eb782015592517fd7b6990105719101dabeb77144f2a3385c8033acd3af97e9423a695e81ad1eb8840155517fd7b6990105719101dabeb77144f2a3385c8033acd3af97e9423a695e81ad1eb983015591517fd7b6990105719101dabeb77144f2a3385c8033acd3af97e9423a695e81ad1eba90910155611f5061066e565b6001600160a01b039094166000908152600c602052604090209303909255505050565b600082821115611fca576040805162461bcd60e51b815260206004820152601e60248201527f536166654d6174683a207375627472616374696f6e206f766572666c6f770000604482015290519081900360640190fd5b50900390565b6000808211612023576040805162461bcd60e51b815260206004820152601a602482015279536166654d6174683a206469766973696f6e206279207a65726f60301b604482015290519081900360640190fd5b81838161202c57fe5b049392505050565b3390565b60008282018381101561178f576040805162461bcd60e51b815260206004820152601b60248201527a536166654d6174683a206164646974696f6e206f766572666c6f7760281b604482015290519081900360640190fd5b60008261209f57506000610cdf565b828202828482816120ac57fe5b041461178f5760405162461bcd60e51b81526004018080602001828103825260218152602001806124746021913960400191505060405180910390fd5b600061178f838361213f565b600061178f836001600160a01b0384166121a3565b6000610cdf82612269565b600061178f836001600160a01b03841661226d565b600061178f836001600160a01b038416612285565b815460009082106121815760405162461bcd60e51b81526004018080602001828103825260228152602001806123296022913960400191505060405180910390fd5b82600001828154811061219057fe5b9060005260206000200154905092915050565b6000818152600183016020526040812054801561225f57835460001980830191908101906000908790839081106121d657fe5b90600052602060002001549050808760000184815481106121f357fe5b60009182526020808320909101929092558281526001898101909252604090209084019055865487908061222357fe5b60019003818190600052602060002001600090559055866001016000878152602001908152602001600020600090556001945050505050610cdf565b6000915050610cdf565b5490565b60009081526001919091016020526040902054151590565b6000612291838361226d565b6122c757508154600181810184556000848152602080822090930184905584548482528286019093526040902091909155610cdf565b506000610cdf565b6040518060c0016040528060006001600160a01b0316815260200160008152602001600081526020016000815260200160008152602001600081525090565b60405180604001604052806000815260200160008152509056fe456e756d657261626c655365743a20696e646578206f7574206f6620626f756e6473537761704d696e696e673a206e657720726f7574657220697320746865207a65726f20616464726573734f776e61626c653a206e6577206f776e657220697320746865207a65726f2061646472657373537761704d696e696e673a206d757374206c6974746c65207468616e207468652063757272656e7420626c6f636b206e756d626572537761704d696e696e673a20746f6b656e20697320746865207a65726f2061646472657373537761704d696e696e673a2074616b65722073776170206f757470757420697320746865207a65726f2061646472657373537761704d696e696e673a206e6577206f7261636c6520697320746865207a65726f2061646472657373537761704d696e696e673a2063616c6c6572206973206e6f742074686520726f75746572536166654d6174683a206d756c7469706c69636174696f6e206f766572666c6f774f776e61626c653a2063616c6c6572206973206e6f7420746865206f776e6572537761704d696e696e673a204e6f742066696e64207468697320706f6f6c00008be0079c531659141344cd1fd0a4f28419497f9722a3daafe3b4186f6b6457e0537761704d696e696e673a2074616b65722073776170206163636f756e7420697320746865207a65726f2061646472657373537761704d696e696e673a2074616b6572207377617020696e70757420697320746865207a65726f2061646472657373a264697066735822122085f8dfed8e3d55b77dfbf74800302163720ba7aa3199b9ba338fb928468df5cc64736f6c63430006060033",
  "linkReferences": {},
  "deployedLinkReferences": {}
}