{
  "_format": "hh-sol-artifact-1",
  "contractName": "PancakeswapV2StrategyAddTwoSidesOptimal",
  "sourceName": "contracts/6/protocol/strategies/pancakeswapV2/PancakeswapV2StrategyAddTwoSidesOptimal.sol",
  "abi": [
    {
      "inputs": [
        {
          "internalType": "address",
          "name": "",
          "type": "address"
        },
        {
          "internalType": "uint256",
          "name": "",
          "type": "uint256"
        },
        {
          "internalType": "bytes",
          "name": "data",
          "type": "bytes"
        }
      ],
      "name": "execute",
      "outputs": [],
      "stateMutability": "nonpayable",
      "type": "function"
    },
    {
      "inputs": [],
      "name": "factory",
      "outputs": [
        {
          "internalType": "contract IPancakeFactory",
          "name": "",
          "type": "address"
        }
      ],
      "stateMutability": "view",
      "type": "function"
    },
    {
      "inputs": [
        {
          "internalType": "contract IPancakeRouter02",
          "name": "_router",
          "type": "address"
        },
        {
          "internalType": "contract IVault",
          "name": "_vault",
          "type": "address"
        }
      ],
      "name": "initialize",
      "outputs": [],
      "stateMutability": "nonpayable",
      "type": "function"
    },
    {
      "inputs": [],
      "name": "router",
      "outputs": [
        {
          "internalType": "contract IPancakeRouter02",
          "name": "",
          "type": "address"
        }
      ],
      "stateMutability": "view",
      "type": "function"
    },
    {
      "inputs": [],
      "name": "vault",
      "outputs": [
        {
          "internalType": "contract IVault",
          "name": "",
          "type": "address"
        }
      ],
      "stateMutability": "view",
      "type": "function"
    },
    {
      "stateMutability": "payable",
      "type": "receive"
    }
  ],
  "bytecode": "0x608060405234801561001057600080fd5b506114a4806100206000396000f3fe60806040526004361061004e5760003560e01c8063485cc9551461005a578063b61d27f614610097578063c45a015514610127578063f887ea4014610158578063fbfa77cf1461016d57610055565b3661005557005b600080fd5b34801561006657600080fd5b506100956004803603604081101561007d57600080fd5b506001600160a01b0381358116916020013516610182565b005b3480156100a357600080fd5b50610095600480360360608110156100ba57600080fd5b6001600160a01b0382351691602081013591810190606081016040820135600160201b8111156100e957600080fd5b8201836020820111156100fb57600080fd5b803590602001918460018302840111600160201b8311171561011c57600080fd5b5090925090506102ce565b34801561013357600080fd5b5061013c610abd565b604080516001600160a01b039092168252519081900360200190f35b34801561016457600080fd5b5061013c610acc565b34801561017957600080fd5b5061013c610adb565b600054610100900460ff168061019b575061019b610aea565b806101a9575060005460ff16155b6101e45760405162461bcd60e51b815260040180806020018281038252602e8152602001806113ef602e913960400191505060405180910390fd5b600054610100900460ff1615801561020f576000805460ff1961ff0019909116610100171660011790555b610217610af0565b826001600160a01b031663c45a01556040518163ffffffff1660e01b815260040160206040518083038186803b15801561025057600080fd5b505afa158015610264573d6000803e3d6000fd5b505050506040513d602081101561027a57600080fd5b5051606580546001600160a01b03199081166001600160a01b03938416179091556066805482168684161790556067805490911691841691909117905580156102c9576000805461ff00191690555b505050565b60335460ff16610325576040805162461bcd60e51b815260206004820152601f60248201527f5265656e7472616e637947756172643a207265656e7472616e742063616c6c00604482015290519081900360640190fd5b6033805460ff1916905560008080808585608081101561034457600080fd5b506065546040805163e6a4390560e01b81526001600160a01b0360208581013582166004840181905286358316602485018190528551909b50909950938601359750606090950135955060009493169263e6a4390592604480840193829003018186803b1580156103b457600080fd5b505afa1580156103c8573d6000803e3d6000fd5b505050506040513d60208110156103de57600080fd5b5051606654909150610405906001600160a01b03878116911660001963ffffffff610b9a16565b606654610427906001600160a01b03868116911660001963ffffffff610b9a16565b606754604080516324a3335b60e11b81526001600160a01b038781166004830152602482018790529151919092169163494666b691604480830192600092919082900301818387803b15801561047c57600080fd5b505af1158015610490573d6000803e3d6000fd5b5050505060006104a8866001600160a01b0316610cf3565b9050600080600080856001600160a01b0316630902f1ac6040518163ffffffff1660e01b815260040160606040518083038186803b1580156104e957600080fd5b505afa1580156104fd573d6000803e3d6000fd5b505050506040513d606081101561051357600080fd5b81019080805190602001909291908051906020019092919080519060200190929190505050506001600160701b031691506001600160701b031691506000808b6001600160a01b0316886001600160a01b0316630dfe16816040518163ffffffff1660e01b815260040160206040518083038186803b15801561059557600080fd5b505afa1580156105a9573d6000803e3d6000fd5b505050506040513d60208110156105bf57600080fd5b50516001600160a01b0316146105d65782846105d9565b83835b915091506105fa876105f38d6001600160a01b0316610cf3565b8484610d71565b90965094506060935060029250600091506106129050565b5060405190808252806020026020018201604052801561063c578160200160208202803683370190505b5090508161064b57888861064e565b87895b8260008151811061065b57fe5b602002602001018360018151811061066f57fe5b6001600160a01b039384166020918202929092010152911690528215610807576066546040516338ed173960e01b8152600481018581526000602483018190523060648401819052426084850181905260a060448601908152875160a487015287516001600160a01b03909716966338ed1739968b968a9594939092909160c40190602080880191028083838b5b838110156107155781810151838201526020016106fd565b505050509050019650505050505050600060405180830381600087803b15801561073e57600080fd5b505af1158015610752573d6000803e3d6000fd5b505050506040513d6000823e601f3d908101601f19168201604052602081101561077b57600080fd5b8101908080516040519392919084600160201b82111561079a57600080fd5b9083019060208201858111156107af57600080fd5b82518660208202830111600160201b821117156107cb57600080fd5b82525081516020918201928201910280838360005b838110156107f85781810151838201526020016107e0565b50505050905001604052505050505b6066546000906001600160a01b039081169063e8e33700908c908c9061082e908316610cf3565b6108408e6001600160a01b0316610cf3565b604080516001600160e01b031960e088901b1681526001600160a01b0395861660048201529390941660248401526044830191909152606482015260006084820181905260a482018190523060c48301524260e483015291516101048083019360609383900390910190829087803b1580156108bb57600080fd5b505af11580156108cf573d6000803e3d6000fd5b505050506040513d60608110156108e557600080fd5b506040015190508681101561092b5760405162461bcd60e51b815260040180806020018281038252605281526020018061141d6052913960600191505060405180910390fd5b604080516370a0823160e01b815230600482015290516001600160a01b0388169163a9059cbb91339184916370a0823191602480820192602092909190829003018186803b15801561097c57600080fd5b505afa158015610990573d6000803e3d6000fd5b505050506040513d60208110156109a657600080fd5b5051604080516001600160e01b031960e086901b1681526001600160a01b03909316600484015260248301919091525160448083019260209291908290030181600087803b1580156109f757600080fd5b505af1158015610a0b573d6000803e3d6000fd5b505050506040513d6020811015610a2157600080fd5b5051610a5e5760405162461bcd60e51b815260040180806020018281038252605c815260200180611393605c913960600191505060405180910390fd5b606654610a7f906001600160a01b038b81169116600063ffffffff610b9a16565b606654610aa0906001600160a01b038c81169116600063ffffffff610b9a16565b50506033805460ff19166001179055505050505050505050505050565b6065546001600160a01b031681565b6066546001600160a01b031681565b6067546001600160a01b031681565b303b1590565b600054610100900460ff1680610b095750610b09610aea565b80610b17575060005460ff16155b610b525760405162461bcd60e51b815260040180806020018281038252602e8152602001806113ef602e913960400191505060405180910390fd5b600054610100900460ff16158015610b7d576000805460ff1961ff0019909116610100171660011790555b610b85610dcc565b8015610b97576000805461ff00191690555b50565b604080516001600160a01b038481166024830152604480830185905283518084039091018152606490920183526020820180516001600160e01b031663095ea7b360e01b178152925182516000946060949389169392918291908083835b60208310610c175780518252601f199092019160209182019101610bf8565b6001836020036101000a0380198251168184511680821785525050505050509050019150506000604051808303816000865af19150503d8060008114610c79576040519150601f19603f3d011682016040523d82523d6000602084013e610c7e565b606091505b5091509150818015610cac575080511580610cac5750808060200190516020811015610ca957600080fd5b50515b610cec576040805162461bcd60e51b815260206004820152600c60248201526b2173616665417070726f766560a01b604482015290519081900360640190fd5b5050505050565b604080516370a0823160e01b815230600482015290516000916001600160a01b038416916370a0823191602480820192602092909190829003018186803b158015610d3d57600080fd5b505afa158015610d51573d6000803e3d6000fd5b505050506040513d6020811015610d6757600080fd5b505190505b919050565b600080610d84858563ffffffff610e7a16565b610d94878563ffffffff610e7a16565b10610db057610da586868686610edc565b915060009050610dc3565b610dbc85878587610edc565b9150600190505b94509492505050565b600054610100900460ff1680610de55750610de5610aea565b80610df3575060005460ff16155b610e2e5760405162461bcd60e51b815260040180806020018281038252602e8152602001806113ef602e913960400191505060405180910390fd5b600054610100900460ff16158015610e59576000805460ff1961ff0019909116610100171660011790555b6033805460ff191660011790558015610b97576000805461ff001916905550565b600082610e8957506000610ed6565b82820282848281610e9657fe5b0414610ed35760405162461bcd60e51b81526004018080602001828103825260218152602001806113726021913960400191505060405180910390fd5b90505b92915050565b6000610eee848463ffffffff610e7a16565b610efe868463ffffffff610e7a16565b1015610f3c576040805162461bcd60e51b815260206004820152600860248201526714995d995c9cd95960c21b604482015290519081900360640190fd5b6126f76000610f53614e078663ffffffff610e7a16565b90506000610f86610f6a888863ffffffff610e7a16565b610f7a8a8863ffffffff610e7a16565b9063ffffffff61105c16565b90506000610fcb87610fbf610fa18b8a63ffffffff61109e16565b610fb38661271063ffffffff610e7a16565b9063ffffffff6110f616565b9063ffffffff610e7a16565b90506000610fe46004610fbf878563ffffffff610e7a16565b9050600061101061100b83610fff888063ffffffff610e7a16565b9063ffffffff61109e16565b611135565b90506000611024828763ffffffff61105c16565b9050600061103988600263ffffffff610e7a16565b905061104b828263ffffffff6110f616565b9d9c50505050505050505050505050565b6000610ed383836040518060400160405280601e81526020017f536166654d6174683a207375627472616374696f6e206f766572666c6f770000815250611275565b600082820183811015610ed3576040805162461bcd60e51b815260206004820152601b60248201527a536166654d6174683a206164646974696f6e206f766572666c6f7760281b604482015290519081900360640190fd5b6000610ed383836040518060400160405280601a815260200179536166654d6174683a206469766973696f6e206279207a65726f60301b81525061130c565b60008161114457506000610d6c565b816001600160801b821061115d5760809190911c9060401b5b600160401b82106111735760409190911c9060201b5b600160201b82106111895760209190911c9060101b5b62010000821061119e5760109190911c9060081b5b61010082106111b25760089190911c9060041b5b601082106111c55760049190911c9060021b5b600882106111d15760011b5b60018185816111dc57fe5b048201901c905060018185816111ee57fe5b048201901c9050600181858161120057fe5b048201901c9050600181858161121257fe5b048201901c9050600181858161122457fe5b048201901c9050600181858161123657fe5b048201901c9050600181858161124857fe5b048201901c9050600081858161125a57fe5b04905080821061126a578061126c565b815b95945050505050565b600081848411156113045760405162461bcd60e51b81526004018080602001828103825283818151815260200191508051906020019080838360005b838110156112c95781810151838201526020016112b1565b50505050905090810190601f1680156112f65780820380516001836020036101000a031916815260200191505b509250505060405180910390fd5b505050900390565b6000818361135b5760405162461bcd60e51b81526020600482018181528351602484015283519092839260449091019190850190808383600083156112c95781810151838201526020016112b1565b50600083858161136757fe5b049594505050505056fe536166654d6174683a206d756c7469706c69636174696f6e206f766572666c6f7750616e63616b65737761705632537472617465677941646454776f53696465734f7074696d616c3a3a657865637574653a3a206661696c656420746f207472616e73666572204c5020746f6b656e20746f206d73672e73656e646572436f6e747261637420696e7374616e63652068617320616c7265616479206265656e20696e697469616c697a656450616e63616b65737761705632537472617465677941646454776f53696465734f7074696d616c3a3a657865637574653a3a20696e73756666696369656e74204c5020746f6b656e73207265636569766564a26469706673582212204feacbb1f17adaa3a07eb80b9eadffe00de25235e8400786b36cf4f15bf55ac864736f6c63430006060033",
  "linkReferences": {},
  "deployedLinkReferences": {}
}