{
  "_format": "hh-sol-artifact-1",
  "contractName": "CakeMaxiWorker02",
  "sourceName": "contracts/6/protocol/workers/single-asset/CakeMaxiWorker02.sol",
  "abi": [
    {
      "anonymous": false,
      "inputs": [
        {
          "indexed": true,
          "internalType": "uint256",
          "name": "id",
          "type": "uint256"
        },
        {
          "indexed": false,
          "internalType": "uint256",
          "name": "share",
          "type": "uint256"
        }
      ],
      "name": "AddShare",
      "type": "event"
    },
    {
      "anonymous": false,
      "inputs": [
        {
          "indexed": true,
          "internalType": "address",
          "name": "caller",
          "type": "address"
        },
        {
          "indexed": true,
          "internalType": "contract IVault",
          "name": "beneficialVault",
          "type": "address"
        },
        {
          "indexed": true,
          "internalType": "uint256",
          "name": "buyback",
          "type": "uint256"
        }
      ],
      "name": "BeneficialVaultTokenBuyback",
      "type": "event"
    },
    {
      "anonymous": false,
      "inputs": [
        {
          "indexed": true,
          "internalType": "uint256",
          "name": "id",
          "type": "uint256"
        },
        {
          "indexed": false,
          "internalType": "uint256",
          "name": "wad",
          "type": "uint256"
        }
      ],
      "name": "Liquidate",
      "type": "event"
    },
    {
      "anonymous": false,
      "inputs": [
        {
          "indexed": true,
          "internalType": "address",
          "name": "previousOwner",
          "type": "address"
        },
        {
          "indexed": true,
          "internalType": "address",
          "name": "newOwner",
          "type": "address"
        }
      ],
      "name": "OwnershipTransferred",
      "type": "event"
    },
    {
      "anonymous": false,
      "inputs": [
        {
          "indexed": true,
          "internalType": "address",
          "name": "caller",
          "type": "address"
        },
        {
          "indexed": false,
          "internalType": "uint256",
          "name": "reward",
          "type": "uint256"
        },
        {
          "indexed": false,
          "internalType": "uint256",
          "name": "bounty",
          "type": "uint256"
        }
      ],
      "name": "Reinvest",
      "type": "event"
    },
    {
      "anonymous": false,
      "inputs": [
        {
          "indexed": true,
          "internalType": "uint256",
          "name": "id",
          "type": "uint256"
        },
        {
          "indexed": false,
          "internalType": "uint256",
          "name": "share",
          "type": "uint256"
        }
      ],
      "name": "RemoveShare",
      "type": "event"
    },
    {
      "anonymous": false,
      "inputs": [
        {
          "indexed": true,
          "internalType": "address",
          "name": "caller",
          "type": "address"
        },
        {
          "indexed": true,
          "internalType": "uint256",
          "name": "beneficialVaultBountyBps",
          "type": "uint256"
        }
      ],
      "name": "SetBeneficialVaultBountyBps",
      "type": "event"
    },
    {
      "anonymous": false,
      "inputs": [
        {
          "indexed": true,
          "internalType": "address",
          "name": "caller",
          "type": "address"
        },
        {
          "indexed": true,
          "internalType": "uint256",
          "name": "beneficialVaultBountyBps",
          "type": "uint256"
        },
        {
          "indexed": true,
          "internalType": "contract IVault",
          "name": "beneficialVault",
          "type": "address"
        },
        {
          "indexed": false,
          "internalType": "address[]",
          "name": "rewardPath",
          "type": "address[]"
        }
      ],
      "name": "SetBeneficialVaultConfig",
      "type": "event"
    },
    {
      "anonymous": false,
      "inputs": [
        {
          "indexed": true,
          "internalType": "address",
          "name": "caller",
          "type": "address"
        },
        {
          "indexed": true,
          "internalType": "contract IStrategy",
          "name": "addStrat",
          "type": "address"
        },
        {
          "indexed": true,
          "internalType": "contract IStrategy",
          "name": "liqStrat",
          "type": "address"
        }
      ],
      "name": "SetCriticalStrategy",
      "type": "event"
    },
    {
      "anonymous": false,
      "inputs": [
        {
          "indexed": true,
          "internalType": "address",
          "name": "caller",
          "type": "address"
        },
        {
          "indexed": true,
          "internalType": "uint256",
          "name": "maxReinvestBountyBps",
          "type": "uint256"
        }
      ],
      "name": "SetMaxReinvestBountyBps",
      "type": "event"
    },
    {
      "anonymous": false,
      "inputs": [
        {
          "indexed": true,
          "internalType": "address",
          "name": "caller",
          "type": "address"
        },
        {
          "indexed": false,
          "internalType": "address[]",
          "name": "newPath",
          "type": "address[]"
        }
      ],
      "name": "SetPath",
      "type": "event"
    },
    {
      "anonymous": false,
      "inputs": [
        {
          "indexed": true,
          "internalType": "address",
          "name": "caller",
          "type": "address"
        },
        {
          "indexed": false,
          "internalType": "uint256",
          "name": "reinvestBountyBps",
          "type": "uint256"
        },
        {
          "indexed": false,
          "internalType": "uint256",
          "name": "reinvestThreshold",
          "type": "uint256"
        }
      ],
      "name": "SetReinvestConfig",
      "type": "event"
    },
    {
      "anonymous": false,
      "inputs": [
        {
          "indexed": true,
          "internalType": "address",
          "name": "caller",
          "type": "address"
        },
        {
          "indexed": true,
          "internalType": "address",
          "name": "reinvestor",
          "type": "address"
        },
        {
          "indexed": true,
          "internalType": "bool",
          "name": "isOk",
          "type": "bool"
        }
      ],
      "name": "SetReinvestorOK",
      "type": "event"
    },
    {
      "anonymous": false,
      "inputs": [
        {
          "indexed": true,
          "internalType": "address",
          "name": "caller",
          "type": "address"
        },
        {
          "indexed": false,
          "internalType": "address[]",
          "name": "newRewardPath",
          "type": "address[]"
        }
      ],
      "name": "SetRewardPath",
      "type": "event"
    },
    {
      "anonymous": false,
      "inputs": [
        {
          "indexed": true,
          "internalType": "address",
          "name": "caller",
          "type": "address"
        },
        {
          "indexed": true,
          "internalType": "address",
          "name": "strategy",
          "type": "address"
        },
        {
          "indexed": true,
          "internalType": "bool",
          "name": "isOk",
          "type": "bool"
        }
      ],
      "name": "SetStrategyOK",
      "type": "event"
    },
    {
      "anonymous": false,
      "inputs": [
        {
          "indexed": true,
          "internalType": "address",
          "name": "caller",
          "type": "address"
        },
        {
          "indexed": true,
          "internalType": "address",
          "name": "account",
          "type": "address"
        },
        {
          "indexed": false,
          "internalType": "uint256",
          "name": "bountyBps",
          "type": "uint256"
        }
      ],
      "name": "SetTreasuryConfig",
      "type": "event"
    },
    {
      "inputs": [],
      "name": "addStrat",
      "outputs": [
        {
          "internalType": "contract IStrategy",
          "name": "",
          "type": "address"
        }
      ],
      "stateMutability": "view",
      "type": "function"
    },
    {
      "inputs": [
        {
          "internalType": "uint256",
          "name": "balance",
          "type": "uint256"
        }
      ],
      "name": "balanceToShare",
      "outputs": [
        {
          "internalType": "uint256",
          "name": "",
          "type": "uint256"
        }
      ],
      "stateMutability": "view",
      "type": "function"
    },
    {
      "inputs": [],
      "name": "baseToken",
      "outputs": [
        {
          "internalType": "address",
          "name": "",
          "type": "address"
        }
      ],
      "stateMutability": "view",
      "type": "function"
    },
    {
      "inputs": [],
      "name": "beneficialVault",
      "outputs": [
        {
          "internalType": "contract IVault",
          "name": "",
          "type": "address"
        }
      ],
      "stateMutability": "view",
      "type": "function"
    },
    {
      "inputs": [],
      "name": "beneficialVaultBountyBps",
      "outputs": [
        {
          "internalType": "uint256",
          "name": "",
          "type": "uint256"
        }
      ],
      "stateMutability": "view",
      "type": "function"
    },
    {
      "inputs": [],
      "name": "buybackAmount",
      "outputs": [
        {
          "internalType": "uint256",
          "name": "",
          "type": "uint256"
        }
      ],
      "stateMutability": "view",
      "type": "function"
    },
    {
      "inputs": [],
      "name": "factory",
      "outputs": [
        {
          "internalType": "contract IPancakeFactory",
          "name": "",
          "type": "address"
        }
      ],
      "stateMutability": "view",
      "type": "function"
    },
    {
      "inputs": [],
      "name": "farmingToken",
      "outputs": [
        {
          "internalType": "address",
          "name": "",
          "type": "address"
        }
      ],
      "stateMutability": "view",
      "type": "function"
    },
    {
      "inputs": [],
      "name": "fee",
      "outputs": [
        {
          "internalType": "uint256",
          "name": "",
          "type": "uint256"
        }
      ],
      "stateMutability": "view",
      "type": "function"
    },
    {
      "inputs": [],
      "name": "feeDenom",
      "outputs": [
        {
          "internalType": "uint256",
          "name": "",
          "type": "uint256"
        }
      ],
      "stateMutability": "view",
      "type": "function"
    },
    {
      "inputs": [
        {
          "internalType": "uint256",
          "name": "aIn",
          "type": "uint256"
        },
        {
          "internalType": "uint256",
          "name": "rIn",
          "type": "uint256"
        },
        {
          "internalType": "uint256",
          "name": "rOut",
          "type": "uint256"
        }
      ],
      "name": "getMktSellAmount",
      "outputs": [
        {
          "internalType": "uint256",
          "name": "",
          "type": "uint256"
        }
      ],
      "stateMutability": "view",
      "type": "function"
    },
    {
      "inputs": [],
      "name": "getPath",
      "outputs": [
        {
          "internalType": "address[]",
          "name": "",
          "type": "address[]"
        }
      ],
      "stateMutability": "view",
      "type": "function"
    },
    {
      "inputs": [],
      "name": "getReversedPath",
      "outputs": [
        {
          "internalType": "address[]",
          "name": "",
          "type": "address[]"
        }
      ],
      "stateMutability": "view",
      "type": "function"
    },
    {
      "inputs": [],
      "name": "getRewardPath",
      "outputs": [
        {
          "internalType": "address[]",
          "name": "",
          "type": "address[]"
        }
      ],
      "stateMutability": "view",
      "type": "function"
    },
    {
      "inputs": [
        {
          "internalType": "uint256",
          "name": "id",
          "type": "uint256"
        }
      ],
      "name": "health",
      "outputs": [
        {
          "internalType": "uint256",
          "name": "",
          "type": "uint256"
        }
      ],
      "stateMutability": "view",
      "type": "function"
    },
    {
      "inputs": [
        {
          "internalType": "address",
          "name": "_operator",
          "type": "address"
        },
        {
          "internalType": "address",
          "name": "_baseToken",
          "type": "address"
        },
        {
          "internalType": "contract IPancakeMasterChef",
          "name": "_masterChef",
          "type": "address"
        },
        {
          "internalType": "contract IPancakeRouter02",
          "name": "_router",
          "type": "address"
        },
        {
          "internalType": "contract IVault",
          "name": "_beneficialVault",
          "type": "address"
        },
        {
          "internalType": "uint256",
          "name": "_pid",
          "type": "uint256"
        },
        {
          "internalType": "contract IStrategy",
          "name": "_addStrat",
          "type": "address"
        },
        {
          "internalType": "contract IStrategy",
          "name": "_liqStrat",
          "type": "address"
        },
        {
          "internalType": "uint256",
          "name": "_reinvestBountyBps",
          "type": "uint256"
        },
        {
          "internalType": "uint256",
          "name": "_beneficialVaultBountyBps",
          "type": "uint256"
        },
        {
          "internalType": "address[]",
          "name": "_path",
          "type": "address[]"
        },
        {
          "internalType": "address[]",
          "name": "_rewardPath",
          "type": "address[]"
        },
        {
          "internalType": "uint256",
          "name": "_reinvestThreshold",
          "type": "uint256"
        }
      ],
      "name": "initialize",
      "outputs": [],
      "stateMutability": "nonpayable",
      "type": "function"
    },
    {
      "inputs": [],
      "name": "liqStrat",
      "outputs": [
        {
          "internalType": "contract IStrategy",
          "name": "",
          "type": "address"
        }
      ],
      "stateMutability": "view",
      "type": "function"
    },
    {
      "inputs": [
        {
          "internalType": "uint256",
          "name": "id",
          "type": "uint256"
        }
      ],
      "name": "liquidate",
      "outputs": [],
      "stateMutability": "nonpayable",
      "type": "function"
    },
    {
      "inputs": [],
      "name": "lpToken",
      "outputs": [
        {
          "internalType": "contract IPancakePair",
          "name": "",
          "type": "address"
        }
      ],
      "stateMutability": "view",
      "type": "function"
    },
    {
      "inputs": [],
      "name": "masterChef",
      "outputs": [
        {
          "internalType": "contract IPancakeMasterChef",
          "name": "",
          "type": "address"
        }
      ],
      "stateMutability": "view",
      "type": "function"
    },
    {
      "inputs": [],
      "name": "maxReinvestBountyBps",
      "outputs": [
        {
          "internalType": "uint256",
          "name": "",
          "type": "uint256"
        }
      ],
      "stateMutability": "view",
      "type": "function"
    },
    {
      "inputs": [
        {
          "internalType": "address",
          "name": "",
          "type": "address"
        }
      ],
      "name": "okReinvestors",
      "outputs": [
        {
          "internalType": "bool",
          "name": "",
          "type": "bool"
        }
      ],
      "stateMutability": "view",
      "type": "function"
    },
    {
      "inputs": [
        {
          "internalType": "address",
          "name": "",
          "type": "address"
        }
      ],
      "name": "okStrats",
      "outputs": [
        {
          "internalType": "bool",
          "name": "",
          "type": "bool"
        }
      ],
      "stateMutability": "view",
      "type": "function"
    },
    {
      "inputs": [],
      "name": "operator",
      "outputs": [
        {
          "internalType": "address",
          "name": "",
          "type": "address"
        }
      ],
      "stateMutability": "view",
      "type": "function"
    },
    {
      "inputs": [],
      "name": "owner",
      "outputs": [
        {
          "internalType": "address",
          "name": "",
          "type": "address"
        }
      ],
      "stateMutability": "view",
      "type": "function"
    },
    {
      "inputs": [
        {
          "internalType": "uint256",
          "name": "",
          "type": "uint256"
        }
      ],
      "name": "path",
      "outputs": [
        {
          "internalType": "address",
          "name": "",
          "type": "address"
        }
      ],
      "stateMutability": "view",
      "type": "function"
    },
    {
      "inputs": [],
      "name": "pid",
      "outputs": [
        {
          "internalType": "uint256",
          "name": "",
          "type": "uint256"
        }
      ],
      "stateMutability": "view",
      "type": "function"
    },
    {
      "inputs": [],
      "name": "reinvest",
      "outputs": [],
      "stateMutability": "nonpayable",
      "type": "function"
    },
    {
      "inputs": [],
      "name": "reinvestBountyBps",
      "outputs": [
        {
          "internalType": "uint256",
          "name": "",
          "type": "uint256"
        }
      ],
      "stateMutability": "view",
      "type": "function"
    },
    {
      "inputs": [],
      "name": "reinvestThreshold",
      "outputs": [
        {
          "internalType": "uint256",
          "name": "",
          "type": "uint256"
        }
      ],
      "stateMutability": "view",
      "type": "function"
    },
    {
      "inputs": [],
      "name": "renounceOwnership",
      "outputs": [],
      "stateMutability": "nonpayable",
      "type": "function"
    },
    {
      "inputs": [],
      "name": "rewardBalance",
      "outputs": [
        {
          "internalType": "uint256",
          "name": "",
          "type": "uint256"
        }
      ],
      "stateMutability": "view",
      "type": "function"
    },
    {
      "inputs": [
        {
          "internalType": "uint256",
          "name": "",
          "type": "uint256"
        }
      ],
      "name": "rewardPath",
      "outputs": [
        {
          "internalType": "address",
          "name": "",
          "type": "address"
        }
      ],
      "stateMutability": "view",
      "type": "function"
    },
    {
      "inputs": [],
      "name": "router",
      "outputs": [
        {
          "internalType": "contract IPancakeRouter02",
          "name": "",
          "type": "address"
        }
      ],
      "stateMutability": "view",
      "type": "function"
    },
    {
      "inputs": [
        {
          "internalType": "uint256",
          "name": "_beneficialVaultBountyBps",
          "type": "uint256"
        }
      ],
      "name": "setBeneficialVaultBountyBps",
      "outputs": [],
      "stateMutability": "nonpayable",
      "type": "function"
    },
    {
      "inputs": [
        {
          "internalType": "uint256",
          "name": "_beneficialVaultBountyBps",
          "type": "uint256"
        },
        {
          "internalType": "contract IVault",
          "name": "_beneficialVault",
          "type": "address"
        },
        {
          "internalType": "address[]",
          "name": "_rewardPath",
          "type": "address[]"
        }
      ],
      "name": "setBeneficialVaultConfig",
      "outputs": [],
      "stateMutability": "nonpayable",
      "type": "function"
    },
    {
      "inputs": [
        {
          "internalType": "contract IStrategy",
          "name": "_addStrat",
          "type": "address"
        },
        {
          "internalType": "contract IStrategy",
          "name": "_liqStrat",
          "type": "address"
        }
      ],
      "name": "setCriticalStrategies",
      "outputs": [],
      "stateMutability": "nonpayable",
      "type": "function"
    },
    {
      "inputs": [
        {
          "internalType": "uint256",
          "name": "_maxReinvestBountyBps",
          "type": "uint256"
        }
      ],
      "name": "setMaxReinvestBountyBps",
      "outputs": [],
      "stateMutability": "nonpayable",
      "type": "function"
    },
    {
      "inputs": [
        {
          "internalType": "address[]",
          "name": "_path",
          "type": "address[]"
        }
      ],
      "name": "setPath",
      "outputs": [],
      "stateMutability": "nonpayable",
      "type": "function"
    },
    {
      "inputs": [
        {
          "internalType": "uint256",
          "name": "_reinvestBountyBps",
          "type": "uint256"
        },
        {
          "internalType": "uint256",
          "name": "_reinvestThreshold",
          "type": "uint256"
        }
      ],
      "name": "setReinvestConfig",
      "outputs": [],
      "stateMutability": "nonpayable",
      "type": "function"
    },
    {
      "inputs": [
        {
          "internalType": "address[]",
          "name": "reinvestors",
          "type": "address[]"
        },
        {
          "internalType": "bool",
          "name": "isOk",
          "type": "bool"
        }
      ],
      "name": "setReinvestorOk",
      "outputs": [],
      "stateMutability": "nonpayable",
      "type": "function"
    },
    {
      "inputs": [
        {
          "internalType": "address[]",
          "name": "_rewardPath",
          "type": "address[]"
        }
      ],
      "name": "setRewardPath",
      "outputs": [],
      "stateMutability": "nonpayable",
      "type": "function"
    },
    {
      "inputs": [
        {
          "internalType": "address[]",
          "name": "strats",
          "type": "address[]"
        },
        {
          "internalType": "bool",
          "name": "isOk",
          "type": "bool"
        }
      ],
      "name": "setStrategyOk",
      "outputs": [],
      "stateMutability": "nonpayable",
      "type": "function"
    },
    {
      "inputs": [
        {
          "internalType": "address",
          "name": "_treasuryAccount",
          "type": "address"
        },
        {
          "internalType": "uint256",
          "name": "_treasuryBountyBps",
          "type": "uint256"
        }
      ],
      "name": "setTreasuryConfig",
      "outputs": [],
      "stateMutability": "nonpayable",
      "type": "function"
    },
    {
      "inputs": [
        {
          "internalType": "uint256",
          "name": "share",
          "type": "uint256"
        }
      ],
      "name": "shareToBalance",
      "outputs": [
        {
          "internalType": "uint256",
          "name": "",
          "type": "uint256"
        }
      ],
      "stateMutability": "view",
      "type": "function"
    },
    {
      "inputs": [
        {
          "internalType": "uint256",
          "name": "",
          "type": "uint256"
        }
      ],
      "name": "shares",
      "outputs": [
        {
          "internalType": "uint256",
          "name": "",
          "type": "uint256"
        }
      ],
      "stateMutability": "view",
      "type": "function"
    },
    {
      "inputs": [],
      "name": "totalShare",
      "outputs": [
        {
          "internalType": "uint256",
          "name": "",
          "type": "uint256"
        }
      ],
      "stateMutability": "view",
      "type": "function"
    },
    {
      "inputs": [
        {
          "internalType": "address",
          "name": "newOwner",
          "type": "address"
        }
      ],
      "name": "transferOwnership",
      "outputs": [],
      "stateMutability": "nonpayable",
      "type": "function"
    },
    {
      "inputs": [],
      "name": "treasuryAccount",
      "outputs": [
        {
          "internalType": "address",
          "name": "",
          "type": "address"
        }
      ],
      "stateMutability": "view",
      "type": "function"
    },
    {
      "inputs": [],
      "name": "treasuryBountyBps",
      "outputs": [
        {
          "internalType": "uint256",
          "name": "",
          "type": "uint256"
        }
      ],
      "stateMutability": "view",
      "type": "function"
    },
    {
      "inputs": [],
      "name": "wNative",
      "outputs": [
        {
          "internalType": "address",
          "name": "",
          "type": "address"
        }
      ],
      "stateMutability": "view",
      "type": "function"
    },
    {
      "inputs": [
        {
          "internalType": "uint256",
          "name": "id",
          "type": "uint256"
        },
        {
          "internalType": "address",
          "name": "user",
          "type": "address"
        },
        {
          "internalType": "uint256",
          "name": "debt",
          "type": "uint256"
        },
        {
          "internalType": "bytes",
          "name": "data",
          "type": "bytes"
        }
      ],
      "name": "work",
      "outputs": [],
      "stateMutability": "nonpayable",
      "type": "function"
    }
  ],
  "bytecode": "0x608060405234801561001057600080fd5b5061488f806100206000396000f3fe608060405234801561001057600080fd5b506004361061025c5760003560e01c8063026c4207146102615780631363bdd31461027b57806319a86577146102985780631f27d774146102a057806322058619146102f8578063239e050f14610332578063260f26a4146103a45780632d68efc914610427578063339b2cff1461044b578063415f12401461045357806348db8cc414610470578063555b37be146104fa578063570ca73514610502578063575a86b21461050a578063578993991461051257806357a858fc1461051a5780635af7282b146105375780635fcbd2851461053f5780636191e37b14610547578063624af1b01461054f578063686ca00d14610557578063715018a6146105c557806374f1e955146105cd57806376dcb435146105f9578063783b6d601461060157806380f91e7c1461061e578063819551051461062657806381d09def146106435780638da5cb5b146106b15780638fa4a940146106b9578063918e178e146106e7578063949deefa146106ef5780639a2168831461070c5780639cc0e3c7146107145780639e3a0db214610731578063aa5c3ab414610847578063ad24dce71461084f578063af6d1fe414610857578063c338f78214610874578063c45a015514610897578063c55dae631461089f578063c7aa6ae7146108a7578063d75734c8146108af578063db0a9c3d146108d8578063ddca3f43146108e0578063e7956f21146108e8578063f106845414610958578063f2fde38b14610960578063f3b8912b14610986578063f887ea40146109ac578063f9566431146109b4578063fdb5a03e146109d1575b600080fd5b6102696109d9565b60408051918252519081900360200190f35b6102696004803603602081101561029157600080fd5b50356109df565b610269610aa4565b6102a8610aaa565b60408051602080825283518183015283519192839290830191858101910280838360005b838110156102e45781810151838201526020016102cc565b505050509050019250505060405180910390f35b61031e6004803603602081101561030e57600080fd5b50356001600160a01b0316610b0d565b604080519115158252519081900360200190f35b6103a26004803603604081101561034857600080fd5b810190602081018135600160201b81111561036257600080fd5b82018360208201111561037457600080fd5b803590602001918460208302840111600160201b8311171561039557600080fd5b9193509150351515610b22565b005b6103a2600480360360608110156103ba57600080fd5b8135916001600160a01b0360208201351691810190606081016040820135600160201b8111156103e957600080fd5b8201836020820111156103fb57600080fd5b803590602001918460208302840111600160201b8311171561041c57600080fd5b509092509050610c3c565b61042f610ed4565b604080516001600160a01b039092168252519081900360200190f35b61042f610ee3565b6103a26004803603602081101561046957600080fd5b5035610ef2565b6103a26004803603608081101561048657600080fd5b8135916001600160a01b036020820135169160408201359190810190608081016060820135600160201b8111156104bc57600080fd5b8201836020820111156104ce57600080fd5b803590602001918460018302840111600160201b831117156104ef57600080fd5b509092509050611125565b6102a861144f565b61042f6114af565b61042f6114be565b61042f6114cd565b6102696004803603602081101561053057600080fd5b50356114dc565b6102696114ee565b61042f6114f4565b61042f611503565b610269611512565b6103a26004803603602081101561056d57600080fd5b810190602081018135600160201b81111561058757600080fd5b82018360208201111561059957600080fd5b803590602001918460208302840111600160201b831117156105ba57600080fd5b509092509050611518565b6103a26116d8565b6103a2600480360360408110156105e357600080fd5b506001600160a01b038135169060200135611768565b610269611868565b6102696004803603602081101561061757600080fd5b503561186e565b61042f611b6a565b6102696004803603602081101561063c57600080fd5b5035611b79565b6103a26004803603602081101561065957600080fd5b810190602081018135600160201b81111561067357600080fd5b82018360208201111561068557600080fd5b803590602001918460208302840111600160201b831117156106a657600080fd5b509092509050611c26565b61042f611e5d565b6103a2600480360360408110156106cf57600080fd5b506001600160a01b0381358116916020013516611e6c565b6102a8611f24565b6103a26004803603602081101561070557600080fd5b5035612035565b610269612103565b61042f6004803603602081101561072a57600080fd5b5035612109565b6103a260048036036101a081101561074857600080fd5b6001600160a01b038235811692602081013582169260408201358316926060830135811692608081013582169260a08201359260c083013581169260e08101359091169161010082013591610120810135918101906101608101610140820135600160201b8111156107b957600080fd5b8201836020820111156107cb57600080fd5b803590602001918460208302840111600160201b831117156107ec57600080fd5b919390929091602081019035600160201b81111561080957600080fd5b82018360208201111561081b57600080fd5b803590602001918460208302840111600160201b8311171561083c57600080fd5b919350915035612130565b6102696127bb565b61042f6127c1565b61042f6004803603602081101561086d57600080fd5b50356127d0565b6103a26004803603604081101561088a57600080fd5b50803590602001356127dd565b61042f6128be565b61042f6128cd565b6102696128dc565b610269600480360360608110156108c557600080fd5b50803590602081013590604001356128e2565b6102696129a9565b6102696129af565b6103a2600480360360408110156108fe57600080fd5b810190602081018135600160201b81111561091857600080fd5b82018360208201111561092a57600080fd5b803590602001918460208302840111600160201b8311171561094b57600080fd5b91935091503515156129b5565b610269612ac8565b6103a26004803603602081101561097657600080fd5b50356001600160a01b0316612ace565b61031e6004803603602081101561099c57600080fd5b50356001600160a01b0316612bb5565b61042f612bca565b6103a2600480360360208110156109ca57600080fd5b5035612bd9565b6103a2612ce8565b60d55481565b600060d554600014156109f3575080610a9f565b60c95460d154604080516393f1a40b60e01b8152600481019290925230602483015280516000936001600160a01b0316926393f1a40b926044808301939192829003018186803b158015610a4657600080fd5b505afa158015610a5a573d6000803e3d6000fd5b505050506040513d6040811015610a7057600080fd5b505160d554909150610a9b908290610a8f90869063ffffffff612deb16565b9063ffffffff612e4d16565b9150505b919050565b60e05481565b606060de805480602002602001604051908101604052809291908181526020018280548015610b0257602002820191906000526020600020905b81546001600160a01b03168152600190910190602001808311610ae4575b505050505090505b90565b60dc6020526000908152604090205460ff1681565b610b2a612e8c565b6065546001600160a01b03908116911614610b7a576040805162461bcd60e51b8152602060048201819052602482015260008051602061441f833981519152604482015290519081900360640190fd5b8160005b81811015610c35578260dc6000878785818110610b9757fe5b905060200201356001600160a01b03166001600160a01b03166001600160a01b0316815260200190815260200160002060006101000a81548160ff021916908315150217905550821515858583818110610bed57fe5b6040516001600160a01b036020909202939093013516913391507fe29f198692e59aca2e732235aaf2290c9a6e2d289970c4178195af67cb0fe93990600090a4600101610b7e565b5050505050565b610c44612e8c565b6065546001600160a01b03908116911614610c94576040805162461bcd60e51b8152602060048201819052602482015260008051602061441f833981519152604482015290519081900360640190fd5b612710841115610cd55760405162461bcd60e51b81526004018080602001828103825260538152602001806140d56053913960600191505060405180910390fd5b6002811015610d155760405162461bcd60e51b81526004018080602001828103825260488152602001806146cb6048913960600191505060405180910390fd5b60cf546001600160a01b03168282600081610d2c57fe5b905060200201356001600160a01b03166001600160a01b0316148015610de65750826001600160a01b031663fc0c546a6040518163ffffffff1660e01b815260040160206040518083038186803b158015610d8657600080fd5b505afa158015610d9a573d6000803e3d6000fd5b505050506040513d6020811015610db057600080fd5b50516001600160a01b031682826000198101818110610dcb57fe5b905060200201356001600160a01b03166001600160a01b0316145b610e215760405162461bcd60e51b815260040180806020018281038252606e8152602001806147ec606e913960800191505060405180910390fd5b610e29612e90565b60d884905560d280546001600160a01b0319166001600160a01b038516179055610e5560de838361404d565b50826001600160a01b031684336001600160a01b03167f3eac15a91bfb40e4c4e9f279e3287b3f894f40b1e1c21bf44e8af110f2fd92c6858560405180806020018281038252848482818152602001925060200280828437600083820152604051601f909101601f19169092018290039550909350505050a450505050565b60cd546001600160a01b031681565b60e2546001600160a01b031681565b60d0546001600160a01b03163314610f3b5760405162461bcd60e51b815260040180806020018281038252602d8152602001806144ad602d913960400191505060405180910390fd5b60975460ff16610f80576040805162461bcd60e51b815260206004820152601f6024820152600080516020614176833981519152604482015290519081900360640190fd5b6097805460ff19169055610f9381612f5d565b60d754610fc4906001600160a01b0316610fab6130dd565b60cf546001600160a01b0316919063ffffffff61310d16565b60d754604080516000602080830182905283518084038201815283850194859052635b0e93fb60e11b9094526044830182815260648401839052606060848501908152855160a486015285516001600160a01b039097169663b61d27f696949586959460c49091019190850190808383895b8381101561104e578181015183820152602001611036565b50505050905090810190601f16801561107b5780820380516001836020036101000a031916815260200191505b50945050505050600060405180830381600087803b15801561109c57600080fd5b505af11580156110b0573d6000803e3d6000fd5b5050505060006110be613260565b60ce549091506110de906001600160a01b0316338363ffffffff61310d16565b60408051828152905183917f253e5385159062a101837d58c10ad4694c58979ebc3ba6b5cb2cbba2fe461692919081900360200190a250506097805460ff19166001179055565b60d0546001600160a01b0316331461116e5760405162461bcd60e51b815260040180806020018281038252602d8152602001806144ad602d913960400191505060405180910390fd5b60975460ff166111b3576040805162461bcd60e51b815260206004820152601f6024820152600080516020614176833981519152604482015290519081900360640190fd5b6097805460ff1916905560e2546001600160a01b0316158015906111d8575060e35415155b156112015760e25460e354611201916001600160a01b0316906111f9613260565b60e15461327f565b61120a85612f5d565b600060608383604081101561121e57600080fd5b6001600160a01b038235169190810190604081016020820135600160201b81111561124857600080fd5b82018360208201111561125a57600080fd5b803590602001918460018302840111600160201b8311171561127b57600080fd5b91908080601f01602080910402602001604051908101604052809392919081815260200183838082843760009201829052506001600160a01b038916815260d460205260409020549799509297505060ff909516945061131193505050505760405162461bcd60e51b81526004018080602001828103825260318152602001806144da6031913960400191505060405180910390fd5b6113368261131d613260565b60ce546001600160a01b0316919063ffffffff61310d16565b61134282610fab6130dd565b816001600160a01b031663b61d27f68787846040518463ffffffff1660e01b815260040180846001600160a01b03166001600160a01b0316815260200183815260200180602001828103825283818151815260200191508051906020019080838360005b838110156113be5781810151838201526020016113a6565b50505050905090810190601f1680156113eb5780820380516001836020036101000a031916815260200191505b50945050505050600060405180830381600087803b15801561140c57600080fd5b505af1158015611420573d6000803e3d6000fd5b5050505061142d876134c6565b6114393361131d613260565b50506097805460ff191660011790555050505050565b606060dd805480602002602001604051908101604052809291908181526020018280548015610b02576020028201919060005260206000209081546001600160a01b03168152600190910190602001808311610ae4575050505050905090565b60d0546001600160a01b031681565b60c9546001600160a01b031681565b60d6546001600160a01b031681565b60d36020526000908152604090205481565b60e15481565b60cc546001600160a01b031681565b60d7546001600160a01b031681565b60e35481565b611520612e8c565b6065546001600160a01b03908116911614611570576040805162461bcd60e51b8152602060048201819052602482015260008051602061441f833981519152604482015290519081900360640190fd5b60028110156115b05760405162461bcd60e51b81526004018080602001828103825260348152602001806143ca6034913960400191505060405180910390fd5b60ce546001600160a01b031682826000816115c757fe5b905060200201356001600160a01b03166001600160a01b031614801561161f575060cf546001600160a01b03168282600019810181811061160457fe5b905060200201356001600160a01b03166001600160a01b0316145b61165a5760405162461bcd60e51b81526004018080602001828103825260568152602001806146756056913960600191505060405180910390fd5b61166660dd838361404d565b50336001600160a01b03167fe82b71dd331125d5a78e9c33c1ffdb840c67725a7d4b4d242cbef3bc9e207d95838360405180806020018281038252848482818152602001925060200280828437600083820152604051601f909101601f19169092018290039550909350505050a25050565b6116e0612e8c565b6065546001600160a01b03908116911614611730576040805162461bcd60e51b8152602060048201819052602482015260008051602061441f833981519152604482015290519081900360640190fd5b6065546040516000916001600160a01b03169060008051602061445f833981519152908390a3606580546001600160a01b0319169055565b611770612e8c565b6065546001600160a01b039081169116146117c0576040805162461bcd60e51b8152602060048201819052602482015260008051602061441f833981519152604482015290519081900360640190fd5b60da548111156118015760405162461bcd60e51b81526004018080602001828103825260568152602001806141c86056913960600191505060405180910390fd5b60e280546001600160a01b038085166001600160a01b0319909216919091179182905560e3839055604080518481529051929091169133917fb2d3c1f118086e8bb8f0013fe22cd30e7e099e39000569a1470200650b570a74919081900360200190a35050565b60da5481565b60008060608061187c611f24565b905080516001600160401b038111801561189557600080fd5b506040519080825280602002602001820160405280156118bf578160200160208202803683370190505b50600086815260d360205260409020549092506118db90611b79565b826000815181106118e857fe5b602090810291909101015260015b8151811015611b475760ca5482516001600160a01b039091169063e6a43905908490600019850190811061192657fe5b602002602001015184848151811061193a57fe5b60200260200101516040518363ffffffff1660e01b815260040180836001600160a01b03166001600160a01b03168152602001826001600160a01b03166001600160a01b031681526020019250505060206040518083038186803b1580156119a157600080fd5b505afa1580156119b5573d6000803e3d6000fd5b505050506040513d60208110156119cb57600080fd5b505160408051630240bc6b60e21b8152905191955060009182916001600160a01b03881691630902f1ac91600480820192606092909190829003018186803b158015611a1657600080fd5b505afa158015611a2a573d6000803e3d6000fd5b505050506040513d6060811015611a4057600080fd5b50805160209091015185516001600160701b039283169450911691506000908190869086908110611a6d57fe5b60200260200101516001600160a01b0316886001600160a01b0316630dfe16816040518163ffffffff1660e01b815260040160206040518083038186803b158015611ab757600080fd5b505afa158015611acb573d6000803e3d6000fd5b505050506040513d6020811015611ae157600080fd5b50516001600160a01b031614611af8578284611afb565b83835b91509150611b20876001870381518110611b1157fe5b602002602001015182846128e2565b878681518110611b2c57fe5b60209081029190910101525050600190920191506118f69050565b5081600183510381518110611b5857fe5b60200260200101519350505050919050565b60d2546001600160a01b031681565b600060d55460001415611b8d575080610a9f565b60c95460d154604080516393f1a40b60e01b8152600481019290925230602483015280516000936001600160a01b0316926393f1a40b926044808301939192829003018186803b158015611be057600080fd5b505afa158015611bf4573d6000803e3d6000fd5b505050506040513d6040811015611c0a57600080fd5b505160d554909150610a9b90610a8f858463ffffffff612deb16565b611c2e612e8c565b6065546001600160a01b03908116911614611c7e576040805162461bcd60e51b8152602060048201819052602482015260008051602061441f833981519152604482015290519081900360640190fd5b6002811015611cbe5760405162461bcd60e51b81526004018080602001828103825260408152602001806142a46040913960400191505060405180910390fd5b60cf546001600160a01b03168282600081611cd557fe5b905060200201356001600160a01b03166001600160a01b0316148015611da4575060d260009054906101000a90046001600160a01b03166001600160a01b031663fc0c546a6040518163ffffffff1660e01b815260040160206040518083038186803b158015611d4457600080fd5b505afa158015611d58573d6000803e3d6000fd5b505050506040513d6020811015611d6e57600080fd5b50516001600160a01b031682826000198101818110611d8957fe5b905060200201356001600160a01b03166001600160a01b0316145b611ddf5760405162461bcd60e51b815260040180806020018281038252606d815260200180614713606d913960800191505060405180910390fd5b611deb60de838361404d565b50336001600160a01b03167f2b65c2687997b83513632773a27b486527847ab3163836e18b2d9e9ae3d45c3e838360405180806020018281038252848482818152602001925060200280828437600083820152604051601f909101601f19169092018290039550909350505050a25050565b6065546001600160a01b031690565b611e74612e8c565b6065546001600160a01b03908116911614611ec4576040805162461bcd60e51b8152602060048201819052602482015260008051602061441f833981519152604482015290519081900360640190fd5b60d680546001600160a01b03199081166001600160a01b0385811691821790935560d7805490921692841692831790915560405133907f69d0c1af2ab135748ba08c93621e9358ceff9e382ce474bffaea03ffb6e4c00d90600090a45050565b60606000606060dd805480602002602001604051908101604052809291908181526020018280548015611f8057602002820191906000526020600020905b81546001600160a01b03168152600190910190602001808311611f62575b50939450600093505050505b6002825181611f9757fe5b0481101561202e57818181518110611fab57fe5b60200260200101519250816001828451030381518110611fc757fe5b6020026020010151828281518110611fdb57fe5b60200260200101906001600160a01b031690816001600160a01b0316815250508282600183855103038151811061200e57fe5b6001600160a01b0390921660209283029190910190910152600101611f8c565b5091505090565b61203d612e8c565b6065546001600160a01b0390811691161461208d576040805162461bcd60e51b8152602060048201819052602482015260008051602061441f833981519152604482015290519081900360640190fd5b6127108111156120ce5760405162461bcd60e51b81526004018080602001828103825260568152602001806145426056913960600191505060405180910390fd5b60d8819055604051819033907f1fa49dba2ac16287c118100a54f4761f32e8fe6e18db88b6a4c018177f88c73f90600090a350565b60d85481565b60de818154811061211657fe5b6000918252602090912001546001600160a01b0316905081565b600054610100900460ff1680612149575061214961366c565b80612157575060005460ff16155b6121925760405162461bcd60e51b815260040180806020018281038252602e81526020018061447f602e913960400191505060405180910390fd5b600054610100900460ff161580156121bd576000805460ff1961ff0019909116610100171660011790555b6121c5613672565b6121cd613724565b8f60d060006101000a8154816001600160a01b0302191690836001600160a01b031602179055508c6001600160a01b031663ad5c46486040518163ffffffff1660e01b815260040160206040518083038186803b15801561222d57600080fd5b505afa158015612241573d6000803e3d6000fd5b505050506040513d602081101561225757600080fd5b810190808051906020019092919050505060cd60006101000a8154816001600160a01b0302191690836001600160a01b031602179055508d60c960006101000a8154816001600160a01b0302191690836001600160a01b031602179055508b60d260006101000a8154816001600160a01b0302191690836001600160a01b031602179055508c60cb60006101000a8154816001600160a01b0302191690836001600160a01b031602179055508c6001600160a01b031663c45a01556040518163ffffffff1660e01b815260040160206040518083038186803b15801561233c57600080fd5b505afa158015612350573d6000803e3d6000fd5b505050506040513d602081101561236657600080fd5b810190808051906020019092919050505060ca60006101000a8154816001600160a01b0302191690836001600160a01b031602179055508e60ce60006101000a8154816001600160a01b0302191690836001600160a01b031602179055508a60d181905550600060c960009054906101000a90046001600160a01b03166001600160a01b0316631526fe278d6040518263ffffffff1660e01b81526004018082815260200191505060806040518083038186803b15801561242657600080fd5b505afa15801561243a573d6000803e3d6000fd5b505050506040513d608081101561245057600080fd5b505160cf80546001600160a01b038084166001600160a01b03199283161790925560d680548f8416908316179081905560d780548f851693169290921782558216600090815260d46020526040808220805460ff1990811660019081179092559354909416825290208054909116909117905560e184905560d98a905560d88990556107d060da5590506124e660dd888861404d565b506124f360de868661404d565b506126f760df5561271060e05560dd54600211156125425760405162461bcd60e51b815260040180806020018281038252603781526020018061450b6037913960400191505060405180910390fd5b60ce5460dd80546001600160a01b039092169160009061255e57fe5b6000918252602090912001546001600160a01b03161480156125b3575060cf5460dd80546001600160a01b0390921691600019810190811061259c57fe5b6000918252602090912001546001600160a01b0316145b6125ee5760405162461bcd60e51b81526004018080602001828103825260598152602001806143716059913960600191505060405180910390fd5b60de54600211156126305760405162461bcd60e51b815260040180806020018281038252603d815260200180614267603d913960400191505060405180910390fd5b60cf5460de80546001600160a01b039092169160009061264c57fe5b6000918252602090912001546001600160a01b0316148015612718575060d260009054906101000a90046001600160a01b03166001600160a01b031663fc0c546a6040518163ffffffff1660e01b815260040160206040518083038186803b1580156126b757600080fd5b505afa1580156126cb573d6000803e3d6000fd5b505050506040513d60208110156126e157600080fd5b505160de80546001600160a01b0390921691600019810190811061270157fe5b6000918252602090912001546001600160a01b0316145b6127535760405162461bcd60e51b815260040180806020018281038252606c815260200180614780606c913960800191505060405180910390fd5b60da5460d95411156127965760405162461bcd60e51b815260040180806020018281038252604e815260200180614128604e913960600191505060405180910390fd5b5080156127a9576000805461ff00191690555b50505050505050505050505050505050565b60db5481565b60cf546001600160a01b031681565b60dd818154811061211657fe5b6127e5612e8c565b6065546001600160a01b03908116911614612835576040805162461bcd60e51b8152602060048201819052602482015260008051602061441f833981519152604482015290519081900360640190fd5b60da548211156128765760405162461bcd60e51b81526004018080602001828103825260568152602001806142e46056913960600191505060405180910390fd5b60d982905560e18190556040805183815260208101839052815133927f33e0a8335b89c8e1d31633391c456c4e8d81d360921c447b2ce8ddfbd1e9a174928290030190a25050565b60ca546001600160a01b031681565b60ce546001600160a01b031681565b60d95481565b6000836128f1575060006129a2565b6000831180156129015750600082115b61293c5760405162461bcd60e51b815260040180806020018281038252603781526020018061433a6037913960400191505060405180910390fd5b600061295360df5486612deb90919063ffffffff16565b90506000612967828563ffffffff612deb16565b905060006129908361298460e05489612deb90919063ffffffff16565b9063ffffffff6137b916565b905080828161299b57fe5b0493505050505b9392505050565b60e45481565b60df5481565b6129bd612e8c565b6065546001600160a01b03908116911614612a0d576040805162461bcd60e51b8152602060048201819052602482015260008051602061441f833981519152604482015290519081900360640190fd5b8160005b81811015610c35578260d46000878785818110612a2a57fe5b905060200201356001600160a01b03166001600160a01b03166001600160a01b0316815260200190815260200160002060006101000a81548160ff021916908315150217905550821515858583818110612a8057fe5b6040516001600160a01b036020909202939093013516913391507f2e1512c909c76d57809911762336907f74e9213cb3aa62464a40ae8e153c8ff490600090a4600101612a11565b60d15481565b612ad6612e8c565b6065546001600160a01b03908116911614612b26576040805162461bcd60e51b8152602060048201819052602482015260008051602061441f833981519152604482015290519081900360640190fd5b6001600160a01b038116612b6b5760405162461bcd60e51b81526004018080602001828103825260268152602001806142416026913960400191505060405180910390fd5b6065546040516001600160a01b0380841692169060008051602061445f83398151915290600090a3606580546001600160a01b0319166001600160a01b0392909216919091179055565b60d46020526000908152604090205460ff1681565b60cb546001600160a01b031681565b612be1612e8c565b6065546001600160a01b03908116911614612c31576040805162461bcd60e51b8152602060048201819052602482015260008051602061441f833981519152604482015290519081900360640190fd5b60d954811015612c725760405162461bcd60e51b815260040180806020018281038252605e815260200180614598605e913960600191505060405180910390fd5b610bb8811115612cb35760405162461bcd60e51b815260040180806020018281038252604e8152602001806145f6604e913960600191505060405180910390fd5b60da819055604051819033907ffacd465c29a912d326026f964141e2d55afa562d6a46a808cc66ad7d8c1ac78690600090a350565b333214612d265760405162461bcd60e51b815260040180806020018281038252602381526020018061421e6023913960400191505060405180910390fd5b33600090815260dc602052604090205460ff16612d745760405162461bcd60e51b81526004018080602001828103825260318152602001806146446031913960400191505060405180910390fd5b60975460ff16612db9576040805162461bcd60e51b815260206004820152601f6024820152600080516020614176833981519152604482015290519081900360640190fd5b6097805460ff1916905560d954612dd490339060008061327f565b612ddc612e90565b6097805460ff19166001179055565b600082612dfa57506000612e47565b82820282848281612e0757fe5b0414612e445760405162461bcd60e51b81526004018080602001828103825260218152602001806143fe6021913960400191505060405180910390fd5b90505b92915050565b6000612e4483836040518060400160405280601a815260200179536166654d6174683a206469766973696f6e206279207a65726f60301b815250613811565b3390565b60e454612e9c57612f5b565b60e48054600090915560d25460408051637e062a3560e11b81529051612f31926001600160a01b0316918491839163fc0c546a916004808301926020929190829003018186803b158015612eef57600080fd5b505afa158015612f03573d6000803e3d6000fd5b505050506040513d6020811015612f1957600080fd5b50516001600160a01b0316919063ffffffff61310d16565b60d25460405182916001600160a01b031690339060008051602061443f83398151915290600090a4505b565b600081815260d3602052604090205480156130d9576000612f7d82611b79565b60d554909150612f93908363ffffffff6138b316565b60d555600083815260d3602090815260408083209290925560c95460d1548351631175a1dd60e01b815260048101919091523060248201529251613039936001600160a01b0390921692631175a1dd9260448082019391829003018186803b158015612ffe57600080fd5b505afa158015613012573d6000803e3d6000fd5b505050506040513d602081101561302857600080fd5b505160db549063ffffffff6137b916565b60db5560c95460408051631058d28160e01b81526004810184905290516001600160a01b0390921691631058d2819160248082019260009290919082900301818387803b15801561308957600080fd5b505af115801561309d573d6000803e3d6000fd5b50506040805185815290518693507fca07b1e9ff462c1feca0fa258869d03f3657c3a02eaceed810db4f58848856dc92509081900360200190a2505b5050565b60db5460cf54600091613108916130fc906001600160a01b03166138f5565b9063ffffffff6138b316565b905090565b604080516001600160a01b038481166024830152604480830185905283518084039091018152606490920183526020820180516001600160e01b031663a9059cbb60e01b178152925182516000946060949389169392918291908083835b6020831061318a5780518252601f19909201916020918201910161316b565b6001836020036101000a0380198251168184511680821785525050505050509050019150506000604051808303816000865af19150503d80600081146131ec576040519150601f19603f3d011682016040523d82523d6000602084013e6131f1565b606091505b509150915081801561321f57508051158061321f575080806020019051602081101561321c57600080fd5b50515b610c35576040805162461bcd60e51b815260206004820152600d60248201526c10b9b0b332aa3930b739b332b960991b604482015290519081900360640190fd5b60e45460ce54600091613108916130fc906001600160a01b03166138f5565b6001600160a01b0384166132c45760405162461bcd60e51b81526004018080602001828103825260328152602001806141966032913960400191505060405180910390fd5b600060db81905560c95460408051631058d28160e01b81526004810184905290516001600160a01b0390921692631058d2819260248084019382900301818387803b15801561331257600080fd5b505af1158015613326573d6000803e3d6000fd5b505060cf546000925061334291506001600160a01b03166138f5565b90508181116133535760db556134c0565b60c95460cf54613378916001600160a01b03918216911660001963ffffffff61397116565b600061271061338d838763ffffffff612deb16565b8161339457fe5b04905080156133e75760006127106133b760d85484612deb90919063ffffffff16565b816133be57fe5b04905080156133d1576133d18186613ac3565b6133e587610fab848463ffffffff6138b316565b505b60c9546001600160a01b03166341441d3b613408848463ffffffff6138b316565b6040518263ffffffff1660e01b815260040180828152602001915050600060405180830381600087803b15801561343e57600080fd5b505af1158015613452573d6000803e3d6000fd5b505060c95460cf5461347a93506001600160a01b03908116925016600063ffffffff61397116565b604080518381526020810183905281516001600160a01b038916927fc003f45bc224d116b6d079100d4ab57a5b9633244c47a5a92a176c5b79a85f28928290030190a250505b50505050565b60006134d06130dd565b905080156130d95760c95460cf546134fd916001600160a01b03918216911660001963ffffffff61397116565b6000613508826109df565b600084815260d3602052604090205490915061352a908263ffffffff6137b916565b600084815260d3602052604090205560d55461354c908263ffffffff6137b916565b60d55560c95460d15460408051631175a1dd60e01b81526004810192909252306024830152516135a5926001600160a01b031691631175a1dd916044808301926020929190829003018186803b158015612ffe57600080fd5b60db5560c954604080516341441d3b60e01b81526004810185905290516001600160a01b03909216916341441d3b9160248082019260009290919082900301818387803b1580156135f557600080fd5b505af1158015613609573d6000803e3d6000fd5b505060c95460cf5461363193506001600160a01b03908116925016600063ffffffff61397116565b60408051828152905184917fdbdb2d65c9e75a246e9a50307e793774f5ad8d986766a102b8a0eacb58208da2919081900360200190a2505050565b303b1590565b600054610100900460ff168061368b575061368b61366c565b80613699575060005460ff16155b6136d45760405162461bcd60e51b815260040180806020018281038252602e81526020018061447f602e913960400191505060405180910390fd5b600054610100900460ff161580156136ff576000805460ff1961ff0019909116610100171660011790555b613707613dbe565b61370f613e5e565b8015613721576000805461ff00191690555b50565b600054610100900460ff168061373d575061373d61366c565b8061374b575060005460ff16155b6137865760405162461bcd60e51b815260040180806020018281038252602e81526020018061447f602e913960400191505060405180910390fd5b600054610100900460ff161580156137b1576000805460ff1961ff0019909116610100171660011790555b61370f613f45565b600082820183811015612e44576040805162461bcd60e51b815260206004820152601b60248201527a536166654d6174683a206164646974696f6e206f766572666c6f7760281b604482015290519081900360640190fd5b6000818361389d5760405162461bcd60e51b81526004018080602001828103825283818151815260200191508051906020019080838360005b8381101561386257818101518382015260200161384a565b50505050905090810190601f16801561388f5780820380516001836020036101000a031916815260200191505b509250505060405180910390fd5b5060008385816138a957fe5b0495945050505050565b6000612e4483836040518060400160405280601e81526020017f536166654d6174683a207375627472616374696f6e206f766572666c6f770000815250613ff3565b604080516370a0823160e01b815230600482015290516000916001600160a01b038416916370a0823191602480820192602092909190829003018186803b15801561393f57600080fd5b505afa158015613953573d6000803e3d6000fd5b505050506040513d602081101561396957600080fd5b505192915050565b604080516001600160a01b038481166024830152604480830185905283518084039091018152606490920183526020820180516001600160e01b031663095ea7b360e01b178152925182516000946060949389169392918291908083835b602083106139ee5780518252601f1990920191602091820191016139cf565b6001836020036101000a0380198251168184511680821785525050505050509050019150506000604051808303816000865af19150503d8060008114613a50576040519150601f19603f3d011682016040523d82523d6000602084013e613a55565b606091505b5091509150818015613a83575080511580613a835750808060200190516020811015613a8057600080fd5b50515b610c35576040805162461bcd60e51b815260206004820152600c60248201526b2173616665417070726f766560a01b604482015290519081900360640190fd5b60cb5460cf54613ae8916001600160a01b03918216911660001963ffffffff61397116565b60d25460408051637e062a3560e11b815290516000926001600160a01b03169163fc0c546a916004808301926020929190829003018186803b158015613b2d57600080fd5b505afa158015613b41573d6000803e3d6000fd5b505050506040513d6020811015613b5757600080fd5b505160cb546040516338ed173960e01b8152600481018681526000602483018190523060648401819052426084850181905260a06044860190815260de805460a488018190529899506060986001600160a01b03909816976338ed1739978d97929594939160c49091019086908015613bf957602002820191906000526020600020905b81546001600160a01b03168152600190910190602001808311613bdb575b50509650505050505050600060405180830381600087803b158015613c1d57600080fd5b505af1158015613c31573d6000803e3d6000fd5b505050506040513d6000823e601f3d908101601f191682016040526020811015613c5a57600080fd5b8101908080516040519392919084600160201b821115613c7957600080fd5b908301906020820185811115613c8e57600080fd5b82518660208202830111600160201b82111715613caa57600080fd5b82525081516020918201928201910280838360005b83811015613cd7578181015183820152602001613cbf565b5050505091909101604052505060ce5492935050506001600160a01b03838116911614613d8057600060e45560d254613d38906001600160a01b0390811690613d219085166138f5565b6001600160a01b038516919063ffffffff61310d16565b80600182510381518110613d4857fe5b602090810291909101015160d2546040516001600160a01b0390911690339060008051602061443f83398151915290600090a4613d9a565b613d96836130fc846001600160a01b03166138f5565b60e4555b60cb5460cf546134c0916001600160a01b039182169116600063ffffffff61397116565b600054610100900460ff1680613dd75750613dd761366c565b80613de5575060005460ff16155b613e205760405162461bcd60e51b815260040180806020018281038252602e81526020018061447f602e913960400191505060405180910390fd5b600054610100900460ff1615801561370f576000805460ff1961ff0019909116610100171660011790558015613721576000805461ff001916905550565b600054610100900460ff1680613e775750613e7761366c565b80613e85575060005460ff16155b613ec05760405162461bcd60e51b815260040180806020018281038252602e81526020018061447f602e913960400191505060405180910390fd5b600054610100900460ff16158015613eeb576000805460ff1961ff0019909116610100171660011790555b6000613ef5612e8c565b606580546001600160a01b0319166001600160a01b0383169081179091556040519192509060009060008051602061445f833981519152908290a3508015613721576000805461ff001916905550565b600054610100900460ff1680613f5e5750613f5e61366c565b80613f6c575060005460ff16155b613fa75760405162461bcd60e51b815260040180806020018281038252602e81526020018061447f602e913960400191505060405180910390fd5b600054610100900460ff16158015613fd2576000805460ff1961ff0019909116610100171660011790555b6097805460ff191660011790558015613721576000805461ff001916905550565b600081848411156140455760405162461bcd60e51b815260206004820181815283516024840152835190928392604490910191908501908083836000831561386257818101518382015260200161384a565b505050900390565b8280548282559060005260206000209081019282156140a0579160200282015b828111156140a05781546001600160a01b0319166001600160a01b0384351617825560209092019160019091019061406d565b506140ac9291506140b0565b5090565b610b0a91905b808211156140ac5780546001600160a01b03191681556001016140b656fe43616b654d617869576f726b657230323a3a73657442656e6566696369616c5661756c74436f6e6669673a3a205f62656e6566696369616c5661756c74426f756e74794270732065786365656473203130302543616b654d617869576f726b657230323a3a696e697469616c697a653a3a207265696e76657374426f756e7479427073206578636565646564206d61785265696e76657374426f756e74794270735265656e7472616e637947756172643a207265656e7472616e742063616c6c0043616b654d617869576f726b657230323a3a5f7265696e766573743a3a20626164207472656173757279206163636f756e7443616b654d617869576f726b657230323a3a7365745472656173757279436f6e6669673a3a205f7472656173757279426f756e7479427073206578636565646564206d61785265696e76657374426f756e747942707343616b654d617869576f726b657230323a3a6f6e6c79454f413a3a206e6f7420656f614f776e61626c653a206e6577206f776e657220697320746865207a65726f206164647265737343616b654d617869576f726b657230323a3a696e697469616c697a653a3a2072657761726450617468206c656e677468206d757374206265203e3d203243616b654d617869576f726b657230323a3a736574526577617264506174683a3a2072657761726450617468206c656e677468206d757374206265203e3d203243616b654d617869576f726b657230323a3a7365745265696e76657374436f6e6669673a3a205f7265696e76657374426f756e7479427073206578636565646564206d61785265696e76657374426f756e747942707343616b654d617869576f726b657230323a3a6765744d6b7453656c6c416d6f756e743a3a2062616420726573657276652076616c75657343616b654d617869576f726b657230323a3a696e697469616c697a653a3a2070617468206d7573742073746172742077697468206261736520746f6b656e20616e6420656e642077697468206661726d696e6720746f6b656e43616b654d617869576f726b657230323a3a736574506174683a3a2070617468206c656e677468206d757374206265203e3d2032536166654d6174683a206d756c7469706c69636174696f6e206f766572666c6f774f776e61626c653a2063616c6c6572206973206e6f7420746865206f776e657216d969cecf946827cef9c521d1b9083d7fb9a6c1803277e079d9f6a142d61e538be0079c531659141344cd1fd0a4f28419497f9722a3daafe3b4186f6b6457e0436f6e747261637420696e7374616e63652068617320616c7265616479206265656e20696e697469616c697a656443616b654d617869576f726b657230323a3a6f6e6c794f70657261746f723a3a206e6f74206f70657261746f7243616b654d617869576f726b657230323a3a776f726b3a3a20756e617070726f76656420776f726b20737472617465677943616b654d617869576f726b657230323a3a696e697469616c697a653a3a2070617468206c656e677468206d757374206265203e3d203243616b654d617869576f726b657230323a3a73657442656e6566696369616c5661756c74426f756e74794270733a3a205f62656e6566696369616c5661756c74426f756e74794270732065786365656473203130302543616b654d617869576f726b657230323a3a7365744d61785265696e76657374426f756e74794270733a3a205f6d61785265696e76657374426f756e7479427073206c6f776572207468616e207265696e76657374426f756e747942707343616b654d617869576f726b657230323a3a7365744d61785265696e76657374426f756e74794270733a3a205f6d61785265696e76657374426f756e74794270732065786365656465642033302543616b654d617869576f726b657230323a3a6f6e6c795265696e766573746f723a3a206e6f74207265696e766573746f7243616b654d617869576f726b657230323a3a736574506174683a3a2070617468206d7573742073746172742077697468206261736520746f6b656e20616e6420656e642077697468206661726d696e6720746f6b656e43616b654d617869576f726b657230323a3a73657442656e6566696369616c5661756c74436f6e6669673a3a2072657761726450617468206c656e677468206d757374203e3d203243616b654d617869576f726b657230323a3a736574526577617264506174683a3a2072657761726450617468206d7573742073746172742077697468206661726d696e6720746f6b656e20616e6420656e6420776974682062656e6566696369616c5661756c7420746f6b656e43616b654d617869576f726b657230323a3a696e697469616c697a653a3a2072657761726450617468206d7573742073746172742077697468206661726d696e6720746f6b656e20616e6420656e6420776974682062656e6566696369616c5661756c742e746f6b656e282943616b654d617869576f726b657230323a3a73657442656e6566696369616c5661756c74436f6e6669673a3a2072657761726450617468206d75737420737461727420776974682046544f4b454e2c20656e6420776974682062656e6566696369616c5661756c7420746f6b656ea2646970667358221220d2888852288a14219002fb26fbefcf6d1722e81c0df116a8811704d89e7a2d2464736f6c63430006060033",
  "linkReferences": {},
  "deployedLinkReferences": {}
}