{
  "_format": "hh-sol-artifact-1",
  "contractName": "WaultSwapRestrictedStrategyAddBaseTokenOnly",
  "sourceName": "contracts/6/protocol/strategies/waultswap-restricted/WaultSwapRestrictedStrategyAddBaseTokenOnly.sol",
  "abi": [
    {
      "anonymous": false,
      "inputs": [
        {
          "indexed": true,
          "internalType": "address",
          "name": "previousOwner",
          "type": "address"
        },
        {
          "indexed": true,
          "internalType": "address",
          "name": "newOwner",
          "type": "address"
        }
      ],
      "name": "OwnershipTransferred",
      "type": "event"
    },
    {
      "inputs": [
        {
          "internalType": "address",
          "name": "",
          "type": "address"
        },
        {
          "internalType": "uint256",
          "name": "",
          "type": "uint256"
        },
        {
          "internalType": "bytes",
          "name": "data",
          "type": "bytes"
        }
      ],
      "name": "execute",
      "outputs": [],
      "stateMutability": "nonpayable",
      "type": "function"
    },
    {
      "inputs": [],
      "name": "factory",
      "outputs": [
        {
          "internalType": "contract IWaultSwapFactory",
          "name": "",
          "type": "address"
        }
      ],
      "stateMutability": "view",
      "type": "function"
    },
    {
      "inputs": [
        {
          "internalType": "contract IWaultSwapRouter02",
          "name": "_router",
          "type": "address"
        }
      ],
      "name": "initialize",
      "outputs": [],
      "stateMutability": "nonpayable",
      "type": "function"
    },
    {
      "inputs": [
        {
          "internalType": "address",
          "name": "",
          "type": "address"
        }
      ],
      "name": "okWorkers",
      "outputs": [
        {
          "internalType": "bool",
          "name": "",
          "type": "bool"
        }
      ],
      "stateMutability": "view",
      "type": "function"
    },
    {
      "inputs": [],
      "name": "owner",
      "outputs": [
        {
          "internalType": "address",
          "name": "",
          "type": "address"
        }
      ],
      "stateMutability": "view",
      "type": "function"
    },
    {
      "inputs": [],
      "name": "renounceOwnership",
      "outputs": [],
      "stateMutability": "nonpayable",
      "type": "function"
    },
    {
      "inputs": [],
      "name": "router",
      "outputs": [
        {
          "internalType": "contract IWaultSwapRouter02",
          "name": "",
          "type": "address"
        }
      ],
      "stateMutability": "view",
      "type": "function"
    },
    {
      "inputs": [
        {
          "internalType": "address[]",
          "name": "workers",
          "type": "address[]"
        },
        {
          "internalType": "bool",
          "name": "isOk",
          "type": "bool"
        }
      ],
      "name": "setWorkersOk",
      "outputs": [],
      "stateMutability": "nonpayable",
      "type": "function"
    },
    {
      "inputs": [
        {
          "internalType": "address",
          "name": "newOwner",
          "type": "address"
        }
      ],
      "name": "transferOwnership",
      "outputs": [],
      "stateMutability": "nonpayable",
      "type": "function"
    }
  ],
  "bytecode": "0x608060405234801561001057600080fd5b506118d6806100206000396000f3fe608060405234801561001057600080fd5b50600436106100835760003560e01c8063715018a6146100885780637c5bdf49146100925780638da5cb5b14610102578063b61d27f614610126578063c45a0155146101a9578063c4d66de8146101b1578063f2fde38b146101d7578063f887ea40146101fd578063fa82647814610205575b600080fd5b61009061023f565b005b610090600480360360408110156100a857600080fd5b810190602081018135600160201b8111156100c257600080fd5b8201836020820111156100d457600080fd5b803590602001918460208302840111600160201b831117156100f557600080fd5b91935091503515156102cf565b61010a610382565b604080516001600160a01b039092168252519081900360200190f35b6100906004803603606081101561013c57600080fd5b6001600160a01b0382351691602081013591810190606081016040820135600160201b81111561016b57600080fd5b82018360208201111561017d57600080fd5b803590602001918460018302840111600160201b8311171561019e57600080fd5b509092509050610391565b61010a610c54565b610090600480360360208110156101c757600080fd5b50356001600160a01b0316610c63565b610090600480360360208110156101ed57600080fd5b50356001600160a01b0316610daa565b61010a610e91565b61022b6004803603602081101561021b57600080fd5b50356001600160a01b0316610ea0565b604080519115158252519081900360200190f35b610247610eb5565b6065546001600160a01b03908116911614610297576040805162461bcd60e51b81526020600482018190526024820152600080516020611833833981519152604482015290519081900360640190fd5b6065546040516000916001600160a01b031690600080516020611853833981519152908390a3606580546001600160a01b0319169055565b6102d7610eb5565b6065546001600160a01b03908116911614610327576040805162461bcd60e51b81526020600482018190526024820152600080516020611833833981519152604482015290519081900360640190fd5b60005b8281101561037c578160cb600086868581811061034357fe5b602090810292909201356001600160a01b0316835250810191909152604001600020805460ff191691151591909117905560010161032a565b50505050565b6065546001600160a01b031690565b33600090815260cb602052604090205460ff166103df5760405162461bcd60e51b81526004018080602001828103825260508152602001806116e66050913960600191505060405180910390fd5b60975460ff16610436576040805162461bcd60e51b815260206004820152601f60248201527f5265656e7472616e637947756172643a207265656e7472616e742063616c6c00604482015290519081900360640190fd5b6097805460ff1916905560008282602081101561045257600080fd5b506040805163c55dae6360e01b81529051913592503391600091839163c55dae6391600480820192602092909190829003018186803b15801561049457600080fd5b505afa1580156104a8573d6000803e3d6000fd5b505050506040513d60208110156104be57600080fd5b50516040805163ad24dce760e01b815290519192506000916001600160a01b0385169163ad24dce7916004808301926020929190829003018186803b15801561050657600080fd5b505afa15801561051a573d6000803e3d6000fd5b505050506040513d602081101561053057600080fd5b505160c9546040805163e6a4390560e01b81526001600160a01b03808516600483015286811660248301529151939450600093919092169163e6a43905916044808301926020929190829003018186803b15801561058d57600080fd5b505afa1580156105a1573d6000803e3d6000fd5b505050506040513d60208110156105b757600080fd5b505160ca549091506105de906001600160a01b03858116911660001963ffffffff610eb916565b60ca54610600906001600160a01b03848116911660001963ffffffff610eb916565b6000610614846001600160a01b0316611012565b9050600080836001600160a01b0316630902f1ac6040518163ffffffff1660e01b815260040160606040518083038186803b15801561065257600080fd5b505afa158015610666573d6000803e3d6000fd5b505050506040513d606081101561067c57600080fd5b50805160209182015160408051630dfe168160e01b815290516001600160701b0393841696509290911693506000926001600160a01b03808b169390891692630dfe1681926004808301939192829003018186803b1580156106dd57600080fd5b505afa1580156106f1573d6000803e3d6000fd5b505050506040513d602081101561070757600080fd5b50516001600160a01b03161461071d578161071f565b825b905060006107cc61079461073b846107ce63ffffffff61109016565b61078861078361077661075788623ce9c463ffffffff61109016565b61076a8c623ce9c063ffffffff61109016565b9063ffffffff6110f216565b879063ffffffff61109016565b61114a565b9063ffffffff61128a16565b8161079b57fe5b60408051600280825260608083018452949093049450919060208301908036833701905050905088816000815181106107d057fe5b60200260200101906001600160a01b031690816001600160a01b03168152505087816001815181106107fe57fe5b6001600160a01b0392831660209182029290920181019190915260ca546040516338ed173960e01b8152600481018681526000602483018190523060648401819052426084850181905260a060448601908152895160a4870152895196909816976338ed1739978b9794968b96949593949360c49091019187810191028083838b5b83811015610898578181015183820152602001610880565b505050509050019650505050505050600060405180830381600087803b1580156108c157600080fd5b505af11580156108d5573d6000803e3d6000fd5b505050506040513d6000823e601f3d908101601f1916820160405260208110156108fe57600080fd5b8101908080516040519392919084600160201b82111561091d57600080fd5b90830190602082018581111561093257600080fd5b82518660208202830111600160201b8211171561094e57600080fd5b82525081516020918201928201910280838360005b8381101561097b578181015183820152602001610963565b5050505090500160405250505050600060ca60009054906101000a90046001600160a01b03166001600160a01b031663e8e337008b8b6109c38e6001600160a01b0316611012565b6109d58e6001600160a01b0316611012565b604080516001600160e01b031960e088901b1681526001600160a01b0395861660048201529390941660248401526044830191909152606482015260006084820181905260a482018190523060c48301524260e483015291516101048083019360609383900390910190829087803b158015610a5057600080fd5b505af1158015610a64573d6000803e3d6000fd5b505050506040513d6060811015610a7a57600080fd5b506040015190508b811015610ac05760405162461bcd60e51b815260040180806020018281038252605681526020018061175c6056913960600191505060405180910390fd5b604080516370a0823160e01b815230600482015290516001600160a01b038a169163a9059cbb91339184916370a0823191602480820192602092909190829003018186803b158015610b1157600080fd5b505afa158015610b25573d6000803e3d6000fd5b505050506040513d6020811015610b3b57600080fd5b5051604080516001600160e01b031960e086901b1681526001600160a01b03909316600484015260248301919091525160448083019260209291908290030181600087803b158015610b8c57600080fd5b505af1158015610ba0573d6000803e3d6000fd5b505050506040513d6020811015610bb657600080fd5b5051610bf35760405162461bcd60e51b81526004018080602001828103825260608152602001806117b26060913960600191505060405180910390fd5b60ca54610c14906001600160a01b038c81169116600063ffffffff610eb916565b60ca54610c35906001600160a01b038b81169116600063ffffffff610eb916565b50506097805460ff191660011790555050505050505050505050505050565b60c9546001600160a01b031681565b600054610100900460ff1680610c7c5750610c7c6112cc565b80610c8a575060005460ff16155b610cc55760405162461bcd60e51b815260040180806020018281038252602e815260200180611873602e913960400191505060405180910390fd5b600054610100900460ff16158015610cf0576000805460ff1961ff0019909116610100171660011790555b610cf86112d2565b610d00611384565b816001600160a01b031663c45a01556040518163ffffffff1660e01b815260040160206040518083038186803b158015610d3957600080fd5b505afa158015610d4d573d6000803e3d6000fd5b505050506040513d6020811015610d6357600080fd5b505160c980546001600160a01b03199081166001600160a01b039384161790915560ca80549091169184169190911790558015610da6576000805461ff00191690555b5050565b610db2610eb5565b6065546001600160a01b03908116911614610e02576040805162461bcd60e51b81526020600482018190526024820152600080516020611833833981519152604482015290519081900360640190fd5b6001600160a01b038116610e475760405162461bcd60e51b81526004018080602001828103825260268152602001806117366026913960400191505060405180910390fd5b6065546040516001600160a01b0380841692169060008051602061185383398151915290600090a3606580546001600160a01b0319166001600160a01b0392909216919091179055565b60ca546001600160a01b031681565b60cb6020526000908152604090205460ff1681565b3390565b604080516001600160a01b038481166024830152604480830185905283518084039091018152606490920183526020820180516001600160e01b031663095ea7b360e01b178152925182516000946060949389169392918291908083835b60208310610f365780518252601f199092019160209182019101610f17565b6001836020036101000a0380198251168184511680821785525050505050509050019150506000604051808303816000865af19150503d8060008114610f98576040519150601f19603f3d011682016040523d82523d6000602084013e610f9d565b606091505b5091509150818015610fcb575080511580610fcb5750808060200190516020811015610fc857600080fd5b50515b61100b576040805162461bcd60e51b815260206004820152600c60248201526b2173616665417070726f766560a01b604482015290519081900360640190fd5b5050505050565b604080516370a0823160e01b815230600482015290516000916001600160a01b038416916370a0823191602480820192602092909190829003018186803b15801561105c57600080fd5b505afa158015611070573d6000803e3d6000fd5b505050506040513d602081101561108657600080fd5b505190505b919050565b60008261109f575060006110ec565b828202828482816110ac57fe5b04146110e95760405162461bcd60e51b81526004018080602001828103825260218152602001806118126021913960400191505060405180910390fd5b90505b92915050565b6000828201838110156110e9576040805162461bcd60e51b815260206004820152601b60248201527a536166654d6174683a206164646974696f6e206f766572666c6f7760281b604482015290519081900360640190fd5b6000816111595750600061108b565b816001600160801b82106111725760809190911c9060401b5b600160401b82106111885760409190911c9060201b5b600160201b821061119e5760209190911c9060101b5b6201000082106111b35760109190911c9060081b5b61010082106111c75760089190911c9060041b5b601082106111da5760049190911c9060021b5b600882106111e65760011b5b60018185816111f157fe5b048201901c9050600181858161120357fe5b048201901c9050600181858161121557fe5b048201901c9050600181858161122757fe5b048201901c9050600181858161123957fe5b048201901c9050600181858161124b57fe5b048201901c9050600181858161125d57fe5b048201901c9050600081858161126f57fe5b04905080821061127f5780611281565b815b95945050505050565b60006110e983836040518060400160405280601e81526020017f536166654d6174683a207375627472616374696f6e206f766572666c6f770000815250611419565b303b1590565b600054610100900460ff16806112eb57506112eb6112cc565b806112f9575060005460ff16155b6113345760405162461bcd60e51b815260040180806020018281038252602e815260200180611873602e913960400191505060405180910390fd5b600054610100900460ff1615801561135f576000805460ff1961ff0019909116610100171660011790555b6113676114b0565b61136f611550565b8015611381576000805461ff00191690555b50565b600054610100900460ff168061139d575061139d6112cc565b806113ab575060005460ff16155b6113e65760405162461bcd60e51b815260040180806020018281038252602e815260200180611873602e913960400191505060405180910390fd5b600054610100900460ff16158015611411576000805460ff1961ff0019909116610100171660011790555b61136f611637565b600081848411156114a85760405162461bcd60e51b81526004018080602001828103825283818151815260200191508051906020019080838360005b8381101561146d578181015183820152602001611455565b50505050905090810190601f16801561149a5780820380516001836020036101000a031916815260200191505b509250505060405180910390fd5b505050900390565b600054610100900460ff16806114c957506114c96112cc565b806114d7575060005460ff16155b6115125760405162461bcd60e51b815260040180806020018281038252602e815260200180611873602e913960400191505060405180910390fd5b600054610100900460ff1615801561136f576000805460ff1961ff0019909116610100171660011790558015611381576000805461ff001916905550565b600054610100900460ff168061156957506115696112cc565b80611577575060005460ff16155b6115b25760405162461bcd60e51b815260040180806020018281038252602e815260200180611873602e913960400191505060405180910390fd5b600054610100900460ff161580156115dd576000805460ff1961ff0019909116610100171660011790555b60006115e7610eb5565b606580546001600160a01b0319166001600160a01b03831690811790915560405191925090600090600080516020611853833981519152908290a3508015611381576000805461ff001916905550565b600054610100900460ff168061165057506116506112cc565b8061165e575060005460ff16155b6116995760405162461bcd60e51b815260040180806020018281038252602e815260200180611873602e913960400191505060405180910390fd5b600054610100900460ff161580156116c4576000805460ff1961ff0019909116610100171660011790555b6097805460ff191660011790558015611381576000805461ff00191690555056fe5761756c745377617052657374726963746564537472617465677941646442617365546f6b656e4f6e6c793a3a6f6e6c7957686974656c6973746564576f726b6572733a3a2062616420776f726b65724f776e61626c653a206e6577206f776e657220697320746865207a65726f20616464726573735761756c745377617052657374726963746564537472617465677941646442617365546f6b656e4f6e6c793a3a657865637574653a3a20696e73756666696369656e74204c5020746f6b656e732072656365697665645761756c745377617052657374726963746564537472617465677941646442617365546f6b656e4f6e6c793a3a657865637574653a3a206661696c656420746f207472616e73666572204c5020746f6b656e20746f206d73672e73656e646572536166654d6174683a206d756c7469706c69636174696f6e206f766572666c6f774f776e61626c653a2063616c6c6572206973206e6f7420746865206f776e65728be0079c531659141344cd1fd0a4f28419497f9722a3daafe3b4186f6b6457e0436f6e747261637420696e7374616e63652068617320616c7265616479206265656e20696e697469616c697a6564a2646970667358221220ef0396357587f7b17d961d36147a7bbc8b9ad8eba51e676ed494d17dd005f8c764736f6c63430006060033",
  "linkReferences": {},
  "deployedLinkReferences": {}
}