{
  "_format": "hh-sol-artifact-1",
  "contractName": "GrassHouseGateway",
  "sourceName": "contracts/8.7/GrassHouseGateway.sol",
  "abi": [
    {
      "inputs": [
        {
          "internalType": "address[]",
          "name": "_grassHouses",
          "type": "address[]"
        },
        {
          "internalType": "address",
          "name": "_for",
          "type": "address"
        }
      ],
      "name": "claimMultiple",
      "outputs": [],
      "stateMutability": "nonpayable",
      "type": "function"
    }
  ],
  "bytecode": "0x608060405234801561001057600080fd5b5061025d806100206000396000f3fe608060405234801561001057600080fd5b506004361061002b5760003560e01c80633918447614610030575b600080fd5b61004361003e36600461014b565b610045565b005b60005b828110156101075783838281811061006257610062610211565b90506020020160208101906100779190610129565b604051630f41a04d60e11b81526001600160a01b0384811660048301529190911690631e83409a90602401602060405180830381600087803b1580156100bc57600080fd5b505af11580156100d0573d6000803e3d6000fd5b505050506040513d601f19601f820116820180604052508101906100f491906101cf565b50806100ff816101e8565b915050610048565b50505050565b80356001600160a01b038116811461012457600080fd5b919050565b60006020828403121561013b57600080fd5b6101448261010d565b9392505050565b60008060006040848603121561016057600080fd5b833567ffffffffffffffff8082111561017857600080fd5b818601915086601f83011261018c57600080fd5b81358181111561019b57600080fd5b8760208260051b85010111156101b057600080fd5b6020928301955093506101c6918601905061010d565b90509250925092565b6000602082840312156101e157600080fd5b5051919050565b600060001982141561020a57634e487b7160e01b600052601160045260246000fd5b5060010190565b634e487b7160e01b600052603260045260246000fdfea2646970667358221220ff22877e2065779dbf73ef096e7f6665b72d2eb2d05438b6fe41daa2847b3e4264736f6c63430008070033",
  "linkReferences": {},
  "deployedLinkReferences": {}
}