{
  "_format": "hh-sol-artifact-1",
  "contractName": "BookKeeper",
  "sourceName": "contracts/6.12/stablecoin-core/BookKeeper.sol",
  "abi": [
    {
      "anonymous": false,
      "inputs": [
        {
          "indexed": true,
          "internalType": "address",
          "name": "_caller",
          "type": "address"
        },
        {
          "indexed": false,
          "internalType": "address",
          "name": "_usr",
          "type": "address"
        },
        {
          "indexed": false,
          "internalType": "int256",
          "name": "_amount",
          "type": "int256"
        }
      ],
      "name": "LogAddCollateral",
      "type": "event"
    },
    {
      "anonymous": false,
      "inputs": [
        {
          "indexed": true,
          "internalType": "address",
          "name": "_caller",
          "type": "address"
        },
        {
          "indexed": false,
          "internalType": "bytes32",
          "name": "_collateralPoolId",
          "type": "bytes32"
        },
        {
          "indexed": false,
          "internalType": "address",
          "name": "_positionAddress",
          "type": "address"
        },
        {
          "indexed": false,
          "internalType": "uint256",
          "name": "_lockedCollateral",
          "type": "uint256"
        },
        {
          "indexed": false,
          "internalType": "uint256",
          "name": "_debtShare",
          "type": "uint256"
        },
        {
          "indexed": false,
          "internalType": "int256",
          "name": "_addCollateral",
          "type": "int256"
        },
        {
          "indexed": false,
          "internalType": "int256",
          "name": "_addDebtShare",
          "type": "int256"
        }
      ],
      "name": "LogAdjustPosition",
      "type": "event"
    },
    {
      "anonymous": false,
      "inputs": [],
      "name": "LogCage",
      "type": "event"
    },
    {
      "anonymous": false,
      "inputs": [
        {
          "indexed": true,
          "internalType": "address",
          "name": "_caller",
          "type": "address"
        },
        {
          "indexed": false,
          "internalType": "bytes32",
          "name": "_collateralPoolId",
          "type": "bytes32"
        },
        {
          "indexed": false,
          "internalType": "address",
          "name": "_src",
          "type": "address"
        },
        {
          "indexed": false,
          "internalType": "address",
          "name": "_dst",
          "type": "address"
        },
        {
          "indexed": false,
          "internalType": "uint256",
          "name": "_amount",
          "type": "uint256"
        }
      ],
      "name": "LogMoveCollateral",
      "type": "event"
    },
    {
      "anonymous": false,
      "inputs": [
        {
          "indexed": true,
          "internalType": "address",
          "name": "_caller",
          "type": "address"
        },
        {
          "indexed": false,
          "internalType": "address",
          "name": "_accessControlConfig",
          "type": "address"
        }
      ],
      "name": "LogSetAccessControlConfig",
      "type": "event"
    },
    {
      "anonymous": false,
      "inputs": [
        {
          "indexed": true,
          "internalType": "address",
          "name": "_caller",
          "type": "address"
        },
        {
          "indexed": false,
          "internalType": "address",
          "name": "_collateralPoolConfig",
          "type": "address"
        }
      ],
      "name": "LogSetCollateralPoolConfig",
      "type": "event"
    },
    {
      "anonymous": false,
      "inputs": [
        {
          "indexed": true,
          "internalType": "address",
          "name": "_caller",
          "type": "address"
        },
        {
          "indexed": false,
          "internalType": "uint256",
          "name": "_totalDebtCeiling",
          "type": "uint256"
        }
      ],
      "name": "LogSetTotalDebtCeiling",
      "type": "event"
    },
    {
      "anonymous": false,
      "inputs": [],
      "name": "LogUncage",
      "type": "event"
    },
    {
      "anonymous": false,
      "inputs": [
        {
          "indexed": false,
          "internalType": "address",
          "name": "account",
          "type": "address"
        }
      ],
      "name": "Paused",
      "type": "event"
    },
    {
      "anonymous": false,
      "inputs": [
        {
          "indexed": false,
          "internalType": "address",
          "name": "account",
          "type": "address"
        }
      ],
      "name": "Unpaused",
      "type": "event"
    },
    {
      "inputs": [],
      "name": "accessControlConfig",
      "outputs": [
        {
          "internalType": "address",
          "name": "",
          "type": "address"
        }
      ],
      "stateMutability": "view",
      "type": "function"
    },
    {
      "inputs": [
        {
          "internalType": "bytes32",
          "name": "_collateralPoolId",
          "type": "bytes32"
        },
        {
          "internalType": "address",
          "name": "_stabilityFeeRecipient",
          "type": "address"
        },
        {
          "internalType": "int256",
          "name": "_debtAccumulatedRate",
          "type": "int256"
        }
      ],
      "name": "accrueStabilityFee",
      "outputs": [],
      "stateMutability": "nonpayable",
      "type": "function"
    },
    {
      "inputs": [
        {
          "internalType": "bytes32",
          "name": "_collateralPoolId",
          "type": "bytes32"
        },
        {
          "internalType": "address",
          "name": "_usr",
          "type": "address"
        },
        {
          "internalType": "int256",
          "name": "_amount",
          "type": "int256"
        }
      ],
      "name": "addCollateral",
      "outputs": [],
      "stateMutability": "nonpayable",
      "type": "function"
    },
    {
      "inputs": [
        {
          "internalType": "bytes32",
          "name": "_collateralPoolId",
          "type": "bytes32"
        },
        {
          "internalType": "address",
          "name": "_positionAddress",
          "type": "address"
        },
        {
          "internalType": "address",
          "name": "_collateralOwner",
          "type": "address"
        },
        {
          "internalType": "address",
          "name": "_stablecoinOwner",
          "type": "address"
        },
        {
          "internalType": "int256",
          "name": "_collateralValue",
          "type": "int256"
        },
        {
          "internalType": "int256",
          "name": "_debtShare",
          "type": "int256"
        }
      ],
      "name": "adjustPosition",
      "outputs": [],
      "stateMutability": "nonpayable",
      "type": "function"
    },
    {
      "inputs": [
        {
          "internalType": "address",
          "name": "toBeBlacklistedAddress",
          "type": "address"
        }
      ],
      "name": "blacklist",
      "outputs": [],
      "stateMutability": "nonpayable",
      "type": "function"
    },
    {
      "inputs": [],
      "name": "cage",
      "outputs": [],
      "stateMutability": "nonpayable",
      "type": "function"
    },
    {
      "inputs": [],
      "name": "collateralPoolConfig",
      "outputs": [
        {
          "internalType": "address",
          "name": "",
          "type": "address"
        }
      ],
      "stateMutability": "view",
      "type": "function"
    },
    {
      "inputs": [
        {
          "internalType": "bytes32",
          "name": "",
          "type": "bytes32"
        },
        {
          "internalType": "address",
          "name": "",
          "type": "address"
        }
      ],
      "name": "collateralToken",
      "outputs": [
        {
          "internalType": "uint256",
          "name": "",
          "type": "uint256"
        }
      ],
      "stateMutability": "view",
      "type": "function"
    },
    {
      "inputs": [
        {
          "internalType": "bytes32",
          "name": "_collateralPoolId",
          "type": "bytes32"
        },
        {
          "internalType": "address",
          "name": "_positionAddress",
          "type": "address"
        },
        {
          "internalType": "address",
          "name": "_collateralCreditor",
          "type": "address"
        },
        {
          "internalType": "address",
          "name": "_stablecoinDebtor",
          "type": "address"
        },
        {
          "internalType": "int256",
          "name": "_collateralAmount",
          "type": "int256"
        },
        {
          "internalType": "int256",
          "name": "_debtShare",
          "type": "int256"
        }
      ],
      "name": "confiscatePosition",
      "outputs": [],
      "stateMutability": "nonpayable",
      "type": "function"
    },
    {
      "inputs": [
        {
          "internalType": "address",
          "name": "_collateralPoolConfig",
          "type": "address"
        },
        {
          "internalType": "address",
          "name": "_accessControlConfig",
          "type": "address"
        }
      ],
      "name": "initialize",
      "outputs": [],
      "stateMutability": "nonpayable",
      "type": "function"
    },
    {
      "inputs": [],
      "name": "live",
      "outputs": [
        {
          "internalType": "uint256",
          "name": "",
          "type": "uint256"
        }
      ],
      "stateMutability": "view",
      "type": "function"
    },
    {
      "inputs": [
        {
          "internalType": "address",
          "name": "_from",
          "type": "address"
        },
        {
          "internalType": "address",
          "name": "_to",
          "type": "address"
        },
        {
          "internalType": "uint256",
          "name": "_value",
          "type": "uint256"
        }
      ],
      "name": "mintUnbackedStablecoin",
      "outputs": [],
      "stateMutability": "nonpayable",
      "type": "function"
    },
    {
      "inputs": [
        {
          "internalType": "bytes32",
          "name": "_collateralPoolId",
          "type": "bytes32"
        },
        {
          "internalType": "address",
          "name": "_src",
          "type": "address"
        },
        {
          "internalType": "address",
          "name": "_dst",
          "type": "address"
        },
        {
          "internalType": "uint256",
          "name": "_amount",
          "type": "uint256"
        }
      ],
      "name": "moveCollateral",
      "outputs": [],
      "stateMutability": "nonpayable",
      "type": "function"
    },
    {
      "inputs": [
        {
          "internalType": "bytes32",
          "name": "_collateralPoolId",
          "type": "bytes32"
        },
        {
          "internalType": "address",
          "name": "_src",
          "type": "address"
        },
        {
          "internalType": "address",
          "name": "_dst",
          "type": "address"
        },
        {
          "internalType": "int256",
          "name": "_collateralAmount",
          "type": "int256"
        },
        {
          "internalType": "int256",
          "name": "_debtShare",
          "type": "int256"
        }
      ],
      "name": "movePosition",
      "outputs": [],
      "stateMutability": "nonpayable",
      "type": "function"
    },
    {
      "inputs": [
        {
          "internalType": "address",
          "name": "_src",
          "type": "address"
        },
        {
          "internalType": "address",
          "name": "_dst",
          "type": "address"
        },
        {
          "internalType": "uint256",
          "name": "_value",
          "type": "uint256"
        }
      ],
      "name": "moveStablecoin",
      "outputs": [],
      "stateMutability": "nonpayable",
      "type": "function"
    },
    {
      "inputs": [],
      "name": "pause",
      "outputs": [],
      "stateMutability": "nonpayable",
      "type": "function"
    },
    {
      "inputs": [],
      "name": "paused",
      "outputs": [
        {
          "internalType": "bool",
          "name": "",
          "type": "bool"
        }
      ],
      "stateMutability": "view",
      "type": "function"
    },
    {
      "inputs": [
        {
          "internalType": "address",
          "name": "",
          "type": "address"
        },
        {
          "internalType": "address",
          "name": "",
          "type": "address"
        }
      ],
      "name": "positionWhitelist",
      "outputs": [
        {
          "internalType": "uint256",
          "name": "",
          "type": "uint256"
        }
      ],
      "stateMutability": "view",
      "type": "function"
    },
    {
      "inputs": [
        {
          "internalType": "bytes32",
          "name": "",
          "type": "bytes32"
        },
        {
          "internalType": "address",
          "name": "",
          "type": "address"
        }
      ],
      "name": "positions",
      "outputs": [
        {
          "internalType": "uint256",
          "name": "lockedCollateral",
          "type": "uint256"
        },
        {
          "internalType": "uint256",
          "name": "debtShare",
          "type": "uint256"
        }
      ],
      "stateMutability": "view",
      "type": "function"
    },
    {
      "inputs": [
        {
          "internalType": "address",
          "name": "_accessControlConfig",
          "type": "address"
        }
      ],
      "name": "setAccessControlConfig",
      "outputs": [],
      "stateMutability": "nonpayable",
      "type": "function"
    },
    {
      "inputs": [
        {
          "internalType": "address",
          "name": "_collateralPoolConfig",
          "type": "address"
        }
      ],
      "name": "setCollateralPoolConfig",
      "outputs": [],
      "stateMutability": "nonpayable",
      "type": "function"
    },
    {
      "inputs": [
        {
          "internalType": "uint256",
          "name": "_totalDebtCeiling",
          "type": "uint256"
        }
      ],
      "name": "setTotalDebtCeiling",
      "outputs": [],
      "stateMutability": "nonpayable",
      "type": "function"
    },
    {
      "inputs": [
        {
          "internalType": "uint256",
          "name": "_value",
          "type": "uint256"
        }
      ],
      "name": "settleSystemBadDebt",
      "outputs": [],
      "stateMutability": "nonpayable",
      "type": "function"
    },
    {
      "inputs": [
        {
          "internalType": "address",
          "name": "",
          "type": "address"
        }
      ],
      "name": "stablecoin",
      "outputs": [
        {
          "internalType": "uint256",
          "name": "",
          "type": "uint256"
        }
      ],
      "stateMutability": "view",
      "type": "function"
    },
    {
      "inputs": [
        {
          "internalType": "address",
          "name": "",
          "type": "address"
        }
      ],
      "name": "systemBadDebt",
      "outputs": [
        {
          "internalType": "uint256",
          "name": "",
          "type": "uint256"
        }
      ],
      "stateMutability": "view",
      "type": "function"
    },
    {
      "inputs": [],
      "name": "totalDebtCeiling",
      "outputs": [
        {
          "internalType": "uint256",
          "name": "",
          "type": "uint256"
        }
      ],
      "stateMutability": "view",
      "type": "function"
    },
    {
      "inputs": [],
      "name": "totalStablecoinIssued",
      "outputs": [
        {
          "internalType": "uint256",
          "name": "",
          "type": "uint256"
        }
      ],
      "stateMutability": "view",
      "type": "function"
    },
    {
      "inputs": [],
      "name": "totalUnbackedStablecoin",
      "outputs": [
        {
          "internalType": "uint256",
          "name": "",
          "type": "uint256"
        }
      ],
      "stateMutability": "view",
      "type": "function"
    },
    {
      "inputs": [],
      "name": "uncage",
      "outputs": [],
      "stateMutability": "nonpayable",
      "type": "function"
    },
    {
      "inputs": [],
      "name": "unpause",
      "outputs": [],
      "stateMutability": "nonpayable",
      "type": "function"
    },
    {
      "inputs": [
        {
          "internalType": "address",
          "name": "toBeWhitelistedAddress",
          "type": "address"
        }
      ],
      "name": "whitelist",
      "outputs": [],
      "stateMutability": "nonpayable",
      "type": "function"
    }
  ],
  "bytecode": "0x608060405234801561001057600080fd5b5061398e806100206000396000f3fe608060405234801561001057600080fd5b50600436106101755760003560e01c806303ab90761461017a57806329d885941461018f5780633f4ba83a146101b9578063485cc955146101c157806354eb03a2146101d457806356bd594a146101e95780635b2a5121146101fc5780635c975abb1461020457806369245009146102195780636a321151146102215780636f3a3bfc14610234578063815110ec1461023c5780638456cb591461024f57806384e44abb146102575780638c1578541461026a57806390d536391461027d578063957aa58c146102905780639b19251a14610298578063b1df2594146102ab578063b4ac08bb146102be578063b5d99329146102d1578063c8cc243f146102e4578063d295927a146102f9578063d63b23b21461030c578063d868246114610314578063d9ea91551461031c578063e137ddc51461032f578063ec50009914610342578063f635d8a714610355578063f8be242c14610368578063f9f92be41461037b575b600080fd5b61018d6101883660046131c7565b61038e565b005b6101a261019d366004613134565b610732565b6040516101b09291906133c2565b60405180910390f35b61018d610756565b61018d6101cf366004613088565b610965565b6101dc610a2f565b6040516101b0919061334c565b61018d6101f7366004613163565b610a35565b6101dc611022565b61020c611028565b6040516101b09190613341565b61018d611031565b61018d61022f3660046130bc565b611288565b6101dc611482565b61018d61024a3660046132fc565b611488565b61018d61154d565b61018d6102653660046132fc565b611759565b61018d6102783660046130bc565b6118ce565b61018d61028b36600461325d565b6119b9565b6101dc611ca0565b61018d6102a636600461306d565b611ca6565b61018d6102b9366004613163565b611cf5565b6101dc6102cc36600461306d565b612051565b61018d6102df366004613218565b612063565b6102ec6122bc565b6040516101b09190613314565b61018d61030736600461325d565b6122cb565b61018d6124c2565b6102ec612717565b6101dc61032a366004613088565b612726565b6101dc61033d36600461306d565b612743565b61018d61035036600461306d565b612755565b61018d61036336600461306d565b6129a1565b6101dc610376366004613134565b612afe565b61018d61038936600461306d565b612b1b565b600260655414156103ba5760405162461bcd60e51b81526004016103b190613833565b60405180910390fd5b60026065556103c7611028565b156103e45760405162461bcd60e51b81526004016103b190613532565b60a15460408051636e19aa5960e01b815290516001600160a01b039092169182916391d14854918391636e19aa59916004808301926020929190829003018186803b15801561043257600080fd5b505afa158015610446573d6000803e3d6000fd5b505050506040513d601f19601f8201168201806040525081019061046a919061311c565b336040518363ffffffff1660e01b8152600401610488929190613355565b60206040518083038186803b1580156104a057600080fd5b505afa1580156104b4573d6000803e3d6000fd5b505050506040513d601f19601f820116820180604052508101906104d891906130fc565b6104f45760405162461bcd60e51b81526004016103b190613915565b60008681526098602090815260408083206001600160a01b0389811685529252808320918716835290912061052761300d565b60a0546040516309023b4f60e11b81526001600160a01b0390911690631204769e90610557908c9060040161334c565b60a06040518083038186803b15801561056f57600080fd5b505afa158015610583573d6000803e3d6000fd5b505050506040513d601f19601f820116820180604052508101906105a79190613292565b90506105b7836000015487612b69565b835560018301546105c89086612b69565b600184015581546105d99087612ba4565b825560018201546105ea9086612ba4565b8260010181905550600061060684600101548360000151612bd8565b9050600061061c84600101548460000151612bd8565b905061063a61062b8b33612bfb565b6106358b33612bfb565b612c3b565b6106565760405162461bcd60e51b81526004016103b190613644565b61066885600001548460600151612bd8565b8211156106875760405162461bcd60e51b81526004016103b190613469565b61069984600001548460600151612bd8565b8111156106b85760405162461bcd60e51b81526004016103b19061355c565b6106d083608001518310158660010154600014612c3f565b6106ec5760405162461bcd60e51b81526004016103b190613674565b61070483608001518210158560010154600014612c3f565b6107205760405162461bcd60e51b81526004016103b1906134ff565b50506001606555505050505050505050565b60986020908152600092835260408084209091529082529020805460019091015482565b60a1546040805163e58378bb60e01b815290516001600160a01b039092169182916391d1485491839163e58378bb916004808301926020929190829003018186803b1580156107a457600080fd5b505afa1580156107b8573d6000803e3d6000fd5b505050506040513d601f19601f820116820180604052508101906107dc919061311c565b336040518363ffffffff1660e01b81526004016107fa929190613355565b60206040518083038186803b15801561081257600080fd5b505afa158015610826573d6000803e3d6000fd5b505050506040513d601f19601f8201168201806040525081019061084a91906130fc565b8061093e5750806001600160a01b03166391d14854826001600160a01b031663b536818a6040518163ffffffff1660e01b815260040160206040518083038186803b15801561089857600080fd5b505afa1580156108ac573d6000803e3d6000fd5b505050506040513d601f19601f820116820180604052508101906108d0919061311c565b336040518363ffffffff1660e01b81526004016108ee929190613355565b60206040518083038186803b15801561090657600080fd5b505afa15801561091a573d6000803e3d6000fd5b505050506040513d601f19601f8201168201806040525081019061093e91906130fc565b61095a5760405162461bcd60e51b81526004016103b1906136a7565b610962612c43565b50565b600054610100900460ff168061097e575061097e612cb1565b8061098c575060005460ff16155b6109a85760405162461bcd60e51b81526004016103b1906135b4565b600054610100900460ff161580156109d3576000805460ff1961ff0019909116610100171660011790555b6109db612cc2565b6109e3612d54565b60a080546001600160a01b038086166001600160a01b03199283161790925560a18054928516929091169190911790556001609f558015610a2a576000805461ff00191690555b505050565b609d5481565b60026065541415610a585760405162461bcd60e51b81526004016103b190613833565b6002606555610a65611028565b15610a825760405162461bcd60e51b81526004016103b190613532565b60a15460408051636e19aa5960e01b815290516001600160a01b039092169182916391d14854918391636e19aa59916004808301926020929190829003018186803b158015610ad057600080fd5b505afa158015610ae4573d6000803e3d6000fd5b505050506040513d601f19601f82011682018060405250810190610b08919061311c565b336040518363ffffffff1660e01b8152600401610b26929190613355565b60206040518083038186803b158015610b3e57600080fd5b505afa158015610b52573d6000803e3d6000fd5b505050506040513d601f19601f82011682018060405250810190610b7691906130fc565b610b925760405162461bcd60e51b81526004016103b190613915565b609f54600114610bb45760405162461bcd60e51b81526004016103b190613806565b610bbc61303c565b5060008781526098602090815260408083206001600160a01b038a1684528252918290208251808401909352805483526001015490820152610bfc61300d565b60a0546040516309023b4f60e11b81526001600160a01b0390911690631204769e90610c2c908c9060040161334c565b60a06040518083038186803b158015610c4457600080fd5b505afa158015610c58573d6000803e3d6000fd5b505050506040513d601f19601f82011682018060405250810190610c7c9190613292565b8051909150610c9d5760405162461bcd60e51b81526004016103b190613602565b8151610ca99086612ba4565b82526020820151610cba9085612ba4565b826020018181525050610cd1816020015185612ba4565b6020820181905260a0546040516359d8e7d160e11b81526001600160a01b039091169163b3b1cfa291610d08918d916004016133c2565b600060405180830381600087803b158015610d2257600080fd5b505af1158015610d36573d6000803e3d6000fd5b505050506000610d4a826000015186612dca565b90506000610d6083600001518560200151612bd8565b9050610d6e609c5483612ba4565b609c81905550610daa6000871315610da58560400151610d9687602001518860000151612bd8565b1115609e54609c541115612c3b565b612c3f565b610dc65760405162461bcd60e51b81526004016103b19061349a565b610df5610ddb600088131560008a1215612c3b565b610ded86600001518660600151612bd8565b831115612c3f565b610e115760405162461bcd60e51b81526004016103b1906138e8565b610e30610e26600088131560008a1215612c3b565b610da58c33612bfb565b610e4c5760405162461bcd60e51b81526004016103b190613799565b610e5e6000881315610da58b33612bfb565b610e7a5760405162461bcd60e51b81526004016103b190613422565b610e8c6000871215610da58a33612bfb565b610ea85760405162461bcd60e51b81526004016103b19061386a565b610ec084602001516000148460800151831015612c3f565b610edc5760405162461bcd60e51b81526004016103b19061370c565b60008b81526099602090815260408083206001600160a01b038d168452909152902054610f099088612b69565b60008c81526099602090815260408083206001600160a01b03808f16855290835281842094909455928b168252609a90522054610f469083612ba4565b609a60008a6001600160a01b03166001600160a01b031681526020019081526020016000208190555083609860008d815260200190815260200160002060008c6001600160a01b03166001600160a01b031681526020019081526020016000206000820151816000015560208201518160010155905050336001600160a01b03167f9b94d9430dddc4ac521de354f6e41dda42e93122366c22ea833f7b216daf86138c8c876000015188602001518c8c60405161100896959493929190613391565b60405180910390a250506001606555505050505050505050565b609e5481565b60335460ff1690565b60a1546040805163e58378bb60e01b815290516001600160a01b039092169182916391d1485491839163e58378bb916004808301926020929190829003018186803b15801561107f57600080fd5b505afa158015611093573d6000803e3d6000fd5b505050506040513d601f19601f820116820180604052508101906110b7919061311c565b336040518363ffffffff1660e01b81526004016110d5929190613355565b60206040518083038186803b1580156110ed57600080fd5b505afa158015611101573d6000803e3d6000fd5b505050506040513d601f19601f8201168201806040525081019061112591906130fc565b806112195750806001600160a01b03166391d14854826001600160a01b031663d7a47a696040518163ffffffff1660e01b815260040160206040518083038186803b15801561117357600080fd5b505afa158015611187573d6000803e3d6000fd5b505050506040513d601f19601f820116820180604052508101906111ab919061311c565b336040518363ffffffff1660e01b81526004016111c9929190613355565b60206040518083038186803b1580156111e157600080fd5b505afa1580156111f5573d6000803e3d6000fd5b505050506040513d601f19601f8201168201806040525081019061121991906130fc565b6112355760405162461bcd60e51b81526004016103b1906138b1565b609f546001146112575760405162461bcd60e51b81526004016103b190613806565b6000609f8190556040517fbf689b4aae670d200b1d2b971ace2e0c3bef88a9c5e93f36705c7b86eab630b99190a150565b600260655414156112ab5760405162461bcd60e51b81526004016103b190613833565b60026065556112b8611028565b156112d55760405162461bcd60e51b81526004016103b190613532565b60a154604080516308e45bc560e01b815290516001600160a01b039092169182916391d148549183916308e45bc5916004808301926020929190829003018186803b15801561132357600080fd5b505afa158015611337573d6000803e3d6000fd5b505050506040513d601f19601f8201168201806040525081019061135b919061311c565b336040518363ffffffff1660e01b8152600401611379929190613355565b60206040518083038186803b15801561139157600080fd5b505afa1580156113a5573d6000803e3d6000fd5b505050506040513d601f19601f820116820180604052508101906113c991906130fc565b6113e55760405162461bcd60e51b81526004016103b19061358d565b6001600160a01b0384166000908152609b60205260409020546114089083612df8565b6001600160a01b038086166000908152609b60209081526040808320949094559186168152609a909152205461143e9083612df8565b6001600160a01b0384166000908152609a6020526040902055609d546114649083612df8565b609d55609c546114749083612df8565b609c55505060016065555050565b609c5481565b600260655414156114ab5760405162461bcd60e51b81526004016103b190613833565b60026065556114b8611028565b156114d55760405162461bcd60e51b81526004016103b190613532565b336000908152609b60205260409020546114ef9082612e08565b336000908152609b6020908152604080832093909355609a905220546115159082612e08565b336000908152609a6020526040902055609d546115329082612e08565b609d55609c546115429082612e08565b609c55506001606555565b60a1546040805163e58378bb60e01b815290516001600160a01b039092169182916391d1485491839163e58378bb916004808301926020929190829003018186803b15801561159b57600080fd5b505afa1580156115af573d6000803e3d6000fd5b505050506040513d601f19601f820116820180604052508101906115d3919061311c565b336040518363ffffffff1660e01b81526004016115f1929190613355565b60206040518083038186803b15801561160957600080fd5b505afa15801561161d573d6000803e3d6000fd5b505050506040513d601f19601f8201168201806040525081019061164191906130fc565b806117355750806001600160a01b03166391d14854826001600160a01b031663b536818a6040518163ffffffff1660e01b815260040160206040518083038186803b15801561168f57600080fd5b505afa1580156116a3573d6000803e3d6000fd5b505050506040513d601f19601f820116820180604052508101906116c7919061311c565b336040518363ffffffff1660e01b81526004016116e5929190613355565b60206040518083038186803b1580156116fd57600080fd5b505afa158015611711573d6000803e3d6000fd5b505050506040513d601f19601f8201168201806040525081019061173591906130fc565b6117515760405162461bcd60e51b81526004016103b1906136a7565b610962612e18565b60a1546040805163e58378bb60e01b815290516001600160a01b039092169182916391d1485491839163e58378bb916004808301926020929190829003018186803b1580156117a757600080fd5b505afa1580156117bb573d6000803e3d6000fd5b505050506040513d601f19601f820116820180604052508101906117df919061311c565b336040518363ffffffff1660e01b81526004016117fd929190613355565b60206040518083038186803b15801561181557600080fd5b505afa158015611829573d6000803e3d6000fd5b505050506040513d601f19601f8201168201806040525081019061184d91906130fc565b6118695760405162461bcd60e51b81526004016103b1906133d0565b609f5460011461188b5760405162461bcd60e51b81526004016103b190613806565b609e82905560405133907f40f69e672a10878e2ae12a782e2a123f25152d75979b2f9c50295f44ff4e308d906118c290859061334c565b60405180910390a25050565b600260655414156118f15760405162461bcd60e51b81526004016103b190613833565b60026065556118fe611028565b1561191b5760405162461bcd60e51b81526004016103b190613532565b6119258333612bfb565b6119415760405162461bcd60e51b81526004016103b190613644565b6001600160a01b0383166000908152609a60205260409020546119649082612e08565b6001600160a01b038085166000908152609a602052604080822093909355908416815220546119939082612df8565b6001600160a01b039092166000908152609a602052604090209190915550506001606555565b600260655414156119dc5760405162461bcd60e51b81526004016103b190613833565b60026065556119e9611028565b15611a065760405162461bcd60e51b81526004016103b190613532565b60a15460408051620470d160eb1b815290516001600160a01b039092169182916391d148549183916323868800916004808301926020929190829003018186803b158015611a5357600080fd5b505afa158015611a67573d6000803e3d6000fd5b505050506040513d601f19601f82011682018060405250810190611a8b919061311c565b336040518363ffffffff1660e01b8152600401611aa9929190613355565b60206040518083038186803b158015611ac157600080fd5b505afa158015611ad5573d6000803e3d6000fd5b505050506040513d601f19601f82011682018060405250810190611af991906130fc565b611b155760405162461bcd60e51b81526004016103b1906136d8565b609f54600114611b375760405162461bcd60e51b81526004016103b190613806565b611b3f61300d565b60a0546040516309023b4f60e11b81526001600160a01b0390911690631204769e90611b6f90889060040161334c565b60a06040518083038186803b158015611b8757600080fd5b505afa158015611b9b573d6000803e3d6000fd5b505050506040513d601f19601f82011682018060405250810190611bbf9190613292565b9050611bcf816000015184612ba4565b80825260a05460405163e47f3c6f60e01b81526001600160a01b039091169163e47f3c6f91611c029189916004016133c2565b600060405180830381600087803b158015611c1c57600080fd5b505af1158015611c30573d6000803e3d6000fd5b505050506000611c44826020015185612dca565b6001600160a01b0386166000908152609a6020526040902054909150611c6a9082612ba4565b6001600160a01b0386166000908152609a6020526040902055609c54611c909082612ba4565b609c555050600160655550505050565b609f5481565b611cae611028565b15611ccb5760405162461bcd60e51b81526004016103b190613532565b3360009081526097602090815260408083206001600160a01b039490941683529290522060019055565b60026065541415611d185760405162461bcd60e51b81526004016103b190613833565b6002606555611d25611028565b15611d425760405162461bcd60e51b81526004016103b190613532565b60a1546040805163e8ff193d60e01b815290516001600160a01b039092169182916391d1485491839163e8ff193d916004808301926020929190829003018186803b158015611d9057600080fd5b505afa158015611da4573d6000803e3d6000fd5b505050506040513d601f19601f82011682018060405250810190611dc8919061311c565b336040518363ffffffff1660e01b8152600401611de6929190613355565b60206040518083038186803b158015611dfe57600080fd5b505afa158015611e12573d6000803e3d6000fd5b505050506040513d601f19601f82011682018060405250810190611e3691906130fc565b611e525760405162461bcd60e51b81526004016103b19061373b565b60008781526098602090815260408083206001600160a01b038a1684529091529020611e7c61300d565b60a0546040516309023b4f60e11b81526001600160a01b0390911690631204769e90611eac908c9060040161334c565b60a06040518083038186803b158015611ec457600080fd5b505afa158015611ed8573d6000803e3d6000fd5b505050506040513d601f19601f82011682018060405250810190611efc9190613292565b9050611f0c826000015486612ba4565b82556001820154611f1d9085612ba4565b60018301556020810151611f319085612ba4565b6020820181905260a0546040516359d8e7d160e11b81526001600160a01b039091169163b3b1cfa291611f68918d916004016133c2565b600060405180830381600087803b158015611f8257600080fd5b505af1158015611f96573d6000803e3d6000fd5b505050506000611faa826000015186612dca565b60008b81526099602090815260408083206001600160a01b038d168452909152902054909150611fda9087612b69565b60008b81526099602090815260408083206001600160a01b03808e16855290835281842094909455928a168252609b905220546120179082612b69565b6001600160a01b0388166000908152609b6020526040902055609d5461203d9082612b69565b609d55505060016065555050505050505050565b609a6020526000908152604090205481565b600260655414156120865760405162461bcd60e51b81526004016103b190613833565b6002606555612093611028565b156120b05760405162461bcd60e51b81526004016103b190613532565b60a15460408051632e718ab760e01b815290516001600160a01b039092169182916391d14854918391632e718ab7916004808301926020929190829003018186803b1580156120fe57600080fd5b505afa158015612112573d6000803e3d6000fd5b505050506040513d601f19601f82011682018060405250810190612136919061311c565b336040518363ffffffff1660e01b8152600401612154929190613355565b60206040518083038186803b15801561216c57600080fd5b505afa158015612180573d6000803e3d6000fd5b505050506040513d601f19601f820116820180604052508101906121a491906130fc565b6121c05760405162461bcd60e51b81526004016103b1906134cf565b6121ca8433612bfb565b6121e65760405162461bcd60e51b81526004016103b190613644565b60008581526099602090815260408083206001600160a01b03881684529091529020546122139083612e08565b60008681526099602090815260408083206001600160a01b03898116855292528083209390935585168152205461224a9083612df8565b60008681526099602090815260408083206001600160a01b038816845290915290819020919091555133907f545a77591462bbdd247f8de3aabb8666317d6937475594c9df7e48f32b44e20a906122a890889088908890889061336c565b60405180910390a250506001606555505050565b60a1546001600160a01b031681565b600260655414156122ee5760405162461bcd60e51b81526004016103b190613833565b60026065556122fb611028565b156123185760405162461bcd60e51b81526004016103b190613532565b60a15460408051630154417360e11b815290516001600160a01b039092169182916391d148549183916302a882e6916004808301926020929190829003018186803b15801561236657600080fd5b505afa15801561237a573d6000803e3d6000fd5b505050506040513d601f19601f8201168201806040525081019061239e919061311c565b336040518363ffffffff1660e01b81526004016123bc929190613355565b60206040518083038186803b1580156123d457600080fd5b505afa1580156123e8573d6000803e3d6000fd5b505050506040513d601f19601f8201168201806040525081019061240c91906130fc565b6124285760405162461bcd60e51b81526004016103b1906137e0565b60008481526099602090815260408083206001600160a01b03871684529091529020546124559083612ba4565b60008581526099602090815260408083206001600160a01b038816845290915290819020919091555133907ff61a861415a232c4e7fc9cc6939614aa780fd55601ac4bdf95db158bd642e274906124af9086908690613328565b60405180910390a2505060016065555050565b60a1546040805163e58378bb60e01b815290516001600160a01b039092169182916391d1485491839163e58378bb916004808301926020929190829003018186803b15801561251057600080fd5b505afa158015612524573d6000803e3d6000fd5b505050506040513d601f19601f82011682018060405250810190612548919061311c565b336040518363ffffffff1660e01b8152600401612566929190613355565b60206040518083038186803b15801561257e57600080fd5b505afa158015612592573d6000803e3d6000fd5b505050506040513d601f19601f820116820180604052508101906125b691906130fc565b806126aa5750806001600160a01b03166391d14854826001600160a01b031663d7a47a696040518163ffffffff1660e01b815260040160206040518083038186803b15801561260457600080fd5b505afa158015612618573d6000803e3d6000fd5b505050506040513d601f19601f8201168201806040525081019061263c919061311c565b336040518363ffffffff1660e01b815260040161265a929190613355565b60206040518083038186803b15801561267257600080fd5b505afa158015612686573d6000803e3d6000fd5b505050506040513d601f19601f820116820180604052508101906126aa91906130fc565b6126c65760405162461bcd60e51b81526004016103b1906138b1565b609f54156126e65760405162461bcd60e51b81526004016103b19061376b565b6001609f556040517f1868a6ced217213f36be87ba9aee25cde5381b42e85c8f88e73b18772c0bd07390600090a150565b60a0546001600160a01b031681565b609760209081526000928352604080842090915290825290205481565b609b6020526000908152604090205481565b60a1546040805163e58378bb60e01b815290516001600160a01b039092169182916391d1485491839163e58378bb916004808301926020929190829003018186803b1580156127a357600080fd5b505afa1580156127b7573d6000803e3d6000fd5b505050506040513d601f19601f820116820180604052508101906127db919061311c565b336040518363ffffffff1660e01b81526004016127f9929190613355565b60206040518083038186803b15801561281157600080fd5b505afa158015612825573d6000803e3d6000fd5b505050506040513d601f19601f8201168201806040525081019061284991906130fc565b6128655760405162461bcd60e51b81526004016103b1906133d0565b816001600160a01b03166391d14854836001600160a01b031663e58378bb6040518163ffffffff1660e01b815260040160206040518083038186803b1580156128ad57600080fd5b505afa1580156128c1573d6000803e3d6000fd5b505050506040513d601f19601f820116820180604052508101906128e5919061311c565b336040518363ffffffff1660e01b8152600401612903929190613355565b60206040518083038186803b15801561291b57600080fd5b505afa15801561292f573d6000803e3d6000fd5b505050506040513d601f19601f8201168201806040525081019061295391906130fc565b5060a180546001600160a01b0319166001600160a01b03841617905560405133907f104d594bb3ca960b0fc4fe7e747247b97b766449771c92e9a57395b370fd9a62906118c2908590613314565b60a1546040805163e58378bb60e01b815290516001600160a01b039092169182916391d1485491839163e58378bb916004808301926020929190829003018186803b1580156129ef57600080fd5b505afa158015612a03573d6000803e3d6000fd5b505050506040513d601f19601f82011682018060405250810190612a27919061311c565b336040518363ffffffff1660e01b8152600401612a45929190613355565b60206040518083038186803b158015612a5d57600080fd5b505afa158015612a71573d6000803e3d6000fd5b505050506040513d601f19601f82011682018060405250810190612a9591906130fc565b612ab15760405162461bcd60e51b81526004016103b1906133d0565b60a080546001600160a01b0319166001600160a01b03841617905560405133907f0223eb47811767b900acc3004a53292afccdf30a6334f8d93984f7c7916f6ecb906118c2908590613314565b609960209081526000928352604080842090915290825290205481565b612b23611028565b15612b405760405162461bcd60e51b81526004016103b190613532565b3360009081526097602090815260408083206001600160a01b0394909416835292905290812055565b808203600082131580612b7c5750828111155b612b8557600080fd5b600082121580612b955750828110155b612b9e57600080fd5b92915050565b818101600082121580612bb75750828111155b612bc057600080fd5b600082131580612b95575082811015612b9e57600080fd5b6000811580612b9557505080820282828281612bf057fe5b0414612b9e57600080fd5b6001600160a01b038281166000818152609760209081526040808320948616808452949091528120549092612c34921490600114612c3f565b9392505050565b1690565b1790565b612c4b611028565b612c675760405162461bcd60e51b81526004016103b1906133f4565b6033805460ff191690557f5db9ee0a495bf2e6ff9c91a7834c1ba4fdd244a5e8aa4e537bd38aeae4b073aa612c9a612e6f565b604051612ca79190613314565b60405180910390a1565b6000612cbc30612e73565b15905090565b600054610100900460ff1680612cdb5750612cdb612cb1565b80612ce9575060005460ff16155b612d055760405162461bcd60e51b81526004016103b1906135b4565b600054610100900460ff16158015612d30576000805460ff1961ff0019909116610100171660011790555b612d38612e79565b612d40612efa565b8015610962576000805461ff001916905550565b600054610100900460ff1680612d6d5750612d6d612cb1565b80612d7b575060005460ff16155b612d975760405162461bcd60e51b81526004016103b1906135b4565b600054610100900460ff16158015612dc2576000805460ff1961ff0019909116610100171660011790555b612d40612f86565b8181026000831215612ddb57600080fd5b811580612b95575082828281612ded57fe5b0514612b9e57600080fd5b80820182811015612b9e57600080fd5b80820382811115612b9e57600080fd5b612e20611028565b15612e3d5760405162461bcd60e51b81526004016103b190613532565b6033805460ff191660011790557f62e78cea01bee320cd4e420270b5ea74000d11b0c9f74754ebdbfc544b05a258612c9a5b3390565b3b151590565b600054610100900460ff1680612e925750612e92612cb1565b80612ea0575060005460ff16155b612ebc5760405162461bcd60e51b81526004016103b1906135b4565b600054610100900460ff16158015612d40576000805460ff1961ff0019909116610100171660011790558015610962576000805461ff001916905550565b600054610100900460ff1680612f135750612f13612cb1565b80612f21575060005460ff16155b612f3d5760405162461bcd60e51b81526004016103b1906135b4565b600054610100900460ff16158015612f68576000805460ff1961ff0019909116610100171660011790555b6033805460ff191690558015610962576000805461ff001916905550565b600054610100900460ff1680612f9f5750612f9f612cb1565b80612fad575060005460ff16155b612fc95760405162461bcd60e51b81526004016103b1906135b4565b600054610100900460ff16158015612ff4576000805460ff1961ff0019909116610100171660011790555b60016065558015610962576000805461ff001916905550565b6040518060a0016040528060008152602001600081526020016000815260200160008152602001600081525090565b604051806040016040528060008152602001600081525090565b80356001600160a01b0381168114612b9e57600080fd5b60006020828403121561307e578081fd5b612c348383613056565b6000806040838503121561309a578081fd5b6130a48484613056565b91506130b38460208501613056565b90509250929050565b6000806000606084860312156130d0578081fd5b83356130db81613943565b925060208401356130eb81613943565b929592945050506040919091013590565b60006020828403121561310d578081fd5b81518015158114612c34578182fd5b60006020828403121561312d578081fd5b5051919050565b60008060408385031215613146578182fd5b82359150602083013561315881613943565b809150509250929050565b60008060008060008060c0878903121561317b578182fd5b86359550602087013561318d81613943565b9450604087013561319d81613943565b935060608701356131ad81613943565b9598949750929560808101359460a0909101359350915050565b600080600080600060a086880312156131de578081fd5b8535945060208601356131f081613943565b9350604086013561320081613943565b94979396509394606081013594506080013592915050565b6000806000806080858703121561322d578384fd5b8435935061323e8660208701613056565b925061324d8660408701613056565b9396929550929360600135925050565b600080600060608486031215613271578283fd5b833592506132828560208601613056565b9150604084013590509250925092565b600060a082840312156132a3578081fd5b60405160a081016001600160401b03811182821017156132c1578283fd5b806040525082518152602083015160208201526040830151604082015260608301516060820152608083015160808201528091505092915050565b60006020828403121561330d578081fd5b5035919050565b6001600160a01b0391909116815260200190565b6001600160a01b03929092168252602082015260400190565b901515815260200190565b90815260200190565b9182526001600160a01b0316602082015260400190565b9384526001600160a01b03928316602085015291166040830152606082015260800190565b9586526001600160a01b0394909416602086015260408501929092526060840152608083015260a082015260c00190565b918252602082015260400190565b6020808252600a9082015269216f776e6572526f6c6560b01b604082015260600190565b60208082526014908201527314185d5cd8589b194e881b9bdd081c185d5cd95960621b604082015260600190565b60208082526027908201527f426f6f6b4b65657065722f6e6f742d616c6c6f7765642d636f6c6c61746572616040820152663616b7bbb732b960c91b606082015260800190565b602080825260179082015276426f6f6b4b65657065722f6e6f742d736166652d73726360481b604082015260600190565b6020808252601b908201527a109bdbdad2d9595c195c8bd8d95a5b1a5b99cb595e18d959591959602a1b604082015260600190565b60208082526016908201527521636f6c6c61746572616c4d616e61676572526f6c6560501b604082015260600190565b602080825260199082015278109bdbdad2d9595c195c8bd919589d0b599b1bdbdc8b591cdd603a1b604082015260600190565b60208082526010908201526f14185d5cd8589b194e881c185d5cd95960821b604082015260600190565b602080825260179082015276109bdbdad2d9595c195c8bdb9bdd0b5cd859994b591cdd604a1b604082015260600190565b6020808252600d908201526c216d696e7461626c65526f6c6560981b604082015260600190565b6020808252602e908201527f496e697469616c697a61626c653a20636f6e747261637420697320616c72656160408201526d191e481a5b9a5d1a585b1a5e995960921b606082015260800190565b60208082526022908201527f426f6f6b4b65657065722f636f6c6c61746572616c506f6f6c2d6e6f742d696e6040820152611a5d60f21b606082015260800190565b602080825260169082015275109bdbdad2d9595c195c8bdb9bdd0b585b1b1bddd95960521b604082015260600190565b602080825260199082015278426f6f6b4b65657065722f646562742d666c6f6f722d73726360381b604082015260600190565b60208082526017908201527621286f776e6572526f6c65206f7220676f76526f6c652960481b604082015260600190565b6020808252601a90820152792173746162696c697479466565436f6c6c6563746f72526f6c6560301b604082015260600190565b6020808252601590820152742137b7b5a5b2b2b832b917b232b13a16b33637b7b960591b604082015260600190565b602080825260169082015275216c69717569646174696f6e456e67696e65526f6c6560501b604082015260600190565b602080825260149082015273109bdbdad2d9595c195c8bdb9bdd0b58d859d95960621b604082015260600190565b60208082526027908201527f426f6f6b4b65657065722f6e6f742d616c6c6f7765642d706f736974696f6e2d6040820152666164647265737360c81b606082015260800190565b6020808252600c908201526b2161646170746572526f6c6560a01b604082015260600190565b602080825260139082015272426f6f6b4b65657065722f6e6f742d6c69766560681b604082015260600190565b6020808252601f908201527f5265656e7472616e637947756172643a207265656e7472616e742063616c6c00604082015260600190565b60208082526027908201527f426f6f6b4b65657065722f6e6f742d616c6c6f7765642d737461626c65636f696040820152663716b7bbb732b960c91b606082015260800190565b6020808252601f908201527f21286f776e6572526f6c65206f722073686f7753746f70706572526f6c652900604082015260600190565b602080825260139082015272426f6f6b4b65657065722f6e6f742d7361666560681b604082015260600190565b60208082526014908201527321706f736974696f6e4d616e61676572526f6c6560601b604082015260600190565b6001600160a01b038116811461096257600080fdfea2646970667358221220b200472747f7ef793e0396a078676f74f614e5a1fab52fdeedc34faff6291aee64736f6c634300060c0033",
  "linkReferences": {},
  "deployedLinkReferences": {}
}