{
  "_format": "hh-sol-artifact-1",
  "contractName": "MockFlashLendingCalleeMintable",
  "sourceName": "contracts/6.12/mocks/MockFlashLendingCalleeMintable.sol",
  "abi": [
    {
      "anonymous": false,
      "inputs": [
        {
          "indexed": false,
          "internalType": "address",
          "name": "account",
          "type": "address"
        }
      ],
      "name": "Paused",
      "type": "event"
    },
    {
      "anonymous": false,
      "inputs": [
        {
          "indexed": false,
          "internalType": "address",
          "name": "account",
          "type": "address"
        }
      ],
      "name": "Unpaused",
      "type": "event"
    },
    {
      "inputs": [],
      "name": "bookKeeper",
      "outputs": [
        {
          "internalType": "contract IBookKeeper",
          "name": "",
          "type": "address"
        }
      ],
      "stateMutability": "view",
      "type": "function"
    },
    {
      "inputs": [
        {
          "internalType": "address",
          "name": "caller",
          "type": "address"
        },
        {
          "internalType": "uint256",
          "name": "debtValueToRepay",
          "type": "uint256"
        },
        {
          "internalType": "uint256",
          "name": "collateralAmountToLiquidate",
          "type": "uint256"
        },
        {
          "internalType": "bytes",
          "name": "data",
          "type": "bytes"
        }
      ],
      "name": "flashLendingCall",
      "outputs": [],
      "stateMutability": "nonpayable",
      "type": "function"
    },
    {
      "inputs": [
        {
          "internalType": "address",
          "name": "_bookKeeper",
          "type": "address"
        }
      ],
      "name": "initialize",
      "outputs": [],
      "stateMutability": "nonpayable",
      "type": "function"
    },
    {
      "inputs": [],
      "name": "paused",
      "outputs": [
        {
          "internalType": "bool",
          "name": "",
          "type": "bool"
        }
      ],
      "stateMutability": "view",
      "type": "function"
    }
  ],
  "bytecode": "0x608060405234801561001057600080fd5b506105b9806100206000396000f3fe608060405234801561001057600080fd5b506004361061004c5760003560e01c80635c975abb14610051578063af7bd1421461006d578063c4d66de8146100f9578063e3b3932a1461011f575b600080fd5b610059610143565b604080519115158252519081900360200190f35b6100f76004803603608081101561008357600080fd5b6001600160a01b038235169160208101359160408201359190810190608081016060820135600160201b8111156100b957600080fd5b8201836020820111156100cb57600080fd5b803590602001918460018302840111600160201b831117156100ec57600080fd5b50909250905061014c565b005b6100f76004803603602081101561010f57600080fd5b50356001600160a01b031661026c565b610127610332565b604080516001600160a01b039092168252519081900360200190f35b60335460ff1690565b60655460408051636a32115160e01b8152306004820181905260248201526044810187905290516001600160a01b0390921691636a3211519160648082019260009290919082900301818387803b1580156101a657600080fd5b505af11580156101ba573d6000803e3d6000fd5b505082159150610265905057600080838360408110156101d957600080fd5b506065546040805163b5d9932960e01b81526020840135600482018190523060248301526001600160a01b039435851660448301819052606483018b905292519296509450919092169163b5d993299160848082019260009290919082900301818387803b15801561024a57600080fd5b505af115801561025e573d6000803e3d6000fd5b5050505050505b5050505050565b600054610100900460ff16806102855750610285610341565b80610293575060005460ff16155b6102ce5760405162461bcd60e51b815260040180806020018281038252602e815260200180610556602e913960400191505060405180910390fd5b600054610100900460ff161580156102f9576000805460ff1961ff0019909116610100171660011790555b610301610352565b606580546001600160a01b0319166001600160a01b038416179055801561032e576000805461ff00191690555b5050565b6065546001600160a01b031681565b600061034c30610404565b15905090565b600054610100900460ff168061036b575061036b610341565b80610379575060005460ff16155b6103b45760405162461bcd60e51b815260040180806020018281038252602e815260200180610556602e913960400191505060405180910390fd5b600054610100900460ff161580156103df576000805460ff1961ff0019909116610100171660011790555b6103e761040a565b6103ef6104aa565b8015610401576000805461ff00191690555b50565b3b151590565b600054610100900460ff16806104235750610423610341565b80610431575060005460ff16155b61046c5760405162461bcd60e51b815260040180806020018281038252602e815260200180610556602e913960400191505060405180910390fd5b600054610100900460ff161580156103ef576000805460ff1961ff0019909116610100171660011790558015610401576000805461ff001916905550565b600054610100900460ff16806104c357506104c3610341565b806104d1575060005460ff16155b61050c5760405162461bcd60e51b815260040180806020018281038252602e815260200180610556602e913960400191505060405180910390fd5b600054610100900460ff16158015610537576000805460ff1961ff0019909116610100171660011790555b6033805460ff191690558015610401576000805461ff00191690555056fe496e697469616c697a61626c653a20636f6e747261637420697320616c726561647920696e697469616c697a6564a264697066735822122036b916b067243c2810d8e306f4740882972dc3188c0a238454359b63672ca3ea64736f6c634300060c0033",
  "linkReferences": {},
  "deployedLinkReferences": {}
}