{
  "_format": "hh-sol-artifact-1",
  "contractName": "StrictAlpacaOraclePriceFeed",
  "sourceName": "contracts/6.12/price-feeders/StrictAlpacaOraclePriceFeed.sol",
  "abi": [
    {
      "anonymous": false,
      "inputs": [
        {
          "indexed": true,
          "internalType": "address",
          "name": "caller",
          "type": "address"
        },
        {
          "indexed": false,
          "internalType": "uint256",
          "name": "maxPriceDiff",
          "type": "uint256"
        }
      ],
      "name": "LogSetMaxPriceDiff",
      "type": "event"
    },
    {
      "anonymous": false,
      "inputs": [
        {
          "indexed": true,
          "internalType": "address",
          "name": "caller",
          "type": "address"
        },
        {
          "indexed": false,
          "internalType": "uint256",
          "name": "second",
          "type": "uint256"
        }
      ],
      "name": "LogSetPriceLife",
      "type": "event"
    },
    {
      "anonymous": false,
      "inputs": [
        {
          "indexed": true,
          "internalType": "address",
          "name": "caller",
          "type": "address"
        },
        {
          "indexed": false,
          "internalType": "address",
          "name": "newAlpacaOracle",
          "type": "address"
        },
        {
          "indexed": false,
          "internalType": "address",
          "name": "primaryToken0",
          "type": "address"
        },
        {
          "indexed": false,
          "internalType": "address",
          "name": "primaryToken1",
          "type": "address"
        }
      ],
      "name": "LogSetPrimary",
      "type": "event"
    },
    {
      "anonymous": false,
      "inputs": [
        {
          "indexed": true,
          "internalType": "address",
          "name": "caller",
          "type": "address"
        },
        {
          "indexed": false,
          "internalType": "address",
          "name": "newAlpacaOracle",
          "type": "address"
        },
        {
          "indexed": false,
          "internalType": "address",
          "name": "secondaryToken0",
          "type": "address"
        },
        {
          "indexed": false,
          "internalType": "address",
          "name": "secondaryToken1",
          "type": "address"
        }
      ],
      "name": "LogSetSecondary",
      "type": "event"
    },
    {
      "anonymous": false,
      "inputs": [
        {
          "indexed": false,
          "internalType": "address",
          "name": "account",
          "type": "address"
        }
      ],
      "name": "Paused",
      "type": "event"
    },
    {
      "anonymous": false,
      "inputs": [
        {
          "indexed": true,
          "internalType": "bytes32",
          "name": "role",
          "type": "bytes32"
        },
        {
          "indexed": true,
          "internalType": "bytes32",
          "name": "previousAdminRole",
          "type": "bytes32"
        },
        {
          "indexed": true,
          "internalType": "bytes32",
          "name": "newAdminRole",
          "type": "bytes32"
        }
      ],
      "name": "RoleAdminChanged",
      "type": "event"
    },
    {
      "anonymous": false,
      "inputs": [
        {
          "indexed": true,
          "internalType": "bytes32",
          "name": "role",
          "type": "bytes32"
        },
        {
          "indexed": true,
          "internalType": "address",
          "name": "account",
          "type": "address"
        },
        {
          "indexed": true,
          "internalType": "address",
          "name": "sender",
          "type": "address"
        }
      ],
      "name": "RoleGranted",
      "type": "event"
    },
    {
      "anonymous": false,
      "inputs": [
        {
          "indexed": true,
          "internalType": "bytes32",
          "name": "role",
          "type": "bytes32"
        },
        {
          "indexed": true,
          "internalType": "address",
          "name": "account",
          "type": "address"
        },
        {
          "indexed": true,
          "internalType": "address",
          "name": "sender",
          "type": "address"
        }
      ],
      "name": "RoleRevoked",
      "type": "event"
    },
    {
      "anonymous": false,
      "inputs": [
        {
          "indexed": false,
          "internalType": "address",
          "name": "account",
          "type": "address"
        }
      ],
      "name": "Unpaused",
      "type": "event"
    },
    {
      "inputs": [],
      "name": "DEFAULT_ADMIN_ROLE",
      "outputs": [
        {
          "internalType": "bytes32",
          "name": "",
          "type": "bytes32"
        }
      ],
      "stateMutability": "view",
      "type": "function"
    },
    {
      "inputs": [],
      "name": "accessControlConfig",
      "outputs": [
        {
          "internalType": "contract IAccessControlConfig",
          "name": "",
          "type": "address"
        }
      ],
      "stateMutability": "view",
      "type": "function"
    },
    {
      "inputs": [
        {
          "internalType": "bytes32",
          "name": "role",
          "type": "bytes32"
        }
      ],
      "name": "getRoleAdmin",
      "outputs": [
        {
          "internalType": "bytes32",
          "name": "",
          "type": "bytes32"
        }
      ],
      "stateMutability": "view",
      "type": "function"
    },
    {
      "inputs": [
        {
          "internalType": "bytes32",
          "name": "role",
          "type": "bytes32"
        },
        {
          "internalType": "uint256",
          "name": "index",
          "type": "uint256"
        }
      ],
      "name": "getRoleMember",
      "outputs": [
        {
          "internalType": "address",
          "name": "",
          "type": "address"
        }
      ],
      "stateMutability": "view",
      "type": "function"
    },
    {
      "inputs": [
        {
          "internalType": "bytes32",
          "name": "role",
          "type": "bytes32"
        }
      ],
      "name": "getRoleMemberCount",
      "outputs": [
        {
          "internalType": "uint256",
          "name": "",
          "type": "uint256"
        }
      ],
      "stateMutability": "view",
      "type": "function"
    },
    {
      "inputs": [
        {
          "internalType": "bytes32",
          "name": "role",
          "type": "bytes32"
        },
        {
          "internalType": "address",
          "name": "account",
          "type": "address"
        }
      ],
      "name": "grantRole",
      "outputs": [],
      "stateMutability": "nonpayable",
      "type": "function"
    },
    {
      "inputs": [
        {
          "internalType": "bytes32",
          "name": "role",
          "type": "bytes32"
        },
        {
          "internalType": "address",
          "name": "account",
          "type": "address"
        }
      ],
      "name": "hasRole",
      "outputs": [
        {
          "internalType": "bool",
          "name": "",
          "type": "bool"
        }
      ],
      "stateMutability": "view",
      "type": "function"
    },
    {
      "inputs": [
        {
          "internalType": "address",
          "name": "_primaryAlpacaOracle",
          "type": "address"
        },
        {
          "internalType": "address",
          "name": "_primaryToken0",
          "type": "address"
        },
        {
          "internalType": "address",
          "name": "_primaryToken1",
          "type": "address"
        },
        {
          "internalType": "address",
          "name": "_secondaryAlpacaOracle",
          "type": "address"
        },
        {
          "internalType": "address",
          "name": "_secondaryToken0",
          "type": "address"
        },
        {
          "internalType": "address",
          "name": "_secondaryToken1",
          "type": "address"
        },
        {
          "internalType": "address",
          "name": "_accessControlConfig",
          "type": "address"
        }
      ],
      "name": "initialize",
      "outputs": [],
      "stateMutability": "nonpayable",
      "type": "function"
    },
    {
      "inputs": [],
      "name": "maxPriceDiff",
      "outputs": [
        {
          "internalType": "uint256",
          "name": "",
          "type": "uint256"
        }
      ],
      "stateMutability": "view",
      "type": "function"
    },
    {
      "inputs": [],
      "name": "pause",
      "outputs": [],
      "stateMutability": "nonpayable",
      "type": "function"
    },
    {
      "inputs": [],
      "name": "paused",
      "outputs": [
        {
          "internalType": "bool",
          "name": "",
          "type": "bool"
        }
      ],
      "stateMutability": "view",
      "type": "function"
    },
    {
      "inputs": [],
      "name": "peekPrice",
      "outputs": [
        {
          "internalType": "bytes32",
          "name": "",
          "type": "bytes32"
        },
        {
          "internalType": "bool",
          "name": "",
          "type": "bool"
        }
      ],
      "stateMutability": "view",
      "type": "function"
    },
    {
      "inputs": [],
      "name": "priceLife",
      "outputs": [
        {
          "internalType": "uint256",
          "name": "",
          "type": "uint256"
        }
      ],
      "stateMutability": "view",
      "type": "function"
    },
    {
      "inputs": [],
      "name": "primary",
      "outputs": [
        {
          "internalType": "contract IAlpacaOracle",
          "name": "alpacaOracle",
          "type": "address"
        },
        {
          "internalType": "address",
          "name": "token0",
          "type": "address"
        },
        {
          "internalType": "address",
          "name": "token1",
          "type": "address"
        }
      ],
      "stateMutability": "view",
      "type": "function"
    },
    {
      "inputs": [],
      "name": "readPrice",
      "outputs": [
        {
          "internalType": "bytes32",
          "name": "",
          "type": "bytes32"
        }
      ],
      "stateMutability": "view",
      "type": "function"
    },
    {
      "inputs": [
        {
          "internalType": "bytes32",
          "name": "role",
          "type": "bytes32"
        },
        {
          "internalType": "address",
          "name": "account",
          "type": "address"
        }
      ],
      "name": "renounceRole",
      "outputs": [],
      "stateMutability": "nonpayable",
      "type": "function"
    },
    {
      "inputs": [
        {
          "internalType": "bytes32",
          "name": "role",
          "type": "bytes32"
        },
        {
          "internalType": "address",
          "name": "account",
          "type": "address"
        }
      ],
      "name": "revokeRole",
      "outputs": [],
      "stateMutability": "nonpayable",
      "type": "function"
    },
    {
      "inputs": [],
      "name": "secondary",
      "outputs": [
        {
          "internalType": "contract IAlpacaOracle",
          "name": "alpacaOracle",
          "type": "address"
        },
        {
          "internalType": "address",
          "name": "token0",
          "type": "address"
        },
        {
          "internalType": "address",
          "name": "token1",
          "type": "address"
        }
      ],
      "stateMutability": "view",
      "type": "function"
    },
    {
      "inputs": [
        {
          "internalType": "uint256",
          "name": "_maxPriceDiff",
          "type": "uint256"
        }
      ],
      "name": "setMaxPriceDiff",
      "outputs": [],
      "stateMutability": "nonpayable",
      "type": "function"
    },
    {
      "inputs": [
        {
          "internalType": "uint256",
          "name": "_second",
          "type": "uint256"
        }
      ],
      "name": "setPriceLife",
      "outputs": [],
      "stateMutability": "nonpayable",
      "type": "function"
    },
    {
      "inputs": [
        {
          "internalType": "address",
          "name": "_primaryAlpacaOracle",
          "type": "address"
        },
        {
          "internalType": "address",
          "name": "_primaryToken0",
          "type": "address"
        },
        {
          "internalType": "address",
          "name": "_primaryToken1",
          "type": "address"
        }
      ],
      "name": "setPrimary",
      "outputs": [],
      "stateMutability": "nonpayable",
      "type": "function"
    },
    {
      "inputs": [
        {
          "internalType": "address",
          "name": "_secondaryAlpacaOracle",
          "type": "address"
        },
        {
          "internalType": "address",
          "name": "_secondaryToken0",
          "type": "address"
        },
        {
          "internalType": "address",
          "name": "_secondaryToken1",
          "type": "address"
        }
      ],
      "name": "setSecondary",
      "outputs": [],
      "stateMutability": "nonpayable",
      "type": "function"
    },
    {
      "inputs": [],
      "name": "unpause",
      "outputs": [],
      "stateMutability": "nonpayable",
      "type": "function"
    }
  ],
  "bytecode": "0x608060405234801561001057600080fd5b50611ec4806100206000396000f3fe608060405234801561001057600080fd5b506004361061011d5760003560e01c806305c552d81461012257806313b17ab01461013c578063140d272014610176578063248a9ca3146101975780632f2ff15d146101b457806335876476146101e057806336568abe146102385780633f4ba83a146102645780635af639c31461026c5780635c975abb146102745780637e91400f146102905780638456cb59146102985780639010d07c146102a057806391d14854146102df5780639d3c8cc41461030b578063a217fddf1461033e578063c6dbdf6114610346578063c8cc243f1461034e578063ca15c87314610356578063d25a5d5c14610373578063d547741f146103ab578063ef36ee47146103d7578063fea4c541146103f4575b600080fd5b61012a610411565b60408051918252519081900360200190f35b6101746004803603606081101561015257600080fd5b506001600160a01b038135811691602081013582169160409091013516610417565b005b61017e610644565b6040805192835290151560208301528051918290030190f35b61012a600480360360208110156101ad57600080fd5b503561078d565b610174600480360360408110156101ca57600080fd5b50803590602001356001600160a01b03166107a2565b610174600480360360e08110156101f657600080fd5b506001600160a01b038135811691602081013582169160408201358116916060810135821691608082013581169160a081013582169160c0909101351661080e565b6101746004803603604081101561024e57600080fd5b50803590602001356001600160a01b0316610a4a565b610174610aab565b61012a610cd7565b61027c610cdd565b604080519115158252519081900360200190f35b61012a610ce6565b610174610d72565b6102c3600480360360408110156102b657600080fd5b5080359060200135610f9c565b604080516001600160a01b039092168252519081900360200190f35b61027c600480360360408110156102f557600080fd5b50803590602001356001600160a01b0316610fbd565b610313610fd5565b604080516001600160a01b039485168152928416602084015292168183015290519081900360600190f35b61012a610ff2565b610313610ff7565b6102c3611014565b61012a6004803603602081101561036c57600080fd5b5035611023565b6101746004803603606081101561038957600080fd5b506001600160a01b03813581169160208101358216916040909101351661103a565b610174600480360360408110156103c157600080fd5b50803590602001356001600160a01b0316611267565b610174600480360360208110156103ed57600080fd5b50356112c0565b6101746004803603602081101561040a57600080fd5b5035611474565b609e5481565b609f546040805163e58378bb60e01b815290516001600160a01b03909216916391d1485491839163e58378bb91600480820192602092909190829003018186803b15801561046457600080fd5b505afa158015610478573d6000803e3d6000fd5b505050506040513d602081101561048e57600080fd5b5051604080516001600160e01b031960e085901b1681526004810192909252336024830152516044808301926020929190829003018186803b1580156104d357600080fd5b505afa1580156104e7573d6000803e3d6000fd5b505050506040513d60208110156104fd57600080fd5b505161053d576040805162461bcd60e51b815260206004820152600a602482015269216f776e6572526f6c6560b01b604482015290519081900360640190fd5b609a80546001600160a01b038086166001600160a01b03199283161792839055609b80548683169084161790819055609c80548684169416939093179283905560408051635620c32d60e11b8152918316600483015292821660248201528251939091169263ac41865a92604480840193919291829003018186803b1580156105c557600080fd5b505afa1580156105d9573d6000803e3d6000fd5b505050506040513d60408110156105ef57600080fd5b5050604080516001600160a01b0385811682528481166020830152831681830152905133917fb35ff075a769c20f3214ee392de77b56a9f29bab0a7bc3965e1100c817ae8bb5919081900360600190a2505050565b60975460985460995460408051635620c32d60e11b81526001600160a01b03938416600482015291831660248301528051600094859485948594919092169263ac41865a926044808201939291829003018186803b1580156106a557600080fd5b505afa1580156106b9573d6000803e3d6000fd5b505050506040513d60408110156106cf57600080fd5b508051602090910151609a54609b54609c5460408051635620c32d60e11b81526001600160a01b039384166004820152918316602483015280519597509395506000948594929093169263ac41865a92604480840193919291829003018186803b15801561073c57600080fd5b505afa158015610750573d6000803e3d6000fd5b505050506040513d604081101561076657600080fd5b508051602090910151909250905083610781818486856115d8565b95509550505050509091565b60009081526065602052604090206002015490565b6000828152606560205260409020600201546107c5906107c061160f565b610fbd565b6108005760405162461bcd60e51b815260040180806020018281038252602f815260200180611d88602f913960400191505060405180910390fd5b61080a8282611613565b5050565b600054610100900460ff1680610827575061082761167c565b80610835575060005460ff16155b6108705760405162461bcd60e51b815260040180806020018281038252602e815260200180611de7602e913960400191505060405180910390fd5b600054610100900460ff1615801561089b576000805460ff1961ff0019909116610100171660011790555b6108a361168d565b6108ab61173f565b609780546001600160a01b03199081166001600160a01b038b811691909117928390556098805483168b831617908190556099805484168b84161790819055609a805485168b8516179055609b805485168a8516179055609c80549094168884161790935560408051635620c32d60e11b8152918316600483015292821660248201528251939091169263ac41865a92604480840193919291829003018186803b15801561095857600080fd5b505afa15801561096c573d6000803e3d6000fd5b505050506040513d604081101561098257600080fd5b5050609a54609b54609c5460408051635620c32d60e11b81526001600160a01b03938416600482015291831660248301528051929093169263ac41865a92604480840193829003018186803b1580156109da57600080fd5b505afa1580156109ee573d6000803e3d6000fd5b505050506040513d6040811015610a0457600080fd5b505062015180609d55612904609e55609f80546001600160a01b0319166001600160a01b0384161790558015610a40576000805461ff00191690555b5050505050505050565b610a5261160f565b6001600160a01b0316816001600160a01b031614610aa15760405162461bcd60e51b815260040180806020018281038252602f815260200180611e60602f913960400191505060405180910390fd5b61080a82826117dc565b609f5460408051635a9b40c560e11b815290516001600160a01b03909216916391d1485491839163b536818a91600480820192602092909190829003018186803b158015610af857600080fd5b505afa158015610b0c573d6000803e3d6000fd5b505050506040513d6020811015610b2257600080fd5b5051604080516001600160e01b031960e085901b1681526004810192909252336024830152516044808301926020929190829003018186803b158015610b6757600080fd5b505afa158015610b7b573d6000803e3d6000fd5b505050506040513d6020811015610b9157600080fd5b505180610c825750609f546040805163e58378bb60e01b815290516001600160a01b03909216916391d1485491839163e58378bb91600480820192602092909190829003018186803b158015610be657600080fd5b505afa158015610bfa573d6000803e3d6000fd5b505050506040513d6020811015610c1057600080fd5b5051604080516001600160e01b031960e085901b1681526004810192909252336024830152516044808301926020929190829003018186803b158015610c5557600080fd5b505afa158015610c69573d6000803e3d6000fd5b505050506040513d6020811015610c7f57600080fd5b50515b610ccd576040805162461bcd60e51b815260206004820152601760248201527621286f776e6572526f6c65206f7220676f76526f6c652960481b604482015290519081900360640190fd5b610cd5611845565b565b609d5481565b60335460ff1690565b60975460985460995460408051635620c32d60e11b81526001600160a01b039384166004820152918316602483015280516000948594169263ac41865a926044808301939192829003018186803b158015610d4057600080fd5b505afa158015610d54573d6000803e3d6000fd5b505050506040513d6040811015610d6a57600080fd5b505191505090565b609f5460408051635a9b40c560e11b815290516001600160a01b03909216916391d1485491839163b536818a91600480820192602092909190829003018186803b158015610dbf57600080fd5b505afa158015610dd3573d6000803e3d6000fd5b505050506040513d6020811015610de957600080fd5b5051604080516001600160e01b031960e085901b1681526004810192909252336024830152516044808301926020929190829003018186803b158015610e2e57600080fd5b505afa158015610e42573d6000803e3d6000fd5b505050506040513d6020811015610e5857600080fd5b505180610f495750609f546040805163e58378bb60e01b815290516001600160a01b03909216916391d1485491839163e58378bb91600480820192602092909190829003018186803b158015610ead57600080fd5b505afa158015610ec1573d6000803e3d6000fd5b505050506040513d6020811015610ed757600080fd5b5051604080516001600160e01b031960e085901b1681526004810192909252336024830152516044808301926020929190829003018186803b158015610f1c57600080fd5b505afa158015610f30573d6000803e3d6000fd5b505050506040513d6020811015610f4657600080fd5b50515b610f94576040805162461bcd60e51b815260206004820152601760248201527621286f776e6572526f6c65206f7220676f76526f6c652960481b604482015290519081900360640190fd5b610cd56118e5565b6000828152606560205260408120610fb49083611968565b90505b92915050565b6000828152606560205260408120610fb49083611974565b609a54609b54609c546001600160a01b0392831692918216911683565b600081565b6097546098546099546001600160a01b0392831692918216911683565b609f546001600160a01b031681565b6000818152606560205260408120610fb790611989565b609f546040805163e58378bb60e01b815290516001600160a01b03909216916391d1485491839163e58378bb91600480820192602092909190829003018186803b15801561108757600080fd5b505afa15801561109b573d6000803e3d6000fd5b505050506040513d60208110156110b157600080fd5b5051604080516001600160e01b031960e085901b1681526004810192909252336024830152516044808301926020929190829003018186803b1580156110f657600080fd5b505afa15801561110a573d6000803e3d6000fd5b505050506040513d602081101561112057600080fd5b5051611160576040805162461bcd60e51b815260206004820152600a602482015269216f776e6572526f6c6560b01b604482015290519081900360640190fd5b609780546001600160a01b038086166001600160a01b03199283161792839055609880548683169084161790819055609980548684169416939093179283905560408051635620c32d60e11b8152918316600483015292821660248201528251939091169263ac41865a92604480840193919291829003018186803b1580156111e857600080fd5b505afa1580156111fc573d6000803e3d6000fd5b505050506040513d604081101561121257600080fd5b5050604080516001600160a01b0385811682528481166020830152831681830152905133917ffe139b9e3b3a49c56a94c7c72c4806845f19a6d47a76c784ac52770fea865797919081900360600190a2505050565b600082815260656020526040902060020154611285906107c061160f565b610aa15760405162461bcd60e51b8152600401808060200182810382526030815260200180611db76030913960400191505060405180910390fd5b609f546040805163e58378bb60e01b815290516001600160a01b03909216916391d1485491839163e58378bb91600480820192602092909190829003018186803b15801561130d57600080fd5b505afa158015611321573d6000803e3d6000fd5b505050506040513d602081101561133757600080fd5b5051604080516001600160e01b031960e085901b1681526004810192909252336024830152516044808301926020929190829003018186803b15801561137c57600080fd5b505afa158015611390573d6000803e3d6000fd5b505050506040513d60208110156113a657600080fd5b50516113e6576040805162461bcd60e51b815260206004820152600a602482015269216f776e6572526f6c6560b01b604482015290519081900360640190fd5b610e1081101580156113fb5750620151808111155b6114365760405162461bcd60e51b815260040180806020018281038252602a815260200180611e15602a913960400191505060405180910390fd5b609d81905560408051828152905133917f472c5e14bb804bd7b201c5c27f2ea820980b37ef7611806e7b3f6db6758f32e0919081900360200190a250565b609f546040805163e58378bb60e01b815290516001600160a01b03909216916391d1485491839163e58378bb91600480820192602092909190829003018186803b1580156114c157600080fd5b505afa1580156114d5573d6000803e3d6000fd5b505050506040513d60208110156114eb57600080fd5b5051604080516001600160e01b031960e085901b1681526004810192909252336024830152516044808301926020929190829003018186803b15801561153057600080fd5b505afa158015611544573d6000803e3d6000fd5b505050506040513d602081101561155a57600080fd5b505161159a576040805162461bcd60e51b815260206004820152600a602482015269216f776e6572526f6c6560b01b604482015290519081900360640190fd5b609e81905560408051828152905133917f35cd4efb2c38347b81695c1e23f73668c2281ecac3def24759edb98bab45f1f8919081900360200190a250565b60006115e48383611994565b80156115f557506115f585856119b2565b80156116065750611604610cdd565b155b95945050505050565b3390565b600082815260656020526040902061162b9082611a01565b1561080a5761163861160f565b6001600160a01b0316816001600160a01b0316837f2f8788117e7eff1d82e926ec794901d17c78024a50270940304540a733656f0d60405160405180910390a45050565b600061168730611a16565b15905090565b600054610100900460ff16806116a657506116a661167c565b806116b4575060005460ff16155b6116ef5760405162461bcd60e51b815260040180806020018281038252602e815260200180611de7602e913960400191505060405180910390fd5b600054610100900460ff1615801561171a576000805460ff1961ff0019909116610100171660011790555b611722611a1c565b61172a611abc565b801561173c576000805461ff00191690555b50565b600054610100900460ff1680611758575061175861167c565b80611766575060005460ff16155b6117a15760405162461bcd60e51b815260040180806020018281038252602e815260200180611de7602e913960400191505060405180910390fd5b600054610100900460ff161580156117cc576000805460ff1961ff0019909116610100171660011790555b6117d4611a1c565b61172a611a1c565b60008281526065602052604090206117f49082611b67565b1561080a5761180161160f565b6001600160a01b0316816001600160a01b0316837ff6391f5c32d9c69d2a47ea670b442974b53935d1edc7fd64eb21e047a839171b60405160405180910390a45050565b61184d610cdd565b611895576040805162461bcd60e51b815260206004820152601460248201527314185d5cd8589b194e881b9bdd081c185d5cd95960621b604482015290519081900360640190fd5b6033805460ff191690557f5db9ee0a495bf2e6ff9c91a7834c1ba4fdd244a5e8aa4e537bd38aeae4b073aa6118c861160f565b604080516001600160a01b039092168252519081900360200190a1565b6118ed610cdd565b15611932576040805162461bcd60e51b815260206004820152601060248201526f14185d5cd8589b194e881c185d5cd95960821b604482015290519081900360640190fd5b6033805460ff191660011790557f62e78cea01bee320cd4e420270b5ea74000d11b0c9f74754ebdbfc544b05a2586118c861160f565b6000610fb48383611b7c565b6000610fb4836001600160a01b038416611be0565b6000610fb782611bf8565b6000609d5442038310158015610fb4575050609d5442031115919050565b60006119c9609e5483611bfc90919063ffffffff16565b6119d584612710611bfc565b11158015610fb457506119ea82612710611bfc565b609e546119f8908590611bfc565b10159392505050565b6000610fb4836001600160a01b038416611c55565b3b151590565b600054610100900460ff1680611a355750611a3561167c565b80611a43575060005460ff16155b611a7e5760405162461bcd60e51b815260040180806020018281038252602e815260200180611de7602e913960400191505060405180910390fd5b600054610100900460ff1615801561172a576000805460ff1961ff001990911661010017166001179055801561173c576000805461ff001916905550565b600054610100900460ff1680611ad55750611ad561167c565b80611ae3575060005460ff16155b611b1e5760405162461bcd60e51b815260040180806020018281038252602e815260200180611de7602e913960400191505060405180910390fd5b600054610100900460ff16158015611b49576000805460ff1961ff0019909116610100171660011790555b6033805460ff19169055801561173c576000805461ff001916905550565b6000610fb4836001600160a01b038416611c9f565b81546000908210611bbe5760405162461bcd60e51b8152600401808060200182810382526022815260200180611d666022913960400191505060405180910390fd5b826000018281548110611bcd57fe5b9060005260206000200154905092915050565b60009081526001919091016020526040902054151590565b5490565b600082611c0b57506000610fb7565b82820282848281611c1857fe5b0414610fb45760405162461bcd60e51b8152600401808060200182810382526021815260200180611e3f6021913960400191505060405180910390fd5b6000611c618383611be0565b611c9757508154600181810184556000848152602080822090930184905584548482528286019093526040902091909155610fb7565b506000610fb7565b60008181526001830160205260408120548015611d5b5783546000198083019190810190600090879083908110611cd257fe5b9060005260206000200154905080876000018481548110611cef57fe5b600091825260208083209091019290925582815260018981019092526040902090840190558654879080611d1f57fe5b60019003818190600052602060002001600090559055866001016000878152602001908152602001600020600090556001945050505050610fb7565b6000915050610fb756fe456e756d657261626c655365743a20696e646578206f7574206f6620626f756e6473416363657373436f6e74726f6c3a2073656e646572206d75737420626520616e2061646d696e20746f206772616e74416363657373436f6e74726f6c3a2073656e646572206d75737420626520616e2061646d696e20746f207265766f6b65496e697469616c697a61626c653a20636f6e747261637420697320616c726561647920696e697469616c697a6564537472696374416c706163614f7261636c655072696365466565642f6261642d70726963652d6c696665536166654d6174683a206d756c7469706c69636174696f6e206f766572666c6f77416363657373436f6e74726f6c3a2063616e206f6e6c792072656e6f756e636520726f6c657320666f722073656c66a2646970667358221220f13be1dc1cefdb17916c828744c09a70dc1d79d39ccef376102350796e138b6564736f6c634300060c0033",
  "linkReferences": {},
  "deployedLinkReferences": {}
}