{
  "_format": "hh-sol-artifact-1",
  "contractName": "MdexRestrictedStrategyPartialCloseLiquidate",
  "sourceName": "contracts/6/protocol/strategies/mdex-restricted/MdexRestrictedStrategyPartialCloseLiquidate.sol",
  "abi": [
    {
      "anonymous": false,
      "inputs": [
        {
          "indexed": true,
          "internalType": "address",
          "name": "baseToken",
          "type": "address"
        },
        {
          "indexed": true,
          "internalType": "address",
          "name": "farmToken",
          "type": "address"
        },
        {
          "indexed": false,
          "internalType": "uint256",
          "name": "amountToLiquidate",
          "type": "uint256"
        },
        {
          "indexed": false,
          "internalType": "uint256",
          "name": "amountToRepayDebt",
          "type": "uint256"
        }
      ],
      "name": "MdexRestrictedStrategyPartialCloseLiquidateEvent",
      "type": "event"
    },
    {
      "anonymous": false,
      "inputs": [
        {
          "indexed": true,
          "internalType": "address",
          "name": "previousOwner",
          "type": "address"
        },
        {
          "indexed": true,
          "internalType": "address",
          "name": "newOwner",
          "type": "address"
        }
      ],
      "name": "OwnershipTransferred",
      "type": "event"
    },
    {
      "anonymous": false,
      "inputs": [
        {
          "indexed": true,
          "internalType": "address",
          "name": "caller",
          "type": "address"
        },
        {
          "indexed": false,
          "internalType": "address",
          "name": "worker",
          "type": "address"
        },
        {
          "indexed": false,
          "internalType": "bool",
          "name": "isOk",
          "type": "bool"
        }
      ],
      "name": "SetWorkerOk",
      "type": "event"
    },
    {
      "anonymous": false,
      "inputs": [
        {
          "indexed": true,
          "internalType": "address",
          "name": "caller",
          "type": "address"
        },
        {
          "indexed": false,
          "internalType": "address",
          "name": "to",
          "type": "address"
        },
        {
          "indexed": false,
          "internalType": "uint256",
          "name": "amount",
          "type": "uint256"
        }
      ],
      "name": "WithdrawTradingRewards",
      "type": "event"
    },
    {
      "inputs": [
        {
          "internalType": "address",
          "name": "",
          "type": "address"
        },
        {
          "internalType": "uint256",
          "name": "debt",
          "type": "uint256"
        },
        {
          "internalType": "bytes",
          "name": "data",
          "type": "bytes"
        }
      ],
      "name": "execute",
      "outputs": [],
      "stateMutability": "nonpayable",
      "type": "function"
    },
    {
      "inputs": [],
      "name": "factory",
      "outputs": [
        {
          "internalType": "contract IMdexFactory",
          "name": "",
          "type": "address"
        }
      ],
      "stateMutability": "view",
      "type": "function"
    },
    {
      "inputs": [
        {
          "internalType": "uint256[]",
          "name": "pIds",
          "type": "uint256[]"
        }
      ],
      "name": "getMiningRewards",
      "outputs": [
        {
          "internalType": "uint256",
          "name": "",
          "type": "uint256"
        }
      ],
      "stateMutability": "view",
      "type": "function"
    },
    {
      "inputs": [
        {
          "internalType": "contract IMdexRouter",
          "name": "_router",
          "type": "address"
        },
        {
          "internalType": "address",
          "name": "_mdx",
          "type": "address"
        }
      ],
      "name": "initialize",
      "outputs": [],
      "stateMutability": "nonpayable",
      "type": "function"
    },
    {
      "inputs": [],
      "name": "mdx",
      "outputs": [
        {
          "internalType": "address",
          "name": "",
          "type": "address"
        }
      ],
      "stateMutability": "view",
      "type": "function"
    },
    {
      "inputs": [
        {
          "internalType": "address",
          "name": "",
          "type": "address"
        }
      ],
      "name": "okWorkers",
      "outputs": [
        {
          "internalType": "bool",
          "name": "",
          "type": "bool"
        }
      ],
      "stateMutability": "view",
      "type": "function"
    },
    {
      "inputs": [],
      "name": "owner",
      "outputs": [
        {
          "internalType": "address",
          "name": "",
          "type": "address"
        }
      ],
      "stateMutability": "view",
      "type": "function"
    },
    {
      "inputs": [],
      "name": "renounceOwnership",
      "outputs": [],
      "stateMutability": "nonpayable",
      "type": "function"
    },
    {
      "inputs": [],
      "name": "router",
      "outputs": [
        {
          "internalType": "contract IMdexRouter",
          "name": "",
          "type": "address"
        }
      ],
      "stateMutability": "view",
      "type": "function"
    },
    {
      "inputs": [
        {
          "internalType": "address[]",
          "name": "workers",
          "type": "address[]"
        },
        {
          "internalType": "bool",
          "name": "isOk",
          "type": "bool"
        }
      ],
      "name": "setWorkersOk",
      "outputs": [],
      "stateMutability": "nonpayable",
      "type": "function"
    },
    {
      "inputs": [
        {
          "internalType": "address",
          "name": "newOwner",
          "type": "address"
        }
      ],
      "name": "transferOwnership",
      "outputs": [],
      "stateMutability": "nonpayable",
      "type": "function"
    },
    {
      "inputs": [
        {
          "internalType": "address",
          "name": "to",
          "type": "address"
        }
      ],
      "name": "withdrawTradingRewards",
      "outputs": [],
      "stateMutability": "nonpayable",
      "type": "function"
    }
  ],
  "bytecode": "0x608060405234801561001057600080fd5b50611acb806100206000396000f3fe608060405234801561001057600080fd5b50600436106100a45760003560e01c8063485cc955146100a95780635672ab55146100d957806368646601146100fd578063715018a6146101235780637c5bdf491461012b5780638da5cb5b1461019b578063b61d27f6146101a3578063c45a015514610226578063e635ff7f1461022e578063f2fde38b146102ae578063f887ea40146102d4578063fa826478146102dc575b600080fd5b6100d7600480360360408110156100bf57600080fd5b506001600160a01b0381358116916020013516610316565b005b6100e161046a565b604080516001600160a01b039092168252519081900360200190f35b6100d76004803603602081101561011357600080fd5b50356001600160a01b0316610479565b6100d7610652565b6100d76004803603604081101561014157600080fd5b810190602081018135600160201b81111561015b57600080fd5b82018360208201111561016d57600080fd5b803590602001918460208302840111600160201b8311171561018e57600080fd5b91935091503515156106e2565b6100e16107f1565b6100d7600480360360608110156101b957600080fd5b6001600160a01b0382351691602081013591810190606081016040820135600160201b8111156101e857600080fd5b8201836020820111156101fa57600080fd5b803590602001918460018302840111600160201b8311171561021b57600080fd5b509092509050610800565b6100e1610f11565b61029c6004803603602081101561024457600080fd5b810190602081018135600160201b81111561025e57600080fd5b82018360208201111561027057600080fd5b803590602001918460208302840111600160201b8311171561029157600080fd5b509092509050610f20565b60408051918252519081900360200190f35b6100d7600480360360208110156102c457600080fd5b50356001600160a01b0316611054565b6100e161113b565b610302600480360360208110156102f257600080fd5b50356001600160a01b031661114a565b604080519115158252519081900360200190f35b600054610100900460ff168061032f575061032f61115f565b8061033d575060005460ff16155b6103785760405162461bcd60e51b815260040180806020018281038252602e815260200180611a12602e913960400191505060405180910390fd5b600054610100900460ff161580156103a3576000805460ff1961ff0019909116610100171660011790555b6103ab611165565b6103b3611217565b826001600160a01b031663c45a01556040518163ffffffff1660e01b815260040160206040518083038186803b1580156103ec57600080fd5b505afa158015610400573d6000803e3d6000fd5b505050506040513d602081101561041657600080fd5b505160c980546001600160a01b03199081166001600160a01b039384161790915560ca8054821686841617905560cb80549091169184169190911790558015610465576000805461ff00191690555b505050565b60cb546001600160a01b031681565b6104816112ac565b6065546001600160a01b039081169116146104d1576040805162461bcd60e51b815260206004820181905260248201526000805160206119d2833981519152604482015290519081900360640190fd5b60cb546000906104e9906001600160a01b03166112b0565b905060ca60009054906101000a90046001600160a01b03166001600160a01b0316634e5eda116040518163ffffffff1660e01b815260040160206040518083038186803b15801561053957600080fd5b505afa15801561054d573d6000803e3d6000fd5b505050506040513d602081101561056357600080fd5b505160408051635c396e8760e11b815290516001600160a01b039092169163b872dd0e9160048082019260009290919082900301818387803b1580156105a857600080fd5b505af11580156105bc573d6000803e3d6000fd5b505060cb54600092506105ea915083906105de906001600160a01b03166112b0565b9063ffffffff61132c16565b60cb5490915061060a906001600160a01b0316848363ffffffff61137516565b604080516001600160a01b038516815260208101839052815133927fd0173ead42278d1aee1773625dc73198c4780fd70b86cf8f3f0cf7dd7336905b928290030190a2505050565b61065a6112ac565b6065546001600160a01b039081169116146106aa576040805162461bcd60e51b815260206004820181905260248201526000805160206119d2833981519152604482015290519081900360640190fd5b6065546040516000916001600160a01b0316906000805160206119f2833981519152908390a3606580546001600160a01b0319169055565b6106ea6112ac565b6065546001600160a01b0390811691161461073a576040805162461bcd60e51b815260206004820181905260248201526000805160206119d2833981519152604482015290519081900360640190fd5b60005b828110156107eb578160cc600086868581811061075657fe5b602090810292909201356001600160a01b0316835250810191909152604001600020805460ff1916911515919091179055337fc1f5c543a36e7fce4feae5d89dc1c3f47a3be58369b8029f2c7765ce3db8dff78585848181106107b557fe5b60408051602092830294909401356001600160a01b031684528715159184019190915280519283900301919050a260010161073d565b50505050565b6065546001600160a01b031690565b33600090815260cc602052604090205460ff1661084e5760405162461bcd60e51b81526004018080602001828103825260508152602001806119826050913960600191505060405180910390fd5b60975460ff166108a5576040805162461bcd60e51b815260206004820152601f60248201527f5265656e7472616e637947756172643a207265656e7472616e742063616c6c00604482015290519081900360640190fd5b6097805460ff1916905560008080848460608110156108c357600080fd5b506040805163c55dae6360e01b81528151833596506020808501359650929093013593503392600092849263c55dae639260048083019392829003018186803b15801561090f57600080fd5b505afa158015610923573d6000803e3d6000fd5b505050506040513d602081101561093957600080fd5b50516040805163ad24dce760e01b815290519192506000916001600160a01b0385169163ad24dce7916004808301926020929190829003018186803b15801561098157600080fd5b505afa158015610995573d6000803e3d6000fd5b505050506040513d60208110156109ab57600080fd5b505160c9546040805163e6a4390560e01b81526001600160a01b03808516600483015286811660248301529151939450600093919092169163e6a43905916044808301926020929190829003018186803b158015610a0857600080fd5b505afa158015610a1c573d6000803e3d6000fd5b505050506040513d6020811015610a3257600080fd5b505190506000610a53610a4d6001600160a01b0384166112b0565b896114cf565b90506000610a61888d6114cf565b90506000610a77866001600160a01b03166112b0565b60ca54909150610a9c906001600160a01b03868116911660001963ffffffff6114e516565b60ca54610abe906001600160a01b03878116911660001963ffffffff6114e516565b60ca5460408051635d5155ef60e11b81526001600160a01b038981166004830152888116602483015260448201879052600060648301819052608483018190523060a48401524260c48401528351919094169363baa2abde9360e480850194919392918390030190829087803b158015610b3757600080fd5b505af1158015610b4b573d6000803e3d6000fd5b505050506040513d6040811015610b6157600080fd5b505060408051600280825260608083018452926020830190803683370190505090508581600081518110610b9157fe5b60200260200101906001600160a01b031690816001600160a01b0316815250508681600181518110610bbf57fe5b6001600160a01b03928316602091820292909201015260ca548116906338ed173990610bec9089166112b0565b60008430426040518663ffffffff1660e01b81526004018086815260200185815260200180602001846001600160a01b03166001600160a01b03168152602001838152602001828103825285818151815260200191508051906020019060200280838360005b83811015610c6a578181015183820152602001610c52565b505050509050019650505050505050600060405180830381600087803b158015610c9357600080fd5b505af1158015610ca7573d6000803e3d6000fd5b505050506040513d6000823e601f3d908101601f191682016040526020811015610cd057600080fd5b8101908080516040519392919084600160201b821115610cef57600080fd5b908301906020820185811115610d0457600080fd5b82518660208202830111600160201b82111715610d2057600080fd5b82525081516020918201928201910280838360005b83811015610d4d578181015183820152602001610d35565b50505050905001604052505050506000610d6f886001600160a01b03166112b0565b905089610d86856105de848763ffffffff61132c16565b1015610dc35760405162461bcd60e51b8152600401808060200182810382526056815260200180611a406056913960600191505060405180910390fd5b610dce883383611375565b604080516370a0823160e01b81523060048201529051610e5d9133916001600160a01b038a16916370a08231916024808301926020929190829003018186803b158015610e1a57600080fd5b505afa158015610e2e573d6000803e3d6000fd5b505050506040513d6020811015610e4457600080fd5b50516001600160a01b038916919063ffffffff61137516565b60ca54610e7e906001600160a01b038881169116600063ffffffff6114e516565b60ca54610e9f906001600160a01b038981169116600063ffffffff6114e516565b866001600160a01b0316886001600160a01b03167fe6cb8b9bb7d531415882c25b1f5b06172006ac24035275617df9d6c23e938b228787604051808381526020018281526020019250505060405180910390a350506097805460ff191660011790555050505050505050505050505050565b60c9546001600160a01b031681565b60008060ca60009054906101000a90046001600160a01b03166001600160a01b0316634e5eda116040518163ffffffff1660e01b815260040160206040518083038186803b158015610f7157600080fd5b505afa158015610f85573d6000803e3d6000fd5b505050506040513d6020811015610f9b57600080fd5b505190506000805b8481101561104b576000836001600160a01b0316639fb08cb7888885818110610fc857fe5b905060200201356040518263ffffffff1660e01b815260040180828152602001915050604080518083038186803b15801561100257600080fd5b505afa158015611016573d6000803e3d6000fd5b505050506040513d604081101561102c57600080fd5b50519050611040838263ffffffff61163716565b925050600101610fa3565b50949350505050565b61105c6112ac565b6065546001600160a01b039081169116146110ac576040805162461bcd60e51b815260206004820181905260248201526000805160206119d2833981519152604482015290519081900360640190fd5b6001600160a01b0381166110f15760405162461bcd60e51b815260040180806020018281038252602681526020018061195c6026913960400191505060405180910390fd5b6065546040516001600160a01b038084169216906000805160206119f283398151915290600090a3606580546001600160a01b0319166001600160a01b0392909216919091179055565b60ca546001600160a01b031681565b60cc6020526000908152604090205460ff1681565b303b1590565b600054610100900460ff168061117e575061117e61115f565b8061118c575060005460ff16155b6111c75760405162461bcd60e51b815260040180806020018281038252602e815260200180611a12602e913960400191505060405180910390fd5b600054610100900460ff161580156111f2576000805460ff1961ff0019909116610100171660011790555b6111fa61168f565b61120261172f565b8015611214576000805461ff00191690555b50565b600054610100900460ff1680611230575061123061115f565b8061123e575060005460ff16155b6112795760405162461bcd60e51b815260040180806020018281038252602e815260200180611a12602e913960400191505060405180910390fd5b600054610100900460ff161580156112a4576000805460ff1961ff0019909116610100171660011790555b611202611816565b3390565b604080516370a0823160e01b815230600482015290516000916001600160a01b038416916370a0823191602480820192602092909190829003018186803b1580156112fa57600080fd5b505afa15801561130e573d6000803e3d6000fd5b505050506040513d602081101561132457600080fd5b505192915050565b600061136e83836040518060400160405280601e81526020017f536166654d6174683a207375627472616374696f6e206f766572666c6f7700008152506118c4565b9392505050565b604080516001600160a01b038481166024830152604480830185905283518084039091018152606490920183526020820180516001600160e01b031663a9059cbb60e01b178152925182516000946060949389169392918291908083835b602083106113f25780518252601f1990920191602091820191016113d3565b6001836020036101000a0380198251168184511680821785525050505050509050019150506000604051808303816000865af19150503d8060008114611454576040519150601f19603f3d011682016040523d82523d6000602084013e611459565b606091505b5091509150818015611487575080511580611487575080806020019051602081101561148457600080fd5b50515b6114c8576040805162461bcd60e51b815260206004820152600d60248201526c10b9b0b332aa3930b739b332b960991b604482015290519081900360640190fd5b5050505050565b60008183106114de578161136e565b5090919050565b604080516001600160a01b038481166024830152604480830185905283518084039091018152606490920183526020820180516001600160e01b031663095ea7b360e01b178152925182516000946060949389169392918291908083835b602083106115625780518252601f199092019160209182019101611543565b6001836020036101000a0380198251168184511680821785525050505050509050019150506000604051808303816000865af19150503d80600081146115c4576040519150601f19603f3d011682016040523d82523d6000602084013e6115c9565b606091505b50915091508180156115f75750805115806115f757508080602001905160208110156115f457600080fd5b50515b6114c8576040805162461bcd60e51b815260206004820152600c60248201526b2173616665417070726f766560a01b604482015290519081900360640190fd5b60008282018381101561136e576040805162461bcd60e51b815260206004820152601b60248201527a536166654d6174683a206164646974696f6e206f766572666c6f7760281b604482015290519081900360640190fd5b600054610100900460ff16806116a857506116a861115f565b806116b6575060005460ff16155b6116f15760405162461bcd60e51b815260040180806020018281038252602e815260200180611a12602e913960400191505060405180910390fd5b600054610100900460ff16158015611202576000805460ff1961ff0019909116610100171660011790558015611214576000805461ff001916905550565b600054610100900460ff1680611748575061174861115f565b80611756575060005460ff16155b6117915760405162461bcd60e51b815260040180806020018281038252602e815260200180611a12602e913960400191505060405180910390fd5b600054610100900460ff161580156117bc576000805460ff1961ff0019909116610100171660011790555b60006117c66112ac565b606580546001600160a01b0319166001600160a01b038316908117909155604051919250906000906000805160206119f2833981519152908290a3508015611214576000805461ff001916905550565b600054610100900460ff168061182f575061182f61115f565b8061183d575060005460ff16155b6118785760405162461bcd60e51b815260040180806020018281038252602e815260200180611a12602e913960400191505060405180910390fd5b600054610100900460ff161580156118a3576000805460ff1961ff0019909116610100171660011790555b6097805460ff191660011790558015611214576000805461ff001916905550565b600081848411156119535760405162461bcd60e51b81526004018080602001828103825283818151815260200191508051906020019080838360005b83811015611918578181015183820152602001611900565b50505050905090810190601f1680156119455780820380516001836020036101000a031916815260200191505b509250505060405180910390fd5b50505090039056fe4f776e61626c653a206e6577206f776e657220697320746865207a65726f20616464726573734d6465785265737472696374656453747261746567795061727469616c436c6f73654c69717569646174653a3a6f6e6c7957686974656c6973746564576f726b6572733a3a2062616420776f726b65724f776e61626c653a2063616c6c6572206973206e6f7420746865206f776e65728be0079c531659141344cd1fd0a4f28419497f9722a3daafe3b4186f6b6457e0436f6e747261637420696e7374616e63652068617320616c7265616479206265656e20696e697469616c697a65644d6465785265737472696374656453747261746567795061727469616c436c6f73654c69717569646174653a3a657865637574653a3a20696e73756666696369656e742062617365546f6b656e207265636569766564a26469706673582212209bb22063fde84c17b63950643312f86f6c75ea46fdc6ef7670a758f3c5a01d6964736f6c63430006060033",
  "linkReferences": {},
  "deployedLinkReferences": {}
}