{
  "_format": "hh-sol-artifact-1",
  "contractName": "MockFlashLendingCallee",
  "sourceName": "contracts/6.12/mocks/MockFlashLendingCallee.sol",
  "abi": [
    {
      "inputs": [
        {
          "internalType": "address",
          "name": "caller",
          "type": "address"
        },
        {
          "internalType": "uint256",
          "name": "debtValueToRepay",
          "type": "uint256"
        },
        {
          "internalType": "uint256",
          "name": "collateralAmountToLiquidate",
          "type": "uint256"
        },
        {
          "internalType": "bytes",
          "name": "",
          "type": "bytes"
        }
      ],
      "name": "flashLendingCall",
      "outputs": [],
      "stateMutability": "nonpayable",
      "type": "function"
    }
  ],
  "bytecode": "0x608060405234801561001057600080fd5b5060f08061001f6000396000f3fe6080604052348015600f57600080fd5b506004361060285760003560e01c8063af7bd14214602d575b600080fd5b60b160048036036080811015604157600080fd5b6001600160a01b038235169160208101359160408201359190810190608081016060820135600160201b811115607657600080fd5b820183602082011115608757600080fd5b803590602001918460018302840111600160201b8311171560a757600080fd5b50909250905060b3565b005b505050505056fea26469706673582212208407c767e400cd74f499a83988add4332a3887c49d0accff15f70dcbca0a365b64736f6c634300060c0033",
  "linkReferences": {},
  "deployedLinkReferences": {}
}