{
  "contracts/6.12/apis/alpaca/FairLaunch.sol": {
    "FairLaunch": {
      "abi": [
        {
          "inputs": [
            {
              "internalType": "contract AlpacaToken",
              "name": "_alpaca",
              "type": "address"
            },
            {
              "internalType": "address",
              "name": "_devaddr",
              "type": "address"
            },
            {
              "internalType": "uint256",
              "name": "_alpacaPerBlock",
              "type": "uint256"
            },
            {
              "internalType": "uint256",
              "name": "_startBlock",
              "type": "uint256"
            },
            {
              "internalType": "uint256",
              "name": "_bonusLockupBps",
              "type": "uint256"
            },
            {
              "internalType": "uint256",
              "name": "_bonusEndBlock",
              "type": "uint256"
            }
          ],
          "stateMutability": "nonpayable",
          "type": "constructor"
        },
        {
          "anonymous": false,
          "inputs": [
            {
              "indexed": true,
              "internalType": "address",
              "name": "user",
              "type": "address"
            },
            {
              "indexed": true,
              "internalType": "uint256",
              "name": "pid",
              "type": "uint256"
            },
            {
              "indexed": false,
              "internalType": "uint256",
              "name": "amount",
              "type": "uint256"
            }
          ],
          "name": "Deposit",
          "type": "event"
        },
        {
          "anonymous": false,
          "inputs": [
            {
              "indexed": true,
              "internalType": "address",
              "name": "user",
              "type": "address"
            },
            {
              "indexed": true,
              "internalType": "uint256",
              "name": "pid",
              "type": "uint256"
            },
            {
              "indexed": false,
              "internalType": "uint256",
              "name": "amount",
              "type": "uint256"
            }
          ],
          "name": "EmergencyWithdraw",
          "type": "event"
        },
        {
          "anonymous": false,
          "inputs": [
            {
              "indexed": true,
              "internalType": "address",
              "name": "previousOwner",
              "type": "address"
            },
            {
              "indexed": true,
              "internalType": "address",
              "name": "newOwner",
              "type": "address"
            }
          ],
          "name": "OwnershipTransferred",
          "type": "event"
        },
        {
          "anonymous": false,
          "inputs": [
            {
              "indexed": true,
              "internalType": "address",
              "name": "user",
              "type": "address"
            },
            {
              "indexed": true,
              "internalType": "uint256",
              "name": "pid",
              "type": "uint256"
            },
            {
              "indexed": false,
              "internalType": "uint256",
              "name": "amount",
              "type": "uint256"
            }
          ],
          "name": "Withdraw",
          "type": "event"
        },
        {
          "inputs": [
            {
              "internalType": "uint256",
              "name": "_allocPoint",
              "type": "uint256"
            },
            {
              "internalType": "address",
              "name": "_stakeToken",
              "type": "address"
            },
            {
              "internalType": "bool",
              "name": "_withUpdate",
              "type": "bool"
            }
          ],
          "name": "addPool",
          "outputs": [],
          "stateMutability": "nonpayable",
          "type": "function"
        },
        {
          "inputs": [],
          "name": "alpaca",
          "outputs": [
            {
              "internalType": "contract AlpacaToken",
              "name": "",
              "type": "address"
            }
          ],
          "stateMutability": "view",
          "type": "function"
        },
        {
          "inputs": [],
          "name": "alpacaPerBlock",
          "outputs": [
            {
              "internalType": "uint256",
              "name": "",
              "type": "uint256"
            }
          ],
          "stateMutability": "view",
          "type": "function"
        },
        {
          "inputs": [],
          "name": "bonusEndBlock",
          "outputs": [
            {
              "internalType": "uint256",
              "name": "",
              "type": "uint256"
            }
          ],
          "stateMutability": "view",
          "type": "function"
        },
        {
          "inputs": [],
          "name": "bonusLockUpBps",
          "outputs": [
            {
              "internalType": "uint256",
              "name": "",
              "type": "uint256"
            }
          ],
          "stateMutability": "view",
          "type": "function"
        },
        {
          "inputs": [],
          "name": "bonusMultiplier",
          "outputs": [
            {
              "internalType": "uint256",
              "name": "",
              "type": "uint256"
            }
          ],
          "stateMutability": "view",
          "type": "function"
        },
        {
          "inputs": [
            {
              "internalType": "address",
              "name": "_for",
              "type": "address"
            },
            {
              "internalType": "uint256",
              "name": "_pid",
              "type": "uint256"
            },
            {
              "internalType": "uint256",
              "name": "_amount",
              "type": "uint256"
            }
          ],
          "name": "deposit",
          "outputs": [],
          "stateMutability": "nonpayable",
          "type": "function"
        },
        {
          "inputs": [],
          "name": "devaddr",
          "outputs": [
            {
              "internalType": "address",
              "name": "",
              "type": "address"
            }
          ],
          "stateMutability": "view",
          "type": "function"
        },
        {
          "inputs": [
            {
              "internalType": "uint256",
              "name": "_pid",
              "type": "uint256"
            }
          ],
          "name": "emergencyWithdraw",
          "outputs": [],
          "stateMutability": "nonpayable",
          "type": "function"
        },
        {
          "inputs": [
            {
              "internalType": "uint256",
              "name": "_lastRewardBlock",
              "type": "uint256"
            },
            {
              "internalType": "uint256",
              "name": "_currentBlock",
              "type": "uint256"
            }
          ],
          "name": "getMultiplier",
          "outputs": [
            {
              "internalType": "uint256",
              "name": "",
              "type": "uint256"
            }
          ],
          "stateMutability": "view",
          "type": "function"
        },
        {
          "inputs": [
            {
              "internalType": "uint256",
              "name": "_pid",
              "type": "uint256"
            }
          ],
          "name": "harvest",
          "outputs": [],
          "stateMutability": "nonpayable",
          "type": "function"
        },
        {
          "inputs": [
            {
              "internalType": "address",
              "name": "_stakeToken",
              "type": "address"
            }
          ],
          "name": "isDuplicatedPool",
          "outputs": [
            {
              "internalType": "bool",
              "name": "",
              "type": "bool"
            }
          ],
          "stateMutability": "view",
          "type": "function"
        },
        {
          "inputs": [
            {
              "internalType": "address",
              "name": "_to",
              "type": "address"
            },
            {
              "internalType": "uint256",
              "name": "_amount",
              "type": "uint256"
            }
          ],
          "name": "manualMint",
          "outputs": [],
          "stateMutability": "nonpayable",
          "type": "function"
        },
        {
          "inputs": [],
          "name": "massUpdatePools",
          "outputs": [],
          "stateMutability": "nonpayable",
          "type": "function"
        },
        {
          "inputs": [],
          "name": "owner",
          "outputs": [
            {
              "internalType": "address",
              "name": "",
              "type": "address"
            }
          ],
          "stateMutability": "view",
          "type": "function"
        },
        {
          "inputs": [
            {
              "internalType": "uint256",
              "name": "_pid",
              "type": "uint256"
            },
            {
              "internalType": "address",
              "name": "_user",
              "type": "address"
            }
          ],
          "name": "pendingAlpaca",
          "outputs": [
            {
              "internalType": "uint256",
              "name": "",
              "type": "uint256"
            }
          ],
          "stateMutability": "view",
          "type": "function"
        },
        {
          "inputs": [
            {
              "internalType": "uint256",
              "name": "",
              "type": "uint256"
            }
          ],
          "name": "poolInfo",
          "outputs": [
            {
              "internalType": "address",
              "name": "stakeToken",
              "type": "address"
            },
            {
              "internalType": "uint256",
              "name": "allocPoint",
              "type": "uint256"
            },
            {
              "internalType": "uint256",
              "name": "lastRewardBlock",
              "type": "uint256"
            },
            {
              "internalType": "uint256",
              "name": "accAlpacaPerShare",
              "type": "uint256"
            },
            {
              "internalType": "uint256",
              "name": "accAlpacaPerShareTilBonusEnd",
              "type": "uint256"
            }
          ],
          "stateMutability": "view",
          "type": "function"
        },
        {
          "inputs": [],
          "name": "poolLength",
          "outputs": [
            {
              "internalType": "uint256",
              "name": "",
              "type": "uint256"
            }
          ],
          "stateMutability": "view",
          "type": "function"
        },
        {
          "inputs": [],
          "name": "renounceOwnership",
          "outputs": [],
          "stateMutability": "nonpayable",
          "type": "function"
        },
        {
          "inputs": [
            {
              "internalType": "uint256",
              "name": "_alpacaPerBlock",
              "type": "uint256"
            }
          ],
          "name": "setAlpacaPerBlock",
          "outputs": [],
          "stateMutability": "nonpayable",
          "type": "function"
        },
        {
          "inputs": [
            {
              "internalType": "uint256",
              "name": "_bonusMultiplier",
              "type": "uint256"
            },
            {
              "internalType": "uint256",
              "name": "_bonusEndBlock",
              "type": "uint256"
            },
            {
              "internalType": "uint256",
              "name": "_bonusLockUpBps",
              "type": "uint256"
            }
          ],
          "name": "setBonus",
          "outputs": [],
          "stateMutability": "nonpayable",
          "type": "function"
        },
        {
          "inputs": [
            {
              "internalType": "address",
              "name": "_devaddr",
              "type": "address"
            }
          ],
          "name": "setDev",
          "outputs": [],
          "stateMutability": "nonpayable",
          "type": "function"
        },
        {
          "inputs": [
            {
              "internalType": "uint256",
              "name": "_pid",
              "type": "uint256"
            },
            {
              "internalType": "uint256",
              "name": "_allocPoint",
              "type": "uint256"
            },
            {
              "internalType": "bool",
              "name": "_withUpdate",
              "type": "bool"
            }
          ],
          "name": "setPool",
          "outputs": [],
          "stateMutability": "nonpayable",
          "type": "function"
        },
        {
          "inputs": [],
          "name": "startBlock",
          "outputs": [
            {
              "internalType": "uint256",
              "name": "",
              "type": "uint256"
            }
          ],
          "stateMutability": "view",
          "type": "function"
        },
        {
          "inputs": [],
          "name": "totalAllocPoint",
          "outputs": [
            {
              "internalType": "uint256",
              "name": "",
              "type": "uint256"
            }
          ],
          "stateMutability": "view",
          "type": "function"
        },
        {
          "inputs": [
            {
              "internalType": "address",
              "name": "newOwner",
              "type": "address"
            }
          ],
          "name": "transferOwnership",
          "outputs": [],
          "stateMutability": "nonpayable",
          "type": "function"
        },
        {
          "inputs": [
            {
              "internalType": "uint256",
              "name": "_pid",
              "type": "uint256"
            }
          ],
          "name": "updatePool",
          "outputs": [],
          "stateMutability": "nonpayable",
          "type": "function"
        },
        {
          "inputs": [
            {
              "internalType": "uint256",
              "name": "",
              "type": "uint256"
            },
            {
              "internalType": "address",
              "name": "",
              "type": "address"
            }
          ],
          "name": "userInfo",
          "outputs": [
            {
              "internalType": "uint256",
              "name": "amount",
              "type": "uint256"
            },
            {
              "internalType": "uint256",
              "name": "rewardDebt",
              "type": "uint256"
            },
            {
              "internalType": "uint256",
              "name": "bonusDebt",
              "type": "uint256"
            },
            {
              "internalType": "address",
              "name": "fundedBy",
              "type": "address"
            }
          ],
          "stateMutability": "view",
          "type": "function"
        },
        {
          "inputs": [
            {
              "internalType": "address",
              "name": "_for",
              "type": "address"
            },
            {
              "internalType": "uint256",
              "name": "_pid",
              "type": "uint256"
            },
            {
              "internalType": "uint256",
              "name": "_amount",
              "type": "uint256"
            }
          ],
          "name": "withdraw",
          "outputs": [],
          "stateMutability": "nonpayable",
          "type": "function"
        },
        {
          "inputs": [
            {
              "internalType": "address",
              "name": "_for",
              "type": "address"
            },
            {
              "internalType": "uint256",
              "name": "_pid",
              "type": "uint256"
            }
          ],
          "name": "withdrawAll",
          "outputs": [],
          "stateMutability": "nonpayable",
          "type": "function"
        }
      ],
      "devdoc": {
        "kind": "dev",
        "methods": {
          "owner()": {
            "details": "Returns the address of the current owner."
          },
          "renounceOwnership()": {
            "details": "Leaves the contract without owner. It will not be possible to call `onlyOwner` functions anymore. Can only be called by the current owner. NOTE: Renouncing ownership will leave the contract without an owner, thereby removing any functionality that is only available to the owner."
          },
          "transferOwnership(address)": {
            "details": "Transfers ownership of the contract to a new account (`newOwner`). Can only be called by the current owner."
          }
        },
        "version": 1
      },
      "evm": {
        "bytecode": {
          "linkReferences": {},
          "object": "608060405234801561001057600080fd5b50604051612394380380612394833981810160405260c081101561003357600080fd5b508051602082015160408301516060840151608085015160a090950151939492939192909160006100626100fd565b600080546001600160a01b0319166001600160a01b0383169081178255604051929350917f8be0079c531659141344cd1fd0a4f28419497f9722a3daafe3b4186f6b6457e0908290a35060006004819055600955600180546001600160a01b039788166001600160a01b0319918216179091556002805496909716951694909417909455600391909155600692909255600555600a55610101565b3390565b612284806101106000396000f3fe608060405234801561001057600080fd5b506004361061016a5760003560e01c8063081e3eda1461016f5780630efe6a8b146101895780631526fe27146101bd57806317caf6f11461020f5780631aed65531461021757806320f33d591461021f57806346ca6bea1461022757806348cd4cb1146102525780634c8f70fd1461025a57806351eb05a6146102775780635312ea8e14610294578063630b5ba1146102b1578063715018a6146102b95780637abceffd146102c15780638da5cb5b146102f55780638dbb1e3a1461031957806393f1a40b1461033c57806394443b731461039757806394faab23146103c3578063a8b973a1146103cb578063b03df69d146103d3578063b5c5f6721461040d578063cbdec1fc1461043f578063cc6dbc2714610447578063d477f05f14610473578063d49e77cd14610499578063ddc63262146104a1578063e4c5ff46146104be578063f2fde38b146104ea578063fa5be8f814610510575b600080fd5b610177610539565b60408051918252519081900360200190f35b6101bb6004803603606081101561019f57600080fd5b506001600160a01b03813516906020810135906040013561053f565b005b6101da600480360360208110156101d357600080fd5b503561071a565b604080516001600160a01b03909616865260208601949094528484019290925260608401526080830152519081900360a00190f35b610177610762565b610177610768565b61017761076e565b6101bb6004803603606081101561023d57600080fd5b50803590602081013590604001351515610774565b61017761084f565b6101bb6004803603602081101561027057600080fd5b5035610855565b6101bb6004803603602081101561028d57600080fd5b50356108bc565b6101bb600480360360208110156102aa57600080fd5b5035610ca1565b6101bb610d3c565b6101bb610d5f565b6101bb600480360360608110156102d757600080fd5b508035906001600160a01b0360208201351690604001351515610df9565b6102fd611052565b604080516001600160a01b039092168252519081900360200190f35b6101776004803603604081101561032f57600080fd5b5080359060200135611061565b6103686004803603604081101561035257600080fd5b50803590602001356001600160a01b03166110d3565b604080519485526020850193909352838301919091526001600160a01b03166060830152519081900360800190f35b610177600480360360408110156103ad57600080fd5b50803590602001356001600160a01b031661110e565b6102fd611272565b610177611281565b6103f9600480360360208110156103e957600080fd5b50356001600160a01b0316611287565b604080519115158252519081900360200190f35b6101bb6004803603606081101561042357600080fd5b506001600160a01b0381351690602081013590604001356112ed565b6101776112fd565b6101bb6004803603604081101561045d57600080fd5b506001600160a01b038135169060200135611303565b6101bb6004803603602081101561048957600080fd5b50356001600160a01b0316611333565b6102fd6113a0565b6101bb600480360360208110156104b757600080fd5b50356113af565b6101bb600480360360408110156104d457600080fd5b506001600160a01b03813516906020013561143e565b6101bb6004803603602081101561050057600080fd5b50356001600160a01b0316611511565b6101bb6004803603606081101561052657600080fd5b5080359060208101359060400135611601565b60075490565b60006007838154811061054e57fe5b600091825260208083208684526008825260408085206001600160a01b03808b168752935290932060038101546005909302909301935016156105d65760038101546001600160a01b031633146105d6576040805162461bcd60e51b81526020600482015260076024820152663130b21039b7b360c91b604482015290519081900360640190fd5b81546001600160a01b0316610630576040805162461bcd60e51b815260206004820152601b60248201527a19195c1bdcda5d0e881b9bdd081858d8d95c1d0819195c1bdcda5d602a1b604482015290519081900360640190fd5b610639846108bc565b80541561064a5761064a8585611718565b60038101546001600160a01b0316610671576003810180546001600160a01b031916331790555b8154610688906001600160a01b0316333086611961565b805461069490846119c1565b80825560038301546106b79164e8d4a51000916106b19190611a19565b90611a72565b6001820155600482015481546106d79164e8d4a51000916106b191611a19565b6002820155604080518481529051859133917f90890809c654f11d6e72a28fa60149770a0d11ec6c92319d6ceb2bb0a4ea1a159181900360200190a35050505050565b6007818154811061072757fe5b6000918252602090912060059091020180546001820154600283015460038401546004909401546001600160a01b0390931694509092909185565b60095481565b60055481565b60035481565b61077c611ad6565b6001600160a01b031661078d611052565b6001600160a01b0316146107d6576040805162461bcd60e51b815260206004820181905260248201526000805160206121e5833981519152604482015290519081900360640190fd5b80156107e4576107e4610d3c565b6108218261081b600786815481106107f857fe5b906000526020600020906005020160010154600954611ada90919063ffffffff16565b906119c1565b600981905550816007848154811061083557fe5b906000526020600020906005020160010181905550505050565b600a5481565b61085d611ad6565b6001600160a01b031661086e611052565b6001600160a01b0316146108b7576040805162461bcd60e51b815260206004820181905260248201526000805160206121e5833981519152604482015290519081900360640190fd5b600355565b6000600782815481106108cb57fe5b90600052602060002090600502019050806002015443116108ec5750610c9e565b8054604080516370a0823160e01b815230600482015290516000926001600160a01b0316916370a08231916024808301926020929190829003018186803b15801561093657600080fd5b505afa15801561094a573d6000803e3d6000fd5b505050506040513d602081101561096057600080fd5b5051905080610976575043600290910155610c9e565b6000610986836002015443611061565b905060006109b36009546106b186600101546109ad60035487611a1990919063ffffffff16565b90611a19565b6001546002549192506001600160a01b03908116916340c10f1991166109da84600a611a72565b6040518363ffffffff1660e01b815260040180836001600160a01b0316815260200182815260200192505050600060405180830381600087803b158015610a2057600080fd5b505af1158015610a34573d6000803e3d6000fd5b5050600154604080516340c10f1960e01b81523060048201526024810186905290516001600160a01b0390921693506340c10f19925060448082019260009290919082900301818387803b158015610a8b57600080fd5b505af1158015610a9f573d6000803e3d6000fd5b50505050610acd610ac2846106b164e8d4a5100085611a1990919063ffffffff16565b6003860154906119c1565b60038501556005544311610b78576001546002546006546001600160a01b039283169263282d3fdf921690610b0f90612710906106b1906109ad88600a611a72565b6040518363ffffffff1660e01b815260040180836001600160a01b0316815260200182815260200192505050600060405180830381600087803b158015610b5557600080fd5b505af1158015610b69573d6000803e3d6000fd5b50505060038501546004860155505b60055443118015610b8e57506005548460020154105b15610c90576000610bc86009546106b187600101546109ad6003546109ad6004546109ad8d60020154600554611ada90919063ffffffff16565b6001546002546006549293506001600160a01b039182169263282d3fdf9290911690610c0190612710906106b1906109ad88600a611a72565b6040518363ffffffff1660e01b815260040180836001600160a01b0316815260200182815260200192505050600060405180830381600087803b158015610c4757600080fd5b505af1158015610c5b573d6000803e3d6000fd5b50505050610c89610c7e856106b164e8d4a5100085611a1990919063ffffffff16565b6004870154906119c1565b6004860155505b438460020181905550505050505b50565b600060078281548110610cb057fe5b60009182526020808320858452600882526040808520338087529352909320805460059093029093018054909450610cf5926001600160a01b03919091169190611b37565b80546040805191825251849133917fbb757047c2b5f3974fe26b7c10f732e7bce710b0952a71082702781e62ae05959181900360200190a360008082556001909101555050565b60075460005b81811015610d5b57610d53816108bc565b600101610d42565b5050565b610d67611ad6565b6001600160a01b0316610d78611052565b6001600160a01b031614610dc1576040805162461bcd60e51b815260206004820181905260248201526000805160206121e5833981519152604482015290519081900360640190fd5b600080546040516001600160a01b0390911690600080516020612205833981519152908390a3600080546001600160a01b0319169055565b610e01611ad6565b6001600160a01b0316610e12611052565b6001600160a01b031614610e5b576040805162461bcd60e51b815260206004820181905260248201526000805160206121e5833981519152604482015290519081900360640190fd5b8015610e6957610e69610d3c565b6001600160a01b038216610ebf576040805162461bcd60e51b815260206004820152601860248201527730b2321d103737ba1039ba30b5b2aa37b5b2b71030b2323960411b604482015290519081900360640190fd5b610ec882611287565b15610f10576040805162461bcd60e51b815260206004820152601360248201527206164643a207374616b65546f6b656e2064757606c1b604482015290519081900360640190fd5b6000600a544311610f2357600a54610f25565b435b600954909150610f3590856119c1565b6009556040805160a0810182526001600160a01b039485168152602081019586529081019182526000606082018181526080830182815260078054600181018255935292517fa66cc928b5edb82af9bd49922954155ab7b0942694bea4ce44661d9a8736c688600590930292830180546001600160a01b031916919097161790955594517fa66cc928b5edb82af9bd49922954155ab7b0942694bea4ce44661d9a8736c68986015590517fa66cc928b5edb82af9bd49922954155ab7b0942694bea4ce44661d9a8736c68a85015591517fa66cc928b5edb82af9bd49922954155ab7b0942694bea4ce44661d9a8736c68b84015550517fa66cc928b5edb82af9bd49922954155ab7b0942694bea4ce44661d9a8736c68c90910155565b6000546001600160a01b031690565b600060055482116110845760045461107d906109ad8486611ada565b90506110cd565b60055483106110975761107d8284611ada565b6110ca6110af60055484611ada90919063ffffffff16565b61081b6004546109ad87600554611ada90919063ffffffff16565b90505b92915050565b60086020908152600092835260408084209091529082529020805460018201546002830154600390930154919290916001600160a01b031684565b6000806007848154811061111e57fe5b600091825260208083208784526008825260408085206001600160a01b0389811687529084528186206005959095029092016003810154815483516370a0823160e01b815230600482015293519298509596909590949316926370a082319260248082019391829003018186803b15801561119857600080fd5b505afa1580156111ac573d6000803e3d6000fd5b505050506040513d60208110156111c257600080fd5b50516002850154909150431180156111d957508015155b156112395760006111ee856002015443611061565b905060006112156009546106b188600101546109ad60035487611a1990919063ffffffff16565b905061123461122d846106b18464e8d4a51000611a19565b85906119c1565b935050505b611267836001015461126164e8d4a510006106b1868860000154611a1990919063ffffffff16565b90611ada565b979650505050505050565b6001546001600160a01b031681565b60045481565b600754600090815b818110156112e157836001600160a01b0316600782815481106112ae57fe5b60009182526020909120600590910201546001600160a01b031614156112d9576001925050506112e8565b60010161128f565b5060009150505b919050565b6112f8838383611b89565b505050565b60065481565b60008181526008602090815260408083206001600160a01b0386168452909152902054610d5b9083908390611b89565b6002546001600160a01b0316331461137e576040805162461bcd60e51b81526020600482015260096024820152686465763a207775743f60b81b604482015290519081900360640190fd5b600280546001600160a01b0319166001600160a01b0392909216919091179055565b6002546001600160a01b031681565b6000600782815481106113be57fe5b600091825260208083208584526008825260408085203386529092529220600590910290910191506113ef836108bc565b6113f93384611718565b600382015481546114149164e8d4a51000916106b191611a19565b6001820155600482015481546114349164e8d4a51000916106b191611a19565b6002909101555050565b611446611ad6565b6001600160a01b0316611457611052565b6001600160a01b0316146114a0576040805162461bcd60e51b815260206004820181905260248201526000805160206121e5833981519152604482015290519081900360640190fd5b60015460408051637262ffa360e11b81526001600160a01b038581166004830152602482018590529151919092169163e4c5ff4691604480830192600092919082900301818387803b1580156114f557600080fd5b505af1158015611509573d6000803e3d6000fd5b505050505050565b611519611ad6565b6001600160a01b031661152a611052565b6001600160a01b031614611573576040805162461bcd60e51b815260206004820181905260248201526000805160206121e5833981519152604482015290519081900360640190fd5b6001600160a01b0381166115b85760405162461bcd60e51b81526004018080602001828103825260268152602001806121786026913960400191505060405180910390fd5b600080546040516001600160a01b038085169392169160008051602061220583398151915291a3600080546001600160a01b0319166001600160a01b0392909216919091179055565b611609611ad6565b6001600160a01b031661161a611052565b6001600160a01b031614611663576040805162461bcd60e51b815260206004820181905260248201526000805160206121e5833981519152604482015290519081900360640190fd5b4382116116b5576040805162461bcd60e51b815260206004820152601b60248201527a736574426f6e75733a2062616420626f6e7573456e64426c6f636b60281b604482015290519081900360640190fd5b6001831161170a576040805162461bcd60e51b815260206004820152601d60248201527f736574426f6e75733a2062616420626f6e75734d756c7469706c696572000000604482015290519081900360640190fd5b600492909255600555600655565b60006007828154811061172757fe5b600091825260208083208584526008825260408085206001600160a01b038916865290925292208054600590920290920192506117a0576040805162461bcd60e51b81526020600482015260126024820152711b9bdd1a1a5b99c81d1bc81a185c9d995cdd60721b604482015290519081900360640190fd5b60006117ce826001015461126164e8d4a510006106b187600301548760000154611a1990919063ffffffff16565b600154604080516370a0823160e01b815230600482015290519293506001600160a01b03909116916370a0823191602480820192602092909190829003018186803b15801561181c57600080fd5b505afa158015611830573d6000803e3d6000fd5b505050506040513d602081101561184657600080fd5b5051811115611894576040805162461bcd60e51b8152602060048201526015602482015274777466206e6f7420656e6f75676820616c7061636160581b604482015290519081900360640190fd5b60006118c2836002015461126164e8d4a510006106b188600401548860000154611a1990919063ffffffff16565b90506118ce8683611d22565b6001546006546001600160a01b039091169063282d3fdf9088906118fb90612710906106b1908790611a19565b6040518363ffffffff1660e01b815260040180836001600160a01b0316815260200182815260200192505050600060405180830381600087803b15801561194157600080fd5b505af1158015611955573d6000803e3d6000fd5b50505050505050505050565b604080516001600160a01b0380861660248301528416604482015260648082018490528251808303909101815260849091019091526020810180516001600160e01b03166323b872dd60e01b1790526119bb908590611eb2565b50505050565b6000828201838110156110ca576040805162461bcd60e51b815260206004820152601b60248201527a536166654d6174683a206164646974696f6e206f766572666c6f7760281b604482015290519081900360640190fd5b600082611a28575060006110cd565b82820282848281611a3557fe5b04146110ca5760405162461bcd60e51b81526004018080602001828103825260218152602001806121c46021913960400191505060405180910390fd5b6000808211611ac5576040805162461bcd60e51b815260206004820152601a602482015279536166654d6174683a206469766973696f6e206279207a65726f60301b604482015290519081900360640190fd5b818381611ace57fe5b049392505050565b3390565b600082821115611b31576040805162461bcd60e51b815260206004820152601e60248201527f536166654d6174683a207375627472616374696f6e206f766572666c6f770000604482015290519081900360640190fd5b50900390565b604080516001600160a01b038416602482015260448082018490528251808303909101815260649091019091526020810180516001600160e01b031663a9059cbb60e01b1790526112f8908490611eb2565b600060078381548110611b9857fe5b600091825260208083208684526008825260408085206001600160a01b03808b1687529352909320600381015460059093029093019350163314611c11576040805162461bcd60e51b815260206004820152600b60248201526a37b7363c90333ab73232b960a91b604482015290519081900360640190fd5b8054831115611c5c576040805162461bcd60e51b81526020600482015260126024820152711dda5d1a191c985dce881b9bdd0819dbdbd960721b604482015290519081900360640190fd5b611c65846108bc565b611c6f8585611718565b8054611c7b9084611ada565b8082556003830154611c989164e8d4a51000916106b19190611a19565b600182015560048201548154611cb89164e8d4a51000916106b191611a19565b600282015581546001600160a01b031615611ce3578154611ce3906001600160a01b03163385611b37565b80546040805191825251859133917ff279e6a1f5e320cca91135676d9cb6e44ca8a08c0b88342bcdb1144f6511b5689181900360200190a35050505050565b600154604080516370a0823160e01b815230600482015290516000926001600160a01b0316916370a08231916024808301926020929190829003018186803b158015611d6d57600080fd5b505afa158015611d81573d6000803e3d6000fd5b505050506040513d6020811015611d9757600080fd5b5051905080821115611e2b576001546040805163a9059cbb60e01b81526001600160a01b038681166004830152602482018590529151919092169163a9059cbb9160448083019260209291908290030181600087803b158015611df957600080fd5b505af1158015611e0d573d6000803e3d6000fd5b505050506040513d6020811015611e2357600080fd5b506112f89050565b6001546040805163a9059cbb60e01b81526001600160a01b038681166004830152602482018690529151919092169163a9059cbb9160448083019260209291908290030181600087803b158015611e8157600080fd5b505af1158015611e95573d6000803e3d6000fd5b505050506040513d6020811015611eab57600080fd5b5050505050565b6060611f07826040518060400160405280602081526020017f5361666545524332303a206c6f772d6c6576656c2063616c6c206661696c6564815250856001600160a01b0316611f639092919063ffffffff16565b8051909150156112f857808060200190516020811015611f2657600080fd5b50516112f85760405162461bcd60e51b815260040180806020018281038252602a815260200180612225602a913960400191505060405180910390fd5b6060611f728484600085611f7c565b90505b9392505050565b606082471015611fbd5760405162461bcd60e51b815260040180806020018281038252602681526020018061219e6026913960400191505060405180910390fd5b611fc6856120cd565b612017576040805162461bcd60e51b815260206004820152601d60248201527f416464726573733a2063616c6c20746f206e6f6e2d636f6e7472616374000000604482015290519081900360640190fd5b60006060866001600160a01b031685876040518082805190602001908083835b602083106120565780518252601f199092019160209182019101612037565b6001836020036101000a03801982511681845116808217855250505050505090500191505060006040518083038185875af1925050503d80600081146120b8576040519150601f19603f3d011682016040523d82523d6000602084013e6120bd565b606091505b50915091506112678282866120d3565b3b151590565b606083156120e2575081611f75565b8251156120f25782518084602001fd5b8160405162461bcd60e51b81526004018080602001828103825283818151815260200191508051906020019080838360005b8381101561213c578181015183820152602001612124565b50505050905090810190601f1680156121695780820380516001836020036101000a031916815260200191505b509250505060405180910390fdfe4f776e61626c653a206e6577206f776e657220697320746865207a65726f2061646472657373416464726573733a20696e73756666696369656e742062616c616e636520666f722063616c6c536166654d6174683a206d756c7469706c69636174696f6e206f766572666c6f774f776e61626c653a2063616c6c6572206973206e6f7420746865206f776e65728be0079c531659141344cd1fd0a4f28419497f9722a3daafe3b4186f6b6457e05361666545524332303a204552433230206f7065726174696f6e20646964206e6f742073756363656564a2646970667358221220b86a5476bb55a8e57237c2439d02080b6e9fdb458fa43ab93a22f2ea673a943364736f6c634300060c0033",
          "opcodes": "PUSH1 0x80 PUSH1 0x40 MSTORE CALLVALUE DUP1 ISZERO PUSH2 0x10 JUMPI PUSH1 0x0 DUP1 REVERT JUMPDEST POP PUSH1 0x40 MLOAD PUSH2 0x2394 CODESIZE SUB DUP1 PUSH2 0x2394 DUP4 CODECOPY DUP2 DUP2 ADD PUSH1 0x40 MSTORE PUSH1 0xC0 DUP2 LT ISZERO PUSH2 0x33 JUMPI PUSH1 0x0 DUP1 REVERT JUMPDEST POP DUP1 MLOAD PUSH1 0x20 DUP3 ADD MLOAD PUSH1 0x40 DUP4 ADD MLOAD PUSH1 0x60 DUP5 ADD MLOAD PUSH1 0x80 DUP6 ADD MLOAD PUSH1 0xA0 SWAP1 SWAP6 ADD MLOAD SWAP4 SWAP5 SWAP3 SWAP4 SWAP2 SWAP3 SWAP1 SWAP2 PUSH1 0x0 PUSH2 0x62 PUSH2 0xFD JUMP JUMPDEST PUSH1 0x0 DUP1 SLOAD PUSH1 0x1 PUSH1 0x1 PUSH1 0xA0 SHL SUB NOT AND PUSH1 0x1 PUSH1 0x1 PUSH1 0xA0 SHL SUB DUP4 AND SWAP1 DUP2 OR DUP3 SSTORE PUSH1 0x40 MLOAD SWAP3 SWAP4 POP SWAP2 PUSH32 0x8BE0079C531659141344CD1FD0A4F28419497F9722A3DAAFE3B4186F6B6457E0 SWAP1 DUP3 SWAP1 LOG3 POP PUSH1 0x0 PUSH1 0x4 DUP2 SWAP1 SSTORE PUSH1 0x9 SSTORE PUSH1 0x1 DUP1 SLOAD PUSH1 0x1 PUSH1 0x1 PUSH1 0xA0 SHL SUB SWAP8 DUP9 AND PUSH1 0x1 PUSH1 0x1 PUSH1 0xA0 SHL SUB NOT SWAP2 DUP3 AND OR SWAP1 SWAP2 SSTORE PUSH1 0x2 DUP1 SLOAD SWAP7 SWAP1 SWAP8 AND SWAP6 AND SWAP5 SWAP1 SWAP5 OR SWAP1 SWAP5 SSTORE PUSH1 0x3 SWAP2 SWAP1 SWAP2 SSTORE PUSH1 0x6 SWAP3 SWAP1 SWAP3 SSTORE PUSH1 0x5 SSTORE PUSH1 0xA SSTORE PUSH2 0x101 JUMP JUMPDEST CALLER SWAP1 JUMP JUMPDEST PUSH2 0x2284 DUP1 PUSH2 0x110 PUSH1 0x0 CODECOPY PUSH1 0x0 RETURN INVALID PUSH1 0x80 PUSH1 0x40 MSTORE CALLVALUE DUP1 ISZERO PUSH2 0x10 JUMPI PUSH1 0x0 DUP1 REVERT JUMPDEST POP PUSH1 0x4 CALLDATASIZE LT PUSH2 0x16A JUMPI PUSH1 0x0 CALLDATALOAD PUSH1 0xE0 SHR DUP1 PUSH4 0x81E3EDA EQ PUSH2 0x16F JUMPI DUP1 PUSH4 0xEFE6A8B EQ PUSH2 0x189 JUMPI DUP1 PUSH4 0x1526FE27 EQ PUSH2 0x1BD JUMPI DUP1 PUSH4 0x17CAF6F1 EQ PUSH2 0x20F JUMPI DUP1 PUSH4 0x1AED6553 EQ PUSH2 0x217 JUMPI DUP1 PUSH4 0x20F33D59 EQ PUSH2 0x21F JUMPI DUP1 PUSH4 0x46CA6BEA EQ PUSH2 0x227 JUMPI DUP1 PUSH4 0x48CD4CB1 EQ PUSH2 0x252 JUMPI DUP1 PUSH4 0x4C8F70FD EQ PUSH2 0x25A JUMPI DUP1 PUSH4 0x51EB05A6 EQ PUSH2 0x277 JUMPI DUP1 PUSH4 0x5312EA8E EQ PUSH2 0x294 JUMPI DUP1 PUSH4 0x630B5BA1 EQ PUSH2 0x2B1 JUMPI DUP1 PUSH4 0x715018A6 EQ PUSH2 0x2B9 JUMPI DUP1 PUSH4 0x7ABCEFFD EQ PUSH2 0x2C1 JUMPI DUP1 PUSH4 0x8DA5CB5B EQ PUSH2 0x2F5 JUMPI DUP1 PUSH4 0x8DBB1E3A EQ PUSH2 0x319 JUMPI DUP1 PUSH4 0x93F1A40B EQ PUSH2 0x33C JUMPI DUP1 PUSH4 0x94443B73 EQ PUSH2 0x397 JUMPI DUP1 PUSH4 0x94FAAB23 EQ PUSH2 0x3C3 JUMPI DUP1 PUSH4 0xA8B973A1 EQ PUSH2 0x3CB JUMPI DUP1 PUSH4 0xB03DF69D EQ PUSH2 0x3D3 JUMPI DUP1 PUSH4 0xB5C5F672 EQ PUSH2 0x40D JUMPI DUP1 PUSH4 0xCBDEC1FC EQ PUSH2 0x43F JUMPI DUP1 PUSH4 0xCC6DBC27 EQ PUSH2 0x447 JUMPI DUP1 PUSH4 0xD477F05F EQ PUSH2 0x473 JUMPI DUP1 PUSH4 0xD49E77CD EQ PUSH2 0x499 JUMPI DUP1 PUSH4 0xDDC63262 EQ PUSH2 0x4A1 JUMPI DUP1 PUSH4 0xE4C5FF46 EQ PUSH2 0x4BE JUMPI DUP1 PUSH4 0xF2FDE38B EQ PUSH2 0x4EA JUMPI DUP1 PUSH4 0xFA5BE8F8 EQ PUSH2 0x510 JUMPI JUMPDEST PUSH1 0x0 DUP1 REVERT JUMPDEST PUSH2 0x177 PUSH2 0x539 JUMP JUMPDEST PUSH1 0x40 DUP1 MLOAD SWAP2 DUP3 MSTORE MLOAD SWAP1 DUP2 SWAP1 SUB PUSH1 0x20 ADD SWAP1 RETURN JUMPDEST PUSH2 0x1BB PUSH1 0x4 DUP1 CALLDATASIZE SUB PUSH1 0x60 DUP2 LT ISZERO PUSH2 0x19F JUMPI PUSH1 0x0 DUP1 REVERT JUMPDEST POP PUSH1 0x1 PUSH1 0x1 PUSH1 0xA0 SHL SUB DUP2 CALLDATALOAD AND SWAP1 PUSH1 0x20 DUP2 ADD CALLDATALOAD SWAP1 PUSH1 0x40 ADD CALLDATALOAD PUSH2 0x53F JUMP JUMPDEST STOP JUMPDEST PUSH2 0x1DA PUSH1 0x4 DUP1 CALLDATASIZE SUB PUSH1 0x20 DUP2 LT ISZERO PUSH2 0x1D3 JUMPI PUSH1 0x0 DUP1 REVERT JUMPDEST POP CALLDATALOAD PUSH2 0x71A JUMP JUMPDEST PUSH1 0x40 DUP1 MLOAD PUSH1 0x1 PUSH1 0x1 PUSH1 0xA0 SHL SUB SWAP1 SWAP7 AND DUP7 MSTORE PUSH1 0x20 DUP7 ADD SWAP5 SWAP1 SWAP5 MSTORE DUP5 DUP5 ADD SWAP3 SWAP1 SWAP3 MSTORE PUSH1 0x60 DUP5 ADD MSTORE PUSH1 0x80 DUP4 ADD MSTORE MLOAD SWAP1 DUP2 SWAP1 SUB PUSH1 0xA0 ADD SWAP1 RETURN JUMPDEST PUSH2 0x177 PUSH2 0x762 JUMP JUMPDEST PUSH2 0x177 PUSH2 0x768 JUMP JUMPDEST PUSH2 0x177 PUSH2 0x76E JUMP JUMPDEST PUSH2 0x1BB PUSH1 0x4 DUP1 CALLDATASIZE SUB PUSH1 0x60 DUP2 LT ISZERO PUSH2 0x23D JUMPI PUSH1 0x0 DUP1 REVERT JUMPDEST POP DUP1 CALLDATALOAD SWAP1 PUSH1 0x20 DUP2 ADD CALLDATALOAD SWAP1 PUSH1 0x40 ADD CALLDATALOAD ISZERO ISZERO PUSH2 0x774 JUMP JUMPDEST PUSH2 0x177 PUSH2 0x84F JUMP JUMPDEST PUSH2 0x1BB PUSH1 0x4 DUP1 CALLDATASIZE SUB PUSH1 0x20 DUP2 LT ISZERO PUSH2 0x270 JUMPI PUSH1 0x0 DUP1 REVERT JUMPDEST POP CALLDATALOAD PUSH2 0x855 JUMP JUMPDEST PUSH2 0x1BB PUSH1 0x4 DUP1 CALLDATASIZE SUB PUSH1 0x20 DUP2 LT ISZERO PUSH2 0x28D JUMPI PUSH1 0x0 DUP1 REVERT JUMPDEST POP CALLDATALOAD PUSH2 0x8BC JUMP JUMPDEST PUSH2 0x1BB PUSH1 0x4 DUP1 CALLDATASIZE SUB PUSH1 0x20 DUP2 LT ISZERO PUSH2 0x2AA JUMPI PUSH1 0x0 DUP1 REVERT JUMPDEST POP CALLDATALOAD PUSH2 0xCA1 JUMP JUMPDEST PUSH2 0x1BB PUSH2 0xD3C JUMP JUMPDEST PUSH2 0x1BB PUSH2 0xD5F JUMP JUMPDEST PUSH2 0x1BB PUSH1 0x4 DUP1 CALLDATASIZE SUB PUSH1 0x60 DUP2 LT ISZERO PUSH2 0x2D7 JUMPI PUSH1 0x0 DUP1 REVERT JUMPDEST POP DUP1 CALLDATALOAD SWAP1 PUSH1 0x1 PUSH1 0x1 PUSH1 0xA0 SHL SUB PUSH1 0x20 DUP3 ADD CALLDATALOAD AND SWAP1 PUSH1 0x40 ADD CALLDATALOAD ISZERO ISZERO PUSH2 0xDF9 JUMP JUMPDEST PUSH2 0x2FD PUSH2 0x1052 JUMP JUMPDEST PUSH1 0x40 DUP1 MLOAD PUSH1 0x1 PUSH1 0x1 PUSH1 0xA0 SHL SUB SWAP1 SWAP3 AND DUP3 MSTORE MLOAD SWAP1 DUP2 SWAP1 SUB PUSH1 0x20 ADD SWAP1 RETURN JUMPDEST PUSH2 0x177 PUSH1 0x4 DUP1 CALLDATASIZE SUB PUSH1 0x40 DUP2 LT ISZERO PUSH2 0x32F JUMPI PUSH1 0x0 DUP1 REVERT JUMPDEST POP DUP1 CALLDATALOAD SWAP1 PUSH1 0x20 ADD CALLDATALOAD PUSH2 0x1061 JUMP JUMPDEST PUSH2 0x368 PUSH1 0x4 DUP1 CALLDATASIZE SUB PUSH1 0x40 DUP2 LT ISZERO PUSH2 0x352 JUMPI PUSH1 0x0 DUP1 REVERT JUMPDEST POP DUP1 CALLDATALOAD SWAP1 PUSH1 0x20 ADD CALLDATALOAD PUSH1 0x1 PUSH1 0x1 PUSH1 0xA0 SHL SUB AND PUSH2 0x10D3 JUMP JUMPDEST PUSH1 0x40 DUP1 MLOAD SWAP5 DUP6 MSTORE PUSH1 0x20 DUP6 ADD SWAP4 SWAP1 SWAP4 MSTORE DUP4 DUP4 ADD SWAP2 SWAP1 SWAP2 MSTORE PUSH1 0x1 PUSH1 0x1 PUSH1 0xA0 SHL SUB AND PUSH1 0x60 DUP4 ADD MSTORE MLOAD SWAP1 DUP2 SWAP1 SUB PUSH1 0x80 ADD SWAP1 RETURN JUMPDEST PUSH2 0x177 PUSH1 0x4 DUP1 CALLDATASIZE SUB PUSH1 0x40 DUP2 LT ISZERO PUSH2 0x3AD JUMPI PUSH1 0x0 DUP1 REVERT JUMPDEST POP DUP1 CALLDATALOAD SWAP1 PUSH1 0x20 ADD CALLDATALOAD PUSH1 0x1 PUSH1 0x1 PUSH1 0xA0 SHL SUB AND PUSH2 0x110E JUMP JUMPDEST PUSH2 0x2FD PUSH2 0x1272 JUMP JUMPDEST PUSH2 0x177 PUSH2 0x1281 JUMP JUMPDEST PUSH2 0x3F9 PUSH1 0x4 DUP1 CALLDATASIZE SUB PUSH1 0x20 DUP2 LT ISZERO PUSH2 0x3E9 JUMPI PUSH1 0x0 DUP1 REVERT JUMPDEST POP CALLDATALOAD PUSH1 0x1 PUSH1 0x1 PUSH1 0xA0 SHL SUB AND PUSH2 0x1287 JUMP JUMPDEST PUSH1 0x40 DUP1 MLOAD SWAP2 ISZERO ISZERO DUP3 MSTORE MLOAD SWAP1 DUP2 SWAP1 SUB PUSH1 0x20 ADD SWAP1 RETURN JUMPDEST PUSH2 0x1BB PUSH1 0x4 DUP1 CALLDATASIZE SUB PUSH1 0x60 DUP2 LT ISZERO PUSH2 0x423 JUMPI PUSH1 0x0 DUP1 REVERT JUMPDEST POP PUSH1 0x1 PUSH1 0x1 PUSH1 0xA0 SHL SUB DUP2 CALLDATALOAD AND SWAP1 PUSH1 0x20 DUP2 ADD CALLDATALOAD SWAP1 PUSH1 0x40 ADD CALLDATALOAD PUSH2 0x12ED JUMP JUMPDEST PUSH2 0x177 PUSH2 0x12FD JUMP JUMPDEST PUSH2 0x1BB PUSH1 0x4 DUP1 CALLDATASIZE SUB PUSH1 0x40 DUP2 LT ISZERO PUSH2 0x45D JUMPI PUSH1 0x0 DUP1 REVERT JUMPDEST POP PUSH1 0x1 PUSH1 0x1 PUSH1 0xA0 SHL SUB DUP2 CALLDATALOAD AND SWAP1 PUSH1 0x20 ADD CALLDATALOAD PUSH2 0x1303 JUMP JUMPDEST PUSH2 0x1BB PUSH1 0x4 DUP1 CALLDATASIZE SUB PUSH1 0x20 DUP2 LT ISZERO PUSH2 0x489 JUMPI PUSH1 0x0 DUP1 REVERT JUMPDEST POP CALLDATALOAD PUSH1 0x1 PUSH1 0x1 PUSH1 0xA0 SHL SUB AND PUSH2 0x1333 JUMP JUMPDEST PUSH2 0x2FD PUSH2 0x13A0 JUMP JUMPDEST PUSH2 0x1BB PUSH1 0x4 DUP1 CALLDATASIZE SUB PUSH1 0x20 DUP2 LT ISZERO PUSH2 0x4B7 JUMPI PUSH1 0x0 DUP1 REVERT JUMPDEST POP CALLDATALOAD PUSH2 0x13AF JUMP JUMPDEST PUSH2 0x1BB PUSH1 0x4 DUP1 CALLDATASIZE SUB PUSH1 0x40 DUP2 LT ISZERO PUSH2 0x4D4 JUMPI PUSH1 0x0 DUP1 REVERT JUMPDEST POP PUSH1 0x1 PUSH1 0x1 PUSH1 0xA0 SHL SUB DUP2 CALLDATALOAD AND SWAP1 PUSH1 0x20 ADD CALLDATALOAD PUSH2 0x143E JUMP JUMPDEST PUSH2 0x1BB PUSH1 0x4 DUP1 CALLDATASIZE SUB PUSH1 0x20 DUP2 LT ISZERO PUSH2 0x500 JUMPI PUSH1 0x0 DUP1 REVERT JUMPDEST POP CALLDATALOAD PUSH1 0x1 PUSH1 0x1 PUSH1 0xA0 SHL SUB AND PUSH2 0x1511 JUMP JUMPDEST PUSH2 0x1BB PUSH1 0x4 DUP1 CALLDATASIZE SUB PUSH1 0x60 DUP2 LT ISZERO PUSH2 0x526 JUMPI PUSH1 0x0 DUP1 REVERT JUMPDEST POP DUP1 CALLDATALOAD SWAP1 PUSH1 0x20 DUP2 ADD CALLDATALOAD SWAP1 PUSH1 0x40 ADD CALLDATALOAD PUSH2 0x1601 JUMP JUMPDEST PUSH1 0x7 SLOAD SWAP1 JUMP JUMPDEST PUSH1 0x0 PUSH1 0x7 DUP4 DUP2 SLOAD DUP2 LT PUSH2 0x54E JUMPI INVALID JUMPDEST PUSH1 0x0 SWAP2 DUP3 MSTORE PUSH1 0x20 DUP1 DUP4 KECCAK256 DUP7 DUP5 MSTORE PUSH1 0x8 DUP3 MSTORE PUSH1 0x40 DUP1 DUP6 KECCAK256 PUSH1 0x1 PUSH1 0x1 PUSH1 0xA0 SHL SUB DUP1 DUP12 AND DUP8 MSTORE SWAP4 MSTORE SWAP1 SWAP4 KECCAK256 PUSH1 0x3 DUP2 ADD SLOAD PUSH1 0x5 SWAP1 SWAP4 MUL SWAP1 SWAP4 ADD SWAP4 POP AND ISZERO PUSH2 0x5D6 JUMPI PUSH1 0x3 DUP2 ADD SLOAD PUSH1 0x1 PUSH1 0x1 PUSH1 0xA0 SHL SUB AND CALLER EQ PUSH2 0x5D6 JUMPI PUSH1 0x40 DUP1 MLOAD PUSH3 0x461BCD PUSH1 0xE5 SHL DUP2 MSTORE PUSH1 0x20 PUSH1 0x4 DUP3 ADD MSTORE PUSH1 0x7 PUSH1 0x24 DUP3 ADD MSTORE PUSH7 0x3130B21039B7B3 PUSH1 0xC9 SHL PUSH1 0x44 DUP3 ADD MSTORE SWAP1 MLOAD SWAP1 DUP2 SWAP1 SUB PUSH1 0x64 ADD SWAP1 REVERT JUMPDEST DUP2 SLOAD PUSH1 0x1 PUSH1 0x1 PUSH1 0xA0 SHL SUB AND PUSH2 0x630 JUMPI PUSH1 0x40 DUP1 MLOAD PUSH3 0x461BCD PUSH1 0xE5 SHL DUP2 MSTORE PUSH1 0x20 PUSH1 0x4 DUP3 ADD MSTORE PUSH1 0x1B PUSH1 0x24 DUP3 ADD MSTORE PUSH27 0x19195C1BDCDA5D0E881B9BDD081858D8D95C1D0819195C1BDCDA5D PUSH1 0x2A SHL PUSH1 0x44 DUP3 ADD MSTORE SWAP1 MLOAD SWAP1 DUP2 SWAP1 SUB PUSH1 0x64 ADD SWAP1 REVERT JUMPDEST PUSH2 0x639 DUP5 PUSH2 0x8BC JUMP JUMPDEST DUP1 SLOAD ISZERO PUSH2 0x64A JUMPI PUSH2 0x64A DUP6 DUP6 PUSH2 0x1718 JUMP JUMPDEST PUSH1 0x3 DUP2 ADD SLOAD PUSH1 0x1 PUSH1 0x1 PUSH1 0xA0 SHL SUB AND PUSH2 0x671 JUMPI PUSH1 0x3 DUP2 ADD DUP1 SLOAD PUSH1 0x1 PUSH1 0x1 PUSH1 0xA0 SHL SUB NOT AND CALLER OR SWAP1 SSTORE JUMPDEST DUP2 SLOAD PUSH2 0x688 SWAP1 PUSH1 0x1 PUSH1 0x1 PUSH1 0xA0 SHL SUB AND CALLER ADDRESS DUP7 PUSH2 0x1961 JUMP JUMPDEST DUP1 SLOAD PUSH2 0x694 SWAP1 DUP5 PUSH2 0x19C1 JUMP JUMPDEST DUP1 DUP3 SSTORE PUSH1 0x3 DUP4 ADD SLOAD PUSH2 0x6B7 SWAP2 PUSH5 0xE8D4A51000 SWAP2 PUSH2 0x6B1 SWAP2 SWAP1 PUSH2 0x1A19 JUMP JUMPDEST SWAP1 PUSH2 0x1A72 JUMP JUMPDEST PUSH1 0x1 DUP3 ADD SSTORE PUSH1 0x4 DUP3 ADD SLOAD DUP2 SLOAD PUSH2 0x6D7 SWAP2 PUSH5 0xE8D4A51000 SWAP2 PUSH2 0x6B1 SWAP2 PUSH2 0x1A19 JUMP JUMPDEST PUSH1 0x2 DUP3 ADD SSTORE PUSH1 0x40 DUP1 MLOAD DUP5 DUP2 MSTORE SWAP1 MLOAD DUP6 SWAP2 CALLER SWAP2 PUSH32 0x90890809C654F11D6E72A28FA60149770A0D11EC6C92319D6CEB2BB0A4EA1A15 SWAP2 DUP2 SWAP1 SUB PUSH1 0x20 ADD SWAP1 LOG3 POP POP POP POP POP JUMP JUMPDEST PUSH1 0x7 DUP2 DUP2 SLOAD DUP2 LT PUSH2 0x727 JUMPI INVALID JUMPDEST PUSH1 0x0 SWAP2 DUP3 MSTORE PUSH1 0x20 SWAP1 SWAP2 KECCAK256 PUSH1 0x5 SWAP1 SWAP2 MUL ADD DUP1 SLOAD PUSH1 0x1 DUP3 ADD SLOAD PUSH1 0x2 DUP4 ADD SLOAD PUSH1 0x3 DUP5 ADD SLOAD PUSH1 0x4 SWAP1 SWAP5 ADD SLOAD PUSH1 0x1 PUSH1 0x1 PUSH1 0xA0 SHL SUB SWAP1 SWAP4 AND SWAP5 POP SWAP1 SWAP3 SWAP1 SWAP2 DUP6 JUMP JUMPDEST PUSH1 0x9 SLOAD DUP2 JUMP JUMPDEST PUSH1 0x5 SLOAD DUP2 JUMP JUMPDEST PUSH1 0x3 SLOAD DUP2 JUMP JUMPDEST PUSH2 0x77C PUSH2 0x1AD6 JUMP JUMPDEST PUSH1 0x1 PUSH1 0x1 PUSH1 0xA0 SHL SUB AND PUSH2 0x78D PUSH2 0x1052 JUMP JUMPDEST PUSH1 0x1 PUSH1 0x1 PUSH1 0xA0 SHL SUB AND EQ PUSH2 0x7D6 JUMPI PUSH1 0x40 DUP1 MLOAD PUSH3 0x461BCD PUSH1 0xE5 SHL DUP2 MSTORE PUSH1 0x20 PUSH1 0x4 DUP3 ADD DUP2 SWAP1 MSTORE PUSH1 0x24 DUP3 ADD MSTORE PUSH1 0x0 DUP1 MLOAD PUSH1 0x20 PUSH2 0x21E5 DUP4 CODECOPY DUP2 MLOAD SWAP2 MSTORE PUSH1 0x44 DUP3 ADD MSTORE SWAP1 MLOAD SWAP1 DUP2 SWAP1 SUB PUSH1 0x64 ADD SWAP1 REVERT JUMPDEST DUP1 ISZERO PUSH2 0x7E4 JUMPI PUSH2 0x7E4 PUSH2 0xD3C JUMP JUMPDEST PUSH2 0x821 DUP3 PUSH2 0x81B PUSH1 0x7 DUP7 DUP2 SLOAD DUP2 LT PUSH2 0x7F8 JUMPI INVALID JUMPDEST SWAP1 PUSH1 0x0 MSTORE PUSH1 0x20 PUSH1 0x0 KECCAK256 SWAP1 PUSH1 0x5 MUL ADD PUSH1 0x1 ADD SLOAD PUSH1 0x9 SLOAD PUSH2 0x1ADA SWAP1 SWAP2 SWAP1 PUSH4 0xFFFFFFFF AND JUMP JUMPDEST SWAP1 PUSH2 0x19C1 JUMP JUMPDEST PUSH1 0x9 DUP2 SWAP1 SSTORE POP DUP2 PUSH1 0x7 DUP5 DUP2 SLOAD DUP2 LT PUSH2 0x835 JUMPI INVALID JUMPDEST SWAP1 PUSH1 0x0 MSTORE PUSH1 0x20 PUSH1 0x0 KECCAK256 SWAP1 PUSH1 0x5 MUL ADD PUSH1 0x1 ADD DUP2 SWAP1 SSTORE POP POP POP POP JUMP JUMPDEST PUSH1 0xA SLOAD DUP2 JUMP JUMPDEST PUSH2 0x85D PUSH2 0x1AD6 JUMP JUMPDEST PUSH1 0x1 PUSH1 0x1 PUSH1 0xA0 SHL SUB AND PUSH2 0x86E PUSH2 0x1052 JUMP JUMPDEST PUSH1 0x1 PUSH1 0x1 PUSH1 0xA0 SHL SUB AND EQ PUSH2 0x8B7 JUMPI PUSH1 0x40 DUP1 MLOAD PUSH3 0x461BCD PUSH1 0xE5 SHL DUP2 MSTORE PUSH1 0x20 PUSH1 0x4 DUP3 ADD DUP2 SWAP1 MSTORE PUSH1 0x24 DUP3 ADD MSTORE PUSH1 0x0 DUP1 MLOAD PUSH1 0x20 PUSH2 0x21E5 DUP4 CODECOPY DUP2 MLOAD SWAP2 MSTORE PUSH1 0x44 DUP3 ADD MSTORE SWAP1 MLOAD SWAP1 DUP2 SWAP1 SUB PUSH1 0x64 ADD SWAP1 REVERT JUMPDEST PUSH1 0x3 SSTORE JUMP JUMPDEST PUSH1 0x0 PUSH1 0x7 DUP3 DUP2 SLOAD DUP2 LT PUSH2 0x8CB JUMPI INVALID JUMPDEST SWAP1 PUSH1 0x0 MSTORE PUSH1 0x20 PUSH1 0x0 KECCAK256 SWAP1 PUSH1 0x5 MUL ADD SWAP1 POP DUP1 PUSH1 0x2 ADD SLOAD NUMBER GT PUSH2 0x8EC JUMPI POP PUSH2 0xC9E JUMP JUMPDEST DUP1 SLOAD PUSH1 0x40 DUP1 MLOAD PUSH4 0x70A08231 PUSH1 0xE0 SHL DUP2 MSTORE ADDRESS PUSH1 0x4 DUP3 ADD MSTORE SWAP1 MLOAD PUSH1 0x0 SWAP3 PUSH1 0x1 PUSH1 0x1 PUSH1 0xA0 SHL SUB AND SWAP2 PUSH4 0x70A08231 SWAP2 PUSH1 0x24 DUP1 DUP4 ADD SWAP3 PUSH1 0x20 SWAP3 SWAP2 SWAP1 DUP3 SWAP1 SUB ADD DUP2 DUP7 DUP1 EXTCODESIZE ISZERO DUP1 ISZERO PUSH2 0x936 JUMPI PUSH1 0x0 DUP1 REVERT JUMPDEST POP GAS STATICCALL ISZERO DUP1 ISZERO PUSH2 0x94A JUMPI RETURNDATASIZE PUSH1 0x0 DUP1 RETURNDATACOPY RETURNDATASIZE PUSH1 0x0 REVERT JUMPDEST POP POP POP POP PUSH1 0x40 MLOAD RETURNDATASIZE PUSH1 0x20 DUP2 LT ISZERO PUSH2 0x960 JUMPI PUSH1 0x0 DUP1 REVERT JUMPDEST POP MLOAD SWAP1 POP DUP1 PUSH2 0x976 JUMPI POP NUMBER PUSH1 0x2 SWAP1 SWAP2 ADD SSTORE PUSH2 0xC9E JUMP JUMPDEST PUSH1 0x0 PUSH2 0x986 DUP4 PUSH1 0x2 ADD SLOAD NUMBER PUSH2 0x1061 JUMP JUMPDEST SWAP1 POP PUSH1 0x0 PUSH2 0x9B3 PUSH1 0x9 SLOAD PUSH2 0x6B1 DUP7 PUSH1 0x1 ADD SLOAD PUSH2 0x9AD PUSH1 0x3 SLOAD DUP8 PUSH2 0x1A19 SWAP1 SWAP2 SWAP1 PUSH4 0xFFFFFFFF AND JUMP JUMPDEST SWAP1 PUSH2 0x1A19 JUMP JUMPDEST PUSH1 0x1 SLOAD PUSH1 0x2 SLOAD SWAP2 SWAP3 POP PUSH1 0x1 PUSH1 0x1 PUSH1 0xA0 SHL SUB SWAP1 DUP2 AND SWAP2 PUSH4 0x40C10F19 SWAP2 AND PUSH2 0x9DA DUP5 PUSH1 0xA PUSH2 0x1A72 JUMP JUMPDEST PUSH1 0x40 MLOAD DUP4 PUSH4 0xFFFFFFFF AND PUSH1 0xE0 SHL DUP2 MSTORE PUSH1 0x4 ADD DUP1 DUP4 PUSH1 0x1 PUSH1 0x1 PUSH1 0xA0 SHL SUB AND DUP2 MSTORE PUSH1 0x20 ADD DUP3 DUP2 MSTORE PUSH1 0x20 ADD SWAP3 POP POP POP PUSH1 0x0 PUSH1 0x40 MLOAD DUP1 DUP4 SUB DUP2 PUSH1 0x0 DUP8 DUP1 EXTCODESIZE ISZERO DUP1 ISZERO PUSH2 0xA20 JUMPI PUSH1 0x0 DUP1 REVERT JUMPDEST POP GAS CALL ISZERO DUP1 ISZERO PUSH2 0xA34 JUMPI RETURNDATASIZE PUSH1 0x0 DUP1 RETURNDATACOPY RETURNDATASIZE PUSH1 0x0 REVERT JUMPDEST POP POP PUSH1 0x1 SLOAD PUSH1 0x40 DUP1 MLOAD PUSH4 0x40C10F19 PUSH1 0xE0 SHL DUP2 MSTORE ADDRESS PUSH1 0x4 DUP3 ADD MSTORE PUSH1 0x24 DUP2 ADD DUP7 SWAP1 MSTORE SWAP1 MLOAD PUSH1 0x1 PUSH1 0x1 PUSH1 0xA0 SHL SUB SWAP1 SWAP3 AND SWAP4 POP PUSH4 0x40C10F19 SWAP3 POP PUSH1 0x44 DUP1 DUP3 ADD SWAP3 PUSH1 0x0 SWAP3 SWAP1 SWAP2 SWAP1 DUP3 SWAP1 SUB ADD DUP2 DUP4 DUP8 DUP1 EXTCODESIZE ISZERO DUP1 ISZERO PUSH2 0xA8B JUMPI PUSH1 0x0 DUP1 REVERT JUMPDEST POP GAS CALL ISZERO DUP1 ISZERO PUSH2 0xA9F JUMPI RETURNDATASIZE PUSH1 0x0 DUP1 RETURNDATACOPY RETURNDATASIZE PUSH1 0x0 REVERT JUMPDEST POP POP POP POP PUSH2 0xACD PUSH2 0xAC2 DUP5 PUSH2 0x6B1 PUSH5 0xE8D4A51000 DUP6 PUSH2 0x1A19 SWAP1 SWAP2 SWAP1 PUSH4 0xFFFFFFFF AND JUMP JUMPDEST PUSH1 0x3 DUP7 ADD SLOAD SWAP1 PUSH2 0x19C1 JUMP JUMPDEST PUSH1 0x3 DUP6 ADD SSTORE PUSH1 0x5 SLOAD NUMBER GT PUSH2 0xB78 JUMPI PUSH1 0x1 SLOAD PUSH1 0x2 SLOAD PUSH1 0x6 SLOAD PUSH1 0x1 PUSH1 0x1 PUSH1 0xA0 SHL SUB SWAP3 DUP4 AND SWAP3 PUSH4 0x282D3FDF SWAP3 AND SWAP1 PUSH2 0xB0F SWAP1 PUSH2 0x2710 SWAP1 PUSH2 0x6B1 SWAP1 PUSH2 0x9AD DUP9 PUSH1 0xA PUSH2 0x1A72 JUMP JUMPDEST PUSH1 0x40 MLOAD DUP4 PUSH4 0xFFFFFFFF AND PUSH1 0xE0 SHL DUP2 MSTORE PUSH1 0x4 ADD DUP1 DUP4 PUSH1 0x1 PUSH1 0x1 PUSH1 0xA0 SHL SUB AND DUP2 MSTORE PUSH1 0x20 ADD DUP3 DUP2 MSTORE PUSH1 0x20 ADD SWAP3 POP POP POP PUSH1 0x0 PUSH1 0x40 MLOAD DUP1 DUP4 SUB DUP2 PUSH1 0x0 DUP8 DUP1 EXTCODESIZE ISZERO DUP1 ISZERO PUSH2 0xB55 JUMPI PUSH1 0x0 DUP1 REVERT JUMPDEST POP GAS CALL ISZERO DUP1 ISZERO PUSH2 0xB69 JUMPI RETURNDATASIZE PUSH1 0x0 DUP1 RETURNDATACOPY RETURNDATASIZE PUSH1 0x0 REVERT JUMPDEST POP POP POP PUSH1 0x3 DUP6 ADD SLOAD PUSH1 0x4 DUP7 ADD SSTORE POP JUMPDEST PUSH1 0x5 SLOAD NUMBER GT DUP1 ISZERO PUSH2 0xB8E JUMPI POP PUSH1 0x5 SLOAD DUP5 PUSH1 0x2 ADD SLOAD LT JUMPDEST ISZERO PUSH2 0xC90 JUMPI PUSH1 0x0 PUSH2 0xBC8 PUSH1 0x9 SLOAD PUSH2 0x6B1 DUP8 PUSH1 0x1 ADD SLOAD PUSH2 0x9AD PUSH1 0x3 SLOAD PUSH2 0x9AD PUSH1 0x4 SLOAD PUSH2 0x9AD DUP14 PUSH1 0x2 ADD SLOAD PUSH1 0x5 SLOAD PUSH2 0x1ADA SWAP1 SWAP2 SWAP1 PUSH4 0xFFFFFFFF AND JUMP JUMPDEST PUSH1 0x1 SLOAD PUSH1 0x2 SLOAD PUSH1 0x6 SLOAD SWAP3 SWAP4 POP PUSH1 0x1 PUSH1 0x1 PUSH1 0xA0 SHL SUB SWAP2 DUP3 AND SWAP3 PUSH4 0x282D3FDF SWAP3 SWAP1 SWAP2 AND SWAP1 PUSH2 0xC01 SWAP1 PUSH2 0x2710 SWAP1 PUSH2 0x6B1 SWAP1 PUSH2 0x9AD DUP9 PUSH1 0xA PUSH2 0x1A72 JUMP JUMPDEST PUSH1 0x40 MLOAD DUP4 PUSH4 0xFFFFFFFF AND PUSH1 0xE0 SHL DUP2 MSTORE PUSH1 0x4 ADD DUP1 DUP4 PUSH1 0x1 PUSH1 0x1 PUSH1 0xA0 SHL SUB AND DUP2 MSTORE PUSH1 0x20 ADD DUP3 DUP2 MSTORE PUSH1 0x20 ADD SWAP3 POP POP POP PUSH1 0x0 PUSH1 0x40 MLOAD DUP1 DUP4 SUB DUP2 PUSH1 0x0 DUP8 DUP1 EXTCODESIZE ISZERO DUP1 ISZERO PUSH2 0xC47 JUMPI PUSH1 0x0 DUP1 REVERT JUMPDEST POP GAS CALL ISZERO DUP1 ISZERO PUSH2 0xC5B JUMPI RETURNDATASIZE PUSH1 0x0 DUP1 RETURNDATACOPY RETURNDATASIZE PUSH1 0x0 REVERT JUMPDEST POP POP POP POP PUSH2 0xC89 PUSH2 0xC7E DUP6 PUSH2 0x6B1 PUSH5 0xE8D4A51000 DUP6 PUSH2 0x1A19 SWAP1 SWAP2 SWAP1 PUSH4 0xFFFFFFFF AND JUMP JUMPDEST PUSH1 0x4 DUP8 ADD SLOAD SWAP1 PUSH2 0x19C1 JUMP JUMPDEST PUSH1 0x4 DUP7 ADD SSTORE POP JUMPDEST NUMBER DUP5 PUSH1 0x2 ADD DUP2 SWAP1 SSTORE POP POP POP POP POP JUMPDEST POP JUMP JUMPDEST PUSH1 0x0 PUSH1 0x7 DUP3 DUP2 SLOAD DUP2 LT PUSH2 0xCB0 JUMPI INVALID JUMPDEST PUSH1 0x0 SWAP2 DUP3 MSTORE PUSH1 0x20 DUP1 DUP4 KECCAK256 DUP6 DUP5 MSTORE PUSH1 0x8 DUP3 MSTORE PUSH1 0x40 DUP1 DUP6 KECCAK256 CALLER DUP1 DUP8 MSTORE SWAP4 MSTORE SWAP1 SWAP4 KECCAK256 DUP1 SLOAD PUSH1 0x5 SWAP1 SWAP4 MUL SWAP1 SWAP4 ADD DUP1 SLOAD SWAP1 SWAP5 POP PUSH2 0xCF5 SWAP3 PUSH1 0x1 PUSH1 0x1 PUSH1 0xA0 SHL SUB SWAP2 SWAP1 SWAP2 AND SWAP2 SWAP1 PUSH2 0x1B37 JUMP JUMPDEST DUP1 SLOAD PUSH1 0x40 DUP1 MLOAD SWAP2 DUP3 MSTORE MLOAD DUP5 SWAP2 CALLER SWAP2 PUSH32 0xBB757047C2B5F3974FE26B7C10F732E7BCE710B0952A71082702781E62AE0595 SWAP2 DUP2 SWAP1 SUB PUSH1 0x20 ADD SWAP1 LOG3 PUSH1 0x0 DUP1 DUP3 SSTORE PUSH1 0x1 SWAP1 SWAP2 ADD SSTORE POP POP JUMP JUMPDEST PUSH1 0x7 SLOAD PUSH1 0x0 JUMPDEST DUP2 DUP2 LT ISZERO PUSH2 0xD5B JUMPI PUSH2 0xD53 DUP2 PUSH2 0x8BC JUMP JUMPDEST PUSH1 0x1 ADD PUSH2 0xD42 JUMP JUMPDEST POP POP JUMP JUMPDEST PUSH2 0xD67 PUSH2 0x1AD6 JUMP JUMPDEST PUSH1 0x1 PUSH1 0x1 PUSH1 0xA0 SHL SUB AND PUSH2 0xD78 PUSH2 0x1052 JUMP JUMPDEST PUSH1 0x1 PUSH1 0x1 PUSH1 0xA0 SHL SUB AND EQ PUSH2 0xDC1 JUMPI PUSH1 0x40 DUP1 MLOAD PUSH3 0x461BCD PUSH1 0xE5 SHL DUP2 MSTORE PUSH1 0x20 PUSH1 0x4 DUP3 ADD DUP2 SWAP1 MSTORE PUSH1 0x24 DUP3 ADD MSTORE PUSH1 0x0 DUP1 MLOAD PUSH1 0x20 PUSH2 0x21E5 DUP4 CODECOPY DUP2 MLOAD SWAP2 MSTORE PUSH1 0x44 DUP3 ADD MSTORE SWAP1 MLOAD SWAP1 DUP2 SWAP1 SUB PUSH1 0x64 ADD SWAP1 REVERT JUMPDEST PUSH1 0x0 DUP1 SLOAD PUSH1 0x40 MLOAD PUSH1 0x1 PUSH1 0x1 PUSH1 0xA0 SHL SUB SWAP1 SWAP2 AND SWAP1 PUSH1 0x0 DUP1 MLOAD PUSH1 0x20 PUSH2 0x2205 DUP4 CODECOPY DUP2 MLOAD SWAP2 MSTORE SWAP1 DUP4 SWAP1 LOG3 PUSH1 0x0 DUP1 SLOAD PUSH1 0x1 PUSH1 0x1 PUSH1 0xA0 SHL SUB NOT AND SWAP1 SSTORE JUMP JUMPDEST PUSH2 0xE01 PUSH2 0x1AD6 JUMP JUMPDEST PUSH1 0x1 PUSH1 0x1 PUSH1 0xA0 SHL SUB AND PUSH2 0xE12 PUSH2 0x1052 JUMP JUMPDEST PUSH1 0x1 PUSH1 0x1 PUSH1 0xA0 SHL SUB AND EQ PUSH2 0xE5B JUMPI PUSH1 0x40 DUP1 MLOAD PUSH3 0x461BCD PUSH1 0xE5 SHL DUP2 MSTORE PUSH1 0x20 PUSH1 0x4 DUP3 ADD DUP2 SWAP1 MSTORE PUSH1 0x24 DUP3 ADD MSTORE PUSH1 0x0 DUP1 MLOAD PUSH1 0x20 PUSH2 0x21E5 DUP4 CODECOPY DUP2 MLOAD SWAP2 MSTORE PUSH1 0x44 DUP3 ADD MSTORE SWAP1 MLOAD SWAP1 DUP2 SWAP1 SUB PUSH1 0x64 ADD SWAP1 REVERT JUMPDEST DUP1 ISZERO PUSH2 0xE69 JUMPI PUSH2 0xE69 PUSH2 0xD3C JUMP JUMPDEST PUSH1 0x1 PUSH1 0x1 PUSH1 0xA0 SHL SUB DUP3 AND PUSH2 0xEBF JUMPI PUSH1 0x40 DUP1 MLOAD PUSH3 0x461BCD PUSH1 0xE5 SHL DUP2 MSTORE PUSH1 0x20 PUSH1 0x4 DUP3 ADD MSTORE PUSH1 0x18 PUSH1 0x24 DUP3 ADD MSTORE PUSH24 0x30B2321D103737BA1039BA30B5B2AA37B5B2B71030B23239 PUSH1 0x41 SHL PUSH1 0x44 DUP3 ADD MSTORE SWAP1 MLOAD SWAP1 DUP2 SWAP1 SUB PUSH1 0x64 ADD SWAP1 REVERT JUMPDEST PUSH2 0xEC8 DUP3 PUSH2 0x1287 JUMP JUMPDEST ISZERO PUSH2 0xF10 JUMPI PUSH1 0x40 DUP1 MLOAD PUSH3 0x461BCD PUSH1 0xE5 SHL DUP2 MSTORE PUSH1 0x20 PUSH1 0x4 DUP3 ADD MSTORE PUSH1 0x13 PUSH1 0x24 DUP3 ADD MSTORE PUSH19 0x6164643A207374616B65546F6B656E2064757 PUSH1 0x6C SHL PUSH1 0x44 DUP3 ADD MSTORE SWAP1 MLOAD SWAP1 DUP2 SWAP1 SUB PUSH1 0x64 ADD SWAP1 REVERT JUMPDEST PUSH1 0x0 PUSH1 0xA SLOAD NUMBER GT PUSH2 0xF23 JUMPI PUSH1 0xA SLOAD PUSH2 0xF25 JUMP JUMPDEST NUMBER JUMPDEST PUSH1 0x9 SLOAD SWAP1 SWAP2 POP PUSH2 0xF35 SWAP1 DUP6 PUSH2 0x19C1 JUMP JUMPDEST PUSH1 0x9 SSTORE PUSH1 0x40 DUP1 MLOAD PUSH1 0xA0 DUP2 ADD DUP3 MSTORE PUSH1 0x1 PUSH1 0x1 PUSH1 0xA0 SHL SUB SWAP5 DUP6 AND DUP2 MSTORE PUSH1 0x20 DUP2 ADD SWAP6 DUP7 MSTORE SWAP1 DUP2 ADD SWAP2 DUP3 MSTORE PUSH1 0x0 PUSH1 0x60 DUP3 ADD DUP2 DUP2 MSTORE PUSH1 0x80 DUP4 ADD DUP3 DUP2 MSTORE PUSH1 0x7 DUP1 SLOAD PUSH1 0x1 DUP2 ADD DUP3 SSTORE SWAP4 MSTORE SWAP3 MLOAD PUSH32 0xA66CC928B5EDB82AF9BD49922954155AB7B0942694BEA4CE44661D9A8736C688 PUSH1 0x5 SWAP1 SWAP4 MUL SWAP3 DUP4 ADD DUP1 SLOAD PUSH1 0x1 PUSH1 0x1 PUSH1 0xA0 SHL SUB NOT AND SWAP2 SWAP1 SWAP8 AND OR SWAP1 SWAP6 SSTORE SWAP5 MLOAD PUSH32 0xA66CC928B5EDB82AF9BD49922954155AB7B0942694BEA4CE44661D9A8736C689 DUP7 ADD SSTORE SWAP1 MLOAD PUSH32 0xA66CC928B5EDB82AF9BD49922954155AB7B0942694BEA4CE44661D9A8736C68A DUP6 ADD SSTORE SWAP2 MLOAD PUSH32 0xA66CC928B5EDB82AF9BD49922954155AB7B0942694BEA4CE44661D9A8736C68B DUP5 ADD SSTORE POP MLOAD PUSH32 0xA66CC928B5EDB82AF9BD49922954155AB7B0942694BEA4CE44661D9A8736C68C SWAP1 SWAP2 ADD SSTORE JUMP JUMPDEST PUSH1 0x0 SLOAD PUSH1 0x1 PUSH1 0x1 PUSH1 0xA0 SHL SUB AND SWAP1 JUMP JUMPDEST PUSH1 0x0 PUSH1 0x5 SLOAD DUP3 GT PUSH2 0x1084 JUMPI PUSH1 0x4 SLOAD PUSH2 0x107D SWAP1 PUSH2 0x9AD DUP5 DUP7 PUSH2 0x1ADA JUMP JUMPDEST SWAP1 POP PUSH2 0x10CD JUMP JUMPDEST PUSH1 0x5 SLOAD DUP4 LT PUSH2 0x1097 JUMPI PUSH2 0x107D DUP3 DUP5 PUSH2 0x1ADA JUMP JUMPDEST PUSH2 0x10CA PUSH2 0x10AF PUSH1 0x5 SLOAD DUP5 PUSH2 0x1ADA SWAP1 SWAP2 SWAP1 PUSH4 0xFFFFFFFF AND JUMP JUMPDEST PUSH2 0x81B PUSH1 0x4 SLOAD PUSH2 0x9AD DUP8 PUSH1 0x5 SLOAD PUSH2 0x1ADA SWAP1 SWAP2 SWAP1 PUSH4 0xFFFFFFFF AND JUMP JUMPDEST SWAP1 POP JUMPDEST SWAP3 SWAP2 POP POP JUMP JUMPDEST PUSH1 0x8 PUSH1 0x20 SWAP1 DUP2 MSTORE PUSH1 0x0 SWAP3 DUP4 MSTORE PUSH1 0x40 DUP1 DUP5 KECCAK256 SWAP1 SWAP2 MSTORE SWAP1 DUP3 MSTORE SWAP1 KECCAK256 DUP1 SLOAD PUSH1 0x1 DUP3 ADD SLOAD PUSH1 0x2 DUP4 ADD SLOAD PUSH1 0x3 SWAP1 SWAP4 ADD SLOAD SWAP2 SWAP3 SWAP1 SWAP2 PUSH1 0x1 PUSH1 0x1 PUSH1 0xA0 SHL SUB AND DUP5 JUMP JUMPDEST PUSH1 0x0 DUP1 PUSH1 0x7 DUP5 DUP2 SLOAD DUP2 LT PUSH2 0x111E JUMPI INVALID JUMPDEST PUSH1 0x0 SWAP2 DUP3 MSTORE PUSH1 0x20 DUP1 DUP4 KECCAK256 DUP8 DUP5 MSTORE PUSH1 0x8 DUP3 MSTORE PUSH1 0x40 DUP1 DUP6 KECCAK256 PUSH1 0x1 PUSH1 0x1 PUSH1 0xA0 SHL SUB DUP10 DUP2 AND DUP8 MSTORE SWAP1 DUP5 MSTORE DUP2 DUP7 KECCAK256 PUSH1 0x5 SWAP6 SWAP1 SWAP6 MUL SWAP1 SWAP3 ADD PUSH1 0x3 DUP2 ADD SLOAD DUP2 SLOAD DUP4 MLOAD PUSH4 0x70A08231 PUSH1 0xE0 SHL DUP2 MSTORE ADDRESS PUSH1 0x4 DUP3 ADD MSTORE SWAP4 MLOAD SWAP3 SWAP9 POP SWAP6 SWAP7 SWAP1 SWAP6 SWAP1 SWAP5 SWAP4 AND SWAP3 PUSH4 0x70A08231 SWAP3 PUSH1 0x24 DUP1 DUP3 ADD SWAP4 SWAP2 DUP3 SWAP1 SUB ADD DUP2 DUP7 DUP1 EXTCODESIZE ISZERO DUP1 ISZERO PUSH2 0x1198 JUMPI PUSH1 0x0 DUP1 REVERT JUMPDEST POP GAS STATICCALL ISZERO DUP1 ISZERO PUSH2 0x11AC JUMPI RETURNDATASIZE PUSH1 0x0 DUP1 RETURNDATACOPY RETURNDATASIZE PUSH1 0x0 REVERT JUMPDEST POP POP POP POP PUSH1 0x40 MLOAD RETURNDATASIZE PUSH1 0x20 DUP2 LT ISZERO PUSH2 0x11C2 JUMPI PUSH1 0x0 DUP1 REVERT JUMPDEST POP MLOAD PUSH1 0x2 DUP6 ADD SLOAD SWAP1 SWAP2 POP NUMBER GT DUP1 ISZERO PUSH2 0x11D9 JUMPI POP DUP1 ISZERO ISZERO JUMPDEST ISZERO PUSH2 0x1239 JUMPI PUSH1 0x0 PUSH2 0x11EE DUP6 PUSH1 0x2 ADD SLOAD NUMBER PUSH2 0x1061 JUMP JUMPDEST SWAP1 POP PUSH1 0x0 PUSH2 0x1215 PUSH1 0x9 SLOAD PUSH2 0x6B1 DUP9 PUSH1 0x1 ADD SLOAD PUSH2 0x9AD PUSH1 0x3 SLOAD DUP8 PUSH2 0x1A19 SWAP1 SWAP2 SWAP1 PUSH4 0xFFFFFFFF AND JUMP JUMPDEST SWAP1 POP PUSH2 0x1234 PUSH2 0x122D DUP5 PUSH2 0x6B1 DUP5 PUSH5 0xE8D4A51000 PUSH2 0x1A19 JUMP JUMPDEST DUP6 SWAP1 PUSH2 0x19C1 JUMP JUMPDEST SWAP4 POP POP POP JUMPDEST PUSH2 0x1267 DUP4 PUSH1 0x1 ADD SLOAD PUSH2 0x1261 PUSH5 0xE8D4A51000 PUSH2 0x6B1 DUP7 DUP9 PUSH1 0x0 ADD SLOAD PUSH2 0x1A19 SWAP1 SWAP2 SWAP1 PUSH4 0xFFFFFFFF AND JUMP JUMPDEST SWAP1 PUSH2 0x1ADA JUMP JUMPDEST SWAP8 SWAP7 POP POP POP POP POP POP POP JUMP JUMPDEST PUSH1 0x1 SLOAD PUSH1 0x1 PUSH1 0x1 PUSH1 0xA0 SHL SUB AND DUP2 JUMP JUMPDEST PUSH1 0x4 SLOAD DUP2 JUMP JUMPDEST PUSH1 0x7 SLOAD PUSH1 0x0 SWAP1 DUP2 JUMPDEST DUP2 DUP2 LT ISZERO PUSH2 0x12E1 JUMPI DUP4 PUSH1 0x1 PUSH1 0x1 PUSH1 0xA0 SHL SUB AND PUSH1 0x7 DUP3 DUP2 SLOAD DUP2 LT PUSH2 0x12AE JUMPI INVALID JUMPDEST PUSH1 0x0 SWAP2 DUP3 MSTORE PUSH1 0x20 SWAP1 SWAP2 KECCAK256 PUSH1 0x5 SWAP1 SWAP2 MUL ADD SLOAD PUSH1 0x1 PUSH1 0x1 PUSH1 0xA0 SHL SUB AND EQ ISZERO PUSH2 0x12D9 JUMPI PUSH1 0x1 SWAP3 POP POP POP PUSH2 0x12E8 JUMP JUMPDEST PUSH1 0x1 ADD PUSH2 0x128F JUMP JUMPDEST POP PUSH1 0x0 SWAP2 POP POP JUMPDEST SWAP2 SWAP1 POP JUMP JUMPDEST PUSH2 0x12F8 DUP4 DUP4 DUP4 PUSH2 0x1B89 JUMP JUMPDEST POP POP POP JUMP JUMPDEST PUSH1 0x6 SLOAD DUP2 JUMP JUMPDEST PUSH1 0x0 DUP2 DUP2 MSTORE PUSH1 0x8 PUSH1 0x20 SWAP1 DUP2 MSTORE PUSH1 0x40 DUP1 DUP4 KECCAK256 PUSH1 0x1 PUSH1 0x1 PUSH1 0xA0 SHL SUB DUP7 AND DUP5 MSTORE SWAP1 SWAP2 MSTORE SWAP1 KECCAK256 SLOAD PUSH2 0xD5B SWAP1 DUP4 SWAP1 DUP4 SWAP1 PUSH2 0x1B89 JUMP JUMPDEST PUSH1 0x2 SLOAD PUSH1 0x1 PUSH1 0x1 PUSH1 0xA0 SHL SUB AND CALLER EQ PUSH2 0x137E JUMPI PUSH1 0x40 DUP1 MLOAD PUSH3 0x461BCD PUSH1 0xE5 SHL DUP2 MSTORE PUSH1 0x20 PUSH1 0x4 DUP3 ADD MSTORE PUSH1 0x9 PUSH1 0x24 DUP3 ADD MSTORE PUSH9 0x6465763A207775743F PUSH1 0xB8 SHL PUSH1 0x44 DUP3 ADD MSTORE SWAP1 MLOAD SWAP1 DUP2 SWAP1 SUB PUSH1 0x64 ADD SWAP1 REVERT JUMPDEST PUSH1 0x2 DUP1 SLOAD PUSH1 0x1 PUSH1 0x1 PUSH1 0xA0 SHL SUB NOT AND PUSH1 0x1 PUSH1 0x1 PUSH1 0xA0 SHL SUB SWAP3 SWAP1 SWAP3 AND SWAP2 SWAP1 SWAP2 OR SWAP1 SSTORE JUMP JUMPDEST PUSH1 0x2 SLOAD PUSH1 0x1 PUSH1 0x1 PUSH1 0xA0 SHL SUB AND DUP2 JUMP JUMPDEST PUSH1 0x0 PUSH1 0x7 DUP3 DUP2 SLOAD DUP2 LT PUSH2 0x13BE JUMPI INVALID JUMPDEST PUSH1 0x0 SWAP2 DUP3 MSTORE PUSH1 0x20 DUP1 DUP4 KECCAK256 DUP6 DUP5 MSTORE PUSH1 0x8 DUP3 MSTORE PUSH1 0x40 DUP1 DUP6 KECCAK256 CALLER DUP7 MSTORE SWAP1 SWAP3 MSTORE SWAP3 KECCAK256 PUSH1 0x5 SWAP1 SWAP2 MUL SWAP1 SWAP2 ADD SWAP2 POP PUSH2 0x13EF DUP4 PUSH2 0x8BC JUMP JUMPDEST PUSH2 0x13F9 CALLER DUP5 PUSH2 0x1718 JUMP JUMPDEST PUSH1 0x3 DUP3 ADD SLOAD DUP2 SLOAD PUSH2 0x1414 SWAP2 PUSH5 0xE8D4A51000 SWAP2 PUSH2 0x6B1 SWAP2 PUSH2 0x1A19 JUMP JUMPDEST PUSH1 0x1 DUP3 ADD SSTORE PUSH1 0x4 DUP3 ADD SLOAD DUP2 SLOAD PUSH2 0x1434 SWAP2 PUSH5 0xE8D4A51000 SWAP2 PUSH2 0x6B1 SWAP2 PUSH2 0x1A19 JUMP JUMPDEST PUSH1 0x2 SWAP1 SWAP2 ADD SSTORE POP POP JUMP JUMPDEST PUSH2 0x1446 PUSH2 0x1AD6 JUMP JUMPDEST PUSH1 0x1 PUSH1 0x1 PUSH1 0xA0 SHL SUB AND PUSH2 0x1457 PUSH2 0x1052 JUMP JUMPDEST PUSH1 0x1 PUSH1 0x1 PUSH1 0xA0 SHL SUB AND EQ PUSH2 0x14A0 JUMPI PUSH1 0x40 DUP1 MLOAD PUSH3 0x461BCD PUSH1 0xE5 SHL DUP2 MSTORE PUSH1 0x20 PUSH1 0x4 DUP3 ADD DUP2 SWAP1 MSTORE PUSH1 0x24 DUP3 ADD MSTORE PUSH1 0x0 DUP1 MLOAD PUSH1 0x20 PUSH2 0x21E5 DUP4 CODECOPY DUP2 MLOAD SWAP2 MSTORE PUSH1 0x44 DUP3 ADD MSTORE SWAP1 MLOAD SWAP1 DUP2 SWAP1 SUB PUSH1 0x64 ADD SWAP1 REVERT JUMPDEST PUSH1 0x1 SLOAD PUSH1 0x40 DUP1 MLOAD PUSH4 0x7262FFA3 PUSH1 0xE1 SHL DUP2 MSTORE PUSH1 0x1 PUSH1 0x1 PUSH1 0xA0 SHL SUB DUP6 DUP2 AND PUSH1 0x4 DUP4 ADD MSTORE PUSH1 0x24 DUP3 ADD DUP6 SWAP1 MSTORE SWAP2 MLOAD SWAP2 SWAP1 SWAP3 AND SWAP2 PUSH4 0xE4C5FF46 SWAP2 PUSH1 0x44 DUP1 DUP4 ADD SWAP3 PUSH1 0x0 SWAP3 SWAP2 SWAP1 DUP3 SWAP1 SUB ADD DUP2 DUP4 DUP8 DUP1 EXTCODESIZE ISZERO DUP1 ISZERO PUSH2 0x14F5 JUMPI PUSH1 0x0 DUP1 REVERT JUMPDEST POP GAS CALL ISZERO DUP1 ISZERO PUSH2 0x1509 JUMPI RETURNDATASIZE PUSH1 0x0 DUP1 RETURNDATACOPY RETURNDATASIZE PUSH1 0x0 REVERT JUMPDEST POP POP POP POP POP POP JUMP JUMPDEST PUSH2 0x1519 PUSH2 0x1AD6 JUMP JUMPDEST PUSH1 0x1 PUSH1 0x1 PUSH1 0xA0 SHL SUB AND PUSH2 0x152A PUSH2 0x1052 JUMP JUMPDEST PUSH1 0x1 PUSH1 0x1 PUSH1 0xA0 SHL SUB AND EQ PUSH2 0x1573 JUMPI PUSH1 0x40 DUP1 MLOAD PUSH3 0x461BCD PUSH1 0xE5 SHL DUP2 MSTORE PUSH1 0x20 PUSH1 0x4 DUP3 ADD DUP2 SWAP1 MSTORE PUSH1 0x24 DUP3 ADD MSTORE PUSH1 0x0 DUP1 MLOAD PUSH1 0x20 PUSH2 0x21E5 DUP4 CODECOPY DUP2 MLOAD SWAP2 MSTORE PUSH1 0x44 DUP3 ADD MSTORE SWAP1 MLOAD SWAP1 DUP2 SWAP1 SUB PUSH1 0x64 ADD SWAP1 REVERT JUMPDEST PUSH1 0x1 PUSH1 0x1 PUSH1 0xA0 SHL SUB DUP2 AND PUSH2 0x15B8 JUMPI PUSH1 0x40 MLOAD PUSH3 0x461BCD PUSH1 0xE5 SHL DUP2 MSTORE PUSH1 0x4 ADD DUP1 DUP1 PUSH1 0x20 ADD DUP3 DUP2 SUB DUP3 MSTORE PUSH1 0x26 DUP2 MSTORE PUSH1 0x20 ADD DUP1 PUSH2 0x2178 PUSH1 0x26 SWAP2 CODECOPY PUSH1 0x40 ADD SWAP2 POP POP PUSH1 0x40 MLOAD DUP1 SWAP2 SUB SWAP1 REVERT JUMPDEST PUSH1 0x0 DUP1 SLOAD PUSH1 0x40 MLOAD PUSH1 0x1 PUSH1 0x1 PUSH1 0xA0 SHL SUB DUP1 DUP6 AND SWAP4 SWAP3 AND SWAP2 PUSH1 0x0 DUP1 MLOAD PUSH1 0x20 PUSH2 0x2205 DUP4 CODECOPY DUP2 MLOAD SWAP2 MSTORE SWAP2 LOG3 PUSH1 0x0 DUP1 SLOAD PUSH1 0x1 PUSH1 0x1 PUSH1 0xA0 SHL SUB NOT AND PUSH1 0x1 PUSH1 0x1 PUSH1 0xA0 SHL SUB SWAP3 SWAP1 SWAP3 AND SWAP2 SWAP1 SWAP2 OR SWAP1 SSTORE JUMP JUMPDEST PUSH2 0x1609 PUSH2 0x1AD6 JUMP JUMPDEST PUSH1 0x1 PUSH1 0x1 PUSH1 0xA0 SHL SUB AND PUSH2 0x161A PUSH2 0x1052 JUMP JUMPDEST PUSH1 0x1 PUSH1 0x1 PUSH1 0xA0 SHL SUB AND EQ PUSH2 0x1663 JUMPI PUSH1 0x40 DUP1 MLOAD PUSH3 0x461BCD PUSH1 0xE5 SHL DUP2 MSTORE PUSH1 0x20 PUSH1 0x4 DUP3 ADD DUP2 SWAP1 MSTORE PUSH1 0x24 DUP3 ADD MSTORE PUSH1 0x0 DUP1 MLOAD PUSH1 0x20 PUSH2 0x21E5 DUP4 CODECOPY DUP2 MLOAD SWAP2 MSTORE PUSH1 0x44 DUP3 ADD MSTORE SWAP1 MLOAD SWAP1 DUP2 SWAP1 SUB PUSH1 0x64 ADD SWAP1 REVERT JUMPDEST NUMBER DUP3 GT PUSH2 0x16B5 JUMPI PUSH1 0x40 DUP1 MLOAD PUSH3 0x461BCD PUSH1 0xE5 SHL DUP2 MSTORE PUSH1 0x20 PUSH1 0x4 DUP3 ADD MSTORE PUSH1 0x1B PUSH1 0x24 DUP3 ADD MSTORE PUSH27 0x736574426F6E75733A2062616420626F6E7573456E64426C6F636B PUSH1 0x28 SHL PUSH1 0x44 DUP3 ADD MSTORE SWAP1 MLOAD SWAP1 DUP2 SWAP1 SUB PUSH1 0x64 ADD SWAP1 REVERT JUMPDEST PUSH1 0x1 DUP4 GT PUSH2 0x170A JUMPI PUSH1 0x40 DUP1 MLOAD PUSH3 0x461BCD PUSH1 0xE5 SHL DUP2 MSTORE PUSH1 0x20 PUSH1 0x4 DUP3 ADD MSTORE PUSH1 0x1D PUSH1 0x24 DUP3 ADD MSTORE PUSH32 0x736574426F6E75733A2062616420626F6E75734D756C7469706C696572000000 PUSH1 0x44 DUP3 ADD MSTORE SWAP1 MLOAD SWAP1 DUP2 SWAP1 SUB PUSH1 0x64 ADD SWAP1 REVERT JUMPDEST PUSH1 0x4 SWAP3 SWAP1 SWAP3 SSTORE PUSH1 0x5 SSTORE PUSH1 0x6 SSTORE JUMP JUMPDEST PUSH1 0x0 PUSH1 0x7 DUP3 DUP2 SLOAD DUP2 LT PUSH2 0x1727 JUMPI INVALID JUMPDEST PUSH1 0x0 SWAP2 DUP3 MSTORE PUSH1 0x20 DUP1 DUP4 KECCAK256 DUP6 DUP5 MSTORE PUSH1 0x8 DUP3 MSTORE PUSH1 0x40 DUP1 DUP6 KECCAK256 PUSH1 0x1 PUSH1 0x1 PUSH1 0xA0 SHL SUB DUP10 AND DUP7 MSTORE SWAP1 SWAP3 MSTORE SWAP3 KECCAK256 DUP1 SLOAD PUSH1 0x5 SWAP1 SWAP3 MUL SWAP1 SWAP3 ADD SWAP3 POP PUSH2 0x17A0 JUMPI PUSH1 0x40 DUP1 MLOAD PUSH3 0x461BCD PUSH1 0xE5 SHL DUP2 MSTORE PUSH1 0x20 PUSH1 0x4 DUP3 ADD MSTORE PUSH1 0x12 PUSH1 0x24 DUP3 ADD MSTORE PUSH18 0x1B9BDD1A1A5B99C81D1BC81A185C9D995CDD PUSH1 0x72 SHL PUSH1 0x44 DUP3 ADD MSTORE SWAP1 MLOAD SWAP1 DUP2 SWAP1 SUB PUSH1 0x64 ADD SWAP1 REVERT JUMPDEST PUSH1 0x0 PUSH2 0x17CE DUP3 PUSH1 0x1 ADD SLOAD PUSH2 0x1261 PUSH5 0xE8D4A51000 PUSH2 0x6B1 DUP8 PUSH1 0x3 ADD SLOAD DUP8 PUSH1 0x0 ADD SLOAD PUSH2 0x1A19 SWAP1 SWAP2 SWAP1 PUSH4 0xFFFFFFFF AND JUMP JUMPDEST PUSH1 0x1 SLOAD PUSH1 0x40 DUP1 MLOAD PUSH4 0x70A08231 PUSH1 0xE0 SHL DUP2 MSTORE ADDRESS PUSH1 0x4 DUP3 ADD MSTORE SWAP1 MLOAD SWAP3 SWAP4 POP PUSH1 0x1 PUSH1 0x1 PUSH1 0xA0 SHL SUB SWAP1 SWAP2 AND SWAP2 PUSH4 0x70A08231 SWAP2 PUSH1 0x24 DUP1 DUP3 ADD SWAP3 PUSH1 0x20 SWAP3 SWAP1 SWAP2 SWAP1 DUP3 SWAP1 SUB ADD DUP2 DUP7 DUP1 EXTCODESIZE ISZERO DUP1 ISZERO PUSH2 0x181C JUMPI PUSH1 0x0 DUP1 REVERT JUMPDEST POP GAS STATICCALL ISZERO DUP1 ISZERO PUSH2 0x1830 JUMPI RETURNDATASIZE PUSH1 0x0 DUP1 RETURNDATACOPY RETURNDATASIZE PUSH1 0x0 REVERT JUMPDEST POP POP POP POP PUSH1 0x40 MLOAD RETURNDATASIZE PUSH1 0x20 DUP2 LT ISZERO PUSH2 0x1846 JUMPI PUSH1 0x0 DUP1 REVERT JUMPDEST POP MLOAD DUP2 GT ISZERO PUSH2 0x1894 JUMPI PUSH1 0x40 DUP1 MLOAD PUSH3 0x461BCD PUSH1 0xE5 SHL DUP2 MSTORE PUSH1 0x20 PUSH1 0x4 DUP3 ADD MSTORE PUSH1 0x15 PUSH1 0x24 DUP3 ADD MSTORE PUSH21 0x777466206E6F7420656E6F75676820616C70616361 PUSH1 0x58 SHL PUSH1 0x44 DUP3 ADD MSTORE SWAP1 MLOAD SWAP1 DUP2 SWAP1 SUB PUSH1 0x64 ADD SWAP1 REVERT JUMPDEST PUSH1 0x0 PUSH2 0x18C2 DUP4 PUSH1 0x2 ADD SLOAD PUSH2 0x1261 PUSH5 0xE8D4A51000 PUSH2 0x6B1 DUP9 PUSH1 0x4 ADD SLOAD DUP9 PUSH1 0x0 ADD SLOAD PUSH2 0x1A19 SWAP1 SWAP2 SWAP1 PUSH4 0xFFFFFFFF AND JUMP JUMPDEST SWAP1 POP PUSH2 0x18CE DUP7 DUP4 PUSH2 0x1D22 JUMP JUMPDEST PUSH1 0x1 SLOAD PUSH1 0x6 SLOAD PUSH1 0x1 PUSH1 0x1 PUSH1 0xA0 SHL SUB SWAP1 SWAP2 AND SWAP1 PUSH4 0x282D3FDF SWAP1 DUP9 SWAP1 PUSH2 0x18FB SWAP1 PUSH2 0x2710 SWAP1 PUSH2 0x6B1 SWAP1 DUP8 SWAP1 PUSH2 0x1A19 JUMP JUMPDEST PUSH1 0x40 MLOAD DUP4 PUSH4 0xFFFFFFFF AND PUSH1 0xE0 SHL DUP2 MSTORE PUSH1 0x4 ADD DUP1 DUP4 PUSH1 0x1 PUSH1 0x1 PUSH1 0xA0 SHL SUB AND DUP2 MSTORE PUSH1 0x20 ADD DUP3 DUP2 MSTORE PUSH1 0x20 ADD SWAP3 POP POP POP PUSH1 0x0 PUSH1 0x40 MLOAD DUP1 DUP4 SUB DUP2 PUSH1 0x0 DUP8 DUP1 EXTCODESIZE ISZERO DUP1 ISZERO PUSH2 0x1941 JUMPI PUSH1 0x0 DUP1 REVERT JUMPDEST POP GAS CALL ISZERO DUP1 ISZERO PUSH2 0x1955 JUMPI RETURNDATASIZE PUSH1 0x0 DUP1 RETURNDATACOPY RETURNDATASIZE PUSH1 0x0 REVERT JUMPDEST POP POP POP POP POP POP POP POP POP POP JUMP JUMPDEST PUSH1 0x40 DUP1 MLOAD PUSH1 0x1 PUSH1 0x1 PUSH1 0xA0 SHL SUB DUP1 DUP7 AND PUSH1 0x24 DUP4 ADD MSTORE DUP5 AND PUSH1 0x44 DUP3 ADD MSTORE PUSH1 0x64 DUP1 DUP3 ADD DUP5 SWAP1 MSTORE DUP3 MLOAD DUP1 DUP4 SUB SWAP1 SWAP2 ADD DUP2 MSTORE PUSH1 0x84 SWAP1 SWAP2 ADD SWAP1 SWAP2 MSTORE PUSH1 0x20 DUP2 ADD DUP1 MLOAD PUSH1 0x1 PUSH1 0x1 PUSH1 0xE0 SHL SUB AND PUSH4 0x23B872DD PUSH1 0xE0 SHL OR SWAP1 MSTORE PUSH2 0x19BB SWAP1 DUP6 SWAP1 PUSH2 0x1EB2 JUMP JUMPDEST POP POP POP POP JUMP JUMPDEST PUSH1 0x0 DUP3 DUP3 ADD DUP4 DUP2 LT ISZERO PUSH2 0x10CA JUMPI PUSH1 0x40 DUP1 MLOAD PUSH3 0x461BCD PUSH1 0xE5 SHL DUP2 MSTORE PUSH1 0x20 PUSH1 0x4 DUP3 ADD MSTORE PUSH1 0x1B PUSH1 0x24 DUP3 ADD MSTORE PUSH27 0x536166654D6174683A206164646974696F6E206F766572666C6F77 PUSH1 0x28 SHL PUSH1 0x44 DUP3 ADD MSTORE SWAP1 MLOAD SWAP1 DUP2 SWAP1 SUB PUSH1 0x64 ADD SWAP1 REVERT JUMPDEST PUSH1 0x0 DUP3 PUSH2 0x1A28 JUMPI POP PUSH1 0x0 PUSH2 0x10CD JUMP JUMPDEST DUP3 DUP3 MUL DUP3 DUP5 DUP3 DUP2 PUSH2 0x1A35 JUMPI INVALID JUMPDEST DIV EQ PUSH2 0x10CA JUMPI PUSH1 0x40 MLOAD PUSH3 0x461BCD PUSH1 0xE5 SHL DUP2 MSTORE PUSH1 0x4 ADD DUP1 DUP1 PUSH1 0x20 ADD DUP3 DUP2 SUB DUP3 MSTORE PUSH1 0x21 DUP2 MSTORE PUSH1 0x20 ADD DUP1 PUSH2 0x21C4 PUSH1 0x21 SWAP2 CODECOPY PUSH1 0x40 ADD SWAP2 POP POP PUSH1 0x40 MLOAD DUP1 SWAP2 SUB SWAP1 REVERT JUMPDEST PUSH1 0x0 DUP1 DUP3 GT PUSH2 0x1AC5 JUMPI PUSH1 0x40 DUP1 MLOAD PUSH3 0x461BCD PUSH1 0xE5 SHL DUP2 MSTORE PUSH1 0x20 PUSH1 0x4 DUP3 ADD MSTORE PUSH1 0x1A PUSH1 0x24 DUP3 ADD MSTORE PUSH26 0x536166654D6174683A206469766973696F6E206279207A65726F PUSH1 0x30 SHL PUSH1 0x44 DUP3 ADD MSTORE SWAP1 MLOAD SWAP1 DUP2 SWAP1 SUB PUSH1 0x64 ADD SWAP1 REVERT JUMPDEST DUP2 DUP4 DUP2 PUSH2 0x1ACE JUMPI INVALID JUMPDEST DIV SWAP4 SWAP3 POP POP POP JUMP JUMPDEST CALLER SWAP1 JUMP JUMPDEST PUSH1 0x0 DUP3 DUP3 GT ISZERO PUSH2 0x1B31 JUMPI PUSH1 0x40 DUP1 MLOAD PUSH3 0x461BCD PUSH1 0xE5 SHL DUP2 MSTORE PUSH1 0x20 PUSH1 0x4 DUP3 ADD MSTORE PUSH1 0x1E PUSH1 0x24 DUP3 ADD MSTORE PUSH32 0x536166654D6174683A207375627472616374696F6E206F766572666C6F770000 PUSH1 0x44 DUP3 ADD MSTORE SWAP1 MLOAD SWAP1 DUP2 SWAP1 SUB PUSH1 0x64 ADD SWAP1 REVERT JUMPDEST POP SWAP1 SUB SWAP1 JUMP JUMPDEST PUSH1 0x40 DUP1 MLOAD PUSH1 0x1 PUSH1 0x1 PUSH1 0xA0 SHL SUB DUP5 AND PUSH1 0x24 DUP3 ADD MSTORE PUSH1 0x44 DUP1 DUP3 ADD DUP5 SWAP1 MSTORE DUP3 MLOAD DUP1 DUP4 SUB SWAP1 SWAP2 ADD DUP2 MSTORE PUSH1 0x64 SWAP1 SWAP2 ADD SWAP1 SWAP2 MSTORE PUSH1 0x20 DUP2 ADD DUP1 MLOAD PUSH1 0x1 PUSH1 0x1 PUSH1 0xE0 SHL SUB AND PUSH4 0xA9059CBB PUSH1 0xE0 SHL OR SWAP1 MSTORE PUSH2 0x12F8 SWAP1 DUP5 SWAP1 PUSH2 0x1EB2 JUMP JUMPDEST PUSH1 0x0 PUSH1 0x7 DUP4 DUP2 SLOAD DUP2 LT PUSH2 0x1B98 JUMPI INVALID JUMPDEST PUSH1 0x0 SWAP2 DUP3 MSTORE PUSH1 0x20 DUP1 DUP4 KECCAK256 DUP7 DUP5 MSTORE PUSH1 0x8 DUP3 MSTORE PUSH1 0x40 DUP1 DUP6 KECCAK256 PUSH1 0x1 PUSH1 0x1 PUSH1 0xA0 SHL SUB DUP1 DUP12 AND DUP8 MSTORE SWAP4 MSTORE SWAP1 SWAP4 KECCAK256 PUSH1 0x3 DUP2 ADD SLOAD PUSH1 0x5 SWAP1 SWAP4 MUL SWAP1 SWAP4 ADD SWAP4 POP AND CALLER EQ PUSH2 0x1C11 JUMPI PUSH1 0x40 DUP1 MLOAD PUSH3 0x461BCD PUSH1 0xE5 SHL DUP2 MSTORE PUSH1 0x20 PUSH1 0x4 DUP3 ADD MSTORE PUSH1 0xB PUSH1 0x24 DUP3 ADD MSTORE PUSH11 0x37B7363C90333AB73232B9 PUSH1 0xA9 SHL PUSH1 0x44 DUP3 ADD MSTORE SWAP1 MLOAD SWAP1 DUP2 SWAP1 SUB PUSH1 0x64 ADD SWAP1 REVERT JUMPDEST DUP1 SLOAD DUP4 GT ISZERO PUSH2 0x1C5C JUMPI PUSH1 0x40 DUP1 MLOAD PUSH3 0x461BCD PUSH1 0xE5 SHL DUP2 MSTORE PUSH1 0x20 PUSH1 0x4 DUP3 ADD MSTORE PUSH1 0x12 PUSH1 0x24 DUP3 ADD MSTORE PUSH18 0x1DDA5D1A191C985DCE881B9BDD0819DBDBD9 PUSH1 0x72 SHL PUSH1 0x44 DUP3 ADD MSTORE SWAP1 MLOAD SWAP1 DUP2 SWAP1 SUB PUSH1 0x64 ADD SWAP1 REVERT JUMPDEST PUSH2 0x1C65 DUP5 PUSH2 0x8BC JUMP JUMPDEST PUSH2 0x1C6F DUP6 DUP6 PUSH2 0x1718 JUMP JUMPDEST DUP1 SLOAD PUSH2 0x1C7B SWAP1 DUP5 PUSH2 0x1ADA JUMP JUMPDEST DUP1 DUP3 SSTORE PUSH1 0x3 DUP4 ADD SLOAD PUSH2 0x1C98 SWAP2 PUSH5 0xE8D4A51000 SWAP2 PUSH2 0x6B1 SWAP2 SWAP1 PUSH2 0x1A19 JUMP JUMPDEST PUSH1 0x1 DUP3 ADD SSTORE PUSH1 0x4 DUP3 ADD SLOAD DUP2 SLOAD PUSH2 0x1CB8 SWAP2 PUSH5 0xE8D4A51000 SWAP2 PUSH2 0x6B1 SWAP2 PUSH2 0x1A19 JUMP JUMPDEST PUSH1 0x2 DUP3 ADD SSTORE DUP2 SLOAD PUSH1 0x1 PUSH1 0x1 PUSH1 0xA0 SHL SUB AND ISZERO PUSH2 0x1CE3 JUMPI DUP2 SLOAD PUSH2 0x1CE3 SWAP1 PUSH1 0x1 PUSH1 0x1 PUSH1 0xA0 SHL SUB AND CALLER DUP6 PUSH2 0x1B37 JUMP JUMPDEST DUP1 SLOAD PUSH1 0x40 DUP1 MLOAD SWAP2 DUP3 MSTORE MLOAD DUP6 SWAP2 CALLER SWAP2 PUSH32 0xF279E6A1F5E320CCA91135676D9CB6E44CA8A08C0B88342BCDB1144F6511B568 SWAP2 DUP2 SWAP1 SUB PUSH1 0x20 ADD SWAP1 LOG3 POP POP POP POP POP JUMP JUMPDEST PUSH1 0x1 SLOAD PUSH1 0x40 DUP1 MLOAD PUSH4 0x70A08231 PUSH1 0xE0 SHL DUP2 MSTORE ADDRESS PUSH1 0x4 DUP3 ADD MSTORE SWAP1 MLOAD PUSH1 0x0 SWAP3 PUSH1 0x1 PUSH1 0x1 PUSH1 0xA0 SHL SUB AND SWAP2 PUSH4 0x70A08231 SWAP2 PUSH1 0x24 DUP1 DUP4 ADD SWAP3 PUSH1 0x20 SWAP3 SWAP2 SWAP1 DUP3 SWAP1 SUB ADD DUP2 DUP7 DUP1 EXTCODESIZE ISZERO DUP1 ISZERO PUSH2 0x1D6D JUMPI PUSH1 0x0 DUP1 REVERT JUMPDEST POP GAS STATICCALL ISZERO DUP1 ISZERO PUSH2 0x1D81 JUMPI RETURNDATASIZE PUSH1 0x0 DUP1 RETURNDATACOPY RETURNDATASIZE PUSH1 0x0 REVERT JUMPDEST POP POP POP POP PUSH1 0x40 MLOAD RETURNDATASIZE PUSH1 0x20 DUP2 LT ISZERO PUSH2 0x1D97 JUMPI PUSH1 0x0 DUP1 REVERT JUMPDEST POP MLOAD SWAP1 POP DUP1 DUP3 GT ISZERO PUSH2 0x1E2B JUMPI PUSH1 0x1 SLOAD PUSH1 0x40 DUP1 MLOAD PUSH4 0xA9059CBB PUSH1 0xE0 SHL DUP2 MSTORE PUSH1 0x1 PUSH1 0x1 PUSH1 0xA0 SHL SUB DUP7 DUP2 AND PUSH1 0x4 DUP4 ADD MSTORE PUSH1 0x24 DUP3 ADD DUP6 SWAP1 MSTORE SWAP2 MLOAD SWAP2 SWAP1 SWAP3 AND SWAP2 PUSH4 0xA9059CBB SWAP2 PUSH1 0x44 DUP1 DUP4 ADD SWAP3 PUSH1 0x20 SWAP3 SWAP2 SWAP1 DUP3 SWAP1 SUB ADD DUP2 PUSH1 0x0 DUP8 DUP1 EXTCODESIZE ISZERO DUP1 ISZERO PUSH2 0x1DF9 JUMPI PUSH1 0x0 DUP1 REVERT JUMPDEST POP GAS CALL ISZERO DUP1 ISZERO PUSH2 0x1E0D JUMPI RETURNDATASIZE PUSH1 0x0 DUP1 RETURNDATACOPY RETURNDATASIZE PUSH1 0x0 REVERT JUMPDEST POP POP POP POP PUSH1 0x40 MLOAD RETURNDATASIZE PUSH1 0x20 DUP2 LT ISZERO PUSH2 0x1E23 JUMPI PUSH1 0x0 DUP1 REVERT JUMPDEST POP PUSH2 0x12F8 SWAP1 POP JUMP JUMPDEST PUSH1 0x1 SLOAD PUSH1 0x40 DUP1 MLOAD PUSH4 0xA9059CBB PUSH1 0xE0 SHL DUP2 MSTORE PUSH1 0x1 PUSH1 0x1 PUSH1 0xA0 SHL SUB DUP7 DUP2 AND PUSH1 0x4 DUP4 ADD MSTORE PUSH1 0x24 DUP3 ADD DUP7 SWAP1 MSTORE SWAP2 MLOAD SWAP2 SWAP1 SWAP3 AND SWAP2 PUSH4 0xA9059CBB SWAP2 PUSH1 0x44 DUP1 DUP4 ADD SWAP3 PUSH1 0x20 SWAP3 SWAP2 SWAP1 DUP3 SWAP1 SUB ADD DUP2 PUSH1 0x0 DUP8 DUP1 EXTCODESIZE ISZERO DUP1 ISZERO PUSH2 0x1E81 JUMPI PUSH1 0x0 DUP1 REVERT JUMPDEST POP GAS CALL ISZERO DUP1 ISZERO PUSH2 0x1E95 JUMPI RETURNDATASIZE PUSH1 0x0 DUP1 RETURNDATACOPY RETURNDATASIZE PUSH1 0x0 REVERT JUMPDEST POP POP POP POP PUSH1 0x40 MLOAD RETURNDATASIZE PUSH1 0x20 DUP2 LT ISZERO PUSH2 0x1EAB JUMPI PUSH1 0x0 DUP1 REVERT JUMPDEST POP POP POP POP POP JUMP JUMPDEST PUSH1 0x60 PUSH2 0x1F07 DUP3 PUSH1 0x40 MLOAD DUP1 PUSH1 0x40 ADD PUSH1 0x40 MSTORE DUP1 PUSH1 0x20 DUP2 MSTORE PUSH1 0x20 ADD PUSH32 0x5361666545524332303A206C6F772D6C6576656C2063616C6C206661696C6564 DUP2 MSTORE POP DUP6 PUSH1 0x1 PUSH1 0x1 PUSH1 0xA0 SHL SUB AND PUSH2 0x1F63 SWAP1 SWAP3 SWAP2 SWAP1 PUSH4 0xFFFFFFFF AND JUMP JUMPDEST DUP1 MLOAD SWAP1 SWAP2 POP ISZERO PUSH2 0x12F8 JUMPI DUP1 DUP1 PUSH1 0x20 ADD SWAP1 MLOAD PUSH1 0x20 DUP2 LT ISZERO PUSH2 0x1F26 JUMPI PUSH1 0x0 DUP1 REVERT JUMPDEST POP MLOAD PUSH2 0x12F8 JUMPI PUSH1 0x40 MLOAD PUSH3 0x461BCD PUSH1 0xE5 SHL DUP2 MSTORE PUSH1 0x4 ADD DUP1 DUP1 PUSH1 0x20 ADD DUP3 DUP2 SUB DUP3 MSTORE PUSH1 0x2A DUP2 MSTORE PUSH1 0x20 ADD DUP1 PUSH2 0x2225 PUSH1 0x2A SWAP2 CODECOPY PUSH1 0x40 ADD SWAP2 POP POP PUSH1 0x40 MLOAD DUP1 SWAP2 SUB SWAP1 REVERT JUMPDEST PUSH1 0x60 PUSH2 0x1F72 DUP5 DUP5 PUSH1 0x0 DUP6 PUSH2 0x1F7C JUMP JUMPDEST SWAP1 POP JUMPDEST SWAP4 SWAP3 POP POP POP JUMP JUMPDEST PUSH1 0x60 DUP3 SELFBALANCE LT ISZERO PUSH2 0x1FBD JUMPI PUSH1 0x40 MLOAD PUSH3 0x461BCD PUSH1 0xE5 SHL DUP2 MSTORE PUSH1 0x4 ADD DUP1 DUP1 PUSH1 0x20 ADD DUP3 DUP2 SUB DUP3 MSTORE PUSH1 0x26 DUP2 MSTORE PUSH1 0x20 ADD DUP1 PUSH2 0x219E PUSH1 0x26 SWAP2 CODECOPY PUSH1 0x40 ADD SWAP2 POP POP PUSH1 0x40 MLOAD DUP1 SWAP2 SUB SWAP1 REVERT JUMPDEST PUSH2 0x1FC6 DUP6 PUSH2 0x20CD JUMP JUMPDEST PUSH2 0x2017 JUMPI PUSH1 0x40 DUP1 MLOAD PUSH3 0x461BCD PUSH1 0xE5 SHL DUP2 MSTORE PUSH1 0x20 PUSH1 0x4 DUP3 ADD MSTORE PUSH1 0x1D PUSH1 0x24 DUP3 ADD MSTORE PUSH32 0x416464726573733A2063616C6C20746F206E6F6E2D636F6E7472616374000000 PUSH1 0x44 DUP3 ADD MSTORE SWAP1 MLOAD SWAP1 DUP2 SWAP1 SUB PUSH1 0x64 ADD SWAP1 REVERT JUMPDEST PUSH1 0x0 PUSH1 0x60 DUP7 PUSH1 0x1 PUSH1 0x1 PUSH1 0xA0 SHL SUB AND DUP6 DUP8 PUSH1 0x40 MLOAD DUP1 DUP3 DUP1 MLOAD SWAP1 PUSH1 0x20 ADD SWAP1 DUP1 DUP4 DUP4 JUMPDEST PUSH1 0x20 DUP4 LT PUSH2 0x2056 JUMPI DUP1 MLOAD DUP3 MSTORE PUSH1 0x1F NOT SWAP1 SWAP3 ADD SWAP2 PUSH1 0x20 SWAP2 DUP3 ADD SWAP2 ADD PUSH2 0x2037 JUMP JUMPDEST PUSH1 0x1 DUP4 PUSH1 0x20 SUB PUSH2 0x100 EXP SUB DUP1 NOT DUP3 MLOAD AND DUP2 DUP5 MLOAD AND DUP1 DUP3 OR DUP6 MSTORE POP POP POP POP POP POP SWAP1 POP ADD SWAP2 POP POP PUSH1 0x0 PUSH1 0x40 MLOAD DUP1 DUP4 SUB DUP2 DUP6 DUP8 GAS CALL SWAP3 POP POP POP RETURNDATASIZE DUP1 PUSH1 0x0 DUP2 EQ PUSH2 0x20B8 JUMPI PUSH1 0x40 MLOAD SWAP2 POP PUSH1 0x1F NOT PUSH1 0x3F RETURNDATASIZE ADD AND DUP3 ADD PUSH1 0x40 MSTORE RETURNDATASIZE DUP3 MSTORE RETURNDATASIZE PUSH1 0x0 PUSH1 0x20 DUP5 ADD RETURNDATACOPY PUSH2 0x20BD JUMP JUMPDEST PUSH1 0x60 SWAP2 POP JUMPDEST POP SWAP2 POP SWAP2 POP PUSH2 0x1267 DUP3 DUP3 DUP7 PUSH2 0x20D3 JUMP JUMPDEST EXTCODESIZE ISZERO ISZERO SWAP1 JUMP JUMPDEST PUSH1 0x60 DUP4 ISZERO PUSH2 0x20E2 JUMPI POP DUP2 PUSH2 0x1F75 JUMP JUMPDEST DUP3 MLOAD ISZERO PUSH2 0x20F2 JUMPI DUP3 MLOAD DUP1 DUP5 PUSH1 0x20 ADD REVERT JUMPDEST DUP2 PUSH1 0x40 MLOAD PUSH3 0x461BCD PUSH1 0xE5 SHL DUP2 MSTORE PUSH1 0x4 ADD DUP1 DUP1 PUSH1 0x20 ADD DUP3 DUP2 SUB DUP3 MSTORE DUP4 DUP2 DUP2 MLOAD DUP2 MSTORE PUSH1 0x20 ADD SWAP2 POP DUP1 MLOAD SWAP1 PUSH1 0x20 ADD SWAP1 DUP1 DUP4 DUP4 PUSH1 0x0 JUMPDEST DUP4 DUP2 LT ISZERO PUSH2 0x213C JUMPI DUP2 DUP2 ADD MLOAD DUP4 DUP3 ADD MSTORE PUSH1 0x20 ADD PUSH2 0x2124 JUMP JUMPDEST POP POP POP POP SWAP1 POP SWAP1 DUP2 ADD SWAP1 PUSH1 0x1F AND DUP1 ISZERO PUSH2 0x2169 JUMPI DUP1 DUP3 SUB DUP1 MLOAD PUSH1 0x1 DUP4 PUSH1 0x20 SUB PUSH2 0x100 EXP SUB NOT AND DUP2 MSTORE PUSH1 0x20 ADD SWAP2 POP JUMPDEST POP SWAP3 POP POP POP PUSH1 0x40 MLOAD DUP1 SWAP2 SUB SWAP1 REVERT INVALID 0x4F PUSH24 0x6E61626C653A206E6577206F776E65722069732074686520 PUSH27 0x65726F2061646472657373416464726573733A20696E7375666669 PUSH4 0x69656E74 KECCAK256 PUSH3 0x616C61 PUSH15 0x636520666F722063616C6C53616665 0x4D PUSH2 0x7468 GASPRICE KECCAK256 PUSH14 0x756C7469706C69636174696F6E20 PUSH16 0x766572666C6F774F776E61626C653A20 PUSH4 0x616C6C65 PUSH19 0x206973206E6F7420746865206F776E65728BE0 SMOD SWAP13 MSTORE8 AND MSIZE EQ SGT DIFFICULTY 0xCD 0x1F 0xD0 LOG4 CALLCODE DUP5 NOT 0x49 PUSH32 0x9722A3DAAFE3B4186F6B6457E05361666545524332303A204552433230206F70 PUSH6 0x726174696F6E KECCAK256 PUSH5 0x6964206E6F PUSH21 0x2073756363656564A2646970667358221220B86A54 PUSH23 0xBB55A8E57237C2439D02080B6E9FDB458FA43AB93A22F2 0xEA PUSH8 0x3A943364736F6C63 NUMBER STOP MOD 0xC STOP CALLER "
        },
        "gasEstimates": {
          "creation": {
            "codeDepositCost": "1767200",
            "executionCost": "infinite",
            "totalCost": "infinite"
          },
          "external": {
            "addPool(uint256,address,bool)": "infinite",
            "alpaca()": "1411",
            "alpacaPerBlock()": "1086",
            "bonusEndBlock()": "1064",
            "bonusLockUpBps()": "1460",
            "bonusMultiplier()": "1394",
            "deposit(address,uint256,uint256)": "infinite",
            "devaddr()": "1565",
            "emergencyWithdraw(uint256)": "infinite",
            "getMultiplier(uint256,uint256)": "infinite",
            "harvest(uint256)": "infinite",
            "isDuplicatedPool(address)": "infinite",
            "manualMint(address,uint256)": "infinite",
            "massUpdatePools()": "infinite",
            "owner()": "1323",
            "pendingAlpaca(uint256,address)": "infinite",
            "poolInfo(uint256)": "5344",
            "poolLength()": "976",
            "renounceOwnership()": "infinite",
            "setAlpacaPerBlock(uint256)": "infinite",
            "setBonus(uint256,uint256,uint256)": "infinite",
            "setDev(address)": "22419",
            "setPool(uint256,uint256,bool)": "infinite",
            "startBlock()": "1130",
            "totalAllocPoint()": "1042",
            "transferOwnership(address)": "infinite",
            "updatePool(uint256)": "infinite",
            "userInfo(uint256,address)": "4085",
            "withdraw(address,uint256,uint256)": "infinite",
            "withdrawAll(address,uint256)": "infinite"
          },
          "internal": {
            "_harvest(address,uint256)": "infinite",
            "_withdraw(address,uint256,uint256)": "infinite",
            "safeAlpacaTransfer(address,uint256)": "infinite"
          }
        },
        "methodIdentifiers": {
          "addPool(uint256,address,bool)": "7abceffd",
          "alpaca()": "94faab23",
          "alpacaPerBlock()": "20f33d59",
          "bonusEndBlock()": "1aed6553",
          "bonusLockUpBps()": "cbdec1fc",
          "bonusMultiplier()": "a8b973a1",
          "deposit(address,uint256,uint256)": "0efe6a8b",
          "devaddr()": "d49e77cd",
          "emergencyWithdraw(uint256)": "5312ea8e",
          "getMultiplier(uint256,uint256)": "8dbb1e3a",
          "harvest(uint256)": "ddc63262",
          "isDuplicatedPool(address)": "b03df69d",
          "manualMint(address,uint256)": "e4c5ff46",
          "massUpdatePools()": "630b5ba1",
          "owner()": "8da5cb5b",
          "pendingAlpaca(uint256,address)": "94443b73",
          "poolInfo(uint256)": "1526fe27",
          "poolLength()": "081e3eda",
          "renounceOwnership()": "715018a6",
          "setAlpacaPerBlock(uint256)": "4c8f70fd",
          "setBonus(uint256,uint256,uint256)": "fa5be8f8",
          "setDev(address)": "d477f05f",
          "setPool(uint256,uint256,bool)": "46ca6bea",
          "startBlock()": "48cd4cb1",
          "totalAllocPoint()": "17caf6f1",
          "transferOwnership(address)": "f2fde38b",
          "updatePool(uint256)": "51eb05a6",
          "userInfo(uint256,address)": "93f1a40b",
          "withdraw(address,uint256,uint256)": "b5c5f672",
          "withdrawAll(address,uint256)": "cc6dbc27"
        }
      },
      "storageLayout": {
        "storage": [
          {
            "astId": 7,
            "contract": "contracts/6.12/apis/alpaca/FairLaunch.sol:FairLaunch",
            "label": "_owner",
            "offset": 0,
            "slot": "0",
            "type": "t_address"
          },
          {
            "astId": 2835,
            "contract": "contracts/6.12/apis/alpaca/FairLaunch.sol:FairLaunch",
            "label": "alpaca",
            "offset": 0,
            "slot": "1",
            "type": "t_contract(AlpacaToken)2797"
          },
          {
            "astId": 2837,
            "contract": "contracts/6.12/apis/alpaca/FairLaunch.sol:FairLaunch",
            "label": "devaddr",
            "offset": 0,
            "slot": "2",
            "type": "t_address"
          },
          {
            "astId": 2839,
            "contract": "contracts/6.12/apis/alpaca/FairLaunch.sol:FairLaunch",
            "label": "alpacaPerBlock",
            "offset": 0,
            "slot": "3",
            "type": "t_uint256"
          },
          {
            "astId": 2841,
            "contract": "contracts/6.12/apis/alpaca/FairLaunch.sol:FairLaunch",
            "label": "bonusMultiplier",
            "offset": 0,
            "slot": "4",
            "type": "t_uint256"
          },
          {
            "astId": 2843,
            "contract": "contracts/6.12/apis/alpaca/FairLaunch.sol:FairLaunch",
            "label": "bonusEndBlock",
            "offset": 0,
            "slot": "5",
            "type": "t_uint256"
          },
          {
            "astId": 2845,
            "contract": "contracts/6.12/apis/alpaca/FairLaunch.sol:FairLaunch",
            "label": "bonusLockUpBps",
            "offset": 0,
            "slot": "6",
            "type": "t_uint256"
          },
          {
            "astId": 2848,
            "contract": "contracts/6.12/apis/alpaca/FairLaunch.sol:FairLaunch",
            "label": "poolInfo",
            "offset": 0,
            "slot": "7",
            "type": "t_array(t_struct(PoolInfo)2833_storage)dyn_storage"
          },
          {
            "astId": 2854,
            "contract": "contracts/6.12/apis/alpaca/FairLaunch.sol:FairLaunch",
            "label": "userInfo",
            "offset": 0,
            "slot": "8",
            "type": "t_mapping(t_uint256,t_mapping(t_address,t_struct(UserInfo)2822_storage))"
          },
          {
            "astId": 2856,
            "contract": "contracts/6.12/apis/alpaca/FairLaunch.sol:FairLaunch",
            "label": "totalAllocPoint",
            "offset": 0,
            "slot": "9",
            "type": "t_uint256"
          },
          {
            "astId": 2858,
            "contract": "contracts/6.12/apis/alpaca/FairLaunch.sol:FairLaunch",
            "label": "startBlock",
            "offset": 0,
            "slot": "10",
            "type": "t_uint256"
          }
        ],
        "types": {
          "t_address": {
            "encoding": "inplace",
            "label": "address",
            "numberOfBytes": "20"
          },
          "t_array(t_struct(PoolInfo)2833_storage)dyn_storage": {
            "base": "t_struct(PoolInfo)2833_storage",
            "encoding": "dynamic_array",
            "label": "struct FairLaunch.PoolInfo[]",
            "numberOfBytes": "32"
          },
          "t_contract(AlpacaToken)2797": {
            "encoding": "inplace",
            "label": "contract AlpacaToken",
            "numberOfBytes": "20"
          },
          "t_mapping(t_address,t_struct(UserInfo)2822_storage)": {
            "encoding": "mapping",
            "key": "t_address",
            "label": "mapping(address => struct FairLaunch.UserInfo)",
            "numberOfBytes": "32",
            "value": "t_struct(UserInfo)2822_storage"
          },
          "t_mapping(t_uint256,t_mapping(t_address,t_struct(UserInfo)2822_storage))": {
            "encoding": "mapping",
            "key": "t_uint256",
            "label": "mapping(uint256 => mapping(address => struct FairLaunch.UserInfo))",
            "numberOfBytes": "32",
            "value": "t_mapping(t_address,t_struct(UserInfo)2822_storage)"
          },
          "t_struct(PoolInfo)2833_storage": {
            "encoding": "inplace",
            "label": "struct FairLaunch.PoolInfo",
            "members": [
              {
                "astId": 2824,
                "contract": "contracts/6.12/apis/alpaca/FairLaunch.sol:FairLaunch",
                "label": "stakeToken",
                "offset": 0,
                "slot": "0",
                "type": "t_address"
              },
              {
                "astId": 2826,
                "contract": "contracts/6.12/apis/alpaca/FairLaunch.sol:FairLaunch",
                "label": "allocPoint",
                "offset": 0,
                "slot": "1",
                "type": "t_uint256"
              },
              {
                "astId": 2828,
                "contract": "contracts/6.12/apis/alpaca/FairLaunch.sol:FairLaunch",
                "label": "lastRewardBlock",
                "offset": 0,
                "slot": "2",
                "type": "t_uint256"
              },
              {
                "astId": 2830,
                "contract": "contracts/6.12/apis/alpaca/FairLaunch.sol:FairLaunch",
                "label": "accAlpacaPerShare",
                "offset": 0,
                "slot": "3",
                "type": "t_uint256"
              },
              {
                "astId": 2832,
                "contract": "contracts/6.12/apis/alpaca/FairLaunch.sol:FairLaunch",
                "label": "accAlpacaPerShareTilBonusEnd",
                "offset": 0,
                "slot": "4",
                "type": "t_uint256"
              }
            ],
            "numberOfBytes": "160"
          },
          "t_struct(UserInfo)2822_storage": {
            "encoding": "inplace",
            "label": "struct FairLaunch.UserInfo",
            "members": [
              {
                "astId": 2815,
                "contract": "contracts/6.12/apis/alpaca/FairLaunch.sol:FairLaunch",
                "label": "amount",
                "offset": 0,
                "slot": "0",
                "type": "t_uint256"
              },
              {
                "astId": 2817,
                "contract": "contracts/6.12/apis/alpaca/FairLaunch.sol:FairLaunch",
                "label": "rewardDebt",
                "offset": 0,
                "slot": "1",
                "type": "t_uint256"
              },
              {
                "astId": 2819,
                "contract": "contracts/6.12/apis/alpaca/FairLaunch.sol:FairLaunch",
                "label": "bonusDebt",
                "offset": 0,
                "slot": "2",
                "type": "t_uint256"
              },
              {
                "astId": 2821,
                "contract": "contracts/6.12/apis/alpaca/FairLaunch.sol:FairLaunch",
                "label": "fundedBy",
                "offset": 0,
                "slot": "3",
                "type": "t_address"
              }
            ],
            "numberOfBytes": "128"
          },
          "t_uint256": {
            "encoding": "inplace",
            "label": "uint256",
            "numberOfBytes": "32"
          }
        }
      },
      "userdoc": {
        "kind": "user",
        "methods": {},
        "version": 1
      }
    }
  }
}