{
  "_format": "hh-sol-artifact-1",
  "contractName": "WaultSwapWorker02",
  "sourceName": "contracts/6/protocol/workers/waultswap/WaultSwapWorker02.sol",
  "abi": [
    {
      "anonymous": false,
      "inputs": [
        {
          "indexed": true,
          "internalType": "uint256",
          "name": "id",
          "type": "uint256"
        },
        {
          "indexed": false,
          "internalType": "uint256",
          "name": "share",
          "type": "uint256"
        }
      ],
      "name": "AddShare",
      "type": "event"
    },
    {
      "anonymous": false,
      "inputs": [
        {
          "indexed": true,
          "internalType": "address",
          "name": "caller",
          "type": "address"
        },
        {
          "indexed": true,
          "internalType": "contract IVault",
          "name": "beneficialVault",
          "type": "address"
        },
        {
          "indexed": true,
          "internalType": "uint256",
          "name": "buyback",
          "type": "uint256"
        }
      ],
      "name": "BeneficialVaultTokenBuyback",
      "type": "event"
    },
    {
      "anonymous": false,
      "inputs": [
        {
          "indexed": true,
          "internalType": "uint256",
          "name": "id",
          "type": "uint256"
        },
        {
          "indexed": false,
          "internalType": "uint256",
          "name": "wad",
          "type": "uint256"
        }
      ],
      "name": "Liquidate",
      "type": "event"
    },
    {
      "anonymous": false,
      "inputs": [
        {
          "indexed": true,
          "internalType": "address",
          "name": "previousOwner",
          "type": "address"
        },
        {
          "indexed": true,
          "internalType": "address",
          "name": "newOwner",
          "type": "address"
        }
      ],
      "name": "OwnershipTransferred",
      "type": "event"
    },
    {
      "anonymous": false,
      "inputs": [
        {
          "indexed": true,
          "internalType": "address",
          "name": "caller",
          "type": "address"
        },
        {
          "indexed": false,
          "internalType": "uint256",
          "name": "reward",
          "type": "uint256"
        },
        {
          "indexed": false,
          "internalType": "uint256",
          "name": "bounty",
          "type": "uint256"
        }
      ],
      "name": "Reinvest",
      "type": "event"
    },
    {
      "anonymous": false,
      "inputs": [
        {
          "indexed": true,
          "internalType": "uint256",
          "name": "id",
          "type": "uint256"
        },
        {
          "indexed": false,
          "internalType": "uint256",
          "name": "share",
          "type": "uint256"
        }
      ],
      "name": "RemoveShare",
      "type": "event"
    },
    {
      "anonymous": false,
      "inputs": [
        {
          "indexed": true,
          "internalType": "address",
          "name": "caller",
          "type": "address"
        },
        {
          "indexed": true,
          "internalType": "uint256",
          "name": "beneficialVaultBountyBps",
          "type": "uint256"
        },
        {
          "indexed": true,
          "internalType": "contract IVault",
          "name": "beneficialVault",
          "type": "address"
        },
        {
          "indexed": false,
          "internalType": "address[]",
          "name": "rewardPath",
          "type": "address[]"
        }
      ],
      "name": "SetBeneficialVaultConfig",
      "type": "event"
    },
    {
      "anonymous": false,
      "inputs": [
        {
          "indexed": true,
          "internalType": "address",
          "name": "caller",
          "type": "address"
        },
        {
          "indexed": true,
          "internalType": "contract IStrategy",
          "name": "addStrat",
          "type": "address"
        },
        {
          "indexed": true,
          "internalType": "contract IStrategy",
          "name": "liqStrat",
          "type": "address"
        }
      ],
      "name": "SetCriticalStrategy",
      "type": "event"
    },
    {
      "anonymous": false,
      "inputs": [
        {
          "indexed": true,
          "internalType": "address",
          "name": "caller",
          "type": "address"
        },
        {
          "indexed": true,
          "internalType": "uint256",
          "name": "maxReinvestBountyBps",
          "type": "uint256"
        }
      ],
      "name": "SetMaxReinvestBountyBps",
      "type": "event"
    },
    {
      "anonymous": false,
      "inputs": [
        {
          "indexed": true,
          "internalType": "address",
          "name": "caller",
          "type": "address"
        },
        {
          "indexed": false,
          "internalType": "uint256",
          "name": "reinvestBountyBps",
          "type": "uint256"
        },
        {
          "indexed": false,
          "internalType": "uint256",
          "name": "reinvestThreshold",
          "type": "uint256"
        },
        {
          "indexed": false,
          "internalType": "address[]",
          "name": "reinvestPath",
          "type": "address[]"
        }
      ],
      "name": "SetReinvestConfig",
      "type": "event"
    },
    {
      "anonymous": false,
      "inputs": [
        {
          "indexed": true,
          "internalType": "address",
          "name": "caller",
          "type": "address"
        },
        {
          "indexed": true,
          "internalType": "address",
          "name": "reinvestor",
          "type": "address"
        },
        {
          "indexed": true,
          "internalType": "bool",
          "name": "isOk",
          "type": "bool"
        }
      ],
      "name": "SetReinvestorOK",
      "type": "event"
    },
    {
      "anonymous": false,
      "inputs": [
        {
          "indexed": true,
          "internalType": "address",
          "name": "caller",
          "type": "address"
        },
        {
          "indexed": false,
          "internalType": "address[]",
          "name": "newRewardPath",
          "type": "address[]"
        }
      ],
      "name": "SetRewardPath",
      "type": "event"
    },
    {
      "anonymous": false,
      "inputs": [
        {
          "indexed": true,
          "internalType": "address",
          "name": "caller",
          "type": "address"
        },
        {
          "indexed": true,
          "internalType": "address",
          "name": "strategy",
          "type": "address"
        },
        {
          "indexed": true,
          "internalType": "bool",
          "name": "isOk",
          "type": "bool"
        }
      ],
      "name": "SetStrategyOK",
      "type": "event"
    },
    {
      "anonymous": false,
      "inputs": [
        {
          "indexed": true,
          "internalType": "address",
          "name": "caller",
          "type": "address"
        },
        {
          "indexed": true,
          "internalType": "address",
          "name": "account",
          "type": "address"
        },
        {
          "indexed": false,
          "internalType": "uint256",
          "name": "bountyBps",
          "type": "uint256"
        }
      ],
      "name": "SetTreasuryConfig",
      "type": "event"
    },
    {
      "inputs": [],
      "name": "addStrat",
      "outputs": [
        {
          "internalType": "contract IStrategy",
          "name": "",
          "type": "address"
        }
      ],
      "stateMutability": "view",
      "type": "function"
    },
    {
      "inputs": [
        {
          "internalType": "uint256",
          "name": "balance",
          "type": "uint256"
        }
      ],
      "name": "balanceToShare",
      "outputs": [
        {
          "internalType": "uint256",
          "name": "",
          "type": "uint256"
        }
      ],
      "stateMutability": "view",
      "type": "function"
    },
    {
      "inputs": [],
      "name": "baseToken",
      "outputs": [
        {
          "internalType": "address",
          "name": "",
          "type": "address"
        }
      ],
      "stateMutability": "view",
      "type": "function"
    },
    {
      "inputs": [],
      "name": "beneficialVault",
      "outputs": [
        {
          "internalType": "contract IVault",
          "name": "",
          "type": "address"
        }
      ],
      "stateMutability": "view",
      "type": "function"
    },
    {
      "inputs": [],
      "name": "beneficialVaultBountyBps",
      "outputs": [
        {
          "internalType": "uint256",
          "name": "",
          "type": "uint256"
        }
      ],
      "stateMutability": "view",
      "type": "function"
    },
    {
      "inputs": [],
      "name": "buybackAmount",
      "outputs": [
        {
          "internalType": "uint256",
          "name": "",
          "type": "uint256"
        }
      ],
      "stateMutability": "view",
      "type": "function"
    },
    {
      "inputs": [],
      "name": "factory",
      "outputs": [
        {
          "internalType": "contract IWaultSwapFactory",
          "name": "",
          "type": "address"
        }
      ],
      "stateMutability": "view",
      "type": "function"
    },
    {
      "inputs": [],
      "name": "farmingToken",
      "outputs": [
        {
          "internalType": "address",
          "name": "",
          "type": "address"
        }
      ],
      "stateMutability": "view",
      "type": "function"
    },
    {
      "inputs": [],
      "name": "fee",
      "outputs": [
        {
          "internalType": "uint256",
          "name": "",
          "type": "uint256"
        }
      ],
      "stateMutability": "view",
      "type": "function"
    },
    {
      "inputs": [],
      "name": "feeDenom",
      "outputs": [
        {
          "internalType": "uint256",
          "name": "",
          "type": "uint256"
        }
      ],
      "stateMutability": "view",
      "type": "function"
    },
    {
      "inputs": [
        {
          "internalType": "uint256",
          "name": "aIn",
          "type": "uint256"
        },
        {
          "internalType": "uint256",
          "name": "rIn",
          "type": "uint256"
        },
        {
          "internalType": "uint256",
          "name": "rOut",
          "type": "uint256"
        }
      ],
      "name": "getMktSellAmount",
      "outputs": [
        {
          "internalType": "uint256",
          "name": "",
          "type": "uint256"
        }
      ],
      "stateMutability": "view",
      "type": "function"
    },
    {
      "inputs": [],
      "name": "getPath",
      "outputs": [
        {
          "internalType": "address[]",
          "name": "",
          "type": "address[]"
        }
      ],
      "stateMutability": "view",
      "type": "function"
    },
    {
      "inputs": [],
      "name": "getReinvestPath",
      "outputs": [
        {
          "internalType": "address[]",
          "name": "",
          "type": "address[]"
        }
      ],
      "stateMutability": "view",
      "type": "function"
    },
    {
      "inputs": [],
      "name": "getReversedPath",
      "outputs": [
        {
          "internalType": "address[]",
          "name": "",
          "type": "address[]"
        }
      ],
      "stateMutability": "view",
      "type": "function"
    },
    {
      "inputs": [],
      "name": "getRewardPath",
      "outputs": [
        {
          "internalType": "address[]",
          "name": "",
          "type": "address[]"
        }
      ],
      "stateMutability": "view",
      "type": "function"
    },
    {
      "inputs": [
        {
          "internalType": "uint256",
          "name": "id",
          "type": "uint256"
        }
      ],
      "name": "health",
      "outputs": [
        {
          "internalType": "uint256",
          "name": "",
          "type": "uint256"
        }
      ],
      "stateMutability": "view",
      "type": "function"
    },
    {
      "inputs": [
        {
          "internalType": "address",
          "name": "_operator",
          "type": "address"
        },
        {
          "internalType": "address",
          "name": "_baseToken",
          "type": "address"
        },
        {
          "internalType": "contract IWexMaster",
          "name": "_wexMaster",
          "type": "address"
        },
        {
          "internalType": "contract IWaultSwapRouter02",
          "name": "_router",
          "type": "address"
        },
        {
          "internalType": "uint256",
          "name": "_pid",
          "type": "uint256"
        },
        {
          "internalType": "contract IStrategy",
          "name": "_addStrat",
          "type": "address"
        },
        {
          "internalType": "contract IStrategy",
          "name": "_liqStrat",
          "type": "address"
        },
        {
          "internalType": "uint256",
          "name": "_reinvestBountyBps",
          "type": "uint256"
        },
        {
          "internalType": "address",
          "name": "_treasuryAccount",
          "type": "address"
        },
        {
          "internalType": "address[]",
          "name": "_reinvestPath",
          "type": "address[]"
        },
        {
          "internalType": "uint256",
          "name": "_reinvestThreshold",
          "type": "uint256"
        }
      ],
      "name": "initialize",
      "outputs": [],
      "stateMutability": "nonpayable",
      "type": "function"
    },
    {
      "inputs": [],
      "name": "liqStrat",
      "outputs": [
        {
          "internalType": "contract IStrategy",
          "name": "",
          "type": "address"
        }
      ],
      "stateMutability": "view",
      "type": "function"
    },
    {
      "inputs": [
        {
          "internalType": "uint256",
          "name": "id",
          "type": "uint256"
        }
      ],
      "name": "liquidate",
      "outputs": [],
      "stateMutability": "nonpayable",
      "type": "function"
    },
    {
      "inputs": [],
      "name": "lpToken",
      "outputs": [
        {
          "internalType": "contract IPancakePair",
          "name": "",
          "type": "address"
        }
      ],
      "stateMutability": "view",
      "type": "function"
    },
    {
      "inputs": [],
      "name": "maxReinvestBountyBps",
      "outputs": [
        {
          "internalType": "uint256",
          "name": "",
          "type": "uint256"
        }
      ],
      "stateMutability": "view",
      "type": "function"
    },
    {
      "inputs": [
        {
          "internalType": "address",
          "name": "",
          "type": "address"
        }
      ],
      "name": "okReinvestors",
      "outputs": [
        {
          "internalType": "bool",
          "name": "",
          "type": "bool"
        }
      ],
      "stateMutability": "view",
      "type": "function"
    },
    {
      "inputs": [
        {
          "internalType": "address",
          "name": "",
          "type": "address"
        }
      ],
      "name": "okStrats",
      "outputs": [
        {
          "internalType": "bool",
          "name": "",
          "type": "bool"
        }
      ],
      "stateMutability": "view",
      "type": "function"
    },
    {
      "inputs": [],
      "name": "operator",
      "outputs": [
        {
          "internalType": "address",
          "name": "",
          "type": "address"
        }
      ],
      "stateMutability": "view",
      "type": "function"
    },
    {
      "inputs": [],
      "name": "owner",
      "outputs": [
        {
          "internalType": "address",
          "name": "",
          "type": "address"
        }
      ],
      "stateMutability": "view",
      "type": "function"
    },
    {
      "inputs": [],
      "name": "pid",
      "outputs": [
        {
          "internalType": "uint256",
          "name": "",
          "type": "uint256"
        }
      ],
      "stateMutability": "view",
      "type": "function"
    },
    {
      "inputs": [],
      "name": "reinvest",
      "outputs": [],
      "stateMutability": "nonpayable",
      "type": "function"
    },
    {
      "inputs": [],
      "name": "reinvestBountyBps",
      "outputs": [
        {
          "internalType": "uint256",
          "name": "",
          "type": "uint256"
        }
      ],
      "stateMutability": "view",
      "type": "function"
    },
    {
      "inputs": [
        {
          "internalType": "uint256",
          "name": "",
          "type": "uint256"
        }
      ],
      "name": "reinvestPath",
      "outputs": [
        {
          "internalType": "address",
          "name": "",
          "type": "address"
        }
      ],
      "stateMutability": "view",
      "type": "function"
    },
    {
      "inputs": [],
      "name": "reinvestThreshold",
      "outputs": [
        {
          "internalType": "uint256",
          "name": "",
          "type": "uint256"
        }
      ],
      "stateMutability": "view",
      "type": "function"
    },
    {
      "inputs": [],
      "name": "renounceOwnership",
      "outputs": [],
      "stateMutability": "nonpayable",
      "type": "function"
    },
    {
      "inputs": [
        {
          "internalType": "uint256",
          "name": "",
          "type": "uint256"
        }
      ],
      "name": "rewardPath",
      "outputs": [
        {
          "internalType": "address",
          "name": "",
          "type": "address"
        }
      ],
      "stateMutability": "view",
      "type": "function"
    },
    {
      "inputs": [],
      "name": "router",
      "outputs": [
        {
          "internalType": "contract IWaultSwapRouter02",
          "name": "",
          "type": "address"
        }
      ],
      "stateMutability": "view",
      "type": "function"
    },
    {
      "inputs": [
        {
          "internalType": "uint256",
          "name": "_beneficialVaultBountyBps",
          "type": "uint256"
        },
        {
          "internalType": "contract IVault",
          "name": "_beneficialVault",
          "type": "address"
        },
        {
          "internalType": "address[]",
          "name": "_rewardPath",
          "type": "address[]"
        }
      ],
      "name": "setBeneficialVaultConfig",
      "outputs": [],
      "stateMutability": "nonpayable",
      "type": "function"
    },
    {
      "inputs": [
        {
          "internalType": "contract IStrategy",
          "name": "_addStrat",
          "type": "address"
        },
        {
          "internalType": "contract IStrategy",
          "name": "_liqStrat",
          "type": "address"
        }
      ],
      "name": "setCriticalStrategies",
      "outputs": [],
      "stateMutability": "nonpayable",
      "type": "function"
    },
    {
      "inputs": [
        {
          "internalType": "uint256",
          "name": "_maxReinvestBountyBps",
          "type": "uint256"
        }
      ],
      "name": "setMaxReinvestBountyBps",
      "outputs": [],
      "stateMutability": "nonpayable",
      "type": "function"
    },
    {
      "inputs": [
        {
          "internalType": "uint256",
          "name": "_reinvestBountyBps",
          "type": "uint256"
        },
        {
          "internalType": "uint256",
          "name": "_reinvestThreshold",
          "type": "uint256"
        },
        {
          "internalType": "address[]",
          "name": "_reinvestPath",
          "type": "address[]"
        }
      ],
      "name": "setReinvestConfig",
      "outputs": [],
      "stateMutability": "nonpayable",
      "type": "function"
    },
    {
      "inputs": [
        {
          "internalType": "address[]",
          "name": "reinvestors",
          "type": "address[]"
        },
        {
          "internalType": "bool",
          "name": "isOk",
          "type": "bool"
        }
      ],
      "name": "setReinvestorOk",
      "outputs": [],
      "stateMutability": "nonpayable",
      "type": "function"
    },
    {
      "inputs": [
        {
          "internalType": "address[]",
          "name": "_rewardPath",
          "type": "address[]"
        }
      ],
      "name": "setRewardPath",
      "outputs": [],
      "stateMutability": "nonpayable",
      "type": "function"
    },
    {
      "inputs": [
        {
          "internalType": "address[]",
          "name": "strats",
          "type": "address[]"
        },
        {
          "internalType": "bool",
          "name": "isOk",
          "type": "bool"
        }
      ],
      "name": "setStrategyOk",
      "outputs": [],
      "stateMutability": "nonpayable",
      "type": "function"
    },
    {
      "inputs": [
        {
          "internalType": "address",
          "name": "_treasuryAccount",
          "type": "address"
        },
        {
          "internalType": "uint256",
          "name": "_treasuryBountyBps",
          "type": "uint256"
        }
      ],
      "name": "setTreasuryConfig",
      "outputs": [],
      "stateMutability": "nonpayable",
      "type": "function"
    },
    {
      "inputs": [
        {
          "internalType": "uint256",
          "name": "share",
          "type": "uint256"
        }
      ],
      "name": "shareToBalance",
      "outputs": [
        {
          "internalType": "uint256",
          "name": "",
          "type": "uint256"
        }
      ],
      "stateMutability": "view",
      "type": "function"
    },
    {
      "inputs": [
        {
          "internalType": "uint256",
          "name": "",
          "type": "uint256"
        }
      ],
      "name": "shares",
      "outputs": [
        {
          "internalType": "uint256",
          "name": "",
          "type": "uint256"
        }
      ],
      "stateMutability": "view",
      "type": "function"
    },
    {
      "inputs": [],
      "name": "totalShare",
      "outputs": [
        {
          "internalType": "uint256",
          "name": "",
          "type": "uint256"
        }
      ],
      "stateMutability": "view",
      "type": "function"
    },
    {
      "inputs": [
        {
          "internalType": "address",
          "name": "newOwner",
          "type": "address"
        }
      ],
      "name": "transferOwnership",
      "outputs": [],
      "stateMutability": "nonpayable",
      "type": "function"
    },
    {
      "inputs": [],
      "name": "treasuryAccount",
      "outputs": [
        {
          "internalType": "address",
          "name": "",
          "type": "address"
        }
      ],
      "stateMutability": "view",
      "type": "function"
    },
    {
      "inputs": [],
      "name": "treasuryBountyBps",
      "outputs": [
        {
          "internalType": "uint256",
          "name": "",
          "type": "uint256"
        }
      ],
      "stateMutability": "view",
      "type": "function"
    },
    {
      "inputs": [],
      "name": "wNative",
      "outputs": [
        {
          "internalType": "address",
          "name": "",
          "type": "address"
        }
      ],
      "stateMutability": "view",
      "type": "function"
    },
    {
      "inputs": [],
      "name": "wex",
      "outputs": [
        {
          "internalType": "address",
          "name": "",
          "type": "address"
        }
      ],
      "stateMutability": "view",
      "type": "function"
    },
    {
      "inputs": [],
      "name": "wexMaster",
      "outputs": [
        {
          "internalType": "contract IWexMaster",
          "name": "",
          "type": "address"
        }
      ],
      "stateMutability": "view",
      "type": "function"
    },
    {
      "inputs": [
        {
          "internalType": "uint256",
          "name": "id",
          "type": "uint256"
        },
        {
          "internalType": "address",
          "name": "user",
          "type": "address"
        },
        {
          "internalType": "uint256",
          "name": "debt",
          "type": "uint256"
        },
        {
          "internalType": "bytes",
          "name": "data",
          "type": "bytes"
        }
      ],
      "name": "work",
      "outputs": [],
      "stateMutability": "nonpayable",
      "type": "function"
    }
  ],
  "bytecode": "0x608060405234801561001057600080fd5b50614e56806100206000396000f3fe608060405234801561001057600080fd5b50600436106102515760003560e01c8063026c4207146102565780631363bdd31461027057806319a865771461028d5780631f27d7741461029557806322058619146102ed578063239e050f14610327578063260f26a4146103995780632d68efc91461041c578063339b2cff146104405780633b13899b146104485780633cd630801461045057806340aa22e11461050f578063415f12401461058957806348db8cc4146105a6578063555b37be14610630578063570ca73514610638578063578993991461064057806357a858fc146106485780635af7282b146106655780635fcbd2851461066d5780636191e37b14610675578063624af1b01461067d578063715018a61461068557806374f1e9551461068d57806376dcb435146106b9578063783b6d60146106c157806380f91e7c146106de57806381955105146106e657806381d09def1461070357806382388081146107715780638da5cb5b146107795780638ed5bb92146107815780638fa4a9401461079e578063918e178e146107cc5780639a216883146107d45780639cc0e3c7146107dc578063ad24dce7146107f9578063c45a015514610801578063c55dae6314610809578063c7aa6ae714610811578063d75734c814610819578063db0a9c3d14610842578063ddca3f431461084a578063e7956f2114610852578063f1068454146108c2578063f2fde38b146108ca578063f3b8912b146108f0578063f679eda114610916578063f887ea401461091e578063f956643114610926578063fdb5a03e14610943575b600080fd5b61025e61094b565b60408051918252519081900360200190f35b61025e6004803603602081101561028657600080fd5b5035610951565b61025e610a18565b61029d610a1e565b60408051602080825283518183015283519192839290830191858101910280838360005b838110156102d95781810151838201526020016102c1565b505050509050019250505060405180910390f35b6103136004803603602081101561030357600080fd5b50356001600160a01b0316610a81565b604080519115158252519081900360200190f35b6103976004803603604081101561033d57600080fd5b810190602081018135600160201b81111561035757600080fd5b82018360208201111561036957600080fd5b803590602001918460208302840111600160201b8311171561038a57600080fd5b9193509150351515610a96565b005b610397600480360360608110156103af57600080fd5b8135916001600160a01b0360208201351691810190606081016040820135600160201b8111156103de57600080fd5b8201836020820111156103f057600080fd5b803590602001918460208302840111600160201b8311171561041157600080fd5b509092509050610bb0565b610424610e48565b604080516001600160a01b039092168252519081900360200190f35b610424610e57565b610424610e66565b610397600480360361016081101561046757600080fd5b6001600160a01b03823581169260208101358216926040820135831692606083013581169260808101359260a082013583169260c083013581169260e081013592610100820135909216918101906101408101610120820135600160201b8111156104d157600080fd5b8201836020820111156104e357600080fd5b803590602001918460208302840111600160201b8311171561050457600080fd5b919350915035610e75565b6103976004803603606081101561052557600080fd5b813591602081013591810190606081016040820135600160201b81111561054b57600080fd5b82018360208201111561055d57600080fd5b803590602001918460208302840111600160201b8311171561057e57600080fd5b50909250905061171c565b6103976004803603602081101561059f57600080fd5b5035611939565b610397600480360360808110156105bc57600080fd5b8135916001600160a01b036020820135169160408201359190810190608081016060820135600160201b8111156105f257600080fd5b82018360208201111561060457600080fd5b803590602001918460018302840111600160201b8311171561062557600080fd5b509092509050611c3a565b61029d61208e565b610424612114565b610424612123565b61025e6004803603602081101561065e57600080fd5b5035612132565b61025e612144565b61042461214a565b610424612159565b61025e612168565b61039761216e565b610397600480360360408110156106a357600080fd5b506001600160a01b0381351690602001356121fe565b61025e6122fe565b61025e600480360360208110156106d757600080fd5b5035612304565b610424612539565b61025e600480360360208110156106fc57600080fd5b5035612548565b6103976004803603602081101561071957600080fd5b810190602081018135600160201b81111561073357600080fd5b82018360208201111561074557600080fd5b803590602001918460208302840111600160201b8311171561076657600080fd5b5090925090506125f7565b61042461282e565b61042461283d565b6104246004803603602081101561079757600080fd5b503561284c565b610397600480360360408110156107b457600080fd5b506001600160a01b0381358116916020013516612873565b61029d612931565b61025e61299a565b610424600480360360208110156107f257600080fd5b50356129a0565b6104246129ad565b6104246129bc565b6104246129cb565b61025e6129da565b61025e6004803603606081101561082f57600080fd5b50803590602081013590604001356129e0565b61025e612a9b565b61025e612aa1565b6103976004803603604081101561086857600080fd5b810190602081018135600160201b81111561088257600080fd5b82018360208201111561089457600080fd5b803590602001918460208302840111600160201b831117156108b557600080fd5b9193509150351515612aa7565b61025e612bba565b610397600480360360208110156108e057600080fd5b50356001600160a01b0316612bc0565b6103136004803603602081101561090657600080fd5b50356001600160a01b0316612ca7565b61029d612cbc565b610424612e65565b6103976004803603602081101561093c57600080fd5b5035612e74565b610397612f83565b60d55481565b600060d55460001415610965575080610a13565b60c95460d254604080516393f1a40b60e01b81526004810192909252306024830152516000926001600160a01b0316916393f1a40b916044808301926060929190829003018186803b1580156109ba57600080fd5b505afa1580156109ce573d6000803e3d6000fd5b505050506040513d60608110156109e457600080fd5b505160d554909150610a0f908290610a0390869063ffffffff61308616565b9063ffffffff6130e816565b9150505b919050565b60dc5481565b606060e3805480602002602001604051908101604052809291908181526020018280548015610a7657602002820191906000526020600020905b81546001600160a01b03168152600190910190602001808311610a58575b505050505090505b90565b60da6020526000908152604090205460ff1681565b610a9e613127565b6065546001600160a01b03908116911614610aee576040805162461bcd60e51b81526020600482018190526024820152600080516020614b41833981519152604482015290519081900360640190fd5b8160005b81811015610ba9578260da6000878785818110610b0b57fe5b905060200201356001600160a01b03166001600160a01b03166001600160a01b0316815260200190815260200160002060006101000a81548160ff021916908315150217905550821515858583818110610b6157fe5b6040516001600160a01b036020909202939093013516913391507fe29f198692e59aca2e732235aaf2290c9a6e2d289970c4178195af67cb0fe93990600090a4600101610af2565b5050505050565b610bb8613127565b6065546001600160a01b03908116911614610c08576040805162461bcd60e51b81526020600482018190526024820152600080516020614b41833981519152604482015290519081900360640190fd5b612710841115610c495760405162461bcd60e51b81526004018080602001828103825260548152602001806146f46054913960600191505060405180910390fd5b6002811015610c895760405162461bcd60e51b815260040180806020018281038252604a815260200180614a8a604a913960600191505060405180910390fd5b60d0546001600160a01b03168282600081610ca057fe5b905060200201356001600160a01b03166001600160a01b0316148015610d5a5750826001600160a01b031663fc0c546a6040518163ffffffff1660e01b815260040160206040518083038186803b158015610cfa57600080fd5b505afa158015610d0e573d6000803e3d6000fd5b505050506040513d6020811015610d2457600080fd5b50516001600160a01b031682826000198101818110610d3f57fe5b905060200201356001600160a01b03166001600160a01b0316145b610d955760405162461bcd60e51b815260040180806020018281038252606d815260200180614ad4606d913960800191505060405180910390fd5b610d9d61312b565b60e284905560e180546001600160a01b0319166001600160a01b038516179055610dc960e3838361466c565b50826001600160a01b031684336001600160a01b03167f3eac15a91bfb40e4c4e9f279e3287b3f894f40b1e1c21bf44e8af110f2fd92c6858560405180806020018281038252848482818152602001925060200280828437600083820152604051601f909101601f19169092018290039550909350505050a450505050565b60cd546001600160a01b031681565b60df546001600160a01b031681565b60c9546001600160a01b031681565b600054610100900460ff1680610e8e5750610e8e6131f8565b80610e9c575060005460ff16155b610ed75760405162461bcd60e51b815260040180806020018281038252602e815260200180614bd9602e913960400191505060405180910390fd5b600054610100900460ff16158015610f02576000805460ff1961ff0019909116610100171660011790555b610f0a6131fe565b610f126132b0565b8c60d160006101000a8154816001600160a01b0302191690836001600160a01b03160217905550896001600160a01b031663ad5c46486040518163ffffffff1660e01b815260040160206040518083038186803b158015610f7257600080fd5b505afa158015610f86573d6000803e3d6000fd5b505050506040513d6020811015610f9c57600080fd5b505160cd80546001600160a01b03199081166001600160a01b039384161790915560c9805482168e841617905560cb8054909116918c1691821790556040805163c45a015560e01b8152905163c45a015591600481810192602092909190829003018186803b15801561100e57600080fd5b505afa158015611022573d6000803e3d6000fd5b505050506040513d602081101561103857600080fd5b505160ca80546001600160a01b03199081166001600160a01b039384161790915560ce80549091168e831617905560d28a905560c95460408051631526fe2760e01b8152600481018d905290516000939290921691631526fe2791602480820192608092909190829003018186803b1580156110b357600080fd5b505afa1580156110c7573d6000803e3d6000fd5b505050506040513d60808110156110dd57600080fd5b505160cc80546001600160a01b0319166001600160a01b03808416919091179182905560408051630dfe168160e01b815290519394506000939290911691630dfe168191600480820192602092909190829003018186803b15801561114157600080fd5b505afa158015611155573d6000803e3d6000fd5b505050506040513d602081101561116b57600080fd5b505160cc546040805163d21220a760e01b815290519293506000926001600160a01b039092169163d21220a791600480820192602092909190829003018186803b1580156111b857600080fd5b505afa1580156111cc573d6000803e3d6000fd5b505050506040513d60208110156111e257600080fd5b505160ce549091506001600160a01b038381169116146112025781611204565b805b60cf80546001600160a01b0319166001600160a01b0392831617905560c95460408051638238808160e01b8152905191909216916382388081916004808301926020929190829003018186803b15801561125d57600080fd5b505afa158015611271573d6000803e3d6000fd5b505050506040513d602081101561128757600080fd5b505160d080546001600160a01b03199081166001600160a01b039384161790915560d6805482168e8416179081905560d780549092168d84161782558216600090815260d46020526040808220805460ff1990811660019081179092559354909416825290208054909116909117905560d889905560dd85905561130d60de888861466c565b5060df80546001600160a01b0319166001600160a01b038a81169190911790915560e08a90556101f460d9556103e660db556103e860dc5560d05460ce549082169116141561138d5760405162461bcd60e51b81526004018080602001828103825260438152602001806147486043913960600191505060405180910390fd5b60d95460d85411156113d05760405162461bcd60e51b8152600401808060200182810382526050815260200180614d1e6050913960600191505060405180910390fd5b60cc60009054906101000a90046001600160a01b03166001600160a01b0316630dfe16816040518163ffffffff1660e01b815260040160206040518083038186803b15801561141e57600080fd5b505afa158015611432573d6000803e3d6000fd5b505050506040513d602081101561144857600080fd5b505160cf546001600160a01b03908116911614806114ed575060cc60009054906101000a90046001600160a01b03166001600160a01b031663d21220a76040518163ffffffff1660e01b815260040160206040518083038186803b1580156114af57600080fd5b505afa1580156114c3573d6000803e3d6000fd5b505050506040513d60208110156114d957600080fd5b505160cf546001600160a01b039081169116145b8015611611575060cc60009054906101000a90046001600160a01b03166001600160a01b0316630dfe16816040518163ffffffff1660e01b815260040160206040518083038186803b15801561154257600080fd5b505afa158015611556573d6000803e3d6000fd5b505050506040513d602081101561156c57600080fd5b505160ce546001600160a01b0390811691161480611611575060cc60009054906101000a90046001600160a01b03166001600160a01b031663d21220a76040518163ffffffff1660e01b815260040160206040518083038186803b1580156115d357600080fd5b505afa1580156115e7573d6000803e3d6000fd5b505050506040513d60208110156115fd57600080fd5b505160ce546001600160a01b039081169116145b61164c5760405162461bcd60e51b815260040180806020018281038252604e815260200180614a1b604e913960600191505060405180910390fd5b60d05460de80546001600160a01b039092169160009061166857fe5b6000918252602090912001546001600160a01b03161480156116bd575060ce5460de80546001600160a01b039092169160001981019081106116a657fe5b6000918252602090912001546001600160a01b0316145b6116f85760405162461bcd60e51b8152600401808060200182810382526052815260200180614c356052913960600191505060405180910390fd5b505050801561170d576000805461ff00191690555b50505050505050505050505050565b611724613127565b6065546001600160a01b03908116911614611774576040805162461bcd60e51b81526020600482018190526024820152600080516020614b41833981519152604482015290519081900360640190fd5b60d9548411156117b55760405162461bcd60e51b81526004018080602001828103825260578152602001806149496057913960600191505060405180910390fd5b60028110156117f55760405162461bcd60e51b81526004018080602001828103825260458152602001806149046045913960600191505060405180910390fd5b60d0546001600160a01b0316828260008161180c57fe5b905060200201356001600160a01b03166001600160a01b0316148015611864575060ce546001600160a01b03168282600019810181811061184957fe5b905060200201356001600160a01b03166001600160a01b0316145b61189f5760405162461bcd60e51b81526004018080602001828103825260598152602001806147ab6059913960600191505060405180910390fd5b60d884905560dd8390556118b560de838361466c565b50336001600160a01b03167fcbe4d806f86611ea8be1947bf611c7fd213f81ae3d7338b94914f722cce9e2c98585858560405180858152602001848152602001806020018281038252848482818152602001925060200280828437600083820152604051601f909101601f191690920182900397509095505050505050a250505050565b60d1546001600160a01b031633146119825760405162461bcd60e51b815260040180806020018281038252602e815260200180614c07602e913960400191505060405180910390fd5b60975460ff166119c7576040805162461bcd60e51b815260206004820152601f602482015260008051602061478b833981519152604482015290519081900360640190fd5b6097805460ff191690556119da81613345565b60cc5460d754604080516370a0823160e01b815230600482015290516001600160a01b039384169363a9059cbb93169184916370a0823191602480820192602092909190829003018186803b158015611a3257600080fd5b505afa158015611a46573d6000803e3d6000fd5b505050506040513d6020811015611a5c57600080fd5b5051604080516001600160e01b031960e086901b1681526001600160a01b03909316600484015260248301919091525160448083019260209291908290030181600087803b158015611aad57600080fd5b505af1158015611ac1573d6000803e3d6000fd5b505050506040513d6020811015611ad757600080fd5b505060d754604080516000602082810182905283518084038201815283850194859052635b0e93fb60e11b9094526044830182815260648401839052606060848501908152855160a486015285516001600160a01b039097169663b61d27f696949586959460c49091019190850190808383895b83811015611b63578181015183820152602001611b4b565b50505050905090810190601f168015611b905780820380516001836020036101000a031916815260200191505b50945050505050600060405180830381600087803b158015611bb157600080fd5b505af1158015611bc5573d6000803e3d6000fd5b505050506000611bd3613442565b60ce54909150611bf3906001600160a01b0316338363ffffffff61346d16565b60408051828152905183917f253e5385159062a101837d58c10ad4694c58979ebc3ba6b5cb2cbba2fe461692919081900360200190a250506097805460ff19166001179055565b60d1546001600160a01b03163314611c835760405162461bcd60e51b815260040180806020018281038252602e815260200180614c07602e913960400191505060405180910390fd5b60975460ff16611cc8576040805162461bcd60e51b815260206004820152601f602482015260008051602061478b833981519152604482015290519081900360640190fd5b6097805460ff1916905560df546001600160a01b031615801590611ced575060e05415155b15611d165760df5460e054611d16916001600160a01b031690611d0e613442565b60dd546135c0565b611d1f85613345565b6000606083836040811015611d3357600080fd5b6001600160a01b038235169190810190604081016020820135600160201b811115611d5d57600080fd5b820183602082011115611d6f57600080fd5b803590602001918460018302840111600160201b83111715611d9057600080fd5b91908080601f01602080910402602001604051908101604052809392919081815260200183838082843760009201829052506001600160a01b038916815260d460205260409020549799509297505060ff9095169450611e2693505050505760405162461bcd60e51b8152600401808060200182810382526032815260200180614dbd6032913960400191505060405180910390fd5b60cc54604080516370a0823160e01b815230600482015290516001600160a01b039092169163a9059cbb91859184916370a08231916024808301926020929190829003018186803b158015611e7a57600080fd5b505afa158015611e8e573d6000803e3d6000fd5b505050506040513d6020811015611ea457600080fd5b5051604080516001600160e01b031960e086901b1681526001600160a01b03909316600484015260248301919091525160448083019260209291908290030181600087803b158015611ef557600080fd5b505af1158015611f09573d6000803e3d6000fd5b505050506040513d6020811015611f1f57600080fd5b5051611f5c5760405162461bcd60e51b8152600401808060200182810382526038815260200180614ba16038913960400191505060405180910390fd5b611f8182611f68613442565b60ce546001600160a01b0316919063ffffffff61346d16565b816001600160a01b031663b61d27f68787846040518463ffffffff1660e01b815260040180846001600160a01b03166001600160a01b0316815260200183815260200180602001828103825283818151815260200191508051906020019080838360005b83811015611ffd578181015183820152602001611fe5565b50505050905090810190601f16801561202a5780820380516001836020036101000a031916815260200191505b50945050505050600060405180830381600087803b15801561204b57600080fd5b505af115801561205f573d6000803e3d6000fd5b5050505061206c87613bc6565b61207833611f68613442565b50506097805460ff191660011790555050505050565b604080516002808252606080830184529283929190602083019080368337505060ce5482519293506001600160a01b0316918391506000906120cc57fe5b6001600160a01b03928316602091820292909201015260cf548251911690829060019081106120f757fe5b6001600160a01b0390921660209283029190910190910152905090565b60d1546001600160a01b031681565b60d6546001600160a01b031681565b60d36020526000908152604090205481565b60dd5481565b60cc546001600160a01b031681565b60d7546001600160a01b031681565b60e05481565b612176613127565b6065546001600160a01b039081169116146121c6576040805162461bcd60e51b81526020600482018190526024820152600080516020614b41833981519152604482015290519081900360640190fd5b6065546040516000916001600160a01b031690600080516020614b81833981519152908390a3606580546001600160a01b0319169055565b612206613127565b6065546001600160a01b03908116911614612256576040805162461bcd60e51b81526020600482018190526024820152600080516020614b41833981519152604482015290519081900360640190fd5b60d9548111156122975760405162461bcd60e51b81526004018080602001828103825260578152602001806149c46057913960600191505060405180910390fd5b60df80546001600160a01b038085166001600160a01b0319909216919091179182905560e0839055604080518481529051929091169133917fb2d3c1f118086e8bb8f0013fe22cd30e7e099e39000569a1470200650b570a74919081900360200190a35050565b60d95481565b600081815260d36020526040812054819061231e90612548565b9050600060cc60009054906101000a90046001600160a01b03166001600160a01b03166318160ddd6040518163ffffffff1660e01b815260040160206040518083038186803b15801561237057600080fd5b505afa158015612384573d6000803e3d6000fd5b505050506040513d602081101561239a57600080fd5b505160cc5460408051630240bc6b60e21b8152905192935060009283926001600160a01b031691630902f1ac916004808301926060929190829003018186803b1580156123e657600080fd5b505afa1580156123fa573d6000803e3d6000fd5b505050506040513d606081101561241057600080fd5b50805160209182015160ce5460cc5460408051630dfe168160e01b815290516001600160701b03958616985094909316955060009485946001600160a01b03938416949390921692630dfe16819260048083019392829003018186803b15801561247957600080fd5b505afa15801561248d573d6000803e3d6000fd5b505050506040513d60208110156124a357600080fd5b50516001600160a01b0316146124ba5782846124bd565b83835b909250905060006124d886610a03898663ffffffff61308616565b905060006124f087610a038a8663ffffffff61308616565b905061252b8261251f8361250a878263ffffffff613d9116565b61251a898863ffffffff613d9116565b6129e0565b9063ffffffff613dd316565b9a9950505050505050505050565b60e1546001600160a01b031681565b600060d5546000141561255c575080610a13565b60c95460d254604080516393f1a40b60e01b81526004810192909252306024830152516000926001600160a01b0316916393f1a40b916044808301926060929190829003018186803b1580156125b157600080fd5b505afa1580156125c5573d6000803e3d6000fd5b505050506040513d60608110156125db57600080fd5b505160d554909150610a0f90610a03858463ffffffff61308616565b6125ff613127565b6065546001600160a01b0390811691161461264f576040805162461bcd60e51b81526020600482018190526024820152600080516020614b41833981519152604482015290519081900360640190fd5b600281101561268f5760405162461bcd60e51b815260040180806020018281038252604281526020018061488f6042913960600191505060405180910390fd5b60d0546001600160a01b031682826000816126a657fe5b905060200201356001600160a01b03166001600160a01b0316148015612775575060e160009054906101000a90046001600160a01b03166001600160a01b031663fc0c546a6040518163ffffffff1660e01b815260040160206040518083038186803b15801561271557600080fd5b505afa158015612729573d6000803e3d6000fd5b505050506040513d602081101561273f57600080fd5b50516001600160a01b03168282600019810181811061275a57fe5b905060200201356001600160a01b03166001600160a01b0316145b6127b05760405162461bcd60e51b81526004018080602001828103825260658152602001806148046065913960800191505060405180910390fd5b6127bc60e3838361466c565b50336001600160a01b03167f2b65c2687997b83513632773a27b486527847ab3163836e18b2d9e9ae3d45c3e838360405180806020018281038252848482818152602001925060200280828437600083820152604051601f909101601f19169092018290039550909350505050a25050565b60d0546001600160a01b031681565b6065546001600160a01b031690565b60de818154811061285957fe5b6000918252602090912001546001600160a01b0316905081565b61287b613127565b6065546001600160a01b039081169116146128cb576040805162461bcd60e51b81526020600482018190526024820152600080516020614b41833981519152604482015290519081900360640190fd5b60d680546001600160a01b038085166001600160a01b0319928316179283905560d780548583169316929092179182905560405191811692169033907f69d0c1af2ab135748ba08c93621e9358ceff9e382ce474bffaea03ffb6e4c00d90600090a45050565b604080516002808252606080830184529283929190602083019080368337505060cf5482519293506001600160a01b03169183915060009061296f57fe5b6001600160a01b03928316602091820292909201015260ce548251911690829060019081106120f757fe5b60e25481565b60e3818154811061285957fe5b60cf546001600160a01b031681565b60ca546001600160a01b031681565b60ce546001600160a01b031681565b60d85481565b6000836129ef57506000612a94565b6000831180156129ff5750600082115b612a3a5760405162461bcd60e51b8152600401808060200182810382526038815260200180614c876038913960400191505060405180910390fd5b6000612a5160db548661308690919063ffffffff16565b90506000612a65828563ffffffff61308616565b90506000612a828361251f60dc548961308690919063ffffffff16565b9050808281612a8d57fe5b0493505050505b9392505050565b60e45481565b60db5481565b612aaf613127565b6065546001600160a01b03908116911614612aff576040805162461bcd60e51b81526020600482018190526024820152600080516020614b41833981519152604482015290519081900360640190fd5b8160005b81811015610ba9578260d46000878785818110612b1c57fe5b905060200201356001600160a01b03166001600160a01b03166001600160a01b0316815260200190815260200160002060006101000a81548160ff021916908315150217905550821515858583818110612b7257fe5b6040516001600160a01b036020909202939093013516913391507f2e1512c909c76d57809911762336907f74e9213cb3aa62464a40ae8e153c8ff490600090a4600101612b03565b60d25481565b612bc8613127565b6065546001600160a01b03908116911614612c18576040805162461bcd60e51b81526020600482018190526024820152600080516020614b41833981519152604482015290519081900360640190fd5b6001600160a01b038116612c5d5760405162461bcd60e51b81526004018080602001828103825260268152602001806148696026913960400191505060405180910390fd5b6065546040516001600160a01b03808416921690600080516020614b8183398151915290600090a3606580546001600160a01b0319166001600160a01b0392909216919091179055565b60d46020526000908152604090205460ff1681565b60de5460609015612d295760de805480602002602001604051908101604052809291908181526020018280548015612d1d57602002820191906000526020600020905b81546001600160a01b03168152600190910190602001808311612cff575b50505050509050610a7e565b60cd5460ce546060916001600160a01b0391821691161415612dcf576040805160028082526060820183529091602083019080368337505060d05482519293506001600160a01b031691839150600090612d7f57fe5b6001600160a01b03928316602091820292909201015260cd54825191169082906001908110612daa57fe5b60200260200101906001600160a01b031690816001600160a01b031681525050612e60565b604080516003808252608082019092529060208201606080368337505060d05482519293506001600160a01b031691839150600090612e0a57fe5b6001600160a01b03928316602091820292909201015260cd54825191169082906001908110612e3557fe5b6001600160a01b03928316602091820292909201015260ce548251911690829060029081106120f757fe5b905090565b60cb546001600160a01b031681565b612e7c613127565b6065546001600160a01b03908116911614612ecc576040805162461bcd60e51b81526020600482018190526024820152600080516020614b41833981519152604482015290519081900360640190fd5b60d854811015612f0d5760405162461bcd60e51b815260040180806020018281038252605f815260200180614cbf605f913960600191505060405180910390fd5b610bb8811115612f4e5760405162461bcd60e51b815260040180806020018281038252604f815260200180614d6e604f913960600191505060405180910390fd5b60d9819055604051819033907ffacd465c29a912d326026f964141e2d55afa562d6a46a808cc66ad7d8c1ac78690600090a350565b333214612fc15760405162461bcd60e51b81526004018080602001828103825260248152602001806149a06024913960400191505060405180910390fd5b33600090815260da602052604090205460ff1661300f5760405162461bcd60e51b8152600401808060200182810382526032815260200180614def6032913960400191505060405180910390fd5b60975460ff16613054576040805162461bcd60e51b815260206004820152601f602482015260008051602061478b833981519152604482015290519081900360640190fd5b6097805460ff1916905560d85461306f9033906000806135c0565b61307761312b565b6097805460ff19166001179055565b600082613095575060006130e2565b828202828482816130a257fe5b04146130df5760405162461bcd60e51b8152600401808060200182810382526021815260200180614a696021913960400191505060405180910390fd5b90505b92915050565b60006130df83836040518060400160405280601a815260200179536166654d6174683a206469766973696f6e206279207a65726f60301b815250613e2b565b3390565b60e454613137576131f6565b60e48054600090915560e15460408051637e062a3560e11b815290516131cc926001600160a01b0316918491839163fc0c546a916004808301926020929190829003018186803b15801561318a57600080fd5b505afa15801561319e573d6000803e3d6000fd5b505050506040513d60208110156131b457600080fd5b50516001600160a01b0316919063ffffffff61346d16565b60e15460405182916001600160a01b0316903390600080516020614b6183398151915290600090a4505b565b303b1590565b600054610100900460ff168061321757506132176131f8565b80613225575060005460ff16155b6132605760405162461bcd60e51b815260040180806020018281038252602e815260200180614bd9602e913960400191505060405180910390fd5b600054610100900460ff1615801561328b576000805460ff1961ff0019909116610100171660011790555b613293613ecd565b61329b613f6d565b80156132ad576000805461ff00191690555b50565b600054610100900460ff16806132c957506132c96131f8565b806132d7575060005460ff16155b6133125760405162461bcd60e51b815260040180806020018281038252602e815260200180614bd9602e913960400191505060405180910390fd5b600054610100900460ff1615801561333d576000805460ff1961ff0019909116610100171660011790555b61329b614054565b600081815260d36020526040902054801561343e57600061336582612548565b60c95460d254604080516333cfcd3b60e01b815260048101929092526024820184905260016044830152519293506001600160a01b03909116916333cfcd3b9160648082019260009290919082900301818387803b1580156133c657600080fd5b505af11580156133da573d6000803e3d6000fd5b505060d5546133f2925090508363ffffffff613d9116565b60d555600083815260d360209081526040808320929092558151848152915185927fca07b1e9ff462c1feca0fa258869d03f3657c3a02eaceed810db4f58848856dc92908290030190a2505b5050565b60e45460ce54600091612e6091613461906001600160a01b0316614102565b9063ffffffff613d9116565b604080516001600160a01b038481166024830152604480830185905283518084039091018152606490920183526020820180516001600160e01b031663a9059cbb60e01b178152925182516000946060949389169392918291908083835b602083106134ea5780518252601f1990920191602091820191016134cb565b6001836020036101000a0380198251168184511680821785525050505050509050019150506000604051808303816000865af19150503d806000811461354c576040519150601f19603f3d011682016040523d82523d6000602084013e613551565b606091505b509150915081801561357f57508051158061357f575080806020019051602081101561357c57600080fd5b50515b610ba9576040805162461bcd60e51b815260206004820152600d60248201526c10b9b0b332aa3930b739b332b960991b604482015290519081900360640190fd5b6001600160a01b0384166136055760405162461bcd60e51b81526004018080602001828103825260338152602001806148d16033913960400191505060405180910390fd5b60c95460d254604080516333cfcd3b60e01b815260048101929092526000602483018190526001604484015290516001600160a01b03909316926333cfcd3b92606480820193929182900301818387803b15801561366257600080fd5b505af1158015613676573d6000803e3d6000fd5b505060d0546000925061369991506001600160a01b03163063ffffffff61417e16565b90508181116136a85750613bc0565b60cb5460d0546136cd916001600160a01b03918216911660001963ffffffff61420916565b60c95460cc546136f2916001600160a01b03918216911660001963ffffffff61420916565b6000612710613707838763ffffffff61308616565b8161370e57fe5b049050801561377a57600061271061373160e2548461308690919063ffffffff16565b8161373857fe5b049050801561374b5761374b818661435b565b6137788761375f848463ffffffff613d9116565b60d0546001600160a01b0316919063ffffffff61346d16565b505b60cb546001600160a01b03166338ed173961379b848463ffffffff613d9116565b60006137a5612cbc565b30426040518663ffffffff1660e01b81526004018086815260200185815260200180602001846001600160a01b03166001600160a01b03168152602001838152602001828103825285818151815260200191508051906020019060200280838360005b83811015613820578181015183820152602001613808565b505050509050019650505050505050600060405180830381600087803b15801561384957600080fd5b505af115801561385d573d6000803e3d6000fd5b505050506040513d6000823e601f3d908101601f19168201604052602081101561388657600080fd5b8101908080516040519392919084600160201b8211156138a557600080fd5b9083019060208201858111156138ba57600080fd5b82518660208202830111600160201b821117156138d657600080fd5b82525081516020918201928201910280838360005b838110156139035781810151838201526020016138eb565b5050505091909101604052505060cb5460d05461393894506001600160a01b039081169350169050600063ffffffff61420916565b60d654613954906001600160a01b0316611f6886613461613442565b60d654604080516000602080830182905283518084038201815283850194859052635b0e93fb60e11b9094526044830182815260648401839052606060848501908152855160a486015285516001600160a01b039097169663b61d27f696949586959460c49091019190850190808383895b838110156139de5781810151838201526020016139c6565b50505050905090810190601f168015613a0b5780820380516001836020036101000a031916815260200191505b50945050505050600060405180830381600087803b158015613a2c57600080fd5b505af1158015613a40573d6000803e3d6000fd5b505060c95460d25460cc54604080516370a0823160e01b815230600482015290516001600160a01b0394851696506343a0d06695509293909116916370a0823191602480820192602092909190829003018186803b158015613aa157600080fd5b505afa158015613ab5573d6000803e3d6000fd5b505050506040513d6020811015613acb57600080fd5b5051604080516001600160e01b031960e086901b168152600481019390935260248301919091526001604483015251606480830192600092919082900301818387803b158015613b1a57600080fd5b505af1158015613b2e573d6000803e3d6000fd5b505060cb5460d054613b5693506001600160a01b03908116925016600063ffffffff61420916565b60c95460cc54613b7a916001600160a01b039182169116600063ffffffff61420916565b604080518381526020810183905281516001600160a01b038916927fc003f45bc224d116b6d079100d4ab57a5b9633244c47a5a92a176c5b79a85f28928290030190a250505b50505050565b60cc54604080516370a0823160e01b815230600482015290516000926001600160a01b0316916370a08231916024808301926020929190829003018186803b158015613c1157600080fd5b505afa158015613c25573d6000803e3d6000fd5b505050506040513d6020811015613c3b57600080fd5b50519050801561343e5760c95460cc54613c6a916001600160a01b03918216911660001963ffffffff61420916565b6000613c7582610951565b60c95460d254604080516321d0683360e11b815260048101929092526024820186905260016044830152519293506001600160a01b03909116916343a0d0669160648082019260009290919082900301818387803b158015613cd657600080fd5b505af1158015613cea573d6000803e3d6000fd5b505050600084815260d36020526040902054613d0d91508263ffffffff613dd316565b600084815260d3602052604090205560d554613d2f908263ffffffff613dd316565b60d55560c95460cc54613d56916001600160a01b039182169116600063ffffffff61420916565b60408051828152905184917fdbdb2d65c9e75a246e9a50307e793774f5ad8d986766a102b8a0eacb58208da2919081900360200190a2505050565b60006130df83836040518060400160405280601e81526020017f536166654d6174683a207375627472616374696f6e206f766572666c6f770000815250614612565b6000828201838110156130df576040805162461bcd60e51b815260206004820152601b60248201527a536166654d6174683a206164646974696f6e206f766572666c6f7760281b604482015290519081900360640190fd5b60008183613eb75760405162461bcd60e51b81526004018080602001828103825283818151815260200191508051906020019080838360005b83811015613e7c578181015183820152602001613e64565b50505050905090810190601f168015613ea95780820380516001836020036101000a031916815260200191505b509250505060405180910390fd5b506000838581613ec357fe5b0495945050505050565b600054610100900460ff1680613ee65750613ee66131f8565b80613ef4575060005460ff16155b613f2f5760405162461bcd60e51b815260040180806020018281038252602e815260200180614bd9602e913960400191505060405180910390fd5b600054610100900460ff1615801561329b576000805460ff1961ff00199091166101001716600117905580156132ad576000805461ff001916905550565b600054610100900460ff1680613f865750613f866131f8565b80613f94575060005460ff16155b613fcf5760405162461bcd60e51b815260040180806020018281038252602e815260200180614bd9602e913960400191505060405180910390fd5b600054610100900460ff16158015613ffa576000805460ff1961ff0019909116610100171660011790555b6000614004613127565b606580546001600160a01b0319166001600160a01b03831690811790915560405191925090600090600080516020614b81833981519152908290a35080156132ad576000805461ff001916905550565b600054610100900460ff168061406d575061406d6131f8565b8061407b575060005460ff16155b6140b65760405162461bcd60e51b815260040180806020018281038252602e815260200180614bd9602e913960400191505060405180910390fd5b600054610100900460ff161580156140e1576000805460ff1961ff0019909116610100171660011790555b6097805460ff1916600117905580156132ad576000805461ff001916905550565b604080516370a0823160e01b815230600482015290516000916001600160a01b038416916370a0823191602480820192602092909190829003018186803b15801561414c57600080fd5b505afa158015614160573d6000803e3d6000fd5b505050506040513d602081101561417657600080fd5b505192915050565b6000826001600160a01b03166370a08231836040518263ffffffff1660e01b815260040180826001600160a01b03166001600160a01b0316815260200191505060206040518083038186803b1580156141d657600080fd5b505afa1580156141ea573d6000803e3d6000fd5b505050506040513d602081101561420057600080fd5b50519392505050565b604080516001600160a01b038481166024830152604480830185905283518084039091018152606490920183526020820180516001600160e01b031663095ea7b360e01b178152925182516000946060949389169392918291908083835b602083106142865780518252601f199092019160209182019101614267565b6001836020036101000a0380198251168184511680821785525050505050509050019150506000604051808303816000865af19150503d80600081146142e8576040519150601f19603f3d011682016040523d82523d6000602084013e6142ed565b606091505b509150915081801561431b57508051158061431b575080806020019051602081101561431857600080fd5b50515b610ba9576040805162461bcd60e51b815260206004820152600c60248201526b2173616665417070726f766560a01b604482015290519081900360640190fd5b60e15460408051637e062a3560e11b815290516000926001600160a01b03169163fc0c546a916004808301926020929190829003018186803b1580156143a057600080fd5b505afa1580156143b4573d6000803e3d6000fd5b505050506040513d60208110156143ca57600080fd5b505160cb546040516338ed173960e01b8152600481018681526000602483018190523060648401819052426084850181905260a06044860190815260e3805460a488018190529899506060986001600160a01b03909816976338ed1739978d97929594939160c4909101908690801561446c57602002820191906000526020600020905b81546001600160a01b0316815260019091019060200180831161444e575b50509650505050505050600060405180830381600087803b15801561449057600080fd5b505af11580156144a4573d6000803e3d6000fd5b505050506040513d6000823e601f3d908101601f1916820160405260208110156144cd57600080fd5b8101908080516040519392919084600160201b8211156144ec57600080fd5b90830190602082018581111561450157600080fd5b82518660208202830111600160201b8211171561451d57600080fd5b82525081516020918201928201910280838360005b8381101561454a578181015183820152602001614532565b5050505091909101604052505060ce5492935050506001600160a01b038381169116146145f357600060e45560e1546145ab906001600160a01b0390811690614594908516614102565b6001600160a01b038516919063ffffffff61346d16565b806001825103815181106145bb57fe5b602090810291909101015160e1546040516001600160a01b03909116903390600080516020614b6183398151915290600090a4613bc0565b61460983613461846001600160a01b0316614102565b60e45550505050565b600081848411156146645760405162461bcd60e51b8152602060048201818152835160248401528351909283926044909101919085019080838360008315613e7c578181015183820152602001613e64565b505050900390565b8280548282559060005260206000209081019282156146bf579160200282015b828111156146bf5781546001600160a01b0319166001600160a01b0384351617825560209092019160019091019061468c565b506146cb9291506146cf565b5090565b610a7e91905b808211156146cb5780546001600160a01b03191681556001016146d556fe5761756c7453776170576f726b657230323a3a73657442656e6566696369616c5661756c74436f6e6669673a3a205f62656e6566696369616c5661756c74426f756e7479427073206578636565647320313030255761756c7453776170576f726b657230323a3a696e697469616c697a653a3a206261736520746f6b656e2063616e6e6f7420626520612072657761726420746f6b656e5265656e7472616e637947756172643a207265656e7472616e742063616c6c005761756c7453776170576f726b657230323a3a7365745265696e76657374436f6e6669673a3a205f7265696e7665737450617468206d7573742073746172742077697468205745582c20656e6420776974682042544f4b454e5761756c7453776170576f726b657230323a3a736574526577617264506174683a3a205f72657761726450617468206d75737420737461727420776974682057455820616e6420656e6420776974682062656e6566696369616c5661756c7420746f6b656e4f776e61626c653a206e6577206f776e657220697320746865207a65726f20616464726573735761756c7453776170576f726b657230323a3a736574526577617264506174683a3a205f72657761726450617468206c656e677468206d757374206265203e3d20325761756c7453776170576f726b657230323a3a5f7265696e766573743a3a20626164207472656173757279206163636f756e745761756c7453776170576f726b657230323a3a7365745265696e76657374436f6e6669673a3a205f7265696e7665737450617468206c656e677468206d757374203e3d20325761756c7453776170576f726b657230323a3a7365745265696e76657374436f6e6669673a3a205f7265696e76657374426f756e7479427073206578636565646564206d61785265696e76657374426f756e74794270735761756c7453776170576f726b657230323a3a6f6e6c79454f413a3a206e6f7420656f615761756c7453776170576f726b657230323a3a7365745472656173757279436f6e6669673a3a205f7472656173757279426f756e7479427073206578636565646564206d61785265696e76657374426f756e74794270735761756c7453776170576f726b657230323a3a696e697469616c697a653a3a204c5020756e6465726c79696e67206e6f74206d617463682077697468206661726d2026206261736520746f6b656e536166654d6174683a206d756c7469706c69636174696f6e206f766572666c6f775761756c7453776170576f726b657230323a3a73657442656e6566696369616c5661756c74436f6e6669673a3a205f72657761726450617468206c656e677468206d757374203e3d20325761756c7453776170576f726b657230323a3a73657442656e6566696369616c5661756c74436f6e6669673a3a205f72657761726450617468206d7573742073746172742077697468205745582c20656e6420776974682062656e6566696369616c5661756c7420746f6b656e4f776e61626c653a2063616c6c6572206973206e6f7420746865206f776e657216d969cecf946827cef9c521d1b9083d7fb9a6c1803277e079d9f6a142d61e538be0079c531659141344cd1fd0a4f28419497f9722a3daafe3b4186f6b6457e05761756c7453776170576f726b657230323a3a776f726b3a3a20756e61626c6520746f207472616e73666572206c7020746f207374726174436f6e747261637420696e7374616e63652068617320616c7265616479206265656e20696e697469616c697a65645761756c7453776170576f726b657230323a3a6f6e6c794f70657261746f723a3a206e6f74206f70657261746f725761756c7453776170576f726b657230323a3a696e697469616c697a653a3a205f7265696e7665737450617468206d7573742073746172742077697468205745582c20656e6420776974682042544f4b454e5761756c7453776170576f726b657230323a3a6765744d6b7453656c6c416d6f756e743a3a2062616420726573657276652076616c7565735761756c7453776170576f726b657230323a3a7365744d61785265696e76657374426f756e74794270733a3a205f6d61785265696e76657374426f756e7479427073206c6f776572207468616e207265696e76657374426f756e74794270735761756c7453776170576f726b657230323a3a696e697469616c697a653a3a205f7265696e76657374426f756e7479427073206578636565646564206d61785265696e76657374426f756e74794270735761756c7453776170576f726b657230323a3a7365744d61785265696e76657374426f756e74794270733a3a205f6d61785265696e76657374426f756e7479427073206578636565646564203330255761756c7453776170576f726b657230323a3a776f726b3a3a20756e617070726f76656420776f726b2073747261746567795761756c7453776170576f726b657230323a3a6f6e6c795265696e766573746f723a3a206e6f74207265696e766573746f72a26469706673582212201b60c8683052867079caf3d60eafe14855aa8878866608e47062d61797dc6ca264736f6c63430006060033",
  "linkReferences": {},
  "deployedLinkReferences": {}
}