{
  "_format": "hh-sol-artifact-1",
  "contractName": "PCSFlashLiquidator",
  "sourceName": "contracts/6.12/liquidator/PCSFlashLiquidator.sol",
  "abi": [
    {
      "anonymous": false,
      "inputs": [
        {
          "indexed": true,
          "internalType": "address",
          "name": "liquidatorAddress",
          "type": "address"
        },
        {
          "indexed": false,
          "internalType": "uint256",
          "name": "debtValueToRepay",
          "type": "uint256"
        },
        {
          "indexed": false,
          "internalType": "uint256",
          "name": "collateralAmountToLiquidate",
          "type": "uint256"
        },
        {
          "indexed": false,
          "internalType": "uint256",
          "name": "liquidationProfit",
          "type": "uint256"
        }
      ],
      "name": "LogFlashLiquidation",
      "type": "event"
    },
    {
      "anonymous": false,
      "inputs": [
        {
          "indexed": false,
          "internalType": "uint256",
          "name": "amount",
          "type": "uint256"
        },
        {
          "indexed": false,
          "internalType": "uint256",
          "name": "minAmountOut",
          "type": "uint256"
        },
        {
          "indexed": false,
          "internalType": "uint256",
          "name": "actualAmountOut",
          "type": "uint256"
        }
      ],
      "name": "LogSellCollateral",
      "type": "event"
    },
    {
      "anonymous": false,
      "inputs": [
        {
          "indexed": true,
          "internalType": "address",
          "name": "previousOwner",
          "type": "address"
        },
        {
          "indexed": true,
          "internalType": "address",
          "name": "newOwner",
          "type": "address"
        }
      ],
      "name": "OwnershipTransferred",
      "type": "event"
    },
    {
      "stateMutability": "payable",
      "type": "fallback"
    },
    {
      "inputs": [],
      "name": "alpacaStablecoin",
      "outputs": [
        {
          "internalType": "address",
          "name": "",
          "type": "address"
        }
      ],
      "stateMutability": "view",
      "type": "function"
    },
    {
      "inputs": [],
      "name": "bookKeeper",
      "outputs": [
        {
          "internalType": "contract IBookKeeper",
          "name": "",
          "type": "address"
        }
      ],
      "stateMutability": "view",
      "type": "function"
    },
    {
      "inputs": [
        {
          "internalType": "address",
          "name": "_caller",
          "type": "address"
        },
        {
          "internalType": "uint256",
          "name": "_debtValueToRepay",
          "type": "uint256"
        },
        {
          "internalType": "uint256",
          "name": "_collateralAmountToLiquidate",
          "type": "uint256"
        },
        {
          "internalType": "bytes",
          "name": "data",
          "type": "bytes"
        }
      ],
      "name": "flashLendingCall",
      "outputs": [],
      "stateMutability": "nonpayable",
      "type": "function"
    },
    {
      "inputs": [
        {
          "internalType": "address",
          "name": "_bookKeeper",
          "type": "address"
        },
        {
          "internalType": "address",
          "name": "_alpacaStablecoin",
          "type": "address"
        },
        {
          "internalType": "address",
          "name": "_stablecoinAdapter",
          "type": "address"
        },
        {
          "internalType": "address",
          "name": "_wrappedNativeAddr",
          "type": "address"
        }
      ],
      "name": "initialize",
      "outputs": [],
      "stateMutability": "nonpayable",
      "type": "function"
    },
    {
      "inputs": [],
      "name": "owner",
      "outputs": [
        {
          "internalType": "address",
          "name": "",
          "type": "address"
        }
      ],
      "stateMutability": "view",
      "type": "function"
    },
    {
      "inputs": [],
      "name": "renounceOwnership",
      "outputs": [],
      "stateMutability": "nonpayable",
      "type": "function"
    },
    {
      "inputs": [],
      "name": "stablecoinAdapter",
      "outputs": [
        {
          "internalType": "contract IStablecoinAdapter",
          "name": "",
          "type": "address"
        }
      ],
      "stateMutability": "view",
      "type": "function"
    },
    {
      "inputs": [
        {
          "internalType": "address",
          "name": "newOwner",
          "type": "address"
        }
      ],
      "name": "transferOwnership",
      "outputs": [],
      "stateMutability": "nonpayable",
      "type": "function"
    },
    {
      "inputs": [
        {
          "internalType": "address",
          "name": "_toBeWhitelistedAddress",
          "type": "address"
        }
      ],
      "name": "whitelist",
      "outputs": [],
      "stateMutability": "nonpayable",
      "type": "function"
    },
    {
      "inputs": [
        {
          "internalType": "address",
          "name": "_token",
          "type": "address"
        },
        {
          "internalType": "uint256",
          "name": "_amount",
          "type": "uint256"
        }
      ],
      "name": "withdrawToken",
      "outputs": [],
      "stateMutability": "nonpayable",
      "type": "function"
    },
    {
      "inputs": [],
      "name": "wrappedNativeAddr",
      "outputs": [
        {
          "internalType": "address",
          "name": "",
          "type": "address"
        }
      ],
      "stateMutability": "view",
      "type": "function"
    },
    {
      "stateMutability": "payable",
      "type": "receive"
    }
  ],
  "bytecode": "0x608060405234801561001057600080fd5b50611919806100206000396000f3fe6080604052600436106100905760003560e01c806346a311d314610099578063715018a6146100ca5780637ba3ca0d146100df578063811cbd51146100f45780638da5cb5b146101095780639b19251a1461011e5780639e281a9814610151578063af7bd1421461018a578063e3b3932a14610221578063f2fde38b14610236578063f8c8765e1461026957610097565b3661009757005b005b3480156100a557600080fd5b506100ae6102b4565b604080516001600160a01b039092168252519081900360200190f35b3480156100d657600080fd5b506100976102c3565b3480156100eb57600080fd5b506100ae61035d565b34801561010057600080fd5b506100ae61036c565b34801561011557600080fd5b506100ae61037b565b34801561012a57600080fd5b506100976004803603602081101561014157600080fd5b50356001600160a01b031661038a565b34801561015d57600080fd5b506100976004803603604081101561017457600080fd5b506001600160a01b038135169060200135610455565b34801561019657600080fd5b50610097600480360360808110156101ad57600080fd5b6001600160a01b038235169160208101359160408201359190810190608081016060820135600160201b8111156101e357600080fd5b8201836020820111156101f557600080fd5b803590602001918460018302840111600160201b8311171561021657600080fd5b5090925090506104cf565b34801561022d57600080fd5b506100ae6106a8565b34801561024257600080fd5b506100976004803603602081101561025957600080fd5b50356001600160a01b03166106b7565b34801561027557600080fd5b506100976004803603608081101561028c57600080fd5b506001600160a01b0381358116916020810135821691604082013581169160600135166107a8565b6066546001600160a01b031681565b6102cb61089f565b6001600160a01b03166102dc61037b565b6001600160a01b031614610325576040805162461bcd60e51b815260206004820181905260248201526000805160206118a4833981519152604482015290519081900360640190fd5b6033546040516000916001600160a01b0316906000805160206118c4833981519152908390a3603380546001600160a01b0319169055565b6068546001600160a01b031681565b6067546001600160a01b031681565b6033546001600160a01b031690565b61039261089f565b6001600160a01b03166103a361037b565b6001600160a01b0316146103ec576040805162461bcd60e51b815260206004820181905260248201526000805160206118a4833981519152604482015290519081900360640190fd5b60655460408051634d8c928d60e11b81526001600160a01b03848116600483015291519190921691639b19251a91602480830192600092919082900301818387803b15801561043a57600080fd5b505af115801561044e573d6000803e3d6000fd5b5050505050565b61045d61089f565b6001600160a01b031661046e61037b565b6001600160a01b0316146104b7576040805162461bcd60e51b815260206004820181905260248201526000805160206118a4833981519152604482015290519081900360640190fd5b6104cb6001600160a01b03831633836108a3565b5050565b6000806000806060868660a08110156104e757600080fd5b6001600160a01b03823581169260208101358216926040820135831692606083013516919081019060a081016080820135600160201b81111561052957600080fd5b82018360208201111561053b57600080fd5b803590602001918460208302840111600160201b8311171561055c57600080fd5b91908080602002602001604051908101604052809392919081815260200183836020028082843760009201829052509a9f50989d50969b5094995097508695506105b194508a93508992508e91506109f69050565b915091506105c2828486848f610e00565b6105d78c676765c793fa10079d601b1b6111f1565b6001011115610628576040805162461bcd60e51b81526020600482015260186024820152771b9bdd08195b9bdd59da081d1bc81c995c185e481919589d60421b604482015290519081900360640190fd5b600061064b6106428d676765c793fa10079d601b1b6111f1565b60010189611255565b604080518e8152602081018e905280820183905290519192506001600160a01b038a16917fe894a6887dde931a0c9d95cebbecc04278bf61a379fdb823b1bf181fcec519c89181900360600190a250505050505050505050505050565b6065546001600160a01b031681565b6106bf61089f565b6001600160a01b03166106d061037b565b6001600160a01b031614610719576040805162461bcd60e51b815260206004820181905260248201526000805160206118a4833981519152604482015290519081900360640190fd5b6001600160a01b03811661075e5760405162461bcd60e51b81526004018080602001828103825260268152602001806118506026913960400191505060405180910390fd5b6033546040516001600160a01b038084169216906000805160206118c483398151915290600090a3603380546001600160a01b0319166001600160a01b0392909216919091179055565b600054610100900460ff16806107c157506107c16113cf565b806107cf575060005460ff16155b61080a5760405162461bcd60e51b815260040180806020018281038252602e815260200180611876602e913960400191505060405180910390fd5b600054610100900460ff16158015610835576000805460ff1961ff0019909116610100171660011790555b61083d6113e0565b606580546001600160a01b038088166001600160a01b03199283161790925560678054878416908316179055606680548684169083161790556068805492851692909116919091179055801561044e576000805461ff00191690555050505050565b3390565b604080516001600160a01b038481166024830152604480830185905283518084039091018152606490920183526020820180516001600160e01b031663a9059cbb60e01b178152925182516000946060949389169392918291908083835b602083106109205780518252601f199092019160209182019101610901565b6001836020036101000a0380198251168184511680821785525050505050509050019150506000604051808303816000865af19150503d8060008114610982576040519150601f19603f3d011682016040523d82523d6000602084013e610987565b606091505b50915091508180156109b55750805115806109b557508080602001905160208110156109b257600080fd5b50515b61044e576040805162461bcd60e51b815260206004820152600d60248201526c10b9b0b332aa3930b739b332b960991b604482015290519081900360640190fd5b60655460408051634d8c928d60e11b81526001600160a01b038681166004830152915160009384931691639b19251a916024808301928692919082900301818387803b158015610a4557600080fd5b505af1158015610a59573d6000803e3d6000fd5b50505050846001600160a01b03166331f0926530853060405160200180826001600160a01b031681526020019150506040516020818303038152906040526040518463ffffffff1660e01b815260040180846001600160a01b0316815260200183815260200180602001828103825283818151815260200191508051906020019080838360005b83811015610af8578181015183820152602001610ae0565b50505050905090810190601f168015610b255780820380516001836020036101000a031916815260200191505b50945050505050600060405180830381600087803b158015610b4657600080fd5b505af1158015610b5a573d6000803e3d6000fd5b50505050846001600160a01b031663b2016bd46040518163ffffffff1660e01b8152600401602060405180830381600087803b158015610b9957600080fd5b505af1158015610bad573d6000803e3d6000fd5b505050506040513d6020811015610bc357600080fd5b505191508290506001600160a01b03841615610df857836001600160a01b031663fc0c546a6040518163ffffffff1660e01b815260040160206040518083038186803b158015610c1257600080fd5b505afa158015610c26573d6000803e3d6000fd5b505050506040513d6020811015610c3c57600080fd5b50516068549092506001600160a01b0380841691161415610cd1576000479050846001600160a01b0316632e1a7d4d856040518263ffffffff1660e01b815260040180828152602001915050600060405180830381600087803b158015610ca257600080fd5b505af1158015610cb6573d6000803e3d6000fd5b50479250610cc8915082905083611492565b92505050610df8565b6000610d49856001600160a01b031663fc0c546a6040518163ffffffff1660e01b815260040160206040518083038186803b158015610d0f57600080fd5b505afa158015610d23573d6000803e3d6000fd5b505050506040513d6020811015610d3957600080fd5b50516001600160a01b03166114ef565b9050846001600160a01b0316632e1a7d4d856040518263ffffffff1660e01b815260040180828152602001915050600060405180830381600087803b158015610d9157600080fd5b505af1158015610da5573d6000803e3d6000fd5b505050506000610de7866001600160a01b031663fc0c546a6040518163ffffffff1660e01b815260040160206040518083038186803b158015610d0f57600080fd5b9050610df38183611492565b925050505b935093915050565b6067546000908190610e1a906001600160a01b03166114ef565b6068549091506001600160a01b0388811691161415610fbd576001600160a01b038516637ff36ab585610e5886676765c793fa10079d601b1b6111f1565b6001018930426040518663ffffffff1660e01b81526004018085815260200180602001846001600160a01b03168152602001838152602001828103825285818151815260200191508051906020019060200280838360005b83811015610ec8578181015183820152602001610eb0565b50505050905001955050505050506000604051808303818588803b158015610eef57600080fd5b505af1158015610f03573d6000803e3d6000fd5b50505050506040513d6000823e601f3d908101601f191682016040526020811015610f2d57600080fd5b8101908080516040519392919084600160201b821115610f4c57600080fd5b908301906020820185811115610f6157600080fd5b82518660208202830111600160201b82111715610f7d57600080fd5b82525081516020918201928201910280838360005b83811015610faa578181015183820152602001610f92565b505050509050016040525050505061117e565b610fd36001600160a01b03881686600019611570565b6001600160a01b0385166338ed173985610ff886676765c793fa10079d601b1b6111f1565b6001018930426040518663ffffffff1660e01b81526004018086815260200185815260200180602001846001600160a01b03168152602001838152602001828103825285818151815260200191508051906020019060200280838360005b8381101561106e578181015183820152602001611056565b505050509050019650505050505050600060405180830381600087803b15801561109757600080fd5b505af11580156110ab573d6000803e3d6000fd5b505050506040513d6000823e601f3d908101601f1916820160405260208110156110d457600080fd5b8101908080516040519392919084600160201b8211156110f357600080fd5b90830190602082018581111561110857600080fd5b82518660208202830111600160201b8211171561112457600080fd5b82525081516020918201928201910280838360005b83811015611151578181015183820152602001611139565b505050509050016040525050505061117e856000896001600160a01b03166115709092919063ffffffff16565b606754600090611196906001600160a01b03166114ef565b90506111a28183611492565b604080518781526020810187905280820183905290519194507ffcbb3e4e6344dcd6a0d183bdf58e13cea0ecc717925bcbee76b96cc956ee5de8919081900360600190a1505095945050505050565b6000808211611244576040805162461bcd60e51b815260206004820152601a602482015279536166654d6174683a206469766973696f6e206279207a65726f60301b604482015290519081900360640190fd5b81838161124d57fe5b049392505050565b606754600090819061126f906001600160a01b03166114ef565b606654606754919250611291916001600160a01b039081169116600019611570565b606660009054906101000a90046001600160a01b03166001600160a01b03166349bdc2b884866000604051602001808281526020019150506040516020818303038152906040526040518463ffffffff1660e01b815260040180846001600160a01b0316815260200183815260200180602001828103825283818151815260200191508051906020019080838360005b83811015611339578181015183820152602001611321565b50505050905090810190601f1680156113665780820380516001836020036101000a031916815260200191505b50945050505050600060405180830381600087803b15801561138757600080fd5b505af115801561139b573d6000803e3d6000fd5b50506066546067546113bd93506001600160a01b039081169250166000611570565b6113c78185611492565b949350505050565b60006113da306116c2565b15905090565b600054610100900460ff16806113f957506113f96113cf565b80611407575060005460ff16155b6114425760405162461bcd60e51b815260040180806020018281038252602e815260200180611876602e913960400191505060405180910390fd5b600054610100900460ff1615801561146d576000805460ff1961ff0019909116610100171660011790555b6114756116c8565b61147d611768565b801561148f576000805461ff00191690555b50565b6000828211156114e9576040805162461bcd60e51b815260206004820152601e60248201527f536166654d6174683a207375627472616374696f6e206f766572666c6f770000604482015290519081900360640190fd5b50900390565b6000816001600160a01b03166370a08231306040518263ffffffff1660e01b815260040180826001600160a01b0316815260200191505060206040518083038186803b15801561153e57600080fd5b505afa158015611552573d6000803e3d6000fd5b505050506040513d602081101561156857600080fd5b505192915050565b604080516001600160a01b038481166024830152604480830185905283518084039091018152606490920183526020820180516001600160e01b031663095ea7b360e01b178152925182516000946060949389169392918291908083835b602083106115ed5780518252601f1990920191602091820191016115ce565b6001836020036101000a0380198251168184511680821785525050505050509050019150506000604051808303816000865af19150503d806000811461164f576040519150601f19603f3d011682016040523d82523d6000602084013e611654565b606091505b5091509150818015611682575080511580611682575080806020019051602081101561167f57600080fd5b50515b61044e576040805162461bcd60e51b815260206004820152600c60248201526b2173616665417070726f766560a01b604482015290519081900360640190fd5b3b151590565b600054610100900460ff16806116e157506116e16113cf565b806116ef575060005460ff16155b61172a5760405162461bcd60e51b815260040180806020018281038252602e815260200180611876602e913960400191505060405180910390fd5b600054610100900460ff1615801561147d576000805460ff1961ff001990911661010017166001179055801561148f576000805461ff001916905550565b600054610100900460ff168061178157506117816113cf565b8061178f575060005460ff16155b6117ca5760405162461bcd60e51b815260040180806020018281038252602e815260200180611876602e913960400191505060405180910390fd5b600054610100900460ff161580156117f5576000805460ff1961ff0019909116610100171660011790555b60006117ff61089f565b603380546001600160a01b0319166001600160a01b038316908117909155604051919250906000906000805160206118c4833981519152908290a350801561148f576000805461ff00191690555056fe4f776e61626c653a206e6577206f776e657220697320746865207a65726f2061646472657373496e697469616c697a61626c653a20636f6e747261637420697320616c726561647920696e697469616c697a65644f776e61626c653a2063616c6c6572206973206e6f7420746865206f776e65728be0079c531659141344cd1fd0a4f28419497f9722a3daafe3b4186f6b6457e0a26469706673582212204bcd0cc6eb882c3909232f55e279b9fc25af2f6660b9e6702ff2a5a3678db87b64736f6c634300060c0033",
  "linkReferences": {},
  "deployedLinkReferences": {}
}