{
  "_format": "hh-sol-artifact-1",
  "contractName": "AlpacaToken",
  "sourceName": "contracts/6.12/apis/alpaca/AlpacaToken.sol",
  "abi": [
    {
      "inputs": [
        {
          "internalType": "uint256",
          "name": "_startReleaseBlock",
          "type": "uint256"
        },
        {
          "internalType": "uint256",
          "name": "_endReleaseBlock",
          "type": "uint256"
        }
      ],
      "stateMutability": "nonpayable",
      "type": "constructor"
    },
    {
      "anonymous": false,
      "inputs": [
        {
          "indexed": true,
          "internalType": "address",
          "name": "owner",
          "type": "address"
        },
        {
          "indexed": true,
          "internalType": "address",
          "name": "spender",
          "type": "address"
        },
        {
          "indexed": false,
          "internalType": "uint256",
          "name": "value",
          "type": "uint256"
        }
      ],
      "name": "Approval",
      "type": "event"
    },
    {
      "anonymous": false,
      "inputs": [
        {
          "indexed": true,
          "internalType": "address",
          "name": "delegator",
          "type": "address"
        },
        {
          "indexed": true,
          "internalType": "address",
          "name": "fromDelegate",
          "type": "address"
        },
        {
          "indexed": true,
          "internalType": "address",
          "name": "toDelegate",
          "type": "address"
        }
      ],
      "name": "DelegateChanged",
      "type": "event"
    },
    {
      "anonymous": false,
      "inputs": [
        {
          "indexed": true,
          "internalType": "address",
          "name": "delegate",
          "type": "address"
        },
        {
          "indexed": false,
          "internalType": "uint256",
          "name": "previousBalance",
          "type": "uint256"
        },
        {
          "indexed": false,
          "internalType": "uint256",
          "name": "newBalance",
          "type": "uint256"
        }
      ],
      "name": "DelegateVotesChanged",
      "type": "event"
    },
    {
      "anonymous": false,
      "inputs": [
        {
          "indexed": true,
          "internalType": "address",
          "name": "to",
          "type": "address"
        },
        {
          "indexed": false,
          "internalType": "uint256",
          "name": "value",
          "type": "uint256"
        }
      ],
      "name": "Lock",
      "type": "event"
    },
    {
      "anonymous": false,
      "inputs": [
        {
          "indexed": true,
          "internalType": "address",
          "name": "previousOwner",
          "type": "address"
        },
        {
          "indexed": true,
          "internalType": "address",
          "name": "newOwner",
          "type": "address"
        }
      ],
      "name": "OwnershipTransferred",
      "type": "event"
    },
    {
      "anonymous": false,
      "inputs": [
        {
          "indexed": true,
          "internalType": "address",
          "name": "from",
          "type": "address"
        },
        {
          "indexed": true,
          "internalType": "address",
          "name": "to",
          "type": "address"
        },
        {
          "indexed": false,
          "internalType": "uint256",
          "name": "value",
          "type": "uint256"
        }
      ],
      "name": "Transfer",
      "type": "event"
    },
    {
      "inputs": [],
      "name": "DELEGATION_TYPEHASH",
      "outputs": [
        {
          "internalType": "bytes32",
          "name": "",
          "type": "bytes32"
        }
      ],
      "stateMutability": "view",
      "type": "function"
    },
    {
      "inputs": [],
      "name": "DOMAIN_TYPEHASH",
      "outputs": [
        {
          "internalType": "bytes32",
          "name": "",
          "type": "bytes32"
        }
      ],
      "stateMutability": "view",
      "type": "function"
    },
    {
      "inputs": [],
      "name": "MANUAL_MINT_LIMIT",
      "outputs": [
        {
          "internalType": "uint256",
          "name": "",
          "type": "uint256"
        }
      ],
      "stateMutability": "view",
      "type": "function"
    },
    {
      "inputs": [
        {
          "internalType": "address",
          "name": "owner",
          "type": "address"
        },
        {
          "internalType": "address",
          "name": "spender",
          "type": "address"
        }
      ],
      "name": "allowance",
      "outputs": [
        {
          "internalType": "uint256",
          "name": "",
          "type": "uint256"
        }
      ],
      "stateMutability": "view",
      "type": "function"
    },
    {
      "inputs": [
        {
          "internalType": "address",
          "name": "spender",
          "type": "address"
        },
        {
          "internalType": "uint256",
          "name": "amount",
          "type": "uint256"
        }
      ],
      "name": "approve",
      "outputs": [
        {
          "internalType": "bool",
          "name": "",
          "type": "bool"
        }
      ],
      "stateMutability": "nonpayable",
      "type": "function"
    },
    {
      "inputs": [
        {
          "internalType": "address",
          "name": "account",
          "type": "address"
        }
      ],
      "name": "balanceOf",
      "outputs": [
        {
          "internalType": "uint256",
          "name": "",
          "type": "uint256"
        }
      ],
      "stateMutability": "view",
      "type": "function"
    },
    {
      "inputs": [
        {
          "internalType": "address",
          "name": "_account",
          "type": "address"
        },
        {
          "internalType": "uint256",
          "name": "_amount",
          "type": "uint256"
        }
      ],
      "name": "burn",
      "outputs": [],
      "stateMutability": "nonpayable",
      "type": "function"
    },
    {
      "inputs": [
        {
          "internalType": "address",
          "name": "_account",
          "type": "address"
        }
      ],
      "name": "canUnlockAmount",
      "outputs": [
        {
          "internalType": "uint256",
          "name": "",
          "type": "uint256"
        }
      ],
      "stateMutability": "view",
      "type": "function"
    },
    {
      "inputs": [],
      "name": "cap",
      "outputs": [
        {
          "internalType": "uint256",
          "name": "",
          "type": "uint256"
        }
      ],
      "stateMutability": "pure",
      "type": "function"
    },
    {
      "inputs": [
        {
          "internalType": "address",
          "name": "",
          "type": "address"
        },
        {
          "internalType": "uint32",
          "name": "",
          "type": "uint32"
        }
      ],
      "name": "checkpoints",
      "outputs": [
        {
          "internalType": "uint32",
          "name": "fromBlock",
          "type": "uint32"
        },
        {
          "internalType": "uint256",
          "name": "votes",
          "type": "uint256"
        }
      ],
      "stateMutability": "view",
      "type": "function"
    },
    {
      "inputs": [],
      "name": "decimals",
      "outputs": [
        {
          "internalType": "uint8",
          "name": "",
          "type": "uint8"
        }
      ],
      "stateMutability": "view",
      "type": "function"
    },
    {
      "inputs": [
        {
          "internalType": "address",
          "name": "spender",
          "type": "address"
        },
        {
          "internalType": "uint256",
          "name": "subtractedValue",
          "type": "uint256"
        }
      ],
      "name": "decreaseAllowance",
      "outputs": [
        {
          "internalType": "bool",
          "name": "",
          "type": "bool"
        }
      ],
      "stateMutability": "nonpayable",
      "type": "function"
    },
    {
      "inputs": [
        {
          "internalType": "address",
          "name": "delegatee",
          "type": "address"
        }
      ],
      "name": "delegate",
      "outputs": [],
      "stateMutability": "nonpayable",
      "type": "function"
    },
    {
      "inputs": [
        {
          "internalType": "address",
          "name": "delegatee",
          "type": "address"
        },
        {
          "internalType": "uint256",
          "name": "nonce",
          "type": "uint256"
        },
        {
          "internalType": "uint256",
          "name": "expiry",
          "type": "uint256"
        },
        {
          "internalType": "uint8",
          "name": "v",
          "type": "uint8"
        },
        {
          "internalType": "bytes32",
          "name": "r",
          "type": "bytes32"
        },
        {
          "internalType": "bytes32",
          "name": "s",
          "type": "bytes32"
        }
      ],
      "name": "delegateBySig",
      "outputs": [],
      "stateMutability": "nonpayable",
      "type": "function"
    },
    {
      "inputs": [
        {
          "internalType": "address",
          "name": "delegator",
          "type": "address"
        }
      ],
      "name": "delegates",
      "outputs": [
        {
          "internalType": "address",
          "name": "",
          "type": "address"
        }
      ],
      "stateMutability": "view",
      "type": "function"
    },
    {
      "inputs": [],
      "name": "endReleaseBlock",
      "outputs": [
        {
          "internalType": "uint256",
          "name": "",
          "type": "uint256"
        }
      ],
      "stateMutability": "view",
      "type": "function"
    },
    {
      "inputs": [
        {
          "internalType": "address",
          "name": "account",
          "type": "address"
        }
      ],
      "name": "getCurrentVotes",
      "outputs": [
        {
          "internalType": "uint256",
          "name": "",
          "type": "uint256"
        }
      ],
      "stateMutability": "view",
      "type": "function"
    },
    {
      "inputs": [
        {
          "internalType": "address",
          "name": "account",
          "type": "address"
        },
        {
          "internalType": "uint256",
          "name": "blockNumber",
          "type": "uint256"
        }
      ],
      "name": "getPriorVotes",
      "outputs": [
        {
          "internalType": "uint256",
          "name": "",
          "type": "uint256"
        }
      ],
      "stateMutability": "view",
      "type": "function"
    },
    {
      "inputs": [
        {
          "internalType": "address",
          "name": "spender",
          "type": "address"
        },
        {
          "internalType": "uint256",
          "name": "addedValue",
          "type": "uint256"
        }
      ],
      "name": "increaseAllowance",
      "outputs": [
        {
          "internalType": "bool",
          "name": "",
          "type": "bool"
        }
      ],
      "stateMutability": "nonpayable",
      "type": "function"
    },
    {
      "inputs": [
        {
          "internalType": "address",
          "name": "_account",
          "type": "address"
        }
      ],
      "name": "lastUnlockBlock",
      "outputs": [
        {
          "internalType": "uint256",
          "name": "",
          "type": "uint256"
        }
      ],
      "stateMutability": "view",
      "type": "function"
    },
    {
      "inputs": [
        {
          "internalType": "address",
          "name": "_account",
          "type": "address"
        },
        {
          "internalType": "uint256",
          "name": "_amount",
          "type": "uint256"
        }
      ],
      "name": "lock",
      "outputs": [],
      "stateMutability": "nonpayable",
      "type": "function"
    },
    {
      "inputs": [
        {
          "internalType": "address",
          "name": "_account",
          "type": "address"
        }
      ],
      "name": "lockOf",
      "outputs": [
        {
          "internalType": "uint256",
          "name": "",
          "type": "uint256"
        }
      ],
      "stateMutability": "view",
      "type": "function"
    },
    {
      "inputs": [
        {
          "internalType": "address",
          "name": "_to",
          "type": "address"
        },
        {
          "internalType": "uint256",
          "name": "_amount",
          "type": "uint256"
        }
      ],
      "name": "manualMint",
      "outputs": [],
      "stateMutability": "nonpayable",
      "type": "function"
    },
    {
      "inputs": [],
      "name": "manualMinted",
      "outputs": [
        {
          "internalType": "uint256",
          "name": "",
          "type": "uint256"
        }
      ],
      "stateMutability": "view",
      "type": "function"
    },
    {
      "inputs": [
        {
          "internalType": "address",
          "name": "_to",
          "type": "address"
        },
        {
          "internalType": "uint256",
          "name": "_amount",
          "type": "uint256"
        }
      ],
      "name": "mint",
      "outputs": [],
      "stateMutability": "nonpayable",
      "type": "function"
    },
    {
      "inputs": [],
      "name": "name",
      "outputs": [
        {
          "internalType": "string",
          "name": "",
          "type": "string"
        }
      ],
      "stateMutability": "view",
      "type": "function"
    },
    {
      "inputs": [
        {
          "internalType": "address",
          "name": "",
          "type": "address"
        }
      ],
      "name": "nonces",
      "outputs": [
        {
          "internalType": "uint256",
          "name": "",
          "type": "uint256"
        }
      ],
      "stateMutability": "view",
      "type": "function"
    },
    {
      "inputs": [
        {
          "internalType": "address",
          "name": "",
          "type": "address"
        }
      ],
      "name": "numCheckpoints",
      "outputs": [
        {
          "internalType": "uint32",
          "name": "",
          "type": "uint32"
        }
      ],
      "stateMutability": "view",
      "type": "function"
    },
    {
      "inputs": [],
      "name": "owner",
      "outputs": [
        {
          "internalType": "address",
          "name": "",
          "type": "address"
        }
      ],
      "stateMutability": "view",
      "type": "function"
    },
    {
      "inputs": [],
      "name": "renounceOwnership",
      "outputs": [],
      "stateMutability": "nonpayable",
      "type": "function"
    },
    {
      "inputs": [],
      "name": "startReleaseBlock",
      "outputs": [
        {
          "internalType": "uint256",
          "name": "",
          "type": "uint256"
        }
      ],
      "stateMutability": "view",
      "type": "function"
    },
    {
      "inputs": [],
      "name": "symbol",
      "outputs": [
        {
          "internalType": "string",
          "name": "",
          "type": "string"
        }
      ],
      "stateMutability": "view",
      "type": "function"
    },
    {
      "inputs": [
        {
          "internalType": "address",
          "name": "_account",
          "type": "address"
        }
      ],
      "name": "totalBalanceOf",
      "outputs": [
        {
          "internalType": "uint256",
          "name": "",
          "type": "uint256"
        }
      ],
      "stateMutability": "view",
      "type": "function"
    },
    {
      "inputs": [],
      "name": "totalLock",
      "outputs": [
        {
          "internalType": "uint256",
          "name": "",
          "type": "uint256"
        }
      ],
      "stateMutability": "view",
      "type": "function"
    },
    {
      "inputs": [],
      "name": "totalSupply",
      "outputs": [
        {
          "internalType": "uint256",
          "name": "",
          "type": "uint256"
        }
      ],
      "stateMutability": "view",
      "type": "function"
    },
    {
      "inputs": [
        {
          "internalType": "address",
          "name": "recipient",
          "type": "address"
        },
        {
          "internalType": "uint256",
          "name": "amount",
          "type": "uint256"
        }
      ],
      "name": "transfer",
      "outputs": [
        {
          "internalType": "bool",
          "name": "",
          "type": "bool"
        }
      ],
      "stateMutability": "nonpayable",
      "type": "function"
    },
    {
      "inputs": [
        {
          "internalType": "address",
          "name": "_to",
          "type": "address"
        }
      ],
      "name": "transferAll",
      "outputs": [],
      "stateMutability": "nonpayable",
      "type": "function"
    },
    {
      "inputs": [
        {
          "internalType": "address",
          "name": "sender",
          "type": "address"
        },
        {
          "internalType": "address",
          "name": "recipient",
          "type": "address"
        },
        {
          "internalType": "uint256",
          "name": "amount",
          "type": "uint256"
        }
      ],
      "name": "transferFrom",
      "outputs": [
        {
          "internalType": "bool",
          "name": "",
          "type": "bool"
        }
      ],
      "stateMutability": "nonpayable",
      "type": "function"
    },
    {
      "inputs": [
        {
          "internalType": "address",
          "name": "newOwner",
          "type": "address"
        }
      ],
      "name": "transferOwnership",
      "outputs": [],
      "stateMutability": "nonpayable",
      "type": "function"
    },
    {
      "inputs": [],
      "name": "unlock",
      "outputs": [],
      "stateMutability": "nonpayable",
      "type": "function"
    },
    {
      "inputs": [],
      "name": "unlockedSupply",
      "outputs": [
        {
          "internalType": "uint256",
          "name": "",
          "type": "uint256"
        }
      ],
      "stateMutability": "view",
      "type": "function"
    }
  ],
  "bytecode": "0x608060405260006009553480156200001657600080fd5b50604051620030ae380380620030ae833981810160405260408110156200003c57600080fd5b508051602091820151604080518082018252600b81526a20b63830b1b0aa37b5b2b760a91b81860190815282518084019093526006835265414c5041434160d01b9583019590955280519394929390926200009b916003919062000943565b508051620000b190600490602084019062000943565b50506005805460ff19166012179055506000620000cd62000197565b60058054610100600160a81b0319166101006001600160a01b03841690810291909117909155604051919250906000907f8be0079c531659141344cd1fd0a4f28419497f9722a3daafe3b4186f6b6457e0908290a350818111620001635760405162461bcd60e51b81526004018080602001828103825260238152602001806200308b6023913960400191505060405180910390fd5b6200016f60126200019b565b600782905560088190556200018f336934f086f3b33b68400000620001b1565b5050620009df565b3390565b6005805460ff191660ff92909216919091179055565b620001bb62000197565b6001600160a01b0316620001ce620002c4565b6001600160a01b03161462000219576040805162461bcd60e51b8152602060048201819052602482015260008051602062003035833981519152604482015290519081900360640190fd5b6a069e10de76676d080000006200024182600954620002d860201b620019541790919060201c565b111562000295576040805162461bcd60e51b815260206004820152601360248201527f6d696e74206c696d697420657863656564656400000000000000000000000000604482015290519081900360640190fd5b620002b181600954620002d860201b620019541790919060201c565b600955620002c082826200033a565b5050565b60055461010090046001600160a01b031690565b60008282018381101562000333576040805162461bcd60e51b815260206004820152601b60248201527f536166654d6174683a206164646974696f6e206f766572666c6f770000000000604482015290519081900360640190fd5b9392505050565b6200034462000197565b6001600160a01b031662000357620002c4565b6001600160a01b031614620003a2576040805162461bcd60e51b8152602060048201819052602482015260008051602062003035833981519152604482015290519081900360640190fd5b620003ac62000445565b620003cf82620003bb62000454565b620002d860201b620019541790919060201c565b111562000412576040805162461bcd60e51b815260206004820152600c60248201526b18d85c08195e18d95959195960a21b604482015290519081900360640190fd5b6200041e82826200045a565b6001600160a01b038083166000908152600c6020526040812054620002c092168362000569565b6a9b828c6bde7e823c00000090565b60025490565b6001600160a01b038216620004b6576040805162461bcd60e51b815260206004820152601f60248201527f45524332303a206d696e7420746f20746865207a65726f206164647265737300604482015290519081900360640190fd5b620004c460008383620006d6565b620004e081600254620002d860201b620019541790919060201c565b6002556001600160a01b038216600090815260208181526040909120546200051391839062001954620002d8821b17901c565b6001600160a01b0383166000818152602081815260408083209490945583518581529351929391927fddf252ad1be2c89b69c2b068fc378daa952ba7f163c4a11628f55a4df523b3ef9281900390910190a35050565b816001600160a01b0316836001600160a01b0316141580156200058c5750600081115b15620006d6576001600160a01b0383161562000634576001600160a01b0383166000908152600e602052604081205463ffffffff169081620005d057600062000602565b6001600160a01b0385166000908152600d6020908152604080832063ffffffff60001987011684529091529020600101545b90506000620006208483620006db60201b620019ac1790919060201c565b9050620006308684848462000739565b5050505b6001600160a01b03821615620006d6576001600160a01b0382166000908152600e602052604081205463ffffffff16908162000672576000620006a4565b6001600160a01b0384166000908152600d6020908152604080832063ffffffff60001987011684529091529020600101545b90506000620006c28483620002d860201b620019541790919060201c565b9050620006d28584848462000739565b5050505b505050565b60008282111562000733576040805162461bcd60e51b815260206004820152601e60248201527f536166654d6174683a207375627472616374696f6e206f766572666c6f770000604482015290519081900360640190fd5b50900390565b600062000760436040518060600160405280603681526020016200305560369139620008a4565b905060008463ffffffff16118015620007aa57506001600160a01b0385166000908152600d6020908152604080832063ffffffff6000198901811685529252909120548282169116145b15620007e9576001600160a01b0385166000908152600d6020908152604080832063ffffffff600019890116845290915290206001018290556200085a565b60408051808201825263ffffffff808416825260208083018681526001600160a01b038a166000818152600d84528681208b8616825284528681209551865490861663ffffffff199182161787559251600196870155908152600e9092529390208054928801909116919092161790555b604080518481526020810184905281516001600160a01b038816927fdec2bacdd2f05b59de34da9b523dff8be42e5e38e818c82fdb0bae774387a724928290030190a25050505050565b60008164010000000084106200093b5760405162461bcd60e51b81526004018080602001828103825283818151815260200191508051906020019080838360005b83811015620008ff578181015183820152602001620008e5565b50505050905090810190601f1680156200092d5780820380516001836020036101000a031916815260200191505b509250505060405180910390fd5b509192915050565b828054600181600116156101000203166002900490600052602060002090601f016020900481019282601f106200098657805160ff1916838001178555620009b6565b82800160010185558215620009b6579182015b82811115620009b657825182559160200191906001019062000999565b50620009c4929150620009c8565b5090565b5b80821115620009c45760008155600101620009c9565b61264680620009ef6000396000f3fe608060405234801561001057600080fd5b50600436106101e35760003560e01c806306fdde03146101e8578063095ea7b31461026557806318160ddd146102a5578063202b1760146102bf57806320606b70146102e557806323b872dd146102ed578063282d3fdf14610323578063313ce56714610351578063355274ea1461036f57806339509351146103775780633a1aae35146103a357806340c10f19146103ab5780634b0ee02a146103d7578063587cde1e146103fd5780635a46d3b51461043f5780635c19a95c1461046557806368fe6e1d1461048b5780636fcfff451461049357806370a08231146104d2578063715018a6146104f8578063782d6fe1146105005780637ecebe001461052c5780637ee416151461055257806389a2867c1461055a5780638da5cb5b1461058057806395d89b41146105885780639dc29fac14610590578063a3a7e7f3146105bc578063a457c2d7146105e2578063a69df4b51461060e578063a9059cbb14610616578063b4b5ea5714610642578063c3cda52014610668578063ce4079ef146106af578063dd62ed3e146106b7578063e4c5ff46146106e5578063e6b2fb4a14610711578063e7a324dc14610719578063f1127ed814610721578063f2fde38b14610773578063fd3d27b814610799575b600080fd5b6101f06107a1565b6040805160208082528351818301528351919283929083019185019080838360005b8381101561022a578181015183820152602001610212565b50505050905090810190601f1680156102575780820380516001836020036101000a031916815260200191505b509250505060405180910390f35b6102916004803603604081101561027b57600080fd5b506001600160a01b038135169060200135610837565b604080519115158252519081900360200190f35b6102ad610855565b60408051918252519081900360200190f35b6102ad600480360360208110156102d557600080fd5b50356001600160a01b031661085b565b6102ad610921565b6102916004803603606081101561030357600080fd5b506001600160a01b03813581169160208101359091169060400135610933565b61034f6004803603604081101561033957600080fd5b506001600160a01b0381351690602001356109c2565b005b610359610ba4565b6040805160ff9092168252519081900360200190f35b6102ad610bad565b6102916004803603604081101561038d57600080fd5b506001600160a01b038135169060200135610bbc565b6102ad610c0a565b61034f600480360360408110156103c157600080fd5b506001600160a01b038135169060200135610c10565b6102ad600480360360208110156103ed57600080fd5b50356001600160a01b0316610d01565b6104236004803603602081101561041357600080fd5b50356001600160a01b0316610d2e565b604080516001600160a01b039092168252519081900360200190f35b6102ad6004803603602081101561045557600080fd5b50356001600160a01b0316610d4c565b61034f6004803603602081101561047b57600080fd5b50356001600160a01b0316610d67565b6102ad610d74565b6104b9600480360360208110156104a957600080fd5b50356001600160a01b0316610d82565b6040805163ffffffff9092168252519081900360200190f35b6102ad600480360360208110156104e857600080fd5b50356001600160a01b0316610d9a565b61034f610db5565b6102ad6004803603604081101561051657600080fd5b506001600160a01b038135169060200135610e55565b6102ad6004803603602081101561054257600080fd5b50356001600160a01b031661105d565b6102ad61106f565b6102ad6004803603602081101561057057600080fd5b50356001600160a01b0316611075565b610423611090565b6101f06110a4565b61034f600480360360408110156105a657600080fd5b506001600160a01b038135169060200135611105565b61034f600480360360208110156105d257600080fd5b50356001600160a01b0316611171565b610291600480360360408110156105f857600080fd5b506001600160a01b0381351690602001356112b3565b61034f61131b565b6102916004803603604081101561062c57600080fd5b506001600160a01b0381351690602001356113d3565b6102ad6004803603602081101561065857600080fd5b50356001600160a01b0316611431565b61034f600480360360c081101561067e57600080fd5b506001600160a01b038135169060208101359060408101359060ff6060820135169060808101359060a00135611495565b6102ad6116e4565b6102ad600480360360408110156106cd57600080fd5b506001600160a01b03813581169160200135166116ea565b61034f600480360360408110156106fb57600080fd5b506001600160a01b038135169060200135611715565b6102ad6117f3565b6102ad6117f9565b6107536004803603604081101561073757600080fd5b5080356001600160a01b0316906020013563ffffffff1661180b565b6040805163ffffffff909316835260208301919091528051918290030190f35b61034f6004803603602081101561078957600080fd5b50356001600160a01b0316611838565b6102ad611934565b60038054604080516020601f600260001961010060018816150201909516949094049384018190048102820181019092528281526060939092909183018282801561082d5780601f106108025761010080835404028352916020019161082d565b820191906000526020600020905b81548152906001019060200180831161081057829003601f168201915b5050505050905090565b600061084b610844611a09565b8484611a0d565b5060015b92915050565b60025490565b600060075443101561086f5750600061091c565b600854431061089757506001600160a01b0381166000908152600a602052604090205461091c565b6001600160a01b0382166000908152600b60205260408120546108bb9043906119ac565b6001600160a01b0384166000908152600b602052604081205460085492935090916108e5916119ac565b6001600160a01b0385166000908152600a60205260409020549091506109179082906109119085611af9565b90611b52565b925050505b919050565b60008051602061235883398151915281565b6000610940848484611bb6565b6109868461094c611a09565b6109818560405180606001604052806028815260200161249c6028913961097a8a610975611a09565b6116ea565b9190611cff565b611a0d565b6001600160a01b038085166000908152600c60205260408082205486841683529120546109b892918216911684611d96565b5060019392505050565b6109ca611a09565b6001600160a01b03166109db611090565b6001600160a01b031614610a24576040805162461bcd60e51b815260206004820181905260248201526000805160206124c4833981519152604482015290519081900360640190fd5b6001600160a01b038216610a77576040805162461bcd60e51b81526020600482015260156024820152746e6f206c6f636b20746f206164647265737328302960581b604482015290519081900360640190fd5b610a8082610d9a565b811115610acb576040805162461bcd60e51b81526020600482015260146024820152736e6f206c6f636b206f7665722062616c616e636560601b604482015290519081900360640190fd5b610ad6823083611bb6565b6001600160a01b0382166000908152600a6020526040902054610af99082611954565b6001600160a01b0383166000908152600a6020526040902055600654610b1f9082611954565b6006556007546001600160a01b0383166000908152600b60205260409020541015610b61576007546001600160a01b0383166000908152600b60205260409020555b6040805182815290516001600160a01b038416917f625fed9875dada8643f2418b838ae0bc78d9a148a18eee4ee1979ff0f3f5d427919081900360200190a25050565b60055460ff1690565b6a9b828c6bde7e823c00000090565b600061084b610bc9611a09565b846109818560016000610bda611a09565b6001600160a01b03908116825260208083019390935260409182016000908120918c168152925290205490611954565b60065490565b610c18611a09565b6001600160a01b0316610c29611090565b6001600160a01b031614610c72576040805162461bcd60e51b815260206004820181905260248201526000805160206124c4833981519152604482015290519081900360640190fd5b610c7a610bad565b610c8c82610c86610855565b90611954565b1115610cce576040805162461bcd60e51b815260206004820152600c60248201526b18d85c08195e18d95959195960a21b604482015290519081900360640190fd5b610cd88282611ed8565b6001600160a01b038083166000908152600c6020526040812054610cfd921683611d96565b5050565b600061084f610d0f83610d9a565b6001600160a01b0384166000908152600a602052604090205490611954565b6001600160a01b039081166000908152600c60205260409020541690565b6001600160a01b03166000908152600a602052604090205490565b610d713382611fb6565b50565b66d3c21bcecceda1601b1b81565b600e6020526000908152604090205463ffffffff1681565b6001600160a01b031660009081526020819052604090205490565b610dbd611a09565b6001600160a01b0316610dce611090565b6001600160a01b031614610e17576040805162461bcd60e51b815260206004820181905260248201526000805160206124c4833981519152604482015290519081900360640190fd5b60055460405160009161010090046001600160a01b0316906000805160206124e4833981519152908390a360058054610100600160a81b0319169055565b6000438210610e955760405162461bcd60e51b81526004018080602001828103825260298152602001806123786029913960400191505060405180910390fd5b6001600160a01b0383166000908152600e602052604090205463ffffffff1680610ec357600091505061084f565b6001600160a01b0384166000908152600d6020908152604080832063ffffffff600019860181168552925290912054168310610f32576001600160a01b0384166000908152600d602090815260408083206000199490940163ffffffff1683529290522060010154905061084f565b6001600160a01b0384166000908152600d6020908152604080832083805290915290205463ffffffff16831015610f6d57600091505061084f565b600060001982015b8163ffffffff168163ffffffff16111561102657600282820363ffffffff16048103610f9f6122fb565b506001600160a01b0387166000908152600d6020908152604080832063ffffffff8086168552908352928190208151808301909252805490931680825260019093015491810191909152908714156110015760200151945061084f9350505050565b805163ffffffff168711156110185781935061101f565b6001820392505b5050610f75565b506001600160a01b0385166000908152600d6020908152604080832063ffffffff9094168352929052206001015491505092915050565b600f6020526000908152604090205481565b60075481565b6001600160a01b03166000908152600b602052604090205490565b60055461010090046001600160a01b031690565b60048054604080516020601f600260001961010060018816150201909516949094049384018190048102820181019092528281526060939092909183018282801561082d5780601f106108025761010080835404028352916020019161082d565b61110d611a09565b6001600160a01b031661111e611090565b6001600160a01b031614611167576040805162461bcd60e51b815260206004820181905260248201526000805160206124c4833981519152604482015290519081900360640190fd5b610cfd828261204b565b336001600160a01b03821614156111c5576040805162461bcd60e51b81526020600482015260136024820152721b9bc81cd95b198b5d1c985b9cd9995c905b1b606a1b604482015290519081900360640190fd5b336000908152600a6020526040808220546001600160a01b03841683529120546111ee91611954565b6001600160a01b0382166000908152600a6020908152604080832093909355600754600b90915291902054101561123c576007546001600160a01b0382166000908152600b60205260409020555b336000908152600b6020526040808220546001600160a01b0384168352912054101561128357336000908152600b6020526040808220546001600160a01b03841683529120555b336000818152600a60209081526040808320839055600b909152812055610d7190826112ae82610d9a565b611bb6565b600061084b6112c0611a09565b84610981856040518060600160405280602581526020016125ec60259139600160006112ea611a09565b6001600160a01b03908116825260208083019390935260409182016000908120918d16815292529020549190611cff565b336000908152600a6020526040902054611370576040805162461bcd60e51b81526020600482015260116024820152706e6f206c6f636b656420414c504143417360781b604482015290519081900360640190fd5b600061137b3361085b565b9050611388303383611bb6565b336000908152600a60205260409020546113a290826119ac565b336000908152600a6020908152604080832093909355600b9052204390556006546113cd90826119ac565b60065550565b60006113e76113e0611a09565b8484611bb6565b61084b600c60006113f6611a09565b6001600160a01b03908116825260208083019390935260409182016000908120548883168252600c9094529190912054918116911684611d96565b6001600160a01b0381166000908152600e602052604081205463ffffffff168061145c57600061148e565b6001600160a01b0383166000908152600d6020908152604080832063ffffffff60001986011684529091529020600101545b9392505050565b60006000805160206123588339815191526114ae6107a1565b805190602001206114bd612135565b60408051602080820195909552808201939093526060830191909152306080808401919091528151808403909101815260a08301825280519084012060008051602061241183398151915260c08401526001600160a01b038b1660e084015261010083018a90526101208084018a9052825180850390910181526101408401835280519085012061190160f01b6101608501526101628401829052610182808501829052835180860390910181526101a285018085528151918701919091206000918290526101c2860180865281905260ff8b166101e287015261020286018a90526102228601899052935192965090949293909260019261024280840193601f198301929081900390910190855afa1580156115de573d6000803e3d6000fd5b5050604051601f1901519150506001600160a01b0381166116305760405162461bcd60e51b815260040180806020018281038252602881526020018061256a6028913960400191505060405180910390fd5b6001600160a01b0381166000908152600f60205260409020805460018101909155891461168e5760405162461bcd60e51b81526004018080602001828103825260248152602001806124316024913960400191505060405180910390fd5b874211156116cd5760405162461bcd60e51b81526004018080602001828103825260288152602001806123e96028913960400191505060405180910390fd5b6116d7818b611fb6565b505050505b505050505050565b60085481565b6001600160a01b03918216600090815260016020908152604080832093909416825291909152205490565b61171d611a09565b6001600160a01b031661172e611090565b6001600160a01b031614611777576040805162461bcd60e51b815260206004820181905260248201526000805160206124c4833981519152604482015290519081900360640190fd5b60095466d3c21bcecceda1601b1b906117909083611954565b11156117d9576040805162461bcd60e51b81526020600482015260136024820152721b5a5b9d081b1a5b5a5d08195e18d959591959606a1b604482015290519081900360640190fd5b6009546117e69082611954565b600955610cfd8282610c10565b60095481565b60008051602061241183398151915281565b600d6020908152600092835260408084209091529082529020805460019091015463ffffffff9091169082565b611840611a09565b6001600160a01b0316611851611090565b6001600160a01b03161461189a576040805162461bcd60e51b815260206004820181905260248201526000805160206124c4833981519152604482015290519081900360640190fd5b6001600160a01b0381166118df5760405162461bcd60e51b81526004018080602001828103825260268152602001806123a16026913960400191505060405180910390fd5b6005546040516001600160a01b0380841692610100900416906000805160206124e483398151915290600090a3600580546001600160a01b0390921661010002610100600160a81b0319909216919091179055565b600061194f611941610c0a565b611949610855565b906119ac565b905090565b60008282018381101561148e576040805162461bcd60e51b815260206004820152601b60248201527a536166654d6174683a206164646974696f6e206f766572666c6f7760281b604482015290519081900360640190fd5b600082821115611a03576040805162461bcd60e51b815260206004820152601e60248201527f536166654d6174683a207375627472616374696f6e206f766572666c6f770000604482015290519081900360640190fd5b50900390565b3390565b6001600160a01b038316611a525760405162461bcd60e51b81526004018080602001828103825260248152602001806125926024913960400191505060405180910390fd5b6001600160a01b038216611a975760405162461bcd60e51b81526004018080602001828103825260228152602001806123c76022913960400191505060405180910390fd5b6001600160a01b03808416600081815260016020908152604080832094871680845294825291829020859055815185815291517f8c5be1e5ebec7d5bd14f71427d1e84f3dd0314c0f7b2291e5b200ac8c7c3b9259281900390910190a3505050565b600082611b085750600061084f565b82820282848281611b1557fe5b041461148e5760405162461bcd60e51b815260040180806020018281038252602181526020018061247b6021913960400191505060405180910390fd5b6000808211611ba5576040805162461bcd60e51b815260206004820152601a602482015279536166654d6174683a206469766973696f6e206279207a65726f60301b604482015290519081900360640190fd5b818381611bae57fe5b049392505050565b6001600160a01b038316611bfb5760405162461bcd60e51b81526004018080602001828103825260258152602001806125456025913960400191505060405180910390fd5b6001600160a01b038216611c405760405162461bcd60e51b81526004018080602001828103825260238152602001806123136023913960400191505060405180910390fd5b611c4b838383611ed3565b611c8881604051806060016040528060268152602001612455602691396001600160a01b0386166000908152602081905260409020549190611cff565b6001600160a01b038085166000908152602081905260408082209390935590841681522054611cb79082611954565b6001600160a01b0380841660008181526020818152604091829020949094558051858152905191939287169260008051602061250483398151915292918290030190a3505050565b60008184841115611d8e5760405162461bcd60e51b81526004018080602001828103825283818151815260200191508051906020019080838360005b83811015611d53578181015183820152602001611d3b565b50505050905090810190601f168015611d805780820380516001836020036101000a031916815260200191505b509250505060405180910390fd5b505050900390565b816001600160a01b0316836001600160a01b031614158015611db85750600081115b15611ed3576001600160a01b03831615611e4a576001600160a01b0383166000908152600e602052604081205463ffffffff169081611df8576000611e2a565b6001600160a01b0385166000908152600d6020908152604080832063ffffffff60001987011684529091529020600101545b90506000611e3882856119ac565b9050611e4686848484612139565b5050505b6001600160a01b03821615611ed3576001600160a01b0382166000908152600e602052604081205463ffffffff169081611e85576000611eb7565b6001600160a01b0384166000908152600d6020908152604080832063ffffffff60001987011684529091529020600101545b90506000611ec58285611954565b90506116dc85848484612139565b505050565b6001600160a01b038216611f33576040805162461bcd60e51b815260206004820152601f60248201527f45524332303a206d696e7420746f20746865207a65726f206164647265737300604482015290519081900360640190fd5b611f3f60008383611ed3565b600254611f4c9082611954565b6002556001600160a01b038216600090815260208190526040902054611f729082611954565b6001600160a01b0383166000818152602081815260408083209490945583518581529351929391926000805160206125048339815191529281900390910190a35050565b6001600160a01b038083166000908152600c602052604081205490911690611fdd84610d9a565b6001600160a01b038581166000818152600c602052604080822080546001600160a01b031916898616908117909155905194955093928616927f3134e8a2e6d97e929a7e54011ea5485d7d196dd5f0ba4d4ef95803e8e3fc257f9190a4612045828483611d96565b50505050565b6001600160a01b0382166120905760405162461bcd60e51b81526004018080602001828103825260218152602001806125246021913960400191505060405180910390fd5b61209c82600083611ed3565b6120d981604051806060016040528060228152602001612336602291396001600160a01b0385166000908152602081905260409020549190611cff565b6001600160a01b0383166000908152602081905260409020556002546120ff90826119ac565b6002556040805182815290516000916001600160a01b038516916000805160206125048339815191529181900360200190a35050565b4690565b600061215d436040518060600160405280603681526020016125b66036913961229e565b905060008463ffffffff161180156121a657506001600160a01b0385166000908152600d6020908152604080832063ffffffff6000198901811685529252909120548282169116145b156121e3576001600160a01b0385166000908152600d6020908152604080832063ffffffff60001989011684529091529020600101829055612254565b60408051808201825263ffffffff808416825260208083018681526001600160a01b038a166000818152600d84528681208b8616825284528681209551865490861663ffffffff199182161787559251600196870155908152600e9092529390208054928801909116919092161790555b604080518481526020810184905281516001600160a01b038816927fdec2bacdd2f05b59de34da9b523dff8be42e5e38e818c82fdb0bae774387a724928290030190a25050505050565b600081600160201b84106122f35760405162461bcd60e51b8152602060048201818152835160248401528351909283926044909101919085019080838360008315611d53578181015183820152602001611d3b565b509192915050565b60408051808201909152600080825260208201529056fe45524332303a207472616e7366657220746f20746865207a65726f206164647265737345524332303a206275726e20616d6f756e7420657863656564732062616c616e63658cad95687ba82c2ce50e74f7b754645e5117c3a5bec8151c0726d5857980a866414c504143413a3a6765745072696f72566f7465733a206e6f74207965742064657465726d696e65644f776e61626c653a206e6577206f776e657220697320746865207a65726f206164647265737345524332303a20617070726f766520746f20746865207a65726f2061646472657373414c504143413a3a64656c656761746542795369673a207369676e61747572652065787069726564e48329057bfd03d55e49b547132e39cffd9c1820ad7b9d4c5307691425d15adf414c504143413a3a64656c656761746542795369673a20696e76616c6964206e6f6e636545524332303a207472616e7366657220616d6f756e7420657863656564732062616c616e6365536166654d6174683a206d756c7469706c69636174696f6e206f766572666c6f7745524332303a207472616e7366657220616d6f756e74206578636565647320616c6c6f77616e63654f776e61626c653a2063616c6c6572206973206e6f7420746865206f776e65728be0079c531659141344cd1fd0a4f28419497f9722a3daafe3b4186f6b6457e0ddf252ad1be2c89b69c2b068fc378daa952ba7f163c4a11628f55a4df523b3ef45524332303a206275726e2066726f6d20746865207a65726f206164647265737345524332303a207472616e736665722066726f6d20746865207a65726f2061646472657373414c504143413a3a64656c656761746542795369673a20696e76616c6964207369676e617475726545524332303a20617070726f76652066726f6d20746865207a65726f2061646472657373414c504143413a3a5f7772697465436865636b706f696e743a20626c6f636b206e756d6265722065786365656473203332206269747345524332303a2064656372656173656420616c6c6f77616e63652062656c6f77207a65726fa26469706673582212200ad62a3bc4613afb29d0fd0a77c88db4ded504e632cd322b0a1361ec69e7f6f164736f6c634300060c00334f776e61626c653a2063616c6c6572206973206e6f7420746865206f776e6572414c504143413a3a5f7772697465436865636b706f696e743a20626c6f636b206e756d62657220657863656564732033322062697473656e6452656c65617365426c6f636b203c20737461727452656c65617365426c6f636b",
  "linkReferences": {},
  "deployedLinkReferences": {}
}