{
  "_format": "hh-sol-artifact-1",
  "contractName": "VaultPriceOracle",
  "sourceName": "contracts/6.12/price-oracles/VaultPriceOracle.sol",
  "abi": [
    {
      "anonymous": false,
      "inputs": [
        {
          "indexed": true,
          "internalType": "address",
          "name": "_vault",
          "type": "address"
        },
        {
          "indexed": false,
          "internalType": "bool",
          "name": "_isOk",
          "type": "bool"
        }
      ],
      "name": "LogSetVault",
      "type": "event"
    },
    {
      "inputs": [
        {
          "internalType": "address",
          "name": "token0",
          "type": "address"
        },
        {
          "internalType": "address",
          "name": "token1",
          "type": "address"
        }
      ],
      "name": "getPrice",
      "outputs": [
        {
          "internalType": "uint256",
          "name": "",
          "type": "uint256"
        },
        {
          "internalType": "uint256",
          "name": "",
          "type": "uint256"
        }
      ],
      "stateMutability": "view",
      "type": "function"
    },
    {
      "inputs": [],
      "name": "initialize",
      "outputs": [],
      "stateMutability": "nonpayable",
      "type": "function"
    },
    {
      "inputs": [
        {
          "internalType": "address",
          "name": "_vault",
          "type": "address"
        },
        {
          "internalType": "bool",
          "name": "_isOk",
          "type": "bool"
        }
      ],
      "name": "setVault",
      "outputs": [],
      "stateMutability": "nonpayable",
      "type": "function"
    },
    {
      "inputs": [
        {
          "internalType": "address",
          "name": "",
          "type": "address"
        }
      ],
      "name": "vaults",
      "outputs": [
        {
          "internalType": "bool",
          "name": "",
          "type": "bool"
        }
      ],
      "stateMutability": "view",
      "type": "function"
    }
  ],
  "bytecode": "0x608060405234801561001057600080fd5b506106f9806100206000396000f3fe608060405234801561001057600080fd5b506004361061004c5760003560e01c8063627f66c6146100515780638129fc1c14610081578063a622ee7c14610089578063ac41865a146100c3575b600080fd5b61007f6004803603604081101561006757600080fd5b506001600160a01b038135169060200135151561010a565b005b61007f6101d6565b6100af6004803603602081101561009f57600080fd5b50356001600160a01b0316610278565b604080519115158252519081900360200190f35b6100f1600480360360408110156100d957600080fd5b506001600160a01b038135811691602001351661028d565b6040805192835260208301919091528051918290030190f35b801561017657816001600160a01b031663626be5676040518163ffffffff1660e01b815260040160206040518083038186803b15801561014957600080fd5b505afa15801561015d573d6000803e3d6000fd5b505050506040513d602081101561017357600080fd5b50505b6001600160a01b038216600081815260016020908152604091829020805460ff1916851515908117909155825190815291517f80c08601cf7b9f86ae87a73be5549b4c09557827c3a68bc5c6931205b3c650ab9281900390910190a25050565b600054610100900460ff16806101ef57506101ef610597565b806101fd575060005460ff16155b6102385760405162461bcd60e51b815260040180806020018281038252602e815260200180610675602e913960400191505060405180910390fd5b600054610100900460ff16158015610263576000805460ff1961ff0019909116610100171660011790555b8015610275576000805461ff00191690555b50565b60016020526000908152604090205460ff1681565b6001600160a01b038216600090815260016020526040812054819060ff16801561032c5750826001600160a01b0316846001600160a01b031663fc0c546a6040518163ffffffff1660e01b815260040160206040518083038186803b1580156102f557600080fd5b505afa158015610309573d6000803e3d6000fd5b505050506040513d602081101561031f57600080fd5b50516001600160a01b0316145b156104315761041f846001600160a01b03166318160ddd6040518163ffffffff1660e01b815260040160206040518083038186803b15801561036d57600080fd5b505afa158015610381573d6000803e3d6000fd5b505050506040513d602081101561039757600080fd5b50516040805163626be56760e01b8152905161041991670de0b6b3a7640000916001600160a01b038a169163626be567916004808301926020929190829003018186803b1580156103e757600080fd5b505afa1580156103fb573d6000803e3d6000fd5b505050506040513d602081101561041157600080fd5b5051906105a8565b9061060a565b9150506001600160401b034216610590565b6001600160a01b03831660009081526001602052604090205460ff1680156104ce5750836001600160a01b0316836001600160a01b031663fc0c546a6040518163ffffffff1660e01b815260040160206040518083038186803b15801561049757600080fd5b505afa1580156104ab573d6000803e3d6000fd5b505050506040513d60208110156104c157600080fd5b50516001600160a01b0316145b156105895761041f836001600160a01b031663626be5676040518163ffffffff1660e01b815260040160206040518083038186803b15801561050f57600080fd5b505afa158015610523573d6000803e3d6000fd5b505050506040513d602081101561053957600080fd5b5051604080516318160ddd60e01b8152905161041991670de0b6b3a7640000916001600160a01b038916916318160ddd916004808301926020929190829003018186803b1580156103e757600080fd5b5060009050805b9250929050565b60006105a23061066e565b15905090565b6000826105b757506000610604565b828202828482816105c457fe5b04146106015760405162461bcd60e51b81526004018080602001828103825260218152602001806106a36021913960400191505060405180910390fd5b90505b92915050565b600080821161065d576040805162461bcd60e51b815260206004820152601a602482015279536166654d6174683a206469766973696f6e206279207a65726f60301b604482015290519081900360640190fd5b81838161066657fe5b049392505050565b3b15159056fe496e697469616c697a61626c653a20636f6e747261637420697320616c726561647920696e697469616c697a6564536166654d6174683a206d756c7469706c69636174696f6e206f766572666c6f77a2646970667358221220c5a2d4a0669d161c3c56380c349170078263c839359c413205870b9007e4809364736f6c634300060c0033",
  "linkReferences": {},
  "deployedLinkReferences": {}
}