{
  "_format": "hh-sol-artifact-1",
  "contractName": "PriceOracle",
  "sourceName": "contracts/6.12/stablecoin-core/PriceOracle.sol",
  "abi": [
    {
      "anonymous": false,
      "inputs": [],
      "name": "LogCage",
      "type": "event"
    },
    {
      "anonymous": false,
      "inputs": [
        {
          "indexed": false,
          "internalType": "bytes32",
          "name": "_poolId",
          "type": "bytes32"
        },
        {
          "indexed": false,
          "internalType": "bytes32",
          "name": "_rawPrice",
          "type": "bytes32"
        },
        {
          "indexed": false,
          "internalType": "uint256",
          "name": "_priceWithSafetyMargin",
          "type": "uint256"
        }
      ],
      "name": "LogSetPrice",
      "type": "event"
    },
    {
      "anonymous": false,
      "inputs": [
        {
          "indexed": true,
          "internalType": "address",
          "name": "_caller",
          "type": "address"
        },
        {
          "indexed": false,
          "internalType": "uint256",
          "name": "_data",
          "type": "uint256"
        }
      ],
      "name": "LogSetStableCoinReferencePrice",
      "type": "event"
    },
    {
      "anonymous": false,
      "inputs": [],
      "name": "LogUncage",
      "type": "event"
    },
    {
      "anonymous": false,
      "inputs": [
        {
          "indexed": false,
          "internalType": "address",
          "name": "account",
          "type": "address"
        }
      ],
      "name": "Paused",
      "type": "event"
    },
    {
      "anonymous": false,
      "inputs": [
        {
          "indexed": false,
          "internalType": "address",
          "name": "account",
          "type": "address"
        }
      ],
      "name": "Unpaused",
      "type": "event"
    },
    {
      "inputs": [],
      "name": "bookKeeper",
      "outputs": [
        {
          "internalType": "contract IBookKeeper",
          "name": "",
          "type": "address"
        }
      ],
      "stateMutability": "view",
      "type": "function"
    },
    {
      "inputs": [],
      "name": "cage",
      "outputs": [],
      "stateMutability": "nonpayable",
      "type": "function"
    },
    {
      "inputs": [
        {
          "internalType": "address",
          "name": "_bookKeeper",
          "type": "address"
        }
      ],
      "name": "initialize",
      "outputs": [],
      "stateMutability": "nonpayable",
      "type": "function"
    },
    {
      "inputs": [],
      "name": "live",
      "outputs": [
        {
          "internalType": "uint256",
          "name": "",
          "type": "uint256"
        }
      ],
      "stateMutability": "view",
      "type": "function"
    },
    {
      "inputs": [],
      "name": "pause",
      "outputs": [],
      "stateMutability": "nonpayable",
      "type": "function"
    },
    {
      "inputs": [],
      "name": "paused",
      "outputs": [
        {
          "internalType": "bool",
          "name": "",
          "type": "bool"
        }
      ],
      "stateMutability": "view",
      "type": "function"
    },
    {
      "inputs": [
        {
          "internalType": "bytes32",
          "name": "_collateralPoolId",
          "type": "bytes32"
        }
      ],
      "name": "setPrice",
      "outputs": [],
      "stateMutability": "nonpayable",
      "type": "function"
    },
    {
      "inputs": [
        {
          "internalType": "uint256",
          "name": "_data",
          "type": "uint256"
        }
      ],
      "name": "setStableCoinReferencePrice",
      "outputs": [],
      "stateMutability": "nonpayable",
      "type": "function"
    },
    {
      "inputs": [],
      "name": "stableCoinReferencePrice",
      "outputs": [
        {
          "internalType": "uint256",
          "name": "",
          "type": "uint256"
        }
      ],
      "stateMutability": "view",
      "type": "function"
    },
    {
      "inputs": [],
      "name": "uncage",
      "outputs": [],
      "stateMutability": "nonpayable",
      "type": "function"
    },
    {
      "inputs": [],
      "name": "unpause",
      "outputs": [],
      "stateMutability": "nonpayable",
      "type": "function"
    }
  ],
  "bytecode": "0x608060405234801561001057600080fd5b50611b16806100206000396000f3fe608060405234801561001057600080fd5b50600436106100995760003560e01c8063038a2f0d1461009e578063285da53b146100b35780633f4ba83a146100c65780635c975abb146100ce57806369245009146100ec5780638456cb59146100f4578063957aa58c146100fc5780639d1eea7814610111578063c4d66de814610119578063d63b23b21461012c578063e3b3932a14610134575b600080fd5b6100b16100ac36600461177c565b610149565b005b6100b16100c136600461177c565b610340565b6100b1610741565b6100d66109c9565b6040516100e391906118b9565b60405180910390f35b6100b16109d2565b6100b1610ca2565b610104610f27565b6040516100e391906118c4565b610104610f2d565b6100b1610127366004611721565b610f33565b6100b1611068565b61013c611336565b6040516100e391906118a5565b6097546040805163c8cc243f60e01b815290516000926001600160a01b03169163c8cc243f916004808301926020929190829003018186803b15801561018e57600080fd5b505afa1580156101a2573d6000803e3d6000fd5b505050506040513d601f19601f820116820180604052508101906101c69190611744565b9050806001600160a01b03166391d14854826001600160a01b031663e58378bb6040518163ffffffff1660e01b815260040160206040518083038186803b15801561021057600080fd5b505afa158015610224573d6000803e3d6000fd5b505050506040513d601f19601f820116820180604052508101906102489190611794565b336040518363ffffffff1660e01b81526004016102669291906118cd565b60206040518083038186803b15801561027e57600080fd5b505afa158015610292573d6000803e3d6000fd5b505050506040513d601f19601f820116820180604052508101906102b69190611760565b6102db5760405162461bcd60e51b81526004016102d290611908565b60405180910390fd5b6099546001146102fd5760405162461bcd60e51b81526004016102d290611984565b609882905560405133907f981464cdb0035497ee4816c35dc8771b2d26e321e79163de2b51ee8b6d51df13906103349085906118c4565b60405180910390a25050565b6103486109c9565b156103655760405162461bcd60e51b81526004016102d29061195a565b6097546040805163d868246160e01b815290516000926001600160a01b03169163d8682461916004808301926020929190829003018186803b1580156103aa57600080fd5b505afa1580156103be573d6000803e3d6000fd5b505050506040513d601f19601f820116820180604052508101906103e29190611744565b6001600160a01b031663d97a3649836040518263ffffffff1660e01b815260040161040d91906118c4565b6101c06040518083038186803b15801561042657600080fd5b505afa15801561043a573d6000803e3d6000fd5b505050506040513d601f19601f8201168201806040525081019061045e91906117db565b60a0015190506000609760009054906101000a90046001600160a01b03166001600160a01b031663d86824616040518163ffffffff1660e01b815260040160206040518083038186803b1580156104b457600080fd5b505afa1580156104c8573d6000803e3d6000fd5b505050506040513d601f19601f820116820180604052508101906104ec9190611744565b6001600160a01b03166344d0c937846040518263ffffffff1660e01b815260040161051791906118c4565b60206040518083038186803b15801561052f57600080fd5b505afa158015610543573d6000803e3d6000fd5b505050506040513d601f19601f820116820180604052508101906105679190611794565b9050600080836001600160a01b031663140d27206040518163ffffffff1660e01b8152600401604080518083038186803b1580156105a457600080fd5b505afa1580156105b8573d6000803e3d6000fd5b505050506040513d601f19601f820116820180604052508101906105dc91906117ac565b915091506000816105ee576000610610565b61061061060a61060285633b9aca00611345565b60985461136f565b8561136f565b90506000609760009054906101000a90046001600160a01b03166001600160a01b031663d86824616040518163ffffffff1660e01b815260040160206040518083038186803b15801561066257600080fd5b505afa158015610676573d6000803e3d6000fd5b505050506040513d601f19601f8201168201806040525081019061069a9190611744565b604051635f3e4f9960e11b81529091506001600160a01b0382169063be7c9f32906106cb908a9086906004016118fa565b600060405180830381600087803b1580156106e557600080fd5b505af11580156106f9573d6000803e3d6000fd5b505050507fc6ac892c4d05ed2b88732c325777abce65e43d448251b695c7e19067d33cc0e2878584604051610730939291906118e4565b60405180910390a150505050505050565b6097546040805163c8cc243f60e01b815290516000926001600160a01b03169163c8cc243f916004808301926020929190829003018186803b15801561078657600080fd5b505afa15801561079a573d6000803e3d6000fd5b505050506040513d601f19601f820116820180604052508101906107be9190611744565b9050806001600160a01b03166391d14854826001600160a01b031663e58378bb6040518163ffffffff1660e01b815260040160206040518083038186803b15801561080857600080fd5b505afa15801561081c573d6000803e3d6000fd5b505050506040513d601f19601f820116820180604052508101906108409190611794565b336040518363ffffffff1660e01b815260040161085e9291906118cd565b60206040518083038186803b15801561087657600080fd5b505afa15801561088a573d6000803e3d6000fd5b505050506040513d601f19601f820116820180604052508101906108ae9190611760565b806109a25750806001600160a01b03166391d14854826001600160a01b031663b536818a6040518163ffffffff1660e01b815260040160206040518083038186803b1580156108fc57600080fd5b505afa158015610910573d6000803e3d6000fd5b505050506040513d601f19601f820116820180604052508101906109349190611794565b336040518363ffffffff1660e01b81526004016109529291906118cd565b60206040518083038186803b15801561096a57600080fd5b505afa15801561097e573d6000803e3d6000fd5b505050506040513d601f19601f820116820180604052508101906109a29190611760565b6109be5760405162461bcd60e51b81526004016102d290611a00565b6109c6611396565b50565b60335460ff1690565b6097546040805163c8cc243f60e01b815290516000926001600160a01b03169163c8cc243f916004808301926020929190829003018186803b158015610a1757600080fd5b505afa158015610a2b573d6000803e3d6000fd5b505050506040513d601f19601f82011682018060405250810190610a4f9190611744565b9050806001600160a01b03166391d14854826001600160a01b031663e58378bb6040518163ffffffff1660e01b815260040160206040518083038186803b158015610a9957600080fd5b505afa158015610aad573d6000803e3d6000fd5b505050506040513d601f19601f82011682018060405250810190610ad19190611794565b336040518363ffffffff1660e01b8152600401610aef9291906118cd565b60206040518083038186803b158015610b0757600080fd5b505afa158015610b1b573d6000803e3d6000fd5b505050506040513d601f19601f82011682018060405250810190610b3f9190611760565b80610c335750806001600160a01b03166391d14854826001600160a01b031663d7a47a696040518163ffffffff1660e01b815260040160206040518083038186803b158015610b8d57600080fd5b505afa158015610ba1573d6000803e3d6000fd5b505050506040513d601f19601f82011682018060405250810190610bc59190611794565b336040518363ffffffff1660e01b8152600401610be39291906118cd565b60206040518083038186803b158015610bfb57600080fd5b505afa158015610c0f573d6000803e3d6000fd5b505050506040513d601f19601f82011682018060405250810190610c339190611760565b610c4f5760405162461bcd60e51b81526004016102d290611a60565b609954600114610c715760405162461bcd60e51b81526004016102d290611984565b600060998190556040517fbf689b4aae670d200b1d2b971ace2e0c3bef88a9c5e93f36705c7b86eab630b99190a150565b6097546040805163c8cc243f60e01b815290516000926001600160a01b03169163c8cc243f916004808301926020929190829003018186803b158015610ce757600080fd5b505afa158015610cfb573d6000803e3d6000fd5b505050506040513d601f19601f82011682018060405250810190610d1f9190611744565b9050806001600160a01b03166391d14854826001600160a01b031663e58378bb6040518163ffffffff1660e01b815260040160206040518083038186803b158015610d6957600080fd5b505afa158015610d7d573d6000803e3d6000fd5b505050506040513d601f19601f82011682018060405250810190610da19190611794565b336040518363ffffffff1660e01b8152600401610dbf9291906118cd565b60206040518083038186803b158015610dd757600080fd5b505afa158015610deb573d6000803e3d6000fd5b505050506040513d601f19601f82011682018060405250810190610e0f9190611760565b80610f035750806001600160a01b03166391d14854826001600160a01b031663b536818a6040518163ffffffff1660e01b815260040160206040518083038186803b158015610e5d57600080fd5b505afa158015610e71573d6000803e3d6000fd5b505050506040513d601f19601f82011682018060405250810190610e959190611794565b336040518363ffffffff1660e01b8152600401610eb39291906118cd565b60206040518083038186803b158015610ecb57600080fd5b505afa158015610edf573d6000803e3d6000fd5b505050506040513d601f19601f82011682018060405250810190610f039190611760565b610f1f5760405162461bcd60e51b81526004016102d290611a00565b6109c6611404565b60995481565b60985481565b600054610100900460ff1680610f4c5750610f4c61145f565b80610f5a575060005460ff16155b610f765760405162461bcd60e51b81526004016102d2906119b2565b600054610100900460ff16158015610fa1576000805460ff1961ff0019909116610100171660011790555b610fa9611470565b610fb1611502565b816001600160a01b031663d86824616040518163ffffffff1660e01b815260040160206040518083038186803b158015610fea57600080fd5b505afa158015610ffe573d6000803e3d6000fd5b505050506040513d601f19601f820116820180604052508101906110229190611744565b50609780546001600160a01b0319166001600160a01b038416179055676765c793fa10079d601b1b60985560016099558015611064576000805461ff00191690555b5050565b6097546040805163c8cc243f60e01b815290516000926001600160a01b03169163c8cc243f916004808301926020929190829003018186803b1580156110ad57600080fd5b505afa1580156110c1573d6000803e3d6000fd5b505050506040513d601f19601f820116820180604052508101906110e59190611744565b9050806001600160a01b03166391d14854826001600160a01b031663e58378bb6040518163ffffffff1660e01b815260040160206040518083038186803b15801561112f57600080fd5b505afa158015611143573d6000803e3d6000fd5b505050506040513d601f19601f820116820180604052508101906111679190611794565b336040518363ffffffff1660e01b81526004016111859291906118cd565b60206040518083038186803b15801561119d57600080fd5b505afa1580156111b1573d6000803e3d6000fd5b505050506040513d601f19601f820116820180604052508101906111d59190611760565b806112c95750806001600160a01b03166391d14854826001600160a01b031663d7a47a696040518163ffffffff1660e01b815260040160206040518083038186803b15801561122357600080fd5b505afa158015611237573d6000803e3d6000fd5b505050506040513d601f19601f8201168201806040525081019061125b9190611794565b336040518363ffffffff1660e01b81526004016112799291906118cd565b60206040518083038186803b15801561129157600080fd5b505afa1580156112a5573d6000803e3d6000fd5b505050506040513d601f19601f820116820180604052508101906112c99190611760565b6112e55760405162461bcd60e51b81526004016102d290611a60565b609954156113055760405162461bcd60e51b81526004016102d290611a31565b60016099556040517f1868a6ced217213f36be87ba9aee25cde5381b42e85c8f88e73b18772c0bd07390600090a150565b6097546001600160a01b031681565b60008115806113605750508082028282828161135d57fe5b04145b61136957600080fd5b92915050565b60008161138784676765c793fa10079d601b1b611345565b8161138e57fe5b049392505050565b61139e6109c9565b6113ba5760405162461bcd60e51b81526004016102d29061192c565b6033805460ff191690557f5db9ee0a495bf2e6ff9c91a7834c1ba4fdd244a5e8aa4e537bd38aeae4b073aa6113ed611578565b6040516113fa91906118a5565b60405180910390a1565b61140c6109c9565b156114295760405162461bcd60e51b81526004016102d29061195a565b6033805460ff191660011790557f62e78cea01bee320cd4e420270b5ea74000d11b0c9f74754ebdbfc544b05a2586113ed611578565b600061146a3061157c565b15905090565b600054610100900460ff1680611489575061148961145f565b80611497575060005460ff16155b6114b35760405162461bcd60e51b81526004016102d2906119b2565b600054610100900460ff161580156114de576000805460ff1961ff0019909116610100171660011790555b6114e6611582565b6114ee611603565b80156109c6576000805461ff001916905550565b600054610100900460ff168061151b575061151b61145f565b80611529575060005460ff16155b6115455760405162461bcd60e51b81526004016102d2906119b2565b600054610100900460ff16158015611570576000805460ff1961ff0019909116610100171660011790555b6114ee61168f565b3390565b3b151590565b600054610100900460ff168061159b575061159b61145f565b806115a9575060005460ff16155b6115c55760405162461bcd60e51b81526004016102d2906119b2565b600054610100900460ff161580156114ee576000805460ff1961ff00199091166101001716600117905580156109c6576000805461ff001916905550565b600054610100900460ff168061161c575061161c61145f565b8061162a575060005460ff16155b6116465760405162461bcd60e51b81526004016102d2906119b2565b600054610100900460ff16158015611671576000805460ff1961ff0019909116610100171660011790555b6033805460ff1916905580156109c6576000805461ff001916905550565b600054610100900460ff16806116a857506116a861145f565b806116b6575060005460ff16155b6116d25760405162461bcd60e51b81526004016102d2906119b2565b600054610100900460ff161580156116fd576000805460ff1961ff0019909116610100171660011790555b600160655580156109c6576000805461ff001916905550565b805161136981611abd565b600060208284031215611732578081fd5b813561173d81611abd565b9392505050565b600060208284031215611755578081fd5b815161173d81611abd565b600060208284031215611771578081fd5b815161173d81611ad2565b60006020828403121561178d578081fd5b5035919050565b6000602082840312156117a5578081fd5b5051919050565b600080604083850312156117be578081fd5b8251915060208301516117d081611ad2565b809150509250929050565b60006101c08083850312156117ee578182fd5b6117f781611a97565b905082518152602083015160208201526040830151604082015260608301516060820152608083015160808201526118328460a08501611716565b60a082015260c083015160c082015260e083015160e082015261010080840151818301525061012061186685828601611716565b908201526101408381015190820152610160808401519082015261018080840151908201526101a061189a85828601611716565b908201529392505050565b6001600160a01b0391909116815260200190565b901515815260200190565b90815260200190565b9182526001600160a01b0316602082015260400190565b9283526020830191909152604082015260600190565b918252602082015260400190565b6020808252600a9082015269216f776e6572526f6c6560b01b604082015260600190565b60208082526014908201527314185d5cd8589b194e881b9bdd081c185d5cd95960621b604082015260600190565b60208082526010908201526f14185d5cd8589b194e881c185d5cd95960821b604082015260600190565b60208082526014908201527350726963654f7261636c652f6e6f742d6c69766560601b604082015260600190565b6020808252602e908201527f496e697469616c697a61626c653a20636f6e747261637420697320616c72656160408201526d191e481a5b9a5d1a585b1a5e995960921b606082015260800190565b60208082526017908201527621286f776e6572526f6c65206f7220676f76526f6c652960481b604082015260600190565b602080825260159082015274141c9a58d953dc9858db194bdb9bdd0b58d859d959605a1b604082015260600190565b6020808252601f908201527f21286f776e6572526f6c65206f722073686f7753746f70706572526f6c652900604082015260600190565b6040518181016001600160401b0381118282101715611ab557600080fd5b604052919050565b6001600160a01b03811681146109c657600080fd5b80151581146109c657600080fdfea2646970667358221220849053b026cb9eaba6a3883ef94ae6f10bd0f30cf2a02a9ded7ab0ec0290cd4764736f6c634300060c0033",
  "linkReferences": {},
  "deployedLinkReferences": {}
}