{
  "_format": "hh-sol-artifact-1",
  "contractName": "StronkAlpaca",
  "sourceName": "contracts/6/token/StronkAlpaca.sol",
  "abi": [
    {
      "inputs": [
        {
          "internalType": "address",
          "name": "_alpacaAddress",
          "type": "address"
        },
        {
          "internalType": "uint256",
          "name": "_hodlableStartBlock",
          "type": "uint256"
        },
        {
          "internalType": "uint256",
          "name": "_hodlableEndBlock",
          "type": "uint256"
        },
        {
          "internalType": "uint256",
          "name": "_lockEndBlock",
          "type": "uint256"
        }
      ],
      "stateMutability": "nonpayable",
      "type": "constructor"
    },
    {
      "anonymous": false,
      "inputs": [
        {
          "indexed": true,
          "internalType": "address",
          "name": "owner",
          "type": "address"
        },
        {
          "indexed": true,
          "internalType": "address",
          "name": "spender",
          "type": "address"
        },
        {
          "indexed": false,
          "internalType": "uint256",
          "name": "value",
          "type": "uint256"
        }
      ],
      "name": "Approval",
      "type": "event"
    },
    {
      "anonymous": false,
      "inputs": [
        {
          "indexed": true,
          "internalType": "address",
          "name": "user",
          "type": "address"
        },
        {
          "indexed": true,
          "internalType": "address",
          "name": "relayer",
          "type": "address"
        },
        {
          "indexed": false,
          "internalType": "uint256",
          "name": "receivingStronkAlpacaAmount",
          "type": "uint256"
        }
      ],
      "name": "Hodl",
      "type": "event"
    },
    {
      "anonymous": false,
      "inputs": [
        {
          "indexed": true,
          "internalType": "address",
          "name": "user",
          "type": "address"
        },
        {
          "indexed": true,
          "internalType": "address",
          "name": "relayer",
          "type": "address"
        }
      ],
      "name": "PrepareHodl",
      "type": "event"
    },
    {
      "anonymous": false,
      "inputs": [
        {
          "indexed": true,
          "internalType": "address",
          "name": "from",
          "type": "address"
        },
        {
          "indexed": true,
          "internalType": "address",
          "name": "to",
          "type": "address"
        },
        {
          "indexed": false,
          "internalType": "uint256",
          "name": "value",
          "type": "uint256"
        }
      ],
      "name": "Transfer",
      "type": "event"
    },
    {
      "anonymous": false,
      "inputs": [
        {
          "indexed": true,
          "internalType": "address",
          "name": "user",
          "type": "address"
        },
        {
          "indexed": false,
          "internalType": "uint256",
          "name": "receivingAlpacaAmount",
          "type": "uint256"
        }
      ],
      "name": "Unhodl",
      "type": "event"
    },
    {
      "inputs": [
        {
          "internalType": "address",
          "name": "owner",
          "type": "address"
        },
        {
          "internalType": "address",
          "name": "spender",
          "type": "address"
        }
      ],
      "name": "allowance",
      "outputs": [
        {
          "internalType": "uint256",
          "name": "",
          "type": "uint256"
        }
      ],
      "stateMutability": "view",
      "type": "function"
    },
    {
      "inputs": [],
      "name": "alpacaTokenAddress",
      "outputs": [
        {
          "internalType": "address",
          "name": "",
          "type": "address"
        }
      ],
      "stateMutability": "view",
      "type": "function"
    },
    {
      "inputs": [
        {
          "internalType": "address",
          "name": "spender",
          "type": "address"
        },
        {
          "internalType": "uint256",
          "name": "amount",
          "type": "uint256"
        }
      ],
      "name": "approve",
      "outputs": [
        {
          "internalType": "bool",
          "name": "",
          "type": "bool"
        }
      ],
      "stateMutability": "nonpayable",
      "type": "function"
    },
    {
      "inputs": [
        {
          "internalType": "address",
          "name": "account",
          "type": "address"
        }
      ],
      "name": "balanceOf",
      "outputs": [
        {
          "internalType": "uint256",
          "name": "",
          "type": "uint256"
        }
      ],
      "stateMutability": "view",
      "type": "function"
    },
    {
      "inputs": [],
      "name": "decimals",
      "outputs": [
        {
          "internalType": "uint8",
          "name": "",
          "type": "uint8"
        }
      ],
      "stateMutability": "view",
      "type": "function"
    },
    {
      "inputs": [
        {
          "internalType": "address",
          "name": "spender",
          "type": "address"
        },
        {
          "internalType": "uint256",
          "name": "subtractedValue",
          "type": "uint256"
        }
      ],
      "name": "decreaseAllowance",
      "outputs": [
        {
          "internalType": "bool",
          "name": "",
          "type": "bool"
        }
      ],
      "stateMutability": "nonpayable",
      "type": "function"
    },
    {
      "inputs": [
        {
          "internalType": "address",
          "name": "_account",
          "type": "address"
        }
      ],
      "name": "getRelayerAddress",
      "outputs": [
        {
          "internalType": "address",
          "name": "",
          "type": "address"
        }
      ],
      "stateMutability": "view",
      "type": "function"
    },
    {
      "inputs": [],
      "name": "hodl",
      "outputs": [],
      "stateMutability": "nonpayable",
      "type": "function"
    },
    {
      "inputs": [],
      "name": "hodlableEndBlock",
      "outputs": [
        {
          "internalType": "uint256",
          "name": "",
          "type": "uint256"
        }
      ],
      "stateMutability": "view",
      "type": "function"
    },
    {
      "inputs": [],
      "name": "hodlableStartBlock",
      "outputs": [
        {
          "internalType": "uint256",
          "name": "",
          "type": "uint256"
        }
      ],
      "stateMutability": "view",
      "type": "function"
    },
    {
      "inputs": [
        {
          "internalType": "address",
          "name": "spender",
          "type": "address"
        },
        {
          "internalType": "uint256",
          "name": "addedValue",
          "type": "uint256"
        }
      ],
      "name": "increaseAllowance",
      "outputs": [
        {
          "internalType": "bool",
          "name": "",
          "type": "bool"
        }
      ],
      "stateMutability": "nonpayable",
      "type": "function"
    },
    {
      "inputs": [],
      "name": "lockEndBlock",
      "outputs": [
        {
          "internalType": "uint256",
          "name": "",
          "type": "uint256"
        }
      ],
      "stateMutability": "view",
      "type": "function"
    },
    {
      "inputs": [],
      "name": "name",
      "outputs": [
        {
          "internalType": "string",
          "name": "",
          "type": "string"
        }
      ],
      "stateMutability": "view",
      "type": "function"
    },
    {
      "inputs": [],
      "name": "prepareHodl",
      "outputs": [],
      "stateMutability": "nonpayable",
      "type": "function"
    },
    {
      "inputs": [],
      "name": "symbol",
      "outputs": [
        {
          "internalType": "string",
          "name": "",
          "type": "string"
        }
      ],
      "stateMutability": "view",
      "type": "function"
    },
    {
      "inputs": [],
      "name": "totalSupply",
      "outputs": [
        {
          "internalType": "uint256",
          "name": "",
          "type": "uint256"
        }
      ],
      "stateMutability": "view",
      "type": "function"
    },
    {
      "inputs": [
        {
          "internalType": "address",
          "name": "recipient",
          "type": "address"
        },
        {
          "internalType": "uint256",
          "name": "amount",
          "type": "uint256"
        }
      ],
      "name": "transfer",
      "outputs": [
        {
          "internalType": "bool",
          "name": "",
          "type": "bool"
        }
      ],
      "stateMutability": "nonpayable",
      "type": "function"
    },
    {
      "inputs": [
        {
          "internalType": "address",
          "name": "sender",
          "type": "address"
        },
        {
          "internalType": "address",
          "name": "recipient",
          "type": "address"
        },
        {
          "internalType": "uint256",
          "name": "amount",
          "type": "uint256"
        }
      ],
      "name": "transferFrom",
      "outputs": [
        {
          "internalType": "bool",
          "name": "",
          "type": "bool"
        }
      ],
      "stateMutability": "nonpayable",
      "type": "function"
    },
    {
      "inputs": [],
      "name": "unhodl",
      "outputs": [],
      "stateMutability": "nonpayable",
      "type": "function"
    }
  ],
  "bytecode": "0x60806040523480156200001157600080fd5b506040516200260238038062002602833981810160405260808110156200003757600080fd5b50805160208083015160408085015160609095015181518083018352600d81526c5374726f6e6b20416c7061636160981b8186019081528351808501909452600784526673414c5041434160c81b9584019590955280519596939593949193909291620000a8916003919062000133565b508051620000be90600490602084019062000133565b50506005805460ff191660129081179091556001600655620000ea91506001600160e01b036200011d16565b600a80546001600160a01b0319166001600160a01b039590951694909417909355600791909155600855600955620001d8565b6005805460ff191660ff92909216919091179055565b828054600181600116156101000203166002900490600052602060002090601f016020900481019282601f106200017657805160ff1916838001178555620001a6565b82800160010185558215620001a6579182015b82811115620001a657825182559160200191906001019062000189565b50620001b4929150620001b8565b5090565b620001d591905b80821115620001b45760008155600101620001bf565b90565b61241a80620001e86000396000f3fe608060405234801561001057600080fd5b50600436106100f15760003560e01c806306fdde03146100f6578063095ea7b31461017357806318160ddd146101b357806323b872dd146101cd578063313ce5671461020357806339509351146102215780634c3e60db1461024d578063527d1bde1461025757806360f145091461025f578063673ac0bf1461026757806370a082311461026f5780638587edbb146102955780638bf9add21461029d57806395d89b41146102c1578063a457c2d7146102c9578063a9059cbb146102f5578063b4a69fa314610321578063dd62ed3e14610329578063e409318014610357575b600080fd5b6100fe61037d565b6040805160208082528351818301528351919283929083019185019080838360005b83811015610138578181015183820152602001610120565b50505050905090810190601f1680156101655780820380516001836020036101000a031916815260200191505b509250505060405180910390f35b61019f6004803603604081101561018957600080fd5b506001600160a01b038135169060200135610413565b604080519115158252519081900360200190f35b6101bb610430565b60408051918252519081900360200190f35b61019f600480360360608110156101e357600080fd5b506001600160a01b03813581169160208101359091169060400135610436565b61020b6104c4565b6040805160ff9092168252519081900360200190f35b61019f6004803603604081101561023757600080fd5b506001600160a01b0381351690602001356104cd565b610255610521565b005b6101bb6107e7565b6102556107ed565b6102556109fe565b6101bb6004803603602081101561028557600080fd5b50356001600160a01b0316610cd7565b6101bb610cf2565b6102a5610cf8565b604080516001600160a01b039092168252519081900360200190f35b6100fe610d07565b61019f600480360360408110156102df57600080fd5b506001600160a01b038135169060200135610d68565b61019f6004803603604081101561030b57600080fd5b506001600160a01b038135169060200135610dd6565b6101bb610dea565b6101bb6004803603604081101561033f57600080fd5b506001600160a01b0381358116916020013516610df0565b6102a56004803603602081101561036d57600080fd5b50356001600160a01b0316610e1b565b60038054604080516020601f60026000196101006001881615020190951694909404938401819004810282018101909252828152606093909290918301828280156104095780601f106103de57610100808354040283529160200191610409565b820191906000526020600020905b8154815290600101906020018083116103ec57829003601f168201915b5050505050905090565b6000610427610420610e39565b8484610e3d565b50600192915050565b60025490565b6000610443848484610f29565b6104b98461044f610e39565b6104b485604051806060016040528060288152602001612266602891396001600160a01b038a1660009081526001602052604081209061048d610e39565b6001600160a01b03168152602081019190915260400160002054919063ffffffff61107e16565b610e3d565b5060015b9392505050565b60055460ff1690565b60006104276104da610e39565b846104b485600160006104eb610e39565b6001600160a01b03908116825260208083019390935260409182016000908120918c16815292529020549063ffffffff61111516565b333214610563576040805162461bcd60e51b815260206004820152601f60248201526000805160206120c1833981519152604482015290519081900360640190fd5b600260065414156105a9576040805162461bcd60e51b815260206004820152601f60248201526000805160206120a1833981519152604482015290519081900360640190fd5b6002600655336000908152600b60205260409020546001600160a01b0316156106035760405162461bcd60e51b815260040180806020018281038252603981526020018061222d6039913960400191505060405180910390fd5b6007544310156106445760405162461bcd60e51b81526004018080602001828103825260448152602001806121c36044913960600191505060405180910390fd5b60085443106106845760405162461bcd60e51b815260040180806020018281038252604081526020018061228e6040913960400191505060405180910390fd5b600a5460408051635a46d3b560e01b815233600482015290516000926001600160a01b031691635a46d3b5916024808301926020929190829003018186803b1580156106cf57600080fd5b505afa1580156106e3573d6000803e3d6000fd5b505050506040513d60208110156106f957600080fd5b5051116107375760405162461bcd60e51b81526004018080602001828103825260468152602001806121576046913960600191505060405180910390fd5b600a546040516000916001600160a01b0316903390610755906116f1565b6001600160a01b03928316815291166020820152604080519182900301906000f080158015610788573d6000803e3d6000fd5b50336000818152600b602052604080822080546001600160a01b0319166001600160a01b0386169081179091559051939450927fd98169fa0c870b5088191775158c2dd8488ff25e01dadb0db1731f3e42fe7f159190a3506001600655565b60075481565b33321461082f576040805162461bcd60e51b815260206004820152601f60248201526000805160206120c1833981519152604482015290519081900360640190fd5b60026006541415610875576040805162461bcd60e51b815260206004820152601f60248201526000805160206120a1833981519152604482015290519081900360640190fd5b6002600655336000908152600b60205260409020546001600160a01b0316806108cf5760405162461bcd60e51b81526004018080602001828103825260328152602001806121036032913960400191505060405180910390fd5b600a5460408051635a46d3b560e01b81526001600160a01b03848116600483015291516000939290921691635a46d3b591602480820192602092909190829003018186803b15801561092057600080fd5b505afa158015610934573d6000803e3d6000fd5b505050506040513d602081101561094a57600080fd5b505160408051633ff0934f60e01b8152905191925083916001600160a01b03831691633ff0934f91600480830192600092919082900301818387803b15801561099257600080fd5b505af11580156109a6573d6000803e3d6000fd5b505050506109b4338361116d565b6040805183815290516001600160a01b0383169133917f32f77df0708ea839727842d6a8378d4a794282df88a38db0059148970c23c6d39181900360200190a35050600160065550565b333214610a40576040805162461bcd60e51b815260206004820152601f60248201526000805160206120c1833981519152604482015290519081900360640190fd5b60026006541415610a86576040805162461bcd60e51b815260206004820152601f60248201526000805160206120a1833981519152604482015290519081900360640190fd5b6002600655600a546040805163ce4079ef60e01b815290516001600160a01b039092169163ce4079ef91600480820192602092909190829003018186803b158015610ad057600080fd5b505afa158015610ae4573d6000803e3d6000fd5b505050506040513d6020811015610afa57600080fd5b50514311610b395760405162461bcd60e51b815260040180806020018281038252604d815260200180612054604d913960600191505060405180910390fd5b6009544311610b795760405162461bcd60e51b815260040180806020018281038252603e8152602001806122ce603e913960400191505060405180910390fd5b600a5460408051635a46d3b560e01b815230600482015290516000926001600160a01b031691635a46d3b5916024808301926020929190829003018186803b158015610bc457600080fd5b505afa158015610bd8573d6000803e3d6000fd5b505050506040513d6020811015610bee57600080fd5b50511115610c5f57600a60009054906101000a90046001600160a01b03166001600160a01b031663a69df4b56040518163ffffffff1660e01b8152600401600060405180830381600087803b158015610c4657600080fd5b505af1158015610c5a573d6000803e3d6000fd5b505050505b6000610c6a33610cd7565b9050610c7830333084611257565b610c8230826112b7565b600a54610c99906001600160a01b031633836113ad565b60408051828152905133917fafd5564df65514d3f5e636ed5419301c834239b48053c92753ff627d8f82f63e919081900360200190a2506001600655565b6001600160a01b031660009081526020819052604090205490565b60095481565b600a546001600160a01b031681565b60048054604080516020601f60026000196101006001881615020190951694909404938401819004810282018101909252828152606093909290918301828280156104095780601f106103de57610100808354040283529160200191610409565b6000610427610d75610e39565b846104b4856040518060600160405280602581526020016123c06025913960016000610d9f610e39565b6001600160a01b03908116825260208083019390935260409182016000908120918d1681529252902054919063ffffffff61107e16565b6000610427610de3610e39565b8484610f29565b60085481565b6001600160a01b03918216600090815260016020908152604080832093909416825291909152205490565b6001600160a01b039081166000908152600b60205260409020541690565b3390565b6001600160a01b038316610e825760405162461bcd60e51b81526004018080602001828103825260248152602001806123726024913960400191505060405180910390fd5b6001600160a01b038216610ec75760405162461bcd60e51b81526004018080602001828103825260228152602001806121356022913960400191505060405180910390fd5b6001600160a01b03808416600081815260016020908152604080832094871680845294825291829020859055815185815291517f8c5be1e5ebec7d5bd14f71427d1e84f3dd0314c0f7b2291e5b200ac8c7c3b9259281900390910190a3505050565b6001600160a01b038316610f6e5760405162461bcd60e51b815260040180806020018281038252602581526020018061234d6025913960400191505060405180910390fd5b6001600160a01b038216610fb35760405162461bcd60e51b81526004018080602001828103825260238152602001806120316023913960400191505060405180910390fd5b610fbe8383836113ff565b6110018160405180606001604052806026815260200161219d602691396001600160a01b038616600090815260208190526040902054919063ffffffff61107e16565b6001600160a01b038085166000908152602081905260408082209390935590841681522054611036908263ffffffff61111516565b6001600160a01b0380841660008181526020818152604091829020949094558051858152905191939287169260008051602061230c83398151915292918290030190a3505050565b6000818484111561110d5760405162461bcd60e51b81526004018080602001828103825283818151815260200191508051906020019080838360005b838110156110d25781810151838201526020016110ba565b50505050905090810190601f1680156110ff5780820380516001836020036101000a031916815260200191505b509250505060405180910390fd5b505050900390565b6000828201838110156104bd576040805162461bcd60e51b815260206004820152601b60248201527a536166654d6174683a206164646974696f6e206f766572666c6f7760281b604482015290519081900360640190fd5b6001600160a01b0382166111c8576040805162461bcd60e51b815260206004820152601f60248201527f45524332303a206d696e7420746f20746865207a65726f206164647265737300604482015290519081900360640190fd5b6111d4600083836113ff565b6002546111e7908263ffffffff61111516565b6002556001600160a01b038216600090815260208190526040902054611213908263ffffffff61111516565b6001600160a01b03831660008181526020818152604080832094909455835185815293519293919260008051602061230c8339815191529281900390910190a35050565b604080516001600160a01b0380861660248301528416604482015260648082018490528251808303909101815260849091019091526020810180516001600160e01b03166323b872dd60e01b1790526112b1908590611404565b50505050565b6001600160a01b0382166112fc5760405162461bcd60e51b815260040180806020018281038252602181526020018061232c6021913960400191505060405180910390fd5b611308826000836113ff565b61134b816040518060600160405280602281526020016120e1602291396001600160a01b038516600090815260208190526040902054919063ffffffff61107e16565b6001600160a01b038316600090815260208190526040902055600254611377908263ffffffff6114b516565b6002556040805182815290516000916001600160a01b0385169160008051602061230c8339815191529181900360200190a35050565b604080516001600160a01b038416602482015260448082018490528251808303909101815260649091019091526020810180516001600160e01b031663a9059cbb60e01b1790526113ff908490611404565b505050565b6060611459826040518060400160405280602081526020017f5361666545524332303a206c6f772d6c6576656c2063616c6c206661696c6564815250856001600160a01b03166115129092919063ffffffff16565b8051909150156113ff5780806020019051602081101561147857600080fd5b50516113ff5760405162461bcd60e51b815260040180806020018281038252602a815260200180612396602a913960400191505060405180910390fd5b60008282111561150c576040805162461bcd60e51b815260206004820152601e60248201527f536166654d6174683a207375627472616374696f6e206f766572666c6f770000604482015290519081900360640190fd5b50900390565b60606115218484600085611529565b949350505050565b60608247101561156a5760405162461bcd60e51b81526004018080602001828103825260268152602001806122076026913960400191505060405180910390fd5b61157385611685565b6115c4576040805162461bcd60e51b815260206004820152601d60248201527f416464726573733a2063616c6c20746f206e6f6e2d636f6e7472616374000000604482015290519081900360640190fd5b60006060866001600160a01b031685876040518082805190602001908083835b602083106116035780518252601f1990920191602091820191016115e4565b6001836020036101000a03801982511681845116808217855250505050505090500191505060006040518083038185875af1925050503d8060008114611665576040519150601f19603f3d011682016040523d82523d6000602084013e61166a565b606091505b509150915061167a82828661168b565b979650505050505050565b3b151590565b6060831561169a5750816104bd565b8251156116aa5782518084602001fd5b60405162461bcd60e51b81526020600482018181528451602484015284518593919283926044019190850190808383600083156110d25781810151838201526020016110ba565b610932806116ff8339019056fe608060405234801561001057600080fd5b506040516109323803806109328339818101604052604081101561003357600080fd5b508051602090910151600061004f6001600160e01b036100ce16565b600080546001600160a01b0319166001600160a01b0383169081178255604051929350917f8be0079c531659141344cd1fd0a4f28419497f9722a3daafe3b4186f6b6457e0908290a35060018055600280546001600160a01b039384166001600160a01b031991821617909155600380549290931691161790556100d2565b3390565b610851806100e16000396000f3fe608060405234801561001057600080fd5b50600436106100625760003560e01c80633ff0934f14610067578063715018a6146100715780638bf9add2146100795780638da5cb5b1461009d578063e4128fb3146100a5578063f2fde38b146100ad575b600080fd5b61006f6100d3565b005b61006f610283565b61008161031d565b604080516001600160a01b039092168252519081900360200190f35b61008161032c565b61008161033b565b61006f600480360360208110156100c357600080fd5b50356001600160a01b031661034a565b6002600154141561012b576040805162461bcd60e51b815260206004820152601f60248201527f5265656e7472616e637947756172643a207265656e7472616e742063616c6c00604482015290519081900360640190fd5b600260015561013861043a565b6001600160a01b031661014961032c565b6001600160a01b031614610192576040805162461bcd60e51b815260206004820181905260248201526000805160206107b2833981519152604482015290519081900360640190fd5b600254600354604080516370a0823160e01b81523060048201529051610219936001600160a01b0390811693169183916370a0823191602480820192602092909190829003018186803b1580156101e857600080fd5b505afa1580156101fc573d6000803e3d6000fd5b505050506040513d602081101561021257600080fd5b505161043e565b6002546040805163a3a7e7f360e01b815233600482015290516001600160a01b039092169163a3a7e7f39160248082019260009290919082900301818387803b15801561026557600080fd5b505af1158015610279573d6000803e3d6000fd5b5050600180555050565b61028b61043a565b6001600160a01b031661029c61032c565b6001600160a01b0316146102e5576040805162461bcd60e51b815260206004820181905260248201526000805160206107b2833981519152604482015290519081900360640190fd5b600080546040516001600160a01b03909116906000805160206107d2833981519152908390a3600080546001600160a01b0319169055565b6002546001600160a01b031681565b6000546001600160a01b031690565b6003546001600160a01b031681565b61035261043a565b6001600160a01b031661036361032c565b6001600160a01b0316146103ac576040805162461bcd60e51b815260206004820181905260248201526000805160206107b2833981519152604482015290519081900360640190fd5b6001600160a01b0381166103f15760405162461bcd60e51b81526004018080602001828103825260268152602001806107666026913960400191505060405180910390fd5b600080546040516001600160a01b03808516939216916000805160206107d283398151915291a3600080546001600160a01b0319166001600160a01b0392909216919091179055565b3390565b604080516001600160a01b038416602482015260448082018490528251808303909101815260649091019091526020810180516001600160e01b031663a9059cbb60e01b179052610490908490610495565b505050565b60606104ea826040518060400160405280602081526020017f5361666545524332303a206c6f772d6c6576656c2063616c6c206661696c6564815250856001600160a01b03166105469092919063ffffffff16565b8051909150156104905780806020019051602081101561050957600080fd5b50516104905760405162461bcd60e51b815260040180806020018281038252602a8152602001806107f2602a913960400191505060405180910390fd5b6060610555848460008561055f565b90505b9392505050565b6060824710156105a05760405162461bcd60e51b815260040180806020018281038252602681526020018061078c6026913960400191505060405180910390fd5b6105a9856106bb565b6105fa576040805162461bcd60e51b815260206004820152601d60248201527f416464726573733a2063616c6c20746f206e6f6e2d636f6e7472616374000000604482015290519081900360640190fd5b60006060866001600160a01b031685876040518082805190602001908083835b602083106106395780518252601f19909201916020918201910161061a565b6001836020036101000a03801982511681845116808217855250505050505090500191505060006040518083038185875af1925050503d806000811461069b576040519150601f19603f3d011682016040523d82523d6000602084013e6106a0565b606091505b50915091506106b08282866106c1565b979650505050505050565b3b151590565b606083156106d0575081610558565b8251156106e05782518084602001fd5b8160405162461bcd60e51b81526004018080602001828103825283818151815260200191508051906020019080838360005b8381101561072a578181015183820152602001610712565b50505050905090810190601f1680156107575780820380516001836020036101000a031916815260200191505b509250505060405180910390fdfe4f776e61626c653a206e6577206f776e657220697320746865207a65726f2061646472657373416464726573733a20696e73756666696369656e742062616c616e636520666f722063616c6c4f776e61626c653a2063616c6c6572206973206e6f7420746865206f776e65728be0079c531659141344cd1fd0a4f28419497f9722a3daafe3b4186f6b6457e05361666545524332303a204552433230206f7065726174696f6e20646964206e6f742073756363656564a264697066735822122000c5fb3d5dd55e2b11b9cf4cda6463a23d8673b7e8deb1f884c2b200f3d4d7a964736f6c6343000606003345524332303a207472616e7366657220746f20746865207a65726f20616464726573735374726f6e6b416c706163613a3a756e686f646c3a20626c6f636b2e6e756d6265722068617665206e6f7420726561636820616c70616361546f6b656e2e656e6452656c65617365426c6f636b5265656e7472616e637947756172643a207265656e7472616e742063616c6c005374726f6e6b416c706163613a3a6f6e6c79454f413a3a206e6f7420656f610045524332303a206275726e20616d6f756e7420657863656564732062616c616e63655374726f6e6b416c706163613a3a686f646c3a207573657220686173206e6f7420707265617061726520686f646c2079657445524332303a20617070726f766520746f20746865207a65726f20616464726573735374726f6e6b416c706163613a3a70726570617265686f646c3a20757365722773206c6f636b416c70616361206d7573742062652067726561746572207468616e207a65726f45524332303a207472616e7366657220616d6f756e7420657863656564732062616c616e63655374726f6e6b416c706163613a3a70726570617265486f646c3a20626c6f636b2e6e756d626572206e6f7420726561636820686f646c61626c655374617274426c6f636b416464726573733a20696e73756666696369656e742062616c616e636520666f722063616c6c5374726f6e6b416c706163613a3a70726570617265486f646c3a20757365722068617320616c726561647920707265706172656420686f646c45524332303a207472616e7366657220616d6f756e74206578636565647320616c6c6f77616e63655374726f6e6b416c706163613a3a70726570617265486f646c3a20626c6f636b2e6e756d626572206578636565647320686f646c61626c65456e64426c6f636b5374726f6e6b416c706163613a3a756e686f646c3a20626c6f636b2e6e756d6265722068617665206e6f74207265616368206c6f636b456e64426c6f636bddf252ad1be2c89b69c2b068fc378daa952ba7f163c4a11628f55a4df523b3ef45524332303a206275726e2066726f6d20746865207a65726f206164647265737345524332303a207472616e736665722066726f6d20746865207a65726f206164647265737345524332303a20617070726f76652066726f6d20746865207a65726f20616464726573735361666545524332303a204552433230206f7065726174696f6e20646964206e6f74207375636365656445524332303a2064656372656173656420616c6c6f77616e63652062656c6f77207a65726fa264697066735822122023d9a6f883b752658419b0046db1c48a0a459c6032d11fcb72e89aa16ceb3fc664736f6c63430006060033",
  "linkReferences": {},
  "deployedLinkReferences": {}
}