{
  "_format": "hh-sol-artifact-1",
  "contractName": "StrategyAddBaseTokenOnly",
  "sourceName": "contracts/6/protocol/strategies/pancakeswap/StrategyAddBaseTokenOnly.sol",
  "abi": [
    {
      "inputs": [
        {
          "internalType": "address",
          "name": "",
          "type": "address"
        },
        {
          "internalType": "uint256",
          "name": "",
          "type": "uint256"
        },
        {
          "internalType": "bytes",
          "name": "data",
          "type": "bytes"
        }
      ],
      "name": "execute",
      "outputs": [],
      "stateMutability": "nonpayable",
      "type": "function"
    },
    {
      "inputs": [],
      "name": "factory",
      "outputs": [
        {
          "internalType": "contract IPancakeFactory",
          "name": "",
          "type": "address"
        }
      ],
      "stateMutability": "view",
      "type": "function"
    },
    {
      "inputs": [
        {
          "internalType": "contract IPancakeRouter02",
          "name": "_router",
          "type": "address"
        }
      ],
      "name": "initialize",
      "outputs": [],
      "stateMutability": "nonpayable",
      "type": "function"
    },
    {
      "inputs": [],
      "name": "router",
      "outputs": [
        {
          "internalType": "contract IPancakeRouter02",
          "name": "",
          "type": "address"
        }
      ],
      "stateMutability": "view",
      "type": "function"
    }
  ],
  "bytecode": "0x608060405234801561001057600080fd5b50611149806100206000396000f3fe608060405234801561001057600080fd5b506004361061004c5760003560e01c8063b61d27f614610051578063c45a0155146100d6578063c4d66de8146100fa578063f887ea4014610120575b600080fd5b6100d46004803603606081101561006757600080fd5b6001600160a01b0382351691602081013591810190606081016040820135600160201b81111561009657600080fd5b8201836020820111156100a857600080fd5b803590602001918460018302840111600160201b831117156100c957600080fd5b509092509050610128565b005b6100de6108cf565b604080516001600160a01b039092168252519081900360200190f35b6100d46004803603602081101561011057600080fd5b50356001600160a01b03166108de565b6100de610a1d565b60335460ff1661017f576040805162461bcd60e51b815260206004820152601f60248201527f5265656e7472616e637947756172643a207265656e7472616e742063616c6c00604482015290519081900360640190fd5b6033805460ff19169055600080808484606081101561019d57600080fd5b506065546040805163e6a4390560e01b81526020808501356001600160a01b039081166004840181905286358216602485018190528551909a5090985093909501359550600094939093169263e6a4390592604480840193829003018186803b15801561020957600080fd5b505afa15801561021d573d6000803e3d6000fd5b505050506040513d602081101561023357600080fd5b505160665490915061025a906001600160a01b03858116911660001963ffffffff610a2c16565b60665461027c906001600160a01b03868116911660001963ffffffff610a2c16565b6000610290856001600160a01b0316610b85565b9050600080836001600160a01b0316630902f1ac6040518163ffffffff1660e01b815260040160606040518083038186803b1580156102ce57600080fd5b505afa1580156102e2573d6000803e3d6000fd5b505050506040513d60608110156102f857600080fd5b50805160209182015160408051630dfe168160e01b815290516001600160701b0393841696509290911693506000926001600160a01b03808c169390891692630dfe1681926004808301939192829003018186803b15801561035957600080fd5b505afa15801561036d573d6000803e3d6000fd5b505050506040513d602081101561038357600080fd5b50516001600160a01b031614610399578161039b565b825b905060006107cc6104106103b7846107ce63ffffffff610c0316565b6104046103ff6103f26103d388623ce9c463ffffffff610c0316565b6103e68c623ce9c063ffffffff610c0316565b9063ffffffff610c6516565b879063ffffffff610c0316565b610cbd565b9063ffffffff610dfd16565b8161041757fe5b604080516002808252606080830184529490930494509190602083019080368337019050509050898160008151811061044c57fe5b60200260200101906001600160a01b031690816001600160a01b031681525050888160018151811061047a57fe5b6001600160a01b039283166020918202929092018101919091526066546040516338ed173960e01b8152600481018681526000602483018190523060648401819052426084850181905260a060448601908152895160a4870152895196909816976338ed1739978b9794968b96949593949360c49091019187810191028083838b5b838110156105145781810151838201526020016104fc565b505050509050019650505050505050600060405180830381600087803b15801561053d57600080fd5b505af1158015610551573d6000803e3d6000fd5b505050506040513d6000823e601f3d908101601f19168201604052602081101561057a57600080fd5b8101908080516040519392919084600160201b82111561059957600080fd5b9083019060208201858111156105ae57600080fd5b82518660208202830111600160201b821117156105ca57600080fd5b82525081516020918201928201910280838360005b838110156105f75781810151838201526020016105df565b50505050905001604052505050506000606660009054906101000a90046001600160a01b03166001600160a01b031663e8e337008c8c61063f8f6001600160a01b0316610b85565b6106518f6001600160a01b0316610b85565b604080516001600160e01b031960e088901b1681526001600160a01b0395861660048201529390941660248401526044830191909152606482015260006084820181905260a482018190523060c48301524260e483015291516101048083019360609383900390910190829087803b1580156106cc57600080fd5b505af11580156106e0573d6000803e3d6000fd5b505050506040513d60608110156106f657600080fd5b506040015190508881101561073c5760405162461bcd60e51b81526004018080602001828103825260438152602001806110d16043913960600191505060405180910390fd5b604080516370a0823160e01b815230600482015290516001600160a01b038a169163a9059cbb91339184916370a0823191602480820192602092909190829003018186803b15801561078d57600080fd5b505afa1580156107a1573d6000803e3d6000fd5b505050506040513d60208110156107b757600080fd5b5051604080516001600160e01b031960e086901b1681526001600160a01b03909316600484015260248301919091525160448083019260209291908290030181600087803b15801561080857600080fd5b505af115801561081c573d6000803e3d6000fd5b505050506040513d602081101561083257600080fd5b505161086f5760405162461bcd60e51b815260040180806020018281038252604d815260200180611084604d913960600191505060405180910390fd5b606654610890906001600160a01b038d81169116600063ffffffff610a2c16565b6066546108b1906001600160a01b038c81169116600063ffffffff610a2c16565b50506033805460ff1916600117905550505050505050505050505050565b6065546001600160a01b031681565b600054610100900460ff16806108f757506108f7610e3f565b80610905575060005460ff16155b6109405760405162461bcd60e51b815260040180806020018281038252602e815260200180611056602e913960400191505060405180910390fd5b600054610100900460ff1615801561096b576000805460ff1961ff0019909116610100171660011790555b610973610e45565b816001600160a01b031663c45a01556040518163ffffffff1660e01b815260040160206040518083038186803b1580156109ac57600080fd5b505afa1580156109c0573d6000803e3d6000fd5b505050506040513d60208110156109d657600080fd5b5051606580546001600160a01b03199081166001600160a01b0393841617909155606680549091169184169190911790558015610a19576000805461ff00191690555b5050565b6066546001600160a01b031681565b604080516001600160a01b038481166024830152604480830185905283518084039091018152606490920183526020820180516001600160e01b031663095ea7b360e01b178152925182516000946060949389169392918291908083835b60208310610aa95780518252601f199092019160209182019101610a8a565b6001836020036101000a0380198251168184511680821785525050505050509050019150506000604051808303816000865af19150503d8060008114610b0b576040519150601f19603f3d011682016040523d82523d6000602084013e610b10565b606091505b5091509150818015610b3e575080511580610b3e5750808060200190516020811015610b3b57600080fd5b50515b610b7e576040805162461bcd60e51b815260206004820152600c60248201526b2173616665417070726f766560a01b604482015290519081900360640190fd5b5050505050565b604080516370a0823160e01b815230600482015290516000916001600160a01b038416916370a0823191602480820192602092909190829003018186803b158015610bcf57600080fd5b505afa158015610be3573d6000803e3d6000fd5b505050506040513d6020811015610bf957600080fd5b505190505b919050565b600082610c1257506000610c5f565b82820282848281610c1f57fe5b0414610c5c5760405162461bcd60e51b81526004018080602001828103825260218152602001806110356021913960400191505060405180910390fd5b90505b92915050565b600082820183811015610c5c576040805162461bcd60e51b815260206004820152601b60248201527a536166654d6174683a206164646974696f6e206f766572666c6f7760281b604482015290519081900360640190fd5b600081610ccc57506000610bfe565b816001600160801b8210610ce55760809190911c9060401b5b600160401b8210610cfb5760409190911c9060201b5b600160201b8210610d115760209190911c9060101b5b620100008210610d265760109190911c9060081b5b6101008210610d3a5760089190911c9060041b5b60108210610d4d5760049190911c9060021b5b60088210610d595760011b5b6001818581610d6457fe5b048201901c90506001818581610d7657fe5b048201901c90506001818581610d8857fe5b048201901c90506001818581610d9a57fe5b048201901c90506001818581610dac57fe5b048201901c90506001818581610dbe57fe5b048201901c90506001818581610dd057fe5b048201901c90506000818581610de257fe5b049050808210610df25780610df4565b815b95945050505050565b6000610c5c83836040518060400160405280601e81526020017f536166654d6174683a207375627472616374696f6e206f766572666c6f770000815250610eef565b303b1590565b600054610100900460ff1680610e5e5750610e5e610e3f565b80610e6c575060005460ff16155b610ea75760405162461bcd60e51b815260040180806020018281038252602e815260200180611056602e913960400191505060405180910390fd5b600054610100900460ff16158015610ed2576000805460ff1961ff0019909116610100171660011790555b610eda610f86565b8015610eec576000805461ff00191690555b50565b60008184841115610f7e5760405162461bcd60e51b81526004018080602001828103825283818151815260200191508051906020019080838360005b83811015610f43578181015183820152602001610f2b565b50505050905090810190601f168015610f705780820380516001836020036101000a031916815260200191505b509250505060405180910390fd5b505050900390565b600054610100900460ff1680610f9f5750610f9f610e3f565b80610fad575060005460ff16155b610fe85760405162461bcd60e51b815260040180806020018281038252602e815260200180611056602e913960400191505060405180910390fd5b600054610100900460ff16158015611013576000805460ff1961ff0019909116610100171660011790555b6033805460ff191660011790558015610eec576000805461ff00191690555056fe536166654d6174683a206d756c7469706c69636174696f6e206f766572666c6f77436f6e747261637420696e7374616e63652068617320616c7265616479206265656e20696e697469616c697a6564537472617465677941646442617365546f6b656e4f6e6c793a3a657865637574653a3a206661696c656420746f207472616e73666572204c5020746f6b656e20746f206d73672e73656e646572537472617465677941646442617365546f6b656e4f6e6c793a3a657865637574653a3a20696e73756666696369656e74204c5020746f6b656e73207265636569766564a264697066735822122047f3c5c585d8d4982fd029a2142150a75fd8eff9685bf1d5b2f631aef87f8e8264736f6c63430006060033",
  "linkReferences": {},
  "deployedLinkReferences": {}
}