{
  "_format": "hh-sol-artifact-1",
  "contractName": "WaultSwapRestrictedStrategyWithdrawMinimizeTrading",
  "sourceName": "contracts/6/protocol/strategies/waultswap-restricted/WaultSwapRestrictedStrategyWithdrawMinimizeTrading.sol",
  "abi": [
    {
      "anonymous": false,
      "inputs": [
        {
          "indexed": true,
          "internalType": "address",
          "name": "previousOwner",
          "type": "address"
        },
        {
          "indexed": true,
          "internalType": "address",
          "name": "newOwner",
          "type": "address"
        }
      ],
      "name": "OwnershipTransferred",
      "type": "event"
    },
    {
      "inputs": [
        {
          "internalType": "address",
          "name": "user",
          "type": "address"
        },
        {
          "internalType": "uint256",
          "name": "debt",
          "type": "uint256"
        },
        {
          "internalType": "bytes",
          "name": "data",
          "type": "bytes"
        }
      ],
      "name": "execute",
      "outputs": [],
      "stateMutability": "nonpayable",
      "type": "function"
    },
    {
      "inputs": [],
      "name": "factory",
      "outputs": [
        {
          "internalType": "contract IWaultSwapFactory",
          "name": "",
          "type": "address"
        }
      ],
      "stateMutability": "view",
      "type": "function"
    },
    {
      "inputs": [
        {
          "internalType": "contract IWaultSwapRouter02",
          "name": "_router",
          "type": "address"
        },
        {
          "internalType": "contract IWETH",
          "name": "_wbnb",
          "type": "address"
        },
        {
          "internalType": "contract IWNativeRelayer",
          "name": "_wNativeRelayer",
          "type": "address"
        }
      ],
      "name": "initialize",
      "outputs": [],
      "stateMutability": "nonpayable",
      "type": "function"
    },
    {
      "inputs": [
        {
          "internalType": "address",
          "name": "",
          "type": "address"
        }
      ],
      "name": "okWorkers",
      "outputs": [
        {
          "internalType": "bool",
          "name": "",
          "type": "bool"
        }
      ],
      "stateMutability": "view",
      "type": "function"
    },
    {
      "inputs": [],
      "name": "owner",
      "outputs": [
        {
          "internalType": "address",
          "name": "",
          "type": "address"
        }
      ],
      "stateMutability": "view",
      "type": "function"
    },
    {
      "inputs": [],
      "name": "renounceOwnership",
      "outputs": [],
      "stateMutability": "nonpayable",
      "type": "function"
    },
    {
      "inputs": [],
      "name": "router",
      "outputs": [
        {
          "internalType": "contract IWaultSwapRouter02",
          "name": "",
          "type": "address"
        }
      ],
      "stateMutability": "view",
      "type": "function"
    },
    {
      "inputs": [
        {
          "internalType": "address[]",
          "name": "workers",
          "type": "address[]"
        },
        {
          "internalType": "bool",
          "name": "isOk",
          "type": "bool"
        }
      ],
      "name": "setWorkersOk",
      "outputs": [],
      "stateMutability": "nonpayable",
      "type": "function"
    },
    {
      "inputs": [
        {
          "internalType": "address",
          "name": "newOwner",
          "type": "address"
        }
      ],
      "name": "transferOwnership",
      "outputs": [],
      "stateMutability": "nonpayable",
      "type": "function"
    },
    {
      "inputs": [],
      "name": "wNativeRelayer",
      "outputs": [
        {
          "internalType": "contract IWNativeRelayer",
          "name": "",
          "type": "address"
        }
      ],
      "stateMutability": "view",
      "type": "function"
    },
    {
      "inputs": [],
      "name": "wbnb",
      "outputs": [
        {
          "internalType": "contract IWETH",
          "name": "",
          "type": "address"
        }
      ],
      "stateMutability": "view",
      "type": "function"
    },
    {
      "stateMutability": "payable",
      "type": "receive"
    }
  ],
  "bytecode": "0x608060405234801561001057600080fd5b50611a47806100206000396000f3fe6080604052600436106100905760003560e01c8063715018a61461009c5780637c5bdf49146100b35780638d72647e146101305780638da5cb5b14610161578063b61d27f614610176578063c0c53b8b14610206578063c45a01551461024b578063d13a35e614610260578063f2fde38b14610275578063f887ea40146102a8578063fa826478146102bd57610097565b3661009757005b600080fd5b3480156100a857600080fd5b506100b1610304565b005b3480156100bf57600080fd5b506100b1600480360360408110156100d657600080fd5b810190602081018135600160201b8111156100f057600080fd5b82018360208201111561010257600080fd5b803590602001918460208302840111600160201b8311171561012357600080fd5b9193509150351515610394565b34801561013c57600080fd5b50610145610447565b604080516001600160a01b039092168252519081900360200190f35b34801561016d57600080fd5b50610145610456565b34801561018257600080fd5b506100b16004803603606081101561019957600080fd5b6001600160a01b0382351691602081013591810190606081016040820135600160201b8111156101c857600080fd5b8201836020820111156101da57600080fd5b803590602001918460018302840111600160201b831117156101fb57600080fd5b509092509050610465565b34801561021257600080fd5b506100b16004803603606081101561022957600080fd5b506001600160a01b038135811691602081013582169160409091013516610cf5565b34801561025757600080fd5b50610145610e55565b34801561026c57600080fd5b50610145610e64565b34801561028157600080fd5b506100b16004803603602081101561029857600080fd5b50356001600160a01b0316610e73565b3480156102b457600080fd5b50610145610f5a565b3480156102c957600080fd5b506102f0600480360360208110156102e057600080fd5b50356001600160a01b0316610f69565b604080519115158252519081900360200190f35b61030c610f7e565b6065546001600160a01b0390811691161461035c576040805162461bcd60e51b81526020600482018190526024820152600080516020611942833981519152604482015290519081900360640190fd5b6065546040516000916001600160a01b031690600080516020611962833981519152908390a3606580546001600160a01b0319169055565b61039c610f7e565b6065546001600160a01b039081169116146103ec576040805162461bcd60e51b81526020600482018190526024820152600080516020611942833981519152604482015290519081900360640190fd5b60005b82811015610441578160cd600086868581811061040857fe5b602090810292909201356001600160a01b0316835250810191909152604001600020805460ff19169115159190911790556001016103ef565b50505050565b60cb546001600160a01b031681565b6065546001600160a01b031690565b33600090815260cd602052604090205460ff166104b35760405162461bcd60e51b81526004018080602001828103825260578152602001806118936057913960600191505060405180910390fd5b60975460ff1661050a576040805162461bcd60e51b815260206004820152601f60248201527f5265656e7472616e637947756172643a207265656e7472616e742063616c6c00604482015290519081900360640190fd5b6097805460ff1916905560008282602081101561052657600080fd5b506040805163c55dae6360e01b81529051913592503391600091839163c55dae6391600480820192602092909190829003018186803b15801561056857600080fd5b505afa15801561057c573d6000803e3d6000fd5b505050506040513d602081101561059257600080fd5b50516040805163ad24dce760e01b815290519192506000916001600160a01b0385169163ad24dce7916004808301926020929190829003018186803b1580156105da57600080fd5b505afa1580156105ee573d6000803e3d6000fd5b505050506040513d602081101561060457600080fd5b505160c9546040805163e6a4390560e01b81526001600160a01b03808516600483015286811660248301529151939450600093919092169163e6a43905916044808301926020929190829003018186803b15801561066157600080fd5b505afa158015610675573d6000803e3d6000fd5b505050506040513d602081101561068b57600080fd5b505160ca546040805163095ea7b360e01b81526001600160a01b039283166004820152600019602482015290519293509083169163095ea7b3916044808201926020929091908290030181600087803b1580156106e757600080fd5b505af11580156106fb573d6000803e3d6000fd5b505050506040513d602081101561071157600080fd5b505161074e5760405162461bcd60e51b81526004018080602001828103825260588152602001806118ea6058913960600191505060405180910390fd5b60ca54610770906001600160a01b03848116911660001963ffffffff610f8216565b60ca54604080516370a0823160e01b815230600482015290516001600160a01b039283169263baa2abde92879287928716916370a08231916024808301926020929190829003018186803b1580156107c757600080fd5b505afa1580156107db573d6000803e3d6000fd5b505050506040513d60208110156107f157600080fd5b5051604080516001600160e01b031960e087901b1681526001600160a01b0394851660048201529290931660248301526044820152600060648201819052608482018190523060a48301524260c4830152825160e480840194939192918390030190829087803b15801561086457600080fd5b505af1158015610878573d6000803e3d6000fd5b505050506040513d604081101561088e57600080fd5b5050604080516002808252606080830184529260208301908036833701905050905082816000815181106108be57fe5b60200260200101906001600160a01b031690816001600160a01b03168152505083816001815181106108ec57fe5b6001600160a01b0392831660209182029290920101526000906109109086166110db565b9050808a1115610ac057600061092c8b8363ffffffff61115716565b60ca549091506001600160a01b0390811690638803dbee9083906109519089166110db565b8630426040518663ffffffff1660e01b81526004018086815260200185815260200180602001846001600160a01b03166001600160a01b03168152602001838152602001828103825285818151815260200191508051906020019060200280838360005b838110156109cd5781810151838201526020016109b5565b505050509050019650505050505050600060405180830381600087803b1580156109f657600080fd5b505af1158015610a0a573d6000803e3d6000fd5b505050506040513d6000823e601f3d908101601f191682016040526020811015610a3357600080fd5b8101908080516040519392919084600160201b821115610a5257600080fd5b908301906020820185811115610a6757600080fd5b82518660208202830111600160201b82111715610a8357600080fd5b82525081516020918201928201910280838360005b83811015610ab0578181015183820152602001610a98565b5050505090500160405250505050505b6000610ad4866001600160a01b03166110db565b9050610af06001600160a01b038716338363ffffffff6111a016565b6000610b04866001600160a01b03166110db565b905088811015610b455760405162461bcd60e51b81526004018080602001828103825260628152602001806119b06062913960800191505060405180910390fd5b8015610bf85760cb546001600160a01b0387811691161415610bed5760cc54610b799087906001600160a01b0316836111a0565b60cc5460408051632e1a7d4d60e01b81526004810184905290516001600160a01b0390921691632e1a7d4d9160248082019260009290919082900301818387803b158015610bc657600080fd5b505af1158015610bda573d6000803e3d6000fd5b50505050610be88d826112f3565b610bf8565b610bf8868e836111a0565b60ca546040805163095ea7b360e01b81526001600160a01b03928316600482015260006024820181905291519288169263095ea7b392604480840193602093929083900390910190829087803b158015610c5157600080fd5b505af1158015610c65573d6000803e3d6000fd5b505050506040513d6020811015610c7b57600080fd5b5051610cb85760405162461bcd60e51b815260040180806020018281038252605f81526020018061180e605f913960600191505060405180910390fd5b60ca54610cd9906001600160a01b038881169116600063ffffffff610f8216565b50506097805460ff191660011790555050505050505050505050565b600054610100900460ff1680610d0e5750610d0e6113f4565b80610d1c575060005460ff16155b610d575760405162461bcd60e51b815260040180806020018281038252602e815260200180611982602e913960400191505060405180910390fd5b600054610100900460ff16158015610d82576000805460ff1961ff0019909116610100171660011790555b610d8a6113fa565b610d926114ac565b836001600160a01b031663c45a01556040518163ffffffff1660e01b815260040160206040518083038186803b158015610dcb57600080fd5b505afa158015610ddf573d6000803e3d6000fd5b505050506040513d6020811015610df557600080fd5b505160c980546001600160a01b03199081166001600160a01b039384161790915560ca8054821687841617905560cb8054821686841617905560cc80549091169184169190911790558015610441576000805461ff001916905550505050565b60c9546001600160a01b031681565b60cc546001600160a01b031681565b610e7b610f7e565b6065546001600160a01b03908116911614610ecb576040805162461bcd60e51b81526020600482018190526024820152600080516020611942833981519152604482015290519081900360640190fd5b6001600160a01b038116610f105760405162461bcd60e51b815260040180806020018281038252602681526020018061186d6026913960400191505060405180910390fd5b6065546040516001600160a01b0380841692169060008051602061196283398151915290600090a3606580546001600160a01b0319166001600160a01b0392909216919091179055565b60ca546001600160a01b031681565b60cd6020526000908152604090205460ff1681565b3390565b604080516001600160a01b038481166024830152604480830185905283518084039091018152606490920183526020820180516001600160e01b031663095ea7b360e01b178152925182516000946060949389169392918291908083835b60208310610fff5780518252601f199092019160209182019101610fe0565b6001836020036101000a0380198251168184511680821785525050505050509050019150506000604051808303816000865af19150503d8060008114611061576040519150601f19603f3d011682016040523d82523d6000602084013e611066565b606091505b5091509150818015611094575080511580611094575080806020019051602081101561109157600080fd5b50515b6110d4576040805162461bcd60e51b815260206004820152600c60248201526b2173616665417070726f766560a01b604482015290519081900360640190fd5b5050505050565b604080516370a0823160e01b815230600482015290516000916001600160a01b038416916370a0823191602480820192602092909190829003018186803b15801561112557600080fd5b505afa158015611139573d6000803e3d6000fd5b505050506040513d602081101561114f57600080fd5b505192915050565b600061119983836040518060400160405280601e81526020017f536166654d6174683a207375627472616374696f6e206f766572666c6f770000815250611541565b9392505050565b604080516001600160a01b038481166024830152604480830185905283518084039091018152606490920183526020820180516001600160e01b031663a9059cbb60e01b178152925182516000946060949389169392918291908083835b6020831061121d5780518252601f1990920191602091820191016111fe565b6001836020036101000a0380198251168184511680821785525050505050509050019150506000604051808303816000865af19150503d806000811461127f576040519150601f19603f3d011682016040523d82523d6000602084013e611284565b606091505b50915091508180156112b25750805115806112b257508080602001905160208110156112af57600080fd5b50515b6110d4576040805162461bcd60e51b815260206004820152600d60248201526c10b9b0b332aa3930b739b332b960991b604482015290519081900360640190fd5b604080516000808252602082019092526001600160a01b0384169083906040518082805190602001908083835b6020831061133f5780518252601f199092019160209182019101611320565b6001836020036101000a03801982511681845116808217855250505050505090500191505060006040518083038185875af1925050503d80600081146113a1576040519150601f19603f3d011682016040523d82523d6000602084013e6113a6565b606091505b50509050806113ef576040805162461bcd60e51b815260206004820152601060248201526f042e6c2cccaa8e4c2dce6cccae48aa8960831b604482015290519081900360640190fd5b505050565b303b1590565b600054610100900460ff168061141357506114136113f4565b80611421575060005460ff16155b61145c5760405162461bcd60e51b815260040180806020018281038252602e815260200180611982602e913960400191505060405180910390fd5b600054610100900460ff16158015611487576000805460ff1961ff0019909116610100171660011790555b61148f6115d8565b611497611678565b80156114a9576000805461ff00191690555b50565b600054610100900460ff16806114c557506114c56113f4565b806114d3575060005460ff16155b61150e5760405162461bcd60e51b815260040180806020018281038252602e815260200180611982602e913960400191505060405180910390fd5b600054610100900460ff16158015611539576000805460ff1961ff0019909116610100171660011790555b61149761175f565b600081848411156115d05760405162461bcd60e51b81526004018080602001828103825283818151815260200191508051906020019080838360005b8381101561159557818101518382015260200161157d565b50505050905090810190601f1680156115c25780820380516001836020036101000a031916815260200191505b509250505060405180910390fd5b505050900390565b600054610100900460ff16806115f157506115f16113f4565b806115ff575060005460ff16155b61163a5760405162461bcd60e51b815260040180806020018281038252602e815260200180611982602e913960400191505060405180910390fd5b600054610100900460ff16158015611497576000805460ff1961ff00199091166101001716600117905580156114a9576000805461ff001916905550565b600054610100900460ff168061169157506116916113f4565b8061169f575060005460ff16155b6116da5760405162461bcd60e51b815260040180806020018281038252602e815260200180611982602e913960400191505060405180910390fd5b600054610100900460ff16158015611705576000805460ff1961ff0019909116610100171660011790555b600061170f610f7e565b606580546001600160a01b0319166001600160a01b03831690811790915560405191925090600090600080516020611962833981519152908290a35080156114a9576000805461ff001916905550565b600054610100900460ff168061177857506117786113f4565b80611786575060005460ff16155b6117c15760405162461bcd60e51b815260040180806020018281038252602e815260200180611982602e913960400191505060405180910390fd5b600054610100900460ff161580156117ec576000805460ff1961ff0019909116610100171660011790555b6097805460ff1916600117905580156114a9576000805461ff00191690555056fe5761756c745377617052657374726963746564537472617465677957697468647261774d696e696d697a6554726164696e673a3a657865637574653a3a20756e61626c6520746f207265736574206c7020746f6b656e20617070726f76616c4f776e61626c653a206e6577206f776e657220697320746865207a65726f20616464726573735761756c745377617052657374726963746564537472617465677957697468647261774d696e696d697a6554726164696e673a3a6f6e6c7957686974656c6973746564576f726b6572733a3a2062616420776f726b65725761756c745377617052657374726963746564537472617465677957697468647261774d696e696d697a6554726164696e673a3a657865637574653a3a206661696c656420746f20617070726f7665204c5020746f6b656e4f776e61626c653a2063616c6c6572206973206e6f7420746865206f776e65728be0079c531659141344cd1fd0a4f28419497f9722a3daafe3b4186f6b6457e0436f6e747261637420696e7374616e63652068617320616c7265616479206265656e20696e697469616c697a65645761756c745377617052657374726963746564537472617465677957697468647261774d696e696d697a6554726164696e673a3a657865637574653a3a20696e73756666696369656e74206661726d696e6720746f6b656e73207265636569766564a2646970667358221220cbee2ea2d425aef4a30ce0a40ef61340d4bb1a6306a3839d4b6d39568568fc2e64736f6c63430006060033",
  "linkReferences": {},
  "deployedLinkReferences": {}
}