{
  "_format": "hh-sol-artifact-1",
  "contractName": "PancakeswapV2RestrictedSingleAssetStrategyPartialCloseMinimizeTrading",
  "sourceName": "contracts/6/protocol/strategies/pancakeswapV2-restricted-single-asset/PancakeswapV2RestrictedSingleAssetStrategyPartialCloseWithdrawMinimizeTrading.sol",
  "abi": [
    {
      "anonymous": false,
      "inputs": [
        {
          "indexed": true,
          "internalType": "address",
          "name": "previousOwner",
          "type": "address"
        },
        {
          "indexed": true,
          "internalType": "address",
          "name": "newOwner",
          "type": "address"
        }
      ],
      "name": "OwnershipTransferred",
      "type": "event"
    },
    {
      "anonymous": false,
      "inputs": [
        {
          "indexed": true,
          "internalType": "address",
          "name": "baseToken",
          "type": "address"
        },
        {
          "indexed": true,
          "internalType": "address",
          "name": "farmToken",
          "type": "address"
        },
        {
          "indexed": false,
          "internalType": "uint256",
          "name": "amounToLiquidate",
          "type": "uint256"
        },
        {
          "indexed": false,
          "internalType": "uint256",
          "name": "amountToRepayDebt",
          "type": "uint256"
        }
      ],
      "name": "PancakeswapV2RestrictedSingleAssetStrategyPartialCloseMinimizeTradingEvent",
      "type": "event"
    },
    {
      "inputs": [
        {
          "internalType": "address",
          "name": "user",
          "type": "address"
        },
        {
          "internalType": "uint256",
          "name": "debt",
          "type": "uint256"
        },
        {
          "internalType": "bytes",
          "name": "data",
          "type": "bytes"
        }
      ],
      "name": "execute",
      "outputs": [],
      "stateMutability": "nonpayable",
      "type": "function"
    },
    {
      "inputs": [],
      "name": "factory",
      "outputs": [
        {
          "internalType": "contract IPancakeFactory",
          "name": "",
          "type": "address"
        }
      ],
      "stateMutability": "view",
      "type": "function"
    },
    {
      "inputs": [
        {
          "internalType": "contract IPancakeRouter02",
          "name": "_router",
          "type": "address"
        },
        {
          "internalType": "contract IWNativeRelayer",
          "name": "_wNativeRelayer",
          "type": "address"
        }
      ],
      "name": "initialize",
      "outputs": [],
      "stateMutability": "nonpayable",
      "type": "function"
    },
    {
      "inputs": [
        {
          "internalType": "address",
          "name": "",
          "type": "address"
        }
      ],
      "name": "okWorkers",
      "outputs": [
        {
          "internalType": "bool",
          "name": "",
          "type": "bool"
        }
      ],
      "stateMutability": "view",
      "type": "function"
    },
    {
      "inputs": [],
      "name": "owner",
      "outputs": [
        {
          "internalType": "address",
          "name": "",
          "type": "address"
        }
      ],
      "stateMutability": "view",
      "type": "function"
    },
    {
      "inputs": [],
      "name": "renounceOwnership",
      "outputs": [],
      "stateMutability": "nonpayable",
      "type": "function"
    },
    {
      "inputs": [],
      "name": "router",
      "outputs": [
        {
          "internalType": "contract IPancakeRouter02",
          "name": "",
          "type": "address"
        }
      ],
      "stateMutability": "view",
      "type": "function"
    },
    {
      "inputs": [
        {
          "internalType": "address[]",
          "name": "workers",
          "type": "address[]"
        },
        {
          "internalType": "bool",
          "name": "isOk",
          "type": "bool"
        }
      ],
      "name": "setWorkersOk",
      "outputs": [],
      "stateMutability": "nonpayable",
      "type": "function"
    },
    {
      "inputs": [
        {
          "internalType": "address",
          "name": "newOwner",
          "type": "address"
        }
      ],
      "name": "transferOwnership",
      "outputs": [],
      "stateMutability": "nonpayable",
      "type": "function"
    },
    {
      "inputs": [],
      "name": "wNativeRelayer",
      "outputs": [
        {
          "internalType": "contract IWNativeRelayer",
          "name": "",
          "type": "address"
        }
      ],
      "stateMutability": "view",
      "type": "function"
    },
    {
      "inputs": [],
      "name": "wbnb",
      "outputs": [
        {
          "internalType": "address",
          "name": "",
          "type": "address"
        }
      ],
      "stateMutability": "view",
      "type": "function"
    },
    {
      "stateMutability": "payable",
      "type": "receive"
    }
  ],
  "bytecode": "0x608060405234801561001057600080fd5b50611845806100206000396000f3fe6080604052600436106100905760003560e01c8063485cc9551461009c578063715018a6146100d95780637c5bdf49146100ee5780638d72647e1461016b5780638da5cb5b1461019c578063b61d27f6146101b1578063c45a015514610241578063d13a35e614610256578063f2fde38b1461026b578063f887ea401461029e578063fa826478146102b357610097565b3661009757005b600080fd5b3480156100a857600080fd5b506100d7600480360360408110156100bf57600080fd5b506001600160a01b03813581169160200135166102fa565b005b3480156100e557600080fd5b506100d76104d2565b3480156100fa57600080fd5b506100d76004803603604081101561011157600080fd5b810190602081018135600160201b81111561012b57600080fd5b82018360208201111561013d57600080fd5b803590602001918460208302840111600160201b8311171561015e57600080fd5b9193509150351515610562565b34801561017757600080fd5b50610180610615565b604080516001600160a01b039092168252519081900360200190f35b3480156101a857600080fd5b50610180610624565b3480156101bd57600080fd5b506100d7600480360360608110156101d457600080fd5b6001600160a01b0382351691602081013591810190606081016040820135600160201b81111561020357600080fd5b82018360208201111561021557600080fd5b803590602001918460018302840111600160201b8311171561023657600080fd5b509092509050610633565b34801561024d57600080fd5b50610180610cd3565b34801561026257600080fd5b50610180610ce2565b34801561027757600080fd5b506100d76004803603602081101561028e57600080fd5b50356001600160a01b0316610cf1565b3480156102aa57600080fd5b50610180610dd8565b3480156102bf57600080fd5b506102e6600480360360208110156102d657600080fd5b50356001600160a01b0316610de7565b604080519115158252519081900360200190f35b600054610100900460ff16806103135750610313610dfc565b80610321575060005460ff16155b61035c5760405162461bcd60e51b815260040180806020018281038252602e8152602001806116fe602e913960400191505060405180910390fd5b600054610100900460ff16158015610387576000805460ff1961ff0019909116610100171660011790555b61038f610e02565b610397610eb4565b826001600160a01b031663c45a01556040518163ffffffff1660e01b815260040160206040518083038186803b1580156103d057600080fd5b505afa1580156103e4573d6000803e3d6000fd5b505050506040513d60208110156103fa57600080fd5b505160c980546001600160a01b039283166001600160a01b03199182161790915560ca80549286169290911682179055604080516315ab88c960e31b8152905163ad5c464891600480820192602092909190829003018186803b15801561046057600080fd5b505afa158015610474573d6000803e3d6000fd5b505050506040513d602081101561048a57600080fd5b505160cb80546001600160a01b03199081166001600160a01b039384161790915560cd805490911691841691909117905580156104cd576000805461ff00191690555b505050565b6104da610f49565b6065546001600160a01b0390811691161461052a576040805162461bcd60e51b815260206004820181905260248201526000805160206116be833981519152604482015290519081900360640190fd5b6065546040516000916001600160a01b0316906000805160206116de833981519152908390a3606580546001600160a01b0319169055565b61056a610f49565b6065546001600160a01b039081169116146105ba576040805162461bcd60e51b815260206004820181905260248201526000805160206116be833981519152604482015290519081900360640190fd5b60005b8281101561060f578160cc60008686858181106105d657fe5b602090810292909201356001600160a01b0316835250810191909152604001600020805460ff19169115159190911790556001016105bd565b50505050565b60cb546001600160a01b031681565b6065546001600160a01b031690565b33600090815260cc602052604090205460ff166106815760405162461bcd60e51b815260040180806020018281038252606a8152602001806117a6606a913960800191505060405180910390fd5b60975460ff166106d8576040805162461bcd60e51b815260206004820152601f60248201527f5265656e7472616e637947756172643a207265656e7472616e742063616c6c00604482015290519081900360640190fd5b6097805460ff1916905560008080848460608110156106f657600080fd5b506040805163c55dae6360e01b81528151833596506020808501359650929093013593503392600092849263c55dae639260048083019392829003018186803b15801561074257600080fd5b505afa158015610756573d6000803e3d6000fd5b505050506040513d602081101561076c57600080fd5b50516040805163ad24dce760e01b815290519192506000916001600160a01b0385169163ad24dce7916004808301926020929190829003018186803b1580156107b457600080fd5b505afa1580156107c8573d6000803e3d6000fd5b505050506040513d60208110156107de57600080fd5b5051905060006107ff6107f96001600160a01b038416610f4d565b88610fc9565b9050600061080d8b88610fc9565b60ca54909150610832906001600160a01b03858116911660001963ffffffff610fe116565b60008115610ae25760ca60009054906101000a90046001600160a01b03166001600160a01b0316638803dbee8385896001600160a01b031663918e178e6040518163ffffffff1660e01b815260040160006040518083038186803b15801561089957600080fd5b505afa1580156108ad573d6000803e3d6000fd5b505050506040513d6000823e601f3d908101601f1916820160405260208110156108d657600080fd5b8101908080516040519392919084600160201b8211156108f557600080fd5b90830190602082018581111561090a57600080fd5b82518660208202830111600160201b8211171561092657600080fd5b82525081516020918201928201910280838360005b8381101561095357818101518382015260200161093b565b5050505090500160405250505030426040518663ffffffff1660e01b81526004018086815260200185815260200180602001846001600160a01b03166001600160a01b03168152602001838152602001828103825285818151815260200191508051906020019060200280838360005b838110156109db5781810151838201526020016109c3565b505050509050019650505050505050600060405180830381600087803b158015610a0457600080fd5b505af1158015610a18573d6000803e3d6000fd5b505050506040513d6000823e601f3d908101601f191682016040526020811015610a4157600080fd5b8101908080516040519392919084600160201b821115610a6057600080fd5b908301906020820185811115610a7557600080fd5b82518660208202830111600160201b82111715610a9157600080fd5b82525081516020918201928201910280838360005b83811015610abe578181015183820152602001610aa6565b50505050905001604052505050600081518110610ad757fe5b602002602001015190505b6000610af4848363ffffffff61113a16565b9050610b2333610b0c886001600160a01b0316610f4d565b6001600160a01b038916919063ffffffff61117c16565b87811015610b625760405162461bcd60e51b815260040180806020018281038252607a81526020018061172c607a913960800191505060405180910390fd5b8015610c155760cb546001600160a01b0386811691161415610c0a5760cd54610b969086906001600160a01b03168361117c565b60cd5460408051632e1a7d4d60e01b81526004810184905290516001600160a01b0390921691632e1a7d4d9160248082019260009290919082900301818387803b158015610be357600080fd5b505af1158015610bf7573d6000803e3d6000fd5b50505050610c058e826112cf565b610c15565b610c15858f8361117c565b610c4233610c2b876001600160a01b0316610f4d565b6001600160a01b038816919063ffffffff61117c16565b60ca54610c63906001600160a01b038781169116600063ffffffff610fe116565b846001600160a01b0316866001600160a01b03167febee86958170159946053b68bc18a99f418731e44600aebf6fafda49c894c60c8686604051808381526020018281526020019250505060405180910390a350506097805460ff19166001179055505050505050505050505050565b60c9546001600160a01b031681565b60cd546001600160a01b031681565b610cf9610f49565b6065546001600160a01b03908116911614610d49576040805162461bcd60e51b815260206004820181905260248201526000805160206116be833981519152604482015290519081900360640190fd5b6001600160a01b038116610d8e5760405162461bcd60e51b81526004018080602001828103825260268152602001806116986026913960400191505060405180910390fd5b6065546040516001600160a01b038084169216906000805160206116de83398151915290600090a3606580546001600160a01b0319166001600160a01b0392909216919091179055565b60ca546001600160a01b031681565b60cc6020526000908152604090205460ff1681565b303b1590565b600054610100900460ff1680610e1b5750610e1b610dfc565b80610e29575060005460ff16155b610e645760405162461bcd60e51b815260040180806020018281038252602e8152602001806116fe602e913960400191505060405180910390fd5b600054610100900460ff16158015610e8f576000805460ff1961ff0019909116610100171660011790555b610e976113cb565b610e9f61146b565b8015610eb1576000805461ff00191690555b50565b600054610100900460ff1680610ecd5750610ecd610dfc565b80610edb575060005460ff16155b610f165760405162461bcd60e51b815260040180806020018281038252602e8152602001806116fe602e913960400191505060405180910390fd5b600054610100900460ff16158015610f41576000805460ff1961ff0019909116610100171660011790555b610e9f611552565b3390565b604080516370a0823160e01b815230600482015290516000916001600160a01b038416916370a0823191602480820192602092909190829003018186803b158015610f9757600080fd5b505afa158015610fab573d6000803e3d6000fd5b505050506040513d6020811015610fc157600080fd5b505192915050565b6000818310610fd85781610fda565b825b9392505050565b604080516001600160a01b038481166024830152604480830185905283518084039091018152606490920183526020820180516001600160e01b031663095ea7b360e01b178152925182516000946060949389169392918291908083835b6020831061105e5780518252601f19909201916020918201910161103f565b6001836020036101000a0380198251168184511680821785525050505050509050019150506000604051808303816000865af19150503d80600081146110c0576040519150601f19603f3d011682016040523d82523d6000602084013e6110c5565b606091505b50915091508180156110f35750805115806110f357508080602001905160208110156110f057600080fd5b50515b611133576040805162461bcd60e51b815260206004820152600c60248201526b2173616665417070726f766560a01b604482015290519081900360640190fd5b5050505050565b6000610fda83836040518060400160405280601e81526020017f536166654d6174683a207375627472616374696f6e206f766572666c6f770000815250611600565b604080516001600160a01b038481166024830152604480830185905283518084039091018152606490920183526020820180516001600160e01b031663a9059cbb60e01b178152925182516000946060949389169392918291908083835b602083106111f95780518252601f1990920191602091820191016111da565b6001836020036101000a0380198251168184511680821785525050505050509050019150506000604051808303816000865af19150503d806000811461125b576040519150601f19603f3d011682016040523d82523d6000602084013e611260565b606091505b509150915081801561128e57508051158061128e575080806020019051602081101561128b57600080fd5b50515b611133576040805162461bcd60e51b815260206004820152600d60248201526c10b9b0b332aa3930b739b332b960991b604482015290519081900360640190fd5b604080516000808252602082019092526001600160a01b0384169083906040518082805190602001908083835b6020831061131b5780518252601f1990920191602091820191016112fc565b6001836020036101000a03801982511681845116808217855250505050505090500191505060006040518083038185875af1925050503d806000811461137d576040519150601f19603f3d011682016040523d82523d6000602084013e611382565b606091505b50509050806104cd576040805162461bcd60e51b815260206004820152601060248201526f042e6c2cccaa8e4c2dce6cccae48aa8960831b604482015290519081900360640190fd5b600054610100900460ff16806113e457506113e4610dfc565b806113f2575060005460ff16155b61142d5760405162461bcd60e51b815260040180806020018281038252602e8152602001806116fe602e913960400191505060405180910390fd5b600054610100900460ff16158015610e9f576000805460ff1961ff0019909116610100171660011790558015610eb1576000805461ff001916905550565b600054610100900460ff16806114845750611484610dfc565b80611492575060005460ff16155b6114cd5760405162461bcd60e51b815260040180806020018281038252602e8152602001806116fe602e913960400191505060405180910390fd5b600054610100900460ff161580156114f8576000805460ff1961ff0019909116610100171660011790555b6000611502610f49565b606580546001600160a01b0319166001600160a01b038316908117909155604051919250906000906000805160206116de833981519152908290a3508015610eb1576000805461ff001916905550565b600054610100900460ff168061156b575061156b610dfc565b80611579575060005460ff16155b6115b45760405162461bcd60e51b815260040180806020018281038252602e8152602001806116fe602e913960400191505060405180910390fd5b600054610100900460ff161580156115df576000805460ff1961ff0019909116610100171660011790555b6097805460ff191660011790558015610eb1576000805461ff001916905550565b6000818484111561168f5760405162461bcd60e51b81526004018080602001828103825283818151815260200191508051906020019080838360005b8381101561165457818101518382015260200161163c565b50505050905090810190601f1680156116815780820380516001836020036101000a031916815260200191505b509250505060405180910390fd5b50505090039056fe4f776e61626c653a206e6577206f776e657220697320746865207a65726f20616464726573734f776e61626c653a2063616c6c6572206973206e6f7420746865206f776e65728be0079c531659141344cd1fd0a4f28419497f9722a3daafe3b4186f6b6457e0436f6e747261637420696e7374616e63652068617320616c7265616479206265656e20696e697469616c697a656450616e63616b657377617056325265737472696374656453696e676c65417373657453747261746567795061727469616c436c6f73654d696e696d697a6554726164696e673a3a657865637574653a3a20696e73756666696369656e74206661726d696e67546f6b656e20616d6f756e7420726563656976656450616e63616b657377617056325265737472696374656453696e676c65417373657453747261746567795061727469616c436c6f73654d696e696d697a6554726164696e673a3a6f6e6c7957686974656c6973746564576f726b6572733a3a2062616420776f726b6572a26469706673582212206b2bd481338c8f39acb00c32bd2cafbc6ff00b08e48ad46ee4d9a1d95bacc57064736f6c63430006060033",
  "linkReferences": {},
  "deployedLinkReferences": {}
}