{
  "_format": "hh-sol-artifact-1",
  "contractName": "PancakeswapV2WorkerMigrate",
  "sourceName": "contracts/6/protocol/workers/pcs/PancakeswapV2WorkerMigrate.sol",
  "abi": [
    {
      "anonymous": false,
      "inputs": [
        {
          "indexed": true,
          "internalType": "uint256",
          "name": "id",
          "type": "uint256"
        },
        {
          "indexed": false,
          "internalType": "uint256",
          "name": "share",
          "type": "uint256"
        }
      ],
      "name": "AddShare",
      "type": "event"
    },
    {
      "anonymous": false,
      "inputs": [
        {
          "indexed": true,
          "internalType": "uint256",
          "name": "id",
          "type": "uint256"
        },
        {
          "indexed": false,
          "internalType": "uint256",
          "name": "wad",
          "type": "uint256"
        }
      ],
      "name": "Liquidate",
      "type": "event"
    },
    {
      "anonymous": false,
      "inputs": [
        {
          "indexed": true,
          "internalType": "address",
          "name": "previousOwner",
          "type": "address"
        },
        {
          "indexed": true,
          "internalType": "address",
          "name": "newOwner",
          "type": "address"
        }
      ],
      "name": "OwnershipTransferred",
      "type": "event"
    },
    {
      "anonymous": false,
      "inputs": [
        {
          "indexed": true,
          "internalType": "address",
          "name": "caller",
          "type": "address"
        },
        {
          "indexed": false,
          "internalType": "uint256",
          "name": "reward",
          "type": "uint256"
        },
        {
          "indexed": false,
          "internalType": "uint256",
          "name": "bounty",
          "type": "uint256"
        }
      ],
      "name": "Reinvest",
      "type": "event"
    },
    {
      "anonymous": false,
      "inputs": [
        {
          "indexed": true,
          "internalType": "uint256",
          "name": "id",
          "type": "uint256"
        },
        {
          "indexed": false,
          "internalType": "uint256",
          "name": "share",
          "type": "uint256"
        }
      ],
      "name": "RemoveShare",
      "type": "event"
    },
    {
      "inputs": [],
      "name": "addStrat",
      "outputs": [
        {
          "internalType": "contract IStrategy",
          "name": "",
          "type": "address"
        }
      ],
      "stateMutability": "view",
      "type": "function"
    },
    {
      "inputs": [
        {
          "internalType": "uint256",
          "name": "balance",
          "type": "uint256"
        }
      ],
      "name": "balanceToShare",
      "outputs": [
        {
          "internalType": "uint256",
          "name": "",
          "type": "uint256"
        }
      ],
      "stateMutability": "view",
      "type": "function"
    },
    {
      "inputs": [],
      "name": "baseToken",
      "outputs": [
        {
          "internalType": "address",
          "name": "",
          "type": "address"
        }
      ],
      "stateMutability": "view",
      "type": "function"
    },
    {
      "inputs": [],
      "name": "cake",
      "outputs": [
        {
          "internalType": "address",
          "name": "",
          "type": "address"
        }
      ],
      "stateMutability": "view",
      "type": "function"
    },
    {
      "inputs": [],
      "name": "factory",
      "outputs": [
        {
          "internalType": "contract IPancakeFactory",
          "name": "",
          "type": "address"
        }
      ],
      "stateMutability": "view",
      "type": "function"
    },
    {
      "inputs": [],
      "name": "farmingToken",
      "outputs": [
        {
          "internalType": "address",
          "name": "",
          "type": "address"
        }
      ],
      "stateMutability": "view",
      "type": "function"
    },
    {
      "inputs": [],
      "name": "fee",
      "outputs": [
        {
          "internalType": "uint256",
          "name": "",
          "type": "uint256"
        }
      ],
      "stateMutability": "view",
      "type": "function"
    },
    {
      "inputs": [],
      "name": "feeDenom",
      "outputs": [
        {
          "internalType": "uint256",
          "name": "",
          "type": "uint256"
        }
      ],
      "stateMutability": "view",
      "type": "function"
    },
    {
      "inputs": [
        {
          "internalType": "uint256",
          "name": "aIn",
          "type": "uint256"
        },
        {
          "internalType": "uint256",
          "name": "rIn",
          "type": "uint256"
        },
        {
          "internalType": "uint256",
          "name": "rOut",
          "type": "uint256"
        }
      ],
      "name": "getMktSellAmount",
      "outputs": [
        {
          "internalType": "uint256",
          "name": "",
          "type": "uint256"
        }
      ],
      "stateMutability": "view",
      "type": "function"
    },
    {
      "inputs": [
        {
          "internalType": "uint256",
          "name": "id",
          "type": "uint256"
        }
      ],
      "name": "health",
      "outputs": [
        {
          "internalType": "uint256",
          "name": "",
          "type": "uint256"
        }
      ],
      "stateMutability": "view",
      "type": "function"
    },
    {
      "inputs": [
        {
          "internalType": "address",
          "name": "_operator",
          "type": "address"
        },
        {
          "internalType": "address",
          "name": "_baseToken",
          "type": "address"
        },
        {
          "internalType": "contract IPancakeMasterChef",
          "name": "_masterChef",
          "type": "address"
        },
        {
          "internalType": "contract IPancakeRouter02",
          "name": "_router",
          "type": "address"
        },
        {
          "internalType": "uint256",
          "name": "_pid",
          "type": "uint256"
        },
        {
          "internalType": "contract IStrategy",
          "name": "_addStrat",
          "type": "address"
        },
        {
          "internalType": "contract IStrategy",
          "name": "_liqStrat",
          "type": "address"
        },
        {
          "internalType": "uint256",
          "name": "_reinvestBountyBps",
          "type": "uint256"
        }
      ],
      "name": "initialize",
      "outputs": [],
      "stateMutability": "nonpayable",
      "type": "function"
    },
    {
      "inputs": [],
      "name": "liqStrat",
      "outputs": [
        {
          "internalType": "contract IStrategy",
          "name": "",
          "type": "address"
        }
      ],
      "stateMutability": "view",
      "type": "function"
    },
    {
      "inputs": [
        {
          "internalType": "uint256",
          "name": "id",
          "type": "uint256"
        }
      ],
      "name": "liquidate",
      "outputs": [],
      "stateMutability": "nonpayable",
      "type": "function"
    },
    {
      "inputs": [],
      "name": "lpToken",
      "outputs": [
        {
          "internalType": "contract IPancakePair",
          "name": "",
          "type": "address"
        }
      ],
      "stateMutability": "view",
      "type": "function"
    },
    {
      "inputs": [],
      "name": "masterChef",
      "outputs": [
        {
          "internalType": "contract IPancakeMasterChef",
          "name": "",
          "type": "address"
        }
      ],
      "stateMutability": "view",
      "type": "function"
    },
    {
      "inputs": [],
      "name": "maxReinvestBountyBps",
      "outputs": [
        {
          "internalType": "uint256",
          "name": "",
          "type": "uint256"
        }
      ],
      "stateMutability": "view",
      "type": "function"
    },
    {
      "inputs": [
        {
          "internalType": "contract IPancakeRouter02",
          "name": "_routerV2",
          "type": "address"
        },
        {
          "internalType": "uint256",
          "name": "_newPId",
          "type": "uint256"
        },
        {
          "internalType": "contract IStrategy",
          "name": "_twoSideOptimalMigrateStrat",
          "type": "address"
        },
        {
          "internalType": "contract IStrategy",
          "name": "_newAddStrat",
          "type": "address"
        },
        {
          "internalType": "contract IStrategy",
          "name": "_newLiqStrat",
          "type": "address"
        },
        {
          "internalType": "address[]",
          "name": "_newOkStrats",
          "type": "address[]"
        },
        {
          "internalType": "address[]",
          "name": "_disableStrats",
          "type": "address[]"
        }
      ],
      "name": "migrateLP",
      "outputs": [],
      "stateMutability": "nonpayable",
      "type": "function"
    },
    {
      "inputs": [
        {
          "internalType": "address",
          "name": "",
          "type": "address"
        }
      ],
      "name": "okReinvestors",
      "outputs": [
        {
          "internalType": "bool",
          "name": "",
          "type": "bool"
        }
      ],
      "stateMutability": "view",
      "type": "function"
    },
    {
      "inputs": [
        {
          "internalType": "address",
          "name": "",
          "type": "address"
        }
      ],
      "name": "okStrats",
      "outputs": [
        {
          "internalType": "bool",
          "name": "",
          "type": "bool"
        }
      ],
      "stateMutability": "view",
      "type": "function"
    },
    {
      "inputs": [],
      "name": "operator",
      "outputs": [
        {
          "internalType": "address",
          "name": "",
          "type": "address"
        }
      ],
      "stateMutability": "view",
      "type": "function"
    },
    {
      "inputs": [],
      "name": "owner",
      "outputs": [
        {
          "internalType": "address",
          "name": "",
          "type": "address"
        }
      ],
      "stateMutability": "view",
      "type": "function"
    },
    {
      "inputs": [],
      "name": "pid",
      "outputs": [
        {
          "internalType": "uint256",
          "name": "",
          "type": "uint256"
        }
      ],
      "stateMutability": "view",
      "type": "function"
    },
    {
      "inputs": [],
      "name": "reinvest",
      "outputs": [],
      "stateMutability": "nonpayable",
      "type": "function"
    },
    {
      "inputs": [],
      "name": "reinvestBountyBps",
      "outputs": [
        {
          "internalType": "uint256",
          "name": "",
          "type": "uint256"
        }
      ],
      "stateMutability": "view",
      "type": "function"
    },
    {
      "inputs": [],
      "name": "renounceOwnership",
      "outputs": [],
      "stateMutability": "nonpayable",
      "type": "function"
    },
    {
      "inputs": [],
      "name": "router",
      "outputs": [
        {
          "internalType": "contract IPancakeRouter02",
          "name": "",
          "type": "address"
        }
      ],
      "stateMutability": "view",
      "type": "function"
    },
    {
      "inputs": [
        {
          "internalType": "contract IStrategy",
          "name": "_addStrat",
          "type": "address"
        },
        {
          "internalType": "contract IStrategy",
          "name": "_liqStrat",
          "type": "address"
        }
      ],
      "name": "setCriticalStrategies",
      "outputs": [],
      "stateMutability": "nonpayable",
      "type": "function"
    },
    {
      "inputs": [
        {
          "internalType": "uint256",
          "name": "_maxReinvestBountyBps",
          "type": "uint256"
        }
      ],
      "name": "setMaxReinvestBountyBps",
      "outputs": [],
      "stateMutability": "nonpayable",
      "type": "function"
    },
    {
      "inputs": [
        {
          "internalType": "uint256",
          "name": "_reinvestBountyBps",
          "type": "uint256"
        }
      ],
      "name": "setReinvestBountyBps",
      "outputs": [],
      "stateMutability": "nonpayable",
      "type": "function"
    },
    {
      "inputs": [
        {
          "internalType": "address[]",
          "name": "reinvestors",
          "type": "address[]"
        },
        {
          "internalType": "bool",
          "name": "isOk",
          "type": "bool"
        }
      ],
      "name": "setReinvestorOk",
      "outputs": [],
      "stateMutability": "nonpayable",
      "type": "function"
    },
    {
      "inputs": [
        {
          "internalType": "address[]",
          "name": "strats",
          "type": "address[]"
        },
        {
          "internalType": "bool",
          "name": "isOk",
          "type": "bool"
        }
      ],
      "name": "setStrategyOk",
      "outputs": [],
      "stateMutability": "nonpayable",
      "type": "function"
    },
    {
      "inputs": [
        {
          "internalType": "uint256",
          "name": "share",
          "type": "uint256"
        }
      ],
      "name": "shareToBalance",
      "outputs": [
        {
          "internalType": "uint256",
          "name": "",
          "type": "uint256"
        }
      ],
      "stateMutability": "view",
      "type": "function"
    },
    {
      "inputs": [
        {
          "internalType": "uint256",
          "name": "",
          "type": "uint256"
        }
      ],
      "name": "shares",
      "outputs": [
        {
          "internalType": "uint256",
          "name": "",
          "type": "uint256"
        }
      ],
      "stateMutability": "view",
      "type": "function"
    },
    {
      "inputs": [],
      "name": "totalShare",
      "outputs": [
        {
          "internalType": "uint256",
          "name": "",
          "type": "uint256"
        }
      ],
      "stateMutability": "view",
      "type": "function"
    },
    {
      "inputs": [
        {
          "internalType": "address",
          "name": "newOwner",
          "type": "address"
        }
      ],
      "name": "transferOwnership",
      "outputs": [],
      "stateMutability": "nonpayable",
      "type": "function"
    },
    {
      "inputs": [],
      "name": "wNative",
      "outputs": [
        {
          "internalType": "address",
          "name": "",
          "type": "address"
        }
      ],
      "stateMutability": "view",
      "type": "function"
    },
    {
      "inputs": [
        {
          "internalType": "uint256",
          "name": "id",
          "type": "uint256"
        },
        {
          "internalType": "address",
          "name": "user",
          "type": "address"
        },
        {
          "internalType": "uint256",
          "name": "debt",
          "type": "uint256"
        },
        {
          "internalType": "bytes",
          "name": "data",
          "type": "bytes"
        }
      ],
      "name": "work",
      "outputs": [],
      "stateMutability": "nonpayable",
      "type": "function"
    }
  ],
  "bytecode": "0x608060405234801561001057600080fd5b50613dc2806100206000396000f3fe608060405234801561001057600080fd5b50600436106101b75760003560e01c8063026c4207146101bc5780631363bdd3146101d65780631620fbd5146101f357806319a8657714610212578063220586191461021a578063239e050f146102545780632d68efc9146102c4578063415f1240146102e857806348db8cc414610305578063570ca7351461038f578063575a86b214610397578063578993991461039f57806357a858fc146103a75780635fcbd285146103c45780636191e37b146103cc578063715018a6146103d457806376dcb435146103dc578063783b6d60146103e457806381955105146104015780638da5cb5b1461041e5780638fa4a94014610426578063a80fd3b514610454578063ad24dce714610541578063c45a015514610549578063c55dae6314610551578063c7aa6ae714610559578063d75734c814610561578063dce174841461058a578063ddca3f4314610592578063e7956f211461059a578063ee1483061461060a578063f106845414610665578063f2fde38b1461066d578063f3b8912b14610693578063f887ea40146106b9578063f9566431146106c1578063fdb5a03e146106de575b600080fd5b6101c46106e6565b60408051918252519081900360200190f35b6101c4600480360360208110156101ec57600080fd5b50356106ec565b6102106004803603602081101561020957600080fd5b50356107b1565b005b6101c461084f565b6102406004803603602081101561023057600080fd5b50356001600160a01b0316610855565b604080519115158252519081900360200190f35b6102106004803603604081101561026a57600080fd5b810190602081018135600160201b81111561028457600080fd5b82018360208201111561029657600080fd5b803590602001918460208302840111600160201b831117156102b757600080fd5b919350915035151561086a565b6102cc61091f565b604080516001600160a01b039092168252519081900360200190f35b610210600480360360208110156102fe57600080fd5b503561092e565b6102106004803603608081101561031b57600080fd5b8135916001600160a01b036020820135169160408201359190810190608081016060820135600160201b81111561035157600080fd5b82018360208201111561036357600080fd5b803590602001918460018302840111600160201b8311171561038457600080fd5b509092509050610c59565b6102cc611087565b6102cc611096565b6102cc6110a5565b6101c4600480360360208110156103bd57600080fd5b50356110b4565b6102cc6110c6565b6102cc6110d5565b6102106110e4565b6101c4611174565b6101c4600480360360208110156103fa57600080fd5b503561117a565b6101c46004803603602081101561041757600080fd5b50356113af565b6102cc61145c565b6102106004803603604081101561043c57600080fd5b506001600160a01b038135811691602001351661146b565b610210600480360360e081101561046a57600080fd5b6001600160a01b0382358116926020810135926040820135831692606083013581169260808101359091169181019060c0810160a0820135600160201b8111156104b357600080fd5b8201836020820111156104c557600080fd5b803590602001918460208302840111600160201b831117156104e657600080fd5b919390929091602081019035600160201b81111561050357600080fd5b82018360208201111561051557600080fd5b803590602001918460208302840111600160201b8311171561053657600080fd5b5090925090506114f1565b6102cc611e43565b6102cc611e52565b6102cc611e61565b6101c4611e70565b6101c46004803603606081101561057757600080fd5b5080359060208101359060400135611e76565b6102cc611f44565b6101c4611f53565b610210600480360360408110156105b057600080fd5b810190602081018135600160201b8111156105ca57600080fd5b8201836020820111156105dc57600080fd5b803590602001918460208302840111600160201b831117156105fd57600080fd5b9193509150351515611f59565b610210600480360361010081101561062157600080fd5b506001600160a01b03813581169160208101358216916040820135811691606081013582169160808201359160a081013582169160c0820135169060e00135612007565b6101c46124ec565b6102106004803603602081101561068357600080fd5b50356001600160a01b03166124f2565b610240600480360360208110156106a957600080fd5b50356001600160a01b03166125d9565b6102cc6125ee565b610210600480360360208110156106d757600080fd5b50356125fd565b61021061269b565b60d55481565b600060d554600014156107005750806107ac565b60c95460d254604080516393f1a40b60e01b8152600481019290925230602483015280516000936001600160a01b0316926393f1a40b926044808301939192829003018186803b15801561075357600080fd5b505afa158015610767573d6000803e3d6000fd5b505050506040513d604081101561077d57600080fd5b505160d5549091506107a890829061079c90869063ffffffff612e3316565b9063ffffffff612e9516565b9150505b919050565b6107b9612ed4565b6065546001600160a01b03908116911614610809576040805162461bcd60e51b81526020600482018190526024820152600080516020613c6b833981519152604482015290519081900360640190fd5b60d95481111561084a5760405162461bcd60e51b815260040180806020018281038252605a815260200180613b52605a913960600191505060405180910390fd5b60d855565b60dc5481565b60da6020526000908152604090205460ff1681565b610872612ed4565b6065546001600160a01b039081169116146108c2576040805162461bcd60e51b81526020600482018190526024820152600080516020613c6b833981519152604482015290519081900360640190fd5b8160005b81811015610918578260da60008787858181106108df57fe5b602090810292909201356001600160a01b0316835250810191909152604001600020805460ff19169115159190911790556001016108c6565b5050505050565b60cd546001600160a01b031681565b60d1546001600160a01b031633146109775760405162461bcd60e51b815260040180806020018281038252602e815260200180613c1c602e913960400191505060405180910390fd5b60975460ff166109bc576040805162461bcd60e51b815260206004820152601f6024820152600080516020613a57833981519152604482015290519081900360640190fd5b6097805460ff191690556109cf81612ed8565b60cc5460d754604080516370a0823160e01b815230600482015290516001600160a01b039384169363a9059cbb93169184916370a0823191602480820192602092909190829003018186803b158015610a2757600080fd5b505afa158015610a3b573d6000803e3d6000fd5b505050506040513d6020811015610a5157600080fd5b5051604080516001600160e01b031960e086901b1681526001600160a01b03909316600484015260248301919091525160448083019260209291908290030181600087803b158015610aa257600080fd5b505af1158015610ab6573d6000803e3d6000fd5b505050506040513d6020811015610acc57600080fd5b505060d75460ce5460cf54604080516001600160a01b0393841660208281019190915292841681830152600060608083018290528351808403820181526080840194859052635b0e93fb60e11b9094526084830182815260a4840183905260c48401918252845160e48501528451969097169663b61d27f696929586959491936101049092019190850190808383895b83811015610b74578181015183820152602001610b5c565b50505050905090810190601f168015610ba15780820380516001836020036101000a031916815260200191505b50945050505050600060405180830381600087803b158015610bc257600080fd5b505af1158015610bd6573d6000803e3d6000fd5b505060ce5460009250610bf291506001600160a01b0316612fce565b60ce54909150610c12906001600160a01b0316338363ffffffff61304a16565b60408051828152905183917f253e5385159062a101837d58c10ad4694c58979ebc3ba6b5cb2cbba2fe461692919081900360200190a250506097805460ff19166001179055565b60d1546001600160a01b03163314610ca25760405162461bcd60e51b815260040180806020018281038252602e815260200180613c1c602e913960400191505060405180910390fd5b60975460ff16610ce7576040805162461bcd60e51b815260206004820152601f6024820152600080516020613a57833981519152604482015290519081900360640190fd5b6097805460ff19169055610cfa85612ed8565b6000606083836040811015610d0e57600080fd5b6001600160a01b038235169190810190604081016020820135600160201b811115610d3857600080fd5b820183602082011115610d4a57600080fd5b803590602001918460018302840111600160201b83111715610d6b57600080fd5b91908080601f01602080910402602001604051908101604052809392919081815260200183838082843760009201829052506001600160a01b038916815260d460205260409020549799509297505060ff9095169450610e0193505050505760405162461bcd60e51b8152600401808060200182810382526032815260200180613a776032913960400191505060405180910390fd5b60cc54604080516370a0823160e01b815230600482015290516001600160a01b039092169163a9059cbb91859184916370a08231916024808301926020929190829003018186803b158015610e5557600080fd5b505afa158015610e69573d6000803e3d6000fd5b505050506040513d6020811015610e7f57600080fd5b5051604080516001600160e01b031960e086901b1681526001600160a01b03909316600484015260248301919091525160448083019260209291908290030181600087803b158015610ed057600080fd5b505af1158015610ee4573d6000803e3d6000fd5b505050506040513d6020811015610efa57600080fd5b5051610f375760405162461bcd60e51b8152600401808060200182810382526038815260200180613bac6038913960400191505060405180910390fd5b60ce54610f6b908390610f52906001600160a01b0316612fce565b60ce546001600160a01b0316919063ffffffff61304a16565b816001600160a01b031663b61d27f68787846040518463ffffffff1660e01b815260040180846001600160a01b03166001600160a01b0316815260200183815260200180602001828103825283818151815260200191508051906020019080838360005b83811015610fe7578181015183820152602001610fcf565b50505050905090810190601f1680156110145780820380516001836020036101000a031916815260200191505b50945050505050600060405180830381600087803b15801561103557600080fd5b505af1158015611049573d6000803e3d6000fd5b505050506110568761319d565b60ce54611071903390610f52906001600160a01b0316612fce565b50506097805460ff191660011790555050505050565b60d1546001600160a01b031681565b60c9546001600160a01b031681565b60d6546001600160a01b031681565b60d36020526000908152604090205481565b60cc546001600160a01b031681565b60d7546001600160a01b031681565b6110ec612ed4565b6065546001600160a01b0390811691161461113c576040805162461bcd60e51b81526020600482018190526024820152600080516020613c6b833981519152604482015290519081900360640190fd5b6065546040516000916001600160a01b031690600080516020613c8b833981519152908390a3606580546001600160a01b0319169055565b60d95481565b600081815260d360205260408120548190611194906113af565b9050600060cc60009054906101000a90046001600160a01b03166001600160a01b03166318160ddd6040518163ffffffff1660e01b815260040160206040518083038186803b1580156111e657600080fd5b505afa1580156111fa573d6000803e3d6000fd5b505050506040513d602081101561121057600080fd5b505160cc5460408051630240bc6b60e21b8152905192935060009283926001600160a01b031691630902f1ac916004808301926060929190829003018186803b15801561125c57600080fd5b505afa158015611270573d6000803e3d6000fd5b505050506040513d606081101561128657600080fd5b50805160209182015160ce5460cc5460408051630dfe168160e01b815290516001600160701b03958616985094909316955060009485946001600160a01b03938416949390921692630dfe16819260048083019392829003018186803b1580156112ef57600080fd5b505afa158015611303573d6000803e3d6000fd5b505050506040513d602081101561131957600080fd5b50516001600160a01b031614611330578284611333565b83835b9092509050600061134e8661079c898663ffffffff612e3316565b905060006113668761079c8a8663ffffffff612e3316565b90506113a18261139583611380878263ffffffff61336116565b611390898863ffffffff61336116565b611e76565b9063ffffffff6133a316565b9a9950505050505050505050565b600060d554600014156113c35750806107ac565b60c95460d254604080516393f1a40b60e01b8152600481019290925230602483015280516000936001600160a01b0316926393f1a40b926044808301939192829003018186803b15801561141657600080fd5b505afa15801561142a573d6000803e3d6000fd5b505050506040513d604081101561144057600080fd5b505160d5549091506107a89061079c858463ffffffff612e3316565b6065546001600160a01b031690565b611473612ed4565b6065546001600160a01b039081169116146114c3576040805162461bcd60e51b81526020600482018190526024820152600080516020613c6b833981519152604482015290519081900360640190fd5b60d680546001600160a01b039384166001600160a01b03199182161790915560d78054929093169116179055565b6114f9612ed4565b6065546001600160a01b03908116911614611549576040805162461bcd60e51b81526020600482018190526024820152600080516020613c6b833981519152604482015290519081900360640190fd5b60cb5460cc5461156e916001600160a01b03918216911660001963ffffffff6133fb16565b60c95460d25460d5546001600160a01b039092169163441a3e709190611593906113af565b6040518363ffffffff1660e01b81526004018083815260200182815260200192505050600060405180830381600087803b1580156115d057600080fd5b505af11580156115e4573d6000803e3d6000fd5b505060cb5460ce5460cf5460cc54604080516370a0823160e01b815230600482015290516001600160a01b03958616975063baa2abde9650938516949283169391909216916370a08231916024808301926020929190829003018186803b15801561164e57600080fd5b505afa158015611662573d6000803e3d6000fd5b505050506040513d602081101561167857600080fd5b5051604080516001600160e01b031960e087901b1681526001600160a01b0394851660048201529290931660248301526044820152600060648201819052608482018190523060a48301524260c4830152825160e480840194939192918390030190829087803b1580156116eb57600080fd5b505af11580156116ff573d6000803e3d6000fd5b505050506040513d604081101561171557600080fd5b505060cb5460cc5461173b916001600160a01b039182169116600063ffffffff6133fb16565b60ce54611756908890610f52906001600160a01b0316612fce565b60cf5461178a908890611771906001600160a01b0316612fce565b60cf546001600160a01b0316919063ffffffff61304a16565b60ce5460cf54604080516001600160a01b0393841660208083019190915292841681830152815180820383018152606080830193849052635b0e93fb60e11b909352306064830181815260006084850181905260a48501958652835160c48601528351978f169763b61d27f697939691959293919260e40191850190808383895b8381101561182357818101518382015260200161180b565b50505050905090810190601f1680156118505780820380516001836020036101000a031916815260200191505b50945050505050600060405180830381600087803b15801561187157600080fd5b505af1158015611885573d6000803e3d6000fd5b505060c95460408051631526fe2760e01b8152600481018d90529051600094506001600160a01b039092169250631526fe27916024808301926080929190829003018186803b1580156118d757600080fd5b505afa1580156118eb573d6000803e3d6000fd5b505050506040513d608081101561190157600080fd5b505160c954909150611928906001600160a01b03808416911660001963ffffffff6133fb16565b60c9546001600160a01b039081169063e2bbb158908b9061194a908516612fce565b6040518363ffffffff1660e01b81526004018083815260200182815260200192505050600060405180830381600087803b15801561198757600080fd5b505af115801561199b573d6000803e3d6000fd5b505060c9546119c092506001600160a01b03848116925016600063ffffffff6133fb16565b60cb80546001600160a01b0319166001600160a01b038c169081179091556040805163c45a015560e01b8152905163c45a015591600480820192602092909190829003018186803b158015611a1457600080fd5b505afa158015611a28573d6000803e3d6000fd5b505050506040513d6020811015611a3e57600080fd5b505160ca80546001600160a01b03199081166001600160a01b039384161790915560d28b905560cc80549091168383161790556126f760db5561271060dc5560d6548116600090815260d46020526040808220805460ff1990811690915560d75490931682528120805490921690915582905b81811015611b0457600060d46000878785818110611acb57fe5b602090810292909201356001600160a01b0316835250810191909152604001600020805460ff1916911515919091179055600101611ab1565b505060d680546001600160a01b03808a166001600160a01b0319928316811790935560d78054918a16919092168117909155600091825260d46020526040808320805460ff199081166001908117909255928452908320805490921617905584905b81811015611bb957600160d46000898985818110611b8057fe5b602090810292909201356001600160a01b0316835250810191909152604001600020805460ff1916911515919091179055600101611b66565b5060cc60009054906101000a90046001600160a01b03166001600160a01b0316630dfe16816040518163ffffffff1660e01b815260040160206040518083038186803b158015611c0857600080fd5b505afa158015611c1c573d6000803e3d6000fd5b505050506040513d6020811015611c3257600080fd5b505160cf546001600160a01b0390811691161480611cd7575060cc60009054906101000a90046001600160a01b03166001600160a01b031663d21220a76040518163ffffffff1660e01b815260040160206040518083038186803b158015611c9957600080fd5b505afa158015611cad573d6000803e3d6000fd5b505050506040513d6020811015611cc357600080fd5b505160cf546001600160a01b039081169116145b8015611dfb575060cc60009054906101000a90046001600160a01b03166001600160a01b0316630dfe16816040518163ffffffff1660e01b815260040160206040518083038186803b158015611d2c57600080fd5b505afa158015611d40573d6000803e3d6000fd5b505050506040513d6020811015611d5657600080fd5b505160ce546001600160a01b0390811691161480611dfb575060cc60009054906101000a90046001600160a01b03166001600160a01b031663d21220a76040518163ffffffff1660e01b815260040160206040518083038186803b158015611dbd57600080fd5b505afa158015611dd1573d6000803e3d6000fd5b505050506040513d6020811015611de757600080fd5b505160ce546001600160a01b039081169116145b611e365760405162461bcd60e51b8152600401808060200182810382526033815260200180613d286033913960400191505060405180910390fd5b5050505050505050505050565b60cf546001600160a01b031681565b60ca546001600160a01b031681565b60ce546001600160a01b031681565b60d85481565b600083611e8557506000611f3d565b600083118015611e955750600082115b611ed05760405162461bcd60e51b8152600401808060200182810382526038815260200180613be46038913960400191505060405180910390fd5b60db5460dc5481611ee1576103e691505b80611eeb57506103e85b6000611efd878463ffffffff612e3316565b90506000611f11828763ffffffff612e3316565b90506000611f29836113958a8763ffffffff612e3316565b9050808281611f3457fe5b04955050505050505b9392505050565b60d0546001600160a01b031681565b60db5481565b611f61612ed4565b6065546001600160a01b03908116911614611fb1576040805162461bcd60e51b81526020600482018190526024820152600080516020613c6b833981519152604482015290519081900360640190fd5b8160005b81811015610918578260d46000878785818110611fce57fe5b602090810292909201356001600160a01b0316835250810191909152604001600020805460ff1916911515919091179055600101611fb5565b600054610100900460ff1680612020575061202061354d565b8061202e575060005460ff16155b6120695760405162461bcd60e51b815260040180806020018281038252602e815260200180613cab602e913960400191505060405180910390fd5b600054610100900460ff16158015612094576000805460ff1961ff0019909116610100171660011790555b61209c613553565b6120a4613605565b60d180546001600160a01b03808c166001600160a01b03199283161790925560ce80548b84169216919091179055604080516315ab88c960e31b815290519188169163ad5c464891600480820192602092909190829003018186803b15801561210c57600080fd5b505afa158015612120573d6000803e3d6000fd5b505050506040513d602081101561213657600080fd5b505160cd80546001600160a01b03199081166001600160a01b039384161790915560c9805482168a841617905560cb805490911691881691821790556040805163c45a015560e01b8152905163c45a015591600481810192602092909190829003018186803b1580156121a857600080fd5b505afa1580156121bc573d6000803e3d6000fd5b505050506040513d60208110156121d257600080fd5b505160ca80546001600160a01b0319166001600160a01b0392831617905560d286905560c95460408051631526fe2760e01b81526004810189905290516000939290921691631526fe2791602480820192608092909190829003018186803b15801561223d57600080fd5b505afa158015612251573d6000803e3d6000fd5b505050506040513d608081101561226757600080fd5b505160cc80546001600160a01b0319166001600160a01b03808416919091179182905560408051630dfe168160e01b815290519394506000939290911691630dfe168191600480820192602092909190829003018186803b1580156122cb57600080fd5b505afa1580156122df573d6000803e3d6000fd5b505050506040513d60208110156122f557600080fd5b505160cc546040805163d21220a760e01b815290519293506000926001600160a01b039092169163d21220a791600480820192602092909190829003018186803b15801561234257600080fd5b505afa158015612356573d6000803e3d6000fd5b505050506040513d602081101561236c57600080fd5b505160ce549091506001600160a01b0383811691161461238c578161238e565b805b60cf80546001600160a01b0319166001600160a01b0392831617905560c954604080516337385d2160e21b81529051919092169163dce17484916004808301926020929190829003018186803b1580156123e757600080fd5b505afa1580156123fb573d6000803e3d6000fd5b505050506040513d602081101561241157600080fd5b505160d080546001600160a01b03199081166001600160a01b039384161790915560d6805482168a8416179081905560d780549092168984161782558216600090815260d46020526040808220805460ff1990811660019081179092559354909416825290208054909116909117905560d88590556101f460d98190558511156124cc5760405162461bcd60e51b815260040180806020018281038252604f815260200180613cd9604f913960600191505060405180910390fd5b50505080156124e1576000805461ff00191690555b505050505050505050565b60d25481565b6124fa612ed4565b6065546001600160a01b0390811691161461254a576040805162461bcd60e51b81526020600482018190526024820152600080516020613c6b833981519152604482015290519081900360640190fd5b6001600160a01b03811661258f5760405162461bcd60e51b8152600401808060200182810382526026815260200180613acd6026913960400191505060405180910390fd5b6065546040516001600160a01b03808416921690600080516020613c8b83398151915290600090a3606580546001600160a01b0319166001600160a01b0392909216919091179055565b60d46020526000908152604090205460ff1681565b60cb546001600160a01b031681565b612605612ed4565b6065546001600160a01b03908116911614612655576040805162461bcd60e51b81526020600482018190526024820152600080516020613c6b833981519152604482015290519081900360640190fd5b60d8548110156126965760405162461bcd60e51b815260040180806020018281038252605f815260200180613af3605f913960600191505060405180910390fd5b60d955565b3332146126d95760405162461bcd60e51b8152600401808060200182810382526024815260200180613aa96024913960400191505060405180910390fd5b33600090815260da602052604090205460ff166127275760405162461bcd60e51b8152600401808060200182810382526032815260200180613d5b6032913960400191505060405180910390fd5b60975460ff1661276c576040805162461bcd60e51b815260206004820152601f6024820152600080516020613a57833981519152604482015290519081900360640190fd5b6097805460ff1916905560cb5460d05461279b916001600160a01b03918216911660001963ffffffff6133fb16565b60c95460cc546127c0916001600160a01b03918216911660001963ffffffff6133fb16565b60c95460d25460408051630441a3e760e41b8152600481019290925260006024830181905290516001600160a01b039093169263441a3e7092604480820193929182900301818387803b15801561281657600080fd5b505af115801561282a573d6000803e3d6000fd5b505060d0546000925061284d91506001600160a01b03163063ffffffff61369a16565b90508061285a5750612e24565b600061271061287460d85484612e3390919063ffffffff16565b8161287b57fe5b04905080156128a15760d0546128a1906001600160a01b0316338363ffffffff61304a16565b60cd5460ce546060916001600160a01b0391821691161415612947576040805160028082526060820183529091602083019080368337505060d05482519293506001600160a01b0316918391506000906128f757fe5b6001600160a01b03928316602091820292909201015260cd5482519116908290600190811061292257fe5b60200260200101906001600160a01b031690816001600160a01b0316815250506129f9565b604080516003808252608082019092529060208201606080368337505060d05482519293506001600160a01b03169183915060009061298257fe5b6001600160a01b03928316602091820292909201015260cd548251911690829060019081106129ad57fe5b6001600160a01b03928316602091820292909201015260ce548251911690829060029081106129d857fe5b60200260200101906001600160a01b031690816001600160a01b0316815250505b60cb546001600160a01b03166338ed1739612a1a858563ffffffff61336116565b60008430426040518663ffffffff1660e01b81526004018086815260200185815260200180602001846001600160a01b03166001600160a01b03168152602001838152602001828103825285818151815260200191508051906020019060200280838360005b83811015612a98578181015183820152602001612a80565b505050509050019650505050505050600060405180830381600087803b158015612ac157600080fd5b505af1158015612ad5573d6000803e3d6000fd5b505050506040513d6000823e601f3d908101601f191682016040526020811015612afe57600080fd5b8101908080516040519392919084600160201b821115612b1d57600080fd5b908301906020820185811115612b3257600080fd5b82518660208202830111600160201b82111715612b4e57600080fd5b82525081516020918201928201910280838360005b83811015612b7b578181015183820152602001612b63565b5050505091909101604052505060d65460ce54612bab94506001600160a01b039182169350610f52925016612fce565b60d65460ce5460cf54604080516001600160a01b0393841660208083019190915292841681830152600060608083018290528351808403820181526080840194859052635b0e93fb60e11b9094526084830182815260a4840183905260c48401918252845160e48501528451969097169663b61d27f696929586959491936101049092019190850190808383895b83811015612c51578181015183820152602001612c39565b50505050905090810190601f168015612c7e5780820380516001836020036101000a031916815260200191505b50945050505050600060405180830381600087803b158015612c9f57600080fd5b505af1158015612cb3573d6000803e3d6000fd5b505060c95460d25460cc54604080516370a0823160e01b815230600482015290516001600160a01b03948516965063e2bbb15895509293909116916370a0823191602480820192602092909190829003018186803b158015612d1457600080fd5b505afa158015612d28573d6000803e3d6000fd5b505050506040513d6020811015612d3e57600080fd5b5051604080516001600160e01b031960e086901b1681526004810193909352602483019190915251604480830192600092919082900301818387803b158015612d8657600080fd5b505af1158015612d9a573d6000803e3d6000fd5b505060cb5460d054612dc293506001600160a01b03908116925016600063ffffffff6133fb16565b60c95460cc54612de6916001600160a01b039182169116600063ffffffff6133fb16565b6040805184815260208101849052815133927fc003f45bc224d116b6d079100d4ab57a5b9633244c47a5a92a176c5b79a85f28928290030190a25050505b6097805460ff19166001179055565b600082612e4257506000612e8f565b82820282848281612e4f57fe5b0414612e8c5760405162461bcd60e51b8152600401808060200182810382526021815260200180613c4a6021913960400191505060405180910390fd5b90505b92915050565b6000612e8c83836040518060400160405280601a815260200179536166654d6174683a206469766973696f6e206279207a65726f60301b815250613725565b3390565b600081815260d360205260409020548015612fca576000612ef8826113af565b60c95460d25460408051630441a3e760e41b8152600481019290925260248201849052519293506001600160a01b039091169163441a3e709160448082019260009290919082900301818387803b158015612f5257600080fd5b505af1158015612f66573d6000803e3d6000fd5b505060d554612f7e925090508363ffffffff61336116565b60d555600083815260d360209081526040808320929092558151848152915185927fca07b1e9ff462c1feca0fa258869d03f3657c3a02eaceed810db4f58848856dc92908290030190a2505b5050565b604080516370a0823160e01b815230600482015290516000916001600160a01b038416916370a0823191602480820192602092909190829003018186803b15801561301857600080fd5b505afa15801561302c573d6000803e3d6000fd5b505050506040513d602081101561304257600080fd5b505192915050565b604080516001600160a01b038481166024830152604480830185905283518084039091018152606490920183526020820180516001600160e01b031663a9059cbb60e01b178152925182516000946060949389169392918291908083835b602083106130c75780518252601f1990920191602091820191016130a8565b6001836020036101000a0380198251168184511680821785525050505050509050019150506000604051808303816000865af19150503d8060008114613129576040519150601f19603f3d011682016040523d82523d6000602084013e61312e565b606091505b509150915081801561315c57508051158061315c575080806020019051602081101561315957600080fd5b50515b610918576040805162461bcd60e51b815260206004820152600d60248201526c10b9b0b332aa3930b739b332b960991b604482015290519081900360640190fd5b60cc54604080516370a0823160e01b815230600482015290516000926001600160a01b0316916370a08231916024808301926020929190829003018186803b1580156131e857600080fd5b505afa1580156131fc573d6000803e3d6000fd5b505050506040513d602081101561321257600080fd5b505190508015612fca5760c95460cc54613241916001600160a01b03918216911660001963ffffffff6133fb16565b600061324c826106ec565b60c95460d25460408051631c57762b60e31b8152600481019290925260248201869052519293506001600160a01b039091169163e2bbb1589160448082019260009290919082900301818387803b1580156132a657600080fd5b505af11580156132ba573d6000803e3d6000fd5b505050600084815260d360205260409020546132dd91508263ffffffff6133a316565b600084815260d3602052604090205560d5546132ff908263ffffffff6133a316565b60d55560c95460cc54613326916001600160a01b039182169116600063ffffffff6133fb16565b60408051828152905184917fdbdb2d65c9e75a246e9a50307e793774f5ad8d986766a102b8a0eacb58208da2919081900360200190a2505050565b6000612e8c83836040518060400160405280601e81526020017f536166654d6174683a207375627472616374696f6e206f766572666c6f7700008152506137c7565b600082820183811015612e8c576040805162461bcd60e51b815260206004820152601b60248201527a536166654d6174683a206164646974696f6e206f766572666c6f7760281b604482015290519081900360640190fd5b604080516001600160a01b038481166024830152604480830185905283518084039091018152606490920183526020820180516001600160e01b031663095ea7b360e01b178152925182516000946060949389169392918291908083835b602083106134785780518252601f199092019160209182019101613459565b6001836020036101000a0380198251168184511680821785525050505050509050019150506000604051808303816000865af19150503d80600081146134da576040519150601f19603f3d011682016040523d82523d6000602084013e6134df565b606091505b509150915081801561350d57508051158061350d575080806020019051602081101561350a57600080fd5b50515b610918576040805162461bcd60e51b815260206004820152600c60248201526b2173616665417070726f766560a01b604482015290519081900360640190fd5b303b1590565b600054610100900460ff168061356c575061356c61354d565b8061357a575060005460ff16155b6135b55760405162461bcd60e51b815260040180806020018281038252602e815260200180613cab602e913960400191505060405180910390fd5b600054610100900460ff161580156135e0576000805460ff1961ff0019909116610100171660011790555b6135e8613821565b6135f06138c1565b8015613602576000805461ff00191690555b50565b600054610100900460ff168061361e575061361e61354d565b8061362c575060005460ff16155b6136675760405162461bcd60e51b815260040180806020018281038252602e815260200180613cab602e913960400191505060405180910390fd5b600054610100900460ff16158015613692576000805460ff1961ff0019909116610100171660011790555b6135f06139a8565b6000826001600160a01b03166370a08231836040518263ffffffff1660e01b815260040180826001600160a01b03166001600160a01b0316815260200191505060206040518083038186803b1580156136f257600080fd5b505afa158015613706573d6000803e3d6000fd5b505050506040513d602081101561371c57600080fd5b50519392505050565b600081836137b15760405162461bcd60e51b81526004018080602001828103825283818151815260200191508051906020019080838360005b8381101561377657818101518382015260200161375e565b50505050905090810190601f1680156137a35780820380516001836020036101000a031916815260200191505b509250505060405180910390fd5b5060008385816137bd57fe5b0495945050505050565b600081848411156138195760405162461bcd60e51b815260206004820181815283516024840152835190928392604490910191908501908083836000831561377657818101518382015260200161375e565b505050900390565b600054610100900460ff168061383a575061383a61354d565b80613848575060005460ff16155b6138835760405162461bcd60e51b815260040180806020018281038252602e815260200180613cab602e913960400191505060405180910390fd5b600054610100900460ff161580156135f0576000805460ff1961ff0019909116610100171660011790558015613602576000805461ff001916905550565b600054610100900460ff16806138da57506138da61354d565b806138e8575060005460ff16155b6139235760405162461bcd60e51b815260040180806020018281038252602e815260200180613cab602e913960400191505060405180910390fd5b600054610100900460ff1615801561394e576000805460ff1961ff0019909116610100171660011790555b6000613958612ed4565b606580546001600160a01b0319166001600160a01b03831690811790915560405191925090600090600080516020613c8b833981519152908290a3508015613602576000805461ff001916905550565b600054610100900460ff16806139c157506139c161354d565b806139cf575060005460ff16155b613a0a5760405162461bcd60e51b815260040180806020018281038252602e815260200180613cab602e913960400191505060405180910390fd5b600054610100900460ff16158015613a35576000805460ff1961ff0019909116610100171660011790555b6097805460ff191660011790558015613602576000805461ff00191690555056fe5265656e7472616e637947756172643a207265656e7472616e742063616c6c0050616e63616b6573776170576f726b65723a3a776f726b3a3a20756e617070726f76656420776f726b20737472617465677950616e63616b6573776170576f726b65723a3a6f6e6c79454f413a3a206e6f7420656f614f776e61626c653a206e6577206f776e657220697320746865207a65726f206164647265737350616e63616b6573776170576f726b65723a3a7365744d61785265696e76657374426f756e74794270733a3a205f6d61785265696e76657374426f756e7479427073206c6f776572207468616e207265696e76657374426f756e747942707350616e63616b6573776170576f726b65723a3a7365745265696e76657374426f756e74794270733a3a205f7265696e76657374426f756e7479427073206578636565646564206d61785265696e76657374426f756e747942707350616e63616b6573776170576f726b65723a3a776f726b3a3a20756e61626c6520746f207472616e73666572206c7020746f20737472617450616e63616b6573776170576f726b65723a3a6765744d6b7453656c6c416d6f756e743a3a2062616420726573657276652076616c75657350616e63616b6573776170576f726b65723a3a6f6e6c794f70657261746f723a3a206e6f74206f70657261746f72536166654d6174683a206d756c7469706c69636174696f6e206f766572666c6f774f776e61626c653a2063616c6c6572206973206e6f7420746865206f776e65728be0079c531659141344cd1fd0a4f28419497f9722a3daafe3b4186f6b6457e0436f6e747261637420696e7374616e63652068617320616c7265616479206265656e20696e697469616c697a656450616e63616b6573776170576f726b65723a3a696e697469616c697a653a3a207265696e76657374426f756e7479427073206578636565646564206d61785265696e76657374426f756e747942707350616e63616b6573776170576f726b65723a3a6d6967726174654c503a3a206c705632206973206d69732d636f6e666967656450616e63616b6573776170576f726b65723a3a6f6e6c795265696e766573746f723a3a206e6f74207265696e766573746f72a2646970667358221220d42a076ce543d50f6161f7608f0d4825d75bdab3fce8d20b9850996991ca668364736f6c63430006060033",
  "linkReferences": {},
  "deployedLinkReferences": {}
}