{
  "_format": "hh-sol-artifact-1",
  "contractName": "StronkAlpacaRelayer",
  "sourceName": "contracts/6/token/StronkAlpacaRelayer.sol",
  "abi": [
    {
      "inputs": [
        {
          "internalType": "address",
          "name": "_alpacaAddress",
          "type": "address"
        },
        {
          "internalType": "address",
          "name": "_userAddress",
          "type": "address"
        }
      ],
      "stateMutability": "nonpayable",
      "type": "constructor"
    },
    {
      "anonymous": false,
      "inputs": [
        {
          "indexed": true,
          "internalType": "address",
          "name": "previousOwner",
          "type": "address"
        },
        {
          "indexed": true,
          "internalType": "address",
          "name": "newOwner",
          "type": "address"
        }
      ],
      "name": "OwnershipTransferred",
      "type": "event"
    },
    {
      "inputs": [],
      "name": "alpacaTokenAddress",
      "outputs": [
        {
          "internalType": "address",
          "name": "",
          "type": "address"
        }
      ],
      "stateMutability": "view",
      "type": "function"
    },
    {
      "inputs": [],
      "name": "owner",
      "outputs": [
        {
          "internalType": "address",
          "name": "",
          "type": "address"
        }
      ],
      "stateMutability": "view",
      "type": "function"
    },
    {
      "inputs": [],
      "name": "renounceOwnership",
      "outputs": [],
      "stateMutability": "nonpayable",
      "type": "function"
    },
    {
      "inputs": [],
      "name": "transferAllAlpaca",
      "outputs": [],
      "stateMutability": "nonpayable",
      "type": "function"
    },
    {
      "inputs": [
        {
          "internalType": "address",
          "name": "newOwner",
          "type": "address"
        }
      ],
      "name": "transferOwnership",
      "outputs": [],
      "stateMutability": "nonpayable",
      "type": "function"
    },
    {
      "inputs": [],
      "name": "userAddress",
      "outputs": [
        {
          "internalType": "address",
          "name": "",
          "type": "address"
        }
      ],
      "stateMutability": "view",
      "type": "function"
    }
  ],
  "bytecode": "0x608060405234801561001057600080fd5b506040516109323803806109328339818101604052604081101561003357600080fd5b508051602090910151600061004f6001600160e01b036100ce16565b600080546001600160a01b0319166001600160a01b0383169081178255604051929350917f8be0079c531659141344cd1fd0a4f28419497f9722a3daafe3b4186f6b6457e0908290a35060018055600280546001600160a01b039384166001600160a01b031991821617909155600380549290931691161790556100d2565b3390565b610851806100e16000396000f3fe608060405234801561001057600080fd5b50600436106100625760003560e01c80633ff0934f14610067578063715018a6146100715780638bf9add2146100795780638da5cb5b1461009d578063e4128fb3146100a5578063f2fde38b146100ad575b600080fd5b61006f6100d3565b005b61006f610283565b61008161031d565b604080516001600160a01b039092168252519081900360200190f35b61008161032c565b61008161033b565b61006f600480360360208110156100c357600080fd5b50356001600160a01b031661034a565b6002600154141561012b576040805162461bcd60e51b815260206004820152601f60248201527f5265656e7472616e637947756172643a207265656e7472616e742063616c6c00604482015290519081900360640190fd5b600260015561013861043a565b6001600160a01b031661014961032c565b6001600160a01b031614610192576040805162461bcd60e51b815260206004820181905260248201526000805160206107b2833981519152604482015290519081900360640190fd5b600254600354604080516370a0823160e01b81523060048201529051610219936001600160a01b0390811693169183916370a0823191602480820192602092909190829003018186803b1580156101e857600080fd5b505afa1580156101fc573d6000803e3d6000fd5b505050506040513d602081101561021257600080fd5b505161043e565b6002546040805163a3a7e7f360e01b815233600482015290516001600160a01b039092169163a3a7e7f39160248082019260009290919082900301818387803b15801561026557600080fd5b505af1158015610279573d6000803e3d6000fd5b5050600180555050565b61028b61043a565b6001600160a01b031661029c61032c565b6001600160a01b0316146102e5576040805162461bcd60e51b815260206004820181905260248201526000805160206107b2833981519152604482015290519081900360640190fd5b600080546040516001600160a01b03909116906000805160206107d2833981519152908390a3600080546001600160a01b0319169055565b6002546001600160a01b031681565b6000546001600160a01b031690565b6003546001600160a01b031681565b61035261043a565b6001600160a01b031661036361032c565b6001600160a01b0316146103ac576040805162461bcd60e51b815260206004820181905260248201526000805160206107b2833981519152604482015290519081900360640190fd5b6001600160a01b0381166103f15760405162461bcd60e51b81526004018080602001828103825260268152602001806107666026913960400191505060405180910390fd5b600080546040516001600160a01b03808516939216916000805160206107d283398151915291a3600080546001600160a01b0319166001600160a01b0392909216919091179055565b3390565b604080516001600160a01b038416602482015260448082018490528251808303909101815260649091019091526020810180516001600160e01b031663a9059cbb60e01b179052610490908490610495565b505050565b60606104ea826040518060400160405280602081526020017f5361666545524332303a206c6f772d6c6576656c2063616c6c206661696c6564815250856001600160a01b03166105469092919063ffffffff16565b8051909150156104905780806020019051602081101561050957600080fd5b50516104905760405162461bcd60e51b815260040180806020018281038252602a8152602001806107f2602a913960400191505060405180910390fd5b6060610555848460008561055f565b90505b9392505050565b6060824710156105a05760405162461bcd60e51b815260040180806020018281038252602681526020018061078c6026913960400191505060405180910390fd5b6105a9856106bb565b6105fa576040805162461bcd60e51b815260206004820152601d60248201527f416464726573733a2063616c6c20746f206e6f6e2d636f6e7472616374000000604482015290519081900360640190fd5b60006060866001600160a01b031685876040518082805190602001908083835b602083106106395780518252601f19909201916020918201910161061a565b6001836020036101000a03801982511681845116808217855250505050505090500191505060006040518083038185875af1925050503d806000811461069b576040519150601f19603f3d011682016040523d82523d6000602084013e6106a0565b606091505b50915091506106b08282866106c1565b979650505050505050565b3b151590565b606083156106d0575081610558565b8251156106e05782518084602001fd5b8160405162461bcd60e51b81526004018080602001828103825283818151815260200191508051906020019080838360005b8381101561072a578181015183820152602001610712565b50505050905090810190601f1680156107575780820380516001836020036101000a031916815260200191505b509250505060405180910390fdfe4f776e61626c653a206e6577206f776e657220697320746865207a65726f2061646472657373416464726573733a20696e73756666696369656e742062616c616e636520666f722063616c6c4f776e61626c653a2063616c6c6572206973206e6f7420746865206f776e65728be0079c531659141344cd1fd0a4f28419497f9722a3daafe3b4186f6b6457e05361666545524332303a204552433230206f7065726174696f6e20646964206e6f742073756363656564a264697066735822122000c5fb3d5dd55e2b11b9cf4cda6463a23d8673b7e8deb1f884c2b200f3d4d7a964736f6c63430006060033",
  "linkReferences": {},
  "deployedLinkReferences": {}
}