{
  "_format": "hh-sol-artifact-1",
  "contractName": "WaultSwapRestrictedStrategyPartialCloseMinimizeTrading",
  "sourceName": "contracts/6/protocol/strategies/waultswap-restricted/WaultSwapRestrictedStrategyPartialCloseMinimizeTrading.sol",
  "abi": [
    {
      "anonymous": false,
      "inputs": [
        {
          "indexed": true,
          "internalType": "address",
          "name": "previousOwner",
          "type": "address"
        },
        {
          "indexed": true,
          "internalType": "address",
          "name": "newOwner",
          "type": "address"
        }
      ],
      "name": "OwnershipTransferred",
      "type": "event"
    },
    {
      "anonymous": false,
      "inputs": [
        {
          "indexed": true,
          "internalType": "address",
          "name": "baseToken",
          "type": "address"
        },
        {
          "indexed": true,
          "internalType": "address",
          "name": "farmToken",
          "type": "address"
        },
        {
          "indexed": false,
          "internalType": "uint256",
          "name": "amounToLiquidate",
          "type": "uint256"
        },
        {
          "indexed": false,
          "internalType": "uint256",
          "name": "amountToRepayDebt",
          "type": "uint256"
        }
      ],
      "name": "WaultSwapRestrictedStrategyPartialCloseMinimizeTradingEvent",
      "type": "event"
    },
    {
      "inputs": [
        {
          "internalType": "address",
          "name": "user",
          "type": "address"
        },
        {
          "internalType": "uint256",
          "name": "debt",
          "type": "uint256"
        },
        {
          "internalType": "bytes",
          "name": "data",
          "type": "bytes"
        }
      ],
      "name": "execute",
      "outputs": [],
      "stateMutability": "nonpayable",
      "type": "function"
    },
    {
      "inputs": [],
      "name": "factory",
      "outputs": [
        {
          "internalType": "contract IWaultSwapFactory",
          "name": "",
          "type": "address"
        }
      ],
      "stateMutability": "view",
      "type": "function"
    },
    {
      "inputs": [
        {
          "internalType": "contract IWaultSwapRouter02",
          "name": "_router",
          "type": "address"
        },
        {
          "internalType": "contract IWETH",
          "name": "_wbnb",
          "type": "address"
        },
        {
          "internalType": "contract IWNativeRelayer",
          "name": "_wNativeRelayer",
          "type": "address"
        }
      ],
      "name": "initialize",
      "outputs": [],
      "stateMutability": "nonpayable",
      "type": "function"
    },
    {
      "inputs": [
        {
          "internalType": "address",
          "name": "",
          "type": "address"
        }
      ],
      "name": "okWorkers",
      "outputs": [
        {
          "internalType": "bool",
          "name": "",
          "type": "bool"
        }
      ],
      "stateMutability": "view",
      "type": "function"
    },
    {
      "inputs": [],
      "name": "owner",
      "outputs": [
        {
          "internalType": "address",
          "name": "",
          "type": "address"
        }
      ],
      "stateMutability": "view",
      "type": "function"
    },
    {
      "inputs": [],
      "name": "renounceOwnership",
      "outputs": [],
      "stateMutability": "nonpayable",
      "type": "function"
    },
    {
      "inputs": [],
      "name": "router",
      "outputs": [
        {
          "internalType": "contract IWaultSwapRouter02",
          "name": "",
          "type": "address"
        }
      ],
      "stateMutability": "view",
      "type": "function"
    },
    {
      "inputs": [
        {
          "internalType": "address[]",
          "name": "workers",
          "type": "address[]"
        },
        {
          "internalType": "bool",
          "name": "isOk",
          "type": "bool"
        }
      ],
      "name": "setWorkersOk",
      "outputs": [],
      "stateMutability": "nonpayable",
      "type": "function"
    },
    {
      "inputs": [
        {
          "internalType": "address",
          "name": "newOwner",
          "type": "address"
        }
      ],
      "name": "transferOwnership",
      "outputs": [],
      "stateMutability": "nonpayable",
      "type": "function"
    },
    {
      "inputs": [],
      "name": "wNativeRelayer",
      "outputs": [
        {
          "internalType": "contract IWNativeRelayer",
          "name": "",
          "type": "address"
        }
      ],
      "stateMutability": "view",
      "type": "function"
    },
    {
      "inputs": [],
      "name": "wbnb",
      "outputs": [
        {
          "internalType": "contract IWETH",
          "name": "",
          "type": "address"
        }
      ],
      "stateMutability": "view",
      "type": "function"
    },
    {
      "stateMutability": "payable",
      "type": "receive"
    }
  ],
  "bytecode": "0x608060405234801561001057600080fd5b50611916806100206000396000f3fe6080604052600436106100905760003560e01c8063715018a61461009c5780637c5bdf49146100b35780638d72647e146101305780638da5cb5b14610161578063b61d27f614610176578063c0c53b8b14610206578063c45a01551461024b578063d13a35e614610260578063f2fde38b14610275578063f887ea40146102a8578063fa826478146102bd57610097565b3661009757005b600080fd5b3480156100a857600080fd5b506100b1610304565b005b3480156100bf57600080fd5b506100b1600480360360408110156100d657600080fd5b810190602081018135600160201b8111156100f057600080fd5b82018360208201111561010257600080fd5b803590602001918460208302840111600160201b8311171561012357600080fd5b9193509150351515610394565b34801561013c57600080fd5b50610145610447565b604080516001600160a01b039092168252519081900360200190f35b34801561016d57600080fd5b50610145610456565b34801561018257600080fd5b506100b16004803603606081101561019957600080fd5b6001600160a01b0382351691602081013591810190606081016040820135600160201b8111156101c857600080fd5b8201836020820111156101da57600080fd5b803590602001918460018302840111600160201b831117156101fb57600080fd5b509092509050610465565b34801561021257600080fd5b506100b16004803603606081101561022957600080fd5b506001600160a01b038135811691602081013582169160409091013516610c62565b34801561025757600080fd5b50610145610dc2565b34801561026c57600080fd5b50610145610dd1565b34801561028157600080fd5b506100b16004803603602081101561029857600080fd5b50356001600160a01b0316610de0565b3480156102b457600080fd5b50610145610ec7565b3480156102c957600080fd5b506102f0600480360360208110156102e057600080fd5b50356001600160a01b0316610ed6565b604080519115158252519081900360200190f35b61030c610eeb565b6065546001600160a01b0390811691161461035c576040805162461bcd60e51b81526020600482018190526024820152600080516020611873833981519152604482015290519081900360640190fd5b6065546040516000916001600160a01b031690600080516020611893833981519152908390a3606580546001600160a01b0319169055565b61039c610eeb565b6065546001600160a01b039081169116146103ec576040805162461bcd60e51b81526020600482018190526024820152600080516020611873833981519152604482015290519081900360640190fd5b60005b82811015610441578160cd600086868581811061040857fe5b602090810292909201356001600160a01b0316835250810191909152604001600020805460ff19169115159190911790556001016103ef565b50505050565b60cb546001600160a01b031681565b6065546001600160a01b031690565b33600090815260cd602052604090205460ff166104b35760405162461bcd60e51b815260040180806020018281038252605b81526020018061178c605b913960600191505060405180910390fd5b60975460ff1661050a576040805162461bcd60e51b815260206004820152601f60248201527f5265656e7472616e637947756172643a207265656e7472616e742063616c6c00604482015290519081900360640190fd5b6097805460ff19169055600080808484606081101561052857600080fd5b506040805163c55dae6360e01b81528151833596506020808501359650929093013593503392600092849263c55dae639260048083019392829003018186803b15801561057457600080fd5b505afa158015610588573d6000803e3d6000fd5b505050506040513d602081101561059e57600080fd5b50516040805163ad24dce760e01b815290519192506000916001600160a01b0385169163ad24dce7916004808301926020929190829003018186803b1580156105e657600080fd5b505afa1580156105fa573d6000803e3d6000fd5b505050506040513d602081101561061057600080fd5b505160c9546040805163e6a4390560e01b81526001600160a01b03808516600483015286811660248301529151939450600093919092169163e6a43905916044808301926020929190829003018186803b15801561066d57600080fd5b505afa158015610681573d6000803e3d6000fd5b505050506040513d602081101561069757600080fd5b5051905060006106b86106b26001600160a01b038416610eef565b89610f6b565b905060006106c68c89610f6b565b60ca549091506106eb906001600160a01b03858116911660001963ffffffff610f8316565b60ca5461070d906001600160a01b03868116911660001963ffffffff610f8316565b60ca5460408051635d5155ef60e11b81526001600160a01b038881166004830152878116602483015260448201869052600060648301819052608483018190523060a48401524260c48401528351919094169363baa2abde9360e480850194919392918390030190829087803b15801561078657600080fd5b505af115801561079a573d6000803e3d6000fd5b505050506040513d60408110156107b057600080fd5b50600090506107c76001600160a01b038716610eef565b905060006107dd866001600160a01b0316610eef565b9050818311156109ea576040805160028082526060808301845292602083019080368337019050509050868160008151811061081557fe5b60200260200101906001600160a01b031690816001600160a01b031681525050878160018151811061084357fe5b6001600160a01b0390921660209283029190910190910152600061086d858563ffffffff6110dc16565b60ca54604051634401edf760e11b815260048101838152602482018790523060648301819052426084840181905260a060448501908152885160a486015288519697506001600160a01b0390951695638803dbee9588958b958b95949390929160c401906020808801910280838360005b838110156108f65781810151838201526020016108de565b505050509050019650505050505050600060405180830381600087803b15801561091f57600080fd5b505af1158015610933573d6000803e3d6000fd5b505050506040513d6000823e601f3d908101601f19168201604052602081101561095c57600080fd5b8101908080516040519392919084600160201b82111561097b57600080fd5b90830190602082018581111561099057600080fd5b82518660208202830111600160201b821117156109ac57600080fd5b82525081516020918201928201910280838360005b838110156109d95781810151838201526020016109c1565b505050509050016040525050505050505b5050604080516370a0823160e01b81523060048201529051610a7b9133916001600160a01b038716916370a08231916024808301926020929190829003018186803b158015610a3857600080fd5b505afa158015610a4c573d6000803e3d6000fd5b505050506040513d6020811015610a6257600080fd5b50516001600160a01b038616919063ffffffff61111e16565b610aa833610a91876001600160a01b0316610eef565b6001600160a01b038816919063ffffffff61111e16565b6000610abc856001600160a01b0316610eef565b905087811015610afd5760405162461bcd60e51b815260040180806020018281038252606681526020018061180d6066913960800191505060405180910390fd5b8015610bb05760cb546001600160a01b0386811691161415610ba55760cc54610b319086906001600160a01b03168361111e565b60cc5460408051632e1a7d4d60e01b81526004810184905290516001600160a01b0390921691632e1a7d4d9160248082019260009290919082900301818387803b158015610b7e57600080fd5b505af1158015610b92573d6000803e3d6000fd5b50505050610ba08e82611271565b610bb0565b610bb0858f8361111e565b60ca54610bd1906001600160a01b038681169116600063ffffffff610f8316565b60ca54610bf2906001600160a01b038781169116600063ffffffff610f8316565b846001600160a01b0316866001600160a01b03167f7c85d72da74f83944a1fd03b721b951f43ac59b54bdad8178a88b1053d9c038c8585604051808381526020018281526020019250505060405180910390a350506097805460ff19166001179055505050505050505050505050565b600054610100900460ff1680610c7b5750610c7b611372565b80610c89575060005460ff16155b610cc45760405162461bcd60e51b815260040180806020018281038252602e8152602001806118b3602e913960400191505060405180910390fd5b600054610100900460ff16158015610cef576000805460ff1961ff0019909116610100171660011790555b610cf7611378565b610cff61142a565b836001600160a01b031663c45a01556040518163ffffffff1660e01b815260040160206040518083038186803b158015610d3857600080fd5b505afa158015610d4c573d6000803e3d6000fd5b505050506040513d6020811015610d6257600080fd5b505160c980546001600160a01b03199081166001600160a01b039384161790915560ca8054821687841617905560cb8054821686841617905560cc80549091169184169190911790558015610441576000805461ff001916905550505050565b60c9546001600160a01b031681565b60cc546001600160a01b031681565b610de8610eeb565b6065546001600160a01b03908116911614610e38576040805162461bcd60e51b81526020600482018190526024820152600080516020611873833981519152604482015290519081900360640190fd5b6001600160a01b038116610e7d5760405162461bcd60e51b81526004018080602001828103825260268152602001806117e76026913960400191505060405180910390fd5b6065546040516001600160a01b0380841692169060008051602061189383398151915290600090a3606580546001600160a01b0319166001600160a01b0392909216919091179055565b60ca546001600160a01b031681565b60cd6020526000908152604090205460ff1681565b3390565b604080516370a0823160e01b815230600482015290516000916001600160a01b038416916370a0823191602480820192602092909190829003018186803b158015610f3957600080fd5b505afa158015610f4d573d6000803e3d6000fd5b505050506040513d6020811015610f6357600080fd5b505192915050565b6000818310610f7a5781610f7c565b825b9392505050565b604080516001600160a01b038481166024830152604480830185905283518084039091018152606490920183526020820180516001600160e01b031663095ea7b360e01b178152925182516000946060949389169392918291908083835b602083106110005780518252601f199092019160209182019101610fe1565b6001836020036101000a0380198251168184511680821785525050505050509050019150506000604051808303816000865af19150503d8060008114611062576040519150601f19603f3d011682016040523d82523d6000602084013e611067565b606091505b5091509150818015611095575080511580611095575080806020019051602081101561109257600080fd5b50515b6110d5576040805162461bcd60e51b815260206004820152600c60248201526b2173616665417070726f766560a01b604482015290519081900360640190fd5b5050505050565b6000610f7c83836040518060400160405280601e81526020017f536166654d6174683a207375627472616374696f6e206f766572666c6f7700008152506114bf565b604080516001600160a01b038481166024830152604480830185905283518084039091018152606490920183526020820180516001600160e01b031663a9059cbb60e01b178152925182516000946060949389169392918291908083835b6020831061119b5780518252601f19909201916020918201910161117c565b6001836020036101000a0380198251168184511680821785525050505050509050019150506000604051808303816000865af19150503d80600081146111fd576040519150601f19603f3d011682016040523d82523d6000602084013e611202565b606091505b5091509150818015611230575080511580611230575080806020019051602081101561122d57600080fd5b50515b6110d5576040805162461bcd60e51b815260206004820152600d60248201526c10b9b0b332aa3930b739b332b960991b604482015290519081900360640190fd5b604080516000808252602082019092526001600160a01b0384169083906040518082805190602001908083835b602083106112bd5780518252601f19909201916020918201910161129e565b6001836020036101000a03801982511681845116808217855250505050505090500191505060006040518083038185875af1925050503d806000811461131f576040519150601f19603f3d011682016040523d82523d6000602084013e611324565b606091505b505090508061136d576040805162461bcd60e51b815260206004820152601060248201526f042e6c2cccaa8e4c2dce6cccae48aa8960831b604482015290519081900360640190fd5b505050565b303b1590565b600054610100900460ff16806113915750611391611372565b8061139f575060005460ff16155b6113da5760405162461bcd60e51b815260040180806020018281038252602e8152602001806118b3602e913960400191505060405180910390fd5b600054610100900460ff16158015611405576000805460ff1961ff0019909116610100171660011790555b61140d611556565b6114156115f6565b8015611427576000805461ff00191690555b50565b600054610100900460ff16806114435750611443611372565b80611451575060005460ff16155b61148c5760405162461bcd60e51b815260040180806020018281038252602e8152602001806118b3602e913960400191505060405180910390fd5b600054610100900460ff161580156114b7576000805460ff1961ff0019909116610100171660011790555b6114156116dd565b6000818484111561154e5760405162461bcd60e51b81526004018080602001828103825283818151815260200191508051906020019080838360005b838110156115135781810151838201526020016114fb565b50505050905090810190601f1680156115405780820380516001836020036101000a031916815260200191505b509250505060405180910390fd5b505050900390565b600054610100900460ff168061156f575061156f611372565b8061157d575060005460ff16155b6115b85760405162461bcd60e51b815260040180806020018281038252602e8152602001806118b3602e913960400191505060405180910390fd5b600054610100900460ff16158015611415576000805460ff1961ff0019909116610100171660011790558015611427576000805461ff001916905550565b600054610100900460ff168061160f575061160f611372565b8061161d575060005460ff16155b6116585760405162461bcd60e51b815260040180806020018281038252602e8152602001806118b3602e913960400191505060405180910390fd5b600054610100900460ff16158015611683576000805460ff1961ff0019909116610100171660011790555b600061168d610eeb565b606580546001600160a01b0319166001600160a01b03831690811790915560405191925090600090600080516020611893833981519152908290a3508015611427576000805461ff001916905550565b600054610100900460ff16806116f657506116f6611372565b80611704575060005460ff16155b61173f5760405162461bcd60e51b815260040180806020018281038252602e8152602001806118b3602e913960400191505060405180910390fd5b600054610100900460ff1615801561176a576000805460ff1961ff0019909116610100171660011790555b6097805460ff191660011790558015611427576000805461ff00191690555056fe5761756c74537761705265737472696374656453747261746567795061727469616c436c6f73654d696e696d697a6554726164696e673a3a6f6e6c7957686974656c6973746564576f726b6572733a3a2062616420776f726b65724f776e61626c653a206e6577206f776e657220697320746865207a65726f20616464726573735761756c74537761705265737472696374656453747261746567795061727469616c436c6f73654d696e696d697a6554726164696e673a3a657865637574653a3a20696e73756666696369656e74206661726d696e6720746f6b656e732072656365697665644f776e61626c653a2063616c6c6572206973206e6f7420746865206f776e65728be0079c531659141344cd1fd0a4f28419497f9722a3daafe3b4186f6b6457e0436f6e747261637420696e7374616e63652068617320616c7265616479206265656e20696e697469616c697a6564a264697066735822122050fea8a48443b2b7df7f093f9712576d5556290ab0d5845f3fa102881c726ce364736f6c63430006060033",
  "linkReferences": {},
  "deployedLinkReferences": {}
}