{
  "_format": "hh-sol-artifact-1",
  "contractName": "WaultSwapRestrictedStrategyLiquidate",
  "sourceName": "contracts/6/protocol/strategies/waultswap-restricted/WaultSwapRestrictedStrategyLiquidate.sol",
  "abi": [
    {
      "anonymous": false,
      "inputs": [
        {
          "indexed": true,
          "internalType": "address",
          "name": "previousOwner",
          "type": "address"
        },
        {
          "indexed": true,
          "internalType": "address",
          "name": "newOwner",
          "type": "address"
        }
      ],
      "name": "OwnershipTransferred",
      "type": "event"
    },
    {
      "inputs": [
        {
          "internalType": "address",
          "name": "",
          "type": "address"
        },
        {
          "internalType": "uint256",
          "name": "debt",
          "type": "uint256"
        },
        {
          "internalType": "bytes",
          "name": "data",
          "type": "bytes"
        }
      ],
      "name": "execute",
      "outputs": [],
      "stateMutability": "nonpayable",
      "type": "function"
    },
    {
      "inputs": [],
      "name": "factory",
      "outputs": [
        {
          "internalType": "contract IWaultSwapFactory",
          "name": "",
          "type": "address"
        }
      ],
      "stateMutability": "view",
      "type": "function"
    },
    {
      "inputs": [
        {
          "internalType": "contract IWaultSwapRouter02",
          "name": "_router",
          "type": "address"
        }
      ],
      "name": "initialize",
      "outputs": [],
      "stateMutability": "nonpayable",
      "type": "function"
    },
    {
      "inputs": [
        {
          "internalType": "address",
          "name": "",
          "type": "address"
        }
      ],
      "name": "okWorkers",
      "outputs": [
        {
          "internalType": "bool",
          "name": "",
          "type": "bool"
        }
      ],
      "stateMutability": "view",
      "type": "function"
    },
    {
      "inputs": [],
      "name": "owner",
      "outputs": [
        {
          "internalType": "address",
          "name": "",
          "type": "address"
        }
      ],
      "stateMutability": "view",
      "type": "function"
    },
    {
      "inputs": [],
      "name": "renounceOwnership",
      "outputs": [],
      "stateMutability": "nonpayable",
      "type": "function"
    },
    {
      "inputs": [],
      "name": "router",
      "outputs": [
        {
          "internalType": "contract IWaultSwapRouter02",
          "name": "",
          "type": "address"
        }
      ],
      "stateMutability": "view",
      "type": "function"
    },
    {
      "inputs": [
        {
          "internalType": "address[]",
          "name": "workers",
          "type": "address[]"
        },
        {
          "internalType": "bool",
          "name": "isOk",
          "type": "bool"
        }
      ],
      "name": "setWorkersOk",
      "outputs": [],
      "stateMutability": "nonpayable",
      "type": "function"
    },
    {
      "inputs": [
        {
          "internalType": "address",
          "name": "newOwner",
          "type": "address"
        }
      ],
      "name": "transferOwnership",
      "outputs": [],
      "stateMutability": "nonpayable",
      "type": "function"
    }
  ],
  "bytecode": "0x608060405234801561001057600080fd5b50611534806100206000396000f3fe608060405234801561001057600080fd5b50600436106100835760003560e01c8063715018a6146100885780637c5bdf49146100925780638da5cb5b14610102578063b61d27f614610126578063c45a0155146101a9578063c4d66de8146101b1578063f2fde38b146101d7578063f887ea40146101fd578063fa82647814610205575b600080fd5b61009061023f565b005b610090600480360360408110156100a857600080fd5b810190602081018135600160201b8111156100c257600080fd5b8201836020820111156100d457600080fd5b803590602001918460208302840111600160201b831117156100f557600080fd5b91935091503515156102cf565b61010a610382565b604080516001600160a01b039092168252519081900360200190f35b6100906004803603606081101561013c57600080fd5b6001600160a01b0382351691602081013591810190606081016040820135600160201b81111561016b57600080fd5b82018360208201111561017d57600080fd5b803590602001918460018302840111600160201b8311171561019e57600080fd5b509092509050610391565b61010a6109e3565b610090600480360360208110156101c757600080fd5b50356001600160a01b03166109f2565b610090600480360360208110156101ed57600080fd5b50356001600160a01b0316610b39565b61010a610c20565b61022b6004803603602081101561021b57600080fd5b50356001600160a01b0316610c2f565b604080519115158252519081900360200190f35b610247610c44565b6065546001600160a01b03908116911614610297576040805162461bcd60e51b81526020600482018190526024820152600080516020611442833981519152604482015290519081900360640190fd5b6065546040516000916001600160a01b031690600080516020611462833981519152908390a3606580546001600160a01b0319169055565b6102d7610c44565b6065546001600160a01b03908116911614610327576040805162461bcd60e51b81526020600482018190526024820152600080516020611442833981519152604482015290519081900360640190fd5b60005b8281101561037c578160cb600086868581811061034357fe5b602090810292909201356001600160a01b0316835250810191909152604001600020805460ff191691151591909117905560010161032a565b50505050565b6065546001600160a01b031690565b33600090815260cb602052604090205460ff166103df5760405162461bcd60e51b81526004018080602001828103825260498152602001806113f96049913960600191505060405180910390fd5b60975460ff16610436576040805162461bcd60e51b815260206004820152601f60248201527f5265656e7472616e637947756172643a207265656e7472616e742063616c6c00604482015290519081900360640190fd5b6097805460ff1916905560008282602081101561045257600080fd5b506040805163c55dae6360e01b81529051913592503391600091839163c55dae6391600480820192602092909190829003018186803b15801561049457600080fd5b505afa1580156104a8573d6000803e3d6000fd5b505050506040513d60208110156104be57600080fd5b50516040805163ad24dce760e01b815290519192506000916001600160a01b0385169163ad24dce7916004808301926020929190829003018186803b15801561050657600080fd5b505afa15801561051a573d6000803e3d6000fd5b505050506040513d602081101561053057600080fd5b505160c9546040805163e6a4390560e01b81526001600160a01b03808516600483015286811660248301529151939450600093919092169163e6a43905916044808301926020929190829003018186803b15801561058d57600080fd5b505afa1580156105a1573d6000803e3d6000fd5b505050506040513d60208110156105b757600080fd5b505160ca549091506105de906001600160a01b03808416911660001963ffffffff610c4816565b60ca54610600906001600160a01b03848116911660001963ffffffff610c4816565b60ca54604080516370a0823160e01b815230600482015290516001600160a01b039283169263baa2abde92879287928716916370a08231916024808301926020929190829003018186803b15801561065757600080fd5b505afa15801561066b573d6000803e3d6000fd5b505050506040513d602081101561068157600080fd5b5051604080516001600160e01b031960e087901b1681526001600160a01b0394851660048201529290931660248301526044820152600060648201819052608482018190523060a48301524260c4830152825160e480840194939192918390030190829087803b1580156106f457600080fd5b505af1158015610708573d6000803e3d6000fd5b505050506040513d604081101561071e57600080fd5b50506040805160028082526060808301845292602083019080368337019050509050828160008151811061074e57fe5b60200260200101906001600160a01b031690816001600160a01b031681525050838160018151811061077c57fe5b6001600160a01b03928316602091820292909201015260ca548116906338ed1739906107a9908616610da1565b60008430426040518663ffffffff1660e01b81526004018086815260200185815260200180602001846001600160a01b03166001600160a01b03168152602001838152602001828103825285818151815260200191508051906020019060200280838360005b8381101561082757818101518382015260200161080f565b505050509050019650505050505050600060405180830381600087803b15801561085057600080fd5b505af1158015610864573d6000803e3d6000fd5b505050506040513d6000823e601f3d908101601f19168201604052602081101561088d57600080fd5b8101908080516040519392919084600160201b8211156108ac57600080fd5b9083019060208201858111156108c157600080fd5b82518660208202830111600160201b821117156108dd57600080fd5b82525081516020918201928201910280838360005b8381101561090a5781810151838201526020016108f2565b5050505090500160405250505050600061092c856001600160a01b0316610da1565b90508661093f828c63ffffffff610e1d16565b101561097c5760405162461bcd60e51b815260040180806020018281038252604f8152602001806114b0604f913960600191505060405180910390fd5b610987853383610e66565b60ca546109a8906001600160a01b038581169116600063ffffffff610c4816565b60ca546109c9906001600160a01b038681169116600063ffffffff610c4816565b50506097805460ff19166001179055505050505050505050565b60c9546001600160a01b031681565b600054610100900460ff1680610a0b5750610a0b610fb9565b80610a19575060005460ff16155b610a545760405162461bcd60e51b815260040180806020018281038252602e815260200180611482602e913960400191505060405180910390fd5b600054610100900460ff16158015610a7f576000805460ff1961ff0019909116610100171660011790555b610a87610fbf565b610a8f611071565b816001600160a01b031663c45a01556040518163ffffffff1660e01b815260040160206040518083038186803b158015610ac857600080fd5b505afa158015610adc573d6000803e3d6000fd5b505050506040513d6020811015610af257600080fd5b505160c980546001600160a01b03199081166001600160a01b039384161790915560ca80549091169184169190911790558015610b35576000805461ff00191690555b5050565b610b41610c44565b6065546001600160a01b03908116911614610b91576040805162461bcd60e51b81526020600482018190526024820152600080516020611442833981519152604482015290519081900360640190fd5b6001600160a01b038116610bd65760405162461bcd60e51b81526004018080602001828103825260268152602001806113d36026913960400191505060405180910390fd5b6065546040516001600160a01b0380841692169060008051602061146283398151915290600090a3606580546001600160a01b0319166001600160a01b0392909216919091179055565b60ca546001600160a01b031681565b60cb6020526000908152604090205460ff1681565b3390565b604080516001600160a01b038481166024830152604480830185905283518084039091018152606490920183526020820180516001600160e01b031663095ea7b360e01b178152925182516000946060949389169392918291908083835b60208310610cc55780518252601f199092019160209182019101610ca6565b6001836020036101000a0380198251168184511680821785525050505050509050019150506000604051808303816000865af19150503d8060008114610d27576040519150601f19603f3d011682016040523d82523d6000602084013e610d2c565b606091505b5091509150818015610d5a575080511580610d5a5750808060200190516020811015610d5757600080fd5b50515b610d9a576040805162461bcd60e51b815260206004820152600c60248201526b2173616665417070726f766560a01b604482015290519081900360640190fd5b5050505050565b604080516370a0823160e01b815230600482015290516000916001600160a01b038416916370a0823191602480820192602092909190829003018186803b158015610deb57600080fd5b505afa158015610dff573d6000803e3d6000fd5b505050506040513d6020811015610e1557600080fd5b505192915050565b6000610e5f83836040518060400160405280601e81526020017f536166654d6174683a207375627472616374696f6e206f766572666c6f770000815250611106565b9392505050565b604080516001600160a01b038481166024830152604480830185905283518084039091018152606490920183526020820180516001600160e01b031663a9059cbb60e01b178152925182516000946060949389169392918291908083835b60208310610ee35780518252601f199092019160209182019101610ec4565b6001836020036101000a0380198251168184511680821785525050505050509050019150506000604051808303816000865af19150503d8060008114610f45576040519150601f19603f3d011682016040523d82523d6000602084013e610f4a565b606091505b5091509150818015610f78575080511580610f785750808060200190516020811015610f7557600080fd5b50515b610d9a576040805162461bcd60e51b815260206004820152600d60248201526c10b9b0b332aa3930b739b332b960991b604482015290519081900360640190fd5b303b1590565b600054610100900460ff1680610fd85750610fd8610fb9565b80610fe6575060005460ff16155b6110215760405162461bcd60e51b815260040180806020018281038252602e815260200180611482602e913960400191505060405180910390fd5b600054610100900460ff1615801561104c576000805460ff1961ff0019909116610100171660011790555b61105461119d565b61105c61123d565b801561106e576000805461ff00191690555b50565b600054610100900460ff168061108a575061108a610fb9565b80611098575060005460ff16155b6110d35760405162461bcd60e51b815260040180806020018281038252602e815260200180611482602e913960400191505060405180910390fd5b600054610100900460ff161580156110fe576000805460ff1961ff0019909116610100171660011790555b61105c611324565b600081848411156111955760405162461bcd60e51b81526004018080602001828103825283818151815260200191508051906020019080838360005b8381101561115a578181015183820152602001611142565b50505050905090810190601f1680156111875780820380516001836020036101000a031916815260200191505b509250505060405180910390fd5b505050900390565b600054610100900460ff16806111b657506111b6610fb9565b806111c4575060005460ff16155b6111ff5760405162461bcd60e51b815260040180806020018281038252602e815260200180611482602e913960400191505060405180910390fd5b600054610100900460ff1615801561105c576000805460ff1961ff001990911661010017166001179055801561106e576000805461ff001916905550565b600054610100900460ff16806112565750611256610fb9565b80611264575060005460ff16155b61129f5760405162461bcd60e51b815260040180806020018281038252602e815260200180611482602e913960400191505060405180910390fd5b600054610100900460ff161580156112ca576000805460ff1961ff0019909116610100171660011790555b60006112d4610c44565b606580546001600160a01b0319166001600160a01b03831690811790915560405191925090600090600080516020611462833981519152908290a350801561106e576000805461ff001916905550565b600054610100900460ff168061133d575061133d610fb9565b8061134b575060005460ff16155b6113865760405162461bcd60e51b815260040180806020018281038252602e815260200180611482602e913960400191505060405180910390fd5b600054610100900460ff161580156113b1576000805460ff1961ff0019909116610100171660011790555b6097805460ff19166001179055801561106e576000805461ff00191690555056fe4f776e61626c653a206e6577206f776e657220697320746865207a65726f20616464726573735761756c74537761705265737472696374656453747261746567794c69717569646174653a3a6f6e6c7957686974656c6973746564576f726b6572733a3a2062616420776f726b65724f776e61626c653a2063616c6c6572206973206e6f7420746865206f776e65728be0079c531659141344cd1fd0a4f28419497f9722a3daafe3b4186f6b6457e0436f6e747261637420696e7374616e63652068617320616c7265616479206265656e20696e697469616c697a65645761756c74537761705265737472696374656453747261746567794c69717569646174653a3a657865637574653a3a20696e73756666696369656e742062617365546f6b656e207265636569766564a2646970667358221220775a78fdf2623cb509a74b28c0e76921feca3f395c87601ebf3e86debdcd573b64736f6c63430006060033",
  "linkReferences": {},
  "deployedLinkReferences": {}
}