{
  "_format": "hh-sol-artifact-1",
  "contractName": "MerkleDistributor",
  "sourceName": "contracts/6/token/MerkleDistributor.sol",
  "abi": [
    {
      "inputs": [
        {
          "internalType": "address",
          "name": "token_",
          "type": "address"
        },
        {
          "internalType": "bytes32",
          "name": "merkleRoot_",
          "type": "bytes32"
        }
      ],
      "stateMutability": "nonpayable",
      "type": "constructor"
    },
    {
      "anonymous": false,
      "inputs": [
        {
          "indexed": false,
          "internalType": "uint256",
          "name": "index",
          "type": "uint256"
        },
        {
          "indexed": false,
          "internalType": "address",
          "name": "account",
          "type": "address"
        },
        {
          "indexed": false,
          "internalType": "uint256",
          "name": "amount",
          "type": "uint256"
        }
      ],
      "name": "Claimed",
      "type": "event"
    },
    {
      "anonymous": false,
      "inputs": [
        {
          "indexed": true,
          "internalType": "address",
          "name": "depositor",
          "type": "address"
        },
        {
          "indexed": false,
          "internalType": "uint256",
          "name": "amount",
          "type": "uint256"
        }
      ],
      "name": "Deposit",
      "type": "event"
    },
    {
      "anonymous": false,
      "inputs": [
        {
          "indexed": true,
          "internalType": "address",
          "name": "previousOwner",
          "type": "address"
        },
        {
          "indexed": true,
          "internalType": "address",
          "name": "newOwner",
          "type": "address"
        }
      ],
      "name": "OwnershipTransferred",
      "type": "event"
    },
    {
      "anonymous": false,
      "inputs": [
        {
          "indexed": true,
          "internalType": "address",
          "name": "withdrawer",
          "type": "address"
        },
        {
          "indexed": false,
          "internalType": "uint256",
          "name": "amount",
          "type": "uint256"
        }
      ],
      "name": "WithdrawAllRewardTokens",
      "type": "event"
    },
    {
      "anonymous": false,
      "inputs": [
        {
          "indexed": true,
          "internalType": "address",
          "name": "withdrawer",
          "type": "address"
        },
        {
          "indexed": false,
          "internalType": "uint256",
          "name": "amount",
          "type": "uint256"
        }
      ],
      "name": "WithdrawRewardTokens",
      "type": "event"
    },
    {
      "anonymous": false,
      "inputs": [
        {
          "indexed": true,
          "internalType": "address",
          "name": "withdrawer",
          "type": "address"
        },
        {
          "indexed": false,
          "internalType": "address",
          "name": "token",
          "type": "address"
        },
        {
          "indexed": false,
          "internalType": "uint256",
          "name": "amount",
          "type": "uint256"
        }
      ],
      "name": "WithdrawTokens",
      "type": "event"
    },
    {
      "inputs": [
        {
          "internalType": "uint256",
          "name": "index",
          "type": "uint256"
        },
        {
          "internalType": "address",
          "name": "account",
          "type": "address"
        },
        {
          "internalType": "uint256",
          "name": "amount",
          "type": "uint256"
        },
        {
          "internalType": "bytes32[]",
          "name": "merkleProof",
          "type": "bytes32[]"
        }
      ],
      "name": "claim",
      "outputs": [],
      "stateMutability": "nonpayable",
      "type": "function"
    },
    {
      "inputs": [
        {
          "internalType": "uint256",
          "name": "_amount",
          "type": "uint256"
        }
      ],
      "name": "deposit",
      "outputs": [],
      "stateMutability": "nonpayable",
      "type": "function"
    },
    {
      "inputs": [
        {
          "internalType": "uint256",
          "name": "index",
          "type": "uint256"
        }
      ],
      "name": "isClaimed",
      "outputs": [
        {
          "internalType": "bool",
          "name": "",
          "type": "bool"
        }
      ],
      "stateMutability": "view",
      "type": "function"
    },
    {
      "inputs": [],
      "name": "merkleRoot",
      "outputs": [
        {
          "internalType": "bytes32",
          "name": "",
          "type": "bytes32"
        }
      ],
      "stateMutability": "view",
      "type": "function"
    },
    {
      "inputs": [],
      "name": "owner",
      "outputs": [
        {
          "internalType": "address",
          "name": "",
          "type": "address"
        }
      ],
      "stateMutability": "view",
      "type": "function"
    },
    {
      "inputs": [],
      "name": "renounceOwnership",
      "outputs": [],
      "stateMutability": "nonpayable",
      "type": "function"
    },
    {
      "inputs": [],
      "name": "token",
      "outputs": [
        {
          "internalType": "address",
          "name": "",
          "type": "address"
        }
      ],
      "stateMutability": "view",
      "type": "function"
    },
    {
      "inputs": [
        {
          "internalType": "address",
          "name": "newOwner",
          "type": "address"
        }
      ],
      "name": "transferOwnership",
      "outputs": [],
      "stateMutability": "nonpayable",
      "type": "function"
    },
    {
      "inputs": [],
      "name": "withdrawAllRewardTokens",
      "outputs": [],
      "stateMutability": "nonpayable",
      "type": "function"
    },
    {
      "inputs": [
        {
          "internalType": "uint256",
          "name": "_amount",
          "type": "uint256"
        }
      ],
      "name": "withdrawRewardTokens",
      "outputs": [],
      "stateMutability": "nonpayable",
      "type": "function"
    },
    {
      "inputs": [
        {
          "internalType": "address",
          "name": "_token",
          "type": "address"
        },
        {
          "internalType": "uint256",
          "name": "_amount",
          "type": "uint256"
        }
      ],
      "name": "withdrawTokens",
      "outputs": [],
      "stateMutability": "nonpayable",
      "type": "function"
    }
  ],
  "bytecode": "0x60c060405234801561001057600080fd5b506040516111403803806111408339818101604052604081101561003357600080fd5b508051602090910151600061004f6001600160e01b036100b416565b600080546001600160a01b0319166001600160a01b0383169081178255604051929350917f8be0079c531659141344cd1fd0a4f28419497f9722a3daafe3b4186f6b6457e0908290a35060609190911b6001600160601b03191660805260a0526100b8565b3390565b60805160601c60a0516110446100fc600039806103b8528061056052508061042952806106075280610689528061082b52806109015280610a5952506110446000f3fe608060405234801561001057600080fd5b50600436106100995760003560e01c806306b091f91461009e5780632e7ba6ef146100cc5780632eb4a7ab146101565780634f8e3ca814610170578063715018a6146101785780638da5cb5b146101805780639e34070f146101a4578063b6b55f25146101d5578063cb43b2dd146101f2578063f2fde38b1461020f578063fc0c546a14610235575b600080fd5b6100ca600480360360408110156100b457600080fd5b506001600160a01b03813516906020013561023d565b005b6100ca600480360360808110156100e257600080fd5b8135916001600160a01b036020820135169160408201359190810190608081016060820135600160201b81111561011857600080fd5b82018360208201111561012a57600080fd5b803590602001918460208302840111600160201b8311171561014b57600080fd5b509092509050610300565b61015e61055e565b60408051918252519081900360200190f35b6100ca610582565b6100ca6106ef565b610188610789565b604080516001600160a01b039092168252519081900360200190f35b6101c1600480360360208110156101ba57600080fd5b5035610798565b604080519115158252519081900360200190f35b6100ca600480360360208110156101eb57600080fd5b50356107bc565b6100ca6004803603602081101561020857600080fd5b5035610892565b6100ca6004803603602081101561022557600080fd5b50356001600160a01b0316610967565b610188610a57565b610245610a7b565b6001600160a01b0316610256610789565b6001600160a01b03161461029f576040805162461bcd60e51b81526020600482018190526024820152600080516020610f4c833981519152604482015290519081900360640190fd5b6102b96001600160a01b038316338363ffffffff610a7f16565b604080516001600160a01b038416815260208101839052815133927f70082d08c003c5341f2401bec1c2ae1dbcdc29ae17e9cc5633fa617caa8acd4c928290030190a25050565b61030985610798565b156103455760405162461bcd60e51b815260040180806020018281038252602f815260200180610f8c602f913960400191505060405180910390fd5b6040805160208082018890526001600160601b0319606088901b16828401526054808301879052835180840390910181526074830180855281519183019190912060949286028085018401909552858252936103e3939192879287928392909101908490808284376000920191909152507f00000000000000000000000000000000000000000000000000000000000000009250859150610ad69050565b61041e5760405162461bcd60e51b8152600401808060200182810382526028815260200180610efe6028913960400191505060405180910390fd5b61042786610b81565b7f00000000000000000000000000000000000000000000000000000000000000006001600160a01b031663a9059cbb86866040518363ffffffff1660e01b815260040180836001600160a01b03166001600160a01b0316815260200182815260200192505050602060405180830381600087803b1580156104a757600080fd5b505af11580156104bb573d6000803e3d6000fd5b505050506040513d60208110156104d157600080fd5b505161050e5760405162461bcd60e51b815260040180806020018281038252602a815260200180610fbb602a913960400191505060405180910390fd5b604080518781526001600160a01b038716602082015280820186905290517f4ec90e965519d92681267467f775ada5bd214aa92c0dc93d90a5e880ce9ed0269181900360600190a1505050505050565b7f000000000000000000000000000000000000000000000000000000000000000081565b61058a610a7b565b6001600160a01b031661059b610789565b6001600160a01b0316146105e4576040805162461bcd60e51b81526020600482018190526024820152600080516020610f4c833981519152604482015290519081900360640190fd5b604080516370a0823160e01b815230600482015290516000916001600160a01b037f000000000000000000000000000000000000000000000000000000000000000016916370a0823191602480820192602092909190829003018186803b15801561064e57600080fd5b505afa158015610662573d6000803e3d6000fd5b505050506040513d602081101561067857600080fd5b505190506106b66001600160a01b037f000000000000000000000000000000000000000000000000000000000000000016338363ffffffff610a7f16565b60408051828152905133917ff45178b726e3a80ecaf42526929019a54e55cb2e8405794fd6ac4464964791df919081900360200190a250565b6106f7610a7b565b6001600160a01b0316610708610789565b6001600160a01b031614610751576040805162461bcd60e51b81526020600482018190526024820152600080516020610f4c833981519152604482015290519081900360640190fd5b600080546040516001600160a01b0390911690600080516020610f6c833981519152908390a3600080546001600160a01b0319169055565b6000546001600160a01b031690565b610100810460009081526001602081905260409091205460ff9092161b9081161490565b6107c4610a7b565b6001600160a01b03166107d5610789565b6001600160a01b03161461081e576040805162461bcd60e51b81526020600482018190526024820152600080516020610f4c833981519152604482015290519081900360640190fd5b6108596001600160a01b037f00000000000000000000000000000000000000000000000000000000000000001633308463ffffffff610ba916565b60408051828152905133917fe1fffcc4923d04b559f4d29a8bfc6cda04eb5b0d3c460751c2402c5c5cc9109c919081900360200190a250565b61089a610a7b565b6001600160a01b03166108ab610789565b6001600160a01b0316146108f4576040805162461bcd60e51b81526020600482018190526024820152600080516020610f4c833981519152604482015290519081900360640190fd5b61092e6001600160a01b037f000000000000000000000000000000000000000000000000000000000000000016338363ffffffff610a7f16565b60408051828152905133917f0839b8f4eab92bd29cd2593d9c951392f9a4a749a8443860510983cf3968845f919081900360200190a250565b61096f610a7b565b6001600160a01b0316610980610789565b6001600160a01b0316146109c9576040805162461bcd60e51b81526020600482018190526024820152600080516020610f4c833981519152604482015290519081900360640190fd5b6001600160a01b038116610a0e5760405162461bcd60e51b8152600401808060200182810382526026815260200180610ed86026913960400191505060405180910390fd5b600080546040516001600160a01b0380851693921691600080516020610f6c83398151915291a3600080546001600160a01b0319166001600160a01b0392909216919091179055565b7f000000000000000000000000000000000000000000000000000000000000000081565b3390565b604080516001600160a01b038416602482015260448082018490528251808303909101815260649091019091526020810180516001600160e01b031663a9059cbb60e01b179052610ad1908490610c09565b505050565b600081815b8551811015610b74576000868281518110610af257fe5b60200260200101519050808311610b395782816040516020018083815260200182815260200192505050604051602081830303815290604052805190602001209250610b6b565b808360405160200180838152602001828152602001925050506040516020818303038152906040528051906020012092505b50600101610adb565b50831490505b9392505050565b61010081046000908152600160208190526040909120805460ff9093169190911b9091179055565b604080516001600160a01b0380861660248301528416604482015260648082018490528251808303909101815260849091019091526020810180516001600160e01b03166323b872dd60e01b179052610c03908590610c09565b50505050565b6060610c5e826040518060400160405280602081526020017f5361666545524332303a206c6f772d6c6576656c2063616c6c206661696c6564815250856001600160a01b0316610cba9092919063ffffffff16565b805190915015610ad157808060200190516020811015610c7d57600080fd5b5051610ad15760405162461bcd60e51b815260040180806020018281038252602a815260200180610fe5602a913960400191505060405180910390fd5b6060610cc98484600085610cd1565b949350505050565b606082471015610d125760405162461bcd60e51b8152600401808060200182810382526026815260200180610f266026913960400191505060405180910390fd5b610d1b85610e2d565b610d6c576040805162461bcd60e51b815260206004820152601d60248201527f416464726573733a2063616c6c20746f206e6f6e2d636f6e7472616374000000604482015290519081900360640190fd5b60006060866001600160a01b031685876040518082805190602001908083835b60208310610dab5780518252601f199092019160209182019101610d8c565b6001836020036101000a03801982511681845116808217855250505050505090500191505060006040518083038185875af1925050503d8060008114610e0d576040519150601f19603f3d011682016040523d82523d6000602084013e610e12565b606091505b5091509150610e22828286610e33565b979650505050505050565b3b151590565b60608315610e42575081610b7a565b825115610e525782518084602001fd5b8160405162461bcd60e51b81526004018080602001828103825283818151815260200191508051906020019080838360005b83811015610e9c578181015183820152602001610e84565b50505050905090810190601f168015610ec95780820380516001836020036101000a031916815260200191505b509250505060405180910390fdfe4f776e61626c653a206e6577206f776e657220697320746865207a65726f20616464726573734d65726b6c654469737472696275746f723a3a636c61696d3a3a20696e76616c69642070726f6f66416464726573733a20696e73756666696369656e742062616c616e636520666f722063616c6c4f776e61626c653a2063616c6c6572206973206e6f7420746865206f776e65728be0079c531659141344cd1fd0a4f28419497f9722a3daafe3b4186f6b6457e04d65726b6c654469737472696275746f723a3a636c61696d3a3a2064726f7020616c726561647920636c61696d65644d65726b6c654469737472696275746f723a3a636c61696d3a3a207472616e73666572206661696c65645361666545524332303a204552433230206f7065726174696f6e20646964206e6f742073756363656564a26469706673582212206e0684d3ac660cf2f56b0ed61968c69245ca17a45f09df20ea9e61aff21391c564736f6c63430006060033",
  "linkReferences": {},
  "deployedLinkReferences": {}
}