{
  "_format": "hh-sol-artifact-1",
  "contractName": "PancakeswapWorker",
  "sourceName": "contracts/6/protocol/workers/pcs/PancakeswapWorker.sol",
  "abi": [
    {
      "anonymous": false,
      "inputs": [
        {
          "indexed": true,
          "internalType": "uint256",
          "name": "id",
          "type": "uint256"
        },
        {
          "indexed": false,
          "internalType": "uint256",
          "name": "share",
          "type": "uint256"
        }
      ],
      "name": "AddShare",
      "type": "event"
    },
    {
      "anonymous": false,
      "inputs": [
        {
          "indexed": true,
          "internalType": "uint256",
          "name": "id",
          "type": "uint256"
        },
        {
          "indexed": false,
          "internalType": "uint256",
          "name": "wad",
          "type": "uint256"
        }
      ],
      "name": "Liquidate",
      "type": "event"
    },
    {
      "anonymous": false,
      "inputs": [
        {
          "indexed": true,
          "internalType": "address",
          "name": "previousOwner",
          "type": "address"
        },
        {
          "indexed": true,
          "internalType": "address",
          "name": "newOwner",
          "type": "address"
        }
      ],
      "name": "OwnershipTransferred",
      "type": "event"
    },
    {
      "anonymous": false,
      "inputs": [
        {
          "indexed": true,
          "internalType": "address",
          "name": "caller",
          "type": "address"
        },
        {
          "indexed": false,
          "internalType": "uint256",
          "name": "reward",
          "type": "uint256"
        },
        {
          "indexed": false,
          "internalType": "uint256",
          "name": "bounty",
          "type": "uint256"
        }
      ],
      "name": "Reinvest",
      "type": "event"
    },
    {
      "anonymous": false,
      "inputs": [
        {
          "indexed": true,
          "internalType": "uint256",
          "name": "id",
          "type": "uint256"
        },
        {
          "indexed": false,
          "internalType": "uint256",
          "name": "share",
          "type": "uint256"
        }
      ],
      "name": "RemoveShare",
      "type": "event"
    },
    {
      "inputs": [],
      "name": "addStrat",
      "outputs": [
        {
          "internalType": "contract IStrategy",
          "name": "",
          "type": "address"
        }
      ],
      "stateMutability": "view",
      "type": "function"
    },
    {
      "inputs": [
        {
          "internalType": "uint256",
          "name": "balance",
          "type": "uint256"
        }
      ],
      "name": "balanceToShare",
      "outputs": [
        {
          "internalType": "uint256",
          "name": "",
          "type": "uint256"
        }
      ],
      "stateMutability": "view",
      "type": "function"
    },
    {
      "inputs": [],
      "name": "baseToken",
      "outputs": [
        {
          "internalType": "address",
          "name": "",
          "type": "address"
        }
      ],
      "stateMutability": "view",
      "type": "function"
    },
    {
      "inputs": [],
      "name": "cake",
      "outputs": [
        {
          "internalType": "address",
          "name": "",
          "type": "address"
        }
      ],
      "stateMutability": "view",
      "type": "function"
    },
    {
      "inputs": [],
      "name": "factory",
      "outputs": [
        {
          "internalType": "contract IPancakeFactory",
          "name": "",
          "type": "address"
        }
      ],
      "stateMutability": "view",
      "type": "function"
    },
    {
      "inputs": [],
      "name": "farmingToken",
      "outputs": [
        {
          "internalType": "address",
          "name": "",
          "type": "address"
        }
      ],
      "stateMutability": "view",
      "type": "function"
    },
    {
      "inputs": [
        {
          "internalType": "uint256",
          "name": "aIn",
          "type": "uint256"
        },
        {
          "internalType": "uint256",
          "name": "rIn",
          "type": "uint256"
        },
        {
          "internalType": "uint256",
          "name": "rOut",
          "type": "uint256"
        }
      ],
      "name": "getMktSellAmount",
      "outputs": [
        {
          "internalType": "uint256",
          "name": "",
          "type": "uint256"
        }
      ],
      "stateMutability": "pure",
      "type": "function"
    },
    {
      "inputs": [
        {
          "internalType": "uint256",
          "name": "id",
          "type": "uint256"
        }
      ],
      "name": "health",
      "outputs": [
        {
          "internalType": "uint256",
          "name": "",
          "type": "uint256"
        }
      ],
      "stateMutability": "view",
      "type": "function"
    },
    {
      "inputs": [
        {
          "internalType": "address",
          "name": "_operator",
          "type": "address"
        },
        {
          "internalType": "address",
          "name": "_baseToken",
          "type": "address"
        },
        {
          "internalType": "contract IPancakeMasterChef",
          "name": "_masterChef",
          "type": "address"
        },
        {
          "internalType": "contract IPancakeRouter02",
          "name": "_router",
          "type": "address"
        },
        {
          "internalType": "uint256",
          "name": "_pid",
          "type": "uint256"
        },
        {
          "internalType": "contract IStrategy",
          "name": "_addStrat",
          "type": "address"
        },
        {
          "internalType": "contract IStrategy",
          "name": "_liqStrat",
          "type": "address"
        },
        {
          "internalType": "uint256",
          "name": "_reinvestBountyBps",
          "type": "uint256"
        }
      ],
      "name": "initialize",
      "outputs": [],
      "stateMutability": "nonpayable",
      "type": "function"
    },
    {
      "inputs": [],
      "name": "liqStrat",
      "outputs": [
        {
          "internalType": "contract IStrategy",
          "name": "",
          "type": "address"
        }
      ],
      "stateMutability": "view",
      "type": "function"
    },
    {
      "inputs": [
        {
          "internalType": "uint256",
          "name": "id",
          "type": "uint256"
        }
      ],
      "name": "liquidate",
      "outputs": [],
      "stateMutability": "nonpayable",
      "type": "function"
    },
    {
      "inputs": [],
      "name": "lpToken",
      "outputs": [
        {
          "internalType": "contract IPancakePair",
          "name": "",
          "type": "address"
        }
      ],
      "stateMutability": "view",
      "type": "function"
    },
    {
      "inputs": [],
      "name": "masterChef",
      "outputs": [
        {
          "internalType": "contract IPancakeMasterChef",
          "name": "",
          "type": "address"
        }
      ],
      "stateMutability": "view",
      "type": "function"
    },
    {
      "inputs": [],
      "name": "maxReinvestBountyBps",
      "outputs": [
        {
          "internalType": "uint256",
          "name": "",
          "type": "uint256"
        }
      ],
      "stateMutability": "view",
      "type": "function"
    },
    {
      "inputs": [
        {
          "internalType": "address",
          "name": "",
          "type": "address"
        }
      ],
      "name": "okReinvestors",
      "outputs": [
        {
          "internalType": "bool",
          "name": "",
          "type": "bool"
        }
      ],
      "stateMutability": "view",
      "type": "function"
    },
    {
      "inputs": [
        {
          "internalType": "address",
          "name": "",
          "type": "address"
        }
      ],
      "name": "okStrats",
      "outputs": [
        {
          "internalType": "bool",
          "name": "",
          "type": "bool"
        }
      ],
      "stateMutability": "view",
      "type": "function"
    },
    {
      "inputs": [],
      "name": "operator",
      "outputs": [
        {
          "internalType": "address",
          "name": "",
          "type": "address"
        }
      ],
      "stateMutability": "view",
      "type": "function"
    },
    {
      "inputs": [],
      "name": "owner",
      "outputs": [
        {
          "internalType": "address",
          "name": "",
          "type": "address"
        }
      ],
      "stateMutability": "view",
      "type": "function"
    },
    {
      "inputs": [],
      "name": "pid",
      "outputs": [
        {
          "internalType": "uint256",
          "name": "",
          "type": "uint256"
        }
      ],
      "stateMutability": "view",
      "type": "function"
    },
    {
      "inputs": [],
      "name": "reinvest",
      "outputs": [],
      "stateMutability": "nonpayable",
      "type": "function"
    },
    {
      "inputs": [],
      "name": "reinvestBountyBps",
      "outputs": [
        {
          "internalType": "uint256",
          "name": "",
          "type": "uint256"
        }
      ],
      "stateMutability": "view",
      "type": "function"
    },
    {
      "inputs": [],
      "name": "renounceOwnership",
      "outputs": [],
      "stateMutability": "nonpayable",
      "type": "function"
    },
    {
      "inputs": [],
      "name": "router",
      "outputs": [
        {
          "internalType": "contract IPancakeRouter02",
          "name": "",
          "type": "address"
        }
      ],
      "stateMutability": "view",
      "type": "function"
    },
    {
      "inputs": [
        {
          "internalType": "contract IStrategy",
          "name": "_addStrat",
          "type": "address"
        },
        {
          "internalType": "contract IStrategy",
          "name": "_liqStrat",
          "type": "address"
        }
      ],
      "name": "setCriticalStrategies",
      "outputs": [],
      "stateMutability": "nonpayable",
      "type": "function"
    },
    {
      "inputs": [
        {
          "internalType": "uint256",
          "name": "_maxReinvestBountyBps",
          "type": "uint256"
        }
      ],
      "name": "setMaxReinvestBountyBps",
      "outputs": [],
      "stateMutability": "nonpayable",
      "type": "function"
    },
    {
      "inputs": [
        {
          "internalType": "uint256",
          "name": "_reinvestBountyBps",
          "type": "uint256"
        }
      ],
      "name": "setReinvestBountyBps",
      "outputs": [],
      "stateMutability": "nonpayable",
      "type": "function"
    },
    {
      "inputs": [
        {
          "internalType": "address[]",
          "name": "reinvestors",
          "type": "address[]"
        },
        {
          "internalType": "bool",
          "name": "isOk",
          "type": "bool"
        }
      ],
      "name": "setReinvestorOk",
      "outputs": [],
      "stateMutability": "nonpayable",
      "type": "function"
    },
    {
      "inputs": [
        {
          "internalType": "address[]",
          "name": "strats",
          "type": "address[]"
        },
        {
          "internalType": "bool",
          "name": "isOk",
          "type": "bool"
        }
      ],
      "name": "setStrategyOk",
      "outputs": [],
      "stateMutability": "nonpayable",
      "type": "function"
    },
    {
      "inputs": [
        {
          "internalType": "uint256",
          "name": "share",
          "type": "uint256"
        }
      ],
      "name": "shareToBalance",
      "outputs": [
        {
          "internalType": "uint256",
          "name": "",
          "type": "uint256"
        }
      ],
      "stateMutability": "view",
      "type": "function"
    },
    {
      "inputs": [
        {
          "internalType": "uint256",
          "name": "",
          "type": "uint256"
        }
      ],
      "name": "shares",
      "outputs": [
        {
          "internalType": "uint256",
          "name": "",
          "type": "uint256"
        }
      ],
      "stateMutability": "view",
      "type": "function"
    },
    {
      "inputs": [],
      "name": "totalShare",
      "outputs": [
        {
          "internalType": "uint256",
          "name": "",
          "type": "uint256"
        }
      ],
      "stateMutability": "view",
      "type": "function"
    },
    {
      "inputs": [
        {
          "internalType": "address",
          "name": "newOwner",
          "type": "address"
        }
      ],
      "name": "transferOwnership",
      "outputs": [],
      "stateMutability": "nonpayable",
      "type": "function"
    },
    {
      "inputs": [],
      "name": "wNative",
      "outputs": [
        {
          "internalType": "address",
          "name": "",
          "type": "address"
        }
      ],
      "stateMutability": "view",
      "type": "function"
    },
    {
      "inputs": [
        {
          "internalType": "uint256",
          "name": "id",
          "type": "uint256"
        },
        {
          "internalType": "address",
          "name": "user",
          "type": "address"
        },
        {
          "internalType": "uint256",
          "name": "debt",
          "type": "uint256"
        },
        {
          "internalType": "bytes",
          "name": "data",
          "type": "bytes"
        }
      ],
      "name": "work",
      "outputs": [],
      "stateMutability": "nonpayable",
      "type": "function"
    }
  ],
  "bytecode": "0x608060405234801561001057600080fd5b506132fa806100206000396000f3fe608060405234801561001057600080fd5b50600436106101965760003560e01c8063026c42071461019b5780631363bdd3146101b55780631620fbd5146101d257806322058619146101f1578063239e050f1461022b5780632d68efc91461029b578063415f1240146102bf57806348db8cc4146102dc578063570ca73514610366578063575a86b21461036e578063578993991461037657806357a858fc1461037e5780635fcbd2851461039b5780636191e37b146103a3578063715018a6146103ab57806376dcb435146103b3578063783b6d60146103bb57806381955105146103d85780638da5cb5b146103f55780638fa4a940146103fd578063ad24dce71461042b578063c45a015514610433578063c55dae631461043b578063c7aa6ae714610443578063d75734c81461044b578063dce1748414610474578063e7956f211461047c578063ee148306146104ec578063f106845414610547578063f2fde38b1461054f578063f3b8912b14610575578063f887ea401461059b578063f9566431146105a3578063fdb5a03e146105c0575b600080fd5b6101a36105c8565b60408051918252519081900360200190f35b6101a3600480360360208110156101cb57600080fd5b50356105ce565b6101ef600480360360208110156101e857600080fd5b5035610693565b005b6102176004803603602081101561020757600080fd5b50356001600160a01b0316610731565b604080519115158252519081900360200190f35b6101ef6004803603604081101561024157600080fd5b810190602081018135600160201b81111561025b57600080fd5b82018360208201111561026d57600080fd5b803590602001918460208302840111600160201b8311171561028e57600080fd5b9193509150351515610746565b6102a36107fb565b604080516001600160a01b039092168252519081900360200190f35b6101ef600480360360208110156102d557600080fd5b503561080a565b6101ef600480360360808110156102f257600080fd5b8135916001600160a01b036020820135169160408201359190810190608081016060820135600160201b81111561032857600080fd5b82018360208201111561033a57600080fd5b803590602001918460018302840111600160201b8311171561035b57600080fd5b509092509050610b35565b6102a3610f63565b6102a3610f72565b6102a3610f81565b6101a36004803603602081101561039457600080fd5b5035610f90565b6102a3610fa2565b6102a3610fb1565b6101ef610fc0565b6101a3611050565b6101a3600480360360208110156103d157600080fd5b5035611056565b6101a3600480360360208110156103ee57600080fd5b503561128b565b6102a3611338565b6101ef6004803603604081101561041357600080fd5b506001600160a01b0381358116916020013516611347565b6102a36113cd565b6102a36113dc565b6102a36113eb565b6101a36113fa565b6101a36004803603606081101561046157600080fd5b5080359060208101359060400135611400565b6102a36114b5565b6101ef6004803603604081101561049257600080fd5b810190602081018135600160201b8111156104ac57600080fd5b8201836020820111156104be57600080fd5b803590602001918460208302840111600160201b831117156104df57600080fd5b91935091503515156114c4565b6101ef600480360361010081101561050357600080fd5b506001600160a01b03813581169160208101358216916040820135811691606081013582169160808201359160a081013582169160c0820135169060e00135611572565b6101a3611a57565b6101ef6004803603602081101561056557600080fd5b50356001600160a01b0316611a5d565b6102176004803603602081101561058b57600080fd5b50356001600160a01b0316611b44565b6102a3611b59565b6101ef600480360360208110156105b957600080fd5b5035611b68565b6101ef611c06565b60d55481565b600060d554600014156105e257508061068e565b60c95460d254604080516393f1a40b60e01b8152600481019290925230602483015280516000936001600160a01b0316926393f1a40b926044808301939192829003018186803b15801561063557600080fd5b505afa158015610649573d6000803e3d6000fd5b505050506040513d604081101561065f57600080fd5b505160d55490915061068a90829061067e90869063ffffffff61239e16565b9063ffffffff61240016565b9150505b919050565b61069b61243f565b6065546001600160a01b039081169116146106eb576040805162461bcd60e51b815260206004820181905260248201526000805160206131d6833981519152604482015290519081900360640190fd5b60d95481111561072c5760405162461bcd60e51b815260040180806020018281038252605a8152602001806130bd605a913960600191505060405180910390fd5b60d855565b60da6020526000908152604090205460ff1681565b61074e61243f565b6065546001600160a01b0390811691161461079e576040805162461bcd60e51b815260206004820181905260248201526000805160206131d6833981519152604482015290519081900360640190fd5b8160005b818110156107f4578260da60008787858181106107bb57fe5b602090810292909201356001600160a01b0316835250810191909152604001600020805460ff19169115159190911790556001016107a2565b5050505050565b60cd546001600160a01b031681565b60d1546001600160a01b031633146108535760405162461bcd60e51b815260040180806020018281038252602e815260200180613187602e913960400191505060405180910390fd5b60975460ff16610898576040805162461bcd60e51b815260206004820152601f6024820152600080516020612fc2833981519152604482015290519081900360640190fd5b6097805460ff191690556108ab81612443565b60cc5460d754604080516370a0823160e01b815230600482015290516001600160a01b039384169363a9059cbb93169184916370a0823191602480820192602092909190829003018186803b15801561090357600080fd5b505afa158015610917573d6000803e3d6000fd5b505050506040513d602081101561092d57600080fd5b5051604080516001600160e01b031960e086901b1681526001600160a01b03909316600484015260248301919091525160448083019260209291908290030181600087803b15801561097e57600080fd5b505af1158015610992573d6000803e3d6000fd5b505050506040513d60208110156109a857600080fd5b505060d75460ce5460cf54604080516001600160a01b0393841660208281019190915292841681830152600060608083018290528351808403820181526080840194859052635b0e93fb60e11b9094526084830182815260a4840183905260c48401918252845160e48501528451969097169663b61d27f696929586959491936101049092019190850190808383895b83811015610a50578181015183820152602001610a38565b50505050905090810190601f168015610a7d5780820380516001836020036101000a031916815260200191505b50945050505050600060405180830381600087803b158015610a9e57600080fd5b505af1158015610ab2573d6000803e3d6000fd5b505060ce5460009250610ace91506001600160a01b0316612539565b60ce54909150610aee906001600160a01b0316338363ffffffff6125b516565b60408051828152905183917f253e5385159062a101837d58c10ad4694c58979ebc3ba6b5cb2cbba2fe461692919081900360200190a250506097805460ff19166001179055565b60d1546001600160a01b03163314610b7e5760405162461bcd60e51b815260040180806020018281038252602e815260200180613187602e913960400191505060405180910390fd5b60975460ff16610bc3576040805162461bcd60e51b815260206004820152601f6024820152600080516020612fc2833981519152604482015290519081900360640190fd5b6097805460ff19169055610bd685612443565b6000606083836040811015610bea57600080fd5b6001600160a01b038235169190810190604081016020820135600160201b811115610c1457600080fd5b820183602082011115610c2657600080fd5b803590602001918460018302840111600160201b83111715610c4757600080fd5b91908080601f01602080910402602001604051908101604052809392919081815260200183838082843760009201829052506001600160a01b038916815260d460205260409020549799509297505060ff9095169450610cdd93505050505760405162461bcd60e51b8152600401808060200182810382526032815260200180612fe26032913960400191505060405180910390fd5b60cc54604080516370a0823160e01b815230600482015290516001600160a01b039092169163a9059cbb91859184916370a08231916024808301926020929190829003018186803b158015610d3157600080fd5b505afa158015610d45573d6000803e3d6000fd5b505050506040513d6020811015610d5b57600080fd5b5051604080516001600160e01b031960e086901b1681526001600160a01b03909316600484015260248301919091525160448083019260209291908290030181600087803b158015610dac57600080fd5b505af1158015610dc0573d6000803e3d6000fd5b505050506040513d6020811015610dd657600080fd5b5051610e135760405162461bcd60e51b81526004018080602001828103825260388152602001806131176038913960400191505060405180910390fd5b60ce54610e47908390610e2e906001600160a01b0316612539565b60ce546001600160a01b0316919063ffffffff6125b516565b816001600160a01b031663b61d27f68787846040518463ffffffff1660e01b815260040180846001600160a01b03166001600160a01b0316815260200183815260200180602001828103825283818151815260200191508051906020019080838360005b83811015610ec3578181015183820152602001610eab565b50505050905090810190601f168015610ef05780820380516001836020036101000a031916815260200191505b50945050505050600060405180830381600087803b158015610f1157600080fd5b505af1158015610f25573d6000803e3d6000fd5b50505050610f3287612708565b60ce54610f4d903390610e2e906001600160a01b0316612539565b50506097805460ff191660011790555050505050565b60d1546001600160a01b031681565b60c9546001600160a01b031681565b60d6546001600160a01b031681565b60d36020526000908152604090205481565b60cc546001600160a01b031681565b60d7546001600160a01b031681565b610fc861243f565b6065546001600160a01b03908116911614611018576040805162461bcd60e51b815260206004820181905260248201526000805160206131d6833981519152604482015290519081900360640190fd5b6065546040516000916001600160a01b0316906000805160206131f6833981519152908390a3606580546001600160a01b0319169055565b60d95481565b600081815260d3602052604081205481906110709061128b565b9050600060cc60009054906101000a90046001600160a01b03166001600160a01b03166318160ddd6040518163ffffffff1660e01b815260040160206040518083038186803b1580156110c257600080fd5b505afa1580156110d6573d6000803e3d6000fd5b505050506040513d60208110156110ec57600080fd5b505160cc5460408051630240bc6b60e21b8152905192935060009283926001600160a01b031691630902f1ac916004808301926060929190829003018186803b15801561113857600080fd5b505afa15801561114c573d6000803e3d6000fd5b505050506040513d606081101561116257600080fd5b50805160209182015160ce5460cc5460408051630dfe168160e01b815290516001600160701b03958616985094909316955060009485946001600160a01b03938416949390921692630dfe16819260048083019392829003018186803b1580156111cb57600080fd5b505afa1580156111df573d6000803e3d6000fd5b505050506040513d60208110156111f557600080fd5b50516001600160a01b03161461120c57828461120f565b83835b9092509050600061122a8661067e898663ffffffff61239e16565b905060006112428761067e8a8663ffffffff61239e16565b905061127d826112718361125c878263ffffffff6128cc16565b61126c898863ffffffff6128cc16565b611400565b9063ffffffff61290e16565b9a9950505050505050505050565b600060d5546000141561129f57508061068e565b60c95460d254604080516393f1a40b60e01b8152600481019290925230602483015280516000936001600160a01b0316926393f1a40b926044808301939192829003018186803b1580156112f257600080fd5b505afa158015611306573d6000803e3d6000fd5b505050506040513d604081101561131c57600080fd5b505160d55490915061068a9061067e858463ffffffff61239e16565b6065546001600160a01b031690565b61134f61243f565b6065546001600160a01b0390811691161461139f576040805162461bcd60e51b815260206004820181905260248201526000805160206131d6833981519152604482015290519081900360640190fd5b60d680546001600160a01b039384166001600160a01b03199182161790915560d78054929093169116179055565b60cf546001600160a01b031681565b60ca546001600160a01b031681565b60ce546001600160a01b031681565b60d85481565b60008361140f575060006114ae565b60008311801561141f5750600082115b61145a5760405162461bcd60e51b815260040180806020018281038252603881526020018061314f6038913960400191505060405180910390fd5b600061146e856103e663ffffffff61239e16565b90506000611482828563ffffffff61239e16565b9050600061149c83611271886103e863ffffffff61239e16565b90508082816114a757fe5b0493505050505b9392505050565b60d0546001600160a01b031681565b6114cc61243f565b6065546001600160a01b0390811691161461151c576040805162461bcd60e51b815260206004820181905260248201526000805160206131d6833981519152604482015290519081900360640190fd5b8160005b818110156107f4578260d4600087878581811061153957fe5b602090810292909201356001600160a01b0316835250810191909152604001600020805460ff1916911515919091179055600101611520565b600054610100900460ff168061158b575061158b612966565b80611599575060005460ff16155b6115d45760405162461bcd60e51b815260040180806020018281038252602e815260200180613216602e913960400191505060405180910390fd5b600054610100900460ff161580156115ff576000805460ff1961ff0019909116610100171660011790555b61160761296c565b61160f612a1e565b60d180546001600160a01b03808c166001600160a01b03199283161790925560ce80548b84169216919091179055604080516315ab88c960e31b815290519188169163ad5c464891600480820192602092909190829003018186803b15801561167757600080fd5b505afa15801561168b573d6000803e3d6000fd5b505050506040513d60208110156116a157600080fd5b505160cd80546001600160a01b03199081166001600160a01b039384161790915560c9805482168a841617905560cb805490911691881691821790556040805163c45a015560e01b8152905163c45a015591600481810192602092909190829003018186803b15801561171357600080fd5b505afa158015611727573d6000803e3d6000fd5b505050506040513d602081101561173d57600080fd5b505160ca80546001600160a01b0319166001600160a01b0392831617905560d286905560c95460408051631526fe2760e01b81526004810189905290516000939290921691631526fe2791602480820192608092909190829003018186803b1580156117a857600080fd5b505afa1580156117bc573d6000803e3d6000fd5b505050506040513d60808110156117d257600080fd5b505160cc80546001600160a01b0319166001600160a01b03808416919091179182905560408051630dfe168160e01b815290519394506000939290911691630dfe168191600480820192602092909190829003018186803b15801561183657600080fd5b505afa15801561184a573d6000803e3d6000fd5b505050506040513d602081101561186057600080fd5b505160cc546040805163d21220a760e01b815290519293506000926001600160a01b039092169163d21220a791600480820192602092909190829003018186803b1580156118ad57600080fd5b505afa1580156118c1573d6000803e3d6000fd5b505050506040513d60208110156118d757600080fd5b505160ce549091506001600160a01b038381169116146118f757816118f9565b805b60cf80546001600160a01b0319166001600160a01b0392831617905560c954604080516337385d2160e21b81529051919092169163dce17484916004808301926020929190829003018186803b15801561195257600080fd5b505afa158015611966573d6000803e3d6000fd5b505050506040513d602081101561197c57600080fd5b505160d080546001600160a01b03199081166001600160a01b039384161790915560d6805482168a8416179081905560d780549092168984161782558216600090815260d46020526040808220805460ff1990811660019081179092559354909416825290208054909116909117905560d88590556101f460d9819055851115611a375760405162461bcd60e51b815260040180806020018281038252604f815260200180613244604f913960600191505060405180910390fd5b5050508015611a4c576000805461ff00191690555b505050505050505050565b60d25481565b611a6561243f565b6065546001600160a01b03908116911614611ab5576040805162461bcd60e51b815260206004820181905260248201526000805160206131d6833981519152604482015290519081900360640190fd5b6001600160a01b038116611afa5760405162461bcd60e51b81526004018080602001828103825260268152602001806130386026913960400191505060405180910390fd5b6065546040516001600160a01b038084169216906000805160206131f683398151915290600090a3606580546001600160a01b0319166001600160a01b0392909216919091179055565b60d46020526000908152604090205460ff1681565b60cb546001600160a01b031681565b611b7061243f565b6065546001600160a01b03908116911614611bc0576040805162461bcd60e51b815260206004820181905260248201526000805160206131d6833981519152604482015290519081900360640190fd5b60d854811015611c015760405162461bcd60e51b815260040180806020018281038252605f81526020018061305e605f913960600191505060405180910390fd5b60d955565b333214611c445760405162461bcd60e51b81526004018080602001828103825260248152602001806130146024913960400191505060405180910390fd5b33600090815260da602052604090205460ff16611c925760405162461bcd60e51b81526004018080602001828103825260328152602001806132936032913960400191505060405180910390fd5b60975460ff16611cd7576040805162461bcd60e51b815260206004820152601f6024820152600080516020612fc2833981519152604482015290519081900360640190fd5b6097805460ff1916905560cb5460d054611d06916001600160a01b03918216911660001963ffffffff612ab316565b60c95460cc54611d2b916001600160a01b03918216911660001963ffffffff612ab316565b60c95460d25460408051630441a3e760e41b8152600481019290925260006024830181905290516001600160a01b039093169263441a3e7092604480820193929182900301818387803b158015611d8157600080fd5b505af1158015611d95573d6000803e3d6000fd5b505060d05460009250611db891506001600160a01b03163063ffffffff612c0516565b905080611dc5575061238f565b6000612710611ddf60d8548461239e90919063ffffffff16565b81611de657fe5b0490508015611e0c5760d054611e0c906001600160a01b0316338363ffffffff6125b516565b60cd5460ce546060916001600160a01b0391821691161415611eb2576040805160028082526060820183529091602083019080368337505060d05482519293506001600160a01b031691839150600090611e6257fe5b6001600160a01b03928316602091820292909201015260cd54825191169082906001908110611e8d57fe5b60200260200101906001600160a01b031690816001600160a01b031681525050611f64565b604080516003808252608082019092529060208201606080368337505060d05482519293506001600160a01b031691839150600090611eed57fe5b6001600160a01b03928316602091820292909201015260cd54825191169082906001908110611f1857fe5b6001600160a01b03928316602091820292909201015260ce54825191169082906002908110611f4357fe5b60200260200101906001600160a01b031690816001600160a01b0316815250505b60cb546001600160a01b03166338ed1739611f85858563ffffffff6128cc16565b60008430426040518663ffffffff1660e01b81526004018086815260200185815260200180602001846001600160a01b03166001600160a01b03168152602001838152602001828103825285818151815260200191508051906020019060200280838360005b83811015612003578181015183820152602001611feb565b505050509050019650505050505050600060405180830381600087803b15801561202c57600080fd5b505af1158015612040573d6000803e3d6000fd5b505050506040513d6000823e601f3d908101601f19168201604052602081101561206957600080fd5b8101908080516040519392919084600160201b82111561208857600080fd5b90830190602082018581111561209d57600080fd5b82518660208202830111600160201b821117156120b957600080fd5b82525081516020918201928201910280838360005b838110156120e65781810151838201526020016120ce565b5050505091909101604052505060d65460ce5461211694506001600160a01b039182169350610e2e925016612539565b60d65460ce5460cf54604080516001600160a01b0393841660208083019190915292841681830152600060608083018290528351808403820181526080840194859052635b0e93fb60e11b9094526084830182815260a4840183905260c48401918252845160e48501528451969097169663b61d27f696929586959491936101049092019190850190808383895b838110156121bc5781810151838201526020016121a4565b50505050905090810190601f1680156121e95780820380516001836020036101000a031916815260200191505b50945050505050600060405180830381600087803b15801561220a57600080fd5b505af115801561221e573d6000803e3d6000fd5b505060c95460d25460cc54604080516370a0823160e01b815230600482015290516001600160a01b03948516965063e2bbb15895509293909116916370a0823191602480820192602092909190829003018186803b15801561227f57600080fd5b505afa158015612293573d6000803e3d6000fd5b505050506040513d60208110156122a957600080fd5b5051604080516001600160e01b031960e086901b1681526004810193909352602483019190915251604480830192600092919082900301818387803b1580156122f157600080fd5b505af1158015612305573d6000803e3d6000fd5b505060cb5460d05461232d93506001600160a01b03908116925016600063ffffffff612ab316565b60c95460cc54612351916001600160a01b039182169116600063ffffffff612ab316565b6040805184815260208101849052815133927fc003f45bc224d116b6d079100d4ab57a5b9633244c47a5a92a176c5b79a85f28928290030190a25050505b6097805460ff19166001179055565b6000826123ad575060006123fa565b828202828482816123ba57fe5b04146123f75760405162461bcd60e51b81526004018080602001828103825260218152602001806131b56021913960400191505060405180910390fd5b90505b92915050565b60006123f783836040518060400160405280601a815260200179536166654d6174683a206469766973696f6e206279207a65726f60301b815250612c90565b3390565b600081815260d3602052604090205480156125355760006124638261128b565b60c95460d25460408051630441a3e760e41b8152600481019290925260248201849052519293506001600160a01b039091169163441a3e709160448082019260009290919082900301818387803b1580156124bd57600080fd5b505af11580156124d1573d6000803e3d6000fd5b505060d5546124e9925090508363ffffffff6128cc16565b60d555600083815260d360209081526040808320929092558151848152915185927fca07b1e9ff462c1feca0fa258869d03f3657c3a02eaceed810db4f58848856dc92908290030190a2505b5050565b604080516370a0823160e01b815230600482015290516000916001600160a01b038416916370a0823191602480820192602092909190829003018186803b15801561258357600080fd5b505afa158015612597573d6000803e3d6000fd5b505050506040513d60208110156125ad57600080fd5b505192915050565b604080516001600160a01b038481166024830152604480830185905283518084039091018152606490920183526020820180516001600160e01b031663a9059cbb60e01b178152925182516000946060949389169392918291908083835b602083106126325780518252601f199092019160209182019101612613565b6001836020036101000a0380198251168184511680821785525050505050509050019150506000604051808303816000865af19150503d8060008114612694576040519150601f19603f3d011682016040523d82523d6000602084013e612699565b606091505b50915091508180156126c75750805115806126c757508080602001905160208110156126c457600080fd5b50515b6107f4576040805162461bcd60e51b815260206004820152600d60248201526c10b9b0b332aa3930b739b332b960991b604482015290519081900360640190fd5b60cc54604080516370a0823160e01b815230600482015290516000926001600160a01b0316916370a08231916024808301926020929190829003018186803b15801561275357600080fd5b505afa158015612767573d6000803e3d6000fd5b505050506040513d602081101561277d57600080fd5b5051905080156125355760c95460cc546127ac916001600160a01b03918216911660001963ffffffff612ab316565b60006127b7826105ce565b60c95460d25460408051631c57762b60e31b8152600481019290925260248201869052519293506001600160a01b039091169163e2bbb1589160448082019260009290919082900301818387803b15801561281157600080fd5b505af1158015612825573d6000803e3d6000fd5b505050600084815260d3602052604090205461284891508263ffffffff61290e16565b600084815260d3602052604090205560d55461286a908263ffffffff61290e16565b60d55560c95460cc54612891916001600160a01b039182169116600063ffffffff612ab316565b60408051828152905184917fdbdb2d65c9e75a246e9a50307e793774f5ad8d986766a102b8a0eacb58208da2919081900360200190a2505050565b60006123f783836040518060400160405280601e81526020017f536166654d6174683a207375627472616374696f6e206f766572666c6f770000815250612d32565b6000828201838110156123f7576040805162461bcd60e51b815260206004820152601b60248201527a536166654d6174683a206164646974696f6e206f766572666c6f7760281b604482015290519081900360640190fd5b303b1590565b600054610100900460ff16806129855750612985612966565b80612993575060005460ff16155b6129ce5760405162461bcd60e51b815260040180806020018281038252602e815260200180613216602e913960400191505060405180910390fd5b600054610100900460ff161580156129f9576000805460ff1961ff0019909116610100171660011790555b612a01612d8c565b612a09612e2c565b8015612a1b576000805461ff00191690555b50565b600054610100900460ff1680612a375750612a37612966565b80612a45575060005460ff16155b612a805760405162461bcd60e51b815260040180806020018281038252602e815260200180613216602e913960400191505060405180910390fd5b600054610100900460ff16158015612aab576000805460ff1961ff0019909116610100171660011790555b612a09612f13565b604080516001600160a01b038481166024830152604480830185905283518084039091018152606490920183526020820180516001600160e01b031663095ea7b360e01b178152925182516000946060949389169392918291908083835b60208310612b305780518252601f199092019160209182019101612b11565b6001836020036101000a0380198251168184511680821785525050505050509050019150506000604051808303816000865af19150503d8060008114612b92576040519150601f19603f3d011682016040523d82523d6000602084013e612b97565b606091505b5091509150818015612bc5575080511580612bc55750808060200190516020811015612bc257600080fd5b50515b6107f4576040805162461bcd60e51b815260206004820152600c60248201526b2173616665417070726f766560a01b604482015290519081900360640190fd5b6000826001600160a01b03166370a08231836040518263ffffffff1660e01b815260040180826001600160a01b03166001600160a01b0316815260200191505060206040518083038186803b158015612c5d57600080fd5b505afa158015612c71573d6000803e3d6000fd5b505050506040513d6020811015612c8757600080fd5b50519392505050565b60008183612d1c5760405162461bcd60e51b81526004018080602001828103825283818151815260200191508051906020019080838360005b83811015612ce1578181015183820152602001612cc9565b50505050905090810190601f168015612d0e5780820380516001836020036101000a031916815260200191505b509250505060405180910390fd5b506000838581612d2857fe5b0495945050505050565b60008184841115612d845760405162461bcd60e51b8152602060048201818152835160248401528351909283926044909101919085019080838360008315612ce1578181015183820152602001612cc9565b505050900390565b600054610100900460ff1680612da55750612da5612966565b80612db3575060005460ff16155b612dee5760405162461bcd60e51b815260040180806020018281038252602e815260200180613216602e913960400191505060405180910390fd5b600054610100900460ff16158015612a09576000805460ff1961ff0019909116610100171660011790558015612a1b576000805461ff001916905550565b600054610100900460ff1680612e455750612e45612966565b80612e53575060005460ff16155b612e8e5760405162461bcd60e51b815260040180806020018281038252602e815260200180613216602e913960400191505060405180910390fd5b600054610100900460ff16158015612eb9576000805460ff1961ff0019909116610100171660011790555b6000612ec361243f565b606580546001600160a01b0319166001600160a01b038316908117909155604051919250906000906000805160206131f6833981519152908290a3508015612a1b576000805461ff001916905550565b600054610100900460ff1680612f2c5750612f2c612966565b80612f3a575060005460ff16155b612f755760405162461bcd60e51b815260040180806020018281038252602e815260200180613216602e913960400191505060405180910390fd5b600054610100900460ff16158015612fa0576000805460ff1961ff0019909116610100171660011790555b6097805460ff191660011790558015612a1b576000805461ff00191690555056fe5265656e7472616e637947756172643a207265656e7472616e742063616c6c0050616e63616b6573776170576f726b65723a3a776f726b3a3a20756e617070726f76656420776f726b20737472617465677950616e63616b6573776170576f726b65723a3a6f6e6c79454f413a3a206e6f7420656f614f776e61626c653a206e6577206f776e657220697320746865207a65726f206164647265737350616e63616b6573776170576f726b65723a3a7365744d61785265696e76657374426f756e74794270733a3a205f6d61785265696e76657374426f756e7479427073206c6f776572207468616e207265696e76657374426f756e747942707350616e63616b6573776170576f726b65723a3a7365745265696e76657374426f756e74794270733a3a205f7265696e76657374426f756e7479427073206578636565646564206d61785265696e76657374426f756e747942707350616e63616b6573776170576f726b65723a3a776f726b3a3a20756e61626c6520746f207472616e73666572206c7020746f20737472617450616e63616b6573776170576f726b65723a3a6765744d6b7453656c6c416d6f756e743a3a2062616420726573657276652076616c75657350616e63616b6573776170576f726b65723a3a6f6e6c794f70657261746f723a3a206e6f74206f70657261746f72536166654d6174683a206d756c7469706c69636174696f6e206f766572666c6f774f776e61626c653a2063616c6c6572206973206e6f7420746865206f776e65728be0079c531659141344cd1fd0a4f28419497f9722a3daafe3b4186f6b6457e0436f6e747261637420696e7374616e63652068617320616c7265616479206265656e20696e697469616c697a656450616e63616b6573776170576f726b65723a3a696e697469616c697a653a3a207265696e76657374426f756e7479427073206578636565646564206d61785265696e76657374426f756e747942707350616e63616b6573776170576f726b65723a3a6f6e6c795265696e766573746f723a3a206e6f74207265696e766573746f72a2646970667358221220d534d2aedaa9b935ee593f2bfddcd94bb520343281ea0d3eec117a783f61742f64736f6c63430006060033",
  "linkReferences": {},
  "deployedLinkReferences": {}
}