{
  "_format": "hh-sol-artifact-1",
  "contractName": "OracleMedianizer",
  "sourceName": "contracts/6/protocol/OracleMedianizer.sol",
  "abi": [
    {
      "anonymous": false,
      "inputs": [
        {
          "indexed": true,
          "internalType": "address",
          "name": "previousOwner",
          "type": "address"
        },
        {
          "indexed": true,
          "internalType": "address",
          "name": "newOwner",
          "type": "address"
        }
      ],
      "name": "OwnershipTransferred",
      "type": "event"
    },
    {
      "anonymous": false,
      "inputs": [
        {
          "indexed": true,
          "internalType": "address",
          "name": "token0",
          "type": "address"
        },
        {
          "indexed": true,
          "internalType": "address",
          "name": "token1",
          "type": "address"
        },
        {
          "indexed": false,
          "internalType": "uint256",
          "name": "maxPriceDeviation",
          "type": "uint256"
        },
        {
          "indexed": false,
          "internalType": "uint256",
          "name": "maxPriceStale",
          "type": "uint256"
        },
        {
          "indexed": false,
          "internalType": "contract PriceOracle[]",
          "name": "oracles",
          "type": "address[]"
        }
      ],
      "name": "SetPrimarySources",
      "type": "event"
    },
    {
      "inputs": [],
      "name": "MAX_PRICE_DEVIATION",
      "outputs": [
        {
          "internalType": "uint256",
          "name": "",
          "type": "uint256"
        }
      ],
      "stateMutability": "view",
      "type": "function"
    },
    {
      "inputs": [],
      "name": "MIN_PRICE_DEVIATION",
      "outputs": [
        {
          "internalType": "uint256",
          "name": "",
          "type": "uint256"
        }
      ],
      "stateMutability": "view",
      "type": "function"
    },
    {
      "inputs": [
        {
          "internalType": "address",
          "name": "token0",
          "type": "address"
        },
        {
          "internalType": "address",
          "name": "token1",
          "type": "address"
        }
      ],
      "name": "getPrice",
      "outputs": [
        {
          "internalType": "uint256",
          "name": "",
          "type": "uint256"
        },
        {
          "internalType": "uint256",
          "name": "",
          "type": "uint256"
        }
      ],
      "stateMutability": "view",
      "type": "function"
    },
    {
      "inputs": [],
      "name": "initialize",
      "outputs": [],
      "stateMutability": "nonpayable",
      "type": "function"
    },
    {
      "inputs": [
        {
          "internalType": "address",
          "name": "",
          "type": "address"
        },
        {
          "internalType": "address",
          "name": "",
          "type": "address"
        }
      ],
      "name": "maxPriceDeviations",
      "outputs": [
        {
          "internalType": "uint256",
          "name": "",
          "type": "uint256"
        }
      ],
      "stateMutability": "view",
      "type": "function"
    },
    {
      "inputs": [
        {
          "internalType": "address",
          "name": "",
          "type": "address"
        },
        {
          "internalType": "address",
          "name": "",
          "type": "address"
        }
      ],
      "name": "maxPriceStales",
      "outputs": [
        {
          "internalType": "uint256",
          "name": "",
          "type": "uint256"
        }
      ],
      "stateMutability": "view",
      "type": "function"
    },
    {
      "inputs": [],
      "name": "owner",
      "outputs": [
        {
          "internalType": "address",
          "name": "",
          "type": "address"
        }
      ],
      "stateMutability": "view",
      "type": "function"
    },
    {
      "inputs": [
        {
          "internalType": "address",
          "name": "",
          "type": "address"
        },
        {
          "internalType": "address",
          "name": "",
          "type": "address"
        }
      ],
      "name": "primarySourceCount",
      "outputs": [
        {
          "internalType": "uint256",
          "name": "",
          "type": "uint256"
        }
      ],
      "stateMutability": "view",
      "type": "function"
    },
    {
      "inputs": [
        {
          "internalType": "address",
          "name": "",
          "type": "address"
        },
        {
          "internalType": "address",
          "name": "",
          "type": "address"
        },
        {
          "internalType": "uint256",
          "name": "",
          "type": "uint256"
        }
      ],
      "name": "primarySources",
      "outputs": [
        {
          "internalType": "contract PriceOracle",
          "name": "",
          "type": "address"
        }
      ],
      "stateMutability": "view",
      "type": "function"
    },
    {
      "inputs": [],
      "name": "renounceOwnership",
      "outputs": [],
      "stateMutability": "nonpayable",
      "type": "function"
    },
    {
      "inputs": [
        {
          "internalType": "address[]",
          "name": "token0s",
          "type": "address[]"
        },
        {
          "internalType": "address[]",
          "name": "token1s",
          "type": "address[]"
        },
        {
          "internalType": "uint256[]",
          "name": "maxPriceDeviationList",
          "type": "uint256[]"
        },
        {
          "internalType": "uint256[]",
          "name": "maxPriceStaleList",
          "type": "uint256[]"
        },
        {
          "internalType": "contract PriceOracle[][]",
          "name": "allSources",
          "type": "address[][]"
        }
      ],
      "name": "setMultiPrimarySources",
      "outputs": [],
      "stateMutability": "nonpayable",
      "type": "function"
    },
    {
      "inputs": [
        {
          "internalType": "address",
          "name": "token0",
          "type": "address"
        },
        {
          "internalType": "address",
          "name": "token1",
          "type": "address"
        },
        {
          "internalType": "uint256",
          "name": "maxPriceDeviation",
          "type": "uint256"
        },
        {
          "internalType": "uint256",
          "name": "maxPriceStale",
          "type": "uint256"
        },
        {
          "internalType": "contract PriceOracle[]",
          "name": "sources",
          "type": "address[]"
        }
      ],
      "name": "setPrimarySources",
      "outputs": [],
      "stateMutability": "nonpayable",
      "type": "function"
    },
    {
      "inputs": [
        {
          "internalType": "address",
          "name": "newOwner",
          "type": "address"
        }
      ],
      "name": "transferOwnership",
      "outputs": [],
      "stateMutability": "nonpayable",
      "type": "function"
    }
  ],
  "bytecode": "0x608060405234801561001057600080fd5b50611641806100206000396000f3fe608060405234801561001057600080fd5b50600436106100af5760003560e01c806321b1d0e7146100b457806352d2385b146100dd5780636e96c739146100f2578063715018a6146101055780638129fc1c1461010d57806384214017146101155780638da5cb5b1461012a57806396f277b714610132578063a9db231c1461013a578063ac41865a1461014d578063baecafc31461016e578063dbd18a4914610181578063f2fde38b14610194575b600080fd5b6100c76100c2366004610f89565b6101a7565b6040516100d4919061114c565b60405180910390f35b6100f06100eb366004610fc9565b6101d3565b005b6100f0610100366004611040565b610259565b6100f06103ae565b6100f061041b565b61011d6104a6565b6040516100d491906114b8565b6100c76104b2565b61011d6104c1565b61011d610148366004610f55565b6104cd565b61016061015b366004610f55565b6104ea565b6040516100d49291906114c1565b61011d61017c366004610f55565b610504565b61011d61018f366004610f55565b610521565b6100f06101a2366004610f3a565b61053e565b60986020908152600093845260408085208252928452828420905282529020546001600160a01b031681565b6101db6105e3565b6065546001600160a01b039081169116146102115760405162461bcd60e51b815260040161020890611363565b60405180910390fd5b610251868686868686808060200260200160405190810160405280939291908181526020018383602002808284376000920191909152506105e792505050565b505050505050565b6102616105e3565b6065546001600160a01b0390811691161461028e5760405162461bcd60e51b815260040161020890611363565b888714801561029c57508881145b80156102a757508885145b80156102b257508883145b6102ce5760405162461bcd60e51b8152600401610208906112c5565b60005b898110156103a1576103998b8b838181106102e857fe5b90506020020160208101906102fd9190610f3a565b8a8a8481811061030957fe5b905060200201602081019061031e9190610f3a565b89898581811061032a57fe5b9050602002013588888681811061033d57fe5b9050602002013587878781811061035057fe5b9050602002810190610362919061152c565b808060200260200160405190810160405280939291908181526020018383602002808284376000920191909152506105e792505050565b6001016102d1565b5050505050505050505050565b6103b66105e3565b6065546001600160a01b039081169116146103e35760405162461bcd60e51b815260040161020890611363565b6065546040516000916001600160a01b0316906000805160206115cc833981519152908390a3606580546001600160a01b0319169055565b600054610100900460ff168061043457506104346107f0565b80610442575060005460ff16155b61045e5760405162461bcd60e51b815260040161020890611398565b600054610100900460ff16158015610489576000805460ff1961ff0019909116610100171660011790555b6104916107f6565b80156104a3576000805461ff00191690555b50565b670de0b6b3a764000081565b6065546001600160a01b031690565b6714d1120d7b16000081565b609a60209081526000928352604080842090915290825290205481565b6000806104f78484610874565b42915091505b9250929050565b609760209081526000928352604080842090915290825290205481565b609960209081526000928352604080842090915290825290205481565b6105466105e3565b6065546001600160a01b039081169116146105735760405162461bcd60e51b815260040161020890611363565b6001600160a01b0381166105995760405162461bcd60e51b8152600401610208906111ff565b6065546040516001600160a01b038084169216906000805160206115cc83398151915290600090a3606580546001600160a01b0319166001600160a01b0392909216919091179055565b3390565b670de0b6b3a7640000831015801561060757506714d1120d7b1600008311155b6106235760405162461bcd60e51b815260040161020890611422565b6003815111156106455760405162461bcd60e51b8152600401610208906111b4565b80516001600160a01b038087166000818152609760208181526040808420958b168085529582528084209690965586519181528583208484528152858320919091556099808252858320858452825285832089905581528482208383528152848220889055609a80825285832094835293815284822087905592835283812091815291529081208390555b8151811015610799578181815181106106e557fe5b6020908102919091018101516001600160a01b0388811660009081526098845260408082208a8416835285528082208683529094529290922080546001600160a01b03191692909116919091179055815182908290811061074257fe5b6020908102919091018101516001600160a01b0387811660009081526098845260408082208b8416835285528082208683529094529290922080546001600160a01b031916929091169190911790556001016106d0565b50836001600160a01b0316856001600160a01b03167fc996dc3511ce88243eec18acbc0aba72ead6c24ad3c330632887d2d7f814a9b48585856040516107e1939291906114cf565b60405180910390a35050505050565b303b1590565b600054610100900460ff168061080f575061080f6107f0565b8061081d575060005460ff16155b6108395760405162461bcd60e51b815260040161020890611398565b600054610100900460ff16158015610864576000805460ff1961ff0019909116610100171660011790555b61086c610d33565b610491610db4565b6001600160a01b038083166000908152609760209081526040808320938516835292905290812054806108b95760405162461bcd60e51b8152600401610208906113e6565b6060816001600160401b03811180156108d157600080fd5b506040519080825280602002602001820160405280156108fb578160200160208202803683370190505b5090506000805b83811015610a09576001600160a01b0380881660009081526098602090815260408083208a85168452825280832085845290915290819020549051635620c32d60e11b815291169063ac41865a90610960908a908a90600401611160565b604080518083038186803b15801561097757600080fd5b505afa9250505080156109a7575060408051601f3d908101601f191682019092526109a491810190611129565b60015b6109b057610a01565b6001600160a01b03808a166000908152609a60209081526040808320938c1683529290522054420381106109fe57818585806001019650815181106109f157fe5b6020026020010181815250505b50505b600101610902565b5060008111610a2a5760405162461bcd60e51b81526004016102089061117a565b60005b60018203811015610ae75760005b600182840303811015610ade57838160010181518110610a5757fe5b6020026020010151848281518110610a6b57fe5b60200260200101511115610ad657838160010181518110610a8857fe5b6020026020010151848281518110610a9c57fe5b6020026020010151858381518110610ab057fe5b60200260200101868460010181518110610ac657fe5b6020908102919091010191909152525b600101610a3b565b50600101610a2d565b506001600160a01b038087166000908152609960209081526040808320938916835292905220546001821415610b375782600081518110610b2457fe5b6020026020010151945050505050610d2d565b8160021415610bfb578083600081518110610b4e57fe5b6020026020010151610b85670de0b6b3a764000086600181518110610b6f57fe5b6020026020010151610e7c90919063ffffffff16565b81610b8c57fe5b041115610bab5760405162461bcd60e51b81526004016102089061146d565b6002610be884600181518110610bbd57fe5b602002602001015185600081518110610bd257fe5b6020026020010151610ebd90919063ffffffff16565b81610bef57fe5b04945050505050610d2d565b60008184600081518110610c0b57fe5b6020026020010151610c2c670de0b6b3a764000087600181518110610b6f57fe5b81610c3357fe5b041115905060008285600181518110610c4857fe5b6020026020010151610c69670de0b6b3a764000088600281518110610b6f57fe5b81610c7057fe5b0411159050818015610c7f5750805b15610ca65784600181518110610c9157fe5b60200260200101519650505050505050610d2d565b8115610ce8576002610cd386600181518110610cbe57fe5b602002602001015187600081518110610bd257fe5b81610cda57fe5b049650505050505050610d2d565b8015610d15576002610cd386600281518110610d0057fe5b602002602001015187600181518110610bd257fe5b60405162461bcd60e51b81526004016102089061127a565b92915050565b600054610100900460ff1680610d4c5750610d4c6107f0565b80610d5a575060005460ff16155b610d765760405162461bcd60e51b815260040161020890611398565b600054610100900460ff16158015610491576000805460ff1961ff00199091166101001716600117905580156104a3576000805461ff001916905550565b600054610100900460ff1680610dcd5750610dcd6107f0565b80610ddb575060005460ff16155b610df75760405162461bcd60e51b815260040161020890611398565b600054610100900460ff16158015610e22576000805460ff1961ff0019909116610100171660011790555b6000610e2c6105e3565b606580546001600160a01b0319166001600160a01b038316908117909155604051919250906000906000805160206115cc833981519152908290a35080156104a3576000805461ff001916905550565b600082610e8b57506000610d2d565b82820282848281610e9857fe5b0414610eb65760405162461bcd60e51b815260040161020890611322565b9392505050565b600082820183811015610eb65760405162461bcd60e51b815260040161020890611245565b80356001600160a01b0381168114610d2d57600080fd5b60008083601f840112610f0a578182fd5b5081356001600160401b03811115610f20578182fd5b60208301915083602080830285010111156104fd57600080fd5b600060208284031215610f4b578081fd5b610eb68383610ee2565b60008060408385031215610f67578081fd5b610f718484610ee2565b9150610f808460208501610ee2565b90509250929050565b600080600060608486031215610f9d578081fd5b8335610fa881611576565b92506020840135610fb881611576565b929592945050506040919091013590565b60008060008060008060a08789031215610fe1578182fd5b610feb8888610ee2565b9550610ffa8860208901610ee2565b9450604087013593506060870135925060808701356001600160401b03811115611022578283fd5b61102e89828a01610ef9565b979a9699509497509295939492505050565b60008060008060008060008060008060a08b8d03121561105e578384fd5b8a356001600160401b0380821115611074578586fd5b6110808e838f01610ef9565b909c509a5060208d0135915080821115611098578586fd5b6110a48e838f01610ef9565b909a50985060408d01359150808211156110bc578586fd5b6110c88e838f01610ef9565b909850965060608d01359150808211156110e0578586fd5b6110ec8e838f01610ef9565b909650945060808d0135915080821115611104578384fd5b506111118d828e01610ef9565b8194508093505050509295989b9194979a5092959850565b6000806040838503121561113b578182fd5b505080516020909101519092909150565b6001600160a01b0391909116815260200190565b6001600160a01b0392831681529116602082015260400190565b6020808252602c9082015260008051602061158c83398151915260408201526b76616c696420736f7572636560a01b606082015260800190565b6020808252603d908201526000805160206115ec83398151915260408201527f6365733a3a20736f7572636573206c656e677468206578636565642033000000606082015260800190565b60208082526026908201527f4f776e61626c653a206e6577206f776e657220697320746865207a65726f206160408201526564647265737360d01b606082015260800190565b6020808252601b908201527a536166654d6174683a206164646974696f6e206f766572666c6f7760281b604082015260600190565b6020808252603f908201526000805160206115ac83398151915260408201527f206d75636820646576696174696f6e20332076616c696420736f757263657300606082015260800190565b6020808252603e908201527f4f7261636c654d656469616e697a65723a3a7365744d756c74695072696d617260408201527f79536f75726365733a3a20696e636f6e73697374656e74206c656e6774680000606082015260800190565b60208082526021908201527f536166654d6174683a206d756c7469706c69636174696f6e206f766572666c6f6040820152607760f81b606082015260800190565b6020808252818101527f4f776e61626c653a2063616c6c6572206973206e6f7420746865206f776e6572604082015260600190565b6020808252602e908201527f436f6e747261637420696e7374616e63652068617320616c726561647920626560408201526d195b881a5b9a5d1a585b1a5e995960921b606082015260800190565b6020808252602e9082015260008051602061158c83398151915260408201526d7072696d61727920736f7572636560901b606082015260800190565b6020808252603d908201526000805160206115ec83398151915260408201527f6365733a3a20626164206d617820646576696174696f6e2076616c7565000000606082015260800190565b6020808252603f908201526000805160206115ac83398151915260408201527f206d75636820646576696174696f6e20322076616c696420736f757263657300606082015260800190565b90815260200190565b918252602082015260400190565b60006060820185835260208581850152606060408501528185518084526080860191508287019350845b8181101561151e5784516001600160a01b0316835293830193918301916001016114f9565b509098975050505050505050565b6000808335601e19843603018112611542578283fd5b838101803592506001600160401b0383111561155c578384fd5b60208101935050506020810236038213156104fd57600080fd5b6001600160a01b03811681146104a357600080fdfe4f7261636c654d656469616e697a65723a3a67657450726963653a3a206e6f204f7261636c654d656469616e697a65723a3a67657450726963653a3a20746f6f8be0079c531659141344cd1fd0a4f28419497f9722a3daafe3b4186f6b6457e04f7261636c654d656469616e697a65723a3a7365745072696d617279536f7572a26469706673582212207cf8b1888becaec1763ef648922cc7742baf256a0243758d3623a2c6aadef8ea64736f6c63430006060033",
  "linkReferences": {},
  "deployedLinkReferences": {}
}