{
  "_format": "hh-sol-artifact-1",
  "contractName": "SingleAssetWorkerConfig",
  "sourceName": "contracts/6/protocol/workers/SingleAssetWorkerConfig.sol",
  "abi": [
    {
      "anonymous": false,
      "inputs": [
        {
          "indexed": true,
          "internalType": "address",
          "name": "previousOwner",
          "type": "address"
        },
        {
          "indexed": true,
          "internalType": "address",
          "name": "newOwner",
          "type": "address"
        }
      ],
      "name": "OwnershipTransferred",
      "type": "event"
    },
    {
      "anonymous": false,
      "inputs": [
        {
          "indexed": true,
          "internalType": "address",
          "name": "caller",
          "type": "address"
        },
        {
          "indexed": true,
          "internalType": "address",
          "name": "worker",
          "type": "address"
        },
        {
          "indexed": false,
          "internalType": "bool",
          "name": "acceptDebt",
          "type": "bool"
        },
        {
          "indexed": false,
          "internalType": "uint64",
          "name": "workFactor",
          "type": "uint64"
        },
        {
          "indexed": false,
          "internalType": "uint64",
          "name": "killFactor",
          "type": "uint64"
        },
        {
          "indexed": false,
          "internalType": "uint64",
          "name": "maxPriceDiff",
          "type": "uint64"
        }
      ],
      "name": "SetConfig",
      "type": "event"
    },
    {
      "anonymous": false,
      "inputs": [
        {
          "indexed": true,
          "internalType": "address",
          "name": "caller",
          "type": "address"
        },
        {
          "indexed": true,
          "internalType": "address",
          "name": "governor",
          "type": "address"
        }
      ],
      "name": "SetGovernor",
      "type": "event"
    },
    {
      "anonymous": false,
      "inputs": [
        {
          "indexed": true,
          "internalType": "address",
          "name": "caller",
          "type": "address"
        },
        {
          "indexed": false,
          "internalType": "address",
          "name": "oracle",
          "type": "address"
        }
      ],
      "name": "SetOracle",
      "type": "event"
    },
    {
      "inputs": [
        {
          "internalType": "address",
          "name": "worker",
          "type": "address"
        }
      ],
      "name": "acceptDebt",
      "outputs": [
        {
          "internalType": "bool",
          "name": "",
          "type": "bool"
        }
      ],
      "stateMutability": "view",
      "type": "function"
    },
    {
      "inputs": [
        {
          "internalType": "address[]",
          "name": "addrs",
          "type": "address[]"
        },
        {
          "internalType": "bool",
          "name": "isAcceptDebt",
          "type": "bool"
        }
      ],
      "name": "emergencySetAcceptDebt",
      "outputs": [],
      "stateMutability": "nonpayable",
      "type": "function"
    },
    {
      "inputs": [],
      "name": "factory",
      "outputs": [
        {
          "internalType": "contract IPancakeFactory",
          "name": "",
          "type": "address"
        }
      ],
      "stateMutability": "view",
      "type": "function"
    },
    {
      "inputs": [],
      "name": "governor",
      "outputs": [
        {
          "internalType": "address",
          "name": "",
          "type": "address"
        }
      ],
      "stateMutability": "view",
      "type": "function"
    },
    {
      "inputs": [
        {
          "internalType": "contract PriceOracle",
          "name": "_oracle",
          "type": "address"
        },
        {
          "internalType": "contract IPancakeRouter02",
          "name": "_router",
          "type": "address"
        }
      ],
      "name": "initialize",
      "outputs": [],
      "stateMutability": "nonpayable",
      "type": "function"
    },
    {
      "inputs": [
        {
          "internalType": "address",
          "name": "_worker",
          "type": "address"
        }
      ],
      "name": "isReserveConsistent",
      "outputs": [
        {
          "internalType": "bool",
          "name": "",
          "type": "bool"
        }
      ],
      "stateMutability": "view",
      "type": "function"
    },
    {
      "inputs": [
        {
          "internalType": "address",
          "name": "_worker",
          "type": "address"
        }
      ],
      "name": "isStable",
      "outputs": [
        {
          "internalType": "bool",
          "name": "",
          "type": "bool"
        }
      ],
      "stateMutability": "view",
      "type": "function"
    },
    {
      "inputs": [
        {
          "internalType": "address",
          "name": "worker",
          "type": "address"
        },
        {
          "internalType": "uint256",
          "name": "",
          "type": "uint256"
        }
      ],
      "name": "killFactor",
      "outputs": [
        {
          "internalType": "uint256",
          "name": "",
          "type": "uint256"
        }
      ],
      "stateMutability": "view",
      "type": "function"
    },
    {
      "inputs": [],
      "name": "oracle",
      "outputs": [
        {
          "internalType": "contract PriceOracle",
          "name": "",
          "type": "address"
        }
      ],
      "stateMutability": "view",
      "type": "function"
    },
    {
      "inputs": [],
      "name": "owner",
      "outputs": [
        {
          "internalType": "address",
          "name": "",
          "type": "address"
        }
      ],
      "stateMutability": "view",
      "type": "function"
    },
    {
      "inputs": [
        {
          "internalType": "address",
          "name": "worker",
          "type": "address"
        },
        {
          "internalType": "uint256",
          "name": "",
          "type": "uint256"
        }
      ],
      "name": "rawKillFactor",
      "outputs": [
        {
          "internalType": "uint256",
          "name": "",
          "type": "uint256"
        }
      ],
      "stateMutability": "view",
      "type": "function"
    },
    {
      "inputs": [],
      "name": "renounceOwnership",
      "outputs": [],
      "stateMutability": "nonpayable",
      "type": "function"
    },
    {
      "inputs": [
        {
          "internalType": "address[]",
          "name": "addrs",
          "type": "address[]"
        },
        {
          "components": [
            {
              "internalType": "bool",
              "name": "acceptDebt",
              "type": "bool"
            },
            {
              "internalType": "uint64",
              "name": "workFactor",
              "type": "uint64"
            },
            {
              "internalType": "uint64",
              "name": "killFactor",
              "type": "uint64"
            },
            {
              "internalType": "uint64",
              "name": "maxPriceDiff",
              "type": "uint64"
            }
          ],
          "internalType": "struct SingleAssetWorkerConfig.Config[]",
          "name": "configs",
          "type": "tuple[]"
        }
      ],
      "name": "setConfigs",
      "outputs": [],
      "stateMutability": "nonpayable",
      "type": "function"
    },
    {
      "inputs": [
        {
          "internalType": "address",
          "name": "newGovernor",
          "type": "address"
        }
      ],
      "name": "setGovernor",
      "outputs": [],
      "stateMutability": "nonpayable",
      "type": "function"
    },
    {
      "inputs": [
        {
          "internalType": "contract PriceOracle",
          "name": "_oracle",
          "type": "address"
        }
      ],
      "name": "setOracle",
      "outputs": [],
      "stateMutability": "nonpayable",
      "type": "function"
    },
    {
      "inputs": [
        {
          "internalType": "address",
          "name": "newOwner",
          "type": "address"
        }
      ],
      "name": "transferOwnership",
      "outputs": [],
      "stateMutability": "nonpayable",
      "type": "function"
    },
    {
      "inputs": [],
      "name": "wNative",
      "outputs": [
        {
          "internalType": "address",
          "name": "",
          "type": "address"
        }
      ],
      "stateMutability": "view",
      "type": "function"
    },
    {
      "inputs": [
        {
          "internalType": "address",
          "name": "worker",
          "type": "address"
        },
        {
          "internalType": "uint256",
          "name": "",
          "type": "uint256"
        }
      ],
      "name": "workFactor",
      "outputs": [
        {
          "internalType": "uint256",
          "name": "",
          "type": "uint256"
        }
      ],
      "stateMutability": "view",
      "type": "function"
    },
    {
      "inputs": [
        {
          "internalType": "address",
          "name": "",
          "type": "address"
        }
      ],
      "name": "workers",
      "outputs": [
        {
          "internalType": "bool",
          "name": "acceptDebt",
          "type": "bool"
        },
        {
          "internalType": "uint64",
          "name": "workFactor",
          "type": "uint64"
        },
        {
          "internalType": "uint64",
          "name": "killFactor",
          "type": "uint64"
        },
        {
          "internalType": "uint64",
          "name": "maxPriceDiff",
          "type": "uint64"
        }
      ],
      "stateMutability": "view",
      "type": "function"
    }
  ],
  "bytecode": "0x608060405234801561001057600080fd5b5061223e806100206000396000f3fe608060405234801561001057600080fd5b50600436106100f05760003560e01c80620237f0146100f557806301d3a87c1461011e5780630c340a24146101335780630e803bf51461014857806313f6321b1461015b5780632d68efc91461017b5780634048a25714610183578063485cc955146101a65780634f69476a146101b9578063715018a6146101cc5780637adbf973146101d45780637dc0d1d0146101e75780638bdc44d1146101ef5780638da5cb5b146102025780639185f6ec1461020a578063ad58e5731461021d578063c42cf53514610230578063c45a015514610243578063f2fde38b1461024b575b600080fd5b610108610103366004611986565b61025e565b6040516101159190611ca9565b60405180910390f35b61013161012c366004611a7e565b6102ad565b005b61013b6104e6565b6040516101159190611c7b565b6101316101563660046119e9565b6104f5565b61016e6101693660046119be565b610871565b6040516101159190612121565b61013b6108c9565b610196610191366004611986565b6108d8565b6040516101159493929190611cb4565b6101316101b4366004611b98565b610912565b61016e6101c73660046119be565b610aee565b610131610b1a565b6101316101e2366004611986565b610b87565b61013b610c2a565b6101086101fd366004611986565b610c39565b61013b610f4b565b610108610218366004611986565b610f5a565b61016e61022b3660046119be565b6113f4565b61013161023e366004611986565b611446565b61013b6114dd565b610131610259366004611986565b6114ec565b600061026982610f5a565b61028e5760405162461bcd60e51b815260040161028590612077565b60405180910390fd5b506001600160a01b03166000908152609a602052604090205460ff1690565b609b546001600160a01b03166102c1611591565b6001600160a01b0316146102e75760405162461bcd60e51b8152600401610285906120c4565b8160005b818110156104df5782609a600087878581811061030457fe5b90506020020160208101906103199190611986565b6001600160a01b031681526020810191909152604001600020805460ff191691151591909117905584848281811061034d57fe5b90506020020160208101906103629190611986565b6001600160a01b0316610373611591565b6001600160a01b03166000805160206121e9833981519152609a600089898781811061039b57fe5b90506020020160208101906103b09190611986565b6001600160a01b03168152602081019190915260400160009081205460ff1690609a908a8a888181106103df57fe5b90506020020160208101906103f49190611986565b6001600160a01b03168152602081019190915260400160009081205461010090046001600160401b031690609a908b8b8981811061042e57fe5b90506020020160208101906104439190611986565b6001600160a01b031681526020810191909152604001600090812054600160481b90046001600160401b031690609a908c8c8a81811061047f57fe5b90506020020160208101906104949190611986565b6001600160a01b03168152602081019190915260409081016000205490516104cf94939291600160881b90046001600160401b031690611cb4565b60405180910390a36001016102eb565b5050505050565b609b546001600160a01b031681565b6104fd611591565b6065546001600160a01b0390811691161461052a5760405162461bcd60e51b815260040161028590611e51565b8281811461054a5760405162461bcd60e51b815260040161028590611dc3565b60005b8181101561086957604051806080016040528085858481811061056c57fe5b6105829260206080909202019081019150611b7c565b1515815260200185858481811061059557fe5b90506080020160200160208101906105ad9190611c54565b6001600160401b031681526020018585848181106105c757fe5b90506080020160400160208101906105df9190611c54565b6001600160401b031681526020018585848181106105f957fe5b90506080020160600160208101906106119190611c54565b6001600160401b03169052609a600088888581811061062c57fe5b90506020020160208101906106419190611986565b6001600160a01b03168152602080820192909252604090810160002083518154938501519285015160609095015160ff1990941690151517610100600160481b0319166101006001600160401b039384160217600160481b600160881b031916600160481b9483169490940293909317600160881b600160c81b031916600160881b91909216021790558585828181106106d757fe5b90506020020160208101906106ec9190611986565b6001600160a01b03166106fd611591565b6001600160a01b03166000805160206121e9833981519152609a60008a8a8781811061072557fe5b905060200201602081019061073a9190611986565b6001600160a01b03168152602081019190915260400160009081205460ff1690609a908b8b8881811061076957fe5b905060200201602081019061077e9190611986565b6001600160a01b03168152602081019190915260400160009081205461010090046001600160401b031690609a908c8c898181106107b857fe5b90506020020160208101906107cd9190611986565b6001600160a01b031681526020810191909152604001600090812054600160481b90046001600160401b031690609a908d8d8a81811061080957fe5b905060200201602081019061081e9190611986565b6001600160a01b031681526020810191909152604090810160002054905161085994939291600160881b90046001600160401b031690611cb4565b60405180910390a360010161054d565b505050505050565b600061087c83610f5a565b6108985760405162461bcd60e51b815260040161028590611d76565b506001600160a01b0382166000908152609a6020526040902054600160481b90046001600160401b03165b92915050565b6099546001600160a01b031681565b609a6020526000908152604090205460ff8116906001600160401b036101008204811691600160481b8104821691600160881b9091041684565b600054610100900460ff168061092b575061092b611595565b80610939575060005460ff16155b6109555760405162461bcd60e51b815260040161028590611ed3565b600054610100900460ff16158015610980576000805460ff1961ff0019909116610100171660011790555b61098861159b565b82609760006101000a8154816001600160a01b0302191690836001600160a01b03160217905550816001600160a01b031663c45a01556040518163ffffffff1660e01b815260040160206040518083038186803b1580156109e857600080fd5b505afa1580156109fc573d6000803e3d6000fd5b505050506040513d601f19601f82011682018060405250810190610a2091906119a2565b609860006101000a8154816001600160a01b0302191690836001600160a01b03160217905550816001600160a01b031663ad5c46486040518163ffffffff1660e01b815260040160206040518083038186803b158015610a7f57600080fd5b505afa158015610a93573d6000803e3d6000fd5b505050506040513d601f19601f82011682018060405250810190610ab791906119a2565b609980546001600160a01b0319166001600160a01b03929092169190911790558015610ae9576000805461ff00191690555b505050565b506001600160a01b03166000908152609a6020526040902054600160481b90046001600160401b031690565b610b22611591565b6065546001600160a01b03908116911614610b4f5760405162461bcd60e51b815260040161028590611e51565b6065546040516000916001600160a01b0316906000805160206121a9833981519152908390a3606580546001600160a01b0319169055565b610b8f611591565b6065546001600160a01b03908116911614610bbc5760405162461bcd60e51b815260040161028590611e51565b609780546001600160a01b0319166001600160a01b038316179055610bdf611591565b6097546040516001600160a01b03928316927fb7261e9c33aa7c56209c3bf60b424a8f9551ce28876c0ab3d0c487695e94348792610c1f92911690611c7b565b60405180910390a250565b6097546001600160a01b031681565b6000808290506060816001600160a01b031663555b37be6040518163ffffffff1660e01b815260040160006040518083038186803b158015610c7a57600080fd5b505afa158015610c8e573d6000803e3d6000fd5b505050506040513d6000823e601f3d908101601f19168201604052610cb69190810190611ad2565b9050600060015b8251811015610f3f5760985483516001600160a01b039091169063e6a439059085906000198501908110610ced57fe5b6020026020010151858481518110610d0157fe5b60200260200101516040518363ffffffff1660e01b8152600401610d26929190611c8f565b60206040518083038186803b158015610d3e57600080fd5b505afa158015610d52573d6000803e3d6000fd5b505050506040513d601f19601f82011682018060405250810190610d7691906119a2565b91506000826001600160a01b0316630dfe16816040518163ffffffff1660e01b815260040160206040518083038186803b158015610db357600080fd5b505afa158015610dc7573d6000803e3d6000fd5b505050506040513d601f19601f82011682018060405250810190610deb91906119a2565b90506000836001600160a01b031663d21220a76040518163ffffffff1660e01b815260040160206040518083038186803b158015610e2857600080fd5b505afa158015610e3c573d6000803e3d6000fd5b505050506040513d601f19601f82011682018060405250810190610e6091906119a2565b9050600080856001600160a01b0316630902f1ac6040518163ffffffff1660e01b815260040160606040518083038186803b158015610e9e57600080fd5b505afa158015610eb2573d6000803e3d6000fd5b505050506040513d601f19601f82011682018060405250810190610ed69190611bd0565b506001600160701b0391821693501690506000610f026001600160a01b0386168863ffffffff61162e16565b90506000610f1f6001600160a01b0386168963ffffffff61162e16565b9050610f2d848484846116b4565b505060019094019350610cbd92505050565b50600195945050505050565b6065546001600160a01b031690565b6000808290506060816001600160a01b031663555b37be6040518163ffffffff1660e01b815260040160006040518083038186803b158015610f9b57600080fd5b505afa158015610faf573d6000803e3d6000fd5b505050506040513d6000823e601f3d908101601f19168201604052610fd79190810190611ad2565b6001600160a01b0385166000908152609a602052604081205491925090600160881b90046001600160401b031660015b83518110156113e75760985484516001600160a01b039091169063e6a43905908690600019850190811061103757fe5b602002602001015186848151811061104b57fe5b60200260200101516040518363ffffffff1660e01b8152600401611070929190611c8f565b60206040518083038186803b15801561108857600080fd5b505afa15801561109c573d6000803e3d6000fd5b505050506040513d601f19601f820116820180604052508101906110c091906119a2565b92506000836001600160a01b0316630dfe16816040518163ffffffff1660e01b815260040160206040518083038186803b1580156110fd57600080fd5b505afa158015611111573d6000803e3d6000fd5b505050506040513d601f19601f8201168201806040525081019061113591906119a2565b90506000846001600160a01b031663d21220a76040518163ffffffff1660e01b815260040160206040518083038186803b15801561117257600080fd5b505afa158015611186573d6000803e3d6000fd5b505050506040513d601f19601f820116820180604052508101906111aa91906119a2565b9050600080866001600160a01b0316630902f1ac6040518163ffffffff1660e01b815260040160606040518083038186803b1580156111e857600080fd5b505afa1580156111fc573d6000803e3d6000fd5b505050506040513d601f19601f820116820180604052508101906112209190611bd0565b506001600160701b039182169350169050600061124c6001600160a01b0386168963ffffffff61162e16565b905060006112696001600160a01b0386168a63ffffffff61162e16565b9050611277848484846116b4565b609754604051635620c32d60e11b815260009182916001600160a01b039091169063ac41865a906112ae908b908b90600401611c8f565b604080518083038186803b1580156112c557600080fd5b505afa1580156112d9573d6000803e3d6000fd5b505050506040513d601f19601f820116820180604052508101906112fd9190611c31565b915091506201518042038110156113265760405162461bcd60e51b815260040161028590611fac565b60006113508761134488670de0b6b3a764000063ffffffff61173a16565b9063ffffffff61177416565b9050611362838c63ffffffff61173a16565b6113748261271063ffffffff61173a16565b11156113925760405162461bcd60e51b815260040161028590611f21565b6113a48361271063ffffffff61173a16565b6113b4828d63ffffffff61173a16565b10156113d25760405162461bcd60e51b815260040161028590612038565b50506001909701965061100795505050505050565b5060019695505050505050565b60006113ff83610f5a565b61141b5760405162461bcd60e51b815260040161028590611e86565b50506001600160a01b03166000908152609a602052604090205461010090046001600160401b031690565b61144e611591565b6065546001600160a01b0390811691161461147b5760405162461bcd60e51b815260040161028590611e51565b609b80546001600160a01b0319166001600160a01b038381169190911791829055166114a5611591565b6001600160a01b03167fe7fbe5d154bee3a04d0155120b6990ed889fe54e7ba598e69d51ff35a4c43e5f60405160405180910390a350565b6098546001600160a01b031681565b6114f4611591565b6065546001600160a01b039081169116146115215760405162461bcd60e51b815260040161028590611e51565b6001600160a01b0381166115475760405162461bcd60e51b815260040161028590611d30565b6065546040516001600160a01b038084169216906000805160206121a983398151915290600090a3606580546001600160a01b0319166001600160a01b0392909216919091179055565b3390565b303b1590565b600054610100900460ff16806115b457506115b4611595565b806115c2575060005460ff16155b6115de5760405162461bcd60e51b815260040161028590611ed3565b600054610100900460ff16158015611609576000805460ff1961ff0019909116610100171660011790555b6116116117b3565b611619611834565b801561162b576000805461ff00191690555b50565b6040516370a0823160e01b81526000906001600160a01b038416906370a082319061165d908590600401611c7b565b60206040518083038186803b15801561167557600080fd5b505afa158015611689573d6000803e3d6000fd5b505050506040513d601f19601f820116820180604052508101906116ad9190611c19565b9392505050565b6116c584606563ffffffff61173a16565b6116d683606463ffffffff61173a16565b11156116f45760405162461bcd60e51b815260040161028590611fed565b61170583606563ffffffff61173a16565b61171682606463ffffffff61173a16565b11156117345760405162461bcd60e51b815260040161028590611f61565b50505050565b600082611749575060006108c3565b8282028284828161175657fe5b04146116ad5760405162461bcd60e51b815260040161028590611e10565b60006116ad83836040518060400160405280601a815260200179536166654d6174683a206469766973696f6e206279207a65726f60301b8152506118fc565b600054610100900460ff16806117cc57506117cc611595565b806117da575060005460ff16155b6117f65760405162461bcd60e51b815260040161028590611ed3565b600054610100900460ff16158015611619576000805460ff1961ff001990911661010017166001179055801561162b576000805461ff001916905550565b600054610100900460ff168061184d575061184d611595565b8061185b575060005460ff16155b6118775760405162461bcd60e51b815260040161028590611ed3565b600054610100900460ff161580156118a2576000805460ff1961ff0019909116610100171660011790555b60006118ac611591565b606580546001600160a01b0319166001600160a01b038316908117909155604051919250906000906000805160206121a9833981519152908290a350801561162b576000805461ff001916905550565b6000818361191d5760405162461bcd60e51b81526004016102859190611cdd565b50600083858161192957fe5b0495945050505050565b80516108c381612150565b60008083601f84011261194f578182fd5b5081356001600160401b03811115611965578182fd5b602083019150836020808302850101111561197f57600080fd5b9250929050565b600060208284031215611997578081fd5b81356116ad81612150565b6000602082840312156119b3578081fd5b81516116ad81612150565b600080604083850312156119d0578081fd5b82356119db81612150565b946020939093013593505050565b600080600080604085870312156119fe578182fd5b84356001600160401b0380821115611a14578384fd5b611a208883890161193e565b90965094506020870135915080821115611a38578384fd5b81870188601f820112611a49578485fd5b8035925081831115611a59578485fd5b886020608085028301011115611a6d578485fd5b959894975050602090940194505050565b600080600060408486031215611a92578283fd5b83356001600160401b03811115611aa7578384fd5b611ab38682870161193e565b9094509250506020840135611ac781612165565b809150509250925092565b60006020808385031215611ae4578182fd5b82516001600160401b0380821115611afa578384fd5b81850186601f820112611b0b578485fd5b8051925081831115611b1b578485fd5b8383029150611b2b84830161212a565b8381528481019082860184840187018a1015611b45578788fd5b8794505b85851015611b6f57611b5b8a82611933565b835260019490940193918601918601611b49565b5098975050505050505050565b600060208284031215611b8d578081fd5b81356116ad81612165565b60008060408385031215611baa578182fd5b8235611bb581612150565b91506020830135611bc581612150565b809150509250929050565b600080600060608486031215611be4578283fd5b8351611bef81612173565b6020850151909350611c0081612173565b604085015190925063ffffffff81168114611ac7578182fd5b600060208284031215611c2a578081fd5b5051919050565b60008060408385031215611c43578182fd5b505080516020909101519092909150565b600060208284031215611c65578081fd5b81356001600160401b03811681146116ad578182fd5b6001600160a01b0391909116815260200190565b6001600160a01b0392831681529116602082015260400190565b901515815260200190565b93151584526001600160401b039283166020850152908216604084015216606082015260800190565b6000602080835283518082850152825b81811015611d0957858101830151858201604001528201611ced565b81811115611d1a5783604083870101525b50601f01601f1916929092016040019392505050565b60208082526026908201527f4f776e61626c653a206e6577206f776e657220697320746865207a65726f206160408201526564647265737360d01b606082015260800190565b6020808252602d908201527f53696e676c654173736574576f726b6572436f6e6669673a3a6b696c6c46616360408201526c746f723a3a2021737461626c6560981b606082015260800190565b6020808252602d908201527f53696e676c654173736574576f726b6572436f6e6669673a3a736574436f6e6660408201526c34b3b99d1d103130b2103632b760991b606082015260800190565b60208082526021908201527f536166654d6174683a206d756c7469706c69636174696f6e206f766572666c6f6040820152607760f81b606082015260800190565b6020808252818101527f4f776e61626c653a2063616c6c6572206973206e6f7420746865206f776e6572604082015260600190565b6020808252602d908201527f53696e676c654173736574576f726b6572436f6e6669673a3a776f726b46616360408201526c746f723a3a2021737461626c6560981b606082015260800190565b6020808252602e908201527f436f6e747261637420696e7374616e63652068617320616c726561647920626560408201526d195b881a5b9a5d1a585b1a5e995960921b606082015260800190565b60208082526032908201526000805160206121c98339815191526040820152710ca747440e0e4d2c6ca40e8dede40d0d2ced60731b606082015260800190565b6020808252603d9082015260008051602061218983398151915260408201527f7665436f6e73697374656e743a3a206261642074312062616c616e6365000000606082015260800190565b60208082526033908201526000805160206121c9833981519152604082015272653a3a20707269636520746f6f207374616c6560681b606082015260800190565b6020808252603d9082015260008051602061218983398151915260408201527f7665436f6e73697374656e743a3a206261642074302062616c616e6365000000606082015260800190565b60208082526031908201526000805160206121c9833981519152604082015270653a3a20707269636520746f6f206c6f7760781b606082015260800190565b6020808252602d908201527f53696e676c654173736574576f726b6572436f6e6669673a3a6163636570744460408201526c6562743a3a2021737461626c6560981b606082015260800190565b6020808252603f908201527f53696e676c654173736574576f726b6572436f6e6669673a3a6f6e6c79476f7660408201527f65726e6f723a3a206d73672e73656e646572206e6f7420676f7665726e6f7200606082015260800190565b90815260200190565b6040518181016001600160401b038111828210171561214857600080fd5b604052919050565b6001600160a01b038116811461162b57600080fd5b801515811461162b57600080fd5b6001600160701b038116811461162b57600080fdfe53696e676c654173736574576f726b6572436f6e6669673a3a697352657365728be0079c531659141344cd1fd0a4f28419497f9722a3daafe3b4186f6b6457e053696e676c654173736574576f726b6572436f6e6669673a3a6973537461626c08a74b0dbdf5e9fe6c6f0bc2418cdebfc921cb7a115f5e58de79c244a5a5a877a26469706673582212209fd9e5b2610ce82cb9907b0e6ccfdcf8ab25ed3d297c209124f4f4728b0e4ee864736f6c63430006060033",
  "linkReferences": {},
  "deployedLinkReferences": {}
}