{
  "_format": "hh-sol-artifact-1",
  "contractName": "PancakeswapV2RestrictedStrategyAddTwoSidesOptimal",
  "sourceName": "contracts/6/protocol/strategies/pancakeswapV2-restricted/PancakeswapV2RestrictedStrategyAddTwosidesOptimal.sol",
  "abi": [
    {
      "anonymous": false,
      "inputs": [
        {
          "indexed": true,
          "internalType": "address",
          "name": "previousOwner",
          "type": "address"
        },
        {
          "indexed": true,
          "internalType": "address",
          "name": "newOwner",
          "type": "address"
        }
      ],
      "name": "OwnershipTransferred",
      "type": "event"
    },
    {
      "inputs": [
        {
          "internalType": "address",
          "name": "",
          "type": "address"
        },
        {
          "internalType": "uint256",
          "name": "",
          "type": "uint256"
        },
        {
          "internalType": "bytes",
          "name": "data",
          "type": "bytes"
        }
      ],
      "name": "execute",
      "outputs": [],
      "stateMutability": "nonpayable",
      "type": "function"
    },
    {
      "inputs": [],
      "name": "factory",
      "outputs": [
        {
          "internalType": "contract IPancakeFactory",
          "name": "",
          "type": "address"
        }
      ],
      "stateMutability": "view",
      "type": "function"
    },
    {
      "inputs": [
        {
          "internalType": "contract IPancakeRouter02",
          "name": "_router",
          "type": "address"
        },
        {
          "internalType": "contract IVault",
          "name": "_vault",
          "type": "address"
        }
      ],
      "name": "initialize",
      "outputs": [],
      "stateMutability": "nonpayable",
      "type": "function"
    },
    {
      "inputs": [
        {
          "internalType": "address",
          "name": "",
          "type": "address"
        }
      ],
      "name": "okWorkers",
      "outputs": [
        {
          "internalType": "bool",
          "name": "",
          "type": "bool"
        }
      ],
      "stateMutability": "view",
      "type": "function"
    },
    {
      "inputs": [],
      "name": "owner",
      "outputs": [
        {
          "internalType": "address",
          "name": "",
          "type": "address"
        }
      ],
      "stateMutability": "view",
      "type": "function"
    },
    {
      "inputs": [],
      "name": "renounceOwnership",
      "outputs": [],
      "stateMutability": "nonpayable",
      "type": "function"
    },
    {
      "inputs": [],
      "name": "router",
      "outputs": [
        {
          "internalType": "contract IPancakeRouter02",
          "name": "",
          "type": "address"
        }
      ],
      "stateMutability": "view",
      "type": "function"
    },
    {
      "inputs": [
        {
          "internalType": "address[]",
          "name": "workers",
          "type": "address[]"
        },
        {
          "internalType": "bool",
          "name": "isOk",
          "type": "bool"
        }
      ],
      "name": "setWorkersOk",
      "outputs": [],
      "stateMutability": "nonpayable",
      "type": "function"
    },
    {
      "inputs": [
        {
          "internalType": "address",
          "name": "newOwner",
          "type": "address"
        }
      ],
      "name": "transferOwnership",
      "outputs": [],
      "stateMutability": "nonpayable",
      "type": "function"
    },
    {
      "inputs": [],
      "name": "vault",
      "outputs": [
        {
          "internalType": "contract IVault",
          "name": "",
          "type": "address"
        }
      ],
      "stateMutability": "view",
      "type": "function"
    }
  ],
  "bytecode": "0x608060405234801561001057600080fd5b50611bc6806100206000396000f3fe608060405234801561001057600080fd5b506004361061008e5760003560e01c8063485cc95514610093578063715018a6146100c35780637c5bdf49146100cb5780638da5cb5b1461013b578063b61d27f61461015f578063c45a0155146101e2578063f2fde38b146101ea578063f887ea4014610210578063fa82647814610218578063fbfa77cf14610252575b600080fd5b6100c1600480360360408110156100a957600080fd5b506001600160a01b038135811691602001351661025a565b005b6100c16103ae565b6100c1600480360360408110156100e157600080fd5b810190602081018135600160201b8111156100fb57600080fd5b82018360208201111561010d57600080fd5b803590602001918460208302840111600160201b8311171561012e57600080fd5b919350915035151561043e565b6101436104f1565b604080516001600160a01b039092168252519081900360200190f35b6100c16004803603606081101561017557600080fd5b6001600160a01b0382351691602081013591810190606081016040820135600160201b8111156101a457600080fd5b8201836020820111156101b657600080fd5b803590602001918460018302840111600160201b831117156101d757600080fd5b509092509050610500565b610143610deb565b6100c16004803603602081101561020057600080fd5b50356001600160a01b0316610dfa565b610143610ee1565b61023e6004803603602081101561022e57600080fd5b50356001600160a01b0316610ef0565b604080519115158252519081900360200190f35b610143610f05565b600054610100900460ff16806102735750610273610f14565b80610281575060005460ff16155b6102bc5760405162461bcd60e51b815260040180806020018281038252602e815260200180611aa7602e913960400191505060405180910390fd5b600054610100900460ff161580156102e7576000805460ff1961ff0019909116610100171660011790555b6102ef610f1a565b6102f7610fcc565b826001600160a01b031663c45a01556040518163ffffffff1660e01b815260040160206040518083038186803b15801561033057600080fd5b505afa158015610344573d6000803e3d6000fd5b505050506040513d602081101561035a57600080fd5b505160c980546001600160a01b03199081166001600160a01b039384161790915560ca8054821686841617905560cb805490911691841691909117905580156103a9576000805461ff00191690555b505050565b6103b6611061565b6065546001600160a01b03908116911614610406576040805162461bcd60e51b81526020600482018190526024820152600080516020611a67833981519152604482015290519081900360640190fd5b6065546040516000916001600160a01b031690600080516020611a87833981519152908390a3606580546001600160a01b0319169055565b610446611061565b6065546001600160a01b03908116911614610496576040805162461bcd60e51b81526020600482018190526024820152600080516020611a67833981519152604482015290519081900360640190fd5b60005b828110156104eb578160cc60008686858181106104b257fe5b602090810292909201356001600160a01b0316835250810191909152604001600020805460ff1916911515919091179055600101610499565b50505050565b6065546001600160a01b031690565b33600090815260cc602052604090205460ff1661054e5760405162461bcd60e51b8152600401808060200182810382526056815260200180611b3b6056913960600191505060405180910390fd5b60975460ff166105a5576040805162461bcd60e51b815260206004820152601f60248201527f5265656e7472616e637947756172643a207265656e7472616e742063616c6c00604482015290519081900360640190fd5b6097805460ff19169055600080838360408110156105c257600080fd5b506040805163c55dae6360e01b815290518235945060209283013593503392600092849263c55dae6392600480840193919291829003018186803b15801561060957600080fd5b505afa15801561061d573d6000803e3d6000fd5b505050506040513d602081101561063357600080fd5b50516040805163ad24dce760e01b815290519192506000916001600160a01b0385169163ad24dce7916004808301926020929190829003018186803b15801561067b57600080fd5b505afa15801561068f573d6000803e3d6000fd5b505050506040513d60208110156106a557600080fd5b505160c9546040805163e6a4390560e01b81526001600160a01b03808516600483015286811660248301529151939450600093919092169163e6a43905916044808301926020929190829003018186803b15801561070257600080fd5b505afa158015610716573d6000803e3d6000fd5b505050506040513d602081101561072c57600080fd5b505160ca54909150610753906001600160a01b03858116911660001963ffffffff61106516565b60ca54610775906001600160a01b03848116911660001963ffffffff61106516565b60cb54604080516324a3335b60e11b81526001600160a01b038581166004830152602482018a90529151919092169163494666b691604480830192600092919082900301818387803b1580156107ca57600080fd5b505af11580156107de573d6000803e3d6000fd5b5050505060006107f6846001600160a01b03166111be565b9050600080600080856001600160a01b0316630902f1ac6040518163ffffffff1660e01b815260040160606040518083038186803b15801561083757600080fd5b505afa15801561084b573d6000803e3d6000fd5b505050506040513d606081101561086157600080fd5b50805160209182015160408051630dfe168160e01b815290516001600160701b03938416965092909116935060009283926001600160a01b03808e1693908c1692630dfe168192600480840193829003018186803b1580156108c257600080fd5b505afa1580156108d6573d6000803e3d6000fd5b505050506040513d60208110156108ec57600080fd5b50516001600160a01b031614610903578284610906565b83835b91509150610927876109208b6001600160a01b03166111be565b848461123c565b909650945060609350600292506000915061093f9050565b50604051908082528060200260200182016040528015610969578160200160208202803683370190505b5090508161097857868661097b565b85875b8260008151811061098857fe5b602002602001018360018151811061099c57fe5b6001600160a01b039384166020918202929092010152911690528215610b345760ca546040516338ed173960e01b8152600481018581526000602483018190523060648401819052426084850181905260a060448601908152875160a487015287516001600160a01b03909716966338ed1739968b968a9594939092909160c40190602080880191028083838b5b83811015610a42578181015183820152602001610a2a565b505050509050019650505050505050600060405180830381600087803b158015610a6b57600080fd5b505af1158015610a7f573d6000803e3d6000fd5b505050506040513d6000823e601f3d908101601f191682016040526020811015610aa857600080fd5b8101908080516040519392919084600160201b821115610ac757600080fd5b908301906020820185811115610adc57600080fd5b82518660208202830111600160201b82111715610af857600080fd5b82525081516020918201928201910280838360005b83811015610b25578181015183820152602001610b0d565b50505050905001604052505050505b60ca546000906001600160a01b039081169063e8e33700908a908a90610b5b9083166111be565b610b6d8c6001600160a01b03166111be565b604080516001600160e01b031960e088901b1681526001600160a01b0395861660048201529390941660248401526044830191909152606482015260006084820181905260a482018190523060c48301524260e483015291516101048083019360609383900390910190829087803b158015610be857600080fd5b505af1158015610bfc573d6000803e3d6000fd5b505050506040513d6060811015610c1257600080fd5b5060400151905089811015610c585760405162461bcd60e51b815260040180806020018281038252605c8152602001806119c4605c913960600191505060405180910390fd5b604080516370a0823160e01b815230600482015290516001600160a01b0388169163a9059cbb91339184916370a0823191602480820192602092909190829003018186803b158015610ca957600080fd5b505afa158015610cbd573d6000803e3d6000fd5b505050506040513d6020811015610cd357600080fd5b5051604080516001600160e01b031960e086901b1681526001600160a01b03909316600484015260248301919091525160448083019260209291908290030181600087803b158015610d2457600080fd5b505af1158015610d38573d6000803e3d6000fd5b505050506040513d6020811015610d4e57600080fd5b5051610d8b5760405162461bcd60e51b8152600401808060200182810382526066815260200180611ad56066913960800191505060405180910390fd5b60ca54610dac906001600160a01b038981169116600063ffffffff61106516565b60ca54610dcd906001600160a01b038a81169116600063ffffffff61106516565b50506097805460ff1916600117905550505050505050505050505050565b60c9546001600160a01b031681565b610e02611061565b6065546001600160a01b03908116911614610e52576040805162461bcd60e51b81526020600482018190526024820152600080516020611a67833981519152604482015290519081900360640190fd5b6001600160a01b038116610e975760405162461bcd60e51b8152600401808060200182810382526026815260200180611a206026913960400191505060405180910390fd5b6065546040516001600160a01b03808416921690600080516020611a8783398151915290600090a3606580546001600160a01b0319166001600160a01b0392909216919091179055565b60ca546001600160a01b031681565b60cc6020526000908152604090205460ff1681565b60cb546001600160a01b031681565b303b1590565b600054610100900460ff1680610f335750610f33610f14565b80610f41575060005460ff16155b610f7c5760405162461bcd60e51b815260040180806020018281038252602e815260200180611aa7602e913960400191505060405180910390fd5b600054610100900460ff16158015610fa7576000805460ff1961ff0019909116610100171660011790555b610faf611297565b610fb7611337565b8015610fc9576000805461ff00191690555b50565b600054610100900460ff1680610fe55750610fe5610f14565b80610ff3575060005460ff16155b61102e5760405162461bcd60e51b815260040180806020018281038252602e815260200180611aa7602e913960400191505060405180910390fd5b600054610100900460ff16158015611059576000805460ff1961ff0019909116610100171660011790555b610fb761141e565b3390565b604080516001600160a01b038481166024830152604480830185905283518084039091018152606490920183526020820180516001600160e01b031663095ea7b360e01b178152925182516000946060949389169392918291908083835b602083106110e25780518252601f1990920191602091820191016110c3565b6001836020036101000a0380198251168184511680821785525050505050509050019150506000604051808303816000865af19150503d8060008114611144576040519150601f19603f3d011682016040523d82523d6000602084013e611149565b606091505b5091509150818015611177575080511580611177575080806020019051602081101561117457600080fd5b50515b6111b7576040805162461bcd60e51b815260206004820152600c60248201526b2173616665417070726f766560a01b604482015290519081900360640190fd5b5050505050565b604080516370a0823160e01b815230600482015290516000916001600160a01b038416916370a0823191602480820192602092909190829003018186803b15801561120857600080fd5b505afa15801561121c573d6000803e3d6000fd5b505050506040513d602081101561123257600080fd5b505190505b919050565b60008061124f858563ffffffff6114cc16565b61125f878563ffffffff6114cc16565b1061127b576112708686868661152e565b91506000905061128e565b6112878587858761152e565b9150600190505b94509492505050565b600054610100900460ff16806112b057506112b0610f14565b806112be575060005460ff16155b6112f95760405162461bcd60e51b815260040180806020018281038252602e815260200180611aa7602e913960400191505060405180910390fd5b600054610100900460ff16158015610fb7576000805460ff1961ff0019909116610100171660011790558015610fc9576000805461ff001916905550565b600054610100900460ff16806113505750611350610f14565b8061135e575060005460ff16155b6113995760405162461bcd60e51b815260040180806020018281038252602e815260200180611aa7602e913960400191505060405180910390fd5b600054610100900460ff161580156113c4576000805460ff1961ff0019909116610100171660011790555b60006113ce611061565b606580546001600160a01b0319166001600160a01b03831690811790915560405191925090600090600080516020611a87833981519152908290a3508015610fc9576000805461ff001916905550565b600054610100900460ff16806114375750611437610f14565b80611445575060005460ff16155b6114805760405162461bcd60e51b815260040180806020018281038252602e815260200180611aa7602e913960400191505060405180910390fd5b600054610100900460ff161580156114ab576000805460ff1961ff0019909116610100171660011790555b6097805460ff191660011790558015610fc9576000805461ff001916905550565b6000826114db57506000611528565b828202828482816114e857fe5b04146115255760405162461bcd60e51b8152600401808060200182810382526021815260200180611a466021913960400191505060405180910390fd5b90505b92915050565b6000611540848463ffffffff6114cc16565b611550868463ffffffff6114cc16565b101561158e576040805162461bcd60e51b815260206004820152600860248201526714995d995c9cd95960c21b604482015290519081900360640190fd5b6126f760006115a5614e078663ffffffff6114cc16565b905060006115d86115bc888863ffffffff6114cc16565b6115cc8a8863ffffffff6114cc16565b9063ffffffff6116ae16565b9050600061161d876116116115f38b8a63ffffffff6116f016565b6116058661271063ffffffff6114cc16565b9063ffffffff61174816565b9063ffffffff6114cc16565b905060006116366004611611878563ffffffff6114cc16565b9050600061166261165d83611651888063ffffffff6114cc16565b9063ffffffff6116f016565b611787565b90506000611676828763ffffffff6116ae16565b9050600061168b88600263ffffffff6114cc16565b905061169d828263ffffffff61174816565b9d9c50505050505050505050505050565b600061152583836040518060400160405280601e81526020017f536166654d6174683a207375627472616374696f6e206f766572666c6f7700008152506118c7565b600082820183811015611525576040805162461bcd60e51b815260206004820152601b60248201527a536166654d6174683a206164646974696f6e206f766572666c6f7760281b604482015290519081900360640190fd5b600061152583836040518060400160405280601a815260200179536166654d6174683a206469766973696f6e206279207a65726f60301b81525061195e565b60008161179657506000611237565b816001600160801b82106117af5760809190911c9060401b5b600160401b82106117c55760409190911c9060201b5b600160201b82106117db5760209190911c9060101b5b6201000082106117f05760109190911c9060081b5b61010082106118045760089190911c9060041b5b601082106118175760049190911c9060021b5b600882106118235760011b5b600181858161182e57fe5b048201901c9050600181858161184057fe5b048201901c9050600181858161185257fe5b048201901c9050600181858161186457fe5b048201901c9050600181858161187657fe5b048201901c9050600181858161188857fe5b048201901c9050600181858161189a57fe5b048201901c905060008185816118ac57fe5b0490508082106118bc57806118be565b815b95945050505050565b600081848411156119565760405162461bcd60e51b81526004018080602001828103825283818151815260200191508051906020019080838360005b8381101561191b578181015183820152602001611903565b50505050905090810190601f1680156119485780820380516001836020036101000a031916815260200191505b509250505060405180910390fd5b505050900390565b600081836119ad5760405162461bcd60e51b815260206004820181815283516024840152835190928392604490910191908501908083836000831561191b578181015183820152602001611903565b5060008385816119b957fe5b049594505050505056fe50616e63616b6573776170563252657374726963746564537472617465677941646454776f53696465734f7074696d616c3a3a657865637574653a3a20696e73756666696369656e74204c5020746f6b656e732072656365697665644f776e61626c653a206e6577206f776e657220697320746865207a65726f2061646472657373536166654d6174683a206d756c7469706c69636174696f6e206f766572666c6f774f776e61626c653a2063616c6c6572206973206e6f7420746865206f776e65728be0079c531659141344cd1fd0a4f28419497f9722a3daafe3b4186f6b6457e0436f6e747261637420696e7374616e63652068617320616c7265616479206265656e20696e697469616c697a656450616e63616b6573776170563252657374726963746564537472617465677941646454776f53696465734f7074696d616c3a3a657865637574653a3a206661696c656420746f207472616e73666572204c5020746f6b656e20746f206d73672e73656e64657250616e63616b6573776170563252657374726963746564537472617465677941646454776f53696465734f7074696d616c3a3a6f6e6c7957686974656c6973746564576f726b6572733a3a2062616420776f726b6572a26469706673582212206d6c64380d9098d0e726974e736f8a10057e48b17efe86125ad57670a0d97b8a64736f6c63430006060033",
  "linkReferences": {},
  "deployedLinkReferences": {}
}